100001E0407202165507461843     04072021
2000020800070OLAN                          GONZALEZ            OVED                          60617353457     000000000000705061
2000030800458CRUZ                          HERNANDEZ           LUIS ARTURO                   60587500698     000000000000272555
2000040800633OSORIO                        VALENCIA            JESUS ANGEL                   60601101716     000000000000324231
2000050800647MARTINEZ                      GALICIA             RODOLFO ALBERTO               56778541944     000000000000272555
2000060800651MONTES                        NARANJO             LUIS  JAVIER                  60610438053     000000000000272555
2000070800658CORDOVA                       FELIX               JUAN FRANCISCO                60602611123     000000000000272555
2000080800679CONTRERAS                     HERRERA             ISIDRO TRINIDAD               60616091880     000000000000272555
2000090801060RODRIGUEZ                     RODRIGUEZ           EDGAR                         60597051493     000000000000532642
2000100801088MORALES                       ESCAMILLA           ELDA DEL CARMEN               56767663957     000000000000212096
2000110801137VICTORIA                      VIDANA              MARISOL                       56700676950     000000000000482684
2000120801150GARCIA                        LOERA               MARIA GUADALUPE               60608635388     000000000000371115
2000130801080RIVERA                        RODRIGUEZ           BERNARDO                      60584639302     000000000000224075
2000140803252MARQUEZ                       TEJEDA              LESLIE                        60620559188     000000000000354231
2000150803303PEREZ                         CORTES              DANIEL ANTONIO                20007941409     000000000000294231
2000160901417OCANA                         CASTILLO            VICTORIA CONSUELO             60601908132     000000000000041071
2000170901940PEREZ                         DIAZ                GABRIELA JOCELYN              60608032741     000000000000228537
2000180902338HERNANDEZ                     MORENO              BERTHA FLOR                   56795788837     000000000000371115
2000190902374GONZALEZ                      CRUZ                SAMUEL                        60616346996     000000000000497631
2000200902728GONZALEZ                      CRUZ                SANDRA LUZ                    56785279759     000000000000272555
2000210902964LOERA                         SOLIS               DAVID                         60573228651     000000000000489834
2000220903471VALDEZ                        SAUCEDO             LEIDY VICTORIA                56790872774     000000000000294231
2000230903483ZEPEDA                        HERNANDEZ           RUTH CITLALIC                 56771264074     000000000000294231
2000240903160DE LA CRUZ                    MOJICA              LUIS GERARDO                  60603192595     000000000000272555
2000250903555AVILA                         BAUTISTA            ALEXANDER                     60607734441     000000000000294231
2000260903539PIZARRO                       GUTIERREZ           ENRIQUE                       56763577847     000000000000335664
2000270904228MARTINEZ                      DE DIOS             ALDO DE JESUS                 20012322826     000000000000410067
2000280904176MARTINEZ                      GARCIA              MARIO                         60591766593     000000000000272555
2000290903950LOPEZ                         SANTOS              KARLA YESENIA                 25001672703     000000000000272555
2000300904428ESQUIVEL                      HERNANDEZ           OMAR                          56778698509     000000000000294231
2000310904677LOBATO                        SUAREZ              CARLOS EVERARDO               56776693692     000000000000272555
2000320905245SOBERANO                      ISIDRO              LUIS FERNANDO                 25008991804     000000000000041071
2000330905922ORDONEZ                       MATA                EDWIN ALEXIS                  25002328469     000000000000057786
2000340905714RODRIGUEZ                     MORENO              ESTEFANY YAMILETH             56804517759     000000000000230848
30003500033000000000010106464
