000000001                991519246048          000000000071589DANIEL VALENZUELA MARTINEZ              001001
000000002                991537949235          000000000294231THALIA MARTINEZ ZARATE                  001001
000000003                991534736237          000000000294231CECILIA BERENICE VAZQUEZ HERNANDEZ      001001
000000004                991534703177          000000000294231GUADALUPE DEL CARMEN PINEDA SANCHEZ     001001
000000005                991506496331          000000000228537YARELI LEON JIMENEZ                     001001
000000006                991584573572          000000000272555CARLOS DEL CARMEN ARIAS LORETO          001001
000000007                991536886156          000000000272555ANTONIO LUNA IZQUIERDO                  001001
000000008                991534188254          000000000294231RIGOBERTO QUEZADA SAUCEDO               001001
000000009                991583076601          000000000272555JANETH DEL CARMEN LOPEZ MORALES         001001
000000010                991517452931          000000000272555CAROLINA HURTADO PEDRERO                001001
000000011                991510371534          000000000172447ANGEL RAMIREZ SANCHEZ                   001001
000000012                991542944177          000000000172447ZURI SHADAY VELAZQUEZ MONTEJO           001001
000000013                991511577112          000000000172447DORLING ARLEY LOPEZ HERNANDEZ           001001
000000014                991586548134          000000000076121ISAID GARCIA NOLASCO                    001001
000000015                991556803865          000000000076121ALEJANDRINA MEJIA PEREZ                 001001
000000016                991531132153          000000000076121LUIS CESAR AUGUSTO MANCILLA VAZQUEZ     001001
000000017                992697760906          000000000076121KARINA OLVERA CARRASCO                  001001
000000018                991119012095          000000000076121JORGE ASAEL CABRERA SANCHEZ             001001
000000019                991511862751          000000000076121BRANDON ALEXIS CONTRERAS PIN            001001
000000020                991561926904          000000000272555LOURDES RUIZ MARTINEZ                   001001
000000021                991511819948          000000000272555LUZ SELENE CORDERO RAMOS                001001
000000022                991567508832          000000000272555FRANCISCO JAVIER ORTEGA CUATECO         001001
000000023                991572514915          000000000294231DIONISIO MENDOZA ESCOBAR                001001
000000024                991504089251          000000000272555LUIS MIGUEL AMARO PICAZO                001001
000000025                991562390038          000000000294231RAITZANDER ZUNIGA MELENDEZ              001001
000000026                991541607042          000000000272555ARANZA JUDITH HOYOS MENDEZ              001001
000000027                991594654245          000000000272555ROBERTO CARLOS MORA SANCHEZ             001001
000000028                991533505823          000000000294231JAVIER MORA SALAZAR                     001001
000000029                991520255919          000000000254586OSCAR LOPEZ DE LA ROSA                  001001
000000030                991522808215          000000000229024IRIANI PEREZ CORDOBA                    001001
000000031                990473010120          000000000272555ROSA PEDRAZA SALAZAR                    001001
000000032                990475514827          000000000294231GUSTAVO TELLO FLORES                    001001
000000033                991546823300          000000000272555WILBERTH OSWALDO UICAB COCOM            001001
000000034                991595937854          000000000272555DAVID GONZALEZ JUAREZ                   001001
000000035                991525832702          000000000339108JULIO CESAR RAMOS MORALES               001001
000000036                991595763414          000000000272555PERLA JAZMIN GONZALEZ JIMENEZ           001001
000000037                991574216067          000000000532642ANA KAREN TORRES MORALES                001001
000000038                991541814648          000000000272555JUAN MIGUEL GONZALEZ HERNANDEZ          001001
000000039                991526617945          000000000272555MARIA VIRGINIA LOPEZ SOLIS              001001
000000040                992950258326          000000000294231MARCO ANTONIO DE JESUS MARQUINA         001001
000000041                991547157978          000000000272555CESAR MORALES MERINO                    001001
000000042                992959417664          000000000214222MARIA GUADALUPE DELFIN GUTIERREZ        001001
000000043                991525166966          000000000272555FERNANDA PAOLA ESTRADA CHAVEZ           001001
000000044                991161519751          000000000294231CINTHYA MARLET CASTELLANOS FRAIRE       001001
000000045                991557907648          000000000335664ELVIS DANIEL VAZQUEZ CORONEL            001001
000000046                991515706464          000000000294231JUAN RODRIGUEZ TORRES                   001001
000000047                991520531685          000000000272555YESICA PAREDES GONZALEZ                 001001
000000048                991500197401          000000000272555JUAN CARLOS AVILA PIMENTEL              001001
000000049                991519134422          000000000294231PAOLA CANCINO GARCIA                    001001
000000050                992946254314          000000000532642GABRIELA DEL CARMEN GUZMAN MARTINEZ     001001
000000051                991597830125          000000000272555FLOR DE MARIA PEREZ DOMINGUEZ           001001
000000052                991525503551          000000000272555VERONICA GUADALUPE SOLIS JIMENEZ        001001
000000053                991518503047          000000000074252ANTONY ALFONSO FIGUEROA CHAVEZ          001001
000000054                990460950149          000000000339108MA. GREGORIA NICOLASA NAVARRO MANRIQUE  001001
000000055                991572505290          000000000272555CRISTINA BARBOSA ROMERO                 001001
000000056                991506849748          000000000294231ISMAEL ALEXIS GUZMAN VALLADARES         001001
000000057                991517486487          000000000272555MARIO ISIDRO BAUTISTA JIMENEZ           001001
000000058                992915602203          000000000294231IVAN LARREA HERNANDEZ                   001001
000000059                991544399547          000000000272555LUIS DIEGO HERNANDEZ TOLEDO             001001
000000060                992994842588          000000000294231JUAN ANTONIO LAVARIEGA TOLEDO           001001
000000061                991519080930          000000000272555MARCOS DAVID PACHECO DOMINGUEZ          001001
000000062                991592822337          000000000228537DIANA LEYDY PERERA PEREZ                001001
000000063                991518471030          000000000686835ALBERTO CRUZ HERNANDEZ                  001001
000000064                991589016302          000000000311468MONICA ELIZABETH SALVADOR CANALES       001001
000000065                991519994510          000000000228537KARLA CRISTEL VELAZCO ALATORRE          001001
000000066                991526258304          000000000332925GREGORIA ELIZABETH GARCIA HERNANDEZ     001001
000000067                991551514672          000000000036400SANDY MONTIEL CALZADA                   001001
000000068                991530013838          000000000228537ITZAYANA ALVAREZ GALLEGOS               001001
000000069                991558530753          000000000272555MAYRA PORRAS ROMERO                     001001
000000070                991532594412          000000000272555ANA SILVIA ARRAZATE GARCIA              001001
000000071                991581135198          000000000294231KARLA GUADALUPE VILLARREAL QUIROZ       001001
000000072                992978381798          000000000294231GABRIELA CHARIS ESTEVA                  001001
000000073                992903457818          000000000838960ELDER SUASTEGUI ABURTO                  001001
000000074                991526209044          000000000366610OLGA MARIA OROZCO MARTINEZ              001001
000000075                991522321882          000000000106084LIDIA FERNANDA CELAYA PEREZ             001001
000000076                991506838755          000000000230226JULIAN FLORES VALENCIA                  001001
000000077                991519438650          000000000349474BRENDA MINERVA CERVANTES VILLALBA       001001
000000078                991515658398          000000000273831YARA MARIELA ANOTA SANDOVAL             001001
000000079                991578007822          000000000294231NADIA ALONDRA PLANCARTE TORRES          001001
000000080                991552845393          000000001585152FERNANDO MUNOZ HERNANDEZ                001001
000000081                991575220890          000000000780627CARLOS HUERECA GONZALEZ                 001001
000000082                991128543909          000000000294231MANUELA RODARTE VARGAS                  001001
000000083                991531752170          000000000042507NIDIA SELENE RODRIGUEZ RIOS             001001
000000084                991519813001          000000000227373JOSE MARIO AMADOR SANTOS                001001
000000085                991545164624          000000000294231MADAIN MALPICA MACIEL                   001001
000000086                990456653758          000000000294231ODRA CONCEPCION JIMENEZ GONZALEZ        001001
000000087                992857858604          000000000289723FULGENCIO DE LA CRUZ CRUZ               001001
000000088                990466404529          000000000366602LIDIA AVENDANO TRINIDAD                 001001
000000089                991579187378          000000000294231NAYELLI TOLEDO ESTEVA                   001001
000000090                991546244343          000000000294231ITZEL QUINTERO ALMERAYA                 001001
000000091                991521580881          000000000324811ANDREA CECILIA LOPEZ GARCIA             001001
000000092                991519446750          000000000234027MARIA CONCEPCION BUGARIN CAMARGO        001001
000000093                992895698936          000000000866564JOSE LUIS CURA FUENTES                  001001
000000094                991514606984          000000000269588SAGRARIO DEL CARMEN ZURITA GALLARDO     001001
000000095                991535381307          000000000234976RICARDO ALONSO ROSADO CAHUM             001001
000000096                991510146873          000000000149148RAUL ARMANDO RODRIGUEZ UC               001001
000000097                992997013760          000000000499352TERESA DE JESUS DOMINGUEZ MARIANO       001001
000000098                991515902323          000000000294231GENESIS ANTARIS DIAZ PANTOJA            001001
000000099                991595722619          000000000155240FLOR DAMARIS CARDENAS BURGOS            001001
000000100                991509958576          000000000294231MARIA ISABEL DIAZ GUTIERREZ             001001
000000101                991589125020          000000000294231JOSE MANUEL MARTINEZ HERNANDEZ          001001
000000102                990460841005          000000000235358RICARDO PEREZ PIZA                      001001
000000103                992974414357          000000000648804FRANCISCO JAVIER SANDOVAL PERALTA       001001
000000104                992976796486          000000000294231CRISTIAN ARTURO SANCHEZ LARA            001001
000000105                991512849600          000000000294231MARIA ANALLELY JIMENEZ RIOS             001001
000000106                992924869575          000000000324231ISABEL ASENCION LOPEZ                   001001
000000107                991581127660          000000000294231IRMA LUCIA HERNANDEZ VAZQUEZ            001001
000000108                991520075245          000000000648804ANA LUISA LEYTE ROSALES                 001001
000000109                992897036442          000000000366610ANGEL ROSALES ORTIZ                     001001
000000110                991504042875          000000000294231ANABEL GOMEZ GONZALEZ                   001001
000000111                990468241325          000000000294231MARIA DE MONSERRAT REYES ESCAMILLA      001001
000000112                990472358468          000000000294231MIGUEL ANGEL RAMIREZ CRUZ               001001
000000113                991132572729          000000000452150CESAR OTONIEL SALAS SANCHEZ             001001
000000114                991131400142          000000000446600JUAN ANTONIO FLORENTINO MEDINA          001001
000000115                990472585839          000000000294231FRANCISCO LEOPOLDO HERNANDEZ HERNANDEZ  001001
000000116                991519604240          000000000324231JAIME ARIEL DEL ANGEL ZUMAYA            001001
000000117                991528325812          000000000251037BRENDA JUDITH GOMEZ LOPEZ               001001
000000118                991549070877          000000000294231FRANCISCO NUNEZ PARRA                   001001
000000119                991572747696          000000000416506ANDRES ANTONIO LUNA NAVARRETE           001001
000000120                992976737897          000000000354494FREDY DIEGO VICENTE MORALES             001001
000000121                991554596547          000000000230040CLAUDIA ORTEGA CUAUTLE                  001001
000000122                991523014960          000000000294231MARIA JOSEFINA LOPEZ ATILANO            001001
000000123                991200697060          000000000502150GUADALUPE GALEANA YEBALE                001001
000000124                992956239188          000000000163393AMADA QUITL PALOMARES                   001001
000000125                991524955016          000000000294231VERONICA PALACIOS HERNANDEZ             001001
000000126                991576131096          000000000294231MARTHA EMILIA CRUZ MORENO               001001
000000127                991556780566          000000000509742SANTOS GASPAR CRUZ ZARATE               001001
000000128                992764730909          000000000918222FERNANDO CRUZ JIMENEZ                   001001
000000129                991538277044          000000000079902ALAN JESUS TORRES TOVAR                 001001
000000130                991531340220          000000000339882DIANA JANET GALINDO NUNEZ               001001
000000131                991523774612          000000000452150SONIA CORAL VARGAS AVENDANO             001001
000000132                991580127714          000000000204088SAID EMMANUEL ARGUETA CANALES           001001
000000133                991580140981          000000000281194DIANA GABRIELA FONSECA ROMERO           001001
000000134                991557693613          000000000146777JOSUE CRUZ DOMINGUEZ                    001001
000000135                991570560301          000000000272555DANIEL PAZ PARRA                        001001
000000136                991584576121          000000000482684ROBERTO HECTOR DOMINGUEZ TOVAR          001001
000000137                991588894404          000000000272555BRENDA TERESA SOLORIO ESPARZA           001001
000000138                991590869494          000000000272555MARIO ERNESTO VAZQUEZ FLORES            001001
000000139                991591056118          000000000272555LILIBETH GUADALUPE ESTRADA FUENTES      001001
000000140                991570788524          000000000272555YOLANDA ADRIANA PETRONILO PAREDES       001001
000000141                992935257476          000000000153829LUIS ANTONIO ROMERO LOPEZ               001001
000000142                991503569376          000000000256574JUAN AURELIO GARCIA ALMARAZ             001001
000000143                991552159026          000000000272555MARIA INES MORALES MATEOS               001001
000000144                990460467316          000000000272555VENTURA SAMUEL PEREZ VARGAS             001001
000000145                991514749502          000000000366614ROCIO CALDERON REYES                    001001
000000146                990458596972          000000000220754ARTURO OSCAR CORTES LOPEZ               001001
000000147                991559240571          000000000272555NADIA HERNANDEZ ARROYO                  001001
000000148                991559343052          000000000590471HUGO OMELITO LOPEZ GONZALEZ             001001
000000149                991559346494          000000000294231IGNACIO LEVI GOMEZ RUIZ                 001001
000000150                991531491008          000000000450756JOSE PEREZ DIAZ                         001001
000000151                992934433599          000000000572392SAUL CRUZ HERNANDEZ                     001001
000000152                991514954541          000000000005000ADI MARENI PEREZ VAZQUEZ                001001
000000153                991514944669          000000000366610PEDRO ALFREDO LOPEZ GOMEZ               001001
000000154                991528020012          000000000294231DANIA VANESSA ROBLERO ESCALANTE         001001
000000155                991171629883          000000000272555GUSTAVO MOTA AGUILAR                    001001
000000156                992964259025          000000000272555RICARDO ANTONIO MERIDA ROMERO           001001
000000157                991576692540          000000000267555FABIOLA OLIVER JACOBO                   001001
000000158                991556776388          000000000272555ERIKA GONZALEZ RAMIREZ                  001001
000000159                991568421148          000000000214222ALAN JOSUE GARCIA TRINIDAD              001001
000000160                991569572913          000000000120498BRENDA CECILIA SANTANA PENA             001001
000000161                991553962067          000000000279497ARMANDO VAZQUEZ RAMOS                   001001
000000162                991502853393          000000000294231JUAN ANTONIO RUIZ AVILA                 001001
000000163                991555915171          000000000294231MANUEL ALBERTO LOPEZ LOPEZ              001001
000000164                991431889990          000000001695541GERMAIN GUTIERREZ DE LA CRUZ            001001
000000165                991568864179          000000000507404JUAN ALBERTO VARGAS MARQUEZ             001001
000000166                992925025494          000000000410067VERONICA SILVIA VALDEZ VAZQUEZ          001001
000000167                990455723442          000000000054200JOSE MARTIN CAMACHO VAZQUEZ             001001
000000168                991586583954          000000000191350FERNANDO GALLEGOS GARCIA                001001
000000169                991502083569          000000000272555ROSA ESMERALDA MORALES MARTINEZ         001001
000000170                991500021043          000000000272555KARLA LUCIA LOYDE HERRERA               001001
000000171                991522331101          000000000272555ANTONIO BARQUERAS RIVERA                001001
000000172                991501481614          000000000294231VERONICA VARGAS SILVA                   001001
000000173                991557077637          000000000366614MARIA JULIA MARTINEZ SEVILLA            001001
000000174                992953444155          000000000302666ALVARO GUILLERMO CORBALA RODRIGUEZ      001001
000000175                991535289521          000000000294231BENIGNO DE LA CRUZ GABRIEL              001001
000000176                990462237458          000000000175451LUIS ANGEL JARA LARA                    001001
000000177                991544558561          000000000454404DAVID DUARTE ANIMAS                     001001
000000178                991240791466          000000000388335EDGAR CASASOLA VARGAS                   001001
000000179                992852089386          000000000294231BRENDA ELIA NAVA SANCHEZ                001001
000000180                991539807950          000000000207328MIGUEL ANGEL RAMOS MARTINEZ             001001
000000181                992931464310          000000000294231MARIA VICTORIA TAVIRA MIRALRIO          001001
000000182                990469355502          000000000272555ANGEL RENATO ESPINOZA TORRES            001001
000000183                991523607677          000000000215752LAURA ISELA FLORES MARIN                001001
000000184                992947354738          000000000410067OMAR HILARIO DANIEL                     001001
000000185                991580894559          000000000272555ELIZABETH GOMEZ CASTELLANOS             001001
000000186                991527844339          000000000214222JENNIFER DENIS AVILA SALGADO            001001
000000187                991511453793          000000000234405MARLEN JUAREZ RAMIREZ                   001001
000000188                992845119464          000000000261198MONICA GABRIEL SANCHEZ                  001001
000000189                991532786242          000000000272555BEATRIZ HERNANDEZ HERNANDEZ             001001
000000190                991534419522          000000000272555LEYDI TEMAZATZI ROJAS                   001001
000000191                991522522597          000000000272555BLANCA EDITH ALVAREZ SUAREZ             001001
000000192                992907258259          000000000272555ALEJANDRO PEREZ AMARO                   001001
000000193                991576583008          000000000272555JEHU MENDEZ HERNANDEZ                   001001
000000194                991573579611          000000000272555CARMEN SUGEILY CHAVEZ SUAREZ            001001
000000195                991579722130          000000000272555HERNANDO OLMEDO MOLINA                  001001
000000196                991542464058          000000000482684ERIKA LISSETTE VARGAS VERONA            001001
000000197                991254823222          000000000096393MATEO MARTINEZ HERNANDEZ                001001
000000198                991540400312          000000000272555JOEL SILVA PRIEGO                       001001
000000199                990465444756          000000000423615IVETTE BRENA RAMOS                      001001
000000200                991545934664          000000000214279JESUS LEAL GATICA                       001001
000000201                991538063389          000000000430790EDUARDO HERNANDEZ GONZALEZ              001001
000000202                991529486537          000000000251037GLADIS DEL CARMEN MALDONADO AGUILAR     001001
000000203                991535881679          000000000187149GUILLERMINO ENRIQUE NUNEZ NOLASCO       001001
000000204                991565022703          000000000686843KARINA RAQUEL PALOS GOMEZ               001001
000000205                992724262476          000000001585149JORGE IGNACIO PINEDA DIAZ DE LA VEGA    001001
000000206                991481941690          000000000442595ALMA DELIA RAMIREZ DOMINGUEZ            001001
000000207                991228566631          000000000318245ANA ALICIA GONZALEZ MARIANO             001001
000000208                992667935609          000000000659525EMMANUEL CRUZ BAUTISTA                  001001
000000209                992677466609          000000000400227CLAUDIA ADRIANA RAMIREZ DIAZ            001001
000000210                992600282049          000000000174032ALEJANDRO ARON VIEYRA ROJAS             001001
000000211                992736506437          000000000357919SAURIZARETH AVENDANO FERNANDEZ          001001
000000212                992931470574          000000000452150DAISY LAURA NERI PEREZ                  001001
000000213                992677464703          000000000294231JOSE ANTONIO GARCIA HERNANDEZ           001001
000000214                992957951167          000000000294231PEDRO PABLO DOMINGUEZ DEL ANGEL         001001
000000215                992835828406          000000000406311CLAUDIA PINTOR PEREZ                    001001
000000216                992866677029          000000000294231MARIA DEL CARMEN BAUTISTA HERNANDEZ     001001
000000217                991512022761          000000000648804CARLOS TIMOTEO OROZCO TAPIA             001001
000000218                992869587438          000000000532642EFRAIN CORONA LOPEZ                     001001
000000219                992899239502          000000000452150ROSA IRELA ALARCON CANO                 001001
000000220                992912164523          000000000228622ESPERANZA PLUMA GEORGE                  001001
000000221                992980003263          000000000272555ANGEL EDMUNDO AGUILAR COLIN             001001
000000222                992937223544          000000000522217ADAN VASQUEZ SOTO                       001001
000000223                991170941476          000000000294231SAUL CERVANTES GUILLERMO                001001
000000224                991163663663          000000000366614ALBERTO SANTOS GARCIA                   001001
000000225                991501513907          000000000294231ADAN DE LA CRUZ CRUZ                    001001
000000226                992896188915          000000000294231IVAN DE JESUS JUAREZ VALDIVIESO         001001
000000227                991277441576          000000001342681CARLOS ALONSO ADAME LOPEZ               001001
000000228                991131995243          000000000272555NANCY YAZMIN VAZQUEZ HERNANDEZ          001001
000000229                991501464531          000000000188608YESENIA DE JESUS VAZQUEZ PEREZ          001001
000000230                992891268775          000000000294231FREDI DIAZ OROZCO                       001001
000000231                991505351203          000000000294231ROSA NOLASCO MORALES                    001001
000000232                991527200598          000000000482684NANCY GUADALUPE GARCIA AQUINO           001001
000000233                991554721686          000000000272555DAVID ALFONSO CHAVEZ CASTANEDA          001001
000000234                991526392566          000000000294224MICAELA OLIVERA LOPEZ                   001001
000000235                991462392445          000000000255390ARIANNA HERNANDEZ TORRES                001001
000000236                991569315640          000000000686835EDUARDO ALBERTO SAUCEDO RAMOS           001001
000000237                991516613861          000000000410825ALDO GARCIA MAGALLANES                  001001
000000238                991519434766          000000000272555RICARDO JUAREZ ACOSTA                   001001
000000239                991518742050          000000000294231FRANCISCO JAVIER SANTIAGO SANTIAGO      001001
000000240                991586408176          000000000272548SERGIO ATAIN LOPEZ FUENTES              001001
000000241                992892584158          000000000326049MARIA MAGDALENA CASTILLO JIMENEZ        001001
000000242                991508465269          000000000041660CARLOS FILIBERTO GARCIA ALEGRIA         001001
000000243                991577101910          000000000284951LIZETT GOMEZ VILLALOBOS                 001001
000000244                991585221296          000000001307965ANA LAURA GUZMAN OSORIO                 001001
000000245                992799521747          000000000246195MANUELA DE JESUS HERNANDEZ CRUZ         001001
000000246                991167865902          000000000686809RICARDO ROMERO LOPEZ                    001001
000000247                991161650157          000000000280895PAOLA JHOANA VELASCO HIDALGO            001001
000000248                991121484923          000000000648779JOSE ALBERTO GALDAMEZ ALTAMIRANO        001001
