65507333240     014542567327470818  MARIA GUADALUPE GUTIERREZ REYES         100100000000010702901001NOMINA                                                                                                                            0000001
65507333240     014610567284304441  CAROLINA NUNEZ MARTINEZ                 100100000000029449701001NOMINA                                                                                                                            0000002
65507333240     014180568007131485  ERICK GEOVANNIE SALINAS AYALA           100100000000005817301001NOMINA                                                                                                                            0000003
65507333240     014180567339550285  LUIS LEONARDO VALDEZ MEJIA              100100000000052846901001NOMINA                                                                                                                            0000004
65507333240     014180605899311952  JOSE MANUEL RANGEL MORA                 100100000000044781701001NOMINA                                                                                                                            0000005
65507333240     014180605663385826  RAYMUNDO EDUARDO BARRIOS MORALES        100100000000148182401001NOMINA                                                                                                                            0000006
65507333240     014540200129545093  ALEXANDRA PEREGRINA VILLASENOR          100100000000041001301001NOMINA                                                                                                                            0000007
65507333240     014180567607737992  IRMA ROSA SANCHEZ DORANTES              100100000000044781701001NOMINA                                                                                                                            0000008
65507333240     014180606130677684  ERIC ALVAREZ ESPINOZA                   100100000000044781701001NOMINA                                                                                                                            0000009
65507333240     014180605924195946  DANIEL MARTINEZ JAIMES                  100100000000041001301001NOMINA                                                                                                                            0000010
65507333240     014180566852260859  ANGEL EDUARDO REYES VALLE               100100000000044781701001NOMINA                                                                                                                            0000011
65507333240     014180605543702778  ADRIANA BARRERA ARCIGA                  100100000000083543101001NOMINA                                                                                                                            0000012
65507333240     014180567239837244  RUBEN MARQUEZ CORONADO                  100100000000044781701001NOMINA                                                                                                                            0000013
65507333240     014180260284529532  ALFREDO KURI SHIMIDZU                   100100000000040566001001NOMINA                                                                                                                            0000014
65507333240     014180567551440186  MAYRA MAYA SANDOVAL                     100100000000044781701001NOMINA                                                                                                                            0000015
65507333240     014180605817528507  JUAN CARLOS VILLAFUERTE LOPEZ           100100000000239331801001NOMINA                                                                                                                            0000016
65507333240     014180567261406724  AURELIO BERMUDEZ CASTILLO               100100000000036213401001NOMINA                                                                                                                            0000017
65507333240     014133606209499902  RAFAEL DE JESUS ALVARO GOMEZ            100100000000009483901001NOMINA                                                                                                                            0000018
65507333240     014261567974002910  GILBERTO DE JESUS REYES ALVAREZ         100100000000005817301001NOMINA                                                                                                                            0000019
65507333240     014272568012644370  LUIS FERNANDO URIOSTEGUI VELEZ          100100000000005513001001NOMINA                                                                                                                            0000020
65507333240     014290606210963263  HECTOR ALEJANDRO FLORES ANAYA           100100000000009483901001NOMINA                                                                                                                            0000021
65507333240     014888568052497722  NATALIA MARTINEZ TORRES                 100100000000007194101001NOMINA                                                                                                                            0000022
65507333240     014650200135188088  ROMAN RIGOBERTO RODRIGUEZ MAYO          100100000000007650701001NOMINA                                                                                                                            0000023
65507333240     014849567763933667  MANUEL AGUILAR ALVARADO                 100100000000007650701001NOMINA                                                                                                                            0000024
65507333240     014650250099256006  JOSELIN ROMERO RAMOS                    100100000000006122501001NOMINA                                                                                                                            0000025
65507333240     014225606049735462  VIRGINIA CAROLINA MORENO LOPEZ          100100000000007037701001NOMINA                                                                                                                            0000026
65507333240     014905568012905399  JOSE ANTONIO LARA LIMIAS                100100000000006122501001NOMINA                                                                                                                            0000027
65507333240     014078250094158862  LUDMILA BERENICE ZUMARRAGA HERNANDEZ    100100000000004251301001NOMINA                                                                                                                            0000028
65507333240     014650568018707561  ALMA GORETTI VEANA RODRIGUEZ            100100000000028091201001NOMINA                                                                                                                            0000029
65507333240     014052568013681468  ELSY LETICIA CRUZ GARCIA                100100000000026790701001NOMINA                                                                                                                            0000030
65507333240     014375567990685634  DEJANEIRA LILIANA IBARRA ROBLES         100100000000028961701001NOMINA                                                                                                                            0000031
65507333240     014884606027687009  TANYA NAYELI HERNANDEZ PEREZ            100100000000028091201001NOMINA                                                                                                                            0000032
65507333240     014777567682142274  KENIA IVONNE BARRERAS VALDEZ            100100000000021525101001NOMINA                                                                                                                            0000033
65507333240     014438567570462790  LUIS ERNESTO VALLE REYNA                100100000000033111801001NOMINA                                                                                                                            0000034
65507333240     014180567526235591  FREDY TREJO MENDOZA                     100100000000052846901001NOMINA                                                                                                                            0000035
65507333240     014180567663610105  LUIS ANTONIO OROZCO MARTINEZ            100100000000022056701001NOMINA                                                                                                                            0000036
65507333240     014180567578974428  HECTOR IVAN RAMIREZ ORBE                100100000000008875301001NOMINA                                                                                                                            0000037
65507333240     014180606162326974  ANA ISABEL MORENO ROSALES               100100000000009483901001NOMINA                                                                                                                            0000038
65507333240     014180555078957397  VICTOR BENJAMIN GUADARRAMA BARRIENTOS   100100000000005513001001NOMINA                                                                                                                            0000039
