0428519        0000000000029234784900002840903576102218000000002571880007042021PAGO NOMINA                   11CRA1504189V9 00000000000000dgarcia@gruposeri.com                  07042021MIGUEL ANGEL MUNOZ GARCIA                                             
0490042        0000000000029234784900002650901410873031000000007109700007042021PAGO NOMINA                   11CRA1504189V9 00000000000000dgarcia@gruposeri.com                  07042021MARISELA VELAZCO MURILLO                                              
0490065        0000000000029234784900002290701463492595000000004697240007042021PAGO NOMINA                   11CRA1504189V9 00000000000000dgarcia@gruposeri.com                  07042021HIRAM URIEL ORTEGA HIDALGO                                            
0490068        0000000000029234784900002303901794269346000000004402340007042021PAGO NOMINA                   11CRA1504189V9 00000000000000dgarcia@gruposeri.com                  07042021ROCIO HERNANDEZ HILARIO                                               
0490132        0000000000029234784900002840903995487637000000003108380007042021PAGO NOMINA                   11CRA1504189V9 00000000000000dgarcia@gruposeri.com                  07042021FELIPA DE JESUS SARABIA RAMIREZ                                       
0490194        0000000000029234784900002830901979050762000000005334130007042021PAGO NOMINA                   11CRA1504189V9 00000000000000dgarcia@gruposeri.com                  07042021JUAN CARLOS VALENCIA BRIONES                                          
0490205        0000000000029234784900002881904350801887000000005333950007042021PAGO NOMINA                   11CRA1504189V9 00000000000000dgarcia@gruposeri.com                  07042021CESAR RENE BARRON LUGO                                                
0490208        0000000000029234784900002881904289581278000000004550160007042021PAGO NOMINA                   11CRA1504189V9 00000000000000dgarcia@gruposeri.com                  07042021JORGE LUIS BLANCO REZA                                                
0490495        0000000000029234784900002180903901768479000000003360920007042021PAGO NOMINA                   11CRA1504189V9 00000000000000dgarcia@gruposeri.com                  07042021SARAH MARLENNE BALDUMINO CHACON                                       
0490419        0000000000029234784900002854904289692343000000003115240007042021PAGO NOMINA                   11CRA1504189V9 00000000000000dgarcia@gruposeri.com                  07042021AURELIA MARIA RUEDA VELAZQUEZ                                         
0490572        0000000000029234784900002669903704251824000000001771830007042021PAGO NOMINA                   11CRA1504189V9 00000000000000dgarcia@gruposeri.com                  07042021TEODORA CASTILLO MORENO                                               
0490648        0000000000029234784900002813902459783151000000001581220007042021PAGO NOMINA                   11CRA1504189V9 00000000000000dgarcia@gruposeri.com                  07042021RICARDO MERIDA CASTILLO                                               
0490657        0000000000029234784900002298701165364376000000005334320007042021PAGO NOMINA                   11CRA1504189V9 00000000000000dgarcia@gruposeri.com                  07042021ANGELICA PEREZ DOTHE                                                  
0490708        0000000000029234784900002670902830118517000000001620320007042021PAGO NOMINA                   11CRA1504189V9 00000000000000dgarcia@gruposeri.com                  07042021SARA JENNY MONTES FARFAN                                              
0490973        0000000000029234784900002903903725881191000000002580440007042021PAGO NOMINA                   11CRA1504189V9 00000000000000dgarcia@gruposeri.com                  07042021EMMANUEL DE LA CRUZ MARTINEZ                                          
0490988        0000000000029234784900002841902429702082000000002288970007042021PAGO NOMINA                   11CRA1504189V9 00000000000000dgarcia@gruposeri.com                  07042021ALIN SUGEY CERVANTES MARTINEZ                                         
0491020        0000000000029234784900002877904341766615000000004106370007042021PAGO NOMINA                   11CRA1504189V9 00000000000000dgarcia@gruposeri.com                  07042021NORA DEL CARMEN MATEO HERNANDEZ                                       
0491056        0000000000029234784900002650901347391686000000003361010007042021PAGO NOMINA                   11CRA1504189V9 00000000000000dgarcia@gruposeri.com                  07042021CECILIA JACOME ROJAS                                                  
0491135        0000000000029234784900002290901766330099000000003832420007042021PAGO NOMINA                   11CRA1504189V9 00000000000000dgarcia@gruposeri.com                  07042021MIGUEL ANGEL CALVA PANTALEON                                          
0491184        0000000000029234784900002674902795689653000000003361010007042021PAGO NOMINA                   11CRA1504189V9 00000000000000dgarcia@gruposeri.com                  07042021MARIANA PALETA JIMENEZ                                                
0491282        0000000000029234784900002885903650415543000000003647360007042021PAGO NOMINA                   11CRA1504189V9 00000000000000dgarcia@gruposeri.com                  07042021FABIOLA DE LEON SANTIAGO                                              
0491393        0000000000029234784900002888904021122461000000003096100007042021PAGO NOMINA                   11CRA1504189V9 00000000000000dgarcia@gruposeri.com                  07042021JORGE CRISTOBAL CRUZ                                                  
0491659        0000000000029234784900002813701288479507000000002213530007042021PAGO NOMINA                   11CRA1504189V9 00000000000000dgarcia@gruposeri.com                  07042021SAMUEL TADEO JIMENEZ ALVA                                             
0491693        0000000000029234784900002841903805599342000000002213530007042021PAGO NOMINA                   11CRA1504189V9 00000000000000dgarcia@gruposeri.com                  07042021EDGAR EMILIO AZAMAR FONSECA                                           
0492035        0000000000029234784900002876901943871986000000002946100007042021PAGO NOMINA                   11CRA1504189V9 00000000000000dgarcia@gruposeri.com                  07042021LORENZO RIQUELME GONZALEZ                                             
0492110        0000000000029234784900002813904009748874000000002946170007042021PAGO NOMINA                   11CRA1504189V9 00000000000000dgarcia@gruposeri.com                  07042021JOSE LUIS RIVERA ALFARO                                               
0492192        0000000000029234784900002650904117480135000000002728990007042021PAGO NOMINA                   11CRA1504189V9 00000000000000dgarcia@gruposeri.com                  07042021ANA KAREN FRANCISCO CABRERA                                           
0492224        0000000000029234784900002881904129765167000000002946090007042021PAGO NOMINA                   11CRA1504189V9 00000000000000dgarcia@gruposeri.com                  07042021TERESA DE JESUS DE LA CRUZ DOMINGUEZ                                  
0492243        0000000000029234784900002669904113212657000000002289020007042021PAGO NOMINA                   11CRA1504189V9 00000000000000dgarcia@gruposeri.com                  07042021MARTHA ELENA JUAREZ ALMEIDA                                           
0492357        0000000000029234784900002877904173933810000000002729070007042021PAGO NOMINA                   11CRA1504189V9 00000000000000dgarcia@gruposeri.com                  07042021ROSA KAREN JIMENEZ VAZQUEZ                                            
0492386        0000000000029234784900002296903859729535000000002569550007042021PAGO NOMINA                   11CRA1504189V9 00000000000000dgarcia@gruposeri.com                  07042021EDEL SAN JUAN VAZQUEZ                                                 
0492405        0000000000029234784900002668902080301238000000001502300007042021PAGO NOMINA                   11CRA1504189V9 00000000000000dgarcia@gruposeri.com                  07042021CAROLINA MORALES GUILLEN                                              
0492413        0000000000029234784900002841903504885959000000003143550007042021PAGO NOMINA                   11CRA1504189V9 00000000000000dgarcia@gruposeri.com                  07042021EDER ANTONIO MOLINA                                                   
0492425        0000000000029234784900002881904395907092000000002946170007042021PAGO NOMINA                   11CRA1504189V9 00000000000000dgarcia@gruposeri.com                  07042021DIEGO GERMAN TRUJILLO GERONIMO                                        
0492523        0000000000029234784900002650901627155762000000003237350007042021PAGO NOMINA                   11CRA1504189V9 00000000000000dgarcia@gruposeri.com                  07042021SAUL FUENTES JUAREZ                                                   
0492524        0000000000029234784900002813902179044112000000002344270007042021PAGO NOMINA                   11CRA1504189V9 00000000000000dgarcia@gruposeri.com                  07042021MARIA LAURA JEREZ RODRIGUEZ                                           
0492536        0000000000029234784900002650903763233067000000003361180007042021PAGO NOMINA                   11CRA1504189V9 00000000000000dgarcia@gruposeri.com                  07042021EDGAR JAIME BAEZ GONZALEZ                                             
0492498        0000000000029234784900002888904163763788000000002729070007042021PAGO NOMINA                   11CRA1504189V9 00000000000000dgarcia@gruposeri.com                  07042021ARMANDO ORTIZ MARTINEZ                                                
0492639        0000000000029234784900002841904188854745000000002458410007042021PAGO NOMINA                   11CRA1504189V9 00000000000000dgarcia@gruposeri.com                  07042021ENITH ARLINNE PONCE RAMIREZ                                           
0492696        0000000000029234784900002813904278276656000000002946170007042021PAGO NOMINA                   11CRA1504189V9 00000000000000dgarcia@gruposeri.com                  07042021DREHIDY JANET FLORES RUIZ                                             
0492703        0000000000029234784900002877903658764275000000002946170007042021PAGO NOMINA                   11CRA1504189V9 00000000000000dgarcia@gruposeri.com                  07042021REYNA DEL CARMEN MALDONADO LURIA                                      
0492725        0000000000029234784900002580903776460874000000004386240007042021PAGO NOMINA                   11CRA1504189V9 00000000000000dgarcia@gruposeri.com                  07042021MAURITANIA DESHIDU AGUIRRE SALAZAR                                    
0492782        0000000000029234784900002885903688070439000000002946170007042021PAGO NOMINA                   11CRA1504189V9 00000000000000dgarcia@gruposeri.com                  07042021CARLOS ALBERTO JUAREZ HERNANDEZ                                       
0492811        0000000000029234784900002676903943967959000000003597540007042021PAGO NOMINA                   11CRA1504189V9 00000000000000dgarcia@gruposeri.com                  07042021CRISTIAN FERNANDO BUSTAMANTE GONZALEZ                                 
0492853        0000000000029234784900002296904312830177000000002946170007042021PAGO NOMINA                   11CRA1504189V9 00000000000000dgarcia@gruposeri.com                  07042021REYNALDO HERNANDEZ BADILLO                                            
0492854        0000000000029234784900002650903855666966000000003361180007042021PAGO NOMINA                   11CRA1504189V9 00000000000000dgarcia@gruposeri.com                  07042021ISABEL FLORES ROMERO                                                  
0492856        0000000000029234784900002290701581820748000000005336290007042021PAGO NOMINA                   11CRA1504189V9 00000000000000dgarcia@gruposeri.com                  07042021ARMANDO GUTIERREZ MORALES                                             
0492918        0000000000029234784900002676904146561287000000002549800007042021PAGO NOMINA                   11CRA1504189V9 00000000000000dgarcia@gruposeri.com                  07042021FIDEL CASTILLA HERNANDEZ                                              
0492985        0000000000029234784900002650904476356492000000003361180007042021PAGO NOMINA                   11CRA1504189V9 00000000000000dgarcia@gruposeri.com                  07042021ANGEL GUTIERREZ RAMIREZ                                               
0493106        0000000000029234784900002813701404154703000000002946170007042021PAGO NOMINA                   11CRA1504189V9 00000000000000dgarcia@gruposeri.com                  07042021SURI ANAHI MALDONADO BRENA                                            
0493118        0000000000029234784900002869701658851453000000002946170007042021PAGO NOMINA                   11CRA1504189V9 00000000000000dgarcia@gruposeri.com                  07042021PORFIRIO PITA BUSTAMANTE                                              
0493129        0000000000029234784900002813701329957519000000002324550007042021PAGO NOMINA                   11CRA1504189V9 00000000000000dgarcia@gruposeri.com                  07042021MANUEL ANTONIO ROBLEDO GUTIERREZ                                      
0493147        0000000000029234784900002668701664783499000000002729070007042021PAGO NOMINA                   11CRA1504189V9 00000000000000dgarcia@gruposeri.com                  07042021ESTEFANIA GONZALEZ CAMPOS                                             
0493152        0000000000029234784900002855904103621114000000002698230007042021PAGO NOMINA                   11CRA1504189V9 00000000000000dgarcia@gruposeri.com                  07042021KRISTIAN ORLANDO LOPEZ MARTINEZ                                       
0493169        0000000000029234784900002813902497734243000000007642070007042021PAGO NOMINA                   11CRA1504189V9 00000000000000dgarcia@gruposeri.com                  07042021OMAR RIOS RODRIGUEZ                                                   
0493234        0000000000029234784900002813700966106436000000002946170007042021PAGO NOMINA                   11CRA1504189V9 00000000000000dgarcia@gruposeri.com                  07042021ELVIA RUTH MIRANDA PACHECO                                            
0493309        0000000000029234784900002650903460208722000000003361180007042021PAGO NOMINA                   11CRA1504189V9 00000000000000dgarcia@gruposeri.com                  07042021PATRICIA VARGAS VICUNO                                                
0493311        0000000000029234784900002854904395731114000000002729070007042021PAGO NOMINA                   11CRA1504189V9 00000000000000dgarcia@gruposeri.com                  07042021ILSE IVETH PEREZ CHAVEZ                                               
0493350        0000000000029234784900002650903764291040000000009837180007042021PAGO NOMINA                   11CRA1504189V9 00000000000000dgarcia@gruposeri.com                  07042021ELIOBET ARTURO JIMENEZ LOPEZ                                          
04901834       0000000000029234784900002840904050335416000000002946170007042021PAGO NOMINA                   11CRA1504189V9 00000000000000dgarcia@gruposeri.com                  07042021JORGE LUIS TORRES GARCIA                                              
04901871       0000000000029234784900002670903823076225000000002923810007042021PAGO NOMINA                   11CRA1504189V9 00000000000000dgarcia@gruposeri.com                  07042021JESUS LORENZO SOLANO TORRES                                           
04902216       0000000000029234784900002834902930390534000000005284690007042021PAGO NOMINA                   11CRA1504189V9 00000000000000dgarcia@gruposeri.com                  07042021JUAN TEPATZI ZAMPOALTECA                                              
04902594       0000000000029234784900002813904136249589000000002437400007042021PAGO NOMINA                   11CRA1504189V9 00000000000000dgarcia@gruposeri.com                  07042021ANDREA HERRERA GAMEZ                                                  
04902829       0000000000029234784900002650902264398376000000003361180007042021PAGO NOMINA                   11CRA1504189V9 00000000000000dgarcia@gruposeri.com                  07042021ALAN GUTIERREZ ANDRADE                                                
04903018       0000000000029234784900002311904523474061000000002289090007042021PAGO NOMINA                   11CRA1504189V9 00000000000000dgarcia@gruposeri.com                  07042021MARIA ISABEL MARIN HIDALGO                                            
04903042       0000000000029234784900002877904438807115000000002161130007042021PAGO NOMINA                   11CRA1504189V9 00000000000000dgarcia@gruposeri.com                  07042021VALERIA IDALIA GOMEZ ATILANO                                          
04902979       0000000000029234784900002680904415447730000000002546700007042021PAGO NOMINA                   11CRA1504189V9 00000000000000dgarcia@gruposeri.com                  07042021ANGELICO MARTINEZ BAUTISTA                                            
04903498       0000000000029234784900002895902942101475000000002946170007042021PAGO NOMINA                   11CRA1504189V9 00000000000000dgarcia@gruposeri.com                  07042021SUSLI DAMARIS LOZANO CRUZ                                             
04903537       0000000000029234784900002650903514699850000000003361180007042021PAGO NOMINA                   11CRA1504189V9 00000000000000dgarcia@gruposeri.com                  07042021GAMALIEL MORALES GONZALEZ                                             
04903615       0000000000029234784900002882903299240910000000003143550007042021PAGO NOMINA                   11CRA1504189V9 00000000000000dgarcia@gruposeri.com                  07042021FELIPE DE JESUS TOLEDO BARRAN                                         
04903866       0000000000029234784900002876701622160480000000002946170007042021PAGO NOMINA                   11CRA1504189V9 00000000000000dgarcia@gruposeri.com                  07042021SILVESTRE LOPEZ RIVERA                                                
04903816       0000000000029234784900012650015387103545000000003671340007042021PAGO NOMINA                   11CRA1504189V9 00000000000000dgarcia@gruposeri.com                  07042021MARIA PAULA RODRIGUEZ GALICIA                                         
04903854       0000000000029234784900012650004717419933000000006498730007042021PAGO NOMINA                   11CRA1504189V9 00000000000000dgarcia@gruposeri.com                  07042021JULIO JUAN ARCOS MENDEZ                                               
04903570       0000000000029234784900012180015298119444000000002946170007042021PAGO NOMINA                   11CRA1504189V9 00000000000000dgarcia@gruposeri.com                  07042021CINDY JAQUELINE CORONA GARCIA                                         
04903610       0000000000029234784900012180015195194724000000002729070007042021PAGO NOMINA                   11CRA1504189V9 00000000000000dgarcia@gruposeri.com                  07042021KARLA LIZETH PENA GONZALEZ                                            
04903613       0000000000029234784900012830015109395801000000001985670007042021PAGO NOMINA                   11CRA1504189V9 00000000000000dgarcia@gruposeri.com                  07042021MAYDANI ARMAS DAZA                                                    
04903912       0000000000029234784900012580015205540460000000005334690007042021PAGO NOMINA                   11CRA1504189V9 00000000000000dgarcia@gruposeri.com                  07042021MARINA GARCIA CHACON                                                  
04903916       0000000000029234784900012180015280370974000000002729070007042021PAGO NOMINA                   11CRA1504189V9 00000000000000dgarcia@gruposeri.com                  07042021BEATRIZ HERRERA MARQUEZ                                               
04903960       0000000000029234784900012180015797424614000000003143550007042021PAGO NOMINA                   11CRA1504189V9 00000000000000dgarcia@gruposeri.com                  07042021EDGAR SANCHEZ AMADOR                                                  
04903984       0000000000029234784900012180015295178446000000003143550007042021PAGO NOMINA                   11CRA1504189V9 00000000000000dgarcia@gruposeri.com                  07042021JOSE ANTONIO ISLAS CRUZ                                               
04904047       0000000000029234784900012180015285773974000000002729070007042021PAGO NOMINA                   11CRA1504189V9 00000000000000dgarcia@gruposeri.com                  07042021SANDRA CRUZ TORRES MORALES                                            
04904097       0000000000029234784900012180015268027508000000002729070007042021PAGO NOMINA                   11CRA1504189V9 00000000000000dgarcia@gruposeri.com                  07042021GEMA ALESSANDRA GUADALUPE MORALES HERNANDEZ                           
04904182       0000000000029234784900012845029109375925000000002946170007042021PAGO NOMINA                   11CRA1504189V9 00000000000000dgarcia@gruposeri.com                  07042021GASPAR GONZALEZ MUNOZ                                                 
04904225       0000000000029234784900012832015888812124000000001917870007042021PAGO NOMINA                   11CRA1504189V9 00000000000000dgarcia@gruposeri.com                  07042021LETICIA PAOLA VAZQUEZ MENDEZ                                          
04904235       0000000000029234784900012180015601380226000000002946170007042021PAGO NOMINA                   11CRA1504189V9 00000000000000dgarcia@gruposeri.com                  07042021ALEJANDRO MANUEL LUIS CRUZ                                            
04904273       0000000000029234784900012296015671329839000000002946170007042021PAGO NOMINA                   11CRA1504189V9 00000000000000dgarcia@gruposeri.com                  07042021JUAN ANDRES ESPINOZA CHAVEZ                                           
04903329       0000000000029234784900012905015560457446000000001345840007042021PAGO NOMINA                   11CRA1504189V9 00000000000000dgarcia@gruposeri.com                  07042021SERGIO MENDEL AGUILAR                                                 
04903343       0000000000029234784900012180015745277910000000003143550007042021PAGO NOMINA                   11CRA1504189V9 00000000000000dgarcia@gruposeri.com                  07042021LUIS ALBERTO HERRERA MACIAS                                           
04903430       0000000000029234784900012832015214548622000000003671340007042021PAGO NOMINA                   11CRA1504189V9 00000000000000dgarcia@gruposeri.com                  07042021ELIAS MERINO HERNANDEZ                                                
04903230       0000000000029234784900012888029906650457000000005334690007042021PAGO NOMINA                   11CRA1504189V9 00000000000000dgarcia@gruposeri.com                  07042021HECTOR CARO ALONSO                                                    
04903045       0000000000029234784900012840015501260553000000002729070007042021PAGO NOMINA                   11CRA1504189V9 00000000000000dgarcia@gruposeri.com                  07042021NORMA LISETTE HERNANDEZ CASTILLO                                      
04903104       0000000000029234784900012180015107282996000000002946170007042021PAGO NOMINA                   11CRA1504189V9 00000000000000dgarcia@gruposeri.com                  07042021FAUSTINO GIL ORTEGA                                                   
04903123       0000000000029234784900012670028601449596000000003143550007042021PAGO NOMINA                   11CRA1504189V9 00000000000000dgarcia@gruposeri.com                  07042021NAYELI PEREZ LEZAMA                                                   
04902855       0000000000029234784900012650026691022806000000003143550007042021PAGO NOMINA                   11CRA1504189V9 00000000000000dgarcia@gruposeri.com                  07042021PEDRO ARTURO MARTINEZ SEGURA                                          
04902925       0000000000029234784900012670015117679368000000003361180007042021PAGO NOMINA                   11CRA1504189V9 00000000000000dgarcia@gruposeri.com                  07042021GUADALUPE ANAHI MORALES JIMENEZ                                       
04902926       0000000000029234784900012290029283883852000000002729070007042021PAGO NOMINA                   11CRA1504189V9 00000000000000dgarcia@gruposeri.com                  07042021ARACELI HERNANDEZ ROMERO                                              
04902684       0000000000029234784900012888015805637501000000002946170007042021PAGO NOMINA                   11CRA1504189V9 00000000000000dgarcia@gruposeri.com                  07042021JUAN CARLOS MAYA HERNANDEZ                                            
04901802       0000000000029234784900012180015024960003000000002729070007042021PAGO NOMINA                   11CRA1504189V9 00000000000000dgarcia@gruposeri.com                  07042021ENRIQUE DE JESUS AGUILAR FLORES                                       
04902495       0000000000029234784900012180015183787062000000003143550007042021PAGO NOMINA                   11CRA1504189V9 00000000000000dgarcia@gruposeri.com                  07042021ARAFATH IUDICAEL HERNANDEZ MARTINEZ                                   
04902496       0000000000029234784900012813026378563852000000002493240007042021PAGO NOMINA                   11CRA1504189V9 00000000000000dgarcia@gruposeri.com                  07042021SOFIA MARTINEZ GONZALEZ                                               
04902583       0000000000029234784900012180015034804421000000002289090007042021PAGO NOMINA                   11CRA1504189V9 00000000000000dgarcia@gruposeri.com                  07042021ESTEFANY FELIX GABRIEL                                                
04904389       0000000000029234784900012680015288625862000000002946170007042021PAGO NOMINA                   11CRA1504189V9 00000000000000dgarcia@gruposeri.com                  07042021SAYONARA DE JUQUILA DE LA ROSA PEREZ                                  
04901865       0000000000029234784900012180015139572739000000003143550007042021PAGO NOMINA                   11CRA1504189V9 00000000000000dgarcia@gruposeri.com                  07042021KAREN SAMANTHA SANCHEZ TORRES                                         
04901456       0000000000029234784900012650027950545670000000003143550007042021PAGO NOMINA                   11CRA1504189V9 00000000000000dgarcia@gruposeri.com                  07042021JORGE ANGEL ITURBIDE MORALES                                          
04901569       0000000000029234784900012320015241299825000000003361180007042021PAGO NOMINA                   11CRA1504189V9 00000000000000dgarcia@gruposeri.com                  07042021JOSE CARLOS MUNOZ CRUZ                                                
04901622       0000000000029234784900012881015450017764000000003143550007042021PAGO NOMINA                   11CRA1504189V9 00000000000000dgarcia@gruposeri.com                  07042021PEDRO LUIS CRUZ HERNANDEZ                                             
04901900       0000000000029234784900012180015304845408000000002946170007042021PAGO NOMINA                   11CRA1504189V9 00000000000000dgarcia@gruposeri.com                  07042021ALIDAI CRUZ JIMENEZ                                                   
04901942       0000000000029234784900012311014938653470000000003143550007042021PAGO NOMINA                   11CRA1504189V9 00000000000000dgarcia@gruposeri.com                  07042021DONAJI HORTENCIA PELAEZ SARABIA                                       
04902316       0000000000029234784900012650015505800345000000003361180007042021PAGO NOMINA                   11CRA1504189V9 00000000000000dgarcia@gruposeri.com                  07042021JHOVANY RAMOS FLORES                                                  
04902322       0000000000029234784900012296015720546152000000002679070007042021PAGO NOMINA                   11CRA1504189V9 00000000000000dgarcia@gruposeri.com                  07042021DULCE  CRISTAL HERNANDEZ ARADIAZ                                      
0493400        0000000000029234784900012180015291896997000000003143550007042021PAGO NOMINA                   11CRA1504189V9 00000000000000dgarcia@gruposeri.com                  07042021HYARACET RAMIREZ RAMIREZ                                              
04500301       0000000000029234784900012311015159541506000000002946170007042021PAGO NOMINA                   11CRA1504189V9 00000000000000dgarcia@gruposeri.com                  07042021MICHEL DE JESUS HERNANDEZ ACEVEDO                                     
04900951       0000000000029234784900012885015999242410000000002946170007042021PAGO NOMINA                   11CRA1504189V9 00000000000000dgarcia@gruposeri.com                  07042021PEDRO  ALDAIR TIRSO GARCIA                                            
04901060       0000000000029234784900012888015385929933000000002946170007042021PAGO NOMINA                   11CRA1504189V9 00000000000000dgarcia@gruposeri.com                  07042021JULIO CESAR RODRIGUEZ RAMIREZ                                         
04901117       0000000000029234784900012180015091469867000000002946170007042021PAGO NOMINA                   11CRA1504189V9 00000000000000dgarcia@gruposeri.com                  07042021GUADALUPE BARBA ALBARAN                                               
04901222       0000000000029234784900012810029787862678000000002481300007042021PAGO NOMINA                   11CRA1504189V9 00000000000000dgarcia@gruposeri.com                  07042021LIDIA YETZEMANY CORTEZ CRUZ                                           
04901309       0000000000029234784900012813015690311971000000002541690007042021PAGO NOMINA                   11CRA1504189V9 00000000000000dgarcia@gruposeri.com                  07042021JOSE GUADALUPE DEL RIO CRUZ                                           
04901334       0000000000029234784900012180015888736347000000002946170007042021PAGO NOMINA                   11CRA1504189V9 00000000000000dgarcia@gruposeri.com                  07042021JAIR JIMENEZ GARCIA                                                   
0493338        0000000000029234784900012903015624921085000000002289090007042021PAGO NOMINA                   11CRA1504189V9 00000000000000dgarcia@gruposeri.com                  07042021KAREN CLAUDINE CRUZ SILVA                                             
0493341        0000000000029234784900012877015161994999000000002946170007042021PAGO NOMINA                   11CRA1504189V9 00000000000000dgarcia@gruposeri.com                  07042021ANITA HERNANDEZ TRANQUILINO                                           
0493349        0000000000029234784900012885029958529432000000002946170007042021PAGO NOMINA                   11CRA1504189V9 00000000000000dgarcia@gruposeri.com                  07042021LETICIA GARCIA BENITO                                                 
0493362        0000000000029234784900012888029959075005000000002729070007042021PAGO NOMINA                   11CRA1504189V9 00000000000000dgarcia@gruposeri.com                  07042021KATYA  EMIRETH MARTINEZ PEREZ                                         
0493318        0000000000029234784900012854027906876267000000002946170007042021PAGO NOMINA                   11CRA1504189V9 00000000000000dgarcia@gruposeri.com                  07042021NESTOR MARTINEZ LOPEZ                                                 
0493319        0000000000029234784900012855029717183476000000002946170007042021PAGO NOMINA                   11CRA1504189V9 00000000000000dgarcia@gruposeri.com                  07042021GERMAN  ESTEBAN ESPINOSA GUTIERREZ                                    
0493373        0000000000029234784900012876011273807209000000002946170007042021PAGO NOMINA                   11CRA1504189V9 00000000000000dgarcia@gruposeri.com                  07042021ALEXIS GONZALEZ DE LA CRUZ                                            
0493384        0000000000029234784900012180015019399197000000002946170007042021PAGO NOMINA                   11CRA1504189V9 00000000000000dgarcia@gruposeri.com                  07042021MANUEL LOPEZ LUEVANO                                                  
0493386        0000000000029234784900012290015422997157000000002729070007042021PAGO NOMINA                   11CRA1504189V9 00000000000000dgarcia@gruposeri.com                  07042021ARELY MENINDEZ LORA                                                   
0493393        0000000000029234784900012885029182621876000000004505480007042021PAGO NOMINA                   11CRA1504189V9 00000000000000dgarcia@gruposeri.com                  07042021JESUS  ANGEL GONZALEZ RAMIREZ                                         
0493398        0000000000029234784900012180015712952093000000002729070007042021PAGO NOMINA                   11CRA1504189V9 00000000000000dgarcia@gruposeri.com                  07042021BRENDA JAEL HURTADO RUVALCABA                                         
0493240        0000000000029234784900012650015096703469000000003361180007042021PAGO NOMINA                   11CRA1504189V9 00000000000000dgarcia@gruposeri.com                  07042021FERNANDO JUAREZ MARIN                                                 
0493244        0000000000029234784900012676015801648722000000003468550007042021PAGO NOMINA                   11CRA1504189V9 00000000000000dgarcia@gruposeri.com                  07042021JESUS EMMANUEL CRUZ HERNANDEZ                                         
0493246        0000000000029234784900012905028694524009000000004071340007042021PAGO NOMINA                   11CRA1504189V9 00000000000000dgarcia@gruposeri.com                  07042021EDNA GISELDA CARDENA MUNOZ                                            
0493247        0000000000029234784900012610015093819532000000004614050007042021PAGO NOMINA                   11CRA1504189V9 00000000000000dgarcia@gruposeri.com                  07042021KEYMA GOMEZ VELAZQUEZ                                                 
0493257        0000000000029234784900012876011252350735000000003246170007042021PAGO NOMINA                   11CRA1504189V9 00000000000000dgarcia@gruposeri.com                  07042021PATRICIA GONZALEZ FRAYRE                                              
0493263        0000000000029234784900012712015590531855000000003246170007042021PAGO NOMINA                   11CRA1504189V9 00000000000000dgarcia@gruposeri.com                  07042021CARLOS TOMAS EUGENIO REYES                                            
0493265        0000000000029234784900012290027649885072000000002217210007042021PAGO NOMINA                   11CRA1504189V9 00000000000000dgarcia@gruposeri.com                  07042021DANIEL OMANA ZARCO                                                    
0493277        0000000000029234784900012290015143123925000000005334690007042021PAGO NOMINA                   11CRA1504189V9 00000000000000dgarcia@gruposeri.com                  07042021BRIANN EDUARDO ZAMUDIO ANGELES                                        
0493289        0000000000029234784900012670015735804340000000003143550007042021PAGO NOMINA                   11CRA1504189V9 00000000000000dgarcia@gruposeri.com                  07042021KARLA ADRIANA FLORES SAAVEDRA                                         
0493300        0000000000029234784900012180015572601160000000002946170007042021PAGO NOMINA                   11CRA1504189V9 00000000000000dgarcia@gruposeri.com                  07042021JUAN DIEGO JUAREZ LOPEZ                                               
0493301        0000000000029234784900012854015410976555000000002946170007042021PAGO NOMINA                   11CRA1504189V9 00000000000000dgarcia@gruposeri.com                  07042021ISSAC CHAVEZ WOOD                                                     
0493183        0000000000029234784900012876004632075951000000002946170007042021PAGO NOMINA                   11CRA1504189V9 00000000000000dgarcia@gruposeri.com                  07042021JOSE SALVADOR RUEDA LECORTUA                                          
0493191        0000000000029234784900012180015742828100000000003361180007042021PAGO NOMINA                   11CRA1504189V9 00000000000000dgarcia@gruposeri.com                  07042021ISRAEL CARRERA PACHECO                                                
0493218        0000000000029234784900012180015634071984000000003143550007042021PAGO NOMINA                   11CRA1504189V9 00000000000000dgarcia@gruposeri.com                  07042021EVELIN YANET RAMIREZ HERNANDEZ                                        
0493223        0000000000029234784900012180015346372861000000002946170007042021PAGO NOMINA                   11CRA1504189V9 00000000000000dgarcia@gruposeri.com                  07042021JORGE IVAN CRUZ CRUZ                                                  
0493224        0000000000029234784900012150015762436421000000003143550007042021PAGO NOMINA                   11CRA1504189V9 00000000000000dgarcia@gruposeri.com                  07042021KENIA ELIDETH GONZALEZ CRUZ                                           
0493216        0000000000029234784900012180015940001486000000002946170007042021PAGO NOMINA                   11CRA1504189V9 00000000000000dgarcia@gruposeri.com                  07042021LUCAS FELIPE CASTRO                                                   
0493104        0000000000029234784900012180015370264916000000002289090007042021PAGO NOMINA                   11CRA1504189V9 00000000000000dgarcia@gruposeri.com                  07042021DALIA GUADALUPE GARZA SOLIS                                           
0493156        0000000000029234784900012884026978924626000000002577320007042021PAGO NOMINA                   11CRA1504189V9 00000000000000dgarcia@gruposeri.com                  07042021LUZ ADRIANA HERNANDEZ DEL ANGEL                                       
0493159        0000000000029234784900012883015181538688000000002221880007042021PAGO NOMINA                   11CRA1504189V9 00000000000000dgarcia@gruposeri.com                  07042021LUIS CRUZ HERNANDEZ                                                   
0493162        0000000000029234784900012180015870809169000000002946170007042021PAGO NOMINA                   11CRA1504189V9 00000000000000dgarcia@gruposeri.com                  07042021HUGO ALEJANDRO FRANCISCO CORTES                                       
0493131        0000000000029234784900012832015407369566000000002577310007042021PAGO NOMINA                   11CRA1504189V9 00000000000000dgarcia@gruposeri.com                  07042021CAROLINA MENDOZA MENDEZ                                               
0493052        0000000000029234784900012311015670803723000000003143390007042021PAGO NOMINA                   11CRA1504189V9 00000000000000dgarcia@gruposeri.com                  07042021ERICK FRANCISCO NERI CASTRO                                           
0493060        0000000000029234784900012830015159724040000000003361180007042021PAGO NOMINA                   11CRA1504189V9 00000000000000dgarcia@gruposeri.com                  07042021CLARA ESTEFANY DURAN TORRES                                           
0493077        0000000000029234784900012296011601302309000000002362810007042021PAGO NOMINA                   11CRA1504189V9 00000000000000dgarcia@gruposeri.com                  07042021BENITO HERNANDEZ SALVADOR                                             
0493086        0000000000029234784900012873015592262498000000002729070007042021PAGO NOMINA                   11CRA1504189V9 00000000000000dgarcia@gruposeri.com                  07042021BRENDA MELENDEZ MENDEZ                                                
0493006        0000000000029234784900012180015547700342000000003143550007042021PAGO NOMINA                   11CRA1504189V9 00000000000000dgarcia@gruposeri.com                  07042021PABLO OLMEDO GARCIA                                                   
0493013        0000000000029234784900012580029921440500000000003361180007042021PAGO NOMINA                   11CRA1504189V9 00000000000000dgarcia@gruposeri.com                  07042021ALONDRA CORONA ALAMEDA                                                
0493036        0000000000029234784900012180015874393370000000001789200007042021PAGO NOMINA                   11CRA1504189V9 00000000000000dgarcia@gruposeri.com                  07042021HUMBERTO PERALTA ZARATE                                               
0493037        0000000000029234784900012180015831984670000000002729070007042021PAGO NOMINA                   11CRA1504189V9 00000000000000dgarcia@gruposeri.com                  07042021SILVIA LUCERO CARRASCO CARCAMO                                        
0493030        0000000000029234784900012180015704741296000000003143390007042021PAGO NOMINA                   11CRA1504189V9 00000000000000dgarcia@gruposeri.com                  07042021IRMA CHAVEZ PEREZ                                                     
0493032        0000000000029234784900012180015832100848000000004106600007042021PAGO NOMINA                   11CRA1504189V9 00000000000000dgarcia@gruposeri.com                  07042021DULCE ESPERANZA VARGAS ZAMORANO                                       
0492922        0000000000029234784900012854015170587161000000002946170007042021PAGO NOMINA                   11CRA1504189V9 00000000000000dgarcia@gruposeri.com                  07042021VICTOR MANUEL RIVERA RUEDA                                            
0492940        0000000000029234784900012180029274178880000000004106600007042021PAGO NOMINA                   11CRA1504189V9 00000000000000dgarcia@gruposeri.com                  07042021DIANA ALEJANDRA NAVARRO ARROYO                                        
0492969        0000000000029234784900012650015078151699000000003361180007042021PAGO NOMINA                   11CRA1504189V9 00000000000000dgarcia@gruposeri.com                  07042021FABIOLA SERRANO NOLASCO                                               
0492975        0000000000029234784900012813015136207785000000004478170007042021PAGO NOMINA                   11CRA1504189V9 00000000000000dgarcia@gruposeri.com                  07042021JERONIMO DEL ANGEL GARCIA                                             
0492859        0000000000029234784900012864015720856180000000002289090007042021PAGO NOMINA                   11CRA1504189V9 00000000000000dgarcia@gruposeri.com                  07042021LETICIA GARCIA GARCIA                                                 
0492883        0000000000029234784900012834015780393341000000002576890007042021PAGO NOMINA                   11CRA1504189V9 00000000000000dgarcia@gruposeri.com                  07042021WILBERT HARO MARQUEZ                                                  
0492888        0000000000029234784900012854029603268529000000002729070007042021PAGO NOMINA                   11CRA1504189V9 00000000000000dgarcia@gruposeri.com                  07042021LORENA AIDEE HERRERA GONZALEZ                                         
0492907        0000000000029234784900012705029864752994000000005161470007042021PAGO NOMINA                   11CRA1504189V9 00000000000000dgarcia@gruposeri.com                  07042021JESSICA IRINET CASTILLO CORDOVA                                       
0492916        0000000000029234784900012813028875880117000000002500140007042021PAGO NOMINA                   11CRA1504189V9 00000000000000dgarcia@gruposeri.com                  07042021ALBERTO JORGE MORENO ROJAS                                            
0492801        0000000000029234784900012864004696828800000000003143550007042021PAGO NOMINA                   11CRA1504189V9 00000000000000dgarcia@gruposeri.com                  07042021LESLY MARILYN OLMEDO TICANTE                                          
0492803        0000000000029234784900012888011319129761000000001724900007042021PAGO NOMINA                   11CRA1504189V9 00000000000000dgarcia@gruposeri.com                  07042021GERARDO GONZALEZ PACHECO                                              
0492719        0000000000029234784900012180015626509781000000002946170007042021PAGO NOMINA                   11CRA1504189V9 00000000000000dgarcia@gruposeri.com                  07042021DIEGO FLORES FRANCO                                                   
0492798        0000000000029234784900012311015675797054000000002946170007042021PAGO NOMINA                   11CRA1504189V9 00000000000000dgarcia@gruposeri.com                  07042021ALMA KARINA ARGUELLO RAMIREZ                                          
0492758        0000000000029234784900012894015630974070000000002946170007042021PAGO NOMINA                   11CRA1504189V9 00000000000000dgarcia@gruposeri.com                  07042021MIRIAM IGNOT DE LA CRUZ                                               
0492764        0000000000029234784900012180015006725839000000001841250007042021PAGO NOMINA                   11CRA1504189V9 00000000000000dgarcia@gruposeri.com                  07042021LEYDI VIANEY SANTIAGO NAZARIO                                         
0492673        0000000000029234784900012667014329998540000000003143550007042021PAGO NOMINA                   11CRA1504189V9 00000000000000dgarcia@gruposeri.com                  07042021MARTIN FLORES SANCHEZ                                                 
0492680        0000000000029234784900012180015432590162000000002460080007042021PAGO NOMINA                   11CRA1504189V9 00000000000000dgarcia@gruposeri.com                  07042021ALMA EDITH LA BASTIDA GIL                                             
0492693        0000000000029234784900012813015245032799000000001960190007042021PAGO NOMINA                   11CRA1504189V9 00000000000000dgarcia@gruposeri.com                  07042021YANET TORRES FERNANDEZ                                                
0492695        0000000000029234784900012834015680389536000000002946170007042021PAGO NOMINA                   11CRA1504189V9 00000000000000dgarcia@gruposeri.com                  07042021JOSE ERIK AGUILAR DOMINGUEZ                                           
0492640        0000000000029234784900012180015041637649000000003361180007042021PAGO NOMINA                   11CRA1504189V9 00000000000000dgarcia@gruposeri.com                  07042021JESUS MANUEL MENESES ZAYAS                                            
0492621        0000000000029234784900012888015538082656000000002729070007042021PAGO NOMINA                   11CRA1504189V9 00000000000000dgarcia@gruposeri.com                  07042021ANAHI QUIROZ HERNANDEZ                                                
0492624        0000000000029234784900012888015567498211000000002946170007042021PAGO NOMINA                   11CRA1504189V9 00000000000000dgarcia@gruposeri.com                  07042021ANA PAULINA MARTINEZ MARROQUIN                                        
0492633        0000000000029234784900012845015574686143000000002461640007042021PAGO NOMINA                   11CRA1504189V9 00000000000000dgarcia@gruposeri.com                  07042021TERESA DE JESUS HERNANDEZ MURILLO                                     
0492607        0000000000029234784900012670028609114373000000001310050007042021PAGO NOMINA                   11CRA1504189V9 00000000000000dgarcia@gruposeri.com                  07042021DANIEL MARTINEZ SANCHEZ                                               
0492609        0000000000029234784900012180015371929917000000001713600007042021PAGO NOMINA                   11CRA1504189V9 00000000000000dgarcia@gruposeri.com                  07042021LEIDY GALLEGOS ASTACIO                                                
0492614        0000000000029234784900012886027484782524000000009068660007042021PAGO NOMINA                   11CRA1504189V9 00000000000000dgarcia@gruposeri.com                  07042021JULIO CESAR GUTIERREZ MARTINEZ                                        
0492550        0000000000029234784900012650029445418634000000001602830007042021PAGO NOMINA                   11CRA1504189V9 00000000000000dgarcia@gruposeri.com                  07042021GABRIEL RUBEN PEREZ MORENO                                            
0492567        0000000000029234784900012180015384654554000000003361180007042021PAGO NOMINA                   11CRA1504189V9 00000000000000dgarcia@gruposeri.com                  07042021DALIA  LORENA MARTINEZ RAMIREZ                                        
0492582        0000000000029234784900012667015300751608000000002729070007042021PAGO NOMINA                   11CRA1504189V9 00000000000000dgarcia@gruposeri.com                  07042021NEYDI SARMIENTO SERRANO                                               
0492448        0000000000029234784900012180015603753819000000002946170007042021PAGO NOMINA                   11CRA1504189V9 00000000000000dgarcia@gruposeri.com                  07042021MARTIN GUTIERREZ HUERTA                                               
0492450        0000000000029234784900012903015498274984000000003361180007042021PAGO NOMINA                   11CRA1504189V9 00000000000000dgarcia@gruposeri.com                  07042021ALACIEL CURIEL TORRES                                                 
0492451        0000000000029234784900012813015454231844000000003361180007042021PAGO NOMINA                   11CRA1504189V9 00000000000000dgarcia@gruposeri.com                  07042021BRENDA YADIRA DELGADILLO CUETO                                        
0492461        0000000000029234784900012811014376770499000000002946240007042021PAGO NOMINA                   11CRA1504189V9 00000000000000dgarcia@gruposeri.com                  07042021JULIAN CASTILLO FLORES                                                
0492465        0000000000029234784900012669015268136936000000002729070007042021PAGO NOMINA                   11CRA1504189V9 00000000000000dgarcia@gruposeri.com                  07042021CIRO ARTURO CANCINO MENESES                                           
0492434        0000000000029234784900012180015474895634000000003143550007042021PAGO NOMINA                   11CRA1504189V9 00000000000000dgarcia@gruposeri.com                  07042021KARLA FABIOLA MATEO PASCUAL                                           
0492395        0000000000029234784900012864015187439946000000003143550007042021PAGO NOMINA                   11CRA1504189V9 00000000000000dgarcia@gruposeri.com                  07042021PEDRO BAUTISTA QUINTERO                                               
0492372        0000000000029234784900012296015524792652000000002852280007042021PAGO NOMINA                   11CRA1504189V9 00000000000000dgarcia@gruposeri.com                  07042021CONSUELO MIJAIL VITE LOYDA                                            
0492377        0000000000029234784900012580015056557576000000001884100007042021PAGO NOMINA                   11CRA1504189V9 00000000000000dgarcia@gruposeri.com                  07042021CINTHYA  LORENA OLVERA BARRIOS                                        
0492381        0000000000029234784900012290028848079950000000002946340007042021PAGO NOMINA                   11CRA1504189V9 00000000000000dgarcia@gruposeri.com                  07042021KARINA OILEGOR CANTERA GOMEZ                                          
0492230        0000000000029234784900012864004684728239000000001476550007042021PAGO NOMINA                   11CRA1504189V9 00000000000000dgarcia@gruposeri.com                  07042021ALMA LIZZETH CRUZ AGUILAR                                             
0492199        0000000000029234784900012290015235428347000000003483800007042021PAGO NOMINA                   11CRA1504189V9 00000000000000dgarcia@gruposeri.com                  07042021SAYIRA PEREZ MOCINO                                                   
0492214        0000000000029234784900012813014207966545000000003279980007042021PAGO NOMINA                   11CRA1504189V9 00000000000000dgarcia@gruposeri.com                  07042021DIANA ARELI ROCHA QUINTANILLA                                         
0492215        0000000000029234784900012650015784460328000000005926540007042021PAGO NOMINA                   11CRA1504189V9 00000000000000dgarcia@gruposeri.com                  07042021ERIKA LUCIA ZURITA REYES                                              
0492221        0000000000029234784900012180015244847579000000002728990007042021PAGO NOMINA                   11CRA1504189V9 00000000000000dgarcia@gruposeri.com                  07042021NANCY ALEJANDRA GARCIA OROPEZA                                        
0492265        0000000000029234784900012225015043694529000000002946170007042021PAGO NOMINA                   11CRA1504189V9 00000000000000dgarcia@gruposeri.com                  07042021NATALI KARINA CADENA GOMEZ                                            
0492313        0000000000029234784900012876015806057862000000003346100007042021PAGO NOMINA                   11CRA1504189V9 00000000000000dgarcia@gruposeri.com                  07042021ALMA  GABRIELA ESPINOSA CRUZ                                          
0492314        0000000000029234784900012877011492430977000000005231860007042021PAGO NOMINA                   11CRA1504189V9 00000000000000dgarcia@gruposeri.com                  07042021HAMILTON PEREZ JIMENEZ                                                
0492327        0000000000029234784900012180026295456461000000007057770007042021PAGO NOMINA                   11CRA1504189V9 00000000000000dgarcia@gruposeri.com                  07042021NORMA ANGELICA ROMERO CABELLO                                         
0492349        0000000000029234784900012830029067456878000000003143390007042021PAGO NOMINA                   11CRA1504189V9 00000000000000dgarcia@gruposeri.com                  07042021YEINI FLORES HERNANDEZ                                                
0492162        0000000000029234784900012813015951090973000000005334620007042021PAGO NOMINA                   11CRA1504189V9 00000000000000dgarcia@gruposeri.com                  07042021LUIS FELIPE LAVIN TOVAR                                               
0492174        0000000000029234784900012180015327158839000000002728990007042021PAGO NOMINA                   11CRA1504189V9 00000000000000dgarcia@gruposeri.com                  07042021DIANA KRISTEL SOBREVILLA SIERRA                                       
0492126        0000000000029234784900012832015619252539000000004592760007042021PAGO NOMINA                   11CRA1504189V9 00000000000000dgarcia@gruposeri.com                  07042021ALEXIS NOYOLA CAMARILLO                                               
0492133        0000000000029234784900012180015198591722000000002289040007042021PAGO NOMINA                   11CRA1504189V9 00000000000000dgarcia@gruposeri.com                  07042021CARMEN LIZETH MARTINEZ MARTINEZ                                       
0492134        0000000000029234784900012290012424373688000000002289040007042021PAGO NOMINA                   11CRA1504189V9 00000000000000dgarcia@gruposeri.com                  07042021ROSI ISELA LOZANO GASCA                                               
0492112        0000000000029234784900012180015093983655000000002289020007042021PAGO NOMINA                   11CRA1504189V9 00000000000000dgarcia@gruposeri.com                  07042021CARMELA HERNANDEZ AMADOR                                              
0492003        0000000000029234784900012905015765829235000000002728990007042021PAGO NOMINA                   11CRA1504189V9 00000000000000dgarcia@gruposeri.com                  07042021NELSON AARON MARQUEZ MARTINEZ                                         
0492040        0000000000029234784900012650015615381369000000002728990007042021PAGO NOMINA                   11CRA1504189V9 00000000000000dgarcia@gruposeri.com                  07042021IRMA LOPEZ GAYTAN                                                     
0492070        0000000000029234784900012903015483740313000000003143470007042021PAGO NOMINA                   11CRA1504189V9 00000000000000dgarcia@gruposeri.com                  07042021CARLOS RUBEN SANCHEZ DE LA CRUZ                                       
0492079        0000000000029234784900012905015779501361000000003143470007042021PAGO NOMINA                   11CRA1504189V9 00000000000000dgarcia@gruposeri.com                  07042021ABELMAIN GARCIA TLAXCALA                                              
0491706        0000000000029234784900012667029736788574000000003143470007042021PAGO NOMINA                   11CRA1504189V9 00000000000000dgarcia@gruposeri.com                  07042021ALITZEL GARCIA MARTINEZ                                               
0491740        0000000000029234784900012864015866205158000000002198010007042021PAGO NOMINA                   11CRA1504189V9 00000000000000dgarcia@gruposeri.com                  07042021ARITH PULIDO GARCIA                                                   
0491747        0000000000029234784900012296015615066792000000002946260007042021PAGO NOMINA                   11CRA1504189V9 00000000000000dgarcia@gruposeri.com                  07042021IVETH ORTEGA HERNANDEZ                                                
0491774        0000000000029234784900012290029801542533000000003143300007042021PAGO NOMINA                   11CRA1504189V9 00000000000000dgarcia@gruposeri.com                  07042021ALEJANDRO RODRIGUEZ LATORRE                                           
0491775        0000000000029234784900012290014021592365000000002765250007042021PAGO NOMINA                   11CRA1504189V9 00000000000000dgarcia@gruposeri.com                  07042021VALENTIN LORENZO FILER                                                
0491812        0000000000029234784900012885015570411440000000002209370007042021PAGO NOMINA                   11CRA1504189V9 00000000000000dgarcia@gruposeri.com                  07042021BRIZET ESTELA SANTES PEREZ                                            
0491838        0000000000029234784900012876015237195539000000002212770007042021PAGO NOMINA                   11CRA1504189V9 00000000000000dgarcia@gruposeri.com                  07042021OSCAR HERNANDEZ BALTAZAR                                              
0491933        0000000000029234784900012180015372416076000000002946260007042021PAGO NOMINA                   11CRA1504189V9 00000000000000dgarcia@gruposeri.com                  07042021PEDRO VALENTIN MARQUEZ                                                
0491661        0000000000029234784900012180015835306982000000002022530007042021PAGO NOMINA                   11CRA1504189V9 00000000000000dgarcia@gruposeri.com                  07042021CLAUDIA GUADALUPE PEREZ GARAY                                         
0491668        0000000000029234784900012180015481727766000000003143470007042021PAGO NOMINA                   11CRA1504189V9 00000000000000dgarcia@gruposeri.com                  07042021EIMER CHAGOYA ESPINOSA                                                
0491564        0000000000029234784900012650029840618291000000002478620007042021PAGO NOMINA                   11CRA1504189V9 00000000000000dgarcia@gruposeri.com                  07042021JESUS ANTONIO OCAMPO ROSAS                                            
0491600        0000000000029234784900012180015685779947000000003143470007042021PAGO NOMINA                   11CRA1504189V9 00000000000000dgarcia@gruposeri.com                  07042021MARTIN LOPEZ GUZMAN                                                   
0491650        0000000000029234784900012894015718976246000000002123860007042021PAGO NOMINA                   11CRA1504189V9 00000000000000dgarcia@gruposeri.com                  07042021CARMEN ELIZABETH PEREZ MERAZ                                          
0491691        0000000000029234784900012855011264255852000000002391410007042021PAGO NOMINA                   11CRA1504189V9 00000000000000dgarcia@gruposeri.com                  07042021LUZ DEL CARMEN MARTINEZ UBIETA                                        
0491444        0000000000029234784900012670027950917217000000002728990007042021PAGO NOMINA                   11CRA1504189V9 00000000000000dgarcia@gruposeri.com                  07042021NANCY KARINA MUNDO PERALTA                                            
0491486        0000000000029234784900012650029441315171000000003617850007042021PAGO NOMINA                   11CRA1504189V9 00000000000000dgarcia@gruposeri.com                  07042021ISMAEL DOMINGUEZ CLEMENTE                                             
0491268        0000000000029234784900012180015612104404000000002799500007042021PAGO NOMINA                   11CRA1504189V9 00000000000000dgarcia@gruposeri.com                  07042021DONAXI GUADALUPE ALVARADO ROBLES                                      
0491280        0000000000029234784900012881029885100245000000005334320007042021PAGO NOMINA                   11CRA1504189V9 00000000000000dgarcia@gruposeri.com                  07042021EDGAR LEOPOLDO JUAREZ MAYA                                            
0491327        0000000000029234784900012813015342098856000000002728930007042021PAGO NOMINA                   11CRA1504189V9 00000000000000dgarcia@gruposeri.com                  07042021DARINKA BEATRIZ ZAVALA CASTILLO                                       
0491334        0000000000029234784900012290015548425451000000002288970007042021PAGO NOMINA                   11CRA1504189V9 00000000000000dgarcia@gruposeri.com                  07042021NOHEMI PERALTA HERNANDEZ                                              
0491347        0000000000029234784900012885015418519695000000002536470007042021PAGO NOMINA                   11CRA1504189V9 00000000000000dgarcia@gruposeri.com                  07042021RUBICELI PEREZ CAMPOS                                                 
0491354        0000000000029234784900012840011732610264000000006334520007042021PAGO NOMINA                   11CRA1504189V9 00000000000000dgarcia@gruposeri.com                  07042021IGNACIO CRUZ ORTEGA                                                   
0491174        0000000000029234784900012813015570105676000000000893820007042021PAGO NOMINA                   11CRA1504189V9 00000000000000dgarcia@gruposeri.com                  07042021MARIA ELENA GUERRERO SALAS                                            
0491218        0000000000029234784900012650015441317620000000003000540007042021PAGO NOMINA                   11CRA1504189V9 00000000000000dgarcia@gruposeri.com                  07042021JAZMIN MATAMOROS JUAREZ                                               
0491244        0000000000029234784900012296027741570959000000002594660007042021PAGO NOMINA                   11CRA1504189V9 00000000000000dgarcia@gruposeri.com                  07042021FEDERICO HERNANDEZ HERNANDEZ                                          
0491066        0000000000029234784900012650004593054758000000005334450007042021PAGO NOMINA                   11CRA1504189V9 00000000000000dgarcia@gruposeri.com                  07042021ARMANDO CABRERA CASTILLO                                              
0491118        0000000000029234784900012811029420078786000000002922860007042021PAGO NOMINA                   11CRA1504189V9 00000000000000dgarcia@gruposeri.com                  07042021GEORGINA DEL ANGEL MONFIL                                             
0490925        0000000000029234784900012650015700389894000000002334910007042021PAGO NOMINA                   11CRA1504189V9 00000000000000dgarcia@gruposeri.com                  07042021GABRIELA SELENE ROQUE ROJAS                                           
0490967        0000000000029234784900012876011607142242000000002189470007042021PAGO NOMINA                   11CRA1504189V9 00000000000000dgarcia@gruposeri.com                  07042021REYNA MARTHA RODRIGUEZ ALBERTO                                        
0490418        0000000000029234784900012877015726587398000000004149770007042021PAGO NOMINA                   11CRA1504189V9 00000000000000dgarcia@gruposeri.com                  07042021GUADALUPE DIAZ MENDOZA                                                
0490866        0000000000029234784900012881015441819803000000002728930007042021PAGO NOMINA                   11CRA1504189V9 00000000000000dgarcia@gruposeri.com                  07042021LILIANA MORELOS SALAS                                                 
0490732        0000000000029234784900012813015196883233000000002946100007042021PAGO NOMINA                   11CRA1504189V9 00000000000000dgarcia@gruposeri.com                  07042021MARIA DE JESUS PEREZ TICANTE                                          
0490738        0000000000029234784900012813015199436412000000002583830007042021PAGO NOMINA                   11CRA1504189V9 00000000000000dgarcia@gruposeri.com                  07042021VERONICA CRUZ CASTILLO                                                
0490683        0000000000029234784900012832015299533377000000002531860007042021PAGO NOMINA                   11CRA1504189V9 00000000000000dgarcia@gruposeri.com                  07042021ANABEL WITLE VAZQUEZ                                                  
0490607        0000000000029234784900012650015216125490000000003671140007042021PAGO NOMINA                   11CRA1504189V9 00000000000000dgarcia@gruposeri.com                  07042021CARLOS ALBERTO MENDOZA ORTIZ                                          
0490653        0000000000029234784900012832015537861374000000005334320007042021PAGO NOMINA                   11CRA1504189V9 00000000000000dgarcia@gruposeri.com                  07042021EDER SOCRATES PADILLA MORA                                            
0490655        0000000000029234784900012290028721472467000000003093400007042021PAGO NOMINA                   11CRA1504189V9 00000000000000dgarcia@gruposeri.com                  07042021JONATHAN HERNANDEZ ALVITER                                            
0490574        0000000000029234784900012669027951168050000000003310960007042021PAGO NOMINA                   11CRA1504189V9 00000000000000dgarcia@gruposeri.com                  07042021LUIS ANGEL TORRES MARIN                                               
0490551        0000000000029234784900012855015163693087000000002614500007042021PAGO NOMINA                   11CRA1504189V9 00000000000000dgarcia@gruposeri.com                  07042021KARINA VELAZQUEZ LOPEZ                                                
0490468        0000000000029234784900012676015272345117000000002335790007042021PAGO NOMINA                   11CRA1504189V9 00000000000000dgarcia@gruposeri.com                  07042021VERONICA ARELI HERNANDEZ TRINIDAD                                     
0490506        0000000000029234784900012885027038426305000000005334130007042021PAGO NOMINA                   11CRA1504189V9 00000000000000dgarcia@gruposeri.com                  07042021ANA MARIA RAMIREZ ZEPEDA                                              
0490512        0000000000029234784900012905015120049171000000003087710007042021PAGO NOMINA                   11CRA1504189V9 00000000000000dgarcia@gruposeri.com                  07042021PEDRO DAMIAN MARTINEZ BLANCO                                          
0490514        0000000000029234784900012841004557856507000000004139320007042021PAGO NOMINA                   11CRA1504189V9 00000000000000dgarcia@gruposeri.com                  07042021NALLELY REYES SANTOS                                                  
0490517        0000000000029234784900012881015035480745000000002179370007042021PAGO NOMINA                   11CRA1504189V9 00000000000000dgarcia@gruposeri.com                  07042021HECTOR JOEL DEL ANGEL LOZANO                                          
0490519        0000000000029234784900012888029370989877000000005334260007042021PAGO NOMINA                   11CRA1504189V9 00000000000000dgarcia@gruposeri.com                  07042021SANDRA CORTES BAUTISTA                                                
0490268        0000000000029234784900012903011227988241000000002012010007042021PAGO NOMINA                   11CRA1504189V9 00000000000000dgarcia@gruposeri.com                  07042021ELENA MORALES PELCASTRE                                               
0490272        0000000000029234784900012854012557830706000000006042690007042021PAGO NOMINA                   11CRA1504189V9 00000000000000dgarcia@gruposeri.com                  07042021HILDA KARINA GUTIERREZ CHAVEZ                                         
0490277        0000000000029234784900012885015001022023000000005334130007042021PAGO NOMINA                   11CRA1504189V9 00000000000000dgarcia@gruposeri.com                  07042021NADIA BERENICE DE LEON HERNANDEZ                                      
0490282        0000000000029234784900012830029541765373000000003549420007042021PAGO NOMINA                   11CRA1504189V9 00000000000000dgarcia@gruposeri.com                  07042021TERESA PELCASTRE LOPEZ                                                
0490256        0000000000029234784900012903011275364532000000004162820007042021PAGO NOMINA                   11CRA1504189V9 00000000000000dgarcia@gruposeri.com                  07042021EDUARDO CRUZ CASTILLO                                                 
0490346        0000000000029234784900012669015188115325000000002532830007042021PAGO NOMINA                   11CRA1504189V9 00000000000000dgarcia@gruposeri.com                  07042021MARIEL LOPEZ JIMENEZ                                                  
0490350        0000000000029234784900012650015689344552000000005333950007042021PAGO NOMINA                   11CRA1504189V9 00000000000000dgarcia@gruposeri.com                  07042021MIRIAM RAMIREZ GONZALEZ                                               
0490370        0000000000029234784900012296004596610508000000002462050007042021PAGO NOMINA                   11CRA1504189V9 00000000000000dgarcia@gruposeri.com                  07042021EDER IVAN LIZCANO ALONZO                                              
0490212        0000000000029234784900012894015005153109000000004106130007042021PAGO NOMINA                   11CRA1504189V9 00000000000000dgarcia@gruposeri.com                  07042021SILBINO DEL ANGEL TENORIO                                             
0490213        0000000000029234784900012180015425717334000000002332420007042021PAGO NOMINA                   11CRA1504189V9 00000000000000dgarcia@gruposeri.com                  07042021ANA RUTH DIAZ MARIANO                                                 
0490217        0000000000029234784900012894015004838852000000002945940007042021PAGO NOMINA                   11CRA1504189V9 00000000000000dgarcia@gruposeri.com                  07042021ERIC HERNANDEZ PEREZ                                                  
0490207        0000000000029234784900012864015782711519000000003813940007042021PAGO NOMINA                   11CRA1504189V9 00000000000000dgarcia@gruposeri.com                  07042021ADAN ISAAC BERNABE LUCAS                                              
0490135        0000000000029234784900012180015227195992000000004106130007042021PAGO NOMINA                   11CRA1504189V9 00000000000000dgarcia@gruposeri.com                  07042021RAFAEL DIAZ HERNANDEZ                                                 
0490107        0000000000029234784900012311015239875516000000006215820007042021PAGO NOMINA                   11CRA1504189V9 00000000000000dgarcia@gruposeri.com                  07042021ALEXIS CONRADO GALVAN TAVERA                                          
0490128        0000000000029234784900012813015391904687000000001178970007042021PAGO NOMINA                   11CRA1504189V9 00000000000000dgarcia@gruposeri.com                  07042021JUAN AHUMADA SANTES                                                   
0490129        0000000000029234784900012905014963167512000000005333950007042021PAGO NOMINA                   11CRA1504189V9 00000000000000dgarcia@gruposeri.com                  07042021MARISSA REBOLLEDO NACIFF                                              
0490166        0000000000029234784900012670011659062026000000002728860007042021PAGO NOMINA                   11CRA1504189V9 00000000000000dgarcia@gruposeri.com                  07042021MARIA ANGELICA DE JESUS HERNANDEZ                                     
0490171        0000000000029234784900012650011634512595000000003068880007042021PAGO NOMINA                   11CRA1504189V9 00000000000000dgarcia@gruposeri.com                  07042021JOSE LUIS AVALOS BOBADILLA                                            
0490179        0000000000029234784900012290011487774623000000003599890007042021PAGO NOMINA                   11CRA1504189V9 00000000000000dgarcia@gruposeri.com                  07042021MARIA ESTELA GRANADA TEODORO                                          
0490183        0000000000029234784900012676011491358633000000001632350007042021PAGO NOMINA                   11CRA1504189V9 00000000000000dgarcia@gruposeri.com                  07042021NORMA JUAREZ ORTEGA                                                   
0490073        0000000000029234784900012290011510918754000000006497800007042021PAGO NOMINA                   11CRA1504189V9 00000000000000dgarcia@gruposeri.com                  07042021TANIA PALACIOS OSTRIA                                                 
0490089        0000000000029234784900012837015120022729000000007640960007042021PAGO NOMINA                   11CRA1504189V9 00000000000000dgarcia@gruposeri.com                  07042021TANIA ARCELIA VAZQUEZ CORDOVA                                         
0490095        0000000000029234784900012832028604410315000000005727270007042021PAGO NOMINA                   11CRA1504189V9 00000000000000dgarcia@gruposeri.com                  07042021XOCHITL MARIA GUADALUPE LOYOLA ZAVALETA                               
0490050        0000000000029234784900012676011774944599000000002189330007042021PAGO NOMINA                   11CRA1504189V9 00000000000000dgarcia@gruposeri.com                  07042021ANALI PEREZ CASTRO                                                    
0490056        0000000000029234784900012125029521552143000000005721680007042021PAGO NOMINA                   11CRA1504189V9 00000000000000dgarcia@gruposeri.com                  07042021BEATRIZ ADRIANA HERNANDEZ MENDEZ                                      
0490059        0000000000029234784900012676029332821716000000004810340007042021PAGO NOMINA                   11CRA1504189V9 00000000000000dgarcia@gruposeri.com                  07042021MARGARITA VAZQUEZ GUTIERREZ                                           
0490062        0000000000029234784900012290011494309890000000002189330007042021PAGO NOMINA                   11CRA1504189V9 00000000000000dgarcia@gruposeri.com                  07042021MARIA GUADALUPE PEREZ MONTALVO                                        
0412009        0000000000029234784900012650015829528510000000003054810007042021PAGO NOMINA                   11CRA1504189V9 00000000000000dgarcia@gruposeri.com                  07042021ISAIAS MANCILLA RIVERA                                                
0490040        0000000000029234784900012676011585964250000000004057430007042021PAGO NOMINA                   11CRA1504189V9 00000000000000dgarcia@gruposeri.com                  07042021SONIA LOPEZ GUTIERREZ                                                 
0430043        0000000000029234784900012672015034530737000000005317940007042021PAGO NOMINA                   11CRA1504189V9 00000000000000dgarcia@gruposeri.com                  07042021FAUSTINO HINOJOSA HERNANDEZ                                           
0463215        0000000000029234784900012854015556344902000000002946170007042021PAGO NOMINA                   11CRA1504189V9 00000000000000dgarcia@gruposeri.com                  07042021CRISTIAN KUDI MATUS DECENA                                            
0490005        0000000000029234784900012877004581984383000000002189470007042021PAGO NOMINA                   11CRA1504189V9 00000000000000dgarcia@gruposeri.com                  07042021MARCELA VIVES GONZALEZ                                                
0490110        0000000000029234784900014311605648957352000000002439550007042021PAGO NOMINA                   11CRA1504189V9 00000000000000dgarcia@gruposeri.com                  07042021YESSICA BERENICE MEZA CHAVEZ                                          
0490117        0000000000029234784900014670605703715057000000004527460007042021PAGO NOMINA                   11CRA1504189V9 00000000000000dgarcia@gruposeri.com                  07042021DANIEL CECILIO LUNA                                                   
0490739        0000000000029234784900014811567056070171000000002189470007042021PAGO NOMINA                   11CRA1504189V9 00000000000000dgarcia@gruposeri.com                  07042021YOLANDA RODRIGUEZ ORTIZ                                               
0491033        0000000000029234784900014813566888135351000000004139440007042021PAGO NOMINA                   11CRA1504189V9 00000000000000dgarcia@gruposeri.com                  07042021MARIAN LIZBETH CASTILLO LOPEZ                                         
0491256        0000000000029234784900014894200072434606000000005334320007042021PAGO NOMINA                   11CRA1504189V9 00000000000000dgarcia@gruposeri.com                  07042021MANUEL ZUNIGA VILLEGAS                                                
0491193        0000000000029234784900014877605958352026000000005334320007042021PAGO NOMINA                   11CRA1504189V9 00000000000000dgarcia@gruposeri.com                  07042021RIGOBERTO TORRES REYES                                                
0491342        0000000000029234784900014888605985021050000000005299820007042021PAGO NOMINA                   11CRA1504189V9 00000000000000dgarcia@gruposeri.com                  07042021JOSE CARLOMAGNO VILLANUEVA LOTINA                                     
0491517        0000000000029234784900014813605969866484000000002289040007042021PAGO NOMINA                   11CRA1504189V9 00000000000000dgarcia@gruposeri.com                  07042021KARLA LIZBETH RODRIGUEZ CASTILLO                                      
0491815        0000000000029234784900014822567370478435000000002946260007042021PAGO NOMINA                   11CRA1504189V9 00000000000000dgarcia@gruposeri.com                  07042021MARISELA PEREZ ATZIN                                                  
0492120        0000000000029234784900014854606039076052000000002946170007042021PAGO NOMINA                   11CRA1504189V9 00000000000000dgarcia@gruposeri.com                  07042021SERGIO ANGEL CAMERINO PEREZ VELAZQUEZ                                 
0492285        0000000000029234784900014650567417475932000000005926840007042021PAGO NOMINA                   11CRA1504189V9 00000000000000dgarcia@gruposeri.com                  07042021JOSE OCTAVIO RUIZ MEJIA                                               
0492208        0000000000029234784900014830606015435741000000001350530007042021PAGO NOMINA                   11CRA1504189V9 00000000000000dgarcia@gruposeri.com                  07042021MARIA DEL CARMEN OJEDA VALENCIA                                       
0492229        0000000000029234784900014290606105245559000000005295780007042021PAGO NOMINA                   11CRA1504189V9 00000000000000dgarcia@gruposeri.com                  07042021FRANCISCO LEONARDO ESTRADA RUIZ                                       
0492262        0000000000029234784900014841606077726937000000003151480007042021PAGO NOMINA                   11CRA1504189V9 00000000000000dgarcia@gruposeri.com                  07042021NUBIA ISEL SOLANO LARA                                                
0492596        0000000000029234784900014650605868917406000000002225700007042021PAGO NOMINA                   11CRA1504189V9 00000000000000dgarcia@gruposeri.com                  07042021ABRAHAM PEREZ FLORES                                                  
0492605        0000000000029234784900014404568038174003000000002946170007042021PAGO NOMINA                   11CRA1504189V9 00000000000000dgarcia@gruposeri.com                  07042021KARINA AVALOS CRUZ                                                    
0492643        0000000000029234784900014832606081853520000000002289090007042021PAGO NOMINA                   11CRA1504189V9 00000000000000dgarcia@gruposeri.com                  07042021JACQUELIN GONZALEZ ORDONEZ                                            
0492709        0000000000029234784900014881567727192428000000003143550007042021PAGO NOMINA                   11CRA1504189V9 00000000000000dgarcia@gruposeri.com                  07042021MARCO ANTONIO CASTILLO CALDERON                                       
0492699        0000000000029234784900014296566795265928000000002946170007042021PAGO NOMINA                   11CRA1504189V9 00000000000000dgarcia@gruposeri.com                  07042021JULIO CESAR GARCIA REYES                                              
0492837        0000000000029234784900014650566877613458000000002573270007042021PAGO NOMINA                   11CRA1504189V9 00000000000000dgarcia@gruposeri.com                  07042021ANA CECILIA GARCIA MORA                                               
0492978        0000000000029234784900014905605986900972000000002427300007042021PAGO NOMINA                   11CRA1504189V9 00000000000000dgarcia@gruposeri.com                  07042021TSANDA OME CIUATL RODRIGUEZ GARCIA                                    
0492979        0000000000029234784900014885567833459925000000003143550007042021PAGO NOMINA                   11CRA1504189V9 00000000000000dgarcia@gruposeri.com                  07042021ABRIL MARGARITA CERON ZEPETA                                          
0493034        0000000000029234784900014650605817800661000000003361180007042021PAGO NOMINA                   11CRA1504189V9 00000000000000dgarcia@gruposeri.com                  07042021GEOVANNI GONZALEZ GARCIA                                              
0493038        0000000000029234784900014813567731821216000000002729070007042021PAGO NOMINA                   11CRA1504189V9 00000000000000dgarcia@gruposeri.com                  07042021VALERIA ESTEFANIA PEREZ GARAY                                         
0492962        0000000000029234784900014845606129843803000000002946170007042021PAGO NOMINA                   11CRA1504189V9 00000000000000dgarcia@gruposeri.com                  07042021JUAN JOSE HERNANDEZ CRUZ                                              
0493134        0000000000029234784900014811567872775249000000002946170007042021PAGO NOMINA                   11CRA1504189V9 00000000000000dgarcia@gruposeri.com                  07042021EMMA LAURA DE LA FUENTE MARTINEZ                                      
0493170        0000000000029234784900014813605623706071000000004746240007042021PAGO NOMINA                   11CRA1504189V9 00000000000000dgarcia@gruposeri.com                  07042021JESSICA MUNOZ SANCHEZ                                                 
0493172        0000000000029234784900014813606043878449000000002362840007042021PAGO NOMINA                   11CRA1504189V9 00000000000000dgarcia@gruposeri.com                  07042021MARIA GUADALUPE HERNANDEZ MORENO                                      
0493177        0000000000029234784900014876567733793305000000003329220007042021PAGO NOMINA                   11CRA1504189V9 00000000000000dgarcia@gruposeri.com                  07042021BLANCA ISABEL ORTIZ CAMACHO                                           
0493233        0000000000029234784900014854606050136625000000004395690007042021PAGO NOMINA                   11CRA1504189V9 00000000000000dgarcia@gruposeri.com                  07042021CARLOS CAZARIN DOMINGUEZ                                              
0493194        0000000000029234784900014877606122565295000000002946170007042021PAGO NOMINA                   11CRA1504189V9 00000000000000dgarcia@gruposeri.com                  07042021YAZMIN DEL CARMEN RODRIGUEZ LURIA                                     
0493204        0000000000029234784900014813567679920790000000003143550007042021PAGO NOMINA                   11CRA1504189V9 00000000000000dgarcia@gruposeri.com                  07042021VICTOR OMAR VALENTIN AGUIRRE                                          
0493294        0000000000029234784900014667567762954780000000003361180007042021PAGO NOMINA                   11CRA1504189V9 00000000000000dgarcia@gruposeri.com                  07042021JONATHAN ORTEGA FLORES                                                
0493258        0000000000029234784900014580567478940893000000003246170007042021PAGO NOMINA                   11CRA1504189V9 00000000000000dgarcia@gruposeri.com                  07042021MARIA DE LOURDES PEREZ MARINO                                         
0493248        0000000000029234784900014650200120836015000000004071340007042021PAGO NOMINA                   11CRA1504189V9 00000000000000dgarcia@gruposeri.com                  07042021DENY PATRICIA MASTRANZO ROMERO                                        
0493374        0000000000029234784900014876605923805897000000002289090007042021PAGO NOMINA                   11CRA1504189V9 00000000000000dgarcia@gruposeri.com                  07042021IRIDIANA SANCHEZ SANCHEZ                                              
0493377        0000000000029234784900014650605963569490000000003361180007042021PAGO NOMINA                   11CRA1504189V9 00000000000000dgarcia@gruposeri.com                  07042021CLAUDIA VAZQUEZ DE LA ROSA                                            
0493307        0000000000029234784900014404606102353900000000002101780007042021PAGO NOMINA                   11CRA1504189V9 00000000000000dgarcia@gruposeri.com                  07042021JOSE ANTONIO VIQUE ESCALANTE                                          
0493352        0000000000029234784900014854605942366180000000012179190007042021PAGO NOMINA                   11CRA1504189V9 00000000000000dgarcia@gruposeri.com                  07042021JAIR FAJARDO FLORES                                                   
04901433       0000000000029234784900014840567861469841000000002729070007042021PAGO NOMINA                   11CRA1504189V9 00000000000000dgarcia@gruposeri.com                  07042021FRANCISCO JAVIER GARCIA MEJIA                                         
04901323       0000000000029234784900014580606149773739000000002946170007042021PAGO NOMINA                   11CRA1504189V9 00000000000000dgarcia@gruposeri.com                  07042021ANA KARINA DIAS LORENZO                                               
0493401        0000000000029234784900014670605523271690000000002999630007042021PAGO NOMINA                   11CRA1504189V9 00000000000000dgarcia@gruposeri.com                  07042021IVONNE AREVALO HUESCA                                                 
04903543       0000000000029234784900014877567654371216000000002729070007042021PAGO NOMINA                   11CRA1504189V9 00000000000000dgarcia@gruposeri.com                  07042021SUNNI DE JESUS TORRES JACINTO                                         
04904194       0000000000029234784900014580606104191958000000001864640007042021PAGO NOMINA                   11CRA1504189V9 00000000000000dgarcia@gruposeri.com                  07042021MIGUEL ROBERTO GARCIA GONZALEZ                                        
04904106       0000000000029234784900021813064739230476000000003143550007042021PAGO NOMINA                   11CRA1504189V9 00000000000000dgarcia@gruposeri.com                  07042021BLANCA LILIANA SALAZAR LOPEZ                                          
04903236       0000000000029234784900021881065154567917000000003143550007042021PAGO NOMINA                   11CRA1504189V9 00000000000000dgarcia@gruposeri.com                  07042021MARIA DEL CARMEN GONZALEZ GERONIMO                                    
04904376       0000000000029234784900021671064070646783000000003143550007042021PAGO NOMINA                   11CRA1504189V9 00000000000000dgarcia@gruposeri.com                  07042021JUANA MORALES ANDRADE                                                 
04904388       0000000000029234784900021650065164260338000000003361180007042021PAGO NOMINA                   11CRA1504189V9 00000000000000dgarcia@gruposeri.com                  07042021JORGE OCTAVIO LARA ARCEGA                                             
0493361        0000000000029234784900021650065133050249000000005334810007042021PAGO NOMINA                   11CRA1504189V9 00000000000000dgarcia@gruposeri.com                  07042021ANA YANETH FLORES IGNACIO                                             
0493371        0000000000029234784900021832064958859680000000003143550007042021PAGO NOMINA                   11CRA1504189V9 00000000000000dgarcia@gruposeri.com                  07042021ELVIA PEREZ ROMERO                                                    
0493392        0000000000029234784900021905064935161286000000003143550007042021PAGO NOMINA                   11CRA1504189V9 00000000000000dgarcia@gruposeri.com                  07042021AMALIA SUSETT HERNANDEZ SARAIBA                                       
0493274        0000000000029234784900021650065117121220000000003869360007042021PAGO NOMINA                   11CRA1504189V9 00000000000000dgarcia@gruposeri.com                  07042021JOSE ANTONIO JIMENEZ ROSAS                                            
0493227        0000000000029234784900021180062433412393000000003093550007042021PAGO NOMINA                   11CRA1504189V9 00000000000000dgarcia@gruposeri.com                  07042021HECTOR GUILLERMO CID CARRERA                                          
0493026        0000000000029234784900021830064610742419000000002976220007042021PAGO NOMINA                   11CRA1504189V9 00000000000000dgarcia@gruposeri.com                  07042021LORENZO ANTONIO GOIS BRIONES                                          
0493050        0000000000029234784900021650064970474018000000003361180007042021PAGO NOMINA                   11CRA1504189V9 00000000000000dgarcia@gruposeri.com                  07042021LILIANA STEPHANIA HERNANDEZ JORGE                                     
0492780        0000000000029234784900021888064969031179000000002946170007042021PAGO NOMINA                   11CRA1504189V9 00000000000000dgarcia@gruposeri.com                  07042021JESSICA IVONNE MORALES AGUILERA                                       
0492437        0000000000029234784900021854064555367757000000002946170007042021PAGO NOMINA                   11CRA1504189V9 00000000000000dgarcia@gruposeri.com                  07042021LEONARDO MICHEL ANTONIO HERNANDEZ                                     
0491822        0000000000029234784900021888064510616464000000003097470007042021PAGO NOMINA                   11CRA1504189V9 00000000000000dgarcia@gruposeri.com                  07042021MARTHA PATRICIA DIEGO LARA                                            
0491989        0000000000029234784900021855065132986669000000002724740007042021PAGO NOMINA                   11CRA1504189V9 00000000000000dgarcia@gruposeri.com                  07042021ERICKA BECERRIL PEREZ                                                 
0491511        0000000000029234784900021881064943605599000000002946170007042021PAGO NOMINA                   11CRA1504189V9 00000000000000dgarcia@gruposeri.com                  07042021BLANCA FLOR DEL ANGEL CRUZ                                            
0491681        0000000000029234784900021660064558032257000000002946170007042021PAGO NOMINA                   11CRA1504189V9 00000000000000dgarcia@gruposeri.com                  07042021EDUARDO ARTURO ARDAVIN DEL ANGEL                                      
0491199        0000000000029234784900021854064295834650000000003143400007042021PAGO NOMINA                   11CRA1504189V9 00000000000000dgarcia@gruposeri.com                  07042021ERASMO VASQUEZ DIAZ                                                   
0491257        0000000000029234784900021881064943621269000000002622850007042021PAGO NOMINA                   11CRA1504189V9 00000000000000dgarcia@gruposeri.com                  07042021ANA MARTHA SANTOS GOMEZ                                               
0490830        0000000000029234784900021660064283888255000000010690200007042021PAGO NOMINA                   11CRA1504189V9 00000000000000dgarcia@gruposeri.com                  07042021ROGELIO PLUMA MENESES                                                 
0491022        0000000000029234784900021650064034481727000000006422060007042021PAGO NOMINA                   11CRA1504189V9 00000000000000dgarcia@gruposeri.com                  07042021SONIA BARRALES RIOS                                                   
0490144        0000000000029234784900021670064063108255000000004527610007042021PAGO NOMINA                   11CRA1504189V9 00000000000000dgarcia@gruposeri.com                  07042021MARCELA ISIDRO ROBLES                                                 
0490254        0000000000029234784900021877064444695672000000008474140007042021PAGO NOMINA                   11CRA1504189V9 00000000000000dgarcia@gruposeri.com                  07042021YESSIKA GUADALUPE PEREZ VIVES                                         
0490304        0000000000029234784900021832063374049774000000003012590007042021PAGO NOMINA                   11CRA1504189V9 00000000000000dgarcia@gruposeri.com                  07042021ROSA MARIA HERNANDEZ HERNANDEZ                                        
0490318        0000000000029234784900021650063745885341000000004532450007042021PAGO NOMINA                   11CRA1504189V9 00000000000000dgarcia@gruposeri.com                  07042021ELIZABETH SOTO TEPOX                                                  
0490335        0000000000029234784900021650063917924166000000001079020007042021PAGO NOMINA                   11CRA1504189V9 00000000000000dgarcia@gruposeri.com                  07042021DANIEL ORTEGA DE LA CRUZ                                              
0490406        0000000000029234784900021669064447657414000000005334130007042021PAGO NOMINA                   11CRA1504189V9 00000000000000dgarcia@gruposeri.com                  07042021ANTONIA BEATRIZ CARRERA CASTRO                                        
0490295        0000000000029234784900021650063373983107000000002321190007042021PAGO NOMINA                   11CRA1504189V9 00000000000000dgarcia@gruposeri.com                  07042021MARIBEL BAUTISTA PINEDA                                               
0492960        0000000000029234784900036888500528416930000000002946170007042021PAGO NOMINA                   11CRA1504189V9 00000000000000dgarcia@gruposeri.com                  07042021JANETH ESVEYDI ALEJO QUIAB                                            
04901466       0000000000029234784900036670500571808787000000003908580007042021PAGO NOMINA                   11CRA1504189V9 00000000000000dgarcia@gruposeri.com                  07042021LIZBETH CRUZ MARTINEZ                                                 
04901079       0000000000029234784900044650256013072036000000003361180007042021PAGO NOMINA                   11CRA1504189V9 00000000000000dgarcia@gruposeri.com                  07042021LUCERO LOPEZ LIRA                                                     
0493325        0000000000029234784900044670043067041662000000003143550007042021PAGO NOMINA                   11CRA1504189V9 00000000000000dgarcia@gruposeri.com                  07042021JUAN CARLOS TELLEZ DIEGO                                              
0492988        0000000000029234784900044650256007764871000000003311180007042021PAGO NOMINA                   11CRA1504189V9 00000000000000dgarcia@gruposeri.com                  07042021CARMEN BEATRIZ PEREZ ZUNIGA                                           
04902590       0000000000029234784900044813040058911914000000002946170007042021PAGO NOMINA                   11CRA1504189V9 00000000000000dgarcia@gruposeri.com                  07042021TANIA MARLEN CHIU DIAZ                                                
04903926       0000000000029234784900044580145031776537000000003143550007042021PAGO NOMINA                   11CRA1504189V9 00000000000000dgarcia@gruposeri.com                  07042021MA. GUADALUPE MARCELENO MELENDEZ                                      
0492091        0000000000029234784900044650036055476959000000003361090007042021PAGO NOMINA                   11CRA1504189V9 00000000000000dgarcia@gruposeri.com                  07042021RONALDO CRUZ AGUIRRE                                                  
0492825        0000000000029234784900044890063011301969000000004564140007042021PAGO NOMINA                   11CRA1504189V9 00000000000000dgarcia@gruposeri.com                  07042021HECTOR MANUEL CARDENAS MAIN                                           
0492852        0000000000029234784900127834013704832461000000003143390007042021PAGO NOMINA                   11CRA1504189V9 00000000000000dgarcia@gruposeri.com                  07042021JORGE SANCHEZ JUAREZ                                                  
0492949        0000000000029234784900127650013810898489000000002729070007042021PAGO NOMINA                   11CRA1504189V9 00000000000000dgarcia@gruposeri.com                  07042021ALMA GUADALUPE ALVARADO RODRIGUEZ                                     
0492959        0000000000029234784900127180016293025692000000002847670007042021PAGO NOMINA                   11CRA1504189V9 00000000000000dgarcia@gruposeri.com                  07042021JEZRAEL TEHOZOL CRUZ                                                  
0492897        0000000000029234784900127905001160264624000000019325590007042021PAGO NOMINA                   11CRA1504189V9 00000000000000dgarcia@gruposeri.com                  07042021MARIA ANGELICA PEREZ PASCAL                                           
0492874        0000000000029234784900127670001427600201000000001395760007042021PAGO NOMINA                   11CRA1504189V9 00000000000000dgarcia@gruposeri.com                  07042021ANGEL RODRIGO HERNANDEZ GARCIA                                        
0492589        0000000000029234784900127667013492635891000000002019990007042021PAGO NOMINA                   11CRA1504189V9 00000000000000dgarcia@gruposeri.com                  07042021CRISTIAN SERRANO PEREZ                                                
0492554        0000000000029234784900127660013467761289000000005334690007042021PAGO NOMINA                   11CRA1504189V9 00000000000000dgarcia@gruposeri.com                  07042021GUSTAVO SAUCE SANCHEZ                                                 
0492512        0000000000029234784900127854001522463156000000002946170007042021PAGO NOMINA                   11CRA1504189V9 00000000000000dgarcia@gruposeri.com                  07042021FRANCISCO JAVIER PEREYRA MARTINEZ                                     
0492476        0000000000029234784900127869001168418592000000002946170007042021PAGO NOMINA                   11CRA1504189V9 00000000000000dgarcia@gruposeri.com                  07042021MARCO ANTONIO GOMEZ LOPEZ                                             
0492490        0000000000029234784900127854013420893641000000001765990007042021PAGO NOMINA                   11CRA1504189V9 00000000000000dgarcia@gruposeri.com                  07042021GUADALUPE DEL ROSARIO DOMINGUEZ MORALES                               
0492540        0000000000029234784900127180016558086198000000002289110007042021PAGO NOMINA                   11CRA1504189V9 00000000000000dgarcia@gruposeri.com                  07042021NATALY SANLUIS HERNANDEZ                                              
0492541        0000000000029234784900127854001201062276000000002355550007042021PAGO NOMINA                   11CRA1504189V9 00000000000000dgarcia@gruposeri.com                  07042021JOSE PAULINO VALENCIA MUNOZ                                           
