0427285        0000000000103367681500004152313606833254000000002250400029042021PAGO NOMINA                   11AOI1710198E0 00000000000000asesoresimpasrh@gmail.com              29042021                                                                      
0427286        0000000000103367681500004152313535136829000000003328530029042021PAGO NOMINA                   11AOI1710198E0 00000000000000asesoresimpasrh@gmail.com              29042021                                                                      
0427287        0000000000103367681500004152313606833270000000000804580029042021PAGO NOMINA                   11AOI1710198E0 00000000000000asesoresimpasrh@gmail.com              29042021                                                                      
0427288        0000000000103367681500004152313606833189000000000751650029042021PAGO NOMINA                   11AOI1710198E0 00000000000000asesoresimpasrh@gmail.com              29042021                                                                      
0427289        0000000000103367681500004152313606833122000000001181890029042021PAGO NOMINA                   11AOI1710198E0 00000000000000asesoresimpasrh@gmail.com              29042021                                                                      
0427292        0000000000103367681500004152313606833239000000002250400029042021PAGO NOMINA                   11AOI1710198E0 00000000000000asesoresimpasrh@gmail.com              29042021                                                                      
0427295        0000000000103367681500004152313606833213000000001949770029042021PAGO NOMINA                   11AOI1710198E0 00000000000000asesoresimpasrh@gmail.com              29042021                                                                      
0427297        0000000000103367681500004152313606833304000000001181890029042021PAGO NOMINA                   11AOI1710198E0 00000000000000asesoresimpasrh@gmail.com              29042021                                                                      
0427298        0000000000103367681500004152313606833288000000001638410029042021PAGO NOMINA                   11AOI1710198E0 00000000000000asesoresimpasrh@gmail.com              29042021                                                                      
0427381        0000000000103367681500012891015928632894000000001638410029042021PAGO NOMINA                   11AOI1710198E0 00000000000000asesoresimpasrh@gmail.com              29042021                                                                      
0427386        0000000000103367681500012891015928443494000000002250050029042021PAGO NOMINA                   11AOI1710198E0 00000000000000asesoresimpasrh@gmail.com              29042021                                                                      
0427624        0000000000103367681500012891015421063685000000001464860029042021PAGO NOMINA                   11AOI1710198E0 00000000000000asesoresimpasrh@gmail.com              29042021                                                                      
0427625        0000000000103367681500012891015157298384000000001632010029042021PAGO NOMINA                   11AOI1710198E0 00000000000000asesoresimpasrh@gmail.com              29042021                                                                      
0427626        0000000000103367681500012891015427129947000000001632010029042021PAGO NOMINA                   11AOI1710198E0 00000000000000asesoresimpasrh@gmail.com              29042021                                                                      
0427627        0000000000103367681500012891015441224501000000003000230029042021PAGO NOMINA                   11AOI1710198E0 00000000000000asesoresimpasrh@gmail.com              29042021                                                                      
0427628        0000000000103367681500004152313614020688000000001632010029042021PAGO NOMINA                   11AOI1710198E0 00000000000000asesoresimpasrh@gmail.com              29042021                                                                      
0427629        0000000000103367681500004152313775772465000000003500230029042021PAGO NOMINA                   11AOI1710198E0 00000000000000asesoresimpasrh@gmail.com              29042021                                                                      
