65505074061     002100903498910927  BANAMJULIO MIGUEL HERNANDEZ OLVA             100100000000017386101001NOMINA                                                                                                                            0000001
65505074061     002109027354460210  BANAMMAURICIO AGUILAR AGUILAR                100100000000045274501001NOMINA                                                                                                                            0000002
65505074061     002138029660287101  BANAMVERONICA MARINA VELASCO                 100100000000030055201001NOMINA                                                                                                                            0000003
65505074061     002138029660397392  BANAMDERI RAMOS MACAL                        100100000000023308901001NOMINA                                                                                                                            0000004
65505074061     002138901105305860  BANAMANGEL ABEL VENTURA ENRIQUEZ             100100000000040425101001NOMINA                                                                                                                            0000005
65505074061     002100902018871421  BANAMBELZAIN JIMENEZ POPOMEYA                100100000000042875901001NOMINA                                                                                                                            0000006
65505074061     002138902080501678  BANAMJUAN MANUEL RUIZ ORTIZ                  100100000000047723601001NOMINA                                                                                                                            0000007
65505074061     002100902394833552  BANAMDAVID GARCIA HERNANDEZ                  100100000000053287101001NOMINA                                                                                                                            0000008
65505074061     002138902595472441  BANAMNOE GOMEZ CRUZ                          100100000000053339501001NOMINA                                                                                                                            0000009
65505074061     002111902550931096  BANAMYESENIA DEL CARMEN TOLEDO RUIZ          100100000000041393201001NOMINA                                                                                                                            0000010
65505074061     002180700455473277  BANAMMA DE LOS ANGELES MONTIEL ANTE          100100000000042362601001NOMINA                                                                                                                            0000011
65505074061     002100903806220322  BANAMYURIDIA PEREZ SOLIS                     100100000000027289301001NOMINA                                                                                                                            0000012
65505074061     002138903725894173  BANAMARIOSTO VAZQUEZ CRUZ                    100100000000048569501001NOMINA                                                                                                                            0000013
65505074061     002100902784292444  BANAMCARLOS SANCHEZ GARCIA                   100100000000027289301001NOMINA                                                                                                                            0000014
65505074061     002111901207854184  BANAMJOSE HERNANDEZ DIAZ                     100100000000029459401001NOMINA                                                                                                                            0000015
65505074061     002138904164774413  BANAMTANIA ISELA MUNOA ALFONSO               100100000000022890201001NOMINA                                                                                                                            0000016
65505074061     002124904281943212  BANAMADRIANA DE PAZ GALDAMEZ                 100100000000029462401001NOMINA                                                                                                                            0000017
65505074061     002138902595466554  BANAMALONSO LOPEZ VAZQUEZ                    100100000000041319101001NOMINA                                                                                                                            0000018
65505074061     002905904000079094  BANAMLAURA NIGENDA RAMOS                     100100000000027290701001NOMINA                                                                                                                            0000019
65505074061     002126904300657335  BANAMGUSTAVO GUADALUPE GONZALEZ ALVAREZ      100100000000021816401001NOMINA                                                                                                                            0000020
65505074061     002100904320762792  BANAMHECTOR ANTONIO SOLIS PEREZ              100100000000027290701001NOMINA                                                                                                                            0000021
65505074061     002100904106947427  BANAMMARIA JOSE GARCIA PALACIOS              100100000000036713401001NOMINA                                                                                                                            0000022
65505074061     002138904288527795  BANAMORLANDO PEREZ CONSTANTINO               100100000000027290701001NOMINA                                                                                                                            0000023
65505074061     002100701658631170  BANAMSARA VARGAS SANCHEZ                     100100000000019919401001NOMINA                                                                                                                            0000024
65505074061     002580903899245031  BANAMBERSAIN ARCE ESTUDILLO                  100100000000027290701001NOMINA                                                                                                                            0000025
65505074061     002100904284585235  BANAMALEX ERIK HERNANDEZ ZOMA                100100000000027290701001NOMINA                                                                                                                            0000026
65505074061     002100904346036088  BANAMJONATHAN GONZALEZ TOLEDO                100100000000027290701001NOMINA                                                                                                                            0000027
65505074061     002100904390546964  BANAMLORENZO AGUILAR AQUINO                  100100000000021457401001NOMINA                                                                                                                            0000028
65505074061     002100904027980327  BANAMLILIANA DEL CARMEN ROBLEDO PEREZ        100100000000106910101001NOMINA                                                                                                                            0000029
65505074061     002124904367927851  BANAMNERY GUADALUPE DIAZ MICELI              100100000000027290701001NOMINA                                                                                                                            0000030
65505074061     002135904548276187  BANAMADAMIT GUILLEN ZAVALA                   100100000000036039501001NOMINA                                                                                                                            0000031
65505074061     002100904318196697  BANAMMAURICIO ROSELINO ESTRADA SARMIENTOS    100100000000027290701001NOMINA                                                                                                                            0000032
65505074061     002010904382033889  BANAMTHAIRA ALEJANDRA HERNANDEZ MENDOZA      100100000000027290701001NOMINA                                                                                                                            0000033
65505074061     002100903772408621  BANAMJORGE AUGUSTO VAZQUEZ FIGUEROA          100100000000027290701001NOMINA                                                                                                                            0000034
65505074061     002100904425277755  BANAMLUIS ANTONIO CRUZ NAJERA                100100000000027290701001NOMINA                                                                                                                            0000035
65505074061     021100064903581444  BITALHECTOR GUADALUPE VALENCIA MARTINEZ      100100000000014121201001NOMINA                                                                                                                            0000036
65505074061     021100064645031058  BITALLUCERO SUZAN ALVAREZ MIJANGOS           100100000000047830501001NOMINA                                                                                                                            0000037
65505074061     021100065006504084  BITALYESENIA BERENICE ORTIZ GUTIERREZ        100100000000027290701001NOMINA                                                                                                                            0000038
65505074061     021876064239327839  BITALLUIS MIGUEL MILLAN CABANAS              100100000000029314001001NOMINA                                                                                                                            0000039
65505074061     036100500509755385  BINBUDIDIER DE JESUS VAZQUEZ REYES           100100000000027290701001NOMINA                                                                                                                            0000040
65505074061     044100085065656891  COMERJOSE EDUARDO CHAMPO SUCHIAPA            100100000000039860701001NOMINA                                                                                                                            0000041
65505074061     044100085065694989  COMERCARLOS ALBERTO NIETO PYM                100100000000040076901001NOMINA                                                                                                                            0000042
65505074061     044100085066956985  COMERLISBETH EDOLITH ALBORES MEGCHUN         100100000000054760501001NOMINA                                                                                                                            0000043
65505074061     044100085065856552  COMERDORY GUADALUPE MENDEZ ALVARADO          100100000000086133201001NOMINA                                                                                                                            0000044
65505074061     044100085079893776  COMERLUIS EMMANUEL MALDONADO ALCAZAR         100100000000041066001001NOMINA                                                                                                                            0000045
65505074061     127128001333483611  BAZTEJUAN DE DIOS ESTEBAN VILLEGAS           100100000000027290701001NOMINA                                                                                                                            0000046
65505074061     127117013145151635  BAZTEMARTIN ORTEGA PEREZ                     100100000000027290701001NOMINA                                                                                                                            0000047
65505074061     127138013167667607  BAZTEARIOSTO SANCHEZ CAMACHO                 100100000000027290701001NOMINA                                                                                                                            0000048
65505074061     127794001424781892  BAZTEYARELI LAZARO RODRIGUEZ                 100100000000027290701001NOMINA                                                                                                                            0000049
65505074061     127111013746386423  BAZTEALEXIS MICHEL SANCHEZ ROBLES            100100000000027290701001NOMINA                                                                                                                            0000050
65505074061     127124013083488330  BAZTEISAIAS ORANTES MENDEZ                   100100000000027290701001NOMINA                                                                                                                            0000051
65505074061     127124013086939637  BAZTEMARIA ANGELA SANCHEZ RUIZ               100100000000027290701001NOMINA                                                                                                                            0000052
65505074061     127117013254387808  BAZTEFERNANDO ULISES VAZQUEZ LOPEZ           100100000000027290701001NOMINA                                                                                                                            0000053
65505074061     127131013266258150  BAZTEGUILBER CARMELO ZARATE ALVAREZ          100100000000027290701001NOMINA                                                                                                                            0000054
65505074061     127100001360580000  BAZTEULISES ANTONIO MORALES LIEVANO          100100000000025773101001NOMINA                                                                                                                            0000055
65505074061     127126013256041078  BAZTEJOSE FRANCISCO SANCHEZ GOMEZ            100100000000027290701001NOMINA                                                                                                                            0000056
65505074061     127100001433202956  BAZTEMARIA MAGDALENA HERNANDEZ PEREZ         100100000000027290701001NOMINA                                                                                                                            0000057
65505074061     127100013423879921  BAZTEJAVIER PEREZ PEREZ                      100100000000027290701001NOMINA                                                                                                                            0000058
65505074061     127111001430570913  BAZTEANGEL ANTONIO PEREZ MORALES             100100000000027290701001NOMINA                                                                                                                            0000059
65505074061     127138013605929823  BAZTEESTEBAN CALVO CORDOVA                   100100000000027290701001NOMINA                                                                                                                            0000060
65505074061     127100001298803008  BAZTEJESUS GUADALUPE PEREZ VAZQUEZ           100100000000017878101001NOMINA                                                                                                                            0000061
65505074061     127100013201742995  BAZTEKEVIN ALBERTO ESTRADA ENRIQUE           100100000000027290701001NOMINA                                                                                                                            0000062
65505074061     127124013150499540  BAZTEIOANA ELIZABETH MARROQUIN PIMENTEL      100100000000027290701001NOMINA                                                                                                                            0000063
65505074061     127180016787254241  BAZTECRISTIAN LAURIANA PENAGOS PEREZ         100100000000022890901001NOMINA                                                                                                                            0000064
65505074061     127104013769473252  BAZTESAUL ALEXIS DE LA CRUZ HERNANDEZ        100100000000027290701001NOMINA                                                                                                                            0000065
65505074061     127138001306164999  BAZTEOSCAR JESUS MACIAS DELGADO              100100000000027290701001NOMINA                                                                                                                            0000066
65505074061     127107013605653913  BAZTESERGIO ANTONIO GIL HERRERA              100100000000027290701001NOMINA                                                                                                                            0000067
65505074061     127100001350983400  BAZTEYESSICA GUADALUPE JIMENEZ GUMETA        100100000000027290701001NOMINA                                                                                                                            0000068
65505074061     127126013749481420  BAZTEJAVIER RODRIGUEZ SALAS                  100100000000027290701001NOMINA                                                                                                                            0000069
65505074061     127135001299545990  BAZTEADRIANA SOLIS PENA                      100100000000022890901001NOMINA                                                                                                                            0000070
65505074061     127111013607955430  BAZTEGUSTAVO ALBERTO HERNANDEZ PEREZ         100100000000023534501001NOMINA                                                                                                                            0000071
65505074061     127111001228715757  BAZTELUIS FRANCISCO SANDOVAL ROBLERO         100100000000022890901001NOMINA                                                                                                                            0000072
65505074061     127100001361190664  BAZTESANDRA ADILENE CRUZ PEREZ               100100000000033611801001NOMINA                                                                                                                            0000073
65505074061     127128013690679884  BAZTEJEREMIAS DOMINGUEZ PEREZ                100100000000027290701001NOMINA                                                                                                                            0000074
65505074061     127110013484942890  BAZTEDEYSI GUADALUPE PEREZ VAZQUEZ           100100000000022673901001NOMINA                                                                                                                            0000075
65505074061     127128001255236797  BAZTEEDUARDO DAVID VILLEGAS SALVADOR         100100000000027290701001NOMINA                                                                                                                            0000076
65505074061     127117013578240168  BAZTEBLANCA ADREA VELASCO ESCOBAR            100100000000025140901001NOMINA                                                                                                                            0000077
65505074061     127111001013095585  BAZTECRISTIAN DE JESUS HERNANDEZ SANCHEZ     100100000000027290701001NOMINA                                                                                                                            0000078
65505074061     127117013459048971  BAZTEJULIO ENRIQUE CASTILLEJOS MONTOYA       100100000000027290701001NOMINA                                                                                                                            0000079
65505074061     127138013511398632  BAZTEJORGE ALBERTO RAMOS ARELLANO            100100000000026790701001NOMINA                                                                                                                            0000080
65505074061     127100001081178296  BAZTEJULIO CESAR FLORES LOPEZ                100100000000019147101001NOMINA                                                                                                                            0000081
65505074061     127100013917454166  BAZTENALLELY ELIZABETH GARCIA HERNANDEZ      100100000000022890901001NOMINA                                                                                                                            0000082
65505074061     127124013454482745  BAZTEMARIA DEL ROSARIO HERNANDEZ CASTELLANOS 100100000000040136501001NOMINA                                                                                                                            0000083
65505074061     127104013501100521  BAZTEJARENY BERENICE SANCHEZ GUADARRAMA      100100000000027290701001NOMINA                                                                                                                            0000084
65505074061     127111013282337800  BAZTECLEMENTA TORRES GONZALEZ                100100000000021893301001NOMINA                                                                                                                            0000085
65505074061     127104013589387421  BAZTEDAVID RUVISEL MOLINA FONSECA            100100000000051225201001NOMINA                                                                                                                            0000086
65505074061     127104013491213764  BAZTEMARCO ANTONIO DIAZ HERNANDEZ            100100000000021269901001NOMINA                                                                                                                            0000087
65505074061     127104013451293863  BAZTEBLANCA ESTELA HERNANDEZ DIAZ            100100000000029460301001NOMINA                                                                                                                            0000088
65505074061     127138013483636613  BAZTEGABRIEL POZO DE LA CRUZ                 100100000000027289301001NOMINA                                                                                                                            0000089
65505074061     127110013038757428  BAZTEMARIA DE JESUS MORALES ESTRADA          100100000000021715801001NOMINA                                                                                                                            0000090
65505074061     127138013533206540  BAZTELIZBETH VENTURA ESTRADA                 100100000000027288601001NOMINA                                                                                                                            0000091
65505074061     127111013047679444  BAZTEANGEL ALBERTO CHACON CABALLERO          100100000000052003201001NOMINA                                                                                                                            0000092
65505074061     127100013263766320  BAZTELAURA CRISTINA GARCIA ZUNUN             100100000000041499001001NOMINA                                                                                                                            0000093
65505074061     127110001239294378  BAZTECLAUDIA YESSENIA LOPEZ JIMENEZ          100100000000017019001001NOMINA                                                                                                                            0000094
65505074061     127126013167769986  BAZTEFANNY BELLENY GARCIA SANGEADO           100100000000027290701001NOMINA                                                                                                                            0000095
65505074061     127180016548020737  BAZTECARLOS MARTIN LOPEZ ENRIQUEZ            100100000000012842501001NOMINA                                                                                                                            0000096
65505074061     127111013327209408  BAZTELUIS ANTONIO MENDEZ GOMEZ               100100000000021256401001NOMINA                                                                                                                            0000097
65505074061     127100013094452816  BAZTEABRAHAM HERNANDEZ UTRILLA               100100000000027289901001NOMINA                                                                                                                            0000098
65505074061     127138013132549501  BAZTELUIS FERNANDO RUIZ MARINA               100100000000027289901001NOMINA                                                                                                                            0000099
65505074061     127111013779327802  BAZTEANA MARIA MOLINA UTRILLA                100100000000027289901001NOMINA                                                                                                                            0000100
65505074061     127138013809554939  BAZTEYASMIN SALDANA PEREZ                    100100000000027289901001NOMINA                                                                                                                            0000101
65505074061     127104001116729862  BAZTEISAIAS NUNEZ HERNANDEZ                  100100000000021092701001NOMINA                                                                                                                            0000102
65505074061     127279001976450853  BAZTEJOSE MANUEL PENALOZA ALTAMIRANO         100100000000006120001001NOMINA                                                                                                                            0000103
65505074061     127131013022421817  BAZTEMAYREL LIZETH JUAREZ RODAS              100100000000027289901001NOMINA                                                                                                                            0000104
65505074061     127110013060107745  BAZTEKARINA LIZETH DE LOS SANTOS REYES       100100000000022890201001NOMINA                                                                                                                            0000105
65505074061     127104001301228165  BAZTETEOFILO ALEJANDRO MARTINEZ GOMEZ        100100000000020031401001NOMINA                                                                                                                            0000106
65505074061     127110013171064638  BAZTEJOSE LEYVER SANCHEZ LOPEZ               100100000000027290701001NOMINA                                                                                                                            0000107
65505074061     127126013671720738  BAZTEISIS PAMELA VILLALOBOS GENAREZ          100100000000022890901001NOMINA                                                                                                                            0000108
65505074061     127128013219744080  BAZTEJACQUELINE HERNANDEZ PATRACA            100100000000033611801001NOMINA                                                                                                                            0000109
65505074061     127100001339499601  BAZTEANEL SAHIAN RIZO GALINDO                100100000000036713401001NOMINA                                                                                                                            0000110
65505074061     127111001219287278  BAZTECRISTINA ELIZABETH MARTINEZ CRUZ        100100000000022890201001NOMINA                                                                                                                            0000111
65505074061     127100001189496317  BAZTEAARON RAMIREZ CABRERA                   100100000000025773101001NOMINA                                                                                                                            0000112
65505074061     137100102017247705  COPELJUDITH AZUCENA SERRANO MACIAS           100100000000027290701001NOMINA                                                                                                                            0000113
65505074061     137100130033635677  COPELDOMINGO DIAZ LOPEZ                      100100000000027290701001NOMINA                                                                                                                            0000114
65505074061     137107103676456405  COPELGUILLERMO CRUZ RAMIREZ                  100100000000023601101001NOMINA                                                                                                                            0000115
65505074061     137107103387189139  COPELNAYELI GUADALUPE CRUZ ZARATE            100100000000022890901001NOMINA                                                                                                                            0000116
65505074061     137780100131079268  COPELROCIO EUNICE CHAVEZ LOPEZ               100100000000029982301001NOMINA                                                                                                                            0000117
65505074061     137100130042432984  COPELALEXIS SAYANA SANCHEZ ALVAREZ           100100000000027290701001NOMINA                                                                                                                            0000118
65505074061     137128102207044460  COPELFABIAN EMETERIO RICARDEZ                100100000000021255301001NOMINA                                                                                                                            0000119
65505074061     137100103532509529  COPELROCIO ARLETH PEREZ NUNEZ                100100000000021456601001NOMINA                                                                                                                            0000120
65505074061     137100103599874695  COPELREYNA ISABEL HERNANDEZ VAZQUEZ          100100000000027289901001NOMINA                                                                                                                            0000121
65505074061     137798103352166826  COPELJUAN LUIS DOMINGUEZ LOPEZ               100100000000027290701001NOMINA                                                                                                                            0000122
65505074061     137107102568750184  COPELJUAN JOSE ALFARO MARTINEZ               100100000000027290701001NOMINA                                                                                                                            0000123
65505074061     137100101744170971  COPELYEREMIT CASANDRA RODRIGUEZ ARELLANO     100100000000030020401001NOMINA                                                                                                                            0000124
65505074061     137111101285282757  COPELZAIRA YANET ORTIZ VAZQUEZ               100100000000027290701001NOMINA                                                                                                                            0000125
65505074061     137111102925804232  COPELADI YANETH HERNANDEZ PEREZ              100100000000027289301001NOMINA                                                                                                                            0000126
65505074061     137100100967451041  COPELSONIA RAMOS VILLALOBOS                  100100000000021894701001NOMINA                                                                                                                            0000127
65505074061     137100100964709547  COPELCARLOS ALBERTO SEAS AGUILAR             100100000000017612901001NOMINA                                                                                                                            0000128
65505074061     137100103227963454  COPELMAYOLI DE PAZ TORRES                    100100000000019981101001NOMINA                                                                                                                            0000129
65505074061     137798102193020083  COPELVICTOR ARIAS LOPEZ                      100100000000009016601001NOMINA                                                                                                                            0000130
65505074061     137107101807922315  COPELPASCUALA LOPEZ CERVANTES                100100000000053345001001NOMINA                                                                                                                            0000131
65505074061     137107103393385451  COPELIVAN ERNESTO RUIZ ESPINOSA              100100000000040109501001NOMINA                                                                                                                            0000132
65505074061     137100102884469334  COPELCARLOS ANTONIO MACIAS NURICUMBO         100100000000076409601001NOMINA                                                                                                                            0000133
65505074061     137100100166099495  COPELELISA ARACELI GUZMAN MENDEZ             100100000000027290701001NOMINA                                                                                                                            0000134
65505074061     137100130030172272  COPELMIGUEL OCTAVIO HERNANDEZ PEREZ          100100000000027290701001NOMINA                                                                                                                            0000135
65505074061     137138102687961218  COPELGUADALUPE DE LA CRUZ SALAZAR            100100000000022890901001NOMINA                                                                                                                            0000136
65505074061     137128103098743704  COPELCARLOS DANIEL REYES REYES               100100000000027290701001NOMINA                                                                                                                            0000137
65505074061     137138102338225452  COPELLISANIA PETRIZ GORDILLO                 100100000000027290701001NOMINA                                                                                                                            0000138
65505074061     137100103816855229  COPELITZEL MONZERRAT DELGADO LAZARO          100100000000027290701001NOMINA                                                                                                                            0000139
65505074061     137138102466674849  COPELYESSICA YANETH LARA COLMENARES          100100000000027290701001NOMINA                                                                                                                            0000140
65505074061     137133101157111604  COPELROCIO DE LOS SANTOS SANTOS              100100000000022890901001NOMINA                                                                                                                            0000141
65505074061     137100104078995269  COPELCAROL SHUNASHI GUTIERREZ CURIACO        100100000000036713401001NOMINA                                                                                                                            0000142
65505074061     137320102860995518  COPELJUAN JOSE VELASCO RODRIGUEZ             100100000000027290701001NOMINA                                                                                                                            0000143
65505074061     137107102203613793  COPELSERGIO IRAM TRINIDAD SANTOS             100100000000027290701001NOMINA                                                                                                                            0000144
65505074061     137580102908964403  COPELCAROLINA GONZALEZ GARCIA                100100000000027290701001NOMINA                                                                                                                            0000145
65505074061     137107101898506339  COPELVICTOR HUGO VELAZQUEZ LOPEZ             100100000000027290701001NOMINA                                                                                                                            0000146
65505074061     137107101596220836  COPELJOSE RODOLFO CONTRERAS HERNANDEZ        100100000000027290701001NOMINA                                                                                                                            0000147
65505074061     137100103310208644  COPELVINISSA LOPEZ CRUZ                      100100000000027290701001NOMINA                                                                                                                            0000148
65505074061     137111104026148840  COPELMARLON ELIEZER SANCHEZ ROBLES           100100000000029461701001NOMINA                                                                                                                            0000149
65505074061     137100104071330193  COPELCESAR ALBERTO PETRIZ RAMIREZ            100100000000027290701001NOMINA                                                                                                                            0000150
65505074061     137100103596607881  COPELEUCARIO VAZQUEZ OCANA                   100100000000027290701001NOMINA                                                                                                                            0000151
65505074061     137100103318991571  COPELEVERARDO JUAREZ JIMENEZ                 100100000000027290701001NOMINA                                                                                                                            0000152
65505074061     137100103023137714  COPELOLIVER DAVID ENRIQUEZ VALENCIA          100100000000021264801001NOMINA                                                                                                                            0000153
