0490042        0000000000029234784900002650901410873031000000006984940020062021PAGO NOMINA                   11CRA1504189V9 00000000000000dgarcia@gruposeri.com                  20062021MARISELA VELAZCO MURILLO                                              
0490065        0000000000029234784900002290701463492595000000003509380020062021PAGO NOMINA                   11CRA1504189V9 00000000000000dgarcia@gruposeri.com                  20062021HIRAM URIEL ORTEGA HIDALGO                                            
0490068        0000000000029234784900002303901794269346000000004178600020062021PAGO NOMINA                   11CRA1504189V9 00000000000000dgarcia@gruposeri.com                  20062021ROCIO HERNANDEZ HILARIO                                               
0490194        0000000000029234784900002830901979050762000000005334130020062021PAGO NOMINA                   11CRA1504189V9 00000000000000dgarcia@gruposeri.com                  20062021JUAN CARLOS VALENCIA BRIONES                                          
0490419        0000000000029234784900002854904289692343000000003115240020062021PAGO NOMINA                   11CRA1504189V9 00000000000000dgarcia@gruposeri.com                  20062021AURELIA MARIA RUEDA VELAZQUEZ                                         
0490495        0000000000029234784900002180903901768479000000002810920020062021PAGO NOMINA                   11CRA1504189V9 00000000000000dgarcia@gruposeri.com                  20062021SARAH MARLENNE BALDUMINO CHACON                                       
0490572        0000000000029234784900002669903704251824000000002189400020062021PAGO NOMINA                   11CRA1504189V9 00000000000000dgarcia@gruposeri.com                  20062021TEODORA CASTILLO MORENO                                               
0490648        0000000000029234784900002813902459783151000000002780340020062021PAGO NOMINA                   11CRA1504189V9 00000000000000dgarcia@gruposeri.com                  20062021RICARDO MERIDA CASTILLO                                               
0490708        0000000000029234784900002670902830118517000000001620320020062021PAGO NOMINA                   11CRA1504189V9 00000000000000dgarcia@gruposeri.com                  20062021SARA JENNY MONTES FARFAN                                              
0490973        0000000000029234784900002903903725881191000000002580440020062021PAGO NOMINA                   11CRA1504189V9 00000000000000dgarcia@gruposeri.com                  20062021EMMANUEL DE LA CRUZ MARTINEZ                                          
0490988        0000000000029234784900002841902429702082000000002288970020062021PAGO NOMINA                   11CRA1504189V9 00000000000000dgarcia@gruposeri.com                  20062021ALIN SUGEY CERVANTES MARTINEZ                                         
0491020        0000000000029234784900002877904341766615000000004106370020062021PAGO NOMINA                   11CRA1504189V9 00000000000000dgarcia@gruposeri.com                  20062021NORA DEL CARMEN MATEO HERNANDEZ                                       
0491056        0000000000029234784900002650901347391686000000003361010020062021PAGO NOMINA                   11CRA1504189V9 00000000000000dgarcia@gruposeri.com                  20062021CECILIA JACOME ROJAS                                                  
0491135        0000000000029234784900002290901766330099000000003631730020062021PAGO NOMINA                   11CRA1504189V9 00000000000000dgarcia@gruposeri.com                  20062021MIGUEL ANGEL CALVA PANTALEON                                          
0491184        0000000000029234784900002674902795689653000000003361010020062021PAGO NOMINA                   11CRA1504189V9 00000000000000dgarcia@gruposeri.com                  20062021MARIANA PALETA JIMENEZ                                                
0491282        0000000000029234784900002885903650415543000000003447710020062021PAGO NOMINA                   11CRA1504189V9 00000000000000dgarcia@gruposeri.com                  20062021FABIOLA DE LEON SANTIAGO                                              
0491693        0000000000029234784900002841903805599342000000002163180020062021PAGO NOMINA                   11CRA1504189V9 00000000000000dgarcia@gruposeri.com                  20062021EDGAR EMILIO AZAMAR FONSECA                                           
0492035        0000000000029234784900002876901943871986000000002946100020062021PAGO NOMINA                   11CRA1504189V9 00000000000000dgarcia@gruposeri.com                  20062021LORENZO RIQUELME GONZALEZ                                             
0492192        0000000000029234784900002650904117480135000000002728990020062021PAGO NOMINA                   11CRA1504189V9 00000000000000dgarcia@gruposeri.com                  20062021ANA KAREN FRANCISCO CABRERA                                           
0492224        0000000000029234784900002881904129765167000000002946090020062021PAGO NOMINA                   11CRA1504189V9 00000000000000dgarcia@gruposeri.com                  20062021TERESA DE JESUS DE LA CRUZ DOMINGUEZ                                  
0492243        0000000000029234784900002669904113212657000000002289020020062021PAGO NOMINA                   11CRA1504189V9 00000000000000dgarcia@gruposeri.com                  20062021MARTHA ELENA JUAREZ ALMEIDA                                           
0492357        0000000000029234784900002877904173933810000000002728990020062021PAGO NOMINA                   11CRA1504189V9 00000000000000dgarcia@gruposeri.com                  20062021ROSA KAREN JIMENEZ VAZQUEZ                                            
0492413        0000000000029234784900002841903504885959000000003143470020062021PAGO NOMINA                   11CRA1504189V9 00000000000000dgarcia@gruposeri.com                  20062021EDER ANTONIO MOLINA                                                   
0492425        0000000000029234784900002881904395907092000000002946090020062021PAGO NOMINA                   11CRA1504189V9 00000000000000dgarcia@gruposeri.com                  20062021DIEGO GERMAN TRUJILLO GERONIMO                                        
0492523        0000000000029234784900002650901627155762000000003661610020062021PAGO NOMINA                   11CRA1504189V9 00000000000000dgarcia@gruposeri.com                  20062021SAUL FUENTES JUAREZ                                                   
0492524        0000000000029234784900002813902179044112000000002344270020062021PAGO NOMINA                   11CRA1504189V9 00000000000000dgarcia@gruposeri.com                  20062021MARIA LAURA JEREZ RODRIGUEZ                                           
0492498        0000000000029234784900002888904163763788000000002615860020062021PAGO NOMINA                   11CRA1504189V9 00000000000000dgarcia@gruposeri.com                  20062021ARMANDO ORTIZ MARTINEZ                                                
0492639        0000000000029234784900002841904188854745000000002702290020062021PAGO NOMINA                   11CRA1504189V9 00000000000000dgarcia@gruposeri.com                  20062021ENITH ARLINNE PONCE RAMIREZ                                           
0492696        0000000000029234784900002813904278276656000000002342730020062021PAGO NOMINA                   11CRA1504189V9 00000000000000dgarcia@gruposeri.com                  20062021DREHIDY JANET FLORES RUIZ                                             
0492703        0000000000029234784900002877903658764275000000002946170020062021PAGO NOMINA                   11CRA1504189V9 00000000000000dgarcia@gruposeri.com                  20062021REYNA DEL CARMEN MALDONADO LURIA                                      
0492725        0000000000029234784900002580903776460874000000002946240020062021PAGO NOMINA                   11CRA1504189V9 00000000000000dgarcia@gruposeri.com                  20062021MAURITANIA DESHIDU AGUIRRE SALAZAR                                    
0492782        0000000000029234784900002885903688070439000000002946170020062021PAGO NOMINA                   11CRA1504189V9 00000000000000dgarcia@gruposeri.com                  20062021CARLOS ALBERTO JUAREZ HERNANDEZ                                       
0492853        0000000000029234784900002296904312830177000000002946170020062021PAGO NOMINA                   11CRA1504189V9 00000000000000dgarcia@gruposeri.com                  20062021REYNALDO HERNANDEZ BADILLO                                            
0492856        0000000000029234784900002290701581820748000000005336290020062021PAGO NOMINA                   11CRA1504189V9 00000000000000dgarcia@gruposeri.com                  20062021ARMANDO GUTIERREZ MORALES                                             
0492985        0000000000029234784900002650904476356492000000003361180020062021PAGO NOMINA                   11CRA1504189V9 00000000000000dgarcia@gruposeri.com                  20062021ANGEL GUTIERREZ RAMIREZ                                               
0493118        0000000000029234784900002869701658851453000000002946170020062021PAGO NOMINA                   11CRA1504189V9 00000000000000dgarcia@gruposeri.com                  20062021PORFIRIO PITA BUSTAMANTE                                              
0493129        0000000000029234784900002813701329957519000000002319230020062021PAGO NOMINA                   11CRA1504189V9 00000000000000dgarcia@gruposeri.com                  20062021MANUEL ANTONIO ROBLEDO GUTIERREZ                                      
0493147        0000000000029234784900002668701664783499000000002729070020062021PAGO NOMINA                   11CRA1504189V9 00000000000000dgarcia@gruposeri.com                  20062021ESTEFANIA GONZALEZ CAMPOS                                             
0493152        0000000000029234784900002855904103621114000000002698230020062021PAGO NOMINA                   11CRA1504189V9 00000000000000dgarcia@gruposeri.com                  20062021KRISTIAN ORLANDO LOPEZ MARTINEZ                                       
0493169        0000000000029234784900002813902497734243000000005895670020062021PAGO NOMINA                   11CRA1504189V9 00000000000000dgarcia@gruposeri.com                  20062021OMAR RIOS RODRIGUEZ                                                   
0493234        0000000000029234784900002813700966106436000000002946170020062021PAGO NOMINA                   11CRA1504189V9 00000000000000dgarcia@gruposeri.com                  20062021ELVIA RUTH MIRANDA PACHECO                                            
0493309        0000000000029234784900002650903460208722000000002777850020062021PAGO NOMINA                   11CRA1504189V9 00000000000000dgarcia@gruposeri.com                  20062021PATRICIA VARGAS VICUNO                                                
0493311        0000000000029234784900002854904395731114000000002729070020062021PAGO NOMINA                   11CRA1504189V9 00000000000000dgarcia@gruposeri.com                  20062021ILSE IVETH PEREZ CHAVEZ                                               
04901834       0000000000029234784900002840904050335416000000002946170020062021PAGO NOMINA                   11CRA1504189V9 00000000000000dgarcia@gruposeri.com                  20062021JORGE LUIS TORRES GARCIA                                              
04902216       0000000000029234784900002834902930390534000000005334690020062021PAGO NOMINA                   11CRA1504189V9 00000000000000dgarcia@gruposeri.com                  20062021JUAN TEPATZI ZEMPOALTECA                                              
04902829       0000000000029234784900002650902264398376000000003361180020062021PAGO NOMINA                   11CRA1504189V9 00000000000000dgarcia@gruposeri.com                  20062021ALAN GUTIERREZ ANDRADE                                                
04902979       0000000000029234784900002680904415447730000000001972350020062021PAGO NOMINA                   11CRA1504189V9 00000000000000dgarcia@gruposeri.com                  20062021ANGELICO MARTINEZ BAUTISTA                                            
04903018       0000000000029234784900002311904523474061000000002289090020062021PAGO NOMINA                   11CRA1504189V9 00000000000000dgarcia@gruposeri.com                  20062021MARIA ISABEL MARIN HIDALGO                                            
04903498       0000000000029234784900002895902942101475000000002946170020062021PAGO NOMINA                   11CRA1504189V9 00000000000000dgarcia@gruposeri.com                  20062021SUSLI DAMARIS LOZANO CRUZ                                             
04903615       0000000000029234784900002882903299240910000000003143550020062021PAGO NOMINA                   11CRA1504189V9 00000000000000dgarcia@gruposeri.com                  20062021FELIPE DE JESUS TOLEDO BARRAN                                         
04903866       0000000000029234784900002876701622160480000000002946170020062021PAGO NOMINA                   11CRA1504189V9 00000000000000dgarcia@gruposeri.com                  20062021SILVESTRE LOPEZ RIVERA                                                
04903610       0000000000029234784900012180015195194724000000002729070020062021PAGO NOMINA                   11CRA1504189V9 00000000000000dgarcia@gruposeri.com                  20062021KARLA LIZETH PENA GONZALEZ                                            
04903854       0000000000029234784900012650004717419933000000006498730020062021PAGO NOMINA                   11CRA1504189V9 00000000000000dgarcia@gruposeri.com                  20062021JULIO JUAN ARCOS MENDEZ                                               
04903916       0000000000029234784900012180015280370974000000002729070020062021PAGO NOMINA                   11CRA1504189V9 00000000000000dgarcia@gruposeri.com                  20062021BEATRIZ HERRERA MARQUEZ                                               
04903984       0000000000029234784900012180015295178446000000003143550020062021PAGO NOMINA                   11CRA1504189V9 00000000000000dgarcia@gruposeri.com                  20062021JOSE ANTONIO ISLAS CRUZ                                               
04903230       0000000000029234784900012888029906650457000000005334690020062021PAGO NOMINA                   11CRA1504189V9 00000000000000dgarcia@gruposeri.com                  20062021HECTOR CARO ALONSO                                                    
04903329       0000000000029234784900012905015560457446000000001345840020062021PAGO NOMINA                   11CRA1504189V9 00000000000000dgarcia@gruposeri.com                  20062021SERGIO MEDEL AGUILAR                                                  
04903343       0000000000029234784900012180015745277910000000003143550020062021PAGO NOMINA                   11CRA1504189V9 00000000000000dgarcia@gruposeri.com                  20062021LUIS ALBERTO HERRERA MACIAS                                           
04903430       0000000000029234784900012832015214548622000000003671340020062021PAGO NOMINA                   11CRA1504189V9 00000000000000dgarcia@gruposeri.com                  20062021ELIAS MERINO HERNANDEZ                                                
04904097       0000000000029234784900012180015268027508000000002729070020062021PAGO NOMINA                   11CRA1504189V9 00000000000000dgarcia@gruposeri.com                  20062021GEMA ALESSANDRA GUADALUPE MORALES HERNANDEZ                           
04904182       0000000000029234784900012845029109375925000000002946170020062021PAGO NOMINA                   11CRA1504189V9 00000000000000dgarcia@gruposeri.com                  20062021GASPAR GONZALEZ MUNOZ                                                 
04904235       0000000000029234784900012180015601380226000000002946170020062021PAGO NOMINA                   11CRA1504189V9 00000000000000dgarcia@gruposeri.com                  20062021ALEJANDRO MANUEL LUIS CRUZ                                            
0492695        0000000000029234784900012834015680389536000000004106600020062021PAGO NOMINA                   11CRA1504189V9 00000000000000dgarcia@gruposeri.com                  20062021JOSE ERIK AGUILAR DOMINGUEZ                                           
04903045       0000000000029234784900012840015501260553000000002729070020062021PAGO NOMINA                   11CRA1504189V9 00000000000000dgarcia@gruposeri.com                  20062021NORMA LISETTE HERNANDEZ CASTILLO                                      
04903104       0000000000029234784900012180015107282996000000002362840020062021PAGO NOMINA                   11CRA1504189V9 00000000000000dgarcia@gruposeri.com                  20062021FAUSTINO GIL ORTEGA                                                   
04902926       0000000000029234784900012290029283883852000000002729070020062021PAGO NOMINA                   11CRA1504189V9 00000000000000dgarcia@gruposeri.com                  20062021ARACELI HERNANDEZ ROMERO                                              
04902855       0000000000029234784900012650026691022806000000001207850020062021PAGO NOMINA                   11CRA1504189V9 00000000000000dgarcia@gruposeri.com                  20062021PEDRO ARTURO MARTINEZ SEGURA                                          
04902316       0000000000029234784900012650015505800345000000003361180020062021PAGO NOMINA                   11CRA1504189V9 00000000000000dgarcia@gruposeri.com                  20062021JHOVANY RAMOS FLORES                                                  
04902322       0000000000029234784900012296015720546152000000002729070020062021PAGO NOMINA                   11CRA1504189V9 00000000000000dgarcia@gruposeri.com                  20062021DULCE CRISTAL HERNANDEZ ARADIAZ                                       
04902495       0000000000029234784900012180015183787062000000003143550020062021PAGO NOMINA                   11CRA1504189V9 00000000000000dgarcia@gruposeri.com                  20062021ARAFATH IUDICAEL HERNANDEZ MARTINEZ                                   
04902496       0000000000029234784900012813026378563852000000002370010020062021PAGO NOMINA                   11CRA1504189V9 00000000000000dgarcia@gruposeri.com                  20062021SOFIA MARTINEZ GONZALEZ                                               
04901802       0000000000029234784900012180015024960003000000002729070020062021PAGO NOMINA                   11CRA1504189V9 00000000000000dgarcia@gruposeri.com                  20062021ENRIQUE DE JESUS AGUILAR FLORES                                       
04901942       0000000000029234784900012311014938653470000000003143550020062021PAGO NOMINA                   11CRA1504189V9 00000000000000dgarcia@gruposeri.com                  20062021DONAJI HORTENCIA PELAEZ SARABIA                                       
04901117       0000000000029234784900012180015091469867000000002107770020062021PAGO NOMINA                   11CRA1504189V9 00000000000000dgarcia@gruposeri.com                  20062021GUADALUPE BARBA ALBARRAN                                              
04901222       0000000000029234784900012810029787862678000000002481300020062021PAGO NOMINA                   11CRA1504189V9 00000000000000dgarcia@gruposeri.com                  20062021LIDIA YETZEMANY CORTEZ CRUZ                                           
04901309       0000000000029234784900012813015690311971000000002541690020062021PAGO NOMINA                   11CRA1504189V9 00000000000000dgarcia@gruposeri.com                  20062021JOSE GUADALUPE DEL RIO CRUZ                                           
04901456       0000000000029234784900012650027950545670000000002560220020062021PAGO NOMINA                   11CRA1504189V9 00000000000000dgarcia@gruposeri.com                  20062021JORGE ANGEL ITURBIDE MORALES                                          
04901569       0000000000029234784900012320015241299825000000003361180020062021PAGO NOMINA                   11CRA1504189V9 00000000000000dgarcia@gruposeri.com                  20062021JOSE CARLOS MUNOZ CRUZ                                                
04901622       0000000000029234784900012881015450017764000000003143550020062021PAGO NOMINA                   11CRA1504189V9 00000000000000dgarcia@gruposeri.com                  20062021PEDRO LUIS CRUZ HERNANDEZ                                             
0493318        0000000000029234784900012854027906876267000000002946170020062021PAGO NOMINA                   11CRA1504189V9 00000000000000dgarcia@gruposeri.com                  20062021NESTOR MARTINEZ LOPEZ                                                 
0493289        0000000000029234784900012670015735804340000000002189300020062021PAGO NOMINA                   11CRA1504189V9 00000000000000dgarcia@gruposeri.com                  20062021KARLA ADRIANA FLORES SAAVEDRA                                         
0493300        0000000000029234784900012180015572601160000000002946170020062021PAGO NOMINA                   11CRA1504189V9 00000000000000dgarcia@gruposeri.com                  20062021JUAN DIEGO JUAREZ LOPEZ                                               
0493301        0000000000029234784900012854015410976555000000002946170020062021PAGO NOMINA                   11CRA1504189V9 00000000000000dgarcia@gruposeri.com                  20062021ISSAC CHAVEZ WOOD                                                     
0493341        0000000000029234784900012877015161994999000000002112830020062021PAGO NOMINA                   11CRA1504189V9 00000000000000dgarcia@gruposeri.com                  20062021ANITA HERNANDEZ TRANQUILINO                                           
0493349        0000000000029234784900012885029958529432000000003246170020062021PAGO NOMINA                   11CRA1504189V9 00000000000000dgarcia@gruposeri.com                  20062021LETICIA GARCIA BENITO                                                 
0493362        0000000000029234784900012888029959075005000000003004130020062021PAGO NOMINA                   11CRA1504189V9 00000000000000dgarcia@gruposeri.com                  20062021KATYA EMIRETH MARTINEZ PEREZ                                          
0493373        0000000000029234784900012876011273807209000000002362840020062021PAGO NOMINA                   11CRA1504189V9 00000000000000dgarcia@gruposeri.com                  20062021ALEXIS GONZALEZ DE LA CRUZ                                            
0493393        0000000000029234784900012885029182621876000000004505480020062021PAGO NOMINA                   11CRA1504189V9 00000000000000dgarcia@gruposeri.com                  20062021JESUS ANGEL GONZALEZ RAMIREZ                                          
0493398        0000000000029234784900012180015712952093000000002729070020062021PAGO NOMINA                   11CRA1504189V9 00000000000000dgarcia@gruposeri.com                  20062021BRENDA JAEL HURTADO RUVALCABA                                         
0493400        0000000000029234784900012180015291896997000000003143550020062021PAGO NOMINA                   11CRA1504189V9 00000000000000dgarcia@gruposeri.com                  20062021HYARACET RAMIREZ RAMIREZ                                              
04901060       0000000000029234784900012888015385929933000000002362840020062021PAGO NOMINA                   11CRA1504189V9 00000000000000dgarcia@gruposeri.com                  20062021JULIO CESAR RODRIGUEZ RAMIREZ                                         
0493240        0000000000029234784900012650015096703469000000003361180020062021PAGO NOMINA                   11CRA1504189V9 00000000000000dgarcia@gruposeri.com                  20062021FERNANDO JUAREZ MARIN                                                 
0493244        0000000000029234784900012676015801648722000000003143550020062021PAGO NOMINA                   11CRA1504189V9 00000000000000dgarcia@gruposeri.com                  20062021JESUS EMMANUEL CRUZ HERNANDEZ                                         
0493246        0000000000029234784900012905028694524009000000003671340020062021PAGO NOMINA                   11CRA1504189V9 00000000000000dgarcia@gruposeri.com                  20062021EDNA GISELDA CARDENA MUNOZ                                            
0493218        0000000000029234784900012180015634071984000000003143550020062021PAGO NOMINA                   11CRA1504189V9 00000000000000dgarcia@gruposeri.com                  20062021EVELIN YANET RAMIREZ HERNANDEZ                                        
0493224        0000000000029234784900012150015762436421000000003143550020062021PAGO NOMINA                   11CRA1504189V9 00000000000000dgarcia@gruposeri.com                  20062021KENIA ELIDETH GONZALEZ CRUZ                                           
0493257        0000000000029234784900012876011252350735000000002946170020062021PAGO NOMINA                   11CRA1504189V9 00000000000000dgarcia@gruposeri.com                  20062021PATRICIA GONZALEZ FRAYRE                                              
0493263        0000000000029234784900012712015590531855000000002946170020062021PAGO NOMINA                   11CRA1504189V9 00000000000000dgarcia@gruposeri.com                  20062021CARLOS TOMAS EUGENIO REYES                                            
0493265        0000000000029234784900012290027649885072000000002357210020062021PAGO NOMINA                   11CRA1504189V9 00000000000000dgarcia@gruposeri.com                  20062021DANIEL OMANA ZARCO                                                    
0493277        0000000000029234784900012290015143123925000000005334690020062021PAGO NOMINA                   11CRA1504189V9 00000000000000dgarcia@gruposeri.com                  20062021BRIANN EDUARDO ZAMUDIO ANGELES                                        
0493183        0000000000029234784900012876004632075951000000002278730020062021PAGO NOMINA                   11CRA1504189V9 00000000000000dgarcia@gruposeri.com                  20062021JOSE SALVADOR RUEDA LECORTUA                                          
0493156        0000000000029234784900012884026978924626000000002577320020062021PAGO NOMINA                   11CRA1504189V9 00000000000000dgarcia@gruposeri.com                  20062021LUZ ADRIANA HERNANDEZ DEL ANGEL                                       
0493159        0000000000029234784900012883015181538688000000002221880020062021PAGO NOMINA                   11CRA1504189V9 00000000000000dgarcia@gruposeri.com                  20062021LUIS CRUZ HERNANDEZ                                                   
0493191        0000000000029234784900012180015742828100000000003361180020062021PAGO NOMINA                   11CRA1504189V9 00000000000000dgarcia@gruposeri.com                  20062021ISRAEL CARRERA PACHECO                                                
0493216        0000000000029234784900012180015940001486000000002946170020062021PAGO NOMINA                   11CRA1504189V9 00000000000000dgarcia@gruposeri.com                  20062021LUCAS FELIPE CASTRO                                                   
0493131        0000000000029234784900012832015407369566000000002729070020062021PAGO NOMINA                   11CRA1504189V9 00000000000000dgarcia@gruposeri.com                  20062021CAROLINA MENDOZA MENDEZ                                               
0493030        0000000000029234784900012180015704741296000000003143390020062021PAGO NOMINA                   11CRA1504189V9 00000000000000dgarcia@gruposeri.com                  20062021IRMA CHAVEZ PEREZ                                                     
0493032        0000000000029234784900012180015832100848000000005334690020062021PAGO NOMINA                   11CRA1504189V9 00000000000000dgarcia@gruposeri.com                  20062021DULCE ESPERANZA VARGAS ZAMORANO                                       
0493037        0000000000029234784900012180015831984670000000002729070020062021PAGO NOMINA                   11CRA1504189V9 00000000000000dgarcia@gruposeri.com                  20062021SILVIA LUCERO CARRASCO CARCAMO                                        
0493052        0000000000029234784900012311015670803723000000003143390020062021PAGO NOMINA                   11CRA1504189V9 00000000000000dgarcia@gruposeri.com                  20062021ERICK FRANCISCO NERI CASTRO                                           
0493060        0000000000029234784900012830015159724040000000003361180020062021PAGO NOMINA                   11CRA1504189V9 00000000000000dgarcia@gruposeri.com                  20062021CLARA ESTEFANY DURAN TORRES                                           
0493086        0000000000029234784900012873015592262498000000002729070020062021PAGO NOMINA                   11CRA1504189V9 00000000000000dgarcia@gruposeri.com                  20062021BRENDA MELENDEZ MENDEZ                                                
0493006        0000000000029234784900012180015547700342000000003143550020062021PAGO NOMINA                   11CRA1504189V9 00000000000000dgarcia@gruposeri.com                  20062021PABLO OLMEDO GARCIA                                                   
0493013        0000000000029234784900012580029921440500000000002777850020062021PAGO NOMINA                   11CRA1504189V9 00000000000000dgarcia@gruposeri.com                  20062021ALONDRA CORONA ALAMEDA                                                
0492969        0000000000029234784900012650015078151699000000003361180020062021PAGO NOMINA                   11CRA1504189V9 00000000000000dgarcia@gruposeri.com                  20062021FABIOLA SERRANO NOLASCO                                               
0492975        0000000000029234784900012813015136207785000000004478170020062021PAGO NOMINA                   11CRA1504189V9 00000000000000dgarcia@gruposeri.com                  20062021JERONIMO DEL ANGEL GARCIA                                             
0492888        0000000000029234784900012854029603268529000000002729070020062021PAGO NOMINA                   11CRA1504189V9 00000000000000dgarcia@gruposeri.com                  20062021LORENA AIDEE HERRERA GONZALEZ                                         
0492916        0000000000029234784900012813028875880117000000002500140020062021PAGO NOMINA                   11CRA1504189V9 00000000000000dgarcia@gruposeri.com                  20062021ALBERTO JORGE MORENO ROJAS                                            
0492940        0000000000029234784900012180029274178880000000005334690020062021PAGO NOMINA                   11CRA1504189V9 00000000000000dgarcia@gruposeri.com                  20062021DIANA ALEJANDRA NAVARRO ARROYO                                        
0492859        0000000000029234784900012864015720856180000000002289090020062021PAGO NOMINA                   11CRA1504189V9 00000000000000dgarcia@gruposeri.com                  20062021LETICIA GARCIA GARCIA                                                 
0492798        0000000000029234784900012311015675797054000000002946170020062021PAGO NOMINA                   11CRA1504189V9 00000000000000dgarcia@gruposeri.com                  20062021ALMA KARINA ARGUELLO RAMIREZ                                          
0492801        0000000000029234784900012864004696828800000000003143550020062021PAGO NOMINA                   11CRA1504189V9 00000000000000dgarcia@gruposeri.com                  20062021LESLY MARILYN OLMEDO TICANTE                                          
0492803        0000000000029234784900012888011319129761000000001780900020062021PAGO NOMINA                   11CRA1504189V9 00000000000000dgarcia@gruposeri.com                  20062021GERARDO GONZALEZ PACHECO                                              
0492758        0000000000029234784900012894015630974070000000002946170020062021PAGO NOMINA                   11CRA1504189V9 00000000000000dgarcia@gruposeri.com                  20062021MIRIAM IGNOT DE LA CRUZ                                               
0492764        0000000000029234784900012180015006725839000000003557680020062021PAGO NOMINA                   11CRA1504189V9 00000000000000dgarcia@gruposeri.com                  20062021LEYDI VIANEY SANTIAGO NAZARIO                                         
0492719        0000000000029234784900012180015626509781000000002946170020062021PAGO NOMINA                   11CRA1504189V9 00000000000000dgarcia@gruposeri.com                  20062021DIEGO FLORES FRANCO                                                   
0492673        0000000000029234784900012667014329998540000000002555750020062021PAGO NOMINA                   11CRA1504189V9 00000000000000dgarcia@gruposeri.com                  20062021MARTIN FLORES SANCHEZ                                                 
0492680        0000000000029234784900012180015432590162000000002460080020062021PAGO NOMINA                   11CRA1504189V9 00000000000000dgarcia@gruposeri.com                  20062021ALMA EDITH LABASTIDA GIL                                              
0492640        0000000000029234784900012180015041637649000000003361180020062021PAGO NOMINA                   11CRA1504189V9 00000000000000dgarcia@gruposeri.com                  20062021JESUS MANUEL MENESES ZAYAS                                            
0492633        0000000000029234784900012845015574686143000000002461640020062021PAGO NOMINA                   11CRA1504189V9 00000000000000dgarcia@gruposeri.com                  20062021TERESA DE JESUS HERNANDEZ MURILLO                                     
0492607        0000000000029234784900012670028609114373000000001310050020062021PAGO NOMINA                   11CRA1504189V9 00000000000000dgarcia@gruposeri.com                  20062021DANIEL MARTINEZ SANCHEZ                                               
0492609        0000000000029234784900012180015371929917000000002289090020062021PAGO NOMINA                   11CRA1504189V9 00000000000000dgarcia@gruposeri.com                  20062021LEIDY GALLEGOS ASTACIO                                                
0492614        0000000000029234784900012886027484782524000000009068660020062021PAGO NOMINA                   11CRA1504189V9 00000000000000dgarcia@gruposeri.com                  20062021JULIO CESAR GUTIERREZ MARTINEZ                                        
0492582        0000000000029234784900012667015300751608000000000050000020062021PAGO NOMINA                   11CRA1504189V9 00000000000000dgarcia@gruposeri.com                  20062021NEYDI SARMIENTO SERRANO                                               
0492621        0000000000029234784900012888015538082656000000002729070020062021PAGO NOMINA                   11CRA1504189V9 00000000000000dgarcia@gruposeri.com                  20062021ANAHI QUIROZ HERNANDEZ                                                
0492550        0000000000029234784900012650029445418634000000001602830020062021PAGO NOMINA                   11CRA1504189V9 00000000000000dgarcia@gruposeri.com                  20062021GABRIEL RUBEN PEREZ MORENO                                            
0492434        0000000000029234784900012180015474895634000000004106480020062021PAGO NOMINA                   11CRA1504189V9 00000000000000dgarcia@gruposeri.com                  20062021KARLA FABIOLA MATEO PASCUAL                                           
0492450        0000000000029234784900012903015498274984000000003361090020062021PAGO NOMINA                   11CRA1504189V9 00000000000000dgarcia@gruposeri.com                  20062021ALACIEL CURIEL TORRES                                                 
0492451        0000000000029234784900012813015454231844000000003361090020062021PAGO NOMINA                   11CRA1504189V9 00000000000000dgarcia@gruposeri.com                  20062021BRENDA YADIRA DELGADILLO CUETO                                        
0492461        0000000000029234784900012811014376770499000000002946170020062021PAGO NOMINA                   11CRA1504189V9 00000000000000dgarcia@gruposeri.com                  20062021JULIAN CASTILLO FLORES                                                
0492465        0000000000029234784900012669015268136936000000002728990020062021PAGO NOMINA                   11CRA1504189V9 00000000000000dgarcia@gruposeri.com                  20062021CIRO ARTURO CANCINO MENESES                                           
0492372        0000000000029234784900012296015524792652000000003143470020062021PAGO NOMINA                   11CRA1504189V9 00000000000000dgarcia@gruposeri.com                  20062021CONSUELO MIJAIL VITE LOYDA                                            
0492377        0000000000029234784900012580015056557576000000002728990020062021PAGO NOMINA                   11CRA1504189V9 00000000000000dgarcia@gruposeri.com                  20062021CINTHYA LORENA OLVERA BARRIOS                                         
0492381        0000000000029234784900012290028848079950000000002946260020062021PAGO NOMINA                   11CRA1504189V9 00000000000000dgarcia@gruposeri.com                  20062021KARINA OILEGOR CANTERA GOMEZ                                          
0492395        0000000000029234784900012864015187439946000000003143470020062021PAGO NOMINA                   11CRA1504189V9 00000000000000dgarcia@gruposeri.com                  20062021PEDRO BAUTISTA QUINTERO                                               
0492265        0000000000029234784900012225015043694529000000002946170020062021PAGO NOMINA                   11CRA1504189V9 00000000000000dgarcia@gruposeri.com                  20062021NATALI KARINA CADENA GOMEZ                                            
0492313        0000000000029234784900012876015806057862000000002946100020062021PAGO NOMINA                   11CRA1504189V9 00000000000000dgarcia@gruposeri.com                  20062021ALMA GABRIELA ESPINOSA CRUZ                                           
0492314        0000000000029234784900012877011492430977000000004431860020062021PAGO NOMINA                   11CRA1504189V9 00000000000000dgarcia@gruposeri.com                  20062021HAMILTON PEREZ JIMENEZ                                                
0492349        0000000000029234784900012830029067456878000000003143300020062021PAGO NOMINA                   11CRA1504189V9 00000000000000dgarcia@gruposeri.com                  20062021YEINI FLORES HERNANDEZ                                                
0492230        0000000000029234784900012864004684728239000000001780160020062021PAGO NOMINA                   11CRA1504189V9 00000000000000dgarcia@gruposeri.com                  20062021ALMA LIZZETH CRUZ AGUILAR                                             
0492214        0000000000029234784900012813014207966545000000003279980020062021PAGO NOMINA                   11CRA1504189V9 00000000000000dgarcia@gruposeri.com                  20062021DIANA ARELI ROCHA QUINTANILLA                                         
0492215        0000000000029234784900012650015784460328000000005926540020062021PAGO NOMINA                   11CRA1504189V9 00000000000000dgarcia@gruposeri.com                  20062021ERIKA LUCIA ZURITA REYES                                              
0492221        0000000000029234784900012180015244847579000000002205330020062021PAGO NOMINA                   11CRA1504189V9 00000000000000dgarcia@gruposeri.com                  20062021NANCY ALEJANDRA GARCIA OROPEZA                                        
0492199        0000000000029234784900012290015235428347000000003483800020062021PAGO NOMINA                   11CRA1504189V9 00000000000000dgarcia@gruposeri.com                  20062021SAYIRA PEREZ MOCINO                                                   
0492162        0000000000029234784900012813015951090973000000004751290020062021PAGO NOMINA                   11CRA1504189V9 00000000000000dgarcia@gruposeri.com                  20062021LUIS FELIPE LAVIN TOVAR                                               
0492174        0000000000029234784900012180015327158839000000002728990020062021PAGO NOMINA                   11CRA1504189V9 00000000000000dgarcia@gruposeri.com                  20062021DIANA KRISTEL SOBREVILLA SIERRA                                       
0492040        0000000000029234784900012650015615381369000000002728990020062021PAGO NOMINA                   11CRA1504189V9 00000000000000dgarcia@gruposeri.com                  20062021IRMA LOPEZ GAYTAN                                                     
0492070        0000000000029234784900012903015483740313000000003143470020062021PAGO NOMINA                   11CRA1504189V9 00000000000000dgarcia@gruposeri.com                  20062021CARLOS RUBEN SANCHEZ DE LA CRUZ                                       
0492079        0000000000029234784900012905015779501361000000003143470020062021PAGO NOMINA                   11CRA1504189V9 00000000000000dgarcia@gruposeri.com                  20062021ABELMAIN GARCIA TLAXCALA                                              
0492126        0000000000029234784900012832015619252539000000004592760020062021PAGO NOMINA                   11CRA1504189V9 00000000000000dgarcia@gruposeri.com                  20062021ALEXIS NOYOLA CAMARILLO                                               
0492133        0000000000029234784900012180015198591722000000002289040020062021PAGO NOMINA                   11CRA1504189V9 00000000000000dgarcia@gruposeri.com                  20062021CARMEN LIZETH MARTINEZ MARTINEZ                                       
0492134        0000000000029234784900012290012424373688000000002289040020062021PAGO NOMINA                   11CRA1504189V9 00000000000000dgarcia@gruposeri.com                  20062021ROSI ISELA LOZANO GASCA                                               
0491706        0000000000029234784900012667029736788574000000003143470020062021PAGO NOMINA                   11CRA1504189V9 00000000000000dgarcia@gruposeri.com                  20062021ALITZEL GARCIA MARTINEZ                                               
0491740        0000000000029234784900012864015866205158000000002248010020062021PAGO NOMINA                   11CRA1504189V9 00000000000000dgarcia@gruposeri.com                  20062021ARITH PULIDO GARCIA                                                   
0491747        0000000000029234784900012296015615066792000000002946260020062021PAGO NOMINA                   11CRA1504189V9 00000000000000dgarcia@gruposeri.com                  20062021IVETH ORTEGA HERNANDEZ                                                
0491775        0000000000029234784900012290014021592365000000002596610020062021PAGO NOMINA                   11CRA1504189V9 00000000000000dgarcia@gruposeri.com                  20062021VALENTIN LORENZO FILER                                                
0491600        0000000000029234784900012180015685779947000000003143470020062021PAGO NOMINA                   11CRA1504189V9 00000000000000dgarcia@gruposeri.com                  20062021MARTIN LOPEZ GUZMAN                                                   
0491650        0000000000029234784900012894015718976246000000003086840020062021PAGO NOMINA                   11CRA1504189V9 00000000000000dgarcia@gruposeri.com                  20062021CARMEN ELIZABETH PEREZ MERAZ                                          
0491661        0000000000029234784900012180015835306982000000002592550020062021PAGO NOMINA                   11CRA1504189V9 00000000000000dgarcia@gruposeri.com                  20062021CLAUDIA GUADALUPE PEREZ GARAY                                         
0491668        0000000000029234784900012180015481727766000000002708590020062021PAGO NOMINA                   11CRA1504189V9 00000000000000dgarcia@gruposeri.com                  20062021EIMER CHAGOYA ESPINOSA                                                
0491486        0000000000029234784900012650029441315171000000003731000020062021PAGO NOMINA                   11CRA1504189V9 00000000000000dgarcia@gruposeri.com                  20062021ISMAEL DOMINGUEZ CLEMENTE                                             
0491564        0000000000029234784900012650029840618291000000003061870020062021PAGO NOMINA                   11CRA1504189V9 00000000000000dgarcia@gruposeri.com                  20062021JESUS ANTONIO OCAMPO ROSAS                                            
0491268        0000000000029234784900012180015612104404000000003588390020062021PAGO NOMINA                   11CRA1504189V9 00000000000000dgarcia@gruposeri.com                  20062021DONAXI GUADALUPE ALVARADO ROBLES                                      
0491280        0000000000029234784900012881029885100245000000005334320020062021PAGO NOMINA                   11CRA1504189V9 00000000000000dgarcia@gruposeri.com                  20062021EDGAR LEOPOLDO JUAREZ MAYA                                            
0491118        0000000000029234784900012811029420078786000000002899510020062021PAGO NOMINA                   11CRA1504189V9 00000000000000dgarcia@gruposeri.com                  20062021GEORGINA DEL ANGEL MONFIL                                             
0491218        0000000000029234784900012650015441317620000000003417210020062021PAGO NOMINA                   11CRA1504189V9 00000000000000dgarcia@gruposeri.com                  20062021JAZMIN MATAMOROS JUAREZ                                               
0491347        0000000000029234784900012885015418519695000000002474110020062021PAGO NOMINA                   11CRA1504189V9 00000000000000dgarcia@gruposeri.com                  20062021RUBICELI PEREZ CAMPOS                                                 
0491354        0000000000029234784900012840011732610264000000005284490020062021PAGO NOMINA                   11CRA1504189V9 00000000000000dgarcia@gruposeri.com                  20062021IGNACIO CRUZ ORTEGA                                                   
0491327        0000000000029234784900012813015342098856000000002728930020062021PAGO NOMINA                   11CRA1504189V9 00000000000000dgarcia@gruposeri.com                  20062021DARINKA BEATRIZ ZAVALA CASTILLO                                       
0491334        0000000000029234784900012290015548425451000000002288970020062021PAGO NOMINA                   11CRA1504189V9 00000000000000dgarcia@gruposeri.com                  20062021NOHEMI PERALTA HERNANDEZ                                              
0491444        0000000000029234784900012670027950917217000000002728930020062021PAGO NOMINA                   11CRA1504189V9 00000000000000dgarcia@gruposeri.com                  20062021NANCY KARINA MUNDO PERALTA                                            
0491066        0000000000029234784900012650004593054758000000005334450020062021PAGO NOMINA                   11CRA1504189V9 00000000000000dgarcia@gruposeri.com                  20062021ARMANDO CABRERA CASTILLO                                              
0490925        0000000000029234784900012650015700389894000000000550610020062021PAGO NOMINA                   11CRA1504189V9 00000000000000dgarcia@gruposeri.com                  20062021GABRIELA SELENE ROQUE ROJAS                                           
0490967        0000000000029234784900012876011607142242000000002189470020062021PAGO NOMINA                   11CRA1504189V9 00000000000000dgarcia@gruposeri.com                  20062021REYNA MARTHA RODRIGUEZ ALBERTO                                        
0490655        0000000000029234784900012290028721472467000000003143400020062021PAGO NOMINA                   11CRA1504189V9 00000000000000dgarcia@gruposeri.com                  20062021JONATHAN HERNANDEZ ALVITER                                            
0490551        0000000000029234784900012855015163693087000000002189400020062021PAGO NOMINA                   11CRA1504189V9 00000000000000dgarcia@gruposeri.com                  20062021KARINA VELAZQUEZ LOPEZ                                                
0490607        0000000000029234784900012650015216125490000000003671040020062021PAGO NOMINA                   11CRA1504189V9 00000000000000dgarcia@gruposeri.com                  20062021CARLOS ALBERTO MENDOZA ORTIZ                                          
0490732        0000000000029234784900012813015196883233000000002946100020062021PAGO NOMINA                   11CRA1504189V9 00000000000000dgarcia@gruposeri.com                  20062021MARIA DE JESUS PEREZ TICANTE                                          
0490738        0000000000029234784900012813015199436412000000002124840020062021PAGO NOMINA                   11CRA1504189V9 00000000000000dgarcia@gruposeri.com                  20062021VERONICA CRUZ CASTILLO                                                
0490683        0000000000029234784900012832015299533377000000002531860020062021PAGO NOMINA                   11CRA1504189V9 00000000000000dgarcia@gruposeri.com                  20062021ANABEL WITLE VAZQUEZ                                                  
0490574        0000000000029234784900012669027951168050000000003310870020062021PAGO NOMINA                   11CRA1504189V9 00000000000000dgarcia@gruposeri.com                  20062021LUIS ANGEL TORRES MARIN                                               
0490506        0000000000029234784900012885027038426305000000005334130020062021PAGO NOMINA                   11CRA1504189V9 00000000000000dgarcia@gruposeri.com                  20062021ANA MARIA RAMIREZ ZEPEDA                                              
0490512        0000000000029234784900012905015120049171000000003671040020062021PAGO NOMINA                   11CRA1504189V9 00000000000000dgarcia@gruposeri.com                  20062021PEDRO DAMIAN MARTINEZ BLANCO                                          
0490514        0000000000029234784900012841004557856507000000005334130020062021PAGO NOMINA                   11CRA1504189V9 00000000000000dgarcia@gruposeri.com                  20062021NALLELY REYES SANTOS                                                  
0490517        0000000000029234784900012881015035480745000000002179370020062021PAGO NOMINA                   11CRA1504189V9 00000000000000dgarcia@gruposeri.com                  20062021HECTOR JOEL DEL ANGEL LOZANO                                          
0490346        0000000000029234784900012669015188115325000000005122890020062021PAGO NOMINA                   11CRA1504189V9 00000000000000dgarcia@gruposeri.com                  20062021MARIEL LOPEZ JIMENEZ                                                  
0490350        0000000000029234784900012650015689344552000000005031130020062021PAGO NOMINA                   11CRA1504189V9 00000000000000dgarcia@gruposeri.com                  20062021MIRIAM RAMIREZ GONZALEZ                                               
0490370        0000000000029234784900012296004596610508000000002361160020062021PAGO NOMINA                   11CRA1504189V9 00000000000000dgarcia@gruposeri.com                  20062021EDER IVAN LIZCANO ALONZO                                              
0490418        0000000000029234784900012877015726587398000000004149770020062021PAGO NOMINA                   11CRA1504189V9 00000000000000dgarcia@gruposeri.com                  20062021GUADALUPE DIAZ MENDOZA                                                
0490207        0000000000029234784900012864015782711519000000004481500020062021PAGO NOMINA                   11CRA1504189V9 00000000000000dgarcia@gruposeri.com                  20062021ADAN ISAAC BERNABE LUCAS                                              
0490212        0000000000029234784900012894015005153109000000004106130020062021PAGO NOMINA                   11CRA1504189V9 00000000000000dgarcia@gruposeri.com                  20062021SILBINO DEL ANGEL TENORIO                                             
0490213        0000000000029234784900012180015425717334000000002842350020062021PAGO NOMINA                   11CRA1504189V9 00000000000000dgarcia@gruposeri.com                  20062021ANA RUTH DIAZ MARIANO                                                 
0490217        0000000000029234784900012894015004838852000000002945940020062021PAGO NOMINA                   11CRA1504189V9 00000000000000dgarcia@gruposeri.com                  20062021ERIC HERNANDEZ PEREZ                                                  
0490268        0000000000029234784900012903011227988241000000002012010020062021PAGO NOMINA                   11CRA1504189V9 00000000000000dgarcia@gruposeri.com                  20062021ELENA MORALES PELCASTRE                                               
0490272        0000000000029234784900012854012557830706000000004061930020062021PAGO NOMINA                   11CRA1504189V9 00000000000000dgarcia@gruposeri.com                  20062021HILDA KARINA GUTIERREZ CHAVEZ                                         
0490277        0000000000029234784900012885015001022023000000004446960020062021PAGO NOMINA                   11CRA1504189V9 00000000000000dgarcia@gruposeri.com                  20062021NADIA BERENICE DE LEON HERNANDEZ                                      
0490282        0000000000029234784900012830029541765373000000003405710020062021PAGO NOMINA                   11CRA1504189V9 00000000000000dgarcia@gruposeri.com                  20062021TERESA PELCASTRE LOPEZ                                                
0490256        0000000000029234784900012903011275364532000000003920470020062021PAGO NOMINA                   11CRA1504189V9 00000000000000dgarcia@gruposeri.com                  20062021EDUARDO CRUZ CASTILLO                                                 
0490073        0000000000029234784900012290011510918754000000006497800020062021PAGO NOMINA                   11CRA1504189V9 00000000000000dgarcia@gruposeri.com                  20062021TANIA PALACIOS OSTRIA                                                 
0490089        0000000000029234784900012837015120022729000000007640960020062021PAGO NOMINA                   11CRA1504189V9 00000000000000dgarcia@gruposeri.com                  20062021TANIA ARCELIA VAZQUEZ CORDOVA                                         
0490095        0000000000029234784900012832028604410315000000004837140020062021PAGO NOMINA                   11CRA1504189V9 00000000000000dgarcia@gruposeri.com                  20062021XOCHITL MARIA GUADALUPE LOYOLA ZAVALETA                               
0490107        0000000000029234784900012311015239875516000000006215820020062021PAGO NOMINA                   11CRA1504189V9 00000000000000dgarcia@gruposeri.com                  20062021ALEXIS CONRADO GALVAN TAVERA                                          
0490135        0000000000029234784900012180015227195992000000005333950020062021PAGO NOMINA                   11CRA1504189V9 00000000000000dgarcia@gruposeri.com                  20062021RAFAEL DIAZ HERNANDEZ                                                 
0490166        0000000000029234784900012670011659062026000000003370600020062021PAGO NOMINA                   11CRA1504189V9 00000000000000dgarcia@gruposeri.com                  20062021MARIA ANGELICA DE JESUS HERNANDEZ                                     
0490171        0000000000029234784900012650011634512595000000003118880020062021PAGO NOMINA                   11CRA1504189V9 00000000000000dgarcia@gruposeri.com                  20062021JOSE LUIS AVALOS BOBADILLA                                            
0490179        0000000000029234784900012290011487774623000000003599890020062021PAGO NOMINA                   11CRA1504189V9 00000000000000dgarcia@gruposeri.com                  20062021MARIA ESTELA GRANADA TEODORO                                          
0490183        0000000000029234784900012676011491358633000000002241930020062021PAGO NOMINA                   11CRA1504189V9 00000000000000dgarcia@gruposeri.com                  20062021NORMA JUAREZ ORTEGA                                                   
0490059        0000000000029234784900012676029332821716000000005974190020062021PAGO NOMINA                   11CRA1504189V9 00000000000000dgarcia@gruposeri.com                  20062021MARGARITA VAZQUEZ GUTIERREZ                                           
0490062        0000000000029234784900012290011494309890000000002189330020062021PAGO NOMINA                   11CRA1504189V9 00000000000000dgarcia@gruposeri.com                  20062021MARIA GUADALUPE PEREZ MONTALVO                                        
0490050        0000000000029234784900012676011774944599000000002189330020062021PAGO NOMINA                   11CRA1504189V9 00000000000000dgarcia@gruposeri.com                  20062021ANALI PEREZ CASTRO                                                    
0490056        0000000000029234784900012125029521552143000000006497800020062021PAGO NOMINA                   11CRA1504189V9 00000000000000dgarcia@gruposeri.com                  20062021BEATRIZ ADRIANA HERNANDEZ MENDEZ                                      
0430043        0000000000029234784900012672015034530737000000005317940020062021PAGO NOMINA                   11CRA1504189V9 00000000000000dgarcia@gruposeri.com                  20062021FAUSTINO HINOJOSA HERNANDEZ                                           
0490005        0000000000029234784900012877004581984383000000002189400020062021PAGO NOMINA                   11CRA1504189V9 00000000000000dgarcia@gruposeri.com                  20062021MARCELA VIVES GONZALEZ                                                
0490040        0000000000029234784900012676011585964250000000004057430020062021PAGO NOMINA                   11CRA1504189V9 00000000000000dgarcia@gruposeri.com                  20062021SONIA LOPEZ GUTIERREZ                                                 
0490110        0000000000029234784900014311605648957352000000002439550020062021PAGO NOMINA                   11CRA1504189V9 00000000000000dgarcia@gruposeri.com                  20062021YESSICA BERENICE MEZA CHAVEZ                                          
0490117        0000000000029234784900014670605703715057000000004527460020062021PAGO NOMINA                   11CRA1504189V9 00000000000000dgarcia@gruposeri.com                  20062021DANIEL CECILIO LUNA                                                   
0490441        0000000000029234784900014404568130887612000000005978780020062021PAGO NOMINA                   11CRA1504189V9 00000000000000dgarcia@gruposeri.com                  20062021NORMA STEFANIA RAMOS FIGUEROA                                         
0490827        0000000000029234784900014894606196352239000000002025190020062021PAGO NOMINA                   11CRA1504189V9 00000000000000dgarcia@gruposeri.com                  20062021BEATRIZ CRUZ DEL ANGEL                                                
0490739        0000000000029234784900014811567056070171000000002189470020062021PAGO NOMINA                   11CRA1504189V9 00000000000000dgarcia@gruposeri.com                  20062021YOLANDA RODRIGUEZ ORTIZ                                               
0491033        0000000000029234784900014813566888135351000000003404200020062021PAGO NOMINA                   11CRA1504189V9 00000000000000dgarcia@gruposeri.com                  20062021MARIAN LIZBETH CASTILLO LOPEZ                                         
0491193        0000000000029234784900014877605958352026000000005334320020062021PAGO NOMINA                   11CRA1504189V9 00000000000000dgarcia@gruposeri.com                  20062021RIGOBERTO TORRES REYES                                                
0491342        0000000000029234784900014888605985021050000000005299820020062021PAGO NOMINA                   11CRA1504189V9 00000000000000dgarcia@gruposeri.com                  20062021JOSE CARLOMAGNO VILLANUEVA LOTINA                                     
0491256        0000000000029234784900014894200072434606000000005334320020062021PAGO NOMINA                   11CRA1504189V9 00000000000000dgarcia@gruposeri.com                  20062021MANUEL ZUNIGA VILLEGAS                                                
0491517        0000000000029234784900014813605969866484000000002288970020062021PAGO NOMINA                   11CRA1504189V9 00000000000000dgarcia@gruposeri.com                  20062021KARLA LIZBETH RODRIGUEZ CASTILLO                                      
0491815        0000000000029234784900014822567370478435000000002946260020062021PAGO NOMINA                   11CRA1504189V9 00000000000000dgarcia@gruposeri.com                  20062021MARISELA PEREZ ATZIN                                                  
0492208        0000000000029234784900014830606015435741000000002463860020062021PAGO NOMINA                   11CRA1504189V9 00000000000000dgarcia@gruposeri.com                  20062021MARIA DEL CARMEN OJEDA VALENCIA                                       
0492229        0000000000029234784900014290606105245559000000006520280020062021PAGO NOMINA                   11CRA1504189V9 00000000000000dgarcia@gruposeri.com                  20062021FRANCISCO LEONARDO ESTRADA RUIZ                                       
0492262        0000000000029234784900014841606077726937000000003671230020062021PAGO NOMINA                   11CRA1504189V9 00000000000000dgarcia@gruposeri.com                  20062021NUBIA ISEL SOLANO LARA                                                
0492350        0000000000029234784900014650606002347417000000001829040020062021PAGO NOMINA                   11CRA1504189V9 00000000000000dgarcia@gruposeri.com                  20062021REYNOLDS MOJICA BALMORI                                               
0492285        0000000000029234784900014650567417475932000000005926840020062021PAGO NOMINA                   11CRA1504189V9 00000000000000dgarcia@gruposeri.com                  20062021JOSE OCTAVIO RUIZ MEJIA                                               
0492120        0000000000029234784900014854606039076052000000002239680020062021PAGO NOMINA                   11CRA1504189V9 00000000000000dgarcia@gruposeri.com                  20062021SERGIO ANGEL CAMERINO PEREZ VELAZQUEZ                                 
0492605        0000000000029234784900014404568038174003000000002946170020062021PAGO NOMINA                   11CRA1504189V9 00000000000000dgarcia@gruposeri.com                  20062021KARINA AVALOS CRUZ                                                    
0492643        0000000000029234784900014832606081853520000000002289090020062021PAGO NOMINA                   11CRA1504189V9 00000000000000dgarcia@gruposeri.com                  20062021JACQUELIN GONZALEZ ORDONEZ                                            
0492699        0000000000029234784900014296566795265928000000002946170020062021PAGO NOMINA                   11CRA1504189V9 00000000000000dgarcia@gruposeri.com                  20062021JULIO CESAR GARCIA REYES                                              
0492709        0000000000029234784900014881567727192428000000003143550020062021PAGO NOMINA                   11CRA1504189V9 00000000000000dgarcia@gruposeri.com                  20062021MARCO ANTONIO CASTILLO CALDERON                                       
0492979        0000000000029234784900014885567833459925000000002560220020062021PAGO NOMINA                   11CRA1504189V9 00000000000000dgarcia@gruposeri.com                  20062021ABRIL MARGARITA CERON ZEPETA                                          
0492962        0000000000029234784900014845606129843803000000002946170020062021PAGO NOMINA                   11CRA1504189V9 00000000000000dgarcia@gruposeri.com                  20062021JUAN JOSE HERNANDEZ CRUZ                                              
0493038        0000000000029234784900014813567731821216000000002729070020062021PAGO NOMINA                   11CRA1504189V9 00000000000000dgarcia@gruposeri.com                  20062021VALERIA ESTEFANIA PEREZ GARAY                                         
0493034        0000000000029234784900014650605817800661000000002617470020062021PAGO NOMINA                   11CRA1504189V9 00000000000000dgarcia@gruposeri.com                  20062021GEOVANNI GONZALEZ GARCIA                                              
0493134        0000000000029234784900014811567872775249000000002946170020062021PAGO NOMINA                   11CRA1504189V9 00000000000000dgarcia@gruposeri.com                  20062021EMMA LAURA DE LA FUENTE MARTINEZ                                      
0493204        0000000000029234784900014813567679920790000000003143550020062021PAGO NOMINA                   11CRA1504189V9 00000000000000dgarcia@gruposeri.com                  20062021VICTOR OMAR VALENTIN AGUIRRE                                          
0493194        0000000000029234784900014877606122565295000000002946170020062021PAGO NOMINA                   11CRA1504189V9 00000000000000dgarcia@gruposeri.com                  20062021YAZMIN DEL CARMEN RODRIGUEZ LURIA                                     
0493170        0000000000029234784900014813605623706071000000004746240020062021PAGO NOMINA                   11CRA1504189V9 00000000000000dgarcia@gruposeri.com                  20062021JESSICA MUNOZ SANCHEZ                                                 
0493172        0000000000029234784900014813606043878449000000000050000020062021PAGO NOMINA                   11CRA1504189V9 00000000000000dgarcia@gruposeri.com                  20062021MARIA GUADALUPE HERNANDEZ MORENO                                      
0493177        0000000000029234784900014876567733793305000000001852910020062021PAGO NOMINA                   11CRA1504189V9 00000000000000dgarcia@gruposeri.com                  20062021BLANCA ISABEL ORTIZ CAMACHO                                           
0493258        0000000000029234784900014580567478940893000000002373840020062021PAGO NOMINA                   11CRA1504189V9 00000000000000dgarcia@gruposeri.com                  20062021MARIA DE LOURDES PEREZ MARINO                                         
0493233        0000000000029234784900014854606050136625000000003812360020062021PAGO NOMINA                   11CRA1504189V9 00000000000000dgarcia@gruposeri.com                  20062021CARLOS CAZARIN DOMINGUEZ                                              
0493248        0000000000029234784900014650200120836015000000003671340020062021PAGO NOMINA                   11CRA1504189V9 00000000000000dgarcia@gruposeri.com                  20062021DENY PATRICIA MASTRANZO ROMERO                                        
0493374        0000000000029234784900014876605923805897000000001855430020062021PAGO NOMINA                   11CRA1504189V9 00000000000000dgarcia@gruposeri.com                  20062021IRIDIANA SANCHEZ SANCHEZ                                              
0493377        0000000000029234784900014650605963569490000000003361180020062021PAGO NOMINA                   11CRA1504189V9 00000000000000dgarcia@gruposeri.com                  20062021CLAUDIA VAZQUEZ DE LA ROSA                                            
0493352        0000000000029234784900014854605942366180000000013642570020062021PAGO NOMINA                   11CRA1504189V9 00000000000000dgarcia@gruposeri.com                  20062021JAIR FAJARDO FLORES                                                   
0493307        0000000000029234784900014404606102353900000000002101780020062021PAGO NOMINA                   11CRA1504189V9 00000000000000dgarcia@gruposeri.com                  20062021JOSE ANTONIO VIQUEZ ESCALANTE                                         
0493294        0000000000029234784900014667567762954780000000002672300020062021PAGO NOMINA                   11CRA1504189V9 00000000000000dgarcia@gruposeri.com                  20062021JONATHAN ORTEGA FLORES                                                
04901323       0000000000029234784900014580606149773739000000002946170020062021PAGO NOMINA                   11CRA1504189V9 00000000000000dgarcia@gruposeri.com                  20062021ANA KARINA DIAS LORENZO                                               
0493401        0000000000029234784900014670605523271690000000004049630020062021PAGO NOMINA                   11CRA1504189V9 00000000000000dgarcia@gruposeri.com                  20062021IVONNE AREVALO HUESCA                                                 
04904194       0000000000029234784900014580606104191958000000001581370020062021PAGO NOMINA                   11CRA1504189V9 00000000000000dgarcia@gruposeri.com                  20062021MIGUEL ROBERTO GARCIA GONZALEZ                                        
04904106       0000000000029234784900021813064739230476000000003143550020062021PAGO NOMINA                   11CRA1504189V9 00000000000000dgarcia@gruposeri.com                  20062021BLANCA LILIANA SALAZAR LOPEZ                                          
04904376       0000000000029234784900021671064070646783000000003143550020062021PAGO NOMINA                   11CRA1504189V9 00000000000000dgarcia@gruposeri.com                  20062021JUANA MORALES ANDRADE                                                 
0493371        0000000000029234784900021832064958859680000000003143550020062021PAGO NOMINA                   11CRA1504189V9 00000000000000dgarcia@gruposeri.com                  20062021ELVIA PEREZ ROMERO                                                    
0493361        0000000000029234784900021650065133050249000000004387110020062021PAGO NOMINA                   11CRA1504189V9 00000000000000dgarcia@gruposeri.com                  20062021ANA YANETH FLORES IGNACIO                                             
0493392        0000000000029234784900021905064935161286000000003143550020062021PAGO NOMINA                   11CRA1504189V9 00000000000000dgarcia@gruposeri.com                  20062021AMALIA SUSETT HERNANDEZ SARAIBA                                       
0493274        0000000000029234784900021650065117121220000000004647450020062021PAGO NOMINA                   11CRA1504189V9 00000000000000dgarcia@gruposeri.com                  20062021JOSE ANTONIO JIMENEZ ROSAS                                            
0493050        0000000000029234784900021650064970474018000000003361180020062021PAGO NOMINA                   11CRA1504189V9 00000000000000dgarcia@gruposeri.com                  20062021LILIANA STEPHANIA HERNANDEZ JORGE                                     
0493026        0000000000029234784900021830064610742419000000004267570020062021PAGO NOMINA                   11CRA1504189V9 00000000000000dgarcia@gruposeri.com                  20062021LORENZO ANTONIO GOIS BRIONES                                          
0492437        0000000000029234784900021854064555367757000000002946100020062021PAGO NOMINA                   11CRA1504189V9 00000000000000dgarcia@gruposeri.com                  20062021LEONARDO MICHEL ANTONIO HERNANDEZ                                     
0491822        0000000000029234784900021888064510616464000000003097470020062021PAGO NOMINA                   11CRA1504189V9 00000000000000dgarcia@gruposeri.com                  20062021MARTHA PATRICIA DIEGO LARA                                            
0491989        0000000000029234784900021855065132986669000000002728990020062021PAGO NOMINA                   11CRA1504189V9 00000000000000dgarcia@gruposeri.com                  20062021ERICKA BECERRIL PEREZ                                                 
0492112        0000000000029234784900021885065143053386000000001578540020062021PAGO NOMINA                   11CRA1504189V9 00000000000000dgarcia@gruposeri.com                  20062021CARMELA HERNANDEZ AMADOR                                              
0491511        0000000000029234784900021881064943605599000000002946100020062021PAGO NOMINA                   11CRA1504189V9 00000000000000dgarcia@gruposeri.com                  20062021BLANCA FLOR DEL ANGEL CRUZ                                            
0491257        0000000000029234784900021881064943621269000000002622850020062021PAGO NOMINA                   11CRA1504189V9 00000000000000dgarcia@gruposeri.com                  20062021ANA MARTHA SANTOS GOMEZ                                               
0491199        0000000000029234784900021854064295834650000000003143400020062021PAGO NOMINA                   11CRA1504189V9 00000000000000dgarcia@gruposeri.com                  20062021ERASMO VASQUEZ DIAZ                                                   
0491022        0000000000029234784900021650064034481727000000006421820020062021PAGO NOMINA                   11CRA1504189V9 00000000000000dgarcia@gruposeri.com                  20062021SONIA BARRALES RIOS                                                   
0490830        0000000000029234784900021660064283888255000000010690200020062021PAGO NOMINA                   11CRA1504189V9 00000000000000dgarcia@gruposeri.com                  20062021ROGELIO PLUMA MENESES                                                 
0490335        0000000000029234784900021650063917924166000000001940440020062021PAGO NOMINA                   11CRA1504189V9 00000000000000dgarcia@gruposeri.com                  20062021DANIEL ORTEGA DE LA CRUZ                                              
0490406        0000000000029234784900021669064447657414000000000050000020062021PAGO NOMINA                   11CRA1504189V9 00000000000000dgarcia@gruposeri.com                  20062021ANTONIA BEATRIZ CARRERA CASTRO                                        
0490254        0000000000029234784900021877064444695672000000006248520020062021PAGO NOMINA                   11CRA1504189V9 00000000000000dgarcia@gruposeri.com                  20062021YESSIKA GUADALUPE PEREZ VIVES                                         
0490304        0000000000029234784900021832063374049774000000002426170020062021PAGO NOMINA                   11CRA1504189V9 00000000000000dgarcia@gruposeri.com                  20062021ROSA MARIA HERNANDEZ HERNANDEZ                                        
0490295        0000000000029234784900021650063373983107000000002321190020062021PAGO NOMINA                   11CRA1504189V9 00000000000000dgarcia@gruposeri.com                  20062021MARIBEL BAUTISTA PINEDA                                               
0490318        0000000000029234784900021650063745885341000000004532450020062021PAGO NOMINA                   11CRA1504189V9 00000000000000dgarcia@gruposeri.com                  20062021ELIZABETH SOTO TEPOX                                                  
0490144        0000000000029234784900021670064063108255000000004527610020062021PAGO NOMINA                   11CRA1504189V9 00000000000000dgarcia@gruposeri.com                  20062021MARCELA ISIDRO ROBLES                                                 
0492091        0000000000029234784900044650036055476959000000003361090020062021PAGO NOMINA                   11CRA1504189V9 00000000000000dgarcia@gruposeri.com                  20062021RONALDO CRUZ AGUIRRE                                                  
0492988        0000000000029234784900044650256007764871000000003361180020062021PAGO NOMINA                   11CRA1504189V9 00000000000000dgarcia@gruposeri.com                  20062021CARMEN BEATRIZ PEREZ ZUNIGA                                           
0492825        0000000000029234784900044890063011301969000000004564140020062021PAGO NOMINA                   11CRA1504189V9 00000000000000dgarcia@gruposeri.com                  20062021HECTOR MANUEL CARDENAS MAIN                                           
04901079       0000000000029234784900044650256013072036000000003361180020062021PAGO NOMINA                   11CRA1504189V9 00000000000000dgarcia@gruposeri.com                  20062021LUCERO LOPEZ LIRA                                                     
0493325        0000000000029234784900044670043067041662000000002447560020062021PAGO NOMINA                   11CRA1504189V9 00000000000000dgarcia@gruposeri.com                  20062021JUAN CARLOS TELLEZ DIEGO                                              
04902590       0000000000029234784900044813040058911914000000000050000020062021PAGO NOMINA                   11CRA1504189V9 00000000000000dgarcia@gruposeri.com                  20062021TANIA MARLEN CHIU DIAZ                                                
0491055        0000000000029234784900127667013392032824000000002189470020062021PAGO NOMINA                   11CRA1504189V9 00000000000000dgarcia@gruposeri.com                  20062021HILARIA ANTONIA LOPEZ VARGAS                                          
0490968        0000000000029234784900127650013637786680000000005334320020062021PAGO NOMINA                   11CRA1504189V9 00000000000000dgarcia@gruposeri.com                  20062021OSCAR GABRIEL MARTINEZ VALLE                                          
0490656        0000000000029234784900127303013252380433000000003982920020062021PAGO NOMINA                   11CRA1504189V9 00000000000000dgarcia@gruposeri.com                  20062021DEYRA YOSELIN HERNANDEZ QUIJANO                                       
0490631        0000000000029234784900127404002121036605000000002288900020062021PAGO NOMINA                   11CRA1504189V9 00000000000000dgarcia@gruposeri.com                  20062021LORENA GONZALEZ RAMIREZ                                               
0490456        0000000000029234784900127310001114741047000000002178920020062021PAGO NOMINA                   11CRA1504189V9 00000000000000dgarcia@gruposeri.com                  20062021ERIK ALEJANDRO ZUNIGA TREJO                                           
0490476        0000000000029234784900127832013791304373000000002728860020062021PAGO NOMINA                   11CRA1504189V9 00000000000000dgarcia@gruposeri.com                  20062021ROSALVA PEREZ HERNANDEZ                                               
0490490        0000000000029234784900127855013124425916000000002334490020062021PAGO NOMINA                   11CRA1504189V9 00000000000000dgarcia@gruposeri.com                  20062021MARGARITA MENDOZA RENDON                                              
0490493        0000000000029234784900127855001383863981000000010247300020062021PAGO NOMINA                   11CRA1504189V9 00000000000000dgarcia@gruposeri.com                  20062021CAROLINA MARTINEZ HILARIO                                             
0490442        0000000000029234784900127832013797769909000000003360920020062021PAGO NOMINA                   11CRA1504189V9 00000000000000dgarcia@gruposeri.com                  20062021CECILIA GARCIA FLORES                                                 
0490531        0000000000029234784900127840013030620043000000002326230020062021PAGO NOMINA                   11CRA1504189V9 00000000000000dgarcia@gruposeri.com                  20062021LIZ YUBANY RAZZO JUAREZ                                               
0490545        0000000000029234784900127650013091158744000000002311710020062021PAGO NOMINA                   11CRA1504189V9 00000000000000dgarcia@gruposeri.com                  20062021JORGE XIQUE CABRERA                                                   
0490603        0000000000029234784900127291013204177104000000002189400020062021PAGO NOMINA                   11CRA1504189V9 00000000000000dgarcia@gruposeri.com                  20062021HORTENSIA GUZMAN HERNANDEZ                                            
0490604        0000000000029234784900127303013204035655000000004106250020062021PAGO NOMINA                   11CRA1504189V9 00000000000000dgarcia@gruposeri.com                  20062021KARINA LOPEZ ROSAS                                                    
0490046        0000000000029234784900127832013346038434000000002728860020062021PAGO NOMINA                   11CRA1504189V9 00000000000000dgarcia@gruposeri.com                  20062021CARMEN LORENA SUAREZ SOSA                                             
0490048        0000000000029234784900127832013684711811000000002043210020062021PAGO NOMINA                   11CRA1504189V9 00000000000000dgarcia@gruposeri.com                  20062021CANDELARIA SOSA PEREZ                                                 
0490038        0000000000029234784900127311013903756706000000001726900020062021PAGO NOMINA                   11CRA1504189V9 00000000000000dgarcia@gruposeri.com                  20062021DIANA GABRIELA MIER PINTOR                                            
0490265        0000000000029234784900127650013207460608000000003360920020062021PAGO NOMINA                   11CRA1504189V9 00000000000000dgarcia@gruposeri.com                  20062021IVONNE TOXQUI MARCIAL                                                 
0490328        0000000000029234784900127670001422221847000000003787960020062021PAGO NOMINA                   11CRA1504189V9 00000000000000dgarcia@gruposeri.com                  20062021YADIRA ZARATE MONTIEL                                                 
0490298        0000000000029234784900127614001422205683000000002426170020062021PAGO NOMINA                   11CRA1504189V9 00000000000000dgarcia@gruposeri.com                  20062021GLORIA ARIAS RIVERA                                                   
0490287        0000000000029234784900127311001098161629000000002896020020062021PAGO NOMINA                   11CRA1504189V9 00000000000000dgarcia@gruposeri.com                  20062021MARTIN ESTRADA OLMOS                                                  
0492589        0000000000029234784900127667013492635891000000002019990020062021PAGO NOMINA                   11CRA1504189V9 00000000000000dgarcia@gruposeri.com                  20062021CRISTIAN SERRANO PEREZ                                                
0492293        0000000000029234784900127670001066106412000000003143300020062021PAGO NOMINA                   11CRA1504189V9 00000000000000dgarcia@gruposeri.com                  20062021OSCAR HERNANDEZ GARCIA                                                
0492402        0000000000029234784900127311001142293951000000002946260020062021PAGO NOMINA                   11CRA1504189V9 00000000000000dgarcia@gruposeri.com                  20062021MIGUEL ANGEL VILLEDA GREGORIO                                         
0492412        0000000000029234784900127869013331481315000000002946100020062021PAGO NOMINA                   11CRA1504189V9 00000000000000dgarcia@gruposeri.com                  20062021SARAI FERNANDEZ LOPEZ                                                 
0492540        0000000000029234784900127180016558086198000000002289110020062021PAGO NOMINA                   11CRA1504189V9 00000000000000dgarcia@gruposeri.com                  20062021NATALY SANLUIS HERNANDEZ                                              
0492512        0000000000029234784900127854001522463156000000002946170020062021PAGO NOMINA                   11CRA1504189V9 00000000000000dgarcia@gruposeri.com                  20062021FRANCISCO JAVIER PEREYRA MARTINEZ                                     
0492476        0000000000029234784900127869001168418592000000003346100020062021PAGO NOMINA                   11CRA1504189V9 00000000000000dgarcia@gruposeri.com                  20062021MARCO ANTONIO GOMEZ LOPEZ                                             
0491134        0000000000029234784900127877013490136085000000005334320020062021PAGO NOMINA                   11CRA1504189V9 00000000000000dgarcia@gruposeri.com                  20062021EDUARDO ZUNIGA DE LA CRUZ                                             
0491414        0000000000029234784900127834013433552481000000002373300020062021PAGO NOMINA                   11CRA1504189V9 00000000000000dgarcia@gruposeri.com                  20062021MARGARITA ROSETE AYAPANTECATL                                         
0491455        0000000000029234784900127650001149958950000000004149900020062021PAGO NOMINA                   11CRA1504189V9 00000000000000dgarcia@gruposeri.com                  20062021SANDRA VIRIDIANA OLVERA ESCUTIA                                       
0491304        0000000000029234784900127895001868761814000000003143400020062021PAGO NOMINA                   11CRA1504189V9 00000000000000dgarcia@gruposeri.com                  20062021ARELY AZUARA ALEJANDRE                                                
0492181        0000000000029234784900127650001115904093000000002879220020062021PAGO NOMINA                   11CRA1504189V9 00000000000000dgarcia@gruposeri.com                  20062021MARIA DEL ROCIO LOPEZ SANCHEZ                                         
0492196        0000000000029234784900127650013110955488000000003361090020062021PAGO NOMINA                   11CRA1504189V9 00000000000000dgarcia@gruposeri.com                  20062021CESAR VAZQUEZ JUAREZ                                                  
0492232        0000000000029234784900127650001375823516000000001805130020062021PAGO NOMINA                   11CRA1504189V9 00000000000000dgarcia@gruposeri.com                  20062021ROCIO SANCHEZ GARCIA                                                  
0491995        0000000000029234784900127832013766064091000000002448490020062021PAGO NOMINA                   11CRA1504189V9 00000000000000dgarcia@gruposeri.com                  20062021GABRIEL FLORES CARRASCO                                               
0492161        0000000000029234784900127650013659244223000000002591300020062021PAGO NOMINA                   11CRA1504189V9 00000000000000dgarcia@gruposeri.com                  20062021ADRIANA BELTRAN MENDEZ                                                
0493185        0000000000029234784900127869001243108099000000002946170020062021PAGO NOMINA                   11CRA1504189V9 00000000000000dgarcia@gruposeri.com                  20062021NATANAEL HERNANDEZ PASCUAL                                            
0493217        0000000000029234784900127670001150575904000000003143550020062021PAGO NOMINA                   11CRA1504189V9 00000000000000dgarcia@gruposeri.com                  20062021VIRGINIA DEL CARMEN FELIPE CHIGO                                      
0493261        0000000000029234784900127650001333824900000000002729070020062021PAGO NOMINA                   11CRA1504189V9 00000000000000dgarcia@gruposeri.com                  20062021KARLA GARCES JUAREZ                                                   
0493280        0000000000029234784900127670013652427195000000002355840020062021PAGO NOMINA                   11CRA1504189V9 00000000000000dgarcia@gruposeri.com                  20062021MARY CARMEN BRAVO ACEVEDO                                             
0493287        0000000000029234784900127811001357764830000000004129060020062021PAGO NOMINA                   11CRA1504189V9 00000000000000dgarcia@gruposeri.com                  20062021PEDRO SANTIAGO RAMON                                                  
0493288        0000000000029234784900127290001267326701000000003143390020062021PAGO NOMINA                   11CRA1504189V9 00000000000000dgarcia@gruposeri.com                  20062021JOSE JESUS MEJIA LAZCANO                                              
0493229        0000000000029234784900127650013529074154000000002256050020062021PAGO NOMINA                   11CRA1504189V9 00000000000000dgarcia@gruposeri.com                  20062021MARIA JOSE GUERRERO TONIZ                                             
0493247        0000000000029234784900127610001510085081000000004597380020062021PAGO NOMINA                   11CRA1504189V9 00000000000000dgarcia@gruposeri.com                  20062021KEYMA GOMEZ VELAZQUEZ                                                 
0493100        0000000000029234784900127890001101520898000000012108920020062021PAGO NOMINA                   11CRA1504189V9 00000000000000dgarcia@gruposeri.com                  20062021ARMANDO MELENDEZ HERNANDEZ                                            
0492852        0000000000029234784900127834013704832461000000003143390020062021PAGO NOMINA                   11CRA1504189V9 00000000000000dgarcia@gruposeri.com                  20062021JORGE SANCHEZ JUAREZ                                                  
0492897        0000000000029234784900127905001160264624000000019325590020062021PAGO NOMINA                   11CRA1504189V9 00000000000000dgarcia@gruposeri.com                  20062021MARIA ANGELICA PEREZ PASCAL                                           
0492949        0000000000029234784900127650013810898489000000002729070020062021PAGO NOMINA                   11CRA1504189V9 00000000000000dgarcia@gruposeri.com                  20062021ALMA GUADALUPE ALVARADO RODRIGUEZ                                     
0492959        0000000000029234784900127180016293025692000000002847670020062021PAGO NOMINA                   11CRA1504189V9 00000000000000dgarcia@gruposeri.com                  20062021JEZRAEL TEHOZOL CRUZ                                                  
0493000        0000000000029234784900127650001293259822000000002210110020062021PAGO NOMINA                   11CRA1504189V9 00000000000000dgarcia@gruposeri.com                  20062021SANDRA LIZBETH PEREZ FLORES                                           
0492968        0000000000029234784900127888001288166611000000003143550020062021PAGO NOMINA                   11CRA1504189V9 00000000000000dgarcia@gruposeri.com                  20062021ANA LAURA VEGA VILLANUEVA                                             
0493390        0000000000029234784900127841001168796012000000002202730020062021PAGO NOMINA                   11CRA1504189V9 00000000000000dgarcia@gruposeri.com                  20062021VERONICA SOTO RAMIREZ                                                 
0493375        0000000000029234784900127832001245263053000000002663200020062021PAGO NOMINA                   11CRA1504189V9 00000000000000dgarcia@gruposeri.com                  20062021KEVIN CARMONA AVILA                                                   
0493395        0000000000029234784900127660001367735796000000003361180020062021PAGO NOMINA                   11CRA1504189V9 00000000000000dgarcia@gruposeri.com                  20062021BRISA TLAPAYA MENESES                                                 
0493335        0000000000029234784900127843001128938656000000005334690020062021PAGO NOMINA                   11CRA1504189V9 00000000000000dgarcia@gruposeri.com                  20062021HECTOR GONZALEZ CELAYA                                                
0493347        0000000000029234784900127290013125450176000000002946170020062021PAGO NOMINA                   11CRA1504189V9 00000000000000dgarcia@gruposeri.com                  20062021IRVIN ASSAEL ESCAMILLA ISIDRO                                         
04902650       0000000000029234784900127877001213123300000000002675120020062021PAGO NOMINA                   11CRA1504189V9 00000000000000dgarcia@gruposeri.com                  20062021JUAN CARLOS PEREZ MORALES                                             
04902587       0000000000029234784900127894013719927107000000002946170020062021PAGO NOMINA                   11CRA1504189V9 00000000000000dgarcia@gruposeri.com                  20062021HEBER JAVIN MEDINA MORALES                                            
04902489       0000000000029234784900127811001353048754000000002010750020062021PAGO NOMINA                   11CRA1504189V9 00000000000000dgarcia@gruposeri.com                  20062021MA. LETICIA CRUZ MENDEZ                                               
04902921       0000000000029234784900127832001405281228000000003143550020062021PAGO NOMINA                   11CRA1504189V9 00000000000000dgarcia@gruposeri.com                  20062021CARLOS ALEJANDRO PALESTINA LIMA                                       
04903004       0000000000029234784900127650013060417018000000002729070020062021PAGO NOMINA                   11CRA1504189V9 00000000000000dgarcia@gruposeri.com                  20062021RUTILO ALEJANDRO JUAREZ MERINO                                        
04903161       0000000000029234784900127905001414081498000000002087000020062021PAGO NOMINA                   11CRA1504189V9 00000000000000dgarcia@gruposeri.com                  20062021JERONIMO ROMAN ARRIETA                                                
04901343       0000000000029234784900127180016072098332000000002729070020062021PAGO NOMINA                   11CRA1504189V9 00000000000000dgarcia@gruposeri.com                  20062021JESUS MANUEL SANTACRUZ HUERTA                                         
04901645       0000000000029234784900127652001313787243000000002526790020062021PAGO NOMINA                   11CRA1504189V9 00000000000000dgarcia@gruposeri.com                  20062021GIOVANNI TELLEZ ROSAS                                                 
04901518       0000000000029234784900127705001118951804000000005334690020062021PAGO NOMINA                   11CRA1504189V9 00000000000000dgarcia@gruposeri.com                  20062021HUGO ENRIQUE GOMEZ JUAREZ                                             
04902127       0000000000029234784900127650013669955188000000002589690020062021PAGO NOMINA                   11CRA1504189V9 00000000000000dgarcia@gruposeri.com                  20062021LUCIA HERNANDEZ SERDA                                                 
04902311       0000000000029234784900127650013946211697000000003361180020062021PAGO NOMINA                   11CRA1504189V9 00000000000000dgarcia@gruposeri.com                  20062021JESSICA SANCHEZ PALESTINA                                             
04903962       0000000000029234784900127650001427588686000000002729070020062021PAGO NOMINA                   11CRA1504189V9 00000000000000dgarcia@gruposeri.com                  20062021PRISCILA DALIA CASTRO GONZALEZ                                        
04904229       0000000000029234784900127650001231514626000000002777850020062021PAGO NOMINA                   11CRA1504189V9 00000000000000dgarcia@gruposeri.com                  20062021MARIA FERNANDA ROBLES LOPEZ                                           
04904001       0000000000029234784900127890001427240001000000002729070020062021PAGO NOMINA                   11CRA1504189V9 00000000000000dgarcia@gruposeri.com                  20062021MARIBEL ESPINOSA CHAPOL                                               
04904039       0000000000029234784900127311013640902842000000002946170020062021PAGO NOMINA                   11CRA1504189V9 00000000000000dgarcia@gruposeri.com                  20062021FRANCISCO JAVIER RESENDIZ MIRANDA                                     
04903869       0000000000029234784900127667013191827696000000003143550020062021PAGO NOMINA                   11CRA1504189V9 00000000000000dgarcia@gruposeri.com                  20062021NELSON YAMIL SUAREZ PEREZ                                             
04903993       0000000000029234784900137905103071770276000000002946170020062021PAGO NOMINA                   11CRA1504189V9 00000000000000dgarcia@gruposeri.com                  20062021KARLA ISABEL LOPEZ GOMEZ                                              
04903919       0000000000029234784900137877104004114716000000002729070020062021PAGO NOMINA                   11CRA1504189V9 00000000000000dgarcia@gruposeri.com                  20062021ARLENY SUREY GUTIERREZ JAVIER                                         
04903654       0000000000029234784900137898103360084049000000002729070020062021PAGO NOMINA                   11CRA1504189V9 00000000000000dgarcia@gruposeri.com                  20062021JOSE ALEJANDRO DELFIN GUZMAN                                          
04903565       0000000000029234784900137867101666798729000000002729070020062021PAGO NOMINA                   11CRA1504189V9 00000000000000dgarcia@gruposeri.com                  20062021ITZEL GABRIELA HERNANDEZ MUNOZ                                        
04904105       0000000000029234784900137290104184021005000000002262530020062021PAGO NOMINA                   11CRA1504189V9 00000000000000dgarcia@gruposeri.com                  20062021MARIA ISABEL JIMENEZ CASANOVA                                         
04904336       0000000000029234784900137888130045551508000000003143550020062021PAGO NOMINA                   11CRA1504189V9 00000000000000dgarcia@gruposeri.com                  20062021RICARDO SANCHEZ HINOJOSA                                              
04902078       0000000000029234784900137653130015250718000000003361180020062021PAGO NOMINA                   11CRA1504189V9 00000000000000dgarcia@gruposeri.com                  20062021YESSICA MORALES CONTRERAS                                             
04901889       0000000000029234784900137650104087605993000000003361180020062021PAGO NOMINA                   11CRA1504189V9 00000000000000dgarcia@gruposeri.com                  20062021LIMBERG MARROQUIN HERNANDEZ                                           
04902862       0000000000029234784900137813130034157108000000003143550020062021PAGO NOMINA                   11CRA1504189V9 00000000000000dgarcia@gruposeri.com                  20062021RICARDO ESTEBAN MIRAMON ROSETE                                        
0493357        0000000000029234784900137885130035205579000000003246170020062021PAGO NOMINA                   11CRA1504189V9 00000000000000dgarcia@gruposeri.com                  20062021CLAUDIA PATRICIA PEREZ GUTIERREZ                                      
0493332        0000000000029234784900137813104013067876000000002946170020062021PAGO NOMINA                   11CRA1504189V9 00000000000000dgarcia@gruposeri.com                  20062021AGUSTIN OSWALDO NAVA MAYORAL                                          
0493303        0000000000029234784900137894103997149539000000002946170020062021PAGO NOMINA                   11CRA1504189V9 00000000000000dgarcia@gruposeri.com                  20062021MAGALI GUADALUPE DEL ANGEL SANTIAGO                                   
0493323        0000000000029234784900137291102592924478000000002729070020062021PAGO NOMINA                   11CRA1504189V9 00000000000000dgarcia@gruposeri.com                  20062021YAQUELIN OLVERA TEJEDA                                                
0493316        0000000000029234784900137650104005798015000000003361180020062021PAGO NOMINA                   11CRA1504189V9 00000000000000dgarcia@gruposeri.com                  20062021LUIS ALFREDO MINTO ORTIZ                                              
0493397        0000000000029234784900137650101430328639000000003030460020062021PAGO NOMINA                   11CRA1504189V9 00000000000000dgarcia@gruposeri.com                  20062021GUADALUPE MARTINEZ PEREZ                                              
0493391        0000000000029234784900137903103429436038000000002729070020062021PAGO NOMINA                   11CRA1504189V9 00000000000000dgarcia@gruposeri.com                  20062021ADRIANA SINAI GOMEZ RAMIREZ                                           
0492936        0000000000029234784900137877100476237966000000002946170020062021PAGO NOMINA                   11CRA1504189V9 00000000000000dgarcia@gruposeri.com                  20062021ENRIQUE MOCTEZUMA ANAYA                                               
0493103        0000000000029234784900137830103547206006000000002538830020062021PAGO NOMINA                   11CRA1504189V9 00000000000000dgarcia@gruposeri.com                  20062021JUAN MIGUEL BALTAZARES GONZALEZ                                       
0493047        0000000000029234784900137905103926178208000000003143550020062021PAGO NOMINA                   11CRA1504189V9 00000000000000dgarcia@gruposeri.com                  20062021JOSE IRVING LOPEZ OLMOS                                               
0493088        0000000000029234784900137855103673607936000000002223060020062021PAGO NOMINA                   11CRA1504189V9 00000000000000dgarcia@gruposeri.com                  20062021LUIS ALBERTO SORCIA TRUJILLO                                          
0493187        0000000000029234784900137669170007122727000000002729070020062021PAGO NOMINA                   11CRA1504189V9 00000000000000dgarcia@gruposeri.com                  20062021MARIAN KELLY ROSAS SANCHEZ                                            
0491942        0000000000029234784900137841103414556726000000002096590020062021PAGO NOMINA                   11CRA1504189V9 00000000000000dgarcia@gruposeri.com                  20062021NEREYDA DEL CARMEN ANTONIO HERNANDEZ                                  
