100001E0618202165505074061     06182021
2000020904286LOPEZ                         ESTEBAN             ALFONSO                       20012843223     000000000000274784
2000030904306MENDEZ                        HERNANDEZ           TERESA DE JESUS               56755759947     000000000000274784
2000040081057MONTOYA                       GOMEZ               FREDY ALONSO                  20011718013     000000000000274784
2000050081029MORALES                       GOMEZ               SILVIA GUADALUPE              60603473859     000000000000269416
2000060080960MORENO                        CANTO               JOSE BERNARDO                 56783893068     000000000000177247
2000070080928NANDAYAPA                     NURIULU             GEOVANY ALEXANDER             60609052068     000000000000215903
2000080080822PEREZ                         JIMENEZ             DANIEL                        60604516957     000000000000209588
2000090080147HERNANDEZ                     LOPEZ               TERESA DE JESUS               60580202641     000000000000534835
2000100080327CASTELLANOS                   MENDOZA             ANGELA                        56655759055     000000000000238802
2000110080140SANCHEZ                       GONZALEZ            CARLOS                        60567491418     000000000000283799
2000120080091LAZARO                        GUTIERREZ           ISABEL VERONICA               60612246033     000000000000253742
30001300011000000000003007684
