000000001                991592793052          000000000274784MARITZA GOMEZ RODRIGUEZ                 001001
000000002                991122741946          000000000613598CANDELARIA HERNANDEZ PEREZ              001001
000000003                991160425141          000000000439691FELIPE DE JESUS CAMACHO CRUZ            001001
000000004                992932625075          000000000733572YAZMIN GUADALUPE TOLEDO CHACON          001001
000000005                992847259301          000000000534835CONCEPCION GUADALUPE VELASCO PEREZ      001001
000000006                991140583227          000000000212247LUCIA ALVAREZ PEREZ                     001001
000000007                991137355343          000000000276428ELIDIA ROMERO VERA                      001001
000000008                991502095661          000000000224386ISIDRO DIONICIO HERNANDEZ SANCHEZ       001001
000000009                991547044801          000000000299186JORGE LUIS GUTIERREZ SANCHEZ            001001
000000010                991506511821          000000000212247MARIA LIDIA SANCHEZ MACAL               001001
000000011                992884829921          000000000385956ULISES CAMACHO MARROQUIN                001001
000000012                992897968256          000000000238930MISAEL PEREZ SANTOS                     001001
000000013                992757734425          000000000299186EDUARDO HERNANDEZ REYES                 001001
000000014                991544999991          000000000442813MARCOS GENAREZ AGUILAR                  001001
000000015                991123619680          000000000428168HUGO DELIS MOLINA GUTIERREZ             001001
000000016                992896191762          000000000534835CARLOS FERNANDO GARCIA MARTINEZ         001001
000000017                992915631734          000000000177923DAVID SALINAS DE LOS SANTOS             001001
000000018                992710556238          000000000652825MAILIN PEREZ PEREZ                      001001
000000019                991530390275          000000000299203ALFREDO RODRIGUEZ ROQUE                 001001
000000020                992990647136          000000000274757JAZMIN TOLEDO HERNANDEZ                 001001
000000021                992994888790          000000000231408TANIA JACQUELINE FARRERA CHACON         001001
000000022                991147094663          000000000184593ISRAEL CLEMENTE LOPEZ                   001001
000000023                991142530457          000000000274764MONICA VIRIDIANA HERNANDEZ LOPEZ        001001
000000024                991135405521          000000000274764VICENTE MIGUEL COUTINO GONZALEZ         001001
000000025                992973633527          000000000247246JUAN ANTONIO ESCOBAR VILLATORO          001001
000000026                991501832735          000000000404281BERTHA JUDITH ESPINOZA TORRES           001001
000000027                991530134562          000000000212261JOSEFA MAGDALENA MARTINEZ TRUJILLO      001001
000000028                991520085545          000000000517927JUAN CARLOS HERNANDEZ ALVAREZ           001001
000000029                991541212613          000000000404293ALONDRA PEREZ ARCHILA                   001001
000000030                992799200975          000000000274771BRENDA IVONNE PEREZ SANCHEZ             001001
000000031                992866091490          000000000405881MADIOLIDETH GRAJALES TOALA              001001
000000032                991547442165          000000000342289WENDY JANETH ANGEL MORENO               001001
000000033                991512982587          000000000239401VANESSA OCHOA GARCIA                    001001
000000034                991553866912          000000000269401YONENDY HERNANDEZ CALDERON              001001
000000035                991541637940          000000000274771MARTHA ELENA AGUILAR DIAZ               001001
000000036                991536466532          000000000274771ZURI SADAI GUTIERREZ DOMINGUEZ          001001
000000037                991555204119          000000000199540ISRAEL CHABLE MAGANA                    001001
000000038                991515351251          000000000448422CARIME COLORADO SOTO                    001001
000000039                991542883899          000000000534871JOSE LUIS GALDAMEZ PEREZ                001001
000000040                991561258532          000000000126492LUIS GUSTAVO SANCHEZ MORALES            001001
000000041                991572955210          000000000534890EDUARDO CASTANEDA MARIN                 001001
000000042                991523539811          000000000214235GEORGE MICHAEL MARROQUIN GOMEZ          001001
000000043                991543012557          000000000214122VILAS MAURICIO GOMEZ ENRIQUEZ           001001
000000044                991178808147          000000000226506VERONICA SANTIZ LOPEZ                   001001
000000045                991552982245          000000000274778WILBERT ANTONIO TOLEDO SANCHEZ          001001
000000046                992979766863          000000000747572GRISSELL NICTE HA POOT KITUC            001001
000000047                991177751028          000000000427956MIGUEL ANGEL MONTALVO QUINONES          001001
000000048                991534593731          000000000546803JUAN CARLOS LOPEZ GOMEZ                 001001
000000049                992856544630          000000000534908ARTEMIO DE JESUS JIMENEZ DIAZ           001001
000000050                991587620322          000000000274784DAVID DE JESUS JIMENEZ GUTIERREZ        001001
000000051                991541632828          000000000274784SANDY YUSETH GOMEZ ESCOBAR              001001
000000052                991533712845          000000000254416KAREN ROSALINDA DIAZ MORALES            001001
000000053                991570756482          000000000186072NOEL AARON BAMACA GONZALEZ              001001
000000054                991529477520          000000000376402CUAUHTEMOC DONOVAN VAZQUEZ QUINTO       001001
000000055                991525219523          000000000188201PATRICIA SANCHEZ DE LA CRUZ             001001
000000056                991543857232          000000000274784PEDRO DE LA CRUZ GOMEZ                  001001
000000057                991551900420          000000000274784DIMAS JOSUE COUTINO DE PAZ              001001
000000058                991553068927          000000000107637JOSE GUADALUPE DE LA CRUZ SANCHEZ       001001
000000059                991591890894          000000000274784CRISTAMELINA MUNIVE SANTOS              001001
000000060                991170447404          000000000274784JUAN JOSE HERNANDEZ JIMENEZ             001001
000000061                991576677374          000000000274784IRAN ROMEO GARCIA PEREZ                 001001
000000062                991562196934          000000000224416LUCRECIA FAVIOLA ZUNIGA GOMEZ           001001
000000063                991539521219          000000000224416LUIS ARTEMIO SOLIS ACERO                001001
000000064                991556124542          000000000256705REYNALDO DE JESUS HERNANDEZ CORZO       001001
000000065                991537496527          000000000254416MARIANA PALACIOS ARIAS                  001001
000000066                991539924640          000000000274784DAVID GILBERTO ACOSTA BONILLA           001001
000000067                991515825736          000000000190183MIGUEL ANGEL RODRIGUEZ PEREZ            001001
000000068                991590573178          000000000274784VALERIA DEL CARMEN VAZQUEZ GARCIA       001001
000000069                991501550303          000000000274784MARIA ALEJANDRA PENA NUCAMENDI          001001
000000070                991547885134          000000000239416MARTHA DEYSI RUIZ NUNEZ                 001001
000000071                991519855346          000000000254416DIANA LAURA MENDEZ SANTIZ               001001
000000072                991543871676          000000000274784STEPHANIE BERENICE CHI ALCUDIA          001001
000000073                991533349678          000000000274784CARLOS MARIO DE LA PIEDRA AGUILAR       001001
000000074                991561340514          000000000274784DEY MARINA CABALLERO MARTINEZ           001001
000000075                991153249611          000000000274784DANNY UBEL MORENO LAZARO                001001
000000076                991557043937          000000000274784JUANA LOPEZ SANTIS                      001001
