000000001                992668797919          000000000104491MIGUEL ANGEL ZENDEJAS DE LA CRUZ        001001
000000002                992978248508          000000000055089ARTURO AGUILAR ROJAS                    001001
000000003                992796096387          000000000104491JONATAN RUIZ JIMENEZ                    001001
000000004                990168957517          000000000104491SERGIO SANTOS SUAREZ                    001001
000000005                992668570051          000000000089037JOAQUIN HERNANDEZ MORENO                001001
000000006                992885182557          000000000089037JOSE JUAN BECERRA BADILLO               001001
000000007                992720372633          000000000104491JUAN ANTONIO VARGAS SANTOS              001001
000000008                991530954934          000000000104491ARIEL BENJAMIN LOZANO RIQUELME          001001
000000009                992904915062          000000000057385LUIS ANGEL VALDEZ VILLEGAS              001001
000000010                992935664004          000000000104491FIDENCIO DE SANTIAGO DE SANTIAGO        001001
000000011                991502180522          000000000104491SILVIA BOTELLO ORDONEZ                  001001
000000012                991579382529          000000000104491VIVIANA RIVERA HERNANDEZ                001001
000000013                991521747204          000000000104491FERNANDO GOMEZ CRUZ                     001001
000000014                991585783082          000000000104491CRISTIAN GARCIA REYES                   001001
000000015                991528187731          000000000104491ESTEBAN EMMANUEL BARRERA HERNANDEZ      001001
000000016                991140777226          000000000104491JOSE ALEJANDRO NAZARIO GAYTAN           001001
000000017                991574956799          000000000104491ALEXIS ALFONSO AMEZQUITA HERNANDEZ      001001
000000018                991517348371          000000000104491ANTONIO MONTIEL ESCOBAR                 001001
000000019                991561572426          000000000042003ERIK DAMIAN MORENO PEREZ                001001
