100001E0408202165507480121     04082021
2000020100187GOMEZ                         PADILLA             JOSE BENITO                   60620089911     000000000000104491
2000030100543MICHUA                        CUEVAS              LUIS ANTONIO                  56782964660     000000000000104491
2000040101644SANCHEZ                       MONTES DE OCA       JOSE LUIS                     56806167775     000000000000101954
2000050103052BARRON                        DIEGO               JULIO CESAR                   56792175731     000000000000057385
2000060103626LOPEZ                         RODRIGUEZ           MARCO ANTONIO                 60617224638     000000000000089037
2000070103823OSORIO                        SANCHEZ             JUAN JESUS                    56804035160     000000000000104491
2000080104412GARCIA                        HERNANDEZ           ANTONIO IVAN                  60602664365     000000000000104491
2000090106884MELENA                        RODRIGUEZ           MARIA ELIZABETH               60614383786     000000000000057385
2000100108423GARCIA                        GUERRERO            MARIO                         56785880976     000000000000104491
2000110109227RANGEL                        LUCAS               ELENA JOSEFINA                60618728298     000000000000104491
2000120114093ESTRADA                       DURAN               JUAN GABRIEL                  60570246935     000000000000104491
2000130127077VELAZQUEZ                     RUEDA               JORGE ALBERTO                 56790725160     000000000000104491
2000140131008JOSE                          JIMENEZ             BERTIN                        56798849691     000000000000104491
30001500013000000000001246180
