100001E0618202165505074058     06182021
2000020070106ROBLERO                       RAMIREZ             JAIRO ELI                     60614274939     000000000000411433
2000030070142VAZQUEZ                       OSORIO              EDREY                         56627224260     000000000000515383
2000040070331JIMENEZ                       ALBOREZ             JUAN CARLOS                   56641625766     000000000000406370
2000050070569MORALES                       VAZQUEZ             FRANCISCO ANTONIO             56681190087     000000000000448373
2000060070676AGUILAR                       ROBLERO             WENDY PATRICIA                60601045488     000000000000171307
2000070070718VELAZQUEZ                     TRUJILLO            CLAUDIA PATRICIA              56727100752     000000000000228902
2000080070889PARRA                         MALDONADO           DENIZ KAZUMY                  60602258037     000000000000156033
2000090901251FUENTES                       GUTIERREZ           JAIME ANTONIO                 56795674632     000000000000272907
2000100901285MORENO                        HERNANDEZ           JULIO FERNANDO                60615911171     000000000000272907
2000110902426CRUZ                          OLIVERA             JAVIER IVAN                   60563447632     000000000000272907
2000120902466LOPEZ                         LOPEZ               MARILI FABIOLA                25002154842     000000000000272907
30001300011000000000003429429
