10001068587471806210001ASESORES EN ADMINISTRACION Y SERVICCNOMINA 18062021     05                                        C00
2100100000000000537968001700900000000000004522887
300010000000000001708370100000000090137698829                              0000070047CLAUDIA ZUNIGA ALTAMIRANO                              NOMINA                                                          0000       00
300010000000000004780390100000000090217942585                              0000070063MARIA GABRIELA MANZO LORENZO                           NOMINA                                                          0000       00
300010000000000002700870100000000090166454963                              0000070074ERNESTO ENRIQUE AGUILAR SOLIS                          NOMINA                                                          0000       00
300010000000000003005440100000000090262719277                              0000070084ADRIAN TOLEDO SANTOS                                   NOMINA                                                          0000       00
300010000000000005514450100000000090251382599                              0000070090JAVIER PERALTA ROJAS                                   NOMINA                                                          0000       00
300010000000000002165560100000000090213496602                              0000070100MARIANITO DE JESUS GARCIA ROBLES                       NOMINA                                                          0000       00
300010000000000005333730100000000090166839954                              0000070081MARIA DE LOURDES ORTEGA HERNANDEZ                      NOMINA                                                          0000       00
300010000000000005333950100000000090216660209                              0000070107ADRIANA RUBIO LOPEZ                                    NOMINA                                                          0000       00
300010000000000004106130100000000090165561715                              0000070193JORGE ALBERTO MARTINEZ SILVAS                          NOMINA                                                          0000       00
300010000000000004690820100000000090170726196                              0000070196SAMUEL QUINTANILLA HERNANDEZ                           NOMINA                                                          0000       00
300010000000000003143310100000000090329622567                              0000070228DANIEL MAYORAL MURAKAHUA                               NOMINA                                                          0000       00
300010000000000002288960100000000090391627737                              0000070478LIZBETH MORENO GONZALEZ                                NOMINA                                                          0000       00
300010000000000004150010100000000070088960724                              0000070636GUADALUPE PENA MADARIAGA                               NOMINA                                                          0000       00
300010000000000002729070100000000090246151538                              0000070777ROBERTO CARLOS GOMEZ MORENO                            NOMINA                                                          0000       00
300010000000000002145740100000000090419078017                              0000903303MARCO ANTONIO BRAVO LORENZO                            NOMINA                                                          0000       00
4001000015000000000005379680000001000000000005379680
