000000001                992946437605          000000000267907HENRY JIMENEZ CASTELLANOS               001001
000000002                991534735024          000000000272907JOSE ANGEL MENDOZA RAMOS                001001
000000003                991593555334          000000000272907XIMENA PAOLA ESCOBAR BARRIOS            001001
000000004                991161397567          000000000272907DULCE KARINA DE JESUS CEJEDA            001001
000000005                991500928801          000000000272907GABRIELA DE LOS SANTOS CUETO            001001
000000006                991538306390          000000000272907LESLY YESENIA CALDERON TOLEDO           001001
000000007                991523683233          000000000272907LUIS ANGEL DOMINGUEZ VELAZQUEZ          001001
000000008                991495354498          000000001069101FRANCISCO ANSELMO BRINGAS MEDA          001001
000000009                992669508538          000000000228909GLADICELA DE LOS SANTOS CAMAS           001001
000000010                991563996690          000000000245847LUIS ENRIQUE COTA RODRIGUEZ             001001
000000011                991570638242          000000000272907MANUEL LOPEZ AMORES                     001001
000000012                991567187084          000000000245847JONATHAN CABALLERO VENTURA              001001
000000013                991579405011          000000000181125MARIA ALBINA LOPEZ DE LA ROSA           001001
000000014                991575811554          000000000190520JAIRO OBET ROJAS DE LA CRUZ             001001
000000015                992977741030          000000000201637HECTOR ALBERTO CONSUEGRA PEREZ          001001
000000016                991562810835          000000000272907DIANA ANAHI HERNANDEZ RUIZ              001001
000000017                992894056043          000000000272907JUAN CARLOS SOLIS TADEO                 001001
000000018                991537650515          000000000272907AMADA GUADALUPE PEREZ CANCINO           001001
000000019                991562695804          000000000145043ABRAHAM OSORIO LOPEZ                    001001
000000020                991581965525          000000000272907EMELIDA MATEO MARROQUIN                 001001
000000021                991526634294          000000000228909TANIA CAROLA HERNANDEZ ZACARIAS         001001
000000022                991546245366          000000000272907YESICA PAZ VERDUGO                      001001
000000023                992880025577          000000000272907FERNANDO RENE GONZALEZ JEREZ            001001
000000024                991528144276          000000000204638OBET ENRIQUE ARREOLA TRINIDAD           001001
000000025                992852795604          000000000309574ELVIS YOAN SANCHEZ ORTIZ                001001
000000026                991522249972          000000000150356BERTHA RODHE DE LEON HERNANDEZ          001001
000000027                991532708671          000000000272899ALEJANDRA CABRERA VILLAREAL             001001
000000028                991534907064          000000000159767YADIRA VELAZQUEZ SERENO                 001001
000000029                992677746237          000000000309340FERNANDO DOMINGUEZ PASCACIO             001001
000000030                992787366590          000000000228902PAOLA PEREZ RUIZ                        001001
000000031                991149952829          000000000636986MARICELA PEREZ MENDEZ                   001001
000000032                992985927390          000000000272893FABIOLA ESQUINCA CAMAS                  001001
000000033                991559774254          000000000356451GABRIEL VAZQUEZ AGUILAR                 001001
000000034                991151593188          000000000358227BRENDA PAOLA BRAVO CASTELLANOS          001001
000000035                991504287391          000000000272893FABIOLA DAMARI HERNANDEZ ESPINOSA       001001
000000036                991546248691          000000000162807RUTH ESTHER ANTONIO ZARATE              001001
000000037                992853898407          000000000308049MARCO ANTONIO MORALES ESPINOZA          001001
000000038                991126653790          000000000470288MONICA VEGA CHIRINO                     001001
000000039                992893152448          000000000301266ILSE JANETH CEH CRUZ                    001001
000000040                991132998386          000000000239353ROSA LILIA DIAZ CRUZ                    001001
000000041                991130015512          000000000218933ANABELL VELAZQUEZ LOPEZ                 001001
000000042                991141348299          000000000218926FRIDAICE CHEVEZ MEZA                    001001
000000043                991175281245          000000000218926BLANCA ELIDIA DIEGO CASTRO              001001
000000044                991138302227          000000000444829YANET MENDOZA VELAZQUEZ                 001001
000000045                991517022813          000000000162442ERIK IVAN DE LA CRUZ SALINAS            001001
000000046                991436227392          000000000218933MARIA MAGDALENA VILLATORO DE LOS SANTO  001001
000000047                991166153186          000000000402616CATALINA DE LA CRUZ VELAZQUEZ           001001
000000048                992898931348          000000000463095JOSE ALBERT RAMIREZ MARINA              001001
000000049                991516190604          000000000533395MAGDALENA RODRIGUEZ LOPEZ               001001
000000050                992883433773          000000000218933ZOILA YANETH MALDONADO ESCOBAR          001001
000000051                992886394337          000000000272886SAIRA CHIRINO HERNANDEZ                 001001
000000052                992903784665          000000000579199XOCHITL CITLALI SANCHEZ GUILLEN         001001
000000053                991526160215          000000000272907ROXANA JACQUELINE TOVILLA MOLINA        001001
000000054                991549073453          000000000533469GERSON GONZALEZ DOMINGUEZ               001001
000000055                991566444385          000000000294617BERTONY ALDAIR MONZON PEREZ             001001
000000056                991544216451          000000000272907BIRSI CAREMI DOMINGO BARTOLON           001001
000000057                991506366808          000000000170288JORGE ENRIQUE DOMINGUEZ CRUZ            001001
000000058                991510945831          000000000463751JAIRO JUAREZ ESTEBAN                    001001
