0410001        0000000000069717222000012244011301751532000000004108420008042021HONORARIOS                    11AER150418TW8 00000000000000dgarcia@gruposeri.com                  08042021SILVIA RAMIREZ GUTIERREZ                                              
0410007        0000000000069717222000012244011376928549000000002189260008042021HONORARIOS                    11AER150418TW8 00000000000000dgarcia@gruposeri.com                  08042021LAURA ADRIANA GARCIA FLORES                                           
0410011        0000000000069717222000012225029591594879000000004493750008042021HONORARIOS                    11AER150418TW8 00000000000000dgarcia@gruposeri.com                  08042021CARLOS ALFREDO PEREZ VILLA                                            
0410018        0000000000069717222000012320027504863614000000008694290008042021HONORARIOS                    11AER150418TW8 00000000000000dgarcia@gruposeri.com                  08042021ALEJANDRA YANETH FLORES SIFUENTES                                     
0410022        0000000000069717222000012320027907099991000000004438280008042021HONORARIOS                    11AER150418TW8 00000000000000dgarcia@gruposeri.com                  08042021ELIZABETH HERNANDEZ CASTELLANOS                                       
0410039        0000000000069717222000012225015094927588000000001668220008042021HONORARIOS                    11AER150418TW8 00000000000000dgarcia@gruposeri.com                  08042021MA DE LOURDES CAUDILLO VAZQUEZ                                        
0410040        0000000000069717222000012320028681544570000000002288800008042021HONORARIOS                    11AER150418TW8 00000000000000dgarcia@gruposeri.com                  08042021ESTHER DEL ROCIO ARELLANO OCAMPO                                      
0410058        0000000000069717222000012320028462929178000000002010590008042021HONORARIOS                    11AER150418TW8 00000000000000dgarcia@gruposeri.com                  08042021KALEP EFRAIN MATA ORTIZ                                               
0410080        0000000000069717222000012320028953248151000000004071650008042021HONORARIOS                    11AER150418TW8 00000000000000dgarcia@gruposeri.com                  08042021ALEJANDRA MONSIVAIS CHAVEZ                                            
0410086        0000000000069717222000012506014053654732000000001641480008042021HONORARIOS                    11AER150418TW8 00000000000000dgarcia@gruposeri.com                  08042021CARMEN MIROSLAVA HURTADO RUEDA                                        
0410087        0000000000069717222000012528015266658887000000005333950008042021HONORARIOS                    11AER150418TW8 00000000000000dgarcia@gruposeri.com                  08042021JEANNETE AMAIREANI ROMERO CERDA                                       
0410096        0000000000069717222000012320029682785395000000002427550008042021HONORARIOS                    11AER150418TW8 00000000000000dgarcia@gruposeri.com                  08042021MANUELA LIZETTE YEH FERNANDEZ                                         
0410104        0000000000069717222000012528004702946679000000002740100008042021HONORARIOS                    11AER150418TW8 00000000000000dgarcia@gruposeri.com                  08042021GUSTAVO ALONSO RODRIGUEZ PEREZ                                        
0410111        0000000000069717222000012375011609001840000000003360920008042021HONORARIOS                    11AER150418TW8 00000000000000dgarcia@gruposeri.com                  08042021IVONNE JAZMIN GONZALEZ HERNANDEZ                                      
0410150        0000000000069717222000012497015108894746000000004178980008042021HONORARIOS                    11AER150418TW8 00000000000000dgarcia@gruposeri.com                  08042021MARIA GUADALUPE GALLO LUVIANO                                         
0410163        0000000000069717222000012476015292783140000000003632020008042021HONORARIOS                    11AER150418TW8 00000000000000dgarcia@gruposeri.com                  08042021MARIA DE JESUS PAZ ESPINOZA                                           
0410063        0000000000069717222000012498028396753025000000010040000008042021HONORARIOS                    11AER150418TW8 00000000000000dgarcia@gruposeri.com                  08042021RUBEN OMAR RAMIREZ CORREA                                             
0410291        0000000000069717222000012225015048034508000000002173160008042021HONORARIOS                    11AER150418TW8 00000000000000dgarcia@gruposeri.com                  08042021LUIS MIGUEL MENDOZA GONZALEZ                                          
0410314        0000000000069717222000012215015800976199000000001888510008042021HONORARIOS                    11AER150418TW8 00000000000000dgarcia@gruposeri.com                  08042021PAULA LIDIA MEDINA ALVARADO                                           
0410385        0000000000069717222000012528028717870473000000002055050008042021HONORARIOS                    11AER150418TW8 00000000000000dgarcia@gruposeri.com                  08042021ERICK EDUARDO URIBE MARTINEZ                                          
0410392        0000000000069717222000012528011457879631000000002170510008042021HONORARIOS                    11AER150418TW8 00000000000000dgarcia@gruposeri.com                  08042021ROLANDO ARTEMIO RAMIREZ SERENO                                        
0410465        0000000000069717222000012180015261964655000000004149900008042021HONORARIOS                    11AER150418TW8 00000000000000dgarcia@gruposeri.com                  08042021JOSEFINA DOMINGUEZ RAMIREZ                                            
0410509        0000000000069717222000012320015281627431000000002429760008042021HONORARIOS                    11AER150418TW8 00000000000000dgarcia@gruposeri.com                  08042021MIGUEL ANGEL BAEZA OCHOA                                              
0410605        0000000000069717222000012180027100279017000000003599990008042021HONORARIOS                    11AER150418TW8 00000000000000dgarcia@gruposeri.com                  08042021AMERICA SAMANTHA MUNOZ CUEVAS                                         
0410742        0000000000069717222000012535015654268128000000003689240008042021HONORARIOS                    11AER150418TW8 00000000000000dgarcia@gruposeri.com                  08042021SAUL GRANADOS LUA                                                     
0410757        0000000000069717222000012320015460102968000000001815680008042021HONORARIOS                    11AER150418TW8 00000000000000dgarcia@gruposeri.com                  08042021ROSA MENDOZA CASTILLO                                                 
0410767        0000000000069717222000012320011509484622000000004784560008042021HONORARIOS                    11AER150418TW8 00000000000000dgarcia@gruposeri.com                  08042021SAUL ROMERO GONZALEZ                                                  
0410768        0000000000069717222000012760014717582766000000007640980008042021HONORARIOS                    11AER150418TW8 00000000000000dgarcia@gruposeri.com                  08042021DENNIA ALEJANDRA ARELLANO SANCHEZ                                     
0410801        0000000000069717222000012180015506720680000000002189470008042021HONORARIOS                    11AER150418TW8 00000000000000dgarcia@gruposeri.com                  08042021ANA MARIA SAMANO PARADA                                               
0410827        0000000000069717222000012497015736411711000000003143400008042021HONORARIOS                    11AER150418TW8 00000000000000dgarcia@gruposeri.com                  08042021AZUCENA SANDOVAL MAXIMINO                                             
0410900        0000000000069717222000012528011599908871000000002066350008042021HONORARIOS                    11AER150418TW8 00000000000000dgarcia@gruposeri.com                  08042021MARTHA ARCELIA VAZQUEZ ORTEGA                                         
0410937        0000000000069717222000012180015577142970000000004106370008042021HONORARIOS                    11AER150418TW8 00000000000000dgarcia@gruposeri.com                  08042021VANESSA GUADALUPE CEJA TORRES                                         
0410940        0000000000069717222000012240026713413321000000004108260008042021HONORARIOS                    11AER150418TW8 00000000000000dgarcia@gruposeri.com                  08042021MARIA DEL CARMEN RANGEL RODRIGUEZ                                     
0410956        0000000000069717222000012244015585823512000000002798290008042021HONORARIOS                    11AER150418TW8 00000000000000dgarcia@gruposeri.com                  08042021FRANCISCO TORRES CAUDILLO                                             
0410779        0000000000069717222000012225015003045422000000003361010008042021HONORARIOS                    11AER150418TW8 00000000000000dgarcia@gruposeri.com                  08042021ARTURO RODRIGUEZ RAMIREZ                                              
0411045        0000000000069717222000012476015074024687000000004133220008042021HONORARIOS                    11AER150418TW8 00000000000000dgarcia@gruposeri.com                  08042021JASMIN GONZALEZ BARRERA                                               
0411052        0000000000069717222000012215027070391741000000005398050008042021HONORARIOS                    11AER150418TW8 00000000000000dgarcia@gruposeri.com                  08042021ELSA ELENA ESQUIVEL PICHARDO                                          
0411102        0000000000069717222000012320015656651676000000001536380008042021HONORARIOS                    11AER150418TW8 00000000000000dgarcia@gruposeri.com                  08042021ANA KARINA DIAZ MORALES                                               
0411119        0000000000069717222000012180015733343173000000003143470008042021HONORARIOS                    11AER150418TW8 00000000000000dgarcia@gruposeri.com                  08042021MARIA DE LOS ANGELES DIAZ JIMENEZ                                     
0411128        0000000000069717222000012180015743075855000000002946100008042021HONORARIOS                    11AER150418TW8 00000000000000dgarcia@gruposeri.com                  08042021GLORIA LISETH HERNANDEZ CAYETANO                                      
0411169        0000000000069717222000012227015053292485000000002804750008042021HONORARIOS                    11AER150418TW8 00000000000000dgarcia@gruposeri.com                  08042021MARCO ANTONIO LEDESMA HERNANDEZ                                       
0411210        0000000000069717222000012180015828299598000000004967390008042021HONORARIOS                    11AER150418TW8 00000000000000dgarcia@gruposeri.com                  08042021MARISOL HERNANDEZ DIAZ                                                
0411252        0000000000069717222000012180015859856094000000003882100008042021HONORARIOS                    11AER150418TW8 00000000000000dgarcia@gruposeri.com                  08042021CARLOS SILVA JIMENEZ                                                  
0411258        0000000000069717222000012180015864111423000000002357510008042021HONORARIOS                    11AER150418TW8 00000000000000dgarcia@gruposeri.com                  08042021MARIA GUADALUPE ARENAS REYES                                          
0411293        0000000000069717222000012506015660996963000000002118960008042021HONORARIOS                    11AER150418TW8 00000000000000dgarcia@gruposeri.com                  08042021MARIA DE LA SALUD GUZMAN AYALA                                        
0411294        0000000000069717222000012180015105417996000000003311090008042021HONORARIOS                    11AER150418TW8 00000000000000dgarcia@gruposeri.com                  08042021DIANA IRIS MARQUINA MARTINEZ                                          
0411312        0000000000069717222000012528015021315637000000002946170008042021HONORARIOS                    11AER150418TW8 00000000000000dgarcia@gruposeri.com                  08042021ROSA HILDA WALDO HERRERA                                              
0411389        0000000000069717222000012528029682177501000000006498490008042021HONORARIOS                    11AER150418TW8 00000000000000dgarcia@gruposeri.com                  08042021ANA ROSA PARDO GONZALEZ                                               
0411396        0000000000069717222000012248004684477216000000000739890008042021HONORARIOS                    11AER150418TW8 00000000000000dgarcia@gruposeri.com                  08042021SUSANA VARGAS FLORES                                                  
0411427        0000000000069717222000012215015538378263000000002757510008042021HONORARIOS                    11AER150418TW8 00000000000000dgarcia@gruposeri.com                  08042021JORGE ALEJANDRO CAZARES MONTOYA                                       
0411522        0000000000069717222000012476015205766824000000002946260008042021HONORARIOS                    11AER150418TW8 00000000000000dgarcia@gruposeri.com                  08042021MINERVA DEL CARMEN ESPINOZA GOMEZ                                     
0411561        0000000000069717222000012261015259724454000000002728990008042021HONORARIOS                    11AER150418TW8 00000000000000dgarcia@gruposeri.com                  08042021MARIBEL RUIZ PARRA                                                    
0411652        0000000000069717222000012497015008631300000000001506480008042021HONORARIOS                    11AER150418TW8 00000000000000dgarcia@gruposeri.com                  08042021ALMA ESTHER LOPEZ GUZMAN                                              
0411679        0000000000069717222000012375015768784855000000003143390008042021HONORARIOS                    11AER150418TW8 00000000000000dgarcia@gruposeri.com                  08042021DORILIAN ESTRADA SANCHEZ                                              
0411682        0000000000069717222000012476015217283049000000002946170008042021HONORARIOS                    11AER150418TW8 00000000000000dgarcia@gruposeri.com                  08042021MIGUEL ANGEL VILLANUEVA GARCIA                                        
0411698        0000000000069717222000012180015516972114000000002729070008042021HONORARIOS                    11AER150418TW8 00000000000000dgarcia@gruposeri.com                  08042021MONICA PALACIOS SANCHEZ                                               
0411749        0000000000069717222000012476028810326905000000004079600008042021HONORARIOS                    11AER150418TW8 00000000000000dgarcia@gruposeri.com                  08042021RAUL CRUZ GARCIA                                                      
0411785        0000000000069717222000012180015023512290000000003378130008042021HONORARIOS                    11AER150418TW8 00000000000000dgarcia@gruposeri.com                  08042021MARIA GUADALUPE SANDOVAL AYALA                                        
0411813        0000000000069717222000012222012143322027000000002756210008042021HONORARIOS                    11AER150418TW8 00000000000000dgarcia@gruposeri.com                  08042021OMAR PEREZ CAMACHO                                                    
0411822        0000000000069717222000012180015947076414000000002997820008042021HONORARIOS                    11AER150418TW8 00000000000000dgarcia@gruposeri.com                  08042021FIDEL ALTAMIRANO JUAREZ                                               
0411863        0000000000069717222000012535015355771396000000002946240008042021HONORARIOS                    11AER150418TW8 00000000000000dgarcia@gruposeri.com                  08042021IGNACIO ALVAREZ HERNANDEZ                                             
0411893        0000000000069717222000012320015334508724000000007271930008042021HONORARIOS                    11AER150418TW8 00000000000000dgarcia@gruposeri.com                  08042021CARLOS HUMBERTO PADILLA ORTIZ                                         
0411900        0000000000069717222000012215029803359835000000001901490008042021HONORARIOS                    11AER150418TW8 00000000000000dgarcia@gruposeri.com                  08042021SANDRA ALEXIS PUCH CHAY                                               
0411913        0000000000069717222000012180015633695390000000003143550008042021HONORARIOS                    11AER150418TW8 00000000000000dgarcia@gruposeri.com                  08042021BENIGNO MAGALLAN TINOCO                                               
0411918        0000000000069717222000012180015266634126000000003361280008042021HONORARIOS                    11AER150418TW8 00000000000000dgarcia@gruposeri.com                  08042021LUIS ANGEL CARRILLO RODRIGUEZ                                         
0411919        0000000000069717222000012180015688132727000000002168480008042021HONORARIOS                    11AER150418TW8 00000000000000dgarcia@gruposeri.com                  08042021OSCAR DANIEL DORADO GARCIA                                            
0411903        0000000000069717222000012535015570342102000000002419730008042021HONORARIOS                    11AER150418TW8 00000000000000dgarcia@gruposeri.com                  08042021MARIA DEL CARMEN VAZQUEZ AYALA                                        
0411907        0000000000069717222000012180015287595817000000002946240008042021HONORARIOS                    11AER150418TW8 00000000000000dgarcia@gruposeri.com                  08042021GUSTAVO OREGEL ORTA                                                   
0411958        0000000000069717222000012528015659393720000000002175870008042021HONORARIOS                    11AER150418TW8 00000000000000dgarcia@gruposeri.com                  08042021MARIA GUADALUPE GONZALEZ SANDOVAL                                     
0411966        0000000000069717222000012320029035460717000000002623400008042021HONORARIOS                    11AER150418TW8 00000000000000dgarcia@gruposeri.com                  08042021JESUS ENRIQUE MIRANDA SICOURET                                        
0411972        0000000000069717222000012470014045850971000000003468550008042021HONORARIOS                    11AER150418TW8 00000000000000dgarcia@gruposeri.com                  08042021ADRIAN TELLEZ ZACARIAS                                                
0411977        0000000000069717222000012180015894038877000000003149120008042021HONORARIOS                    11AER150418TW8 00000000000000dgarcia@gruposeri.com                  08042021LISSETH MONSERRAT SALAS MILANES                                       
0411985        0000000000069717222000012320015453235871000000003361180008042021HONORARIOS                    11AER150418TW8 00000000000000dgarcia@gruposeri.com                  08042021PABLO ALFONSO CORTES HERNANDEZ                                        
0411990        0000000000069717222000012535014396338553000000001267340008042021HONORARIOS                    11AER150418TW8 00000000000000dgarcia@gruposeri.com                  08042021HORACIO ALEJANDRO GARCIA PEREZ                                        
0411991        0000000000069717222000012528015760345861000000004215440008042021HONORARIOS                    11AER150418TW8 00000000000000dgarcia@gruposeri.com                  08042021LUIS FERNANDO GARCIA BENAVIDES                                        
0411993        0000000000069717222000012180015833858872000000002729070008042021HONORARIOS                    11AER150418TW8 00000000000000dgarcia@gruposeri.com                  08042021IVAN LAUREL ZAVALA                                                    
0411995        0000000000069717222000012528015853157128000000002959240008042021HONORARIOS                    11AER150418TW8 00000000000000dgarcia@gruposeri.com                  08042021KARINA EDITH MARIN HERNANDEZ                                          
0411934        0000000000069717222000012232029960038771000000002560060008042021HONORARIOS                    11AER150418TW8 00000000000000dgarcia@gruposeri.com                  08042021ALEJANDRA DE JESUS SILVA FLORES                                       
0411946        0000000000069717222000012180015938621548000000002729070008042021HONORARIOS                    11AER150418TW8 00000000000000dgarcia@gruposeri.com                  08042021ALAN MOISES ORTEGA NIEVES                                             
0412014        0000000000069717222000012277015486599747000000005334690008042021HONORARIOS                    11AER150418TW8 00000000000000dgarcia@gruposeri.com                  08042021DULCE ELENA JIMENEZ TAPIA                                             
0412020        0000000000069717222000012222004727748954000000002729070008042021HONORARIOS                    11AER150418TW8 00000000000000dgarcia@gruposeri.com                  08042021LIZBETH DANIELA MARTINEZ MARTINEZ                                     
0412023        0000000000069717222000012282015886295982000000002239090008042021HONORARIOS                    11AER150418TW8 00000000000000dgarcia@gruposeri.com                  08042021ARIANA YARELY VEJAR REYES                                             
0412025        0000000000069717222000012180015556261814000000002729070008042021HONORARIOS                    11AER150418TW8 00000000000000dgarcia@gruposeri.com                  08042021KATYA PAOLA ZAPATA JIMENEZ                                            
0412030        0000000000069717222000012282028554704983000000003143550008042021HONORARIOS                    11AER150418TW8 00000000000000dgarcia@gruposeri.com                  08042021YUNUEN JANITZI TEODORO BENITEZ                                        
04901082       0000000000069717222000012225015089454354000000002729070008042021HONORARIOS                    11AER150418TW8 00000000000000dgarcia@gruposeri.com                  08042021SANDRA GUADALUPE MENDOZA RODRIGUEZ                                    
04901277       0000000000069717222000012180015090862313000000002946170008042021HONORARIOS                    11AER150418TW8 00000000000000dgarcia@gruposeri.com                  08042021LETICIA MARCELO TURJA                                                 
04901294       0000000000069717222000012838015058919945000000002946170008042021HONORARIOS                    11AER150418TW8 00000000000000dgarcia@gruposeri.com                  08042021LUIS GUTIERREZ LEON                                                   
04901346       0000000000069717222000012320015849457124000000002946170008042021HONORARIOS                    11AER150418TW8 00000000000000dgarcia@gruposeri.com                  08042021BETZY YUNUEN BARRERA NUNEZ                                            
04901390       0000000000069717222000012180015257299156000000003361180008042021HONORARIOS                    11AER150418TW8 00000000000000dgarcia@gruposeri.com                  08042021DIANA LAURA GUZMAN MERAZ                                              
04902074       0000000000069717222000012180015149371195000000002946170008042021HONORARIOS                    11AER150418TW8 00000000000000dgarcia@gruposeri.com                  08042021BERTHA CECILIA HERNANDEZ ESTRADA                                      
04902244       0000000000069717222000012320029313428510000000003361180008042021HONORARIOS                    11AER150418TW8 00000000000000dgarcia@gruposeri.com                  08042021JUAN ANTONIO JIMENEZ RAMIREZ                                          
04902313       0000000000069717222000012180015163162364000000003143550008042021HONORARIOS                    11AER150418TW8 00000000000000dgarcia@gruposeri.com                  08042021LUCIA MARTINEZ AGREDA                                                 
04902080       0000000000069717222000012528015941135971000000003143550008042021HONORARIOS                    11AER150418TW8 00000000000000dgarcia@gruposeri.com                  08042021JUAN FRANCISCO WALDO HERRERA                                          
04902637       0000000000069717222000012180015187958402000000002289090008042021HONORARIOS                    11AER150418TW8 00000000000000dgarcia@gruposeri.com                  08042021DIANA ELIBETH BELTRAN VILLANUEVA                                      
04902655       0000000000069717222000012476015188829804000000002946170008042021HONORARIOS                    11AER150418TW8 00000000000000dgarcia@gruposeri.com                  08042021ESPERANZA CASTILLO VALENCIA                                           
04903076       0000000000069717222000012180015550197560000000002859120008042021HONORARIOS                    11AER150418TW8 00000000000000dgarcia@gruposeri.com                  08042021FREDI SAID HERNANDEZ HERNANDEZ                                        
04903259       0000000000069717222000012885015068869685000000002729070008042021HONORARIOS                    11AER150418TW8 00000000000000dgarcia@gruposeri.com                  08042021BIANCA XITLALLI MORALES ANGELES                                       
04903774       0000000000069717222000012528015248755672000000002729070008042021HONORARIOS                    11AER150418TW8 00000000000000dgarcia@gruposeri.com                  08042021ARLYN DIANA MARTINEZ MERCED                                           
04903833       0000000000069717222000012506015715685938000000002946170008042021HONORARIOS                    11AER150418TW8 00000000000000dgarcia@gruposeri.com                  08042021MARIA ESMERALDA MOLINA NATIVIDAD                                      
04903952       0000000000069717222000012180015121562346000000002296280008042021HONORARIOS                    11AER150418TW8 00000000000000dgarcia@gruposeri.com                  08042021YANIRA MATILDE EUSEBIO MEDINA                                         
04904203       0000000000069717222000012225015791370250000000003143550008042021HONORARIOS                    11AER150418TW8 00000000000000dgarcia@gruposeri.com                  08042021LUIS FERNANDO MARTINEZ HERNANDEZ                                      
04904422       0000000000069717222000012180015320020757000000002729070008042021HONORARIOS                    11AER150418TW8 00000000000000dgarcia@gruposeri.com                  08042021LETICIA JUAREZ ROMERO                                                 
04903832       0000000000069717222000014225567927967789000000003143550008042021HONORARIOS                    11AER150418TW8 00000000000000dgarcia@gruposeri.com                  08042021LILIA MARISELA MALDONADO ZENON                                        
04903002       0000000000069717222000014320605895697511000000004106600008042021HONORARIOS                    11AER150418TW8 00000000000000dgarcia@gruposeri.com                  08042021RUBEN GUERRERO ZAMBRANO                                               
04902097       0000000000069717222000014320606029114018000000004106600008042021HONORARIOS                    11AER150418TW8 00000000000000dgarcia@gruposeri.com                  08042021ROSA GLADYS GARCIA RUIZ                                               
04901826       0000000000069717222000014261566775636861000000002729070008042021HONORARIOS                    11AER150418TW8 00000000000000dgarcia@gruposeri.com                  08042021DIANA OROPEZA TEODORO                                                 
04901836       0000000000069717222000014225606149500034000000003143550008042021HONORARIOS                    11AER150418TW8 00000000000000dgarcia@gruposeri.com                  08042021JESSICA DEL ROCIO PALOMINO VAZQUEZ                                    
04901319       0000000000069717222000014320606018802069000000001617580008042021HONORARIOS                    11AER150418TW8 00000000000000dgarcia@gruposeri.com                  08042021MARIA OLIVIER GARCIA MARTINEZ                                         
0412024        0000000000069717222000014535567212994982000000005334690008042021HONORARIOS                    11AER150418TW8 00000000000000dgarcia@gruposeri.com                  08042021ESTELA PARDO OROZCO                                                   
0411997        0000000000069717222000014225567704774373000000005334690008042021HONORARIOS                    11AER150418TW8 00000000000000dgarcia@gruposeri.com                  08042021JUAN CARLOS MOLINA RODRIGUEZ                                          
0411925        0000000000069717222000014320605933656414000000003361180008042021HONORARIOS                    11AER150418TW8 00000000000000dgarcia@gruposeri.com                  08042021LEONARDO JESUS BETANCOURT GUTIERREZ                                   
0411901        0000000000069717222000014320606053084978000000004732280008042021HONORARIOS                    11AER150418TW8 00000000000000dgarcia@gruposeri.com                  08042021ANA GUADALUPE BAUTISTA DIAZ                                           
0411676        0000000000069717222000014320567806279707000000001686020008042021HONORARIOS                    11AER150418TW8 00000000000000dgarcia@gruposeri.com                  08042021VERONICA MARCELA VELAZQUEZ OLGUIN                                     
0411821        0000000000069717222000014248605981932039000000003143390008042021HONORARIOS                    11AER150418TW8 00000000000000dgarcia@gruposeri.com                  08042021JOSE ANTONIO ARREDONDO PEREZ                                          
0411804        0000000000069717222000014261567667856428000000002946170008042021HONORARIOS                    11AER150418TW8 00000000000000dgarcia@gruposeri.com                  08042021REYNALDO CASTILLO PEREZ                                               
0411762        0000000000069717222000014476605627797449000000002729070008042021HONORARIOS                    11AER150418TW8 00000000000000dgarcia@gruposeri.com                  08042021JOSE LUIS RINCON HERNANDEZ                                            
0410791        0000000000069717222000014476605842451120000000002946030008042021HONORARIOS                    11AER150418TW8 00000000000000dgarcia@gruposeri.com                  08042021ALMA JANETH REYNA RUIZ                                                
0411520        0000000000069717222000014497230004561150000000002728990008042021HONORARIOS                    11AER150418TW8 00000000000000dgarcia@gruposeri.com                  08042021LAURA YANETH BALLESTEROS SANCHEZ                                      
0411445        0000000000069717222000014506566860752221000000002289020008042021HONORARIOS                    11AER150418TW8 00000000000000dgarcia@gruposeri.com                  08042021LILIANA FLORES RODRIGUEZ                                              
0411466        0000000000069717222000014528606068100827000000004478010008042021HONORARIOS                    11AER150418TW8 00000000000000dgarcia@gruposeri.com                  08042021JENNIFER MINERVA GONZALEZ GARCIA                                      
0411381        0000000000069717222000014215606049680925000000006231730008042021HONORARIOS                    11AER150418TW8 00000000000000dgarcia@gruposeri.com                  08042021YANETH PEREZ VALDOVINOS                                               
0411064        0000000000069717222000014790566973262168000000006066800008042021HONORARIOS                    11AER150418TW8 00000000000000dgarcia@gruposeri.com                  08042021EDMUNDO IGNACIO REYES ESPINOZA                                        
0410545        0000000000069717222000014375605895869129000000003143400008042021HONORARIOS                    11AER150418TW8 00000000000000dgarcia@gruposeri.com                  08042021MERY ESTEFANIA MORFIN ANCIRA                                          
0410331        0000000000069717222000014528605882921720000000005355470008042021HONORARIOS                    11AER150418TW8 00000000000000dgarcia@gruposeri.com                  08042021JENNIFER VANESSA LARIOS PANTOJA                                       
0410068        0000000000069717222000014528605616372532000000003487450008042021HONORARIOS                    11AER150418TW8 00000000000000dgarcia@gruposeri.com                  08042021JORGE ALFREDO BUCIO BETANCOURT                                        
0410072        0000000000069717222000014476605711541831000000001516280008042021HONORARIOS                    11AER150418TW8 00000000000000dgarcia@gruposeri.com                  08042021SILVERIO MEJIA GOMEZ                                                  
0410167        0000000000069717222000014528566875437645000000004288740008042021HONORARIOS                    11AER150418TW8 00000000000000dgarcia@gruposeri.com                  08042021HILDA MARBAN JARAMILLO                                                
0410116        0000000000069717222000014528605836248828000000005334130008042021HONORARIOS                    11AER150418TW8 00000000000000dgarcia@gruposeri.com                  08042021MARIO ALBERTO SANCHEZ MEJIA                                           
0410061        0000000000069717222000014506605582812261000000002876720008042021HONORARIOS                    11AER150418TW8 00000000000000dgarcia@gruposeri.com                  08042021EDUARDO PEDRAZA CARPIO                                                
0410013        0000000000069717222000014225566156697203000000003163310008042021HONORARIOS                    11AER150418TW8 00000000000000dgarcia@gruposeri.com                  08042021LUZ ELENA RAMIREZ MACIAS                                              
0410225        0000000000069717222000021180064193731176000000000599740008042021HONORARIOS                    11AER150418TW8 00000000000000dgarcia@gruposeri.com                  08042021DANIEL FLORES NIETO                                                   
0410788        0000000000069717222000021497064337701574000000003342090008042021HONORARIOS                    11AER150418TW8 00000000000000dgarcia@gruposeri.com                  08042021OMAR AVELINO BUSTOS                                                   
0411538        0000000000069717222000021282064559942300000000002728990008042021HONORARIOS                    11AER150418TW8 00000000000000dgarcia@gruposeri.com                  08042021OSBEL CORTEZ VALERIO                                                  
0411709        0000000000069717222000021497063913774405000000002729070008042021HONORARIOS                    11AER150418TW8 00000000000000dgarcia@gruposeri.com                  08042021MIGUEL ANGEL LAUREANO NAVARRO                                         
0411932        0000000000069717222000021320064829787199000000003311180008042021HONORARIOS                    11AER150418TW8 00000000000000dgarcia@gruposeri.com                  08042021NORMA CASTELLANOS CORONEL                                             
0411910        0000000000069717222000021320063950061691000000002903420008042021HONORARIOS                    11AER150418TW8 00000000000000dgarcia@gruposeri.com                  08042021ELBIA MARTINEZ MENDEZ                                                 
0412021        0000000000069717222000021506065050490858000000002729070008042021HONORARIOS                    11AER150418TW8 00000000000000dgarcia@gruposeri.com                  08042021SILVIA RAMOS VACA                                                     
04902790       0000000000069717222000021375065130927964000000003143550008042021HONORARIOS                    11AER150418TW8 00000000000000dgarcia@gruposeri.com                  08042021JESSICA MARIELA ESTRADA LOPEZ                                         
0412018        0000000000069717222000030225900004298983000000003361180008042021HONORARIOS                    11AER150418TW8 00000000000000dgarcia@gruposeri.com                  08042021GABRIELA CASILLAS BONILLA                                             
0411860        0000000000069717222000030222900011207164000000002729070008042021HONORARIOS                    11AER150418TW8 00000000000000dgarcia@gruposeri.com                  08042021MARIA DE LOS ANGELES PEREZ AVILES                                     
0411896        0000000000069717222000030320900019960350000000002351430008042021HONORARIOS                    11AER150418TW8 00000000000000dgarcia@gruposeri.com                  08042021FANNY MARGARITA ANAYA CORONA                                          
0411711        0000000000069717222000044320010026237651000000003775140008042021HONORARIOS                    11AER150418TW8 00000000000000dgarcia@gruposeri.com                  08042021XOCHITH GUADALUPE PRECIADO SANDOVAL                                   
0411545        0000000000069717222000044476106017584388000000003143470008042021HONORARIOS                    11AER150418TW8 00000000000000dgarcia@gruposeri.com                  08042021MARCO ANTONIO FIGUEROA SORIA                                          
0410000        0000000000069717222000044225017047121611000000007086150008042021HONORARIOS                    11AER150418TW8 00000000000000dgarcia@gruposeri.com                  08042021RUBEN LUQUE PENA                                                      
0410003        0000000000069717222000044225017044556496000000003535230008042021HONORARIOS                    11AER150418TW8 00000000000000dgarcia@gruposeri.com                  08042021JOSE JUAN IBARRA GUILLEN                                              
0410005        0000000000069717222000044225017045019181000000001903080008042021HONORARIOS                    11AER150418TW8 00000000000000dgarcia@gruposeri.com                  08042021JUAN ARTURO MORENO SANTIAGO                                           
0410146        0000000000069717222000044180001013521493000000007882490008042021HONORARIOS                    11AER150418TW8 00000000000000dgarcia@gruposeri.com                  08042021JESUS ADRIAN SORIANO HERNANDEZ                                        
04904068       0000000000069717222000044282256026729566000000005334690008042021HONORARIOS                    11AER150418TW8 00000000000000dgarcia@gruposeri.com                  08042021FRANCISCO TACUBA BLANCO                                               
04904076       0000000000069717222000062497008303589606000000003143550008042021HONORARIOS                    11AER150418TW8 00000000000000dgarcia@gruposeri.com                  08042021ANDRES BARRAGAN TORRES                                                
0411796        0000000000069717222000062497008256233106000000002289090008042021HONORARIOS                    11AER150418TW8 00000000000000dgarcia@gruposeri.com                  08042021ADILENE VELEZ GONZALEZ                                                
0411807        0000000000069717222000127261017068311158000000002946170008042021HONORARIOS                    11AER150418TW8 00000000000000dgarcia@gruposeri.com                  08042021MAYRA CECILIA PARAMO AGUILAR                                          
0411832        0000000000069717222000127320001120066175000000003311180008042021HONORARIOS                    11AER150418TW8 00000000000000dgarcia@gruposeri.com                  08042021MARICELA RAMIREZ FLORES                                               
0411858        0000000000069717222000127215001302100838000000002815670008042021HONORARIOS                    11AER150418TW8 00000000000000dgarcia@gruposeri.com                  08042021ALEJANDRO RODRIGUEZ CAMPOS                                            
0411766        0000000000069717222000127060001191407573000000002946170008042021HONORARIOS                    11AER150418TW8 00000000000000dgarcia@gruposeri.com                  08042021ELIZABETH RIVERA ALEMAN                                               
0411586        0000000000069717222000127320013198635076000000002354760008042021HONORARIOS                    11AER150418TW8 00000000000000dgarcia@gruposeri.com                  08042021LORENA SAYANY AGUILERA SANCHEZ                                        
0411636        0000000000069717222000127282001320767024000000004813280008042021HONORARIOS                    11AER150418TW8 00000000000000dgarcia@gruposeri.com                  08042021MARIANA PAREDES MILLAN                                                
0411687        0000000000069717222000127528013383606544000000002126600008042021HONORARIOS                    11AER150418TW8 00000000000000dgarcia@gruposeri.com                  08042021ELSA MONSERRAT RAMIREZ ARELLANO                                       
0411658        0000000000069717222000127320013366329677000000001930710008042021HONORARIOS                    11AER150418TW8 00000000000000dgarcia@gruposeri.com                  08042021CAROLINA LOPEZ AGUILA                                                 
0422772        0000000000069717222000127506001162919745000000002054290008042021HONORARIOS                    11AER150418TW8 00000000000000dgarcia@gruposeri.com                  08042021MARIA NALLELY MONROY VELAZQUEZ                                        
0412033        0000000000069717222000127282013800825940000000002946170008042021HONORARIOS                    11AER150418TW8 00000000000000dgarcia@gruposeri.com                  08042021PATRICIA SERRANO QUIRINO                                              
0412016        0000000000069717222000127528013102494704000000003143550008042021HONORARIOS                    11AER150418TW8 00000000000000dgarcia@gruposeri.com                  08042021MARIA ESPERANZA GUZMAN LEMUS                                          
0411924        0000000000069717222000127375001278881956000000003311180008042021HONORARIOS                    11AER150418TW8 00000000000000dgarcia@gruposeri.com                  08042021LUZ ELENA GARCIA TORRES                                               
0411981        0000000000069717222000127282013592789462000000002289090008042021HONORARIOS                    11AER150418TW8 00000000000000dgarcia@gruposeri.com                  08042021GILBERTO MACEDA VIDAL                                                 
0410580        0000000000069717222000127225001199564949000000004235180008042021HONORARIOS                    11AER150418TW8 00000000000000dgarcia@gruposeri.com                  08042021FRANCISCO ENRIQUE OSORIO BUTRON                                       
0411555        0000000000069717222000127261013143282038000000002728990008042021HONORARIOS                    11AER150418TW8 00000000000000dgarcia@gruposeri.com                  08042021JAHAIRA CAMACHO HERNANDEZ                                             
0411498        0000000000069717222000127215013925935698000000001052640008042021HONORARIOS                    11AER150418TW8 00000000000000dgarcia@gruposeri.com                  08042021JOSEFINA GONZALEZ YERENA                                              
0411504        0000000000069717222000127261013075666638000000002946090008042021HONORARIOS                    11AER150418TW8 00000000000000dgarcia@gruposeri.com                  08042021MARVIC MALENY CRUZ CARRANZA                                           
0411165        0000000000069717222000127497013728321243000000002946100008042021HONORARIOS                    11AER150418TW8 00000000000000dgarcia@gruposeri.com                  08042021MA DE JESUS AMBRIS DELGADO                                            
0411021        0000000000069717222000127528013211090947000000002288960008042021HONORARIOS                    11AER150418TW8 00000000000000dgarcia@gruposeri.com                  08042021MILAGROS ALVARADO AGUILAR                                             
0410773        0000000000069717222000127506001113774117000000002946030008042021HONORARIOS                    11AER150418TW8 00000000000000dgarcia@gruposeri.com                  08042021MARTIN SACRAMENTO LOPEZ LOPEZ                                         
04903349       0000000000069717222000127180013563361319000000003143550008042021HONORARIOS                    11AER150418TW8 00000000000000dgarcia@gruposeri.com                  08042021ERIC DE LA TORRE ROMERO                                               
04903589       0000000000069717222000127248001419905744000000003143550008042021HONORARIOS                    11AER150418TW8 00000000000000dgarcia@gruposeri.com                  08042021JUAN PABLO ESTRADA HERNANDEZ                                          
04902798       0000000000069717222000127180016425013139000000003143550008042021HONORARIOS                    11AER150418TW8 00000000000000dgarcia@gruposeri.com                  08042021LUIS ANGEL MARIN TAPIA                                                
04903040       0000000000069717222000127180001253223229000000003143550008042021HONORARIOS                    11AER150418TW8 00000000000000dgarcia@gruposeri.com                  08042021MARIO LOPEZ CHAVARRIA                                                 
04903210       0000000000069717222000127528013111735360000000003143550008042021HONORARIOS                    11AER150418TW8 00000000000000dgarcia@gruposeri.com                  08042021CECILIA ALEJO FLORES                                                  
04902076       0000000000069717222000127504001263363043000000003143550008042021HONORARIOS                    11AER150418TW8 00000000000000dgarcia@gruposeri.com                  08042021LIZANDRO ALCARAZ ESTRADA                                              
04902533       0000000000069717222000127476013543913886000000002289090008042021HONORARIOS                    11AER150418TW8 00000000000000dgarcia@gruposeri.com                  08042021RAFAEL NAVA ROCHA                                                     
04902536       0000000000069717222000127215013010894631000000003361180008042021HONORARIOS                    11AER150418TW8 00000000000000dgarcia@gruposeri.com                  08042021ANDRES JIMENEZ RODRIGUEZ                                              
04904411       0000000000069717222000127497013954059428000000003143550008042021HONORARIOS                    11AER150418TW8 00000000000000dgarcia@gruposeri.com                  08042021DIANA LUZ RAMIREZ VICTORIANO                                          
04903988       0000000000069717222000127222001213251814000000003361180008042021HONORARIOS                    11AER150418TW8 00000000000000dgarcia@gruposeri.com                  08042021FRANCISCO SERRATO ROSALES                                             
04902347       0000000000069717222000137277103343590647000000002729070008042021HONORARIOS                    11AER150418TW8 00000000000000dgarcia@gruposeri.com                  08042021ADRIANA AHUELICAN AHUIXTLE                                            
04902361       0000000000069717222000137225103219962607000000003361180008042021HONORARIOS                    11AER150418TW8 00000000000000dgarcia@gruposeri.com                  08042021OMAR JOSE GUADALUPE HERNANDEZ OROZCO                                  
04901972       0000000000069717222000137748103939426104000000003361180008042021HONORARIOS                    11AER150418TW8 00000000000000dgarcia@gruposeri.com                  08042021SANDRA BALTAZAR VIVANCO                                               
04901581       0000000000069717222000137248104071863920000000002729070008042021HONORARIOS                    11AER150418TW8 00000000000000dgarcia@gruposeri.com                  08042021MYRIAM HELENA RETIZ ROJAS                                             
04904117       0000000000069717222000137375103356591771000000002946170008042021HONORARIOS                    11AER150418TW8 00000000000000dgarcia@gruposeri.com                  08042021AMERICA MONTSERRAT CUETO RIVERA                                       
04904187       0000000000069717222000137282130057972629000000003143550008042021HONORARIOS                    11AER150418TW8 00000000000000dgarcia@gruposeri.com                  08042021JUAN LOPEZ RUIZ                                                       
0411166        0000000000069717222000137320103143600079000000003025050008042021HONORARIOS                    11AER150418TW8 00000000000000dgarcia@gruposeri.com                  08042021AIDE AVIGAIL VEGA LUGO                                                
0410296        0000000000069717222000137535102621829702000000002334490008042021HONORARIOS                    11AER150418TW8 00000000000000dgarcia@gruposeri.com                  08042021MELISSA VIDALES CARDENAS                                              
0410205        0000000000069717222000137528103642424396000000003280040008042021HONORARIOS                    11AER150418TW8 00000000000000dgarcia@gruposeri.com                  08042021MARIA DE LOURDES TINOCO CAMPOS                                        
0412010        0000000000069717222000137535102488627642000000002729070008042021HONORARIOS                    11AER150418TW8 00000000000000dgarcia@gruposeri.com                  08042021MARISOL BASTIDA PLASCENCIA                                            
0411947        0000000000069717222000137282102074118041000000002946170008042021HONORARIOS                    11AER150418TW8 00000000000000dgarcia@gruposeri.com                  08042021ELOY GUTIERREZ BEIZA                                                  
0412044        0000000000069717222000137476101037231701000000002946170008042021HONORARIOS                    11AER150418TW8 00000000000000dgarcia@gruposeri.com                  08042021FREDY GABRIEL HERNANDEZ VILLALOBOS                                    
0422313        0000000000069717222000137225104071433917000000003143550008042021HONORARIOS                    11AER150418TW8 00000000000000dgarcia@gruposeri.com                  08042021JORGE ULISES CAMPOS NEGRETE                                           
04901104       0000000000069717222000137528102767747221000000002946170008042021HONORARIOS                    11AER150418TW8 00000000000000dgarcia@gruposeri.com                  08042021JESUS HERNANDEZ TORRES                                                
0411767        0000000000069717222000137225130043231784000000002729070008042021HONORARIOS                    11AER150418TW8 00000000000000dgarcia@gruposeri.com                  08042021ROSA DELIA ORTEGA HERNANDEZ                                           
0411761        0000000000069717222000137222103446595468000000003361180008042021HONORARIOS                    11AER150418TW8 00000000000000dgarcia@gruposeri.com                  08042021JESUS ALFONSO GONZALEZ REY                                            
0411739        0000000000069717222000137528103004384456000000002729070008042021HONORARIOS                    11AER150418TW8 00000000000000dgarcia@gruposeri.com                  08042021JULIO AURELIO TRUJILLO RODRIGUEZ                                      
0411883        0000000000069717222000137497130031410688000000002289090008042021HONORARIOS                    11AER150418TW8 00000000000000dgarcia@gruposeri.com                  08042021BERENICE ESPINO POPOCA                                                
