000000001                991563402142          000000000410067SANDRA GUADALUPE RUIZ FONSECA           001001
000000002                992971672282          000000000272555JORGE ARNULFO VILLATORO HERNANDEZ       001001
000000003                991585362388          000000000272555FRANCISCO JAVIER GOMEZ ICHIN            001001
000000004                991519832235          000000000272555SAUL ADRIAN ESPINOZA MARTINEZ           001001
000000005                991529180641          000000000272555ARTEMIO LOPEZ MARTINEZ                  001001
000000006                991525268306          000000000272555LAURA PATRICIA GOMEZ HERNANDEZ          001001
000000007                991555694046          000000000228537PAULINA ALBORES GUIZAR                  001001
000000008                992843017516          000000000272555RIGOBERTO PABLO LOPEZ GOMEZ             001001
000000009                991572857243          000000000272555AMILGAR MENDEZ LOPEZ                    001001
000000010                991539311745          000000000272555WILBERTH ALEJANDRO ESPINOSA MARTINEZ    001001
000000011                991574472659          000000000410067JOSE ALFREDO GIRON SANCHEZ              001001
000000012                991531372915          000000000228537ALONDRA PAOLA LURIA DELEON              001001
000000013                991596894375          000000000228537RUBY ESMERALDA ARIAS MENDOZA            001001
000000014                992873405125          000000000252564ELIAS SANZ AVILA                        001001
000000015                991531166533          000000000272555SULEYMA LOPEZ ALFARO                    001001
000000016                991523856481          000000000272555SUSANA KANTE DIAZ                       001001
000000017                991527443890          000000000272555MAGALI GUADALUPE LOPEZ LOPEZ            001001
000000018                991582928175          000000000313917JESUS NATIVIDAD URBINA LOPEZ            001001
000000019                991537869536          000000000272555RAFAEL REYES CORONEL                    001001
000000020                991523816692          000000000272555SAMUEL MENDEZ TORRES                    001001
000000021                991509660252          000000000272555LEYDI GUADALUPE PEREZ LOPEZ             001001
000000022                992906588387          000000000272555JUAN GOMEZ GOMEZ                        001001
000000023                991533372955          000000000272555CARLOS IVAN ROBLERO ZUNUN               001001
000000024                992841023020          000000000220690NALLELY RAQUEL FONSECA MORALES          001001
000000025                992862736292          000000000228537REYNA DEL REFUGIO HERNANDEZ HERNANDEZ   001001
000000026                991512169980          000000000272555VIVIANA LIZBETH GARCIA MORENO           001001
000000027                991524652609          000000000272555LORENA GUADALUPE SANTIAGO SANTIAGO      001001
000000028                991528871981          000000000272555FRANCISCO JAVIER VILLATORO HERNANDEZ    001001
000000029                992970925381          000000000213464NIDIA BAUTISTA COUTINO                  001001
000000030                992958306745          000000000233812GUILLERMO MARTIN GONZALEZ BALLINAS      001001
000000031                991500351825          000000000272548JORGE ALBERTO CRISOSTOMO MONTEJO        001001
000000032                992994235932          000000000532622MARCELA PEREZ RUIZ                      001001
000000033                991536841589          000000000272548ROSEMBERG URIEL MORENO BAUTISTA         001001
000000034                991502822563          000000000272259KARINA DE LOS ANGELES SANTIZ SANTIZO    001001
000000035                992857150865          000000000172150FILIBERTO DE LA CRUZ MENDEZ             001001
000000036                991135374758          000000000414375ANGEL DANIEL MORALES MORENO             001001
000000037                991498345465          000000000294206MARIA ANGELIDA MORENO JIMENEZ           001001
000000038                992880154849          000000000309956RODISEL JIMENEZ LOPEZ                   001001
000000039                992822539411          000000000228506KARINA SALAS PEREZ                      001001
000000040                991161949543          000000000272525RODRIGO GUADALUPE HERNANDEZ MARTINEZ    001001
000000041                991191382705          000000000268174CONCEPCION TORRES RODRIGUEZ             001001
000000042                992887167350          000000000485810MIGUEL ANGEL PEREZ LOPEZ                001001
000000043                992883488357          000000000218579MARTHA GOMEZ LOPEZ                      001001
000000044                992961315870          000000000230086MERCEDES DE REMEDIOS TRUJILLO GOMEZ     001001
000000045                992887717393          000000000414362EVA PATRICIA LOPEZ GOMEZ                001001
000000046                991521050397          000000000330966ELEAZAR GOMEZ PEREZ                     001001
000000047                992974025555          000000000294206ROSARIO ALBERTO CRUZ CRUZ               001001
000000048                992957787359          000000000622089FREDY GABRIEL VELASCO VELASCO           001001
000000049                992944593952          000000000163060SAMUEL OSORIO ARREOLA                   001001
000000050                992857851596          000000000268306OSCAR CESARIN PENA LOPEZ                001001
000000051                991121857096          000000000297881JORGE EDUARDO ORTIZ MUNDO               001001
000000052                991196162983          000000000603039OSCAR SANTIZ LOPEZ                      001001
000000053                992841914723          000000000577118SAMUEL DE JESUS VARGAS HERNANDEZ        001001
000000054                991520846503          000000000335645CLAUDIA REBECA GOMEZ GUILLEN            001001
000000055                990603462385          000000000272555FRANCISCO  ENCINOS  GOMEZ               001001
000000056                990567099412          000000000589514ALVARO FERMIN GARCIA ROMAN              001001
000000057                996687805102          000000000231943JUAN RAMON GORDILLO GARCIA              001001
000000058                995000895513          000000000272540CLAUDIA ALEJANDRA HERNANDEZ ESPINOSA    001001
000000059                990581333317          000000000386061CESAR HERNAN SALAZAR BOQUIN             001001
000000060                996739680075          000000000220437JOSE DANIEL RODRIGUEZ HERNANDEZ         001001
000000061                990615079238          000000000272555JESUS ALEJANDRO VAZQUEZ MORALES         001001
000000062                990848493648          000000000300922ENRIQUE MORENO SANCHEZ                  001001
000000063                990848492098          000000000209118JUAN FERNANDO MARTINEZ VAZQUEZ          001001
000000064                990848494065          000000000696511LUCAS ARCENIO LOPEZ HERNANDEZ           001001
000000065                990848494159          000000000672992MIGUEL ANGEL MORALES AGUILAR            001001
000000066                990848494092          000000000181543REYNA DEL CARMEN LOPEZ LOPEZ            001001
000000067                990225857850          000000000467497WALTER FERNANDO COUTINO RODRIGUEZ       001001
000000068                991042790683          000000000272548REY CARALAMPIO VELASCO HERNANDEZ        001001
000000069                991033818370          000000000272555JOSE LUIS ARCOS PEREZ                   001001
000000070                991065404309          000000000272555JOSE LUIS DOMINGUEZ GUILLEN             001001
