12345678910     012215004696789132  IVAN YAIR RODRIGUEZ OSORNO              100100000000021066101001NOMINA                                                                                                                            0000001
12345678910     012650015434816620  JORGE LUIS ESTEBAN CARRASCO             100100000000024054101001NOMINA                                                                                                                            0000002
12345678910     002543901155588374  MARIA ELENA FUENTES MONDRAGON           100100000000023476201001NOMINA                                                                                                                            0000003
12345678910     002542901166087739  MOISES FLORES ATILANO                   100100000000233314401001NOMINA                                                                                                                            0000004
12345678910     012650014131495798  GERARDO MORENO GUTIERREZ                100100000000029422401001NOMINA                                                                                                                            0000005
12345678910     002225901212373410  ANA ANGELICA TORRES HERNANDEZ           100100000000018575901001NOMINA                                                                                                                            0000006
12345678910     002700901455851463  CESAR REYES GARCIA                      100100000000071148101001NOMINA                                                                                                                            0000007
12345678910     002312901210461046  MARIA SONIA PEREZ LIRA                  100100000000050216501001NOMINA                                                                                                                            0000008
12345678910     002540902346688373  ANICETO HERNANDEZ ROSAS                 100100000000027254801001NOMINA                                                                                                                            0000009
12345678910     002542900888243098  MARIA DEL ROSARIO ANZURES SANTOS        100100000000026646101001NOMINA                                                                                                                            0000010
12345678910     002544900810247578  AZUCENA PONCE SALAZAR                   100100000000045213401001NOMINA                                                                                                                            0000011
12345678910     002180901080057414  JHEYNY ORTEGA IBARRA                    100100000000034475601001NOMINA                                                                                                                            0000012
12345678910     002233901153361764  JOSE GUADALUPE GARCIA MORALES           100100000000012333301001NOMINA                                                                                                                            0000013
12345678910     002312700151400011  LUIS BADILLO ANGELES                    100100000000104669501001NOMINA                                                                                                                            0000014
12345678910     002222904058217280  LORENA OLVERA GARCIA                    100100000000027591101001NOMINA                                                                                                                            0000015
12345678910     012546015023582521  EDGAR GIOVANNI MILLAN OCAMPO            100100000000031378801001NOMINA                                                                                                                            0000016
12345678910     002650901587461062  FRANCISCO VELAZQUEZ CASTILLO            100100000000027254801001NOMINA                                                                                                                            0000017
12345678910     002650901706733432  CYNTHIA GUADALUPE AGUILAR GONZALEZ      100100000000186936301001NOMINA                                                                                                                            0000018
12345678910     002537900918839798  MARTHA LETICIA SEGUNDO COLIN            100100000000064877901001NOMINA                                                                                                                            0000019
12345678910     002180901941946596  AYDEE DE DIOS CANO                      100100000000021974801001NOMINA                                                                                                                            0000020
12345678910     002180902064700883  MARISOL VIDAL CRUZ                      100100000000028922401001NOMINA                                                                                                                            0000021
12345678910     002670902179991961  LAURA PATRICIA CECILIO LEONARDO         100100000000027196301001NOMINA                                                                                                                            0000022
12345678910     002545902200378342  FRANCISCA NAVA RODRIGUEZ                100100000000033913801001NOMINA                                                                                                                            0000023
12345678910     002540902221879223  MARTIN ONOFRE TEODORO                   100100000000038902301001NOMINA                                                                                                                            0000024
12345678910     002225902249644386  GLORIA CRISTINA MORENO GONZALEZ         100100000000021927401001NOMINA                                                                                                                            0000025
12345678910     002540902251004961  CLAUDIA NIETO BENITEZ                   100100000000048266601001NOMINA                                                                                                                            0000026
12345678910     002650902270085385  LUCERO CLARIBEL HERNANDEZ BAROJAS       100100000000067162401001NOMINA                                                                                                                            0000027
12345678910     002650902281647628  ROSALBA LOPEZ PAIS                      100100000000004106801001NOMINA                                                                                                                            0000028
12345678910     012650029984806561  REYNALDO GARCIA MENDOZA                 100100000000053262201001NOMINA                                                                                                                            0000029
12345678910     002222900816875868  ALEJANDRO CANSECO MONJARDIN             100100000000010784401001NOMINA                                                                                                                            0000030
12345678910     002320902379429994  ROSALIA CONCEPCION ZUMAYA DE LA CERDA   100100000000021054201001NOMINA                                                                                                                            0000031
12345678910     002320902254515156  ERNESTO ZAMBRANO AGUILAR                100100000000119933601001NOMINA                                                                                                                            0000032
12345678910     002225902405682328  MONICA HORTA SALDANA                    100100000000033605901001NOMINA                                                                                                                            0000033
12345678910     002210902411137940  YESSICA LEONOR MARTINEZ REGALADO        100100000000018032401001NOMINA                                                                                                                            0000034
12345678910     002540902446406552  JOSE VICTOR DIAZ ROMAN                  100100000000048266601001NOMINA                                                                                                                            0000035
12345678910     002650902465686094  ALBERTO PEDRO HERNANDEZ VAZQUEZ         100100000000033326801001NOMINA                                                                                                                            0000036
12345678910     002580902552286671  LUIS RICARDO IBARRA VILLARREAL          100100000000064877901001NOMINA                                                                                                                            0000037
12345678910     002650902583024936  VICTOR DAVID VELAZQUEZ GONZALEZ         100100000000046447701001NOMINA                                                                                                                            0000038
12345678910     002233901615608033  ALEJANDRO PADILLA OLIVARES              100100000000025346701001NOMINA                                                                                                                            0000039
12345678910     002215902588761396  MARIA SUSANA ALVAREZ BUSTAMANTE         100100000000021968001001NOMINA                                                                                                                            0000040
12345678910     002540902589601214  LAURA PATRICIA SAAVEDRA MORALES         100100000000022818701001NOMINA                                                                                                                            0000041
12345678910     002320902608625362  RAQUEL BERENICE PEREZ GARCIA            100100000000058777001001NOMINA                                                                                                                            0000042
12345678910     002180902626001483  MARIA ELENA MORENO HERNANDEZ            100100000000064877901001NOMINA                                                                                                                            0000043
12345678910     002320902326132373  CYNTHIA GUADALUPE RAMIREZ SANTIAGO      100100000000032604901001NOMINA                                                                                                                            0000044
12345678910     002537902012032512  ELI MAGALI MEDINA GARCIA                100100000000044192701001NOMINA                                                                                                                            0000045
12345678910     002225903940033512  FRANCISCO MARTIN BARAJAS GONZALEZ       100100000000020318601001NOMINA                                                                                                                            0000046
12345678910     002040902525404069  GABRIELA CASTILLEJOS ESPONDA            100100000000000000001001NOMINA                                                                                                                            0000047
12345678910     002239902814100157  MAGDALENA GARCIA CRUZ                   100100000000032335201001NOMINA                                                                                                                            0000048
12345678910     012227015247583719  TANIA GABRIELA RUFINO BAZALDUA          100100000000008956801001NOMINA                                                                                                                            0000049
12345678910     002650902835037891  OSCAR MANUEL ESPINOZA HERNANDEZ         100100000000054269101001NOMINA                                                                                                                            0000050
12345678910     002650701019435164  NATHALI RUIZ ESTRADA                    100100000000068680901001NOMINA                                                                                                                            0000051
12345678910     012767014229401325  EFRAIN CUEVAS DOMINGUEZ                 100100000000021541701001NOMINA                                                                                                                            0000052
12345678910     002668700686911907  ERICK CORDERO HERNANDEZ                 100100000000130796501001NOMINA                                                                                                                            0000053
12345678910     002667902884593625  EDUARDO LOPEZ CORDERO                   100100000000027416701001NOMINA                                                                                                                            0000054
12345678910     002320902892243424  HECTOR RUBEN GARCIA BEJARANO            100100000000061422501001NOMINA                                                                                                                            0000055
12345678910     002470902894823255  CARLOS ANTONIO LOVERA CAZARES           100100000000024619501001NOMINA                                                                                                                            0000056
12345678910     002650901826230828  BEATRIZ ELENA VALERO MAGANA             100100000000021806001001NOMINA                                                                                                                            0000057
12345678910     002650902892116315  DULCE MARIA ALANIS MORALES              100100000000031392601001NOMINA                                                                                                                            0000058
12345678910     002543902917926924  PAULINA ARENAS MARTINEZ                 100100000000025469201001NOMINA                                                                                                                            0000059
12345678910     012650029717708881  LIZBETH GONZALEZ MARQUEZ                100100000000033087301001NOMINA                                                                                                                            0000060
12345678910     012650011454122343  ROSA MARIA MENA ORTEGA                  100100000000011445001001NOMINA                                                                                                                            0000061
12345678910     012650015200141066  OMAR ROJAS HERNANDEZ                    100100000000029422401001NOMINA                                                                                                                            0000062
12345678910     002210902974401197  ARACELI MARTINEZ GUTIERREZ              100100000000031392601001NOMINA                                                                                                                            0000063
12345678910     012650028719217708  DORA ALICIA MONTIEL MARTINEZ            100100000000027254801001NOMINA                                                                                                                            0000064
12345678910     002320903196279355  HUMBERTO ORENDAIN PEREZ                 100100000000128013501001NOMINA                                                                                                                            0000065
12345678910     002650903407553825  YARED ALEXANDRA MENDIETA ESTANDIA       100100000000039766201001NOMINA                                                                                                                            0000066
12345678910     002010903464727810  SANDRA LORENA RAMIREZ VELAZQUEZ         100100000000076286701001NOMINA                                                                                                                            0000067
12345678910     012670015129883809  EDUARDO MENDEZ MUNOZ                    100100000000041167001001NOMINA                                                                                                                            0000068
12345678910     012320015152214122  JESUS GOMEZ SANCHEZ                     100100000000060308201001NOMINA                                                                                                                            0000069
12345678910     002650903567970267  MIRIAM ALVAREZ ROJAS                    100100000000071418901001NOMINA                                                                                                                            0000070
12345678910     012650029903066654  MIGUEL ANGEL MEZA PEREZ                 100100000000027254801001NOMINA                                                                                                                            0000071
12345678910     002320903808160231  NANCY JUDIT IBARRA RODRIGUEZ            100100000000004061301001NOMINA                                                                                                                            0000072
12345678910     002650903597301275  JESUS JAVIER TORRES GOMEZ               100100000000000089801001NOMINA                                                                                                                            0000073
12345678910     002650903624621682  HECTOR RAMIREZ NICANOR                  100100000000032604901001NOMINA                                                                                                                            0000074
12345678910     002320903640565586  RUBEN DARIO SANTILLAN SERAFIN           100100000000037463001001NOMINA                                                                                                                            0000075
12345678910     002650903647801913  ADRIANA DE JESUS JIMENEZ                100100000000032604901001NOMINA                                                                                                                            0000076
12345678910     002244903653808989  PEDRO CUELLAR GALLARDO                  100100000000000000001001NOMINA                                                                                                                            0000077
12345678910     002225903578021983  DIANA MILAGROS GARCIA NAVARRO           100100000000028294901001NOMINA                                                                                                                            0000078
12345678910     002650903675054347  ERIKA HERNANDEZ BRAVO                   100100000000027254801001NOMINA                                                                                                                            0000079
12345678910     002010903723122965  JOSE ADRIAN RAMIREZ ROSALES             100100000000032604901001NOMINA                                                                                                                            0000080
12345678910     012667011394968744  ANABEL ANASTACIO ARZOLA                 100100000000016831801001NOMINA                                                                                                                            0000081
12345678910     002244903784616927  GRACIELA ESTEFANIA HERNANDEZ ESPINOZA   100100000000032604901001NOMINA                                                                                                                            0000082
12345678910     012320015496320772  MARIA GUADALUPE NUNO GALINDO            100100000000033565301001NOMINA                                                                                                                            0000083
12345678910     002667903777824523  SERGIO PEREZ IGLESIAS                   100100000000027254801001NOMINA                                                                                                                            0000084
12345678910     012276029530184150  ALELY GOMEZ DOMINGUEZ                   100100000000029422401001NOMINA                                                                                                                            0000085
12345678910     012180015526547681  JANUARY ANAI CALVILLO JUAREZ            100100000000068680901001NOMINA                                                                                                                            0000086
12345678910     012650015103360096  MA DEL RAYITO VEANA CRUZ                100100000000018751901001NOMINA                                                                                                                            0000087
12345678910     002320903831099997  ANA ROSA DE ANDA MORALES                100100000000053262201001NOMINA                                                                                                                            0000088
12345678910     002010903840596694  AMADOR ALONSO ARCEO                     100100000000050204201001NOMINA                                                                                                                            0000089
12345678910     012650015612756829  BEATRIZ RODRIGUEZ GARRIDO               100100000000021380201001NOMINA                                                                                                                            0000090
12345678910     002260903852719633  MARCO ANTONIO SANCHEZ VAZQUEZ           100100000000053262201001NOMINA                                                                                                                            0000091
12345678910     002225903854936488  MIRIAM LILIANA OLIVARES HERNANDEZ       100100000000030892601001NOMINA                                                                                                                            0000092
12345678910     002320903870985415  MARIA DEL CARMEN NAVARRETE ALONSO       100100000000039398601001NOMINA                                                                                                                            0000093
12345678910     002375903872579337  SARA MONSERRAT JUAREZ LOPEZ             100100000000039398601001NOMINA                                                                                                                            0000094
12345678910     012540015602199674  YOLANDA SALGADO GONZALEZ                100100000000038254101001NOMINA                                                                                                                            0000095
12345678910     012180015598755731  EDUARDO FLORES HERNANDEZ                100100000000038254101001NOMINA                                                                                                                            0000096
12345678910     002650903878754596  ANGELICA APARICIO ALVAREZ               100100000000038254101001NOMINA                                                                                                                            0000097
12345678910     012650015690982165  JOSE RAUL MORALES CARSOLIO              100100000000029422401001NOMINA                                                                                                                            0000098
12345678910     002650903899099544  GUADALUPE PATRICIA MENDOZA GARCIA       100100000000026370601001NOMINA                                                                                                                            0000099
12345678910     002543903905798875  PAOLA LETICIA GOMEZ GALICIA             100100000000029422401001NOMINA                                                                                                                            0000100
12345678910     012528028501974242  MARIA EUGENIA CARDENAS CHAVEZ           100100000000012365501001NOMINA                                                                                                                            0000101
12345678910     002320903767005259  EMMANUEL SANDOVAL SOLTERO               100100000000068680901001NOMINA                                                                                                                            0000102
12345678910     012180015316503945  YARED ATALIA VACA SUAREZ                100100000000025358001001NOMINA                                                                                                                            0000103
12345678910     002540904417071419  ROSA NAJERA MARTINEZ                    100100000000068680901001NOMINA                                                                                                                            0000104
12345678910     012540011702167393  JOSE ANTONIO DORANTES GARCIA            100100000000000000001001NOMINA                                                                                                                            0000105
12345678910     012667028656711758  ALBERTO DIAZ PEREZ                      100100000000027254801001NOMINA                                                                                                                            0000106
12345678910     012546015817454849  MARCO ANTONIO LANDA SANCHEZ             100100000000026754801001NOMINA                                                                                                                            0000107
12345678910     002546904236455032  DAVID QUINTANA DIAZ                     100100000000027254801001NOMINA                                                                                                                            0000108
12345678910     012222015077443150  VICTORIA EDITH ZARAGOZA MEDINA          100100000000032604901001NOMINA                                                                                                                            0000109
12345678910     002320903955570240  ERIKA LIZETT ARELLANO REYNOSO           100100000000033565301001NOMINA                                                                                                                            0000110
12345678910     002180902683756852  JUAN MANUEL RAMOS CALIXTO               100100000000020975301001NOMINA                                                                                                                            0000111
12345678910     012680011264464779  NUBIA ESTEFANIA BALDERAS LOPEZ          100100000000068680901001NOMINA                                                                                                                            0000112
12345678910     002537700871930617  VICTOR ANTONIO MORALES ORTUNO           100100000000027254801001NOMINA                                                                                                                            0000113
12345678910     012225029339214764  NANCY BERENICE GAONA MARTINEZ           100100000000022215701001NOMINA                                                                                                                            0000114
12345678910     002375701311361004  JONATHAN IVAN VAZQUEZ MEZA              100100000000032604901001NOMINA                                                                                                                            0000115
12345678910     012180015078296846  ARLENE RODRIGUEZ NAVA                   100100000000032604901001NOMINA                                                                                                                            0000116
12345678910     002650904035981855  ANDREA JULIETA CRUZ ARROYO              100100000000050799201001NOMINA                                                                                                                            0000117
12345678910     012540012629766928  VERONICA LETICIA SOLIS TORRES           100100000000029422401001NOMINA                                                                                                                            0000118
12345678910     012320015131405910  ALEJANDRA ALVARADO OLIVARES             100100000000032604901001NOMINA                                                                                                                            0000119
12345678910     002375904541136822  DIEGO ARMANDO HUERTA GONZALEZ           100100000000033565301001NOMINA                                                                                                                            0000120
12345678910     002225904075069272  DALIA SARAHI HERNANDEZ REYNOSO          100100000000028118701001NOMINA                                                                                                                            0000121
12345678910     002222901729586557  ARTURO JUAN IGNACIO GONZALEZ BARROSO    100100000000063141101001NOMINA                                                                                                                            0000122
12345678910     002320902089946026  ESTHER MAGDALENA CEDILLO OLIVARES       100100000000036502901001NOMINA                                                                                                                            0000123
12345678910     012180015212151271  DAVID FELIPE ALEJO PEREZ                100100000000037973501001NOMINA                                                                                                                            0000124
12345678910     002222904107801343  ERNESTO GRANA ROJAS                     100100000000027254801001NOMINA                                                                                                                            0000125
12345678910     002375903475812310  AURORA REA HERNANDEZ                    100100000000027254801001NOMINA                                                                                                                            0000126
12345678910     012180015312814133  BRENDA ELIZABETH GOMEZ RENTERIA         100100000000030803701001NOMINA                                                                                                                            0000127
12345678910     002215903872622959  ROSALBA LARA PATINO                     100100000000032604901001NOMINA                                                                                                                            0000128
12345678910     002233903294558065  SANJUANA ROSILES ZAMORA                 100100000000001449301001NOMINA                                                                                                                            0000129
12345678910     002540903883707334  MARITZA VELAZCO LARA                    100100000000068680901001NOMINA                                                                                                                            0000130
12345678910     012180015192376008  GRACIELA MUNOZ ORTEGA                   100100000000016823301001NOMINA                                                                                                                            0000131
12345678910     002375904540445679  DANIEL ORNELAS DEL REAL                 100100000000033565301001NOMINA                                                                                                                            0000132
12345678910     002650903960953344  JUAN FERNANDO TENORIO BALDERRAMA        100100000000068680901001NOMINA                                                                                                                            0000133
12345678910     021222064603308591  OSCAR VELASCO PENA                      100100000000030922301001NOMINA                                                                                                                            0000134
12345678910     012650027780972248  NOE UBALDO HERNANDEZ                    100100000000009759801001NOMINA                                                                                                                            0000135
12345678910     012180015318558600  DANIEL ARIZMENDI GARCIA                 100100000000048268401001NOMINA                                                                                                                            0000136
12345678910     012650015852377262  DIANA YVETTE ROJAS SANCHEZ              100100000000000000001001NOMINA                                                                                                                            0000137
12345678910     012233015412651596  ALMA DELIA RODRIGUEZ MORENO             100100000000024967301001NOMINA                                                                                                                            0000138
12345678910     012650015453991254  ONESIMO CRUZ HERNANDEZ                  100100000000014379901001NOMINA                                                                                                                            0000139
12345678910     012290014497959529  ANGELICA SANCHEZ LEON                   100100000000068683501001NOMINA                                                                                                                            0000140
12345678910     012180015835740085  MARIA MAGDALENA HERNANDEZ GALVEZ        100100000000027255501001NOMINA                                                                                                                            0000141
12345678910     002650701555405658  YOLANDA SANCHEZ PRIEGO                  100100000000027255501001NOMINA                                                                                                                            0000142
12345678910     014480606069297084  PEDRO HERRERA ARIAS                     100100000000046766301001NOMINA                                                                                                                            0000143
12345678910     012654015579638905  FABIOLA VAZQUEZ ROMERO                  100100000000027255501001NOMINA                                                                                                                            0000144
12345678910     002222904013504459  NOE GONZALEZ BALTAZAR                   100100000000026755501001NOMINA                                                                                                                            0000145
12345678910     012180015536829438  MARITZA GUTIERREZ RAMIREZ               100100000000021348601001NOMINA                                                                                                                            0000146
12345678910     012320015776029395  MIRIAM JAEL FERNANDEZ ARANDA            100100000000033566401001NOMINA                                                                                                                            0000147
12345678910     012650029592119695  ALEJANDRO AYALA PALACIOS                100100000000024625901001NOMINA                                                                                                                            0000148
12345678910     012180015531376203  SAMUEL ABIZAI GAMBOA MEZA               100100000000022566401001NOMINA                                                                                                                            0000149
12345678910     012016015263927023  MARIA DEL ROSARIO OCON CASTILLO         100100000000031393501001NOMINA                                                                                                                            0000150
12345678910     012320015310809311  CARMEN LUCIA MARTIN HERNANDEZ           100100000000027255501001NOMINA                                                                                                                            0000151
12345678910     002420902155619080  EDGAR MORALES SOTO                      100100000000027179101001NOMINA                                                                                                                            0000152
12345678910     012545015555324889  MIGUEL SANCHEZ ALONSO                   100100000000027255501001NOMINA                                                                                                                            0000153
12345678910     002375904256975514  NORMA ANGELICA GONZALEZ GONZALEZ        100100000000033566401001NOMINA                                                                                                                            0000154
12345678910     002320904258642531  SANTIAGO GUERRERO JIMENEZ               100100000000033566401001NOMINA                                                                                                                            0000155
12345678910     002180902909367475  JAIR SERRANO TREJO                      100100000000080638501001NOMINA                                                                                                                            0000156
12345678910     012180015569244792  SUSANA LOPEZ MARTINEZ                   100100000000033066401001NOMINA                                                                                                                            0000157
12345678910     012320011646864383  RODOLFO ALVARADO CASTILLO               100100000000030409201001NOMINA                                                                                                                            0000158
12345678910     021180064865475511  CESAR ARANDA BURGUENO                   100100000000029423101001NOMINA                                                                                                                            0000159
12345678910     012180015592779894  LUZ ADRIANA AYALA ESCOGIDO              100100000000019234101001NOMINA                                                                                                                            0000160
12345678910     002375902616777752  VERONICA PENA RUELAS                    100100000000003245701001NOMINA                                                                                                                            0000161
12345678910     012650015549693945  SANDRA XOCHIQUETZAL GONZALEZ SUAREZ     100100000000027255501001NOMINA                                                                                                                            0000162
12345678910     002480903977432167  ALMA RUBI LAREDO PEREZ                  100100000000027255501001NOMINA                                                                                                                            0000163
12345678910     002225701447353997  LAURA ISELA ARELLANO BONILLA            100100000000053264201001NOMINA                                                                                                                            0000164
12345678910     002320904231773139  ROBERTO ANTONIO ARAMBULA CAMACHO        100100000000033566401001NOMINA                                                                                                                            0000165
12345678910     012234015549566809  MANUEL ORTEGA SAMANO                    100100000000027255501001NOMINA                                                                                                                            0000166
12345678910     012225011903941141  SANTA ESMERALDA MEDINA PARRA            100100000000031393501001NOMINA                                                                                                                            0000167
12345678910     014650567262170547  LAURA MELENDEZ JAIMES                   100100000000029422901001NOMINA                                                                                                                            0000168
12345678910     002543904291412482  YULIANA SOTELO CORDOVA                  100100000000029423001001NOMINA                                                                                                                            0000169
12345678910     012542015737725542  NADXIELLY PAOLA AGUIRRE CHARIS          100100000000035547701001NOMINA                                                                                                                            0000170
12345678910     012537015716004710  JOSE JUAN SOTO SANCHEZ                  100100000000027255501001NOMINA                                                                                                                            0000171
12345678910     012650028419230807  JOSE RUBEN SANCHEZ BAUTISTA             100100000000060910501001NOMINA                                                                                                                            0000172
12345678910     014650567336173904  MONTSERRAT ALVAREZ ROMERO               100100000000027255501001NOMINA                                                                                                                            0000173
12345678910     002543904321867839  MARIA DE LOS ANGELES JIMENEZ ESPINOZA   100100000000027255501001NOMINA                                                                                                                            0000174
12345678910     012650011627723456  MARIA ABIGAIL LARA FLORES               100100000000029422901001NOMINA                                                                                                                            0000175
12345678910     012225029303168817  MARLENE GONZALEZ CHAGOYA                100100000000025692701001NOMINA                                                                                                                            0000176
12345678910     021320063733827641  MARGARITA SUGHEY PEREZ RODRIGUEZ        100100000000037893401001NOMINA                                                                                                                            0000177
12345678910     002180902070886911  CARLOS SANCHEZ MENDOZA                  100100000000061054101001NOMINA                                                                                                                            0000178
12345678910     012667028909950457  LAURA YANET GARCIA RODRIGUEZ            100100000000001346501001NOMINA                                                                                                                            0000179
12345678910     014320567685997022  GLORIA AZUCENA LOERA ROMERO             100100000000029423101001NOMINA                                                                                                                            0000180
12345678910     002073560145091588  SAMUEL GUZMAN FERNANDEZ                 100100000000027255501001NOMINA                                                                                                                            0000181
12345678910     014010605927083028  REBECA ESPARZA GARCIA                   100100000000027255501001NOMINA                                                                                                                            0000182
12345678910     012650012399316271  JOSE MARTIN SERGIO LIMON HERNANDEZ      100100000000027255501001NOMINA                                                                                                                            0000183
12345678910     002320904307304270  CRISTIAN MICHEL HERNANDEZ CURIEL        100100000000033566401001NOMINA                                                                                                                            0000184
12345678910     002290902785284044  MARIA LUISA DOMINGUEZ HERNANDEZ         100100000000032745601001NOMINA                                                                                                                            0000185
12345678910     012320015181503118  MARTIN PEREZ MARTINEZ                   100100000000057411301001NOMINA                                                                                                                            0000186
12345678910     002674901641327992  JUAN CASTRO ISLAS                       100100000000027255501001NOMINA                                                                                                                            0000187
12345678910     014320567657475459  CITLALLI DEFENSA CAMBEROS BELMARES      100100000000027124401001NOMINA                                                                                                                            0000188
12345678910     002320904197816211  SERGIO VAZQUEZ ORNELAS                  100100000000033566401001NOMINA                                                                                                                            0000189
12345678910     002180901259791721  YOLANDA BARRIENTOS ORTEGA               100100000000136344701001NOMINA                                                                                                                            0000190
12345678910     002180901165965544  JOSE GUADALUPE DE LA ROSA VILLEGAS      100100000000138007401001NOMINA                                                                                                                            0000191
12345678910     021320064815894342  JUAN ANTONIO ESPINOZA MORAN             100100000000048396101001NOMINA                                                                                                                            0000192
12345678910     012180015001079616  CATALINA GONZALEZ BECERRIL              100100000000027255501001NOMINA                                                                                                                            0000193
12345678910     012540015687928792  MARIO ANDRES FLORES RUBIO               100100000000034700401001NOMINA                                                                                                                            0000194
12345678910     002272902729708494  FRANCISCO ANTONIO RAMIREZ ESTRADA       100100000000054467501001NOMINA                                                                                                                            0000195
12345678910     012222015726032799  LUIS FERNANDO DELGADO MORALES           100100000000011901901001NOMINA                                                                                                                            0000196
12345678910     002650904085128231  ONESIMO LUNA LOPEZ                      100100000000023902601001NOMINA                                                                                                                            0000197
12345678910     012339015121659482  LUIS FERNANDO FUENTES PEREZ             100100000000031393501001NOMINA                                                                                                                            0000198
12345678910     014670606087779750  MARISA TORRES CUEVAS                    100100000000004107101001NOMINA                                                                                                                            0000199
12345678910     012470014452439477  ALAIN URBINA ALVAREZ                    100100000000011374901001NOMINA                                                                                                                            0000200
12345678910     012320015032658691  ROSA ELVA COVARRUBIAS GUTIERREZ         100100000000033566401001NOMINA                                                                                                                            0000201
12345678910     021320064866465021  MARIA DE LOS ANGELES MARTINEZ CARDONA   100100000000017188801001NOMINA                                                                                                                            0000202
12345678910     014320606147775164  LUIS FERNANDO OCHOA MARTINEZ            100100000000033566401001NOMINA                                                                                                                            0000203
12345678910     014542566191507662  MAXIMINA GONZALEZ HERNANDEZ             100100000000027255501001NOMINA                                                                                                                            0000204
12345678910     012180029694040747  FRANCISCO ADRIAN RUIZ GARCIA            100100000000025171801001NOMINA                                                                                                                            0000205
12345678910     002320701287784951  JORGE ALEJANDRO CORTES ZAMORA           100100000000028115901001NOMINA                                                                                                                            0000206
12345678910     002180904287489044  CLAUDIA BERENICE MUNOZ TORRES           100100000000029422901001NOMINA                                                                                                                            0000207
12345678910     012320015191351033  MIRIAM PATRICIA ROSAS AREVALO           100100000000006573101001NOMINA                                                                                                                            0000208
12345678910     002180902928813544  LUIS GERARDO ROJAS DE ANDA              100100000000060414401001NOMINA                                                                                                                            0000209
12345678910     012180015735567009  JOSE DE JESUS MATA VELAZQUEZ            100100000000018913001001NOMINA                                                                                                                            0000210
12345678910     002480701634933392  VASTHI CALDERON ROSAS                   100100000000027255501001NOMINA                                                                                                                            0000211
12345678910     002650903569953910  ARMANDO TIZO MARTINEZ                   100100000000053139801001NOMINA                                                                                                                            0000212
12345678910     002560902676975147  CLAUDIA ELIZABETH RODRIGUEZ ZUNIGA      100100000000024607101001NOMINA                                                                                                                            0000213
12345678910     002542904388871982  SANDRA LUZ ROSALES TREJO                100100000000021383401001NOMINA                                                                                                                            0000214
12345678910     002320904386408854  BELEN LOPEZ SARACIBAR                   100100000000033566401001NOMINA                                                                                                                            0000215
12345678910     012220015688909195  CYNTIA  GABRIELA GARCIA RANGEL          100100000000038636101001NOMINA                                                                                                                            0000216
12345678910     012320015821631793  JOSE ALBERTO RODRIGUEZ DOMINGUEZ        100100000000027852901001NOMINA                                                                                                                            0000217
12345678910     012320015854657456  GRISELDA ORIHUELA ALVARADO              100100000000033566401001NOMINA                                                                                                                            0000218
12345678910     012650015739028142  ERIKA SILVERIO ABASOLO                  100100000000014982901001NOMINA                                                                                                                            0000219
12345678910     014210606152162869  ARANZA MICHELLE CASTILLO MAEDA          100100000000022466701001NOMINA                                                                                                                            0000220
12345678910     012540015456435571  ALEJANDRO GUZMAN GARCIA                 100100000000023888001001NOMINA                                                                                                                            0000221
12345678910     012180015701140337  GABRIELA MENDEZ HERRADA                 100100000000029422901001NOMINA                                                                                                                            0000222
12345678910     014540250027894139  IMELDA VALDEZ MANUEL                    100100000000027255501001NOMINA                                                                                                                            0000223
12345678910     012180015164384976  ALISON FERNANDA CARDONA PRIETO          100100000000031393501001NOMINA                                                                                                                            0000224
12345678910     002233902055182574  RAUL SERAFIN GONZALEZ SERRATO           100100000000068683501001NOMINA                                                                                                                            0000225
12345678910     012320015211276603  SUGEY MARTINEZ ARREAGA                  100100000000016196401001NOMINA                                                                                                                            0000226
12345678910     012650015536825014  ARIADNA MORENO CUAUTLE                  100100000000053643401001NOMINA                                                                                                                            0000227
12345678910     012540011102286489  ROSALBA DOMINGUEZ RAMIREZ               100100000000032423101001NOMINA                                                                                                                            0000228
12345678910     021655064807304502  JOSE JAVIER BAUTISTA MENDOZA            100100000000030006101001NOMINA                                                                                                                            0000229
12345678910     012493015903225844  ALMA PATRICIA LUNA MATEO                100100000000030006101001NOMINA                                                                                                                            0000230
12345678910     012339015453216577  PABLO PENARAN GRANADOS                  100100000000011683301001NOMINA                                                                                                                            0000231
12345678910     002540904074493621  FABIOLA DAVALOS GRANADOS                100100000000025604101001NOMINA                                                                                                                            0000232
12345678910     012180015265875151  MAYRA ALEJANDRA FELICIANO GARCIA        100100000000029423101001NOMINA                                                                                                                            0000233
12345678910     012180027304592752  JOSE FRANCISCO TORRES ARANDA            100100000000024486401001NOMINA                                                                                                                            0000234
12345678910     002650701639713703  LIZBETH PORRAS CRUZ                     100100000000029423001001NOMINA                                                                                                                            0000235
12345678910     002650701629506988  SARAHI HERNANDEZ SILVA                  100100000000029423101001NOMINA                                                                                                                            0000236
12345678910     002225904436041020  SERGIO MORENO RODRIGUEZ                 100100000000016434301001NOMINA                                                                                                                            0000237
12345678910     012225004731359776  MARIA DE JESUS GARCIA SANTOYO           100100000000068683501001NOMINA                                                                                                                            0000238
12345678910     012180015795111246  OSVALDO AARON MEJIA LOPEZ               100100000000033566401001NOMINA                                                                                                                            0000239
12345678910     002540904432412985  KAREN MARIBEL DIEGO RUEDAS              100100000000025256301001NOMINA                                                                                                                            0000240
12345678910     012180004625023211  ROBERTO OSCAR DELGADO RAMIREZ           100100000000120903001001NOMINA                                                                                                                            0000241
12345678910     002659904385709335  ADRIAN VALDEZ GARCIA                    100100000000027255501001NOMINA                                                                                                                            0000242
12345678910     012180015911668780  MARIA GUADALUPE GONZALEZ MARTINEZ       100100000000029423101001NOMINA                                                                                                                            0000243
12345678910     002010904405148622  BELKIS APARICIO SOSA                    100100000000004394401001NOMINA                                                                                                                            0000244
12345678910     030225900012794246  MA. DEL REFUGIO GONZALEZ BECERRA        100100000000031393501001NOMINA                                                                                                                            0000245
12345678910     012215015180954967  JUAN CRUZ RANGEL                        100100000000027255501001NOMINA                                                                                                                            0000246
12345678910     002215901285598672  HUGO CESAR GARCIA REYNA                 100100000000040299001001NOMINA                                                                                                                            0000247
12345678910     014560606049201981  LOURDES SANTIAGO HERNANDEZ              100100000000029423101001NOMINA                                                                                                                            0000248
12345678910     014320567137151390  LAURA ARACELI GARCIA VARGAS             100100000000019158301001NOMINA                                                                                                                            0000249
12345678910     012180015358079592  CESAR RAUL MUNOZ MOSQUEDA               100100000000029423101001NOMINA                                                                                                                            0000250
12345678910     012660004687500179  DANIEL SOLANO ALTAMIRANO                100100000000027255501001NOMINA                                                                                                                            0000251
12345678910     014650567468797876  ROSA YENIZA SOSA HUERTA                 100100000000024955501001NOMINA                                                                                                                            0000252
12345678910     012180015531498903  INGRID MERCEDES FIGUEIRO RUIZ           100100000000029423101001NOMINA                                                                                                                            0000253
12345678910     012650014947709869  LIZ EK  ABIGAIL SARMIENTO ARROYO        100100000000029423101001NOMINA                                                                                                                            0000254
12345678910     002650904382882199  ADRIANA MARIN HERRERA                   100100000000022566401001NOMINA                                                                                                                            0000255
12345678910     014320567865521470  MARCOS VANENBURTH ZARAGOZA GUTIERREZ    100100000000033566401001NOMINA                                                                                                                            0000256
12345678910     012320015396204516  SOFIA BERENICE RUIZ FUENTES             100100000000033566401001NOMINA                                                                                                                            0000257
12345678910     021320064965280398  JUAN ALBERTO GUERRA NARRO               100100000000020583301001NOMINA                                                                                                                            0000258
12345678910     012180015011375986  MARIA GUADALUPE ESCOBAR GUERRERO        100100000000026570401001NOMINA                                                                                                                            0000259
12345678910     002210904445504217  BLANCA SORAYA SANCHEZ CARRILLO          100100000000027255501001NOMINA                                                                                                                            0000260
12345678910     002320700747585235  JOSE EDUARDO ALCARAZ ALVARADO           100100000000033566401001NOMINA                                                                                                                            0000261
12345678910     002650904357605291  JAZMIN LOPEZ FLORES                     100100000000019844001001NOMINA                                                                                                                            0000262
12345678910     012180015024667720  ELIZABETH RAMOS GARCIA                  100100000000026351001001NOMINA                                                                                                                            0000263
12345678910     014225567940626780  JOSE DE JESUS BORJA RODRIGUEZ           100100000000031393501001NOMINA                                                                                                                            0000264
12345678910     002650903948958727  AIDE MIRANDA GOMEZ                      100100000000029423101001NOMINA                                                                                                                            0000265
12345678910     002674701645351083  EDER MUNOZ OCAMPO                       100100000000027255501001NOMINA                                                                                                                            0000266
12345678910     012180015842027940  DIEGO ARMANDO MIJANGOS INFANTE          100100000000029423101001NOMINA                                                                                                                            0000267
12345678910     002537904299730062  OSVALDO ORTIZ ESTRADA                   100100000000008640701001NOMINA                                                                                                                            0000268
12345678910     012210028717185683  AZUCENA RODRIGUEZ OCHOA                 100100000000031393501001NOMINA                                                                                                                            0000269
12345678910     012320011705562898  DIEGO HAZIEL VILLEGAS OCHOA             100100000000033566401001NOMINA                                                                                                                            0000270
12345678910     012180015050659993  AMELIA JIMENEZ HERNANDEZ                100100000000031393501001NOMINA                                                                                                                            0000271
12345678910     014215605903158442  ARMANDO IRINEO GONZALEZ TOVAR           100100000000015471401001NOMINA                                                                                                                            0000272
12345678910     002320901259608548  JUAN PABLO IVAN UNDIANO VAZQUEZ         100100000000042916601001NOMINA                                                                                                                            0000273
12345678910     030225900020793763  ELENA CAROLINA ALVAREZ PARRA            100100000000027255501001NOMINA                                                                                                                            0000274
12345678910     014560567851520931  EFRAIN DIAZ QUINTERO                    100100000000029423101001NOMINA                                                                                                                            0000275
12345678910     014537567954215040  LEONARDO GUILLERMO QUINTERO             100100000000027255501001NOMINA                                                                                                                            0000276
12345678910     012290015835440631  JUANA CRUZ SILVA                        100100000000027255501001NOMINA                                                                                                                            0000277
12345678910     012670015323054133  ROQUE MORENO GARCIA                     100100000000018431701001NOMINA                                                                                                                            0000278
12345678910     012215004574884081  PEDRO ANDRES SEGURA MORA                100100000000022957701001NOMINA                                                                                                                            0000279
12345678910     002225701474510732  MARIA GUADALUPE HERNANDEZ NEGRETE       100100000000003098201001NOMINA                                                                                                                            0000280
12345678910     012180015083838011  DAVID GUADALUPE ANGULO VALADEZ          100100000000033566401001NOMINA                                                                                                                            0000281
12345678910     012320015882333506  ARANELI BETZABEH CARDENAS BECERRA       100100000000033566401001NOMINA                                                                                                                            0000282
12345678910     030225900017786589  WILSON ARTURO CARDENAS DOURIET          100100000000031393501001NOMINA                                                                                                                            0000283
12345678910     002010904391601273  CLAUDIA ROJAS HERNANDEZ                 100100000000024378901001NOMINA                                                                                                                            0000284
12345678910     002659904469632784  GUADALUPE MUNOZ SAMPAYO                 100100000000028554001001NOMINA                                                                                                                            0000285
12345678910     002180904405629217  PAULA VARGAS CORNELIO                   100100000000027255501001NOMINA                                                                                                                            0000286
12345678910     002375904378057679  CORAL BENAVENTE RODRIGUEZ               100100000000033566401001NOMINA                                                                                                                            0000287
12345678910     014375606154699806  MARISOL MURRIETA CONTRERAS              100100000000033566401001NOMINA                                                                                                                            0000288
12345678910     002215701576883490  LUIS ENRIQUE LUNA MENDOZA               100100000000031393501001NOMINA                                                                                                                            0000289
12345678910     014650567041872095  SABINA GARRIDO TZONI                    100100000000028554001001NOMINA                                                                                                                            0000290
12345678910     002659904483449076  NAYELI ALVAREZ ALVARADO                 100100000000027255501001NOMINA                                                                                                                            0000291
12345678910     012650015275415905  OSCAR CASCO GUZMAN                      100100000000040261901001NOMINA                                                                                                                            0000292
12345678910     012650028764470079  ANDREA CARIDAD CRUZ SOLANO              100100000000027255501001NOMINA                                                                                                                            0000293
12345678910     002239904389918665  JUANA KARINA PAULIN CASTILLO            100100000000031393501001NOMINA                                                                                                                            0000294
12345678910     012542015515463615  JONATHAN SANCHEZ VILLALVA               100100000000027255501001NOMINA                                                                                                                            0000295
12345678910     012320015089084755  MARIA GUADALUPE AVALOS SANTACRUZ        100100000000033566401001NOMINA                                                                                                                            0000296
12345678910     012560004622866295  JULIAN X MORA                           100100000000025178101001NOMINA                                                                                                                            0000297
12345678910     012650015466281689  IDANIA GARRIDO GARRIDO                  100100000000027255501001NOMINA                                                                                                                            0000298
12345678910     002276904008186485  NICTE-HA ALONSO OROPEZA                 100100000000027255501001NOMINA                                                                                                                            0000299
12345678910     012232004693543600  ANDRES GASCA VARGAS                     100100000000031393501001NOMINA                                                                                                                            0000300
12345678910     012320015192129031  GABRIELA GARAY TORRES                   100100000000000000001001NOMINA                                                                                                                            0000301
12345678910     012370011729025248  ROBERTO AVINA MARTINEZ                  100100000000033566401001NOMINA                                                                                                                            0000302
12345678910     002225904220450733  YOLANDA  ZACARIAS                       100100000000020821201001NOMINA                                                                                                                            0000303
12345678910     030225900022943029  JUANA ELIZABETH MARTINEZ GONZALEZ       100100000000027226801001NOMINA                                                                                                                            0000304
12345678910     012650004618306352  JOSE JAIME VELASQUEZ MONTES             100100000000027255501001NOMINA                                                                                                                            0000305
12345678910     021540064860918998  LUIS ALBERTO ESCOBAR VENCES             100100000000048268401001NOMINA                                                                                                                            0000306
12345678910     012669029958406865  ARGEL ALBERTO GONZALEZ RODRIGUEZ        100100000000048268401001NOMINA                                                                                                                            0000307
12345678910     021010065119824440  MARCO ANTONIO MARTINEZ RAMIREZ          100100000000078329001001NOMINA                                                                                                                            0000308
12345678910     012016015621359330  MIGUEL ANGEL FERNANDEZ MARTINEZ         100100000000027255501001NOMINA                                                                                                                            0000309
12345678910     012276015592783707  CARLOS ALBERTO FAJARDO VAZQUEZ          100100000000008088601001NOMINA                                                                                                                            0000310
12345678910     014320567955055283  DANIEL GARCIA RIVERA                    100100000000030446401001NOMINA                                                                                                                            0000311
12345678910     012320015513244906  DULCE MONSERRAT VILLALOBOS SOSA         100100000000027255501001NOMINA                                                                                                                            0000312
12345678910     014320606113257535  GADIEL ABIRAM DE LA CRUZ GARZA          100100000000004538201001NOMINA                                                                                                                            0000313
12345678910     002542904490946459  JOSE LORA SANCHEZ                       100100000000027255501001NOMINA                                                                                                                            0000314
12345678910     012320015234626175  MARIA DE LOURDES PRADO MEZA             100100000000033566401001NOMINA                                                                                                                            0000315
12345678910     002215903733235346  MARTHA ALEJANDRA GASPAR GALLEGOS        100100000000031393501001NOMINA                                                                                                                            0000316
12345678910     014215566823379631  JUAN CARLOS GARCIA VILLANUEVA           100100000000031393501001NOMINA                                                                                                                            0000317
12345678910     021220064799658856  ANA KARENT SALGADO RODRIGUEZ            100100000000000000001001NOMINA                                                                                                                            0000318
12345678910     012180015188927225  JAZMIN DEL CARMEN CONTRERAS MAGANA      100100000000029423101001NOMINA                                                                                                                            0000319
12345678910     012537029335568830  MARIANA CARRILLO PADILLA                100100000000027255501001NOMINA                                                                                                                            0000320
12345678910     012180015196025902  YAQUELIN RAQUEL QUINTANILLA RIVERA      100100000000033566401001NOMINA                                                                                                                            0000321
12345678910     014680567910048137  LUIS FRANCISCO RIVERA CORTES            100100000000021422201001NOMINA                                                                                                                            0000322
12345678910     012180015794002945  MARIA LUISA AGUIRRE RODRIGUEZ           100100000000017967001001NOMINA                                                                                                                            0000323
12345678910     012180015202841986  LINDA MARGARITA LOPEZ ROMERO            100100000000029423101001NOMINA                                                                                                                            0000324
12345678910     002227700840734646  DULCE ANAID CABRERA GALAN               100100000000031393501001NOMINA                                                                                                                            0000325
12345678910     012180015221415487  MONICA ELIZABETH SARMIENTO CAPULIN      100100000000029423101001NOMINA                                                                                                                            0000326
12345678910     012650015870839740  DIANA CASTILLO ESPINOZA                 100100000000027255501001NOMINA                                                                                                                            0000327
12345678910     002546904290921829  LUIS FFELIPE CERVANTES ESTRELLA         100100000000027255501001NOMINA                                                                                                                            0000328
12345678910     012537028502737673  LAURA GRANADOS PADILLA                  100100000000027255501001NOMINA                                                                                                                            0000329
12345678910     014650230009129075  GUADALUPE RODRIGUEZ ALAMEDA             100100000000027255501001NOMINA                                                                                                                            0000330
12345678910     012370015234792237  GUADALUPE ISABEL TAMAYO ARCE            100100000000027255501001NOMINA                                                                                                                            0000331
12345678910     012560015220717735  ISMAEL RAMIREZ ACEVES                   100100000000015919701001NOMINA                                                                                                                            0000332
12345678910     002659904538623556  ITZEL ARIEL CABRERA AMADOR              100100000000027255501001NOMINA                                                                                                                            0000333
12345678910     012028028348939720  ARALI ZAMUDIO DOMINGUEZ                 100100000000000000001001NOMINA                                                                                                                            0000334
12345678910     012180015245565313  LUIS FERNANDO MENDOZA LOPEZ             100100000000027255501001NOMINA                                                                                                                            0000335
12345678910     012499028565392708  FERMIN MEZA REYES                       100100000000027255501001NOMINA                                                                                                                            0000336
12345678910     014215606189102897  JULIO IGNACIO DOMINGUEZ LARA            100100000000031393501001NOMINA                                                                                                                            0000337
12345678910     012225015793314023  MISAEL DE JESUS CASILLAS GOMEZ          100100000000017574301001NOMINA                                                                                                                            0000338
12345678910     021010064969780777  YAIR DE JESUS TREJO SALAZAR             100100000000013568301001NOMINA                                                                                                                            0000339
12345678910     012375027525386015  YUNUEN CORTES CISNEROS                  100100000000059175801001NOMINA                                                                                                                            0000340
12345678910     021480064557832298  ERNESTO GARCIA PEREZ                    100100000000027255501001NOMINA                                                                                                                            0000341
12345678910     012180015195078617  PEDRO ANDRES LOPEZ BELLO                100100000000028923101001NOMINA                                                                                                                            0000342
12345678910     012650015041878174  CASANDRA GUERRERO ROSAS                 100100000000027255501001NOMINA                                                                                                                            0000343
12345678910     012320028860570475  JESUS DAVID SOLIS ARCINIEGA             100100000000033566401001NOMINA                                                                                                                            0000344
12345678910     021540064073840507  MARIA DE JESUS GONZALEZ ROSALES         100100000000033566401001NOMINA                                                                                                                            0000345
12345678910     012650015795532449  ARIEL HERNANDEZ VAZQUEZ                 100100000000027255501001NOMINA                                                                                                                            0000346
12345678910     012180015979702620  DANIEL RODRIGUEZ RUIZ                   100100000000027255501001NOMINA                                                                                                                            0000347
12345678910     014010567445354128  SONIA MARIBEL GIRON SALAZAR             100100000000033566401001NOMINA                                                                                                                            0000348
12345678910     012180015029730461  EVELIN DE LA PAZ HERNANDEZ              100100000000028923101001NOMINA                                                                                                                            0000349
12345678910     012180015537345636  MARTHA LETICIA ORTIZ GONZALEZ DE SALCEDA100100000000033566401001NOMINA                                                                                                                            0000350
12345678910     012542015325387062  MARIEL MOLINA BARRADAS                  100100000000033566401001NOMINA                                                                                                                            0000351
12345678910     012546015142902325  PEDRO DE LA VEGA BELTRAN                100100000000004107101001NOMINA                                                                                                                            0000352
12345678910     012540015712627117  LUIS ANGEL HERNANDEZ BASTIDA            100100000000027255501001NOMINA                                                                                                                            0000353
12345678910     002542904144607387  BERNARDO ZURITA HERNANDEZ               100100000000033566401001NOMINA                                                                                                                            0000354
12345678910     012180015491557191  PABLO FLORES GONZALEZ                   100100000000031393501001NOMINA                                                                                                                            0000355
12345678910     012180015407268885  MARIANA ROJAS VENTURA                   100100000000028554001001NOMINA                                                                                                                            0000356
12345678910     012544015868202123  IRVIN JESUS TIRADO TORRES               100100000000027255501001NOMINA                                                                                                                            0000357
12345678910     012543015373276810  JOSUE DAVID MIRANDA GARCIA              100100000000009224701001NOMINA                                                                                                                            0000358
12345678910     012542011635681724  MARICRUZ CAMACHO MORALES                100100000000028554001001NOMINA                                                                                                                            0000359
12345678910     012540028893671286  NOE YUSEL IZUCAR RINCON                 100100000000033566401001NOMINA                                                                                                                            0000360
12345678910     012180015390525499  MIGUEL ANGEL MARTINEZ PLIEGO            100100000000031393501001NOMINA                                                                                                                            0000361
12345678910     012180015390813389  ESAU HERNANDEZ MONTES                   100100000000030893501001NOMINA                                                                                                                            0000362
12345678910     002543904587882852  RAQUEL GUARNEROS HERNANDEZ              100100000000026755501001NOMINA                                                                                                                            0000363
12345678910     012551015715769540  ANABEL AGUILAR FLORES                   100100000000033066401001NOMINA                                                                                                                            0000364
12345678910     012540015485505579  EVER LIRA SANCHEZ                       100100000000030893501001NOMINA                                                                                                                            0000365
12345678910     012540015900826034  VICTOR FERNANDO GUTIERREZ AVILEZ        100100000000026755501001NOMINA                                                                                                                            0000366
12345678910     012180015422651480  ANTONIO DE JESUS GUERRERO ALARCON       100100000000018805801001NOMINA                                                                                                                            0000367
12345678910     012180015043196874  JASSEL ITTAY LOPEZ DOMINGUEZ            100100000000018805801001NOMINA                                                                                                                            0000368
12345678910     012542015074788556  ILIANYT PEREZ GOMEZ                     100100000000021229901001NOMINA                                                                                                                            0000369
12345678910     012542011117748758  FERNANDO SANCHEZ JIMENEZ                100100000000019091601001NOMINA                                                                                                                            0000370
12345678910     012261028474734193  ALEJANDRA MORALES SUASTEGUI             100100000000007158901001NOMINA                                                                                                                            0000371
12345678910     012542015029224984  MARIANA CHETLA MORALES                  100100000000008520501001NOMINA                                                                                                                            0000372
12345678910     014542605812585361  MIGUEL ALEJANDRO DOMINGUEZ ROSAS        100100000000004205901001NOMINA                                                                                                                            0000373
12345678910     002540010781510448  ROBERTO FERNANDEZ OLVERA                100100000000003736701001NOMINA                                                                                                                            0000374
12345678910     012180011331736908  JORGE ESPARZA HERNANDEZ                 100100000000061602201001NOMINA                                                                                                                            0000375
12345678910     012180027511578925  ULISES FERNANDO RUBIO GARCIA            100100000000061602201001NOMINA                                                                                                                            0000376
12345678910     002180902173052325  CHRISTIAN TAFOLLA ZAVALA                100100000000163962401001NOMINA                                                                                                                            0000377
12345678910     014180567339550285  LUIS LEONARDO VALDEZ MEJIA              100100000000061602201001NOMINA                                                                                                                            0000378
12345678910     012180015733958717  HUGO RANGEL LEMUS                       100100000000028854501001NOMINA                                                                                                                            0000379
12345678910     012180015451856612  CARLOS ALFREDO CRUZ CORDERO             100100000000033849101001NOMINA                                                                                                                            0000380
12345678910     002180902173414099  EMMA VARGAS FERRER                      100100000000056462601001NOMINA                                                                                                                            0000381
12345678910     002910700323807844  GUILLERMO TRINIDAD HERNANDEZ MARTINEZ   100100000000168948401001NOMINA                                                                                                                            0000382
12345678910     012180014200395192  ESTELA SOTO ROSAS                       100100000000038983901001NOMINA                                                                                                                            0000383
12345678910     002180901165973057  ADAN MONTESINOS SANTIAGO                100100000000149236001001NOMINA                                                                                                                            0000384
12345678910     002180901484524226  MARIO ENRIQUE BADILLO ROJAS             100100000000196000401001NOMINA                                                                                                                            0000385
12345678910     002180901494018133  OSCAR CORNEJO RODRIGUEZ                 100100000000031054401001NOMINA                                                                                                                            0000386
12345678910     002180903467026710  JUAN ANTONIO POZOS VALVERDE             100100000000000000001001NOMINA                                                                                                                            0000387
12345678910     012180014941326611  DAVID ZARATE GARCIA                     100100000000038483901001NOMINA                                                                                                                            0000388
12345678910     012180015032129072  LUIS DARIO ESTRADA GREGORIO             100100000000060970801001NOMINA                                                                                                                            0000389
12345678910     002180901452343358  ANA LAURA CALIXTO AGUILAR               100100000000119575001001NOMINA                                                                                                                            0000390
12345678910     002830901385783128  IRAIS FERNANDEZ ISLAS                   100100000000044793801001NOMINA                                                                                                                            0000391
12345678910     012180026659794125  EMMANUEL MENDEZ NERI                    100100000000212580301001NOMINA                                                                                                                            0000392
12345678910     002180901186970217  TANIA MARLEN SALOMON MURILLO            100100000000002285301001NOMINA                                                                                                                            0000393
12345678910     012180029189525159  GUSTAVO JIMENEZ REYES                   100100000000010245701001NOMINA                                                                                                                            0000394
12345678910     012180026886884439  ANGELICA HERNANDEZ CAZAREZ              100100000000075381101001NOMINA                                                                                                                            0000395
12345678910     002312900885747523  CLAUDIA SUAREZ HERNANDEZ                100100000000020596701001NOMINA                                                                                                                            0000396
12345678910     002180901012757863  HUGO ALBERTO SORIANO TAPIA              100100000000036254801001NOMINA                                                                                                                            0000397
12345678910     002180902900044535  LETICIA GREGORIO GARCIA                 100100000000046220401001NOMINA                                                                                                                            0000398
12345678910     002180901056750020  CYNTHIA LIDIA TRUJILLO MUNOZ            100100000000066764701001NOMINA                                                                                                                            0000399
12345678910     002180901130651168  ARION MALDONADO VARGAS                  100100000000072759701001NOMINA                                                                                                                            0000400
12345678910     002180901134431960  TANIA IRAIS OROZCO HERNANDEZ            100100000000055254001001NOMINA                                                                                                                            0000401
12345678910     002180901195769613  KAREN ARELI HERNANDEZ HERNANDEZ         100100000000070798001001NOMINA                                                                                                                            0000402
12345678910     002180901211771527  CARLOS ERIK VALDES HERNANDEZ            100100000000030963501001NOMINA                                                                                                                            0000403
12345678910     002685901221381855  DULCE ALEJANDRA ORTEGA HERNANDEZ        100100000000059494001001NOMINA                                                                                                                            0000404
12345678910     002180901268904855  JONATHAN EDU RAMO FLORES                100100000000030963501001NOMINA                                                                                                                            0000405
12345678910     002180901294535667  ALEJANDRO MEDINA SEVERIANO              100100000000038983901001NOMINA                                                                                                                            0000406
12345678910     002180901201458931  PATRICIA LORENA VAZQUEZ ZARATE          100100000000056462601001NOMINA                                                                                                                            0000407
12345678910     012180014200393576  MARIA ISABEL RAMOS AVILA                100100000000337982901001NOMINA                                                                                                                            0000408
12345678910     012180015091266581  GERARDO DANIEL GUTIERREZ GOMEZ          100100000000056462501001NOMINA                                                                                                                            0000409
12345678910     002180901717554248  CAROLINA CALIXTO FLORES                 100100000000036054401001NOMINA                                                                                                                            0000410
12345678910     002540901739713885  MA MAGDALENA OLAIS ESPINOZA             100100000000043953801001NOMINA                                                                                                                            0000411
12345678910     002180901766331577  SERGIO CRUZ SALAZAR                     100100000000007291701001NOMINA                                                                                                                            0000412
12345678910     012180015771609099  FRANCISCO REYES ARISTA                  100100000000017812501001NOMINA                                                                                                                            0000413
12345678910     002832901813062966  TERESA GARCIA GUERRERO                  100100000000021996201001NOMINA                                                                                                                            0000414
12345678910     002180901956375628  OLGA LIDIA PEREZ ARISTA                 100100000000038983901001NOMINA                                                                                                                            0000415
12345678910     002180901977431224  VERONICA CONCEPCION AYALA ZERMENO       100100000000003878701001NOMINA                                                                                                                            0000416
12345678910     002180901981889040  VICTOR MANUEL RIVAS VIDAL               100100000000024909901001NOMINA                                                                                                                            0000417
12345678910     002180901981604652  GABRIEL GORDILLO SANCHEZ                100100000000032976801001NOMINA                                                                                                                            0000418
12345678910     002180902050118887  LAURA GALINDO SOLANO                    100100000000063244001001NOMINA                                                                                                                            0000419
12345678910     002180902054746598  PONCIANO GARZON HERNANDEZ               100100000000038983901001NOMINA                                                                                                                            0000420
