0427286        0000000000010336768150004152313535136829000000003328530027042021PAGO NOMINA                   11AOI1710198E0 00000000000000asesoresimpasrh@gmail.com              27042021                                                                      
0427381        0000000000010336768150012891015928632894000000001253350027042021PAGO NOMINA                   11AOI1710198E0 00000000000000asesoresimpasrh@gmail.com              27042021                                                                      
0427288        0000000000010336768150004152313606833189000000001949770027042021PAGO NOMINA                   11AOI1710198E0 00000000000000asesoresimpasrh@gmail.com              27042021                                                                      
0427291        0000000000010336768150004152313606833171000000001374270027042021PAGO NOMINA                   11AOI1710198E0 00000000000000asesoresimpasrh@gmail.com              27042021                                                                      
0427292        0000000000010336768150004152313606833239000000002250400027042021PAGO NOMINA                   11AOI1710198E0 00000000000000asesoresimpasrh@gmail.com              27042021                                                                      
0427295        0000000000010336768150004152313606833213000000002250400027042021PAGO NOMINA                   11AOI1710198E0 00000000000000asesoresimpasrh@gmail.com              27042021                                                                      
0427298        0000000000010336768150004152313606833288000000001470350027042021PAGO NOMINA                   11AOI1710198E0 00000000000000asesoresimpasrh@gmail.com              27042021                                                                      
0427285        0000000000010336768150004152313606833254000000002250400027042021PAGO NOMINA                   11AOI1710198E0 00000000000000asesoresimpasrh@gmail.com              27042021                                                                      
0427289        0000000000010336768150004152313606833122000000001181890027042021PAGO NOMINA                   11AOI1710198E0 00000000000000asesoresimpasrh@gmail.com              27042021                                                                      
0427386        0000000000010336768150012891015928443494000000001949450027042021PAGO NOMINA                   11AOI1710198E0 00000000000000asesoresimpasrh@gmail.com              27042021                                                                      
0427297        0000000000010336768150004152313606833304000000001181890027042021PAGO NOMINA                   11AOI1710198E0 00000000000000asesoresimpasrh@gmail.com              27042021                                                                      
0427624        0000000000010336768150012891015421063685000000001632010027042021PAGO NOMINA                   11AOI1710198E0 00000000000000asesoresimpasrh@gmail.com              27042021                                                                      
0427625        0000000000010336768150012891015157298384000000001632010027042021PAGO NOMINA                   11AOI1710198E0 00000000000000asesoresimpasrh@gmail.com              27042021                                                                      
0427626        0000000000010336768150012891015427129947000000001464860027042021PAGO NOMINA                   11AOI1710198E0 00000000000000asesoresimpasrh@gmail.com              27042021                                                                      
0427627        0000000000010336768150012891015441224501000000003000230027042021PAGO NOMINA                   11AOI1710198E0 00000000000000asesoresimpasrh@gmail.com              27042021                                                                      
0427628        0000000000010336768150004152313614020688000000001464860027042021PAGO NOMINA                   11AOI1710198E0 00000000000000asesoresimpasrh@gmail.com              27042021                                                                      
0427629        0000000000010336768150004152313775772465000000003500230027042021PAGO NOMINA                   11AOI1710198E0 00000000000000asesoresimpasrh@gmail.com              27042021                                                                      
