65508187217     002691902715256049  BANAMTRIANA ABIGAIL TORRES PECH              100100000000022176801001NOMINA                                                                                                                            0000001
65508187217     002180903557108577  BANAMLUCELY GUADALUPE XIX CHAN               100100000000021082901001NOMINA                                                                                                                            0000002
65508187217     002694902976379584  BANAMYARITZA CAMARA HERNANDEZ                100100000000033973401001NOMINA                                                                                                                            0000003
65508187217     002690904529821449  BANAMDANTE ABRAHAM FRANCO AGUILAR            100100000000019465901001NOMINA                                                                                                                            0000004
65508187217     002694903800849448  BANAMJOHANNA ELIZABETH MORALES LIMON         100100000000023965801001NOMINA                                                                                                                            0000005
65508187217     002855902209247928  BANAMCLAUDIA ADRIANA TELLEZ GUERRERO         100100000000097080401001NOMINA                                                                                                                            0000006
65508187217     002691701538314301  BANAMANGELA MARIA RODRIGUEZ CABRERA          100100000000046158201001NOMINA                                                                                                                            0000007
65508187217     002692904119142154  BANAMSANDRA CONCEPCION MONTEJO COLLI         100100000000033975401001NOMINA                                                                                                                            0000008
65508187217     002690902674016318  BANAMKARINA GUADALUPE RAMIREZ CANUL          100100000000025622101001NOMINA                                                                                                                            0000009
65508187217     002694904307044266  BANAMMARIO ALBERTO CANO HERNANDEZ            100100000000007320701001NOMINA                                                                                                                            0000010
65508187217     002691701710599070  BANAMKARINA GORETTE VILLEGAS PONCE           100100000000033975401001NOMINA                                                                                                                            0000011
65508187217     002691904466748370  BANAMMARIA ERIKA LOPEZ ZAVALA                100100000000025622101001NOMINA                                                                                                                            0000012
65508187217     002694904155461648  BANAMANGEL ADOLFO BACAB SANDOVAL             100100000000027512701001NOMINA                                                                                                                            0000013
65508187217     002010904396669854  BANAMADALBERTO TOLEDO OROZCO                 100100000000033974301001NOMINA                                                                                                                            0000014
65508187217     012694028958315472  BACOMJUAN CARLOS DOMINGUEZ PEREZ             100100000000013110901001NOMINA                                                                                                                            0000015
65508187217     012854015556113968  BACOMELIEZER VAZQUEZ MORALES                 100100000000033974301001NOMINA                                                                                                                            0000016
65508187217     012690015322525038  BACOMIVAN ISMAEL POOT ALVAREZ                100100000000025152101001NOMINA                                                                                                                            0000017
65508187217     012691015363357413  BACOMJONATHAN ALONSO CARMONA CRUZ            100100000000033974301001NOMINA                                                                                                                            0000018
65508187217     012180015207897016  BACOMRODRIGO RIVERA GABRIELLI                100100000000106450001001NOMINA                                                                                                                            0000019
65508187217     012130015486386437  BACOMINGRID BERENICE PEREZ GOMEZ             100100000000033974301001NOMINA                                                                                                                            0000020
65508187217     012690015847679702  BACOMILSE MARIBEL XIJUM COBA                 100100000000033974301001NOMINA                                                                                                                            0000021
65508187217     012180015399502840  BACOMLAURA ANGELICA CANUL GONZALEZ           100100000000029824201001NOMINA                                                                                                                            0000022
65508187217     012180015760832628  BACOMJUAN ANTONIO DE LA CRUZ MONTERO         100100000000033974301001NOMINA                                                                                                                            0000023
65508187217     012691015225234234  BACOMJOSE FRANCISCO CANCHE CHAN              100100000000023267301001NOMINA                                                                                                                            0000024
65508187217     012691026551081441  BACOMJORGE ALFREDO RUIZ SOSA                 100100000000027575001001NOMINA                                                                                                                            0000025
65508187217     012180015074530580  BACOMJAIME GUADALUPE CUA ALAYON              100100000000033974301001NOMINA                                                                                                                            0000026
65508187217     012840029347918275  BACOMCRISTOFHER RAFAEL CORNEJO LANDA         100100000000033975401001NOMINA                                                                                                                            0000027
65508187217     012050015614285192  BACOMJOSE BALTAZAR ALONSO PEREZ OLMEDO       100100000000033474301001NOMINA                                                                                                                            0000028
65508187217     012540015216465273  BACOMDELMY VICTORIA AKE BAAS                 100100000000029824201001NOMINA                                                                                                                            0000029
65508187217     012917015062477844  BACOMNEYTHER DEMETRIO POOX COOL              100100000000062087101001NOMINA                                                                                                                            0000030
65508187217     012691015714251993  BACOMMARIA DE LOURDES VAZQUEZ XIU            100100000000033975401001NOMINA                                                                                                                            0000031
65508187217     012180015862709086  BACOMGUILLERMO MARQUEZ GUTIERREZ             100100000000033975401001NOMINA                                                                                                                            0000032
65508187217     012691015018087999  BACOMFERNANDO RAYMUNDO KU CEN                100100000000004588701001NOMINA                                                                                                                            0000033
65508187217     012180015746484207  BACOMANTONIO DE JESUS RAMIREZ CORREA         100100000000026991001001NOMINA                                                                                                                            0000034
65508187217     012180015538194116  BACOMLETICIA DEL ROSARIO TORRES CERVANTES    100100000000027760401001NOMINA                                                                                                                            0000035
65508187217     012180015633105343  BACOMLUISA MONSERRAT CEPEDA VALENCIA         100100000000036575901001NOMINA                                                                                                                            0000036
65508187217     012180015337283448  BACOMDARWIN OCTAVIO GARCIA CHI               100100000000033975401001NOMINA                                                                                                                            0000037
65508187217     012150028825303417  BACOMLUIS JORGE LOPEZ AVILEZ                 100100000000022932801001NOMINA                                                                                                                            0000038
65508187217     012628029847465974  BACOMMIGUEL ANGEL CHAN ITZA                  100100000000001695801001NOMINA                                                                                                                            0000039
65508187217     012694004650543469  BACOMMANUEL JIMENEZ RAMOS                    100100000000014285801001NOMINA                                                                                                                            0000040
65508187217     012690015526435377  BACOMMARIA SILVIA GARCIA MANZANO             100100000000028975401001NOMINA                                                                                                                            0000041
65508187217     012694015303303880  BACOMMARIO ISMAEL GONZALEZ HERNANDEZ         100100000000033975401001NOMINA                                                                                                                            0000042
65508187217     012694015405939071  BACOMEDUARDO IGNACIO BAUTISTA                100100000000033902901001NOMINA                                                                                                                            0000043
65508187217     012215015178691423  BACOMMARIA GUADALUPE ACOSTA MUKUL            100100000000031928601001NOMINA                                                                                                                            0000044
65508187217     012691015121123960  BACOMJADE SHUHEI TEC CHAN                    100100000000031241501001NOMINA                                                                                                                            0000045
65508187217     012180015857630966  BACOMROSALINDA PEREZ COUTINO                 100100000000031929501001NOMINA                                                                                                                            0000046
65508187217     012690028638623488  BACOMSELMY MARISOL CHAN CASTILLO             100100000000022771901001NOMINA                                                                                                                            0000047
65508187217     012694029661929206  BACOMJOSE VICENTE ROSADO ROSADO              100100000000001354801001NOMINA                                                                                                                            0000048
65508187217     012690015427244997  BACOMJESUS ISRAEL AGUILAR SANSORES           100100000000024709001001NOMINA                                                                                                                            0000049
65508187217     012691015096733346  BACOMISIDRO ALBERTO BALAM MALDONADO          100100000000033973401001NOMINA                                                                                                                            0000050
65508187217     012690015121407056  BACOMLARISA DENISSE RUIZ GONZALEZ            100100000000028555901001NOMINA                                                                                                                            0000051
65508187217     012690027170912810  BACOMYESENIA MARIBEL UH CANO                 100100000000024525901001NOMINA                                                                                                                            0000052
65508187217     012691026417448872  BACOMFRANKLIN DOMINGUEZ CASTELLANOS          100100000000079287001001NOMINA                                                                                                                            0000053
65508187217     012691028676627775  BACOMCRISTEL MENDEZ HERNANDEZ                100100000000041712101001NOMINA                                                                                                                            0000054
65508187217     012692011164191198  BACOMLUCELY DEL CARMEN CHE CHI               100100000000023632201001NOMINA                                                                                                                            0000055
65508187217     021691064604640478  BITALFELIX ZARATE HERNANDEZ                  100100000000023789001001NOMINA                                                                                                                            0000056
65508187217     021692064604056511  BITALRAUL FRANCISCO REYES CABRERA            100100000000033975401001NOMINA                                                                                                                            0000057
65508187217     021690064305372606  BITALFATIMA DEL ROSARIO CAAMAL CAAMAL        100100000000053320201001NOMINA                                                                                                                            0000058
65508187217     021691064974105342  BITALIVAN FLORES VELAZCO                     100100000000030085801001NOMINA                                                                                                                            0000059
65508187217     044691256002235869  COMERAZIEL MENDEZ MENDOZA                    100100000000033974301001NOMINA                                                                                                                            0000060
65508187217     072691010926680863  BBANOJOSE ALBERTO CETZAL MARTIN              100100000000033975401001NOMINA                                                                                                                            0000061
65508187217     072180010658684334  BBANOWILBERTH MANUEL KUK CANCHE              100100000000033237501001NOMINA                                                                                                                            0000062
65508187217     072691004477511345  BBANOLORENA GUADALUPE CHI HUCHIM             100100000000036364501001NOMINA                                                                                                                            0000063
65508187217     072692010978466380  BBANOSOFIA DEL ROSARIO SANCHEZ MOO           100100000000020457901001NOMINA                                                                                                                            0000064
65508187217     072691010627349665  BBANONEFTALI PATRICIO DIAZ                   100100000000013736901001NOMINA                                                                                                                            0000065
65508187217     072180003640212242  BBANOMARIA ISABEL CAAMAL DZUL                100100000000039805901001NOMINA                                                                                                                            0000066
65508187217     072180004851598628  BBANOJOAQUIN CRUZ ROSAS                      100100000000026506701001NOMINA                                                                                                                            0000067
65508187217     072691004887822705  BBANOLETICIA HERNANDEZ SANTOS                100100000000021235801001NOMINA                                                                                                                            0000068
65508187217     072691008484781407  BBANOLUISA MATILDE ESTRELLA GALA             100100000000021235101001NOMINA                                                                                                                            0000069
65508187217     072692003621891484  BBANOIRASEMA DE JESUS CHINAS GARCIA          100100000000069640001001NOMINA                                                                                                                            0000070
65508187217     072691008600581889  BBANOJOSE OBEIMAR VAZQUEZ CIGARROA           100100000000046175701001NOMINA                                                                                                                            0000071
65508187217     072692002961837730  BBANODAVID MELCHOR VELA PERALTA              100100000000033970701001NOMINA                                                                                                                            0000072
65508187217     072694004195296020  BBANOROSA MORALES ARIAS                      100100000000053312901001NOMINA                                                                                                                            0000073
65508187217     072692004201611656  BBANOCHRISTIAN GUADALUPE REJON POOT          100100000000053314701001NOMINA                                                                                                                            0000074
65508187217     072180006959521896  BBANOSANDRA GUADALUPE GONZALEZ MATUS         100100000000057061201001NOMINA                                                                                                                            0000075
65508187217     072180002769055200  BBANOZOILA DEL SOCORRO ALCOCER BALAM         100100000000031852101001NOMINA                                                                                                                            0000076
65508187217     072180008282908304  BBANOCESAR AUGUSTO KU CHI                    100100000000060934301001NOMINA                                                                                                                            0000077
65508187217     072180004098929694  BBANOMELISA ARACELY CATZIN VASQUEZ           100100000000029821901001NOMINA                                                                                                                            0000078
65508187217     127691013001319846  BAZTEPASTORA HEREDIA CANCHE                  100100000000021235801001NOMINA                                                                                                                            0000079
65508187217     127691001013708842  BAZTENANCI LORENA PUC WITZIL                 100100000000043448901001NOMINA                                                                                                                            0000080
65508187217     127691013807050503  BAZTELOURDES ABIGAIL AKE UICAB               100100000000029823501001NOMINA                                                                                                                            0000081
65508187217     127690001022967950  BAZTELAURA ESMERALDA EUAN SANCHEZ            100100000000029824201001NOMINA                                                                                                                            0000082
65508187217     127690013193984193  BAZTELILIA CUPUL PECH                        100100000000021236401001NOMINA                                                                                                                            0000083
65508187217     127691001248695173  BAZTETANIA JANET TAMAYO PINTO                100100000000020429501001NOMINA                                                                                                                            0000084
65508187217     127691001215786879  BAZTEJOSE PABLO GUILLEN INIGO                100100000000028277801001NOMINA                                                                                                                            0000085
65508187217     127691001101258644  BAZTEDIANA GABRIELA CAAMAL DZUL              100100000000025622101001NOMINA                                                                                                                            0000086
65508187217     127692013731619093  BAZTERODRIGO AXEL VALLADARES GOMEZ           100100000000033975401001NOMINA                                                                                                                            0000087
65508187217     127692001222557058  BAZTEJAVIER FRANCISCO PEREZ HERNANDEZ        100100000000012118001001NOMINA                                                                                                                            0000088
65508187217     127694013167281158  BAZTELILIANA LAINEZ ACOSTA                   100100000000023251601001NOMINA                                                                                                                            0000089
65508187217     127690013710442050  BAZTEJOSE ENRIQUE TEC CAB                    100100000000026778501001NOMINA                                                                                                                            0000090
65508187217     127691013080615367  BAZTEMARIA DE LOS ANGELES HERNANDEZ DE LA CR 100100000000038641301001NOMINA                                                                                                                            0000091
65508187217     127691001156289613  BAZTEROBERTO CARLOS FARFAN GOMEZ             100100000000033975401001NOMINA                                                                                                                            0000092
65508187217     127691001390326950  BAZTEMANUEL ALEJANDRO PUERTO TAMAYO          100100000000031428601001NOMINA                                                                                                                            0000093
65508187217     127690013571515744  BAZTECECILIA CONCEPCION PECH TUZ             100100000000025621801001NOMINA                                                                                                                            0000094
65508187217     127694013579891709  BAZTEMARIA ROSA DE LA CRUZ GUZMAN            100100000000023115501001NOMINA                                                                                                                            0000095
65508187217     127690013096515106  BAZTEEVELIN LORAINE CETZ POOL                100100000000033974301001NOMINA                                                                                                                            0000096
65508187217     127691013729658559  BAZTEJUAN ANDRES RIOS CUA                    100100000000033974301001NOMINA                                                                                                                            0000097
65508187217     127691001115071846  BAZTEKAREN CRISTIAN LOPEZ PEREZ              100100000000005849101001NOMINA                                                                                                                            0000098
65508187217     127691017068431093  BAZTEGABRIELA ESTEFANIA CANCHE DIAZ          100100000000029824201001NOMINA                                                                                                                            0000099
65508187217     127691013034200401  BAZTEIVIS ASAF MEJIA SAN PEDRO               100100000000033974301001NOMINA                                                                                                                            0000100
65508187217     127691001058930293  BAZTEDIANA SAIRET BADILLO MARTINEZ           100100000000033974301001NOMINA                                                                                                                            0000101
65508187217     127692013763967810  BAZTEJOSE ALONSO KINIL MIS                   100100000000033975401001NOMINA                                                                                                                            0000102
65508187217     127694013404799688  BAZTEMARIA JESUS TOLEDO RAMIREZ              100100000000014140601001NOMINA                                                                                                                            0000103
65508187217     127691013359320655  BAZTEJHONATAN SMITH LOPEZ HERNANDEZ          100100000000033975401001NOMINA                                                                                                                            0000104
65508187217     127691001330866153  BAZTEYASSER MONSALVO LEON                    100100000000029824201001NOMINA                                                                                                                            0000105
65508187217     127691013590978439  BAZTERAUL JIMENEZ GUZMAN                     100100000000033975401001NOMINA                                                                                                                            0000106
65508187217     127694001287190238  BAZTEFRANCISCO MANUEL SANCHEZ SOLIS          100100000000023235701001NOMINA                                                                                                                            0000107
65508187217     127692013758117947  BAZTEFREDI ALEJANDRO AKE TEP                 100100000000033975401001NOMINA                                                                                                                            0000108
65508187217     127694001346196254  BAZTECLARISSA JAZMIN CETZAL LOPEZ            100100000000025121701001NOMINA                                                                                                                            0000109
65508187217     127691013570814209  BAZTELAURA ANTONIA SARAO MARTINEZ            100100000000029824201001NOMINA                                                                                                                            0000110
65508187217     127690013698710150  BAZTENORMA DEL SOCORRO CANUL TAH             100100000000031929501001NOMINA                                                                                                                            0000111
65508187217     137920102851941861  COPELANGELES NAVIDAD RUIZ CAMPOS             100100000000025621701001NOMINA                                                                                                                            0000112
65508187217     137690130021224937  COPELROSARIA CHUC CAAMAL                     100100000000009382701001NOMINA                                                                                                                            0000113
65508187217     137691103471116650  COPELDULCE ARACELLY CITUK UC                 100100000000016467301001NOMINA                                                                                                                            0000114
65508187217     137691103433200300  COPELBEATRIZ ADRIANA MENDOZA CANUL           100100000000029824201001NOMINA                                                                                                                            0000115
65508187217     137692130038616565  COPELINGRID PATRICIA CABRERA MUNOZ           100100000000033975401001NOMINA                                                                                                                            0000116
65508187217     137691101055930102  COPELBRISA DEL ROSARIO TEC CHALE             100100000000033975401001NOMINA                                                                                                                            0000117
65508187217     137680104123829496  COPELALEXIS ENRIQUE ALCUDIA BARAHONA         100100000000033974301001NOMINA                                                                                                                            0000118
65508187217     137691104105817075  COPELANGEL AUGUSTO TUT CAN                   100100000000019485501001NOMINA                                                                                                                            0000119
65508187217     137691104117221934  COPELKAREN AMAYRANI ARCOS EK                 100100000000025621801001NOMINA                                                                                                                            0000120
65508187217     137692130038220223  COPELSERGIO LEONEL RAMIREZ CANCHE            100100000000033474301001NOMINA                                                                                                                            0000121
65508187217     137691104157999132  COPELMARIA DAMARIS GONZALEZ VELASCO          100100000000025121801001NOMINA                                                                                                                            0000122
65508187217     137692103967186135  COPELKAYMAE ISABEL HYDES VILLAFANA           100100000000025622101001NOMINA                                                                                                                            0000123
65508187217     137691103883613408  COPELMARTHA LIBRADA CEN CANUL                100100000000029824901001NOMINA                                                                                                                            0000124
65508187217     137691102550055594  COPELFRANCISCO JAVIER CANUL CANCHE           100100000000007328501001NOMINA                                                                                                                            0000125
65508187217     137691103889283078  COPELMAYRA YAZMIN CHI POLANCO                100100000000024099901001NOMINA                                                                                                                            0000126
65508187217     137130102065171615  COPELANTONIO GOMEZ DIAZ                      100100000000033975401001NOMINA                                                                                                                            0000127
65508187217     137694103649252770  COPELHEIDY ARACELI BALAM CANUL               100100000000025622101001NOMINA                                                                                                                            0000128
65508187217     137877102813616300  COPELAMIRA VIVES DOMINGUEZ                   100100000000032975401001NOMINA                                                                                                                            0000129
65508187217     137692130002125765  COPELKEILA NOEMI CHAN DIAZ                   100100000000033975401001NOMINA                                                                                                                            0000130
65508187217     137692130031437534  COPELYEREMI GABRIEL SANTANA CAB              100100000000018507601001NOMINA                                                                                                                            0000131
65508187217     137877101772231102  COPELMIRIAM BEATRIZ GARCIA CAMACHO           100100000000020523801001NOMINA                                                                                                                            0000132
65508187217     137694101978167541  COPELGABRIELA IRENE AQUINO LOPEZ             100100000000041302401001NOMINA                                                                                                                            0000133
65508187217     137691103138716607  COPELLUZ ARELI ALVAREZ HERNANDEZ             100100000000019408501001NOMINA                                                                                                                            0000134
