10001153956331904210001DESARROLLO RODIME SA DE CVCNOMINA 19042021     05                                        C00
21001000000000022137591017009000000000000070127317869
300010000000000013826550100000000090223820246                              0000800003NOELI BENICIO OROZCO                                   NOMINA                                                          0000       00
300010000000000006879590100000000090284965441                              0000800041ENRIQUE AMED TOLEDO LAYNES                             NOMINA                                                          0000       00
300010000000000008311810100000000090290256282                              0000800046ANTONIO BERLAY GOMEZ MENDOZA                           NOMINA                                                          0000       00
300010000000000004833930100000000090329080993                              0000800050JEHUS MONTERRUBIO DOMINGUEZ                            NOMINA                                                          0000       00
300010000000000004833930100000000090344533147                              0000800055AXBAL ANDRES CRUZ GUERRA                               NOMINA                                                          0000       00
300010000000000002728990100000000090354247177                              0000800062MARIA GUADALUPE ARIAS LOPEZ                            NOMINA                                                          0000       00
300010000000000002678990100000000090249426422                              0000800017FREDDY SALINAS SANCHEZ                                 NOMINA                                                          0000       00
300010000000000002646570100000000090381022594                              0000800082MAGALI REYES ARAGON                                    NOMINA                                                          0000       00
300010000000000003940320100000000090392568335                              0000800113LUIS SANTAELLA PINACHO                                 NOMINA                                                          0000       00
300010000000000003264900100000000090393744587                              0000800118ANDRES GERONIMO GERONIMO                               NOMINA                                                          0000       00
300010000000000003522940100000000090274768745                              0000800224VICTOR HUGO CHANDOMI CAMACHO                           NOMINA                                                          0000       00
300010000000000002728990100000000090405082429                              0000800157RAFAEL GARCIA CHINAS                                   NOMINA                                                          0000       00
300010000000000004142780100000000090286687791                              0000800390JOSE MANUEL DOMINGUEZ RAMIREZ                          NOMINA                                                          0000       00
300010000000000006879840100000000090223932362                              0000800376ALEJANDRO DURAN BARRIOS                                NOMINA                                                          0000       00
300010000000000004471950100000000090372161778                              0000800423IVAN YAMANI GARCIA VAZQUEZ                             NOMINA                                                          0000       00
300010000000000002430700100000000090413562987                              0000800586ALBERTO HERNANDEZ MORAN                                NOMINA                                                          0000       00
300010000000000003067450100000000090269816979                              0000800627YAHIR HERRERA RODRIGUEZ                                NOMINA                                                          0000       00
300010000000000002946170100000000090355906581                              0000800640EDUARDO SALAZAR IRRIZARI                               NOMINA                                                          0000       00
300010000000000002074590100000000090379680622                              0000800690ROLANDO PACHECO MELENDEZ                               NOMINA                                                          0000       00
300010000000000002946170100000000090420764455                              0000800693MARIANO GUERRA SANCHEZ                                 NOMINA                                                          0000       00
300010000000000002210650100000000090408237989                              0000800701PEDRO ABELARDO GOMEZ RODRIGUEZ                         NOMINA                                                          0000       00
300010000000000004528170100000000070117751609                              0000801034ALICIA HERNANDEZ HERNANDEZ                             NOMINA                                                          0000       00
300010000000000004318970100000000090178749896                              0000801035GREGORIO CESAR PENA SANCHEZ                            NOMINA                                                          0000       00
300010000000000002729070100000000090413928574                              0000801099MARCO ANTONIO GOMEZ ORIHUELA                           NOMINA                                                          0000       00
300010000000000004106600100000000090401771149                              0000801079SELENE MONSERRAT BARTOLO VALENCIA                      NOMINA                                                          0000       00
300010000000000004203400100000000090449244272                              0000802039PATRICK MONDRAGON DIRCIO                               NOMINA                                                          0000       00
300010000000000003140750100000000090451646256                              0000803054ESPERANZA RODRIGUEZ ISLAS                              NOMINA                                                          0000       00
300010000000000005038820100000000070172324531                              0000803044GABRIEL CORONADO GARCIA                                NOMINA                                                          0000       00
300010000000000003941380100000000090411720844                              0000803140LUIS GUILLERMO OSORIO SEGURA                           NOMINA                                                          0000       00
300010000000000002946170100000000090451736875                              0000803178RAUL ALMAZAN VILLANUEVA                                NOMINA                                                          0000       00
300010000000000002946170100000000090157223096                              0000803182ALFREDO ALONSO MOJICA                                  NOMINA                                                          0000       00
300010000000000002946170100000000090400983487                              0000803212JUAN CARLOS RIVERA MORA                                NOMINA                                                          0000       00
300010000000000003038100100000000090451649344                              0000803257GRETA YATZIRY GARCIA BAUTISTA                          NOMINA                                                          0000       00
300010000000000002946170100000000090399826186                              0000803654LINDA ESBEIDY MASCARENAS ARTEAGA                       NOMINA                                                          0000       00
300010000000000003671270100000000090418917805                              0000803754PAULINA ELIZABETH BAUTISTA JIMENEZ                     NOMINA                                                          0000       00
300010000000000009743350100000000090080556224                              0000803801DAVID POSADAS RIVERA                                   NOMINA                                                          0000       00
300010000000000002729070100000000070142907958                              0000803840MYRNA LEONOR CORPUS HERNANDEZ                          NOMINA                                                          0000       00
300010000000000002946170100000000090221636553                              0000803850OLGA DEL CARMEN CORTES HERNANDEZ                       NOMINA                                                          0000       00
300010000000000009928920100000000090224189833                              0000803864VICENTE JIMENEZ SANCHEZ                                NOMINA                                                          0000       00
300010000000000003754150100000000070036238982                              0000901407JUDITH REBECA LARA GIL                                 NOMINA                                                          0000       00
300010000000000002946170100000000070164938679                              0000901580EMMANUEL RODRIGUEZ CEDILLO                             NOMINA                                                          0000       00
300010000000000002946170100000000090344649242                              0000902111ANA GABRIELA GARZA AMBRIZ                              NOMINA                                                          0000       00
300010000000000002946170100000000090270776123                              0000902613MARICELA CHINAS HERNANDEZ                              NOMINA                                                          0000       00
300010000000000003395720100000000090421925207                              0000903355ARTURO CASTILLO VAZQUEZ                                NOMINA                                                          0000       00
300010000000000002729070100000000090451711759                              0000903367TOMAS FLORES JUAREZ                                    NOMINA                                                          0000       00
300010000000000002946170100000000090453294195                              0000903402JUAN LUIS MARTINEZ LUVIO                               NOMINA                                                          0000       00
300010000000000002946170100000000070166814829                              0000903499EDDY ZABDIEL NAVARRETE DOMINGUEZ                       NOMINA                                                          0000       00
300010000000000002946170100000000090424302294                              0000903756ALMA ROSALIA MELCHOR DOMINGUEZ                         NOMINA                                                          0000       00
300010000000000002729070100000000090454688294                              0000903943DULCE GUADALUPE RENDON VARGAS                          NOMINA                                                          0000       00
300010000000000005334690100000000090455399881                              0000904319YOBANA SANCHEZ ANTONIO                                 NOMINA                                                          0000       00
300010000000000002946170100000000090420373537                              0000905462NETZER RUBEN CRUZ VELASQUEZ                            NOMINA                                                          0000       00
300010000000000002729070100000000090458820308                              0000905478BETSAIDA HERNANDEZ GARCIA                              NOMINA                                                          0000       00
300010000000000005178750100000000090414835812                              0000905633JASON JONATHAN SANCHEZ LUNA                            NOMINA                                                          0000       00
300010000000000004789500100000000090441622901                              0000905635ELOY FRANCISCO ALMEIDA HERNANDEZ                       NOMINA                                                          0000       00
300010000000000002896170100000000090434283433                              0000905905HECTOR MANUEL MENDOZA LOPEZ                            NOMINA                                                          0000       00
4001000055000000000022137591000001000000000022137591
