000000001                991519246048          000000000267907DANIEL VALENZUELA MARTINEZ              001001
000000002                991583076601          000000000272907JANETH DEL CARMEN LOPEZ MORALES         001001
000000003                991517452931          000000000272907CAROLINA HURTADO PEDRERO                001001
000000004                991537949235          000000000294617THALIA MARTINEZ ZARATE                  001001
000000005                991534736237          000000000294617CECILIA BERENICE VAZQUEZ HERNANDEZ      001001
000000006                991534703177          000000000294617GUADALUPE DEL CARMEN PINEDA SANCHEZ     001001
000000007                991506496331          000000000228909YARELI LEON JIMENEZ                     001001
000000008                991584573572          000000000272907CARLOS DEL CARMEN ARIAS LORETO          001001
000000009                991536886156          000000000272907ANTONIO LUNA IZQUIERDO                  001001
000000010                991510371534          000000000267907ANGEL RAMIREZ SANCHEZ                   001001
000000011                991542944177          000000000267907ZURI SHADAY VELAZQUEZ MONTEJO           001001
000000012                991511577112          000000000267907DORLING ARLEY LOPEZ HERNANDEZ           001001
000000013                991586548134          000000000289617ISAID GARCIA NOLASCO                    001001
000000014                991556803865          000000000289617ALEJANDRINA MEJIA PEREZ                 001001
000000015                991531132153          000000000289617LUIS CESAR AUGUSTO MANCILLA VAZQUEZ     001001
000000016                992697760906          000000000289617KARINA OLVERA CARRASCO                  001001
000000017                991119012095          000000000289617JORGE ASAEL CABRERA SANCHEZ             001001
000000018                991511862751          000000000289617BRANDON ALEXIS CONTRERAS PIN            001001
000000019                991561926904          000000000272907LOURDES RUIZ MARTINEZ                   001001
000000020                991511819948          000000000272907LUZ SELENE CORDERO RAMOS                001001
000000021                991504089251          000000000272907LUIS MIGUEL AMARO PICAZO                001001
000000022                991562390038          000000000294617RAITZANDER ZUNIGA MELENDEZ              001001
000000023                991541607042          000000000272907ARANZA JUDITH HOYOS MENDEZ              001001
000000024                991594654245          000000000272907ROBERTO CARLOS MORA SANCHEZ             001001
000000025                991533505823          000000000294617JAVIER MORA SALAZAR                     001001
000000026                991567508832          000000000272907FRANCISCO JAVIER ORTEGA CUATECO         001001
000000027                991572514915          000000000294617DIONISIO MENDOZA ESCOBAR                001001
000000028                991534188254          000000000294617RIGOBERTO QUEZADA SAUCEDO               001001
000000029                991547157978          000000000272907CESAR MORALES MERINO                    001001
000000030                991520255919          000000000255040OSCAR LOPEZ DE LA ROSA                  001001
000000031                991522808215          000000000229410IRIANI PEREZ CORDOBA                    001001
000000032                990473010120          000000000272907ROSA PEDRAZA SALAZAR                    001001
000000033                990475514827          000000000294617GUSTAVO TELLO FLORES                    001001
000000034                991546823300          000000000272907WILBERTH OSWALDO UICAB COCOM            001001
000000035                991595937854          000000000272907DAVID GONZALEZ JUAREZ                   001001
000000036                992950258326          000000000294617MARCO ANTONIO DE JESUS MARQUINA         001001
000000037                991525166966          000000000272907FERNANDA PAOLA ESTRADA CHAVEZ           001001
000000038                991161519751          000000000294617CINTHYA MARLET CASTELLANOS FRAIRE       001001
000000039                991525832702          000000000339572JULIO CESAR RAMOS MORALES               001001
000000040                991595763414          000000000272907PERLA JAZMIN GONZALEZ JIMENEZ           001001
000000041                991574216067          000000000533469ANA KAREN TORRES MORALES                001001
000000042                991541814648          000000000272907JUAN MIGUEL GONZALEZ HERNANDEZ          001001
000000043                991526617945          000000000272907MARIA VIRGINIA LOPEZ SOLIS              001001
000000044                991557907648          000000000336118ELVIS DANIEL VAZQUEZ CORONEL            001001
000000045                991515706464          000000000294617JUAN RODRIGUEZ TORRES                   001001
000000046                991520531685          000000000272907YESICA PAREDES GONZALEZ                 001001
000000047                991500197401          000000000272907JUAN CARLOS AVILA PIMENTEL              001001
000000048                991519134422          000000000294617PAOLA CANCINO GARCIA                    001001
000000049                991597830125          000000000272907FLOR DE MARIA PEREZ DOMINGUEZ           001001
000000050                991525503551          000000000272907VERONICA GUADALUPE SOLIS JIMENEZ        001001
000000051                992959417664          000000000214574MARIA GUADALUPE DELFIN GUTIERREZ        001001
000000052                991518503047          000000000272907ANTONY ALFONSO FIGUEROA CHAVEZ          001001
000000053                990460950149          000000000339572MA. GREGORIA NICOLASA NAVARRO MANRIQUE  001001
000000054                991572505290          000000000272907CRISTINA BARBOSA ROMERO                 001001
000000055                991506849748          000000000294617ISMAEL ALEXIS GUZMAN VALLADARES         001001
000000056                992946254314          000000000533469GABRIELA DEL CARMEN GUZMAN MARTINEZ     001001
000000057                992880652903          000000000214574ZAIRA GUADALUPE SORIANO RIVERA          001001
000000058                991519080930          000000000272907MARCOS DAVID PACHECO DOMINGUEZ          001001
000000059                991517486487          000000000272907MARIO ISIDRO BAUTISTA JIMENEZ           001001
000000060                992915602203          000000000294617IVAN LARREA HERNANDEZ                   001001
000000061                991544399547          000000000272907LUIS DIEGO HERNANDEZ TOLEDO             001001
000000062                991592822337          000000000228909DIANA LEYDY PERERA PEREZ                001001
000000063                991518471030          000000000687984ALBERTO CRUZ HERNANDEZ                  001001
000000064                991589016302          000000000311999MONICA ELIZABETH SALVADOR CANALES       001001
000000065                992994842588          000000000294617JUAN ANTONIO LAVARIEGA TOLEDO           001001
000000066                991551514672          000000000208086SANDY MONTIEL CALZADA                   001001
000000067                991530013838          000000000228909ITZAYANA ALVAREZ GALLEGOS               001001
000000068                991558530753          000000000272907MAYRA PORRAS ROMERO                     001001
000000069                991532594412          000000000272907ANA SILVIA ARRAZATE GARCIA              001001
000000070                991581135198          000000000294617KARLA GUADALUPE VILLARREAL QUIROZ       001001
000000071                992978381798          000000000294617GABRIELA CHARIS ESTEVA                  001001
000000072                991519994510          000000000228909KARLA CRISTEL VELAZCO ALATORRE          001001
000000073                991526258304          000000000333456GREGORIA ELIZABETH GARCIA HERNANDEZ     001001
000000074                991506838755          000000000230612JULIAN FLORES VALENCIA                  001001
000000075                992903457818          000000000840431ELDER SUASTEGUI ABURTO                  001001
000000076                991526209044          000000000367134OLGA MARIA OROZCO MARTINEZ              001001
000000077                991522321882          000000000272907LIDIA FERNANDA CELAYA PEREZ             001001
000000078                990466404529          000000000367127LIDIA AVENDANO TRINIDAD                 001001
000000079                991579187378          000000000294617NAYELLI TOLEDO ESTEVA                   001001
000000080                991552845393          000000001588235FERNANDO MUNOZ HERNANDEZ                001001
000000081                991519438650          000000000350141BRENDA MINERVA CERVANTES VILLALBA       001001
000000082                990456653758          000000000294617ODRA CONCEPCION JIMENEZ GONZALEZ        001001
000000083                991545164624          000000000294617MADAIN MALPICA MACIEL                   001001
000000084                991575220890          000000000782098CARLOS HUERECA GONZALEZ                 001001
000000085                991519813001          000000000167759JOSE MARIO AMADOR SANTOS                001001
000000086                991128543909          000000000294617MANUELA RODARTE VARGAS                  001001
000000087                991531752170          000000000294617NIDIA SELENE RODRIGUEZ RIOS             001001
000000088                991515658398          000000000274320YARA MARIELA ANOTA SANDOVAL             001001
000000089                991578007822          000000000294617NADIA ALONDRA PLANCARTE TORRES          001001
000000090                990468241325          000000000294617MARIA DE MONSERRAT REYES ESCAMILLA      001001
000000091                991504042875          000000000294617ANABEL GOMEZ GONZALEZ                   001001
000000092                992857858604          000000000290248FULGENCIO DE LA CRUZ CRUZ               001001
000000093                991519604240          000000000294617JAIME ARIEL DEL ANGEL ZUMAYA            001001
000000094                991546244343          000000000294617ITZEL QUINTERO ALMERAYA                 001001
000000095                991595722619          000000000155729FLOR DAMARIS CARDENAS BURGOS            001001
000000096                991519446750          000000000234413MARIA CONCEPCION BUGARIN CAMARGO        001001
000000097                992895698936          000000000867633JOSE LUIS CURA FUENTES                  001001
000000098                992997013760          000000000500421TERESA DE JESUS DOMINGUEZ MARIANO       001001
000000099                991515902323          000000000294617GENESIS ANTARIS DIAZ PANTOJA            001001
000000100                991509958576          000000000294617MARIA ISABEL DIAZ GUTIERREZ             001001
000000101                991589125020          000000000294617JOSE MANUEL MARTINEZ HERNANDEZ          001001
000000102                991521580881          000000000272004ANDREA CECILIA LOPEZ GARCIA             001001
000000103                991514606984          000000000269974SAGRARIO DEL CARMEN ZURITA GALLARDO     001001
000000104                991535381307          000000000235362RICARDO ALONSO ROSADO CAHUM             001001
000000105                991510146873          000000000149534RAUL ARMANDO RODRIGUEZ UC               001001
000000106                992924869575          000000000294617ISABEL ASENCION LOPEZ                   001001
000000107                992974414357          000000000649873FRANCISCO JAVIER SANDOVAL PERALTA       001001
000000108                992976796486          000000000294617CRISTIAN ARTURO SANCHEZ LARA            001001
000000109                991512849600          000000000294617MARIA ANALLELY JIMENEZ RIOS             001001
000000110                990460841005          000000000235744RICARDO PEREZ PIZA                      001001
000000111                991581127660          000000000294617IRMA LUCIA HERNANDEZ VAZQUEZ            001001
000000112                991520075245          000000000649873ANA LUISA LEYTE ROSALES                 001001
000000113                992897036442          000000000367134ANGEL ROSALES ORTIZ                     001001
000000114                990472358468          000000000294617MIGUEL ANGEL RAMIREZ CRUZ               001001
000000115                991132572729          000000000452817CESAR OTONIEL SALAS SANCHEZ             001001
000000116                991131400142          000000000367127JUAN ANTONIO FLORENTINO MEDINA          001001
000000117                990472585839          000000000294617FRANCISCO LEOPOLDO HERNANDEZ HERNANDEZ  001001
000000118                992956239188          000000000173803AMADA QUITL PALOMARES                   001001
000000119                991528325812          000000000228909BRENDA JUDITH GOMEZ LOPEZ               001001
000000120                991549070877          000000000294617FRANCISCO NUNEZ PARRA                   001001
000000121                991572747696          000000000417575ANDRES ANTONIO LUNA NAVARRETE           001001
000000122                992976737897          000000000355161FREDY DIEGO VICENTE MORALES             001001
000000123                991554596547          000000000230565CLAUDIA ORTEGA CUAUTLE                  001001
000000124                991523014960          000000000294617MARIA JOSEFINA LOPEZ ATILANO            001001
000000125                991524955016          000000000294617VERONICA PALACIOS HERNANDEZ             001001
000000126                991556780566          000000000510811SANTOS GASPAR CRUZ ZARATE               001001
000000127                991576131096          000000000294617MARTHA EMILIA CRUZ MORENO               001001
000000128                991523774612          000000000502817SONIA CORAL VARGAS AVENDANO             001001
000000129                992764730909          000000000681272FERNANDO CRUZ JIMENEZ                   001001
000000130                991538277044          000000000294617ALAN JESUS TORRES TOVAR                 001001
000000131                991553962067          000000000279883ARMANDO VAZQUEZ RAMOS                   001001
000000132                991531340220          000000000340371DIANA JANET GALINDO NUNEZ               001001
000000133                991200697060          000000000452817GUADALUPE GALEANA YEBALE                001001
000000134                991580127714          000000000204440SAID EMMANUEL ARGUETA CANALES           001001
000000135                991580140981          000000000281560DIANA GABRIELA FONSECA ROMERO           001001
000000136                991557693613          000000000147129JOSUE CRUZ DOMINGUEZ                    001001
000000137                991570560301          000000000272907DANIEL PAZ PARRA                        001001
000000138                991584576121          000000000483410ROBERTO HECTOR DOMINGUEZ TOVAR          001001
000000139                991588894404          000000000272907BRENDA TERESA SOLORIO ESPARZA           001001
000000140                991590869494          000000000272907MARIO ERNESTO VAZQUEZ FLORES            001001
000000141                991591056118          000000000272907LILIBETH GUADALUPE ESTRADA FUENTES      001001
000000142                991570788524          000000000272907YOLANDA ADRIANA PETRONILO PAREDES       001001
000000143                991559343052          000000000591540HUGO OMELITO LOPEZ GONZALEZ             001001
000000144                991559346494          000000000294617IGNACIO LEVI GOMEZ RUIZ                 001001
000000145                991531491008          000000000451905JOSE PEREZ DIAZ                         001001
000000146                992934433599          000000000573300SAUL CRUZ HERNANDEZ                     001001
000000147                991514954541          000000000367134ADI MARENI PEREZ VAZQUEZ                001001
000000148                991514944669          000000000367134PEDRO ALFREDO LOPEZ GOMEZ               001001
000000149                991528020012          000000000294617DANIA VANESSA ROBLERO ESCALANTE         001001
000000150                992724262476          000000001588233JORGE IGNACIO PINEDA DIAZ DE LA VEGA    001001
000000151                991171629883          000000000272907GUSTAVO MOTA AGUILAR                    001001
000000152                992964259025          000000000272907RICARDO ANTONIO MERIDA ROMERO           001001
000000153                991576692540          000000000267907FABIOLA OLIVER JACOBO                   001001
000000154                991556776388          000000000272907ERIKA GONZALEZ RAMIREZ                  001001
000000155                991568421148          000000000214574ALAN JOSUE GARCIA TRINIDAD              001001
000000156                991569572913          000000000120850BRENDA CECILIA SANTANA PENA             001001
000000157                992935257476          000000000154181LUIS ANTONIO ROMERO LOPEZ               001001
000000158                991503569376          000000000272907JUAN AURELIO GARCIA ALMARAZ             001001
000000159                991552159026          000000000272907MARIA INES MORALES MATEOS               001001
000000160                990460467316          000000000272907VENTURA SAMUEL PEREZ VARGAS             001001
000000161                991514749502          000000000367138ROCIO CALDERON REYES                    001001
000000162                990458596972          000000000221106ARTURO OSCAR CORTES LOPEZ               001001
000000163                991559240571          000000000272907NADIA HERNANDEZ ARROYO                  001001
000000164                991502853393          000000000294617JUAN ANTONIO RUIZ AVILA                 001001
000000165                991555915171          000000000294617MANUEL ALBERTO LOPEZ LOPEZ              001001
000000166                991431889990          000000001701040GERMAIN GUTIERREZ DE LA CRUZ            001001
000000167                991568864179          000000000508473JUAN ALBERTO VARGAS MARQUEZ             001001
000000168                992925025494          000000000410660VERONICA SILVIA VALDEZ VAZQUEZ          001001
000000169                990455723442          000000000221023JOSE MARTIN CAMACHO VAZQUEZ             001001
000000170                991586583954          000000000191874FERNANDO GALLEGOS GARCIA                001001
000000171                991502083569          000000000272907ROSA ESMERALDA MORALES MARTINEZ         001001
000000172                991500021043          000000000272907KARLA LUCIA LOYDE HERRERA               001001
000000173                991522331101          000000000272907ANTONIO BARQUERAS RIVERA                001001
000000174                991501481614          000000000294617VERONICA VARGAS SILVA                   001001
000000175                991557077637          000000000367138MARIA JULIA MARTINEZ SEVILLA            001001
000000176                992953444155          000000000303735ALVARO GUILLERMO CORBALA RODRIGUEZ      001001
000000177                991535289521          000000000294617BENIGNO DE LA CRUZ GABRIEL              001001
000000178                990462237458          000000000175837LUIS ANGEL JARA LARA                    001001
000000179                991544558561          000000000455473DAVID DUARTE ANIMAS                     001001
000000180                991240791466          000000000388894EDGAR CASASOLA VARGAS                   001001
000000181                992852089386          000000000294617BRENDA ELIA NAVA SANCHEZ                001001
000000182                991539807950          000000000207714MIGUEL ANGEL RAMOS MARTINEZ             001001
000000183                992931464310          000000000294617MARIA VICTORIA TAVIRA MIRALRIO          001001
000000184                990469355502          000000000272907ANGEL RENATO ESPINOZA TORRES            001001
000000185                991523607677          000000000216138LAURA ISELA FLORES MARIN                001001
000000186                992947354738          000000000410660OMAR HILARIO DANIEL                     001001
000000187                991580894559          000000000272907ELIZABETH GOMEZ CASTELLANOS             001001
000000188                991527844339          000000000214574JENNIFER DENIS AVILA SALGADO            001001
000000189                991511453793          000000000234757MARLEN JUAREZ RAMIREZ                   001001
000000190                992845119464          000000000224875MONICA GABRIEL SANCHEZ                  001001
000000191                991532786242          000000000309582BEATRIZ HERNANDEZ HERNANDEZ             001001
000000192                991534419522          000000000309582LEYDI TEMAZATZI ROJAS                   001001
000000193                991522522597          000000000309582BLANCA EDITH ALVAREZ SUAREZ             001001
000000194                992907258259          000000000309582ALEJANDRO PEREZ AMARO                   001001
000000195                991576583008          000000000309582JEHU MENDEZ HERNANDEZ                   001001
000000196                991573579611          000000000272907CARMEN SUGEILY CHAVEZ SUAREZ            001001
000000197                991579722130          000000000272907HERNANDO OLMEDO MOLINA                  001001
000000198                991542464058          000000000483410ERIKA LISSETTE VARGAS VERONA            001001
000000199                991254823222          000000000294617MATEO MARTINEZ HERNANDEZ                001001
000000200                991540400312          000000000272907JOEL SILVA PRIEGO                       001001
000000201                990465444756          000000000424341IVETTE BRENA RAMOS                      001001
000000202                991545934664          000000000214665JESUS LEAL GATICA                       001001
000000203                991538063389          000000000431516EDUARDO HERNANDEZ GONZALEZ              001001
000000204                991529486537          000000000228909GLADIS DEL CARMEN MALDONADO AGUILAR     001001
000000205                991535881679          000000000157535GUILLERMINO ENRIQUE NUNEZ NOLASCO       001001
000000206                991565022703          000000000687993KARINA RAQUEL PALOS GOMEZ               001001
000000207                991481941690          000000000443825ALMA DELIA RAMIREZ DOMINGUEZ            001001
000000208                991228566631          000000000318673ANA ALICIA GONZALEZ MARIANO             001001
000000209                992667935609          000000000660916EMMANUEL CRUZ BAUTISTA                  001001
000000210                992677466609          000000000401537CLAUDIA ADRIANA RAMIREZ DIAZ            001001
000000211                992600282049          000000000058346ALEJANDRO ARON VIEYRA ROJAS             001001
000000212                992736506437          000000000358429SAURIZARETH AVENDANO FERNANDEZ          001001
000000213                992931470574          000000000452817DAISY LAURA NERI PEREZ                  001001
000000214                992677464703          000000000294617JOSE ANTONIO GARCIA HERNANDEZ           001001
000000215                992957951167          000000000364617PEDRO PABLO DOMINGUEZ DEL ANGEL         001001
000000216                992835828406          000000000327417CLAUDIA PINTOR PEREZ                    001001
000000217                992866677029          000000000294617MARIA DEL CARMEN BAUTISTA HERNANDEZ     001001
000000218                991512022761          000000000649873CARLOS TIMOTEO OROZCO TAPIA             001001
000000219                992869587438          000000000533469EFRAIN CORONA LOPEZ                     001001
000000220                992899239502          000000000452817ROSA IRELA ALARCON CANO                 001001
000000221                992912164523          000000000229008ESPERANZA PLUMA GEORGE                  001001
000000222                992980003263          000000000272907ANGEL EDMUNDO AGUILAR COLIN             001001
000000223                992937223544          000000000523286ADAN VASQUEZ SOTO                       001001
000000224                991170941476          000000000294617SAUL CERVANTES GUILLERMO                001001
000000225                991163663663          000000000367138ALBERTO SANTOS GARCIA                   001001
000000226                991501513907          000000000294617ADAN DE LA CRUZ CRUZ                    001001
000000227                992896188915          000000000294617IVAN DE JESUS JUAREZ VALDIVIESO         001001
000000228                991277441576          000000001345318CARLOS ALONSO ADAME LOPEZ               001001
000000229                991131995243          000000000272907NANCY YAZMIN VAZQUEZ HERNANDEZ          001001
000000230                991501464531          000000000189087YESENIA DE JESUS VAZQUEZ PEREZ          001001
000000231                992891268775          000000000294617FREDI DIAZ OROZCO                       001001
000000232                991505351203          000000000294617ROSA NOLASCO MORALES                    001001
000000233                991527200598          000000000483410NANCY GUADALUPE GARCIA AQUINO           001001
000000234                991554721686          000000000272907DAVID ALFONSO CHAVEZ CASTANEDA          001001
000000235                991526392566          000000000294610MICAELA OLIVERA LOPEZ                   001001
000000236                991462392445          000000000219066ARIANNA HERNANDEZ TORRES                001001
000000237                991569315640          000000000687984EDUARDO ALBERTO SAUCEDO RAMOS           001001
000000238                991516613861          000000000411652ALDO GARCIA MAGALLANES                  001001
000000239                991519434766          000000000272907RICARDO JUAREZ ACOSTA                   001001
000000240                991518742050          000000000294617FRANCISCO JAVIER SANTIAGO SANTIAGO      001001
000000241                991586408176          000000000272899SERGIO ATAIN LOPEZ FUENTES              001001
000000242                992892584158          000000000326490MARIA MAGDALENA CASTILLO JIMENEZ        001001
000000243                991508465269          000000000042011CARLOS FILIBERTO GARCIA ALEGRIA         001001
000000244                991577101910          000000000285392LIZETT GOMEZ VILLALOBOS                 001001
000000245                991585221296          000000001310447ANA LAURA GUZMAN OSORIO                 001001
000000246                992799521747          000000000246636MANUELA DE JESUS HERNANDEZ CRUZ         001001
000000247                991167865902          000000000687959RICARDO ROMERO LOPEZ                    001001
000000248                991161650157          000000000281336PAOLA JHOANA VELASCO HIDALGO            001001
000000249                991121484923          000000000649849JOSE ALBERTO GALDAMEZ ALTAMIRANO        001001
