100001E0422202165507461843     04222021
2000020800070OLAN                          GONZALEZ            OVED                          60617353457     000000000000706251
2000030800458CRUZ                          HERNANDEZ           LUIS ARTURO                   60587500698     000000000000272907
2000040800647MARTINEZ                      GALICIA             RODOLFO ALBERTO               56778541944     000000000000300413
2000050800651MONTES                        NARANJO             LUIS  JAVIER                  60610438053     000000000000300413
2000060800633OSORIO                        VALENCIA            JESUS ANGEL                   60601101716     000000000000294617
2000070800658CORDOVA                       FELIX               JUAN FRANCISCO                60602611123     000000000000272907
2000080801088MORALES                       ESCAMILLA           ELDA DEL CARMEN               56767663957     000000000000212448
2000090801150GARCIA                        LOERA               MARIA GUADALUPE               60608635388     000000000000371646
2000100801137VICTORIA                      VIDANA              MARISOL                       56700676950     000000000000483410
2000110801080RIVERA                        RODRIGUEZ           BERNARDO                      60584639302     000000000000225144
2000120803252MARQUEZ                       TEJEDA              LESLIE                        60620559188     000000000000294617
2000130803303PEREZ                         CORTES              DANIEL ANTONIO                20007941409     000000000000294617
2000140901417OCANA                         CASTILLO            VICTORIA CONSUELO             60601908132     000000000000272907
2000150902374GONZALEZ                      CRUZ                SAMUEL                        60616346996     000000000000461884
2000160902338HERNANDEZ                     MORENO              BERTHA FLOR                   56795788837     000000000000371646
2000170901940PEREZ                         DIAZ                GABRIELA JOCELYN              60608032741     000000000000228909
2000180903160DE LA CRUZ                    MOJICA              LUIS GERARDO                  60603192595     000000000000272907
2000190902964LOERA                         SOLIS               DAVID                         60573228651     000000000000467639
2000200902728GONZALEZ                      CRUZ                SANDRA LUZ                    56785279759     000000000000272907
2000210903483ZEPEDA                        HERNANDEZ           RUTH CITLALIC                 56771264074     000000000000294617
2000220903555AVILA                         BAUTISTA            ALEXANDER                     60607734441     000000000000294617
2000230903471VALDEZ                        SAUCEDO             LEIDY VICTORIA                56790872774     000000000000294617
2000240903539PIZARRO                       GUTIERREZ           ENRIQUE                       56763577847     000000000000336118
2000250904176MARTINEZ                      GARCIA              MARIO                         60591766593     000000000000272907
2000260903950LOPEZ                         SANTOS              KARLA YESENIA                 25001672703     000000000000272907
2000270904428ESQUIVEL                      HERNANDEZ           OMAR                          56778698509     000000000000294617
2000280904228MARTINEZ                      DE DIOS             ALDO DE JESUS                 20012322826     000000000000410660
2000290904677LOBATO                        SUAREZ              CARLOS EVERARDO               56776693692     000000000000272907
2000300905922ORDONEZ                       MATA                EDWIN ALEXIS                  25002328469     000000000000289617
2000310905714RODRIGUEZ                     MORENO              ESTEFANY YAMILETH             56804517759     000000000000331118
2000320905245SOBERANO                      ISIDRO              LUIS FERNANDO                 25008991804     000000000000272907
30003300031000000000010015798
