100001E0419202165507461843     04192021
2000020800070OLAN                          GONZALEZ            OVED                          60617353457     000000000000706251
2000030800458CRUZ                          HERNANDEZ           LUIS ARTURO                   60587500698     000000000000272907
2000040800647MARTINEZ                      GALICIA             RODOLFO ALBERTO               56778541944     000000000000300413
2000050800651MONTES                        NARANJO             LUIS  JAVIER                  60610438053     000000000000300413
2000060800633OSORIO                        VALENCIA            JESUS ANGEL                   60601101716     000000000000294617
2000070800658CORDOVA                       FELIX               JUAN FRANCISCO                60602611123     000000000000272907
2000080801088MORALES                       ESCAMILLA           ELDA DEL CARMEN               56767663957     000000000000212448
2000090801007HERNANDEZ                     DEL ANGEL           FLORA NEREIDA                 60617155592     000000000000214828
2000100801080RIVERA                        RODRIGUEZ           BERNARDO                      60584639302     000000000000225144
2000110801137VICTORIA                      VIDANA              MARISOL                       56700676950     000000000000483410
2000120801150GARCIA                        LOERA               MARIA GUADALUPE               60608635388     000000000000371646
2000130803252MARQUEZ                       TEJEDA              LESLIE                        60620559188     000000000000294617
2000140803303PEREZ                         CORTES              DANIEL ANTONIO                20007941409     000000000000294617
2000150901417OCANA                         CASTILLO            VICTORIA CONSUELO             60601908132     000000000000272907
2000160902374GONZALEZ                      CRUZ                SAMUEL                        60616346996     000000000000461884
2000170902338HERNANDEZ                     MORENO              BERTHA FLOR                   56795788837     000000000000371646
2000180901940PEREZ                         DIAZ                GABRIELA JOCELYN              60608032741     000000000000228909
2000190903160DE LA CRUZ                    MOJICA              LUIS GERARDO                  60603192595     000000000000272907
2000200902964LOERA                         SOLIS               DAVID                         60573228651     000000000000467639
2000210902728GONZALEZ                      CRUZ                SANDRA LUZ                    56785279759     000000000000272907
2000220903483ZEPEDA                        HERNANDEZ           RUTH CITLALIC                 56771264074     000000000000294617
2000230903555AVILA                         BAUTISTA            ALEXANDER                     60607734441     000000000000294617
2000240903471VALDEZ                        SAUCEDO             LEIDY VICTORIA                56790872774     000000000000294617
2000250903539PIZARRO                       GUTIERREZ           ENRIQUE                       56763577847     000000000000336118
2000260904176MARTINEZ                      GARCIA              MARIO                         60591766593     000000000000272907
2000270903950LOPEZ                         SANTOS              KARLA YESENIA                 25001672703     000000000000272907
2000280904428ESQUIVEL                      HERNANDEZ           OMAR                          56778698509     000000000000294617
2000290904228MARTINEZ                      DE DIOS             ALDO DE JESUS                 20012322826     000000000000410660
2000300904677LOBATO                        SUAREZ              CARLOS EVERARDO               56776693692     000000000000272907
2000310905922ORDONEZ                       MATA                EDWIN ALEXIS                  25002328469     000000000000289617
2000320905714RODRIGUEZ                     MORENO              ESTEFANY YAMILETH             56804517759     000000000000331118
2000330905245SOBERANO                      ISIDRO              LUIS FERNANDO                 25008991804     000000000000272907
30003400032000000000010230626
