65505232207     012244011301751532  BBBVASILVIA RAMIREZ GUTIERREZ                10010000000005189189DEPOSITO                                                                                                                               0000001
65505232207     044225017044556496  BSCOTJOSE JUAN IBARRA GUILLEN                10010000000003595529DEPOSITO                                                                                                                               0000002
65505232207     012244011376928549  BBBVALAURA ADRIANA GARCIA FLORES             10010000000002383299DEPOSITO                                                                                                                               0000003
65505232207     012320027504863614  BBBVAALEJANDRA YANETH FLORES SIFUENTES       10010000000008587379DEPOSITO                                                                                                                               0000004
65505232207     012320028462929178  BBBVAKALEP EFRAIN MATA ORTIZ                 10010000000002847779DEPOSITO                                                                                                                               0000005
65505232207     014506605582812261  BSANTEDUARDO PEDRAZA CARPIO                  10010000000005169399DEPOSITO                                                                                                                               0000006
65505232207     012498028396753025  BBBVARUBEN OMAR RAMIREZ CORREA               10010000000010133689DEPOSITO                                                                                                                               0000007
65505232207     014476605711541831  BSANTSILVERIO MEJIA GOMEZ                    10010000000001149669DEPOSITO                                                                                                                               0000008
65505232207     012506014053654732  BBBVACARMEN MIROSLAVA HURTADO RUEDA          10010000000002839029DEPOSITO                                                                                                                               0000009
65505232207     012528015266658887  BBBVAJEANNETE AMAIREANI ROMERO CERDA         10010000000005213419DEPOSITO                                                                                                                               0000010
65505232207     012528004702946679  BBBVAGUSTAVO ALONSO RODRIGUEZ PEREZ          10010000000004033919DEPOSITO                                                                                                                               0000011
65505232207     072090004311739130  BBANOALMA DELIA TELLEZ SANCHEZ               10010000000001211699DEPOSITO                                                                                                                               0000012
65505232207     044180001013521493  BSCOTJESUS ADRIAN SORIANO HERNANDEZ          10010000000010479199DEPOSITO                                                                                                                               0000013
65505232207     012497015108894746  BBBVAMARIA GUADALUPE GALLO LUVIANO           10010000000002910449DEPOSITO                                                                                                                               0000014
65505232207     072180002868452050  BBANOFREDY LOPEZ PEREZ                       10010000000005213319DEPOSITO                                                                                                                               0000015
65505232207     014528566875437645  BSANTHILDA MARBAN JARAMILLO                  10010000000006302499DEPOSITO                                                                                                                               0000016
65505232207     072180004851068844  BBANOMAYRA LISSETTE SANCHEZ MARTINEZ         10010000000003359519DEPOSITO                                                                                                                               0000017
65505232207     0485148848  BBANOGUADALUPE CASTELLANOS MAYA              10010000000002383299DEPOSITO                                                                                                                               0000018
65505232207     072180004850937332  BBANOISABEL LOPEZ DIAZ                       10010000000004389449DEPOSITO                                                                                                                               0000019
65505232207     072180004851072924  BBANOMARIA ISABEL VALENCIA REYES             10010000000004641679DEPOSITO                                                                                                                               0000020
65505232207     072180004851491356  BBANOBENITO DIAZ SIMON                       10010000000005182859DEPOSITO                                                                                                                               0000021
65505232207     072180004908228980  BBANOJOSEFINA ALVARADO BENITEZ               10010000000003173699DEPOSITO                                                                                                                               0000022
65505232207     072180004851312244  BBANOMABEL VILLANUEVA VILLASENOR             10010000000006663279DEPOSITO                                                                                                                               0000023
65505232207     072180004851220080  BBANOLUZ MARIA BEATRIZ LARA SANCHEZ          10010000000002383369DEPOSITO                                                                                                                               0000024
65505232207     072180004851357186  BBANOADRIANA GONZALEZ VILLASENOR             10010000000000808559DEPOSITO                                                                                                                               0000025
65505232207     072180004851500108  BBANONEFTALI JUAREZ MARIN                    10010000000005213209DEPOSITO                                                                                                                               0000026
65505232207     072180004851513988  BBANOERIKA OROPEZA VALENTE                   10010000000003287039DEPOSITO                                                                                                                               0000027
65505232207     072215005923860899  BBANOMARIA FERNANDA VILLANUEVA PRADO         10010000000010133599DEPOSITO                                                                                                                               0000028
65505232207     137535102621829702  BBANCMELISSA VIDALES CARDENAS                10010000000002839109DEPOSITO                                                                                                                               0000029
65505232207     012180015261964655  BBBVAJOSEFINA DOMINGUEZ RAMIREZ              10010000000004057919DEPOSITO                                                                                                                               0000030
65505232207     072225010344188258  BBANOALMA DELIA ALVAREZ TORRES               10010000000005213629DEPOSITO                                                                                                                               0000031
65505232207     014375605895869129  BSANTMERY ESTEFANIA MORFIN ANCIRA            10010000000003070329DEPOSITO                                                                                                                               0000032
65505232207     072535003222997064  BBANOMARIA SOCORRO MAGANA MALDONADO          10010000000001427489DEPOSITO                                                                                                                               0000033
65505232207     012180027100279017  BBBVAAMERICA SAMANTHA MUNOZ CUEVAS           10010000000003524889DEPOSITO                                                                                                                               0000034
65505232207     012320029481074757  BBBVAJOSE ANGEL CERVANTES PRECIADO           10010000000003287289DEPOSITO                                                                                                                               0000035
65505232207     012535015654268128  BBBVASAUL GRANADOS LUA                       10010000000005213629DEPOSITO                                                                                                                               0000036
65505232207     012320015460102968  BBBVAROSA MENDOZA CASTILLO                   10010000000002383509DEPOSITO                                                                                                                               0000037
65505232207     012760014717582766  BBBVADENNIA ALEJANDRA ARELLANO SANCHEZ       10010000000007489649DEPOSITO                                                                                                                               0000038
65505232207     127506001113774117  MARTIN SACRAMENTO LOPEZ LOPEZ           10010000000002873729DEPOSITO                                                                                                                               0000039
65505232207     012225015003045422  BBBVAARTURO RODRIGUEZ RAMIREZ                10010000000003287189DEPOSITO                                                                                                                               0000040
65505232207     021497064337701574  OMAR AVELINO BUSTOS                     10010000000005213749DEPOSITO                                                                                                                               0000041
65505232207     014476605842451120  BSANTALMA JANETH REYNA RUIZ                  10010000000002873729DEPOSITO                                                                                                                               0000042
65505232207     012528011599908871  BBBVAMARTHA ARCELIA VAZQUEZ ORTEGA           10010000000002873879DEPOSITO                                                                                                                               0000043
65505232207     012180015577142970  BBBVAVANESSA GUADALUPE CEJA TORRES           10010000000004017229DEPOSITO                                                                                                                               0000044
65505232207     012240026713413321  BBBVAMARIA DEL CARMEN RANGEL RODRIGUEZ       10010000000006039319DEPOSITO                                                                                                                               0000045
65505232207     012476015074024687  BBBVAJASMIN GONZALEZ BARRERA                 10010000000002873809DEPOSITO                                                                                                                               0000046
65505232207     137282102390059305  BBANCDANIEL CORDERO ANTONIO                  10010000000002873809DEPOSITO                                                                                                                               0000047
65505232207     012180015743075855  BBBVAGLORIA LISETH HERNANDEZ CAYETANO        10010000000002873809DEPOSITO                                                                                                                               0000048
65505232207     127497013728321243  MA DE JESUS AMBRIS DELGADO              10010000000002873809DEPOSITO                                                                                                                               0000049
65505232207     137320103143600079  BBANCAIDE AVIGAIL VEGA LUGO                  10010000000003993179DEPOSITO                                                                                                                               0000050
65505232207     012227015053292485  BBBVAMARCO ANTONIO LEDESMA HERNANDEZ         10010000000005213829DEPOSITO                                                                                                                               0000051
65505232207     012320015485191569  BBBVAKATIA IVETTE ROSAS HERNANDEZ            10010000000007147699DEPOSITO                                                                                                                               0000052
65505232207     012180015859856094  BBBVACARLOS SILVA JIMENEZ                    10010000000005213829DEPOSITO                                                                                                                               0000053
65505232207     012180015864111423  BBBVAMARIA GUADALUPE ARENAS REYES            10010000000002455139DEPOSITO                                                                                                                               0000054
65505232207     012180015105417996  BBBVADIANA IRIS MARQUINA MARTINEZ            10010000000003287279DEPOSITO                                                                                                                               0000055
65505232207     012528015021315637  BBBVAROSA HILDA WALDO HERRERA                10010000000002873879DEPOSITO                                                                                                                               0000056
65505232207     014225606018329388  BSANTJOSE LUIS ZARATE HERNANDEZ              10010000000003287279DEPOSITO                                                                                                                               0000057
65505232207     014215606049680925  BSANTYANETH PEREZ VALDOVINOS                 10010000000006086579DEPOSITO                                                                                                                               0000058
65505232207     137320130040756468  BBANCFERNANDO JIMENEZ HERNANDEZ              10010000000003287279DEPOSITO                                                                                                                               0000059
65505232207     012528029682177501  BBBVAANA ROSA PARDO GONZALEZ                 10010000000006352199DEPOSITO                                                                                                                               0000060
65505232207     014528606068100827  BSANTJENNIFER MINERVA GONZALEZ GARCIA        10010000000003287379DEPOSITO                                                                                                                               0000061
65505232207     127215013925935698  JOSEFINA GONZALEZ YERENA                10010000000003247599DEPOSITO                                                                                                                               0000062
65505232207     127261013075666638  MARVIC MALENY CRUZ CARRANZA             10010000000002873899DEPOSITO                                                                                                                               0000063
65505232207     014497230004561150  BSANTLAURA YANETH BALLESTEROS SANCHEZ        10010000000002390109DEPOSITO                                                                                                                               0000064
65505232207     137320130032633764  BBANCHECTOR EDUARDO HERNANDEZ HERNANDEZ      10010000000001356969DEPOSITO                                                                                                                               0000065
65505232207     021282064559942300  OSBEL CORTEZ VALERIO                    10010000000002390109DEPOSITO                                                                                                                               0000066
65505232207     127261013143282038  JAHAIRA CAMACHO HERNANDEZ               10010000000002390109DEPOSITO                                                                                                                               0000067
65505232207     012261015259724454  BBBVAMARIBEL RUIZ PARRA                      10010000000002390109DEPOSITO                                                                                                                               0000068
65505232207     127320013198635076  LORENA SAYANY AGUILERA SANCHEZ          10010000000002455169DEPOSITO                                                                                                                               0000069
65505232207     012497015008631300  BBBVAALMA ESTHER LOPEZ GUZMAN                10010000000003034799DEPOSITO                                                                                                                               0000070
65505232207     127320013366329677  CAROLINA LOPEZ AGUILA                   10010000000000741939DEPOSITO                                                                                                                               0000071
65505232207     021222064687446301  MARIA GUADALUPE GARNICA TREJO           10010000000003287389DEPOSITO                                                                                                                               0000072
65505232207     127528013383606544  ELSA MONSERRAT RAMIREZ ARELLANO         10010000000002390109DEPOSITO                                                                                                                               0000073
65505232207     012180015516972114  BBBVAMONICA PALACIOS SANCHEZ                 10010000000002455169DEPOSITO                                                                                                                               0000074
65505232207     127497013539252763  DIANA GODINEZ RODRIGUEZ                 10010000000002873899DEPOSITO                                                                                                                               0000075
65505232207     021497063913774405  MIGUEL ANGEL LAUREANO NAVARRO           10010000000002455169DEPOSITO                                                                                                                               0000076
65505232207     072320010693838950  BBANOBEATRIZ MONSERRAT SENDEJAS REGALADO     10010000000002873909DEPOSITO                                                                                                                               0000077
65505232207     012476028810326905  BBBVARAUL CRUZ GARCIA                        10010000000002712709DEPOSITO                                                                                                                               0000078
65505232207     137222103446595468  BBANCJESUS ALFONSO GONZALEZ REY              10010000000003287389DEPOSITO                                                                                                                               0000079
65505232207     137225130043231784  BBANCROSA DELIA ORTEGA HERNANDEZ             10010000000002455169DEPOSITO                                                                                                                               0000080
65505232207     012222029358640891  BBBVAFELIX GUILLERMO CONTRERAS ELIAS         10010000000003070339DEPOSITO                                                                                                                               0000081
65505232207     062497008256233106  ADILENE VELEZ GONZALEZ                  10010000000002787149DEPOSITO                                                                                                                               0000082
65505232207     014261567667856428  BSANTREYNALDO CASTILLO PEREZ                 10010000000002873899DEPOSITO                                                                                                                               0000083
65505232207     127261017068311158  MAYRA CECILIA PARAMO AGUILAR            10010000000002873899DEPOSITO                                                                                                                               0000084
65505232207     012222012143322027  BBBVAOMAR PEREZ CAMACHO                      10010000000003070339DEPOSITO                                                                                                                               0000085
65505232207     014248605981932039  BSANTJOSE ANTONIO ARREDONDO PEREZ            10010000000003070339DEPOSITO                                                                                                                               0000086
65505232207     127320001120066175  MARICELA RAMIREZ FLORES                 10010000000003287389DEPOSITO                                                                                                                               0000087
65505232207     127375013836353513  ERIKA YUDITH NAVARRETE GONZALEZ         10010000000003070519DEPOSITO                                                                                                                               0000088
65505232207     127215001302100838  ALEJANDRO RODRIGUEZ CAMPOS              10010000000002553869DEPOSITO                                                                                                                               0000089
65505232207     012320015334508724  BBBVACARLOS HUMBERTO PADILLA ORTIZ           10010000000007172129DEPOSITO                                                                                                                               0000090
65505232207     030320900019960350  FANNY MARGARITA ANAYA CORONA            10010000000003287389DEPOSITO                                                                                                                               0000091
65505232207     014320606053084978  BSANTANA GUADALUPE BAUTISTA DIAZ             10010000000004017359DEPOSITO                                                                                                                               0000092
65505232207     012180015287595817  BBBVAGUSTAVO OREGEL ORTA                     10010000000002873979DEPOSITO                                                                                                                               0000093
65505232207     021320063950061691  ELBIA MARTINEZ MENDEZ                   10010000000002379359DEPOSITO                                                                                                                               0000094
65505232207     012180015633695390  BBBVABENIGNO MAGALLAN TINOCO                 10010000000003070519DEPOSITO                                                                                                                               0000095
65505232207     012180015266634126  BBBVALUIS ANGEL CARRILLO RODRIGUEZ           10010000000003287499DEPOSITO                                                                                                                               0000096
65505232207     012180015688132727  BBBVAOSCAR DANIEL DORADO GARCIA              10010000000002455169DEPOSITO                                                                                                                               0000097
65505232207     127375001278881956  LUZ ELENA GARCIA TORRES                 10010000000003287389DEPOSITO                                                                                                                               0000098
65505232207     012180015740789856  BBBVAIVAN GERARDO JUAREZ DEL MONTE           10010000000002873899DEPOSITO                                                                                                                               0000099
65505232207     137282102074118041  BBANCELOY GUTIERREZ BEIZA                    10010000000002873899DEPOSITO                                                                                                                               0000100
65505232207     012528015659393720  BBBVAMARIA GUADALUPE GONZALEZ SANDOVAL       10010000000002873939DEPOSITO                                                                                                                               0000101
65505232207     012180015625966040  BBBVAMARIA CARMEN VALDES AMEZCUA             10010000000002787149DEPOSITO                                                                                                                               0000102
65505232207     127282013592789462  GILBERTO MACEDA VIDAL                   10010000000002787149DEPOSITO                                                                                                                               0000103
65505232207     012320015453235871  BBBVAPABLO ALFONSO CORTES HERNANDEZ          10010000000003287389DEPOSITO                                                                                                                               0000104
65505232207     012535014396338553  BBBVAHORACIO ALEJANDRO GARCIA PEREZ          10010000000002849239DEPOSITO                                                                                                                               0000105
65505232207     012180015833858872  BBBVAIVAN LAUREL ZAVALA                      10010000000002455169DEPOSITO                                                                                                                               0000106
65505232207     127244001349506628  JUAN ANTONIO TORRES                     10010000000003070519DEPOSITO                                                                                                                               0000107
65505232207     137535102488627642  BBANCMARISOL BASTIDA PLASCENCIA              10010000000002390109DEPOSITO                                                                                                                               0000108
65505232207     127528013102494704  MARIA ESPERANZA GUZMAN LEMUS            10010000000003070519DEPOSITO                                                                                                                               0000109
65505232207     012180015626759353  BBBVASILVIA RAMOS VACA                       10010000000002390109DEPOSITO                                                                                                                               0000110
65505232207     072580010921729856  BBANOMARIA ALEJANDRA CAUDILLO RAMIREZ        10010000000002578989DEPOSITO                                                                                                                               0000111
65505232207     014535567212994982  BSANTESTELA PARDO OROZCO                     10010000000005214039DEPOSITO                                                                                                                               0000112
65505232207     012180015556261814  BBBVAKATYA PAOLA ZAPATA JIMENEZ              10010000000002390109DEPOSITO                                                                                                                               0000113
65505232207     012282028554704983  BBBVAYUNUEN JANITZI TEODORO BENITEZ          10010000000003070519DEPOSITO                                                                                                                               0000114
65505232207     127282013800825940  PATRICIA SERRANO QUIRINO                10010000000002873909DEPOSITO                                                                                                                               0000115
65505232207     127277001365227505  VICTOR JESUS GONZALEZ NOGUEDA           10010000000002873909DEPOSITO                                                                                                                               0000116
65505232207     127210001230201341  MARIA DE LA LUZ GARCIA DIAZ             10010000000003287389DEPOSITO                                                                                                                               0000117
65505232207     012476029840809475  BBBVAROSA IVETTE MADRIZ ARROYO               10010000000003070519DEPOSITO                                                                                                                               0000118
65505232207     137476101037231701  BBANCFREDY GABRIEL HERNANDEZ VILLALOBOS      10010000000002873909DEPOSITO                                                                                                                               0000119
65505232207     012225015089454354  BBBVASANDRA GUADALUPE MENDOZA RODRIGUEZ      10010000000002455169DEPOSITO                                                                                                                               0000120
65505232207     012261015281506132  BBBVAMARIO JORGE OTERO LOPEZ                 10010000000001088799DEPOSITO                                                                                                                               0000121
65505232207     012180015090862313  BBBVALETICIA MARCELO TURJA                   10010000000002873909DEPOSITO                                                                                                                               0000122
65505232207     012506015572981480  BBBVAMARIA CONCEPCION ANGEL TINOCO           10010000000002873909DEPOSITO                                                                                                                               0000123
65505232207     012838015058919945  BBBVALUIS GUTIERREZ LEON                     10010000000002873909DEPOSITO                                                                                                                               0000124
65505232207     014320606018802069  BSANTMARIA OLIVIER GARCIA MARTINEZ           10010000000003261579DEPOSITO                                                                                                                               0000125
65505232207     012320015849457124  BBBVABETZY YUNUEN BARRERA NUNEZ              10010000000002873909DEPOSITO                                                                                                                               0000126
65505232207     012215004696314455  BBBVACARLOS DAVID DOMINGUEZ MARQUEZ          10010000000003070519DEPOSITO                                                                                                                               0000127
65505232207     127180016481446274  JORGE RODRIGUEZ AGUIRRE                 10010000000003070519DEPOSITO                                                                                                                               0000128
65505232207     012493011514558771  BBBVAANDRES NAVARRO URIBE                    10010000000005214039DEPOSITO                                                                                                                               0000129
65505232207     127277013394296142  ALEJANDRO OROZCO ROMERO                 10010000000002873909DEPOSITO                                                                                                                               0000130
65505232207     021225064425627774  REYNA ARLETTE ROJAS CASTRO              10010000000001537779DEPOSITO                                                                                                                               0000131
65505232207     014261566775636861  BSANTDIANA OROPEZA TEODORO                   10010000000002390109DEPOSITO                                                                                                                               0000132
65505232207     127225001315758704  EDUARDO VILLANUEVA MEDINA               10010000000003287389DEPOSITO                                                                                                                               0000133
65505232207     137748103939426104  BBANCSANDRA BALTAZAR VIVANCO                 10010000000003287389DEPOSITO                                                                                                                               0000134
65505232207     012519015688917539  BBBVAJOSE MANUEL BANUET GARCIA               10010000000002873909DEPOSITO                                                                                                                               0000135
65505232207     127504001263363043  LIZANDRO ALCARAZ ESTRADA                10010000000003070519DEPOSITO                                                                                                                               0000136
65505232207     012540015419007221  BBBVABEATRIZ VELEDIAZ TAVARES                10010000000003070519DEPOSITO                                                                                                                               0000137
65505232207     012320029313428510  BBBVAJUAN ANTONIO JIMENEZ RAMIREZ            10010000000003287389DEPOSITO                                                                                                                               0000138
65505232207     012180015163162364  BBBVALUCIA MARTINEZ AGREDA                   10010000000003070519DEPOSITO                                                                                                                               0000139
65505232207     137277103343590647  BBANCADRIANA AHUELICAN AHUIXTLE              10010000000002390119DEPOSITO                                                                                                                               0000140
65505232207     137225103219962607  BBANCOMAR JOSE GUADALUPE HERNANDEZ OROZCO    10010000000003287389DEPOSITO                                                                                                                               0000141
65505232207     127476013543913886  RAFAEL NAVA ROCHA                       10010000000002787149DEPOSITO                                                                                                                               0000142
65505232207     127215013010894631  ANDRES JIMENEZ RODRIGUEZ                10010000000003287389DEPOSITO                                                                                                                               0000143
65505232207     012180015185855277  BBBVAMONSERRAT ALCANTARA CAMPOS              10010000000003287389DEPOSITO                                                                                                                               0000144
65505232207     012180015187958402  BBBVADIANA ELIBETH BELTRAN VILLANUEVA        10010000000002787149DEPOSITO                                                                                                                               0000145
65505232207     030097900016544549  JOSE ROBERTO MONTANO GUADIANA           10010000000003287389DEPOSITO                                                                                                                               0000146
65505232207     012261015064301321  BBBVARICARDO RENDON VARELA                   10010000000002455179DEPOSITO                                                                                                                               0000147
65505232207     014497606176936535  BSANTJOSE FRANCISCO VALENCIA DE LA O         10010000000003070529DEPOSITO                                                                                                                               0000148
65505232207     127180001253223229  MARIO LOPEZ CHAVARRIA                   10010000000003070529DEPOSITO                                                                                                                               0000149
65505232207     137225140013018118  BBANCLAURA BERENICE RIVERA PEREZ             10010000000003287389DEPOSITO                                                                                                                               0000150
65505232207     127180013563361319  ERIC DE LA TORRE ROMERO                 10010000000003070529DEPOSITO                                                                                                                               0000151
65505232207     012180015348637151  BBBVASANDRA PAOLA MUNOS FRAUSTO              10010000000003070529DEPOSITO                                                                                                                               0000152
65505232207     127248001419905744  JUAN PABLO ESTRADA HERNANDEZ            10010000000003226669DEPOSITO                                                                                                                               0000153
65505232207     137535100156030929  BBANCALAIN PAULO PENA GUTIERREZ              10010000000004592339DEPOSITO                                                                                                                               0000154
65505232207     014225606024050023  BSANTMARCO CARRANZA AGUILAR                  10010000000002787399DEPOSITO                                                                                                                               0000155
65505232207     137528102767747221  BBANCJESUS HERNANDEZ TORRES                  10010000000002873909DEPOSITO                                                                                                                               0000156
65505232207     012180015155048616  BBBVASILVIA RAMIREZ BANDA                    10010000000002873909DEPOSITO                                                                                                                               0000157
65505232207     127225001392320223  NESTOR EDUARDO SALAS RODRIGUEZ          10010000000003070519DEPOSITO                                                                                                                               0000158
65505232207     021375065130927964  JESSICA MARIELA ESTRADA LOPEZ           10010000000003070529DEPOSITO                                                                                                                               0000159
65505232207     014320605895697511  BSANTRUBEN GUERRERO ZAMBRANO                 10010000000004017369DEPOSITO                                                                                                                               0000160
65505232207     012180015763401593  BBBVAANDREA MONTES CAMARILLO                 10010000000002873909DEPOSITO                                                                                                                               0000161
65505232207     012225015448227944  BBBVARUTILIA CORTES ARIAS                    10010000000003287389DEPOSITO                                                                                                                               0000162
65505232207     127506001162919745  MARIA NALLELY MONROY VELAZQUEZ          10010000000003070519DEPOSITO                                                                                                                               0000163
65505232207     012320028681544570  BBBVAESTHER DEL ROCIO ARELLANO OCAMPO        10010000000002786809DEPOSITO                                                                                                                               0000164
65505232207     012320028953248151  BBBVAALEJANDRA MONSIVAIS CHAVEZ              10010000000002696109DEPOSITO                                                                                                                               0000165
65505232207     012476015292783140  BBBVAMARIA DE JESUS PAZ ESPINOZA             10010000000004057779DEPOSITO                                                                                                                               0000166
65505232207     072180004851030254  BBANOCARLOS ARTURO DELGADO RODRIGUEZ         10010000000005183079DEPOSITO                                                                                                                               0000167
65505232207     012528011457879631  BBBVAROLANDO ARTEMIO RAMIREZ SERENO          10010000000002873799DEPOSITO                                                                                                                               0000168
65505232207     012282015260310564  BBBVACECILIA PEREZ BARRON                    10010000000002541729DEPOSITO                                                                                                                               0000169
65505232207     012320011509484622  BBBVASAUL ROMERO GONZALEZ                    10010000000005593069DEPOSITO                                                                                                                               0000170
65505232207     012497015736411711  BBBVAAZUCENA SANDOVAL MAXIMINO               10010000000003070329DEPOSITO                                                                                                                               0000171
65505232207     012244015585823512  BBBVAFRANCISCO TORRES CAUDILLO               10010000000002873809DEPOSITO                                                                                                                               0000172
65505232207     012320015656651676  BBBVAANA KARINA DIAZ MORALES                 10010000000001117609DEPOSITO                                                                                                                               0000173
65505232207     012180015733343173  BBBVAMARIA DE LOS ANGELES DIAZ JIMENEZ       10010000000003070419DEPOSITO                                                                                                                               0000174
65505232207     127060001191407573  ELIZABETH RIVERA ALEMAN                 10010000000002873899DEPOSITO                                                                                                                               0000175
65505232207     127248001268215494  JAIME ALBERTO ORTEGA ESQUIVIAS          10010000000003287389DEPOSITO                                                                                                                               0000176
65505232207     127320017095950627  GRACIELA JANET LIMON MARTINEZ           10010000000002455169DEPOSITO                                                                                                                               0000177
65505232207     012180015498305566  BBBVAOMAR MARTINEZ CONTRERAS                 10010000000003070519DEPOSITO                                                                                                                               0000178
65505232207     021320064829787199  NORMA CASTELLANOS CORONEL               10010000000003287389DEPOSITO                                                                                                                               0000179
65505232207     127282001365718300  ISIS ALONDRA HERNANDEZ DIAZ             10010000000002873899DEPOSITO                                                                                                                               0000180
65505232207     012470014045850971  BBBVAADRIAN TELLEZ ZACARIAS                  10010000000003070519DEPOSITO                                                                                                                               0000181
65505232207     012528015853157128  BBBVAKARINA EDITH MARIN HERNANDEZ            10010000000000470629DEPOSITO                                                                                                                               0000182
65505232207     030225900004298983  GABRIELA CASILLAS BONILLA               10010000000003287389DEPOSITO                                                                                                                               0000183
65505232207     137282104024812052  BBANCFLOR ANEL GODOY MORALES                 10010000000002873909DEPOSITO                                                                                                                               0000184
65505232207     012282015072497280  BBBVAEMMANUEL GONZALEZ GIL                   10010000000002873909DEPOSITO                                                                                                                               0000185
65505232207     012180015257299156  BBBVADIANA LAURA GUZMAN MERAZ                10010000000003287389DEPOSITO                                                                                                                               0000186
65505232207     137320140012806446  BBANCKAREN EDITH ESTRADA SANTACRUZ           10010000000002873909DEPOSITO                                                                                                                               0000187
65505232207     012180015149371195  BBBVABERTHA CECILIA HERNANDEZ ESTRADA        10010000000002873909DEPOSITO                                                                                                                               0000188
65505232207     012528015941135971  BBBVAJUAN FRANCISCO WALDO HERRERA            10010000000003070519DEPOSITO                                                                                                                               0000189
65505232207     014320606029114018  BSANTROSA GLADYS GARCIA RUIZ                 10010000000004017369DEPOSITO                                                                                                                               0000190
65505232207     012180015595499896  BBBVAJOSE ASCENCION GONZALEZ MIRANDA         10010000000002873909DEPOSITO                                                                                                                               0000191
65505232207     014095606073562336  BSANTJESUS ARMANDO ALGARA NICANOR            10010000000003070529DEPOSITO                                                                                                                               0000192
65505232207     012180015550197560  BBBVAFREDI SAID HERNANDEZ HERNANDEZ          10010000000002787149DEPOSITO                                                                                                                               0000193
65505232207     127375001119710403  JOSE ALBERTO GONZALEZ ALATORRE          10010000000003070529DEPOSITO                                                                                                                               0000194
65505232207     012885015068869685  BBBVABIANCA XITLALLI MORALES ANGELES         10010000000002455179DEPOSITO                                                                                                                               0000195
65505232207     012180015139970768  BBBVAALICIA ALEJANDRA LOPEZ CERVANTES        10010000000002873909DEPOSITO                                                                                                                               0000196
65505232207     012180015125656737  BBBVAMARIA ELENA ZARAGOZA BOCARDO            10010000000003287389DEPOSITO                                                                                                                               0000197
65505232207     044225017045019181  BSCOTJUAN ARTURO MORENO SANTIAGO             10010000000003766129DEPOSITO                                                                                                                               0000198
65505232207     012225029591594879  BBBVACARLOS ALFREDO PEREZ VILLA              10010000000003540309DEPOSITO                                                                                                                               0000199
65505232207     072225002536723730  BBANOMARIA GUADALUPE MIRELES VILLASANA       10010000000002454879DEPOSITO                                                                                                                               0000200
65505232207     014528605616372532  BSANTJORGE ALFREDO BUCIO BETANCOURT          10010000000003412709DEPOSITO                                                                                                                               0000201
65505232207     012375011609001840  BBBVAIVONNE JAZMIN GONZALEZ HERNANDEZ        10010000000003287069DEPOSITO                                                                                                                               0000202
65505232207     072180004851520968  BBANOLUCIA DEL CARMEN SANCHEZ MOLINA         10010000000004137319DEPOSITO                                                                                                                               0000203
65505232207     072180004851434410  BBANOMIRNA PATRICIA VERA HERNANDEZ           10010000000001789919DEPOSITO                                                                                                                               0000204
65505232207     072180004850989610  BBANOKENNETH SANCHEZ AGATON                  10010000000005782309DEPOSITO                                                                                                                               0000205
65505232207     012320015281627431  BBBVAMIGUEL ANGEL BAEZA OCHOA                10010000000002873799DEPOSITO                                                                                                                               0000206
65505232207     012180015506720680  BBBVAANA MARIA SAMANO PARADA                 10010000000002383509DEPOSITO                                                                                                                               0000207
65505232207     127320013741924312  MARIA DE JESUS PRECIADO GUTIERREZ       10010000000003287279DEPOSITO                                                                                                                               0000208
65505232207     014506566860752221  BSANTLILIANA FLORES RODRIGUEZ                10010000000002787069DEPOSITO                                                                                                                               0000209
65505232207     044476106017584388  BSCOTMARCO ANTONIO FIGUEROA SORIA            10010000000003070519DEPOSITO                                                                                                                               0000210
65505232207     021225064624324632  JUAN PABLO ACOSTA PEREZ                 10010000000002044329DEPOSITO                                                                                                                               0000211
65505232207     072580010570852530  BBANOMARIA DE LOS ANGELES RODRIGUEZ DELGADO  10010000000002873899DEPOSITO                                                                                                                               0000212
65505232207     012261015496048236  BBBVAROSIBEL LOPEZ NAVARRETE                 10010000000005814039DEPOSITO                                                                                                                               0000213
65505232207     030222900011207164  MARIA DE LOS ANGELES PEREZ AVILES       10010000000002705169DEPOSITO                                                                                                                               0000214
65505232207     012535015355771396  BBBVAIGNACIO ALVAREZ HERNANDEZ               10010000000003173989DEPOSITO                                                                                                                               0000215
65505232207     137497130031410688  BBANCBERENICE ESPINO POPOCA                  10010000000002787149DEPOSITO                                                                                                                               0000216
65505232207     012215029803359835  BBBVASANDRA ALEXIS PUCH CHAY                 10010000000000594029DEPOSITO                                                                                                                               0000217
65505232207     012535015570342102  BBBVAMARIA DEL CARMEN VAZQUEZ AYALA          10010000000001828519DEPOSITO                                                                                                                               0000218
65505232207     012180015938621548  BBBVAALAN MOISES ORTEGA NIEVES               10010000000002455169DEPOSITO                                                                                                                               0000219
65505232207     012320029035460717  BBBVAJESUS ENRIQUE MIRANDA SICOURET          10010000000001119329DEPOSITO                                                                                                                               0000220
65505232207     012180015640523743  BBBVAJUAN ROBERTO ORTEGA BONILLA             10010000000003070519DEPOSITO                                                                                                                               0000221
65505232207     014225606149500034  BSANTJESSICA DEL ROCIO PALOMINO VAZQUEZ      10010000000003070519DEPOSITO                                                                                                                               0000222
65505232207     012282028936280782  BBBVAGUILLERMO MARTINEZ MANON                10010000000002873909DEPOSITO                                                                                                                               0000223
65505232207     012476015188829804  BBBVAESPERANZA CASTILLO VALENCIA             10010000000002873909DEPOSITO                                                                                                                               0000224
65505232207     127180016425013139  LUIS ANGEL MARIN TAPIA                  10010000000003070529DEPOSITO                                                                                                                               0000225
65505232207     127528013111735360  CECILIA ALEJO FLORES                    10010000000003070529DEPOSITO                                                                                                                               0000226
65505232207     014528605717146366  BSANTERICK ELIZARRARAZ RETANA                10010000000003070529DEPOSITO                                                                                                                               0000227
65505232207     012215015206202140  BBBVAVICTOR GIOVANNI GUTIERREZ RANGEL        10010000000003596019DEPOSITO                                                                                                                               0000228
65505232207     012320027907099991  BBBVAELIZABETH HERNANDEZ CASTELLANOS         10010000000002899969DEPOSITO                                                                                                                               0000229
65505232207     012225015094927588  BBBVAMA DE LOURDES CAUDILLO VAZQUEZ          10010000000002541619DEPOSITO                                                                                                                               0000230
65505232207     127225001200007094  EDMY PAULINA PEREZ COLIN                10010000000005213319DEPOSITO                                                                                                                               0000231
65505232207     072320008377313716  BBANOCLAUDIA LETICIA LOPEZ PARDO             10010000000005782309DEPOSITO                                                                                                                               0000232
65505232207     044180001013521079  BSCOTESMERALDA RENTERIA MANRRIQUEZ           10010000000002523879DEPOSITO                                                                                                                               0000233
65505232207     072180010142305514  BBANOJOSE ISRAEL RUIZ GONZALEZ               10010000000005213419DEPOSITO                                                                                                                               0000234
65505232207     072180010142305514  BBANOMILAGROS CRISTINA CAMARGO ABOYTES       10010000000005213419DEPOSITO                                                                                                                               0000235
65505232207     072180010142305514  BBANOJOSE ISRAEL RUIZ GONZALEZ               10010000000005213419DEPOSITO                                                                                                                               0000236
65505232207     072180010142305514  BBANOMILAGROS CRISTINA CAMARGO ABOYTES       10010000000005213419DEPOSITO                                                                                                                               0000237
65505232207     072180004850900770  BBANOMA DE LOURDES GUTIERREZ RADILLA         10010000000002933089DEPOSITO                                                                                                                               0000238
65505232207     072180004851386076  BBANOSANTIAGO MARTINEZ MARTINEZ              10010000000005182859DEPOSITO                                                                                                                               0000239
65505232207     012225015048034508  BBBVALUIS MIGUEL MENDOZA GONZALEZ            10010000000002455069DEPOSITO                                                                                                                               0000240
65505232207     012215015800976199  BBBVAPAULA LIDIA MEDINA ALVARADO             10010000000002523059DEPOSITO                                                                                                                               0000241
65505232207     014528605882921720  BSANTJENNIFER VANESSA LARIOS PANTOJA         10010000000005593069DEPOSITO                                                                                                                               0000242
65505232207     127225001199564949  FRANCISCO ENRIQUE OSORIO BUTRON         10010000000003379689DEPOSITO                                                                                                                               0000243
65505232207     072320003350019906  BBANOMAYRA YADIRA AGUILA GONZALEZ            10010000000005213629DEPOSITO                                                                                                                               0000244
65505232207     127528013211090947  MILAGROS ALVARADO AGUILAR               10010000000002787069DEPOSITO                                                                                                                               0000245
65505232207     014790566973262168  BSANTEDMUNDO IGNACIO REYES ESPINOZA          10010000000006342649DEPOSITO                                                                                                                               0000246
65505232207     012180015828299598  BBBVAMARISOL HERNANDEZ DIAZ                  10010000000005213829DEPOSITO                                                                                                                               0000247
65505232207     012506015660996963  BBBVAMARIA DE LA SALUD GUZMAN AYALA          10010000000002376539DEPOSITO                                                                                                                               0000248
65505232207     012248004684477216  BBBVASUSANA VARGAS FLORES                    10010000000003070249DEPOSITO                                                                                                                               0000249
65505232207     012476015205766824  BBBVAMINERVA DEL CARMEN ESPINOZA GOMEZ       10010000000002874069DEPOSITO                                                                                                                               0000250
65505232207     044320010026237651  BSCOTXOCHITH GUADALUPE PRECIADO SANDOVAL     10010000000005180169DEPOSITO                                                                                                                               0000251
65505232207     012215014994971454  BBBVAJONATHAN EMMANUEL PINA MARTINEZ         10010000000003287389DEPOSITO                                                                                                                               0000252
65505232207     012508015898287138  BBBVAMARIA DEL ROSARIO APOLONIO ALEJO        10010000000002873979DEPOSITO                                                                                                                               0000253
65505232207     012261015482633561  BBBVALUIS ALEJANDRO LUDWIG SEVILLA           10010000000002873899DEPOSITO                                                                                                                               0000254
65505232207     012232029960038771  BBBVAALEJANDRA DE JESUS SILVA FLORES         10010000000003070339DEPOSITO                                                                                                                               0000255
65505232207     014535567776194765  BSANTNESTOR RICARDO ESPINOZA VERDUZCO        10010000000003070519DEPOSITO                                                                                                                               0000256
65505232207     012180015894038877  BBBVALISSETH MONSERRAT SALAS MILANES         10010000000002787149DEPOSITO                                                                                                                               0000257
65505232207     014225567704774373  BSANTJUAN CARLOS MOLINA RODRIGUEZ            10010000000005214039DEPOSITO                                                                                                                               0000258
65505232207     012222004727748954  BBBVALIZBETH DANIELA MARTINEZ MARTINEZ       10010000000002455169DEPOSITO                                                                                                                               0000259
65505232207     012282015886295982  BBBVAARIANA YARELY VEJAR REYES               10010000000002787149DEPOSITO                                                                                                                               0000260
65505232207     012232015615696647  BBBVADANIEL ANTONIO FLORES BONILLA           10010000000001141479DEPOSITO                                                                                                                               0000261
65505232207     127225001385882419  MANUEL ALFONSO RODRIGUEZ GOMEZ          10010000000002873909DEPOSITO                                                                                                                               0000262
65505232207     012528029285146667  BBBVABERENICE LOPEZ GAYOSSO                  10010000000003070519DEPOSITO                                                                                                                               0000263
65505232207     030222900013627386  GABRIELA REYES AGUILERA                 10010000000005214039DEPOSITO                                                                                                                               0000264
65505232207     137248104071863920  BBANCMYRIAM HELENA RETIZ ROJAS               10010000000002455169DEPOSITO                                                                                                                               0000265
65505232207     072180002712786584  BBANOMAURICIO MACIAS MANCERA                 10010000000003070519DEPOSITO                                                                                                                               0000266
65505232207     137476130052860982  BBANCMIRYAN ALEJANDRA REYNAUD AREVALO        10010000000003061129DEPOSITO                                                                                                                               0000267
65505232207     137320104053467916  BBANCNAYELI ABIGAIL RAMIREZ AGUILAR          10010000000002455169DEPOSITO                                                                                                                               0000268
65505232207     014225566156697203  BSANTLUZ ELENA RAMIREZ MACIAS                10010000000004016829DEPOSITO                                                                                                                               0000269
65505232207     012320029682785395  BBBVAMANUELA LIZETTE YEH FERNANDEZ           10010000000003978499DEPOSITO                                                                                                                               0000270
65505232207     014528605836248828  BSANTMARIO ALBERTO SANCHEZ MEJIA             10010000000005213419DEPOSITO                                                                                                                               0000271
65505232207     072180004467781890  BBANOHECTOR DANIEL BECERRA CORTES            10010000000002873709DEPOSITO                                                                                                                               0000272
65505232207     072180004851044790  BBANOCRISTIAN ELIVIER FLORES VEGA            10010000000003000669DEPOSITO                                                                                                                               0000273
65505232207     072180004851349084  BBANOMARIA LORENA FUERTE JIMENEZ             10010000000004660569DEPOSITO                                                                                                                               0000274
65505232207     137528103642424396  BBANCMARIA DE LOURDES TINOCO CAMPOS          10010000000001685539DEPOSITO                                                                                                                               0000275
65505232207     021180064193731176  DANIEL FLORES NIETO                     10010000000006625979DEPOSITO                                                                                                                               0000276
65505232207     012528028717870473  BBBVAERICK EDUARDO URIBE MARTINEZ            10010000000002455069DEPOSITO                                                                                                                               0000277
65505232207     072180004012306594  BBANOANTONIO BOTELLO CISNEROS                10010000000005213599DEPOSITO                                                                                                                               0000278
65505232207     012215027070391741  BBBVAELSA ELENA ESQUIVEL PICHARDO            10010000000006041499DEPOSITO                                                                                                                               0000279
65505232207     012560014575937245  BBBVAXITLALLI ANDRESILLO LLAMAS              10010000000002873809DEPOSITO                                                                                                                               0000280
65505232207     072180004356308342  BBANOJORGE SALDANA BERBER                    10010000000004423219DEPOSITO                                                                                                                               0000281
65505232207     012215015538378263  BBBVAJORGE ALEJANDRO CAZARES MONTOYA         10010000000003070249DEPOSITO                                                                                                                               0000282
65505232207     012277028911709963  BBBVASANDRA SANCHEZ MONTES                   10010000000003070519DEPOSITO                                                                                                                               0000283
65505232207     127282001320767024  MARIANA PAREDES MILLAN                  10010000000005214039DEPOSITO                                                                                                                               0000284
65505232207     014320567806279707  BSANTVERONICA MARCELA VELAZQUEZ OLGUIN       10010000000003250149DEPOSITO                                                                                                                               0000285
65505232207     012375015768784855  BBBVADORILIAN ESTRADA SANCHEZ                10010000000003070339DEPOSITO                                                                                                                               0000286
65505232207     012476015217283049  BBBVAMIGUEL ANGEL VILLANUEVA GARCIA          10010000000002873899DEPOSITO                                                                                                                               0000287
65505232207     137528103004384456  BBANCJULIO AURELIO TRUJILLO RODRIGUEZ        10010000000002390109DEPOSITO                                                                                                                               0000288
65505232207     014476605627797449  BSANTJOSE LUIS RINCON HERNANDEZ              10010000000002455169DEPOSITO                                                                                                                               0000289
65505232207     012180015023512290  BBBVAMARIA GUADALUPE SANDOVAL AYALA          10010000000002873979DEPOSITO                                                                                                                               0000290
65505232207     012180015947076414  BBBVAFIDEL ALTAMIRANO JUAREZ                 10010000000002384129DEPOSITO                                                                                                                               0000291
65505232207     014320605933656414  BSANTLEONARDO JESUS BETANCOURT GUTIERREZ     10010000000003287389DEPOSITO                                                                                                                               0000292
65505232207     127320013933458489  LUIS FERNANDO GARCIA CASTANEDA          10010000000003270929DEPOSITO                                                                                                                               0000293
65505232207     012528015760345861  BBBVALUIS FERNANDO GARCIA BENAVIDES          10010000000005214039DEPOSITO                                                                                                                               0000294
65505232207     012277015486599747  BBBVADULCE ELENA JIMENEZ TAPIA               10010000000005214039DEPOSITO                                                                                                                               0000295
65505232207     012506015002890643  BBBVADAVID ISRAEL ARRIAGA HILARIO            10010000000002873909DEPOSITO                                                                                                                               0000296
65505232207     127180016725902416  MOISES ALEJANDRO CARDOSO ORTEGA         10010000000003070519DEPOSITO                                                                                                                               0000297
65505232207     137225104071433917  BBANCJORGE ULISES CAMPOS NEGRETE             10010000000003070519DEPOSITO                                                                                                                               0000298
65505232207     137225104071433917  BBANCROSA ELENA LOPEZ NAVARRO                10010000000003070519DEPOSITO                                                                                                                               0000299
65505232207     012540028720080335  BBANCJORGE ULISES CAMPOS NEGRETE             10010000000003070519DEPOSITO                                                                                                                               0000300
65505232207     012540028720080335  BBANCROSA ELENA LOPEZ NAVARRO                10010000000003070519DEPOSITO                                                                                                                               0000301
65505232207     137225104071433917  BBANCJORGE ULISES CAMPOS NEGRETE             10010000000003070519DEPOSITO                                                                                                                               0000302
65505232207     137225104071433917  BBANCROSA ELENA LOPEZ NAVARRO                10010000000003070519DEPOSITO                                                                                                                               0000303
65505232207     012540028720080335  BBANCJORGE ULISES CAMPOS NEGRETE             10010000000003070519DEPOSITO                                                                                                                               0000304
65505232207     012540028720080335  BBANCROSA ELENA LOPEZ NAVARRO                10010000000003070519DEPOSITO                                                                                                                               0000305
