000000001                992668797919          000000000104491MIGUEL ANGEL ZENDEJAS DE LA CRUZ        001001
000000002                992978248508          000000000104491ARTURO AGUILAR ROJAS                    001001
000000003                992796096387          000000000104491JONATAN RUIZ JIMENEZ                    001001
000000004                990168957517          000000000104491SERGIO SANTOS SUAREZ                    001001
000000005                992668570051          000000000104491JOAQUIN HERNANDEZ MORENO                001001
000000006                992720372633          000000000104491JUAN ANTONIO VARGAS SANTOS              001001
000000007                991530954934          000000000104491ARIEL BENJAMIN LOZANO RIQUELME          001001
000000008                992904915062          000000000073491LUIS ANGEL VALDEZ VILLEGAS              001001
000000009                992935664004          000000000104491FIDENCIO DE SANTIAGO DE SANTIAGO        001001
000000010                991137931506          000000000104491MIGUEL ANGEL LOPEZ CALDERON             001001
000000011                991502180522          000000000104491SILVIA BOTELLO ORDONEZ                  001001
000000012                991585783082          000000000104491CRISTIAN GARCIA REYES                   001001
000000013                991528187731          000000000089037ESTEBAN EMMANUEL BARRERA HERNANDEZ      001001
000000014                991140777226          000000000104491JOSE ALEJANDRO NAZARIO GAYTAN           001001
000000015                991574956799          000000000104491ALEXIS ALFONSO AMEZQUITA HERNANDEZ      001001
000000016                991579382529          000000000104491VIVIANA RIVERA HERNANDEZ                001001
000000017                991521747204          000000000104491FERNANDO GOMEZ CRUZ                     001001
000000018                991517348371          000000000104491ANTONIO MONTIEL ESCOBAR                 001001
000000019                991561572426          000000000041942ERIK DAMIAN MORENO PEREZ                001001
