100001E0614202165507480121     06142021
2000020131652AVILA                         MARTINEZ            FELISA                        56783464264     000000000000104491
2000030109227RANGEL                        LUCAS               ELENA JOSEFINA                60618728298     000000000000104491
2000040127077VELAZQUEZ                     RUEDA               JORGE ALBERTO                 56790725160     000000000000104491
2000050131008JOSE                          JIMENEZ             BERTIN                        56798849691     000000000000104491
2000060114093ESTRADA                       DURAN               JUAN GABRIEL                  60570246935     000000000000104491
2000070106884MELENA                        RODRIGUEZ           MARIA ELIZABETH               60614383786     000000000000057385
2000080108423GARCIA                        GUERRERO            MARIO                         56785880976     000000000000104491
2000090104412GARCIA                        HERNANDEZ           ANTONIO IVAN                  60602664365     000000000000104491
2000100104853LAZCANO                       HERNANDEZ           MARIA LUISA                   60612078698     000000000000104491
2000110103626LOPEZ                         RODRIGUEZ           MARCO ANTONIO                 60617224638     000000000000104491
2000120103823OSORIO                        SANCHEZ             JUAN JESUS                    56804035160     000000000000104491
2000130101370SANCHEZ                       MONTES DE OCA       JUAN CARLOS                   56784291303     000000000000104491
2000140101644SANCHEZ                       MONTES DE OCA       JOSE LUIS                     56806167775     000000000000101954
2000150100543MICHUA                        CUEVAS              LUIS ANTONIO                  56782964660     000000000000104491
2000160100187GOMEZ                         PADILLA             JOSE BENITO                   60620089911     000000000000104491
30001700015000000000001517722
