10001069200151404210001APOYOS EMPRESARIALES REJUM S.A. DE CNOMINA 14042021     05                                        C00
2100100000000001457027901700900000000000004986611
300010000000000006969940100000000090425877851                              0000010006BERENICE ACOSTA MARES                                  NOMINA                                                          0000       00
300010000000000005118770100000000070082857255                              0000010059ANDREA ISABEL HEREDIA CERVANTES                        NOMINA                                                          0000       00
300010000000000006707390100000000090002334584                              0000010192MAURICIO LOPEZ ROSAS                                   NOMINA                                                          0000       00
300010000000000004368020100000000090413367823                              0000010228MARIA DEL ROCIO RADILLA ZAMORA                         NOMINA                                                          0000       00
300010000000000005916910100000000090298995092                              0000010261JUAN CARLOS ARROYO CORONA                              NOMINA                                                          0000       00
300010000000000002271050100000000090414320251                              0000010278PAULINO URBANO RADILLA                                 NOMINA                                                          0000       00
300010000000000002892160100000000090359067452                              0000010467YOLANDA MAYA PAHUA                                     NOMINA                                                          0000       00
300010000000000004100420100000000090361031457                              0000010490MARBELLA MARILEZ GUILLEN                               NOMINA                                                          0000       00
300010000000000001011160100000000090119109395                              0000010795PAOLA ALVAREZ CARDENAS                                 NOMINA                                                          0000       00
300010000000000003139180100000000090382491911                              0000010947ALEXIS ALBERTO TINOCO CALDERON                         NOMINA                                                          0000       00
300010000000000004258280100000000090239964019                              0000011005CECILIA GIOVANNA RUIZ LOZANO                           NOMINA                                                          0000       00
300010000000000003183830100000000090299592463                              0000011026GRECIA MARGARITA SALAZAR AGUILERA                      NOMINA                                                          0000       00
300010000000000002265140100000000090426358726                              0000011032GRISELDA GARCIA SILVA                                  NOMINA                                                          0000       00
300010000000000001357270100000000090261870346                              0000011066JORGE LUIS FLORES RAYA                                 NOMINA                                                          0000       00
300010000000000007028850100000000090263289802                              0000011249KATIA IVETTE ROSAS HERNANDEZ                           NOMINA                                                          0000       00
300010000000000002725480100000000090101121576                              0000011530VERONICA COLIN GONZALEZ                                NOMINA                                                          0000       00
300010000000000001850180100000000090176736541                              0000011533LIZZET MEZA FIGUEROA                                   NOMINA                                                          0000       00
300010000000000002942400100000000090179556943                              0000011540JAZMIN SARABIA BALTEZAR                                NOMINA                                                          0000       00
300010000000000002942230100000000090391018277                              0000011557KAREM ROCIO RODRIGUEZ SERNA                            NOMINA                                                          0000       00
300010000000000005326420100000000090416597781                              0000011603CRISTINA DEL CARMEN QUEZADA AGUILA                     NOMINA                                                          0000       00
300010000000000002204160100000000090405935146                              0000011621ARISBETH RAMIREZ SOTO                                  NOMINA                                                          0000       00
300010000000000004278370100000000070153856514                              0000011645JOSE ANTONIO VALENTIN LORENZO                          NOMINA                                                          0000       00
300010000000000002455350100000000090416528437                              0000011707JUANA MARIA ELENA DELGADO RAMIREZ                      NOMINA                                                          0000       00
300010000000000002889970100000000070128972992                              0000011730CECILIA MARGARITA FUENTES HERNANDEZ                    NOMINA                                                          0000       00
300010000000000002532230100000000090245396464                              0000011733ROSALBA GENCHI GONZALEZ                                NOMINA                                                          0000       00
300010000000000004100670100000000090362383365                              0000011734BLADIMIR GONZALEZ PALACIOS                             NOMINA                                                          0000       00
300010000000000002725550100000000070131944940                              0000011758BRANDON EDIBALDO RAMOS VAZQUEZ                         NOMINA                                                          0000       00
300010000000000003139170100000000090434569671                              0000011771MARTHA LAURA ALONSO LOPEZ                              NOMINA                                                          0000       00
300010000000000002627770100000000090294657745                              0000011764FELIPE DE JESUS VILLANUEVA CASTRO                      NOMINA                                                          0000       00
300010000000000002725550100000000090269829809                              0000011818EDGAR ALEXIS VARGAS TETUAN                             NOMINA                                                          0000       00
300010000000000002321940100000000090424828857                              0000011836ARACELI ARCIGA PENA                                    NOMINA                                                          0000       00
300010000000000002032440100000000090273480535                              0000011838VICTOR RAMON DAVILA VALDEZ                             NOMINA                                                          0000       00
300010000000000003356640100000000090417133533                              0000011839EDGAR JOSUE GUTIERREZ VAZQUEZ                          NOMINA                                                          0000       00
300010000000000003356640100000000090435720454                              0000011870MILVIA PATRICIA LORETO VALLEJO                         NOMINA                                                          0000       00
300010000000000002285370100000000070161917883                              0000011904PAULINA DIAZ QUIROZ                                    NOMINA                                                          0000       00
300010000000000002797870100000000090442447151                              0000011954PERLA ZUHEY AMARO CARRANZA                             NOMINA                                                          0000       00
300010000000000000811370100000000090270212645                              0000011941CLAUDIA ADRIANA MARQUEZ GONZALEZ                       NOMINA                                                          0000       00
300010000000000003139350100000000056011407838                              0000011998DULCE ROSARIO CUELLAR CUELLAR                          NOMINA                                                          0000       00
300010000000000002942310100000000090419084769                              0000012038KAREN LISSET PURECO NUNEZ                              NOMINA                                                          0000       00
300010000000000002942310100000000090444533136                              0000012048DULCE IVETH MACIEL GOMEZ                               NOMINA                                                          0000       00
300010000000000002658970100000000090448951765                              0000037491PALOMA ELIZABETH SALDIERNA MALDONADO                   NOMINA                                                          0000       00
300010000000000000799020100000000090448661023                              0000901700RAMON MOLINA RAMIREZ                                   NOMINA                                                          0000       00
300010000000000002942310100000000090442106257                              0000901852CINTIA YASMIN DIAZ UVILLADA                            NOMINA                                                          0000       00
300010000000000004320070100000000090422567533                              0000903525ISMAEL MEJIA CRUZ                                      NOMINA                                                          0000       00
300010000000000002942310100000000090364747593                              0000904393RICARDO ARREDONDO LORENZO                              NOMINA                                                          0000       00
4001000045000000000014570279000001000000000014570279
