000000001                992604890914          000000000235842ANDREA ITZEL MARCELA SANTABARBARA SABI  001001
000000002                991548189592          000000000235650MARISOL HERNANDEZ GARCIA                001001
000000003                991578335974          000000000235650SANDY JAZMIN MORA BACA                  001001
000000004                991511126393          000000000235700ELENA BECERRIL ALQUICIRA                001001
000000005                990475935997          000000000222542KHEIRA YADIRA OSORIO GONZALEZ           001001
000000006                991561857803          000000000235700JACQUELINE ANGELICA PEREZ ALMAZAN       001001
000000007                991532639464          000000000235650MARCO ANTONIO CASTANEDA CARBAJAL        001001
000000008                990462396653          000000000235700ROCIO ANGELICA JIMENEZ TIRADO           001001
