000000001                991550953957          000000000152933GRACIELA HERNANDEZ HERNANDEZ            001001
000000002                991521059617          000000000152933TERESA HERNANDEZ HERNANDEZ              001001
000000003                991527013457          000000000137933ARTURO CASTILLO SANCHEZ                 001001
000000004                991528816201          000000000258775BRUNO AVENDANO FLORES                   001001
000000005                991533047595          000000000152933MARIA DE LOS ANGELES DOMINGUEZ OSORIO   001001
000000006                991533047618          000000000129553HORACIO DIAZ ROMERO                     001001
000000007                991579996489          000000000129553ALEJANDRO DANIEL JARAMILLO FERNANDEZ    001001
000000008                992950498386          000000000166899ADRIAN VELAZQUEZ GALICIA                001001
000000009                992912327341          000000000190306MAYRA KARINA PEREZ VINALAY              001001
000000010                991515921178          000000000152933BERTA ALICIA MONDRAGON FLORES           001001
000000011                991544611454          000000000297074DANIEL RAUL HERNANDEZ AGUIRRE           001001
000000012                991575030067          000000000155391JESUS SALGADO HERNANDEZ                 001001
000000013                991588097693          000000000155366DANIEL MARQUEZ MORALES                  001001
000000014                991536421773          000000000128969FRANCISCO MANUEL CHIRINO DURAN          001001
000000015                991537209891          000000000119346MATIAS ROMAN SAGUILAN AYONA             001001
000000016                991528458925          000000000065794MANUEL FRANCISCO AZUETA NICIO           001001
000000017                991536421977          000000000208334CARLOS ALFREDO MARIN LUCAS              001001
000000018                991537209921          000000000139723SILVESTRE DAVID CONTRERAS CORNEJO       001001
000000019                992919618252          000000000165116JOSE JESUS CRISTOBAL GUTIERREZ          001001
000000020                991528458933          000000000088016RAUL BASILIO GARCIA MARTINEZ            001001
000000021                991528458941          000000000121031RICARDO ALEJANDRO GONZALEZ ROLDAN       001001
000000022                991528458959          000000000092861FRANCISCO JAVIER JUAREZ ROSAS           001001
000000023                991536421969          000000000171058FELIPE DE JESUS VIZUETT RUIZ            001001
000000024                991536421928          000000000150493PEDRO SANCHEZ SAMPAYO                   001001
000000025                991536421758          000000000208783JOSE MIGUEL MONTIEL RENDON              001001
000000026                991536421765          000000000155428ERIC GEOVANNI MARTINEZ VILLARREAL       001001
000000027                991536421951          000000000139346ADRIAN MARCELINO AVINA                  001001
000000028                991577225141          000000000157799ISRAEL ALVA MELENDEZ                    001001
000000029                992962139251          000000000246593RAYMUNDO AVILA NAVARRO                  001001
000000030                991536421829          000000000169367HECTOR EDUARDO LOPEZ VEGA               001001
000000031                991528816163          000000000152505OSCAR CESAREO BECERRIL                  001001
000000032                991528816171          000000000077063EVA CRUZ CONTRERAS                      001001
000000033                991528816189          000000000151997ESTEBAN ARAIZA TENORIO                  001001
000000034                991551264613          000000000196606JHONATAN FALCON CID                     001001
000000035                991528458908          000000000155428JOSE JULIO FLORES HERNANDEZ             001001
000000036                991536421935          000000000132025ALEJANDRO MAGANA LUNA                   001001
000000037                991528458918          000000000167642RAFAEL DIAZ MARTINEZ                    001001
000000038                991528816197          000000000143185JESUS RAFAEL ESCALANTE ALVAREZ          001001
000000039                991537209883          000000000155497JONATHAN OLIVERA HERNANDEZ              001001
000000040                991553172379          000000000128932EDUARDO JUAREZ FERNANDEZ                001001
000000041                991536421781          000000000155428GUSTAVO VALENTIN VERA LOPEZ             001001
000000042                991529011630          000000000122000JAIME LOPEZ CRUZ                        001001
000000043                991561773682          000000000155391FRANCISCO JAVIER BALBUENA CORTES        001001
000000044                991586689551          000000000128907CESAR GARCIA AMBROSIO                   001001
000000045                991583689004          000000000139292JOSE ANTONIO GARCIA URIBE               001001
000000046                991406669271          000000000324702ANTONIO ALAVEZ MIGUEL                   001001
000000047                991536421803          000000000131851NICOLAS MURCIA APARICIO                 001001
000000048                992666556663          000000000257777DAVID HERNANDEZ VARGAS                  001001
000000049                990461651846          000000000168152JOSE CARLOS LOPEZ LOA                   001001
000000050                992847019149          000000000198018JOSE MANUEL CORDOBA MAYA                001001
000000051                991528458712          000000000155250OSCAR CHAVEZ DELGADO                    001001
000000052                991536421943          000000000195929ALEJANDRO HERNANDEZ CORONA              001001
000000053                991528458720          000000000227020MOISES MORALES RAMIREZ                  001001
000000054                992995311764          000000000137762JOSE DANIEL RODRIGUEZ ELIZALDE          001001
000000055                991528458738          000000000141756JESUS ANTONIO NUNEZ AMAYA               001001
000000056                991528458748          000000000155552MANUEL GONZALEZ JUAREZ                  001001
000000057                992867689306          000000000313061JULIO EDUARDO PEREZ CISNEROS            001001
000000058                991528458755          000000000159272FABRICIO HERNANDEZ ROSALES              001001
000000059                991528458763          000000000136464GUILLERMO HERNANDEZ JACOME              001001
000000060                991528458771          000000000166269JOSE EDUARDO OROZCO MENDOZA             001001
000000061                992666556434          000000000350588OSVALDO ABEL VAZQUEZ QUIROZ             001001
000000062                991536421811          000000000177862MIGUEL ANGEL ARANGO POBLANO             001001
000000063                992709747311          000000000170866CASIMIRO ZEMPOALTECATL CASTILLO         001001
000000064                992720374342          000000000417210ADRIAN GARCIA HERNANDEZ                 001001
000000065                992720369853          000000000169398ORLANDO SANCHEZ HERNANDEZ               001001
000000066                991536421888          000000000192539DANIEL FABILA GARCIA                    001001
000000067                992965555663          000000000151772CRISTHIAN ALAN CEDILLO VANDER MEIREN    001001
000000068                992910732427          000000000248120JUAN SANCHEZ TORRES                     001001
000000069                992933515885          000000000273457EDGAR SERAFIN RODRIGUEZ                 001001
000000070                992944756681          000000000107205ISRAEL FRANCO NAVA                      001001
000000071                991536421900          000000000193796FORTINO MORALES MORALES                 001001
000000072                992968540616          000000000168878HERMILO CALZADA NAVARRO                 001001
000000073                991528458797          000000000166052ALEJANDRO UBALDO GOMEZ GALICIA          001001
000000074                991536421870          000000000145377FLORENCIO PENA PILARES                  001001
000000075                991528458801          000000000200562ADRIAN LEYTE SALAS                      001001
000000076                991536421986          000000000211489ARMANDO REYES TERREROS                  001001
000000077                991542414403          000000000182994EMANUEL VILLAVICENCIO CANADA            001001
000000078                991536421862          000000000188858SERGIO RAMIREZ DAVILA                   001001
000000079                991528458819          000000000172046IVAN CABALLERO SILVA                    001001
000000080                991528458827          000000000188601ARMANDO MIRANDA PALMA                   001001
000000081                991536421918          000000000152954ANTONIO ARELLANO SANCHEZ                001001
000000082                992982939304          000000000150763NOE ADAN GONZALEZ PRADO                 001001
000000083                991536421854          000000000148430TIRSO SANTOS CRUZ                       001001
000000084                992859431136          000000000130384MARTIN ALEJANDRO GIRON REYES            001001
000000085                991536626368          000000000189952OSCAR GONZALEZ SEVILLA                  001001
000000086                991537209913          000000000183898HAYYIM NETZACURY MEDINA MARTINEZ        001001
000000087                991423339165          000000000237672ISRAEL PEDRO ORTIZ                      001001
000000088                992733088030          000000000159417CRISTIAN RICARDO VARGAS PASTEN          001001
000000089                991478155747          000000000203725JUAN MANUEL TABLEROS COYOTE             001001
000000090                992977844786          000000000171561FRANCISCO RUBEN MARTINEZ CHAVEZ         001001
000000091                991540687456          000000000171561DIEGO LOPEZ HERNANDEZ                   001001
000000092                992944505298          000000000187471MAURICIO SALVADOR JAIME PEREZ           001001
000000093                992936851711          000000000158459JOSE GUADALUPE SALAS CERVANTES          001001
000000094                991518222794          000000000164810DANIEL FREDI MARQUEZ IBARRA             001001
000000095                991528458844          000000000188604VICTOR FERNANDO ROJAS HERRERA           001001
000000096                992881129740          000000000248907VICTOR MANUEL MOLINA LEON               001001
000000097                991528458852          000000000189792MIGUEL MEZA MENDEZ                      001001
000000098                991536422060          000000000195352JORGE ABEL MARTINEZ ONOFRE              001001
000000099                991528458888          000000000134215PABLO LOPEZ FUENTES                     001001
000000100                991536421846          000000000155585ZACARIAS ESCAMILLA GARCIA               001001
000000101                991536422078          000000000115764JOB ARTURO MARTINEZ MARTINEZ            001001
000000102                991536421799          000000000143205SANTOS SAUCEDO DE LA CRUZ               001001
000000103                991528458895          000000000174586JESUS DAVID SILVA CERQUEDA              001001
000000104                991520030188          000000000207148ALCESANDER MENDOZA CARRASCO             001001
000000105                991536421898          000000000189352GERARDO MONTANEZ CASTILLO               001001
000000106                991536421837          000000000155428CHRISTIAN ANTONIO PELAEZ CASTILLO       001001
000000107                991536421994          000000000155428MARTIN GARCIA HERNANDEZ                 001001
