65505232207     044225017047121611  BSCOTRUBEN LUQUE PENA                        10010000000002820009DEPOSITO                                                                                                                               0000001
65505232207     012244011301751532  BBBVASILVIA RAMIREZ GUTIERREZ                10010000000000320009DEPOSITO                                                                                                                               0000002
65505232207     044225017044556496  BSCOTJOSE JUAN IBARRA GUILLEN                10010000000000320009DEPOSITO                                                                                                                               0000003
65505232207     044225017045019181  BSCOTJUAN ARTURO MORENO SANTIAGO             10010000000000020009DEPOSITO                                                                                                                               0000004
65505232207     012225029591594879  BBBVACARLOS ALFREDO PEREZ VILLA              10010000000001120009DEPOSITO                                                                                                                               0000005
65505232207     014225566156697203  BSANTLUZ ELENA RAMIREZ MACIAS                10010000000000770009DEPOSITO                                                                                                                               0000006
65505232207     012320027504863614  BBBVAALEJANDRA YANETH FLORES SIFUENTES       10010000000003303509DEPOSITO                                                                                                                               0000007
65505232207     012320028462929178  BBBVAKALEP EFRAIN MATA ORTIZ                 10010000000000320009DEPOSITO                                                                                                                               0000008
65505232207     014506605582812261  BSANTEDUARDO PEDRAZA CARPIO                  10010000000000320009DEPOSITO                                                                                                                               0000009
65505232207     127225001200007094  EDMY PAULINA PEREZ COLIN                10010000000000420009DEPOSITO                                                                                                                               0000010
65505232207     012498028396753025  BBBVARUBEN OMAR RAMIREZ CORREA               10010000000006420009DEPOSITO                                                                                                                               0000011
65505232207     072320008377313716  BBANOCLAUDIA LETICIA LOPEZ PARDO             10010000000000420009DEPOSITO                                                                                                                               0000012
65505232207     014528605616372532  BSANTJORGE ALFREDO BUCIO BETANCOURT          10010000000001350009DEPOSITO                                                                                                                               0000013
65505232207     012320028953248151  BBBVAALEJANDRA MONSIVAIS CHAVEZ              10010000000000920009DEPOSITO                                                                                                                               0000014
65505232207     012528015266658887  BBBVAJEANNETE AMAIREANI ROMERO CERDA         10010000000001170009DEPOSITO                                                                                                                               0000015
65505232207     012320029682785395  BBBVAMANUELA LIZETTE YEH FERNANDEZ           10010000000000420009DEPOSITO                                                                                                                               0000016
65505232207     012528004702946679  BBBVAGUSTAVO ALONSO RODRIGUEZ PEREZ          10010000000000770009DEPOSITO                                                                                                                               0000017
65505232207     012375011609001840  BBBVAIVONNE JAZMIN GONZALEZ HERNANDEZ        10010000000000420009DEPOSITO                                                                                                                               0000018
65505232207     014528605836248828  BSANTMARIO ALBERTO SANCHEZ MEJIA             10010000000000420009DEPOSITO                                                                                                                               0000019
65505232207     072090004311739130  BBANOALMA DELIA TELLEZ SANCHEZ               10010000000000320009DEPOSITO                                                                                                                               0000020
65505232207     072180004467781890  BBANOHECTOR DANIEL BECERRA CORTES            10010000000001012509DEPOSITO                                                                                                                               0000021
65505232207     044180001013521079  BSCOTESMERALDA RENTERIA MANRRIQUEZ           10010000000000420009DEPOSITO                                                                                                                               0000022
65505232207     044180001013521493  BSCOTJESUS ADRIAN SORIANO HERNANDEZ          10010000000000920009DEPOSITO                                                                                                                               0000023
65505232207     012497015108894746  BBBVAMARIA GUADALUPE GALLO LUVIANO           10010000000000420009DEPOSITO                                                                                                                               0000024
65505232207     072180002868452050  BBANOFREDY LOPEZ PEREZ                       10010000000000670009DEPOSITO                                                                                                                               0000025
65505232207     012476015292783140  BBBVAMARIA DE JESUS PAZ ESPINOZA             10010000000000770009DEPOSITO                                                                                                                               0000026
65505232207     072180010142305514  BBANOMILAGROS CRISTINA CAMARGO ABOYTES       10010000000000420009DEPOSITO                                                                                                                               0000027
65505232207     072180004851068844  BBANOMAYRA LISSETTE SANCHEZ MARTINEZ         10010000000000578629DEPOSITO                                                                                                                               0000028
65505232207     072180004850900770  BBANOMA DE LOURDES GUTIERREZ RADILLA         10010000000000334879DEPOSITO                                                                                                                               0000029
65505232207     072180004850937332  BBANOISABEL LOPEZ DIAZ                       10010000000001504499DEPOSITO                                                                                                                               0000030
65505232207     072180004851520968  BBANOLUCIA DEL CARMEN SANCHEZ MOLINA         10010000000000722159DEPOSITO                                                                                                                               0000031
65505232207     072180004851072924  BBANOMARIA ISABEL VALENCIA REYES             10010000000002023509DEPOSITO                                                                                                                               0000032
65505232207     072180004851044790  BBANOCRISTIAN ELIVIER FLORES VEGA            10010000000000488109DEPOSITO                                                                                                                               0000033
65505232207     072180004851349084  BBANOMARIA LORENA FUERTE JIMENEZ             10010000000001425009DEPOSITO                                                                                                                               0000034
65505232207     072180004851491356  BBANOBENITO DIAZ SIMON                       10010000000001637679DEPOSITO                                                                                                                               0000035
65505232207     137528103642424396  BBANCMARIA DE LOURDES TINOCO CAMPOS          10010000000001259509DEPOSITO                                                                                                                               0000036
65505232207     072180004851312244  BBANOMABEL VILLANUEVA VILLASENOR             10010000000003138949DEPOSITO                                                                                                                               0000037
65505232207     072180004851386076  BBANOSANTIAGO MARTINEZ MARTINEZ              10010000000002157969DEPOSITO                                                                                                                               0000038
65505232207     072180004851434410  BBANOMIRNA PATRICIA VERA HERNANDEZ           10010000000001524509DEPOSITO                                                                                                                               0000039
65505232207     072180004851357186  BBANOADRIANA GONZALEZ VILLASENOR             10010000000000452319DEPOSITO                                                                                                                               0000040
65505232207     072180004851500108  BBANONEFTALI JUAREZ MARIN                    10010000000000420009DEPOSITO                                                                                                                               0000041
65505232207     072180004850989610  BBANOKENNETH SANCHEZ AGATON                  10010000000000101409DEPOSITO                                                                                                                               0000042
65505232207     021180064193731176  DANIEL FLORES NIETO                     10010000000006980009DEPOSITO                                                                                                                               0000043
65505232207     072180004851030254  BBANOCARLOS ARTURO DELGADO RODRIGUEZ         10010000000002150679DEPOSITO                                                                                                                               0000044
65505232207     072180004851513988  BBANOERIKA OROPEZA VALENTE                   10010000000001093939DEPOSITO                                                                                                                               0000045
65505232207     072215005923860899  BBANOMARIA FERNANDA VILLANUEVA PRADO         10010000000004920009DEPOSITO                                                                                                                               0000046
65505232207     012528011457879631  BBBVAROLANDO ARTEMIO RAMIREZ SERENO          10010000000000320009DEPOSITO                                                                                                                               0000047
65505232207     012180015261964655  BBBVAJOSEFINA DOMINGUEZ RAMIREZ              10010000000000770009DEPOSITO                                                                                                                               0000048
65505232207     072225010344188258  BBANOALMA DELIA ALVAREZ TORRES               10010000000000420009DEPOSITO                                                                                                                               0000049
65505232207     014375605895869129  BSANTMERY ESTEFANIA MORFIN ANCIRA            10010000000000320009DEPOSITO                                                                                                                               0000050
65505232207     127225001199564949  FRANCISCO ENRIQUE OSORIO BUTRON         10010000000000420009DEPOSITO                                                                                                                               0000051
65505232207     072535003222997064  BBANOMARIA SOCORRO MAGANA MALDONADO          10010000000000320009DEPOSITO                                                                                                                               0000052
65505232207     012320029481074757  BBBVAJOSE ANGEL CERVANTES PRECIADO           10010000000000420009DEPOSITO                                                                                                                               0000053
65505232207     072320003350019906  BBANOMAYRA YADIRA AGUILA GONZALEZ            10010000000000820009DEPOSITO                                                                                                                               0000054
65505232207     012535015654268128  BBBVASAUL GRANADOS LUA                       10010000000000420009DEPOSITO                                                                                                                               0000055
65505232207     012320011509484622  BBBVASAUL ROMERO GONZALEZ                    10010000000000420009DEPOSITO                                                                                                                               0000056
65505232207     012760014717582766  BBBVADENNIA ALEJANDRA ARELLANO SANCHEZ       10010000000000920009DEPOSITO                                                                                                                               0000057
65505232207     127506001113774117  MARTIN SACRAMENTO LOPEZ LOPEZ           10010000000000320009DEPOSITO                                                                                                                               0000058
65505232207     012225015003045422  BBBVAARTURO RODRIGUEZ RAMIREZ                10010000000000420009DEPOSITO                                                                                                                               0000059
65505232207     072180004012306594  BBANOANTONIO BOTELLO CISNEROS                10010000000000420009DEPOSITO                                                                                                                               0000060
65505232207     021497064337701574  OMAR AVELINO BUSTOS                     10010000000000420009DEPOSITO                                                                                                                               0000061
65505232207     014476605842451120  BSANTALMA JANETH REYNA RUIZ                  10010000000000320009DEPOSITO                                                                                                                               0000062
65505232207     012497015736411711  BBBVAAZUCENA SANDOVAL MAXIMINO               10010000000000320009DEPOSITO                                                                                                                               0000063
65505232207     012528011599908871  BBBVAMARTHA ARCELIA VAZQUEZ ORTEGA           10010000000000320009DEPOSITO                                                                                                                               0000064
65505232207     012180015577142970  BBBVAVANESSA GUADALUPE CEJA TORRES           10010000000000920009DEPOSITO                                                                                                                               0000065
65505232207     012240026713413321  BBBVAMARIA DEL CARMEN RANGEL RODRIGUEZ       10010000000000320009DEPOSITO                                                                                                                               0000066
65505232207     012244015585823512  BBBVAFRANCISCO TORRES CAUDILLO               10010000000000320009DEPOSITO                                                                                                                               0000067
65505232207     012215027070391741  BBBVAELSA ELENA ESQUIVEL PICHARDO            10010000000000320009DEPOSITO                                                                                                                               0000068
65505232207     137282102390059305  BBANCDANIEL CORDERO ANTONIO                  10010000000000320009DEPOSITO                                                                                                                               0000069
65505232207     012180015733343173  BBBVAMARIA DE LOS ANGELES DIAZ JIMENEZ       10010000000000420009DEPOSITO                                                                                                                               0000070
65505232207     012180015743075855  BBBVAGLORIA LISETH HERNANDEZ CAYETANO        10010000000000320009DEPOSITO                                                                                                                               0000071
65505232207     072180004356308342  BBANOJORGE SALDANA BERBER                    10010000000004500009DEPOSITO                                                                                                                               0000072
65505232207     127497013728321243  MA DE JESUS AMBRIS DELGADO              10010000000000320009DEPOSITO                                                                                                                               0000073
65505232207     012227015053292485  BBBVAMARCO ANTONIO LEDESMA HERNANDEZ         10010000000000420009DEPOSITO                                                                                                                               0000074
65505232207     012180015859856094  BBBVACARLOS SILVA JIMENEZ                    10010000000000420009DEPOSITO                                                                                                                               0000075
65505232207     012180015105417996  BBBVADIANA IRIS MARQUINA MARTINEZ            10010000000000420009DEPOSITO                                                                                                                               0000076
65505232207     127320013741924312  MARIA DE JESUS PRECIADO GUTIERREZ       10010000000000320009DEPOSITO                                                                                                                               0000077
65505232207     012528015021315637  BBBVAROSA HILDA WALDO HERRERA                10010000000000320009DEPOSITO                                                                                                                               0000078
65505232207     014225606018329388  BSANTJOSE LUIS ZARATE HERNANDEZ              10010000000000420009DEPOSITO                                                                                                                               0000079
65505232207     137320130040756468  BBANCFERNANDO JIMENEZ HERNANDEZ              10010000000000420009DEPOSITO                                                                                                                               0000080
65505232207     012248004684477216  BBBVASUSANA VARGAS FLORES                    10010000000000320009DEPOSITO                                                                                                                               0000081
65505232207     012215015538378263  BBBVAJORGE ALEJANDRO CAZARES MONTOYA         10010000000000320009DEPOSITO                                                                                                                               0000082
65505232207     127215013925935698  JOSEFINA GONZALEZ YERENA                10010000000000420009DEPOSITO                                                                                                                               0000083
65505232207     012476015205766824  BBBVAMINERVA DEL CARMEN ESPINOZA GOMEZ       10010000000000320009DEPOSITO                                                                                                                               0000084
65505232207     137320130032633764  BBANCHECTOR EDUARDO HERNANDEZ HERNANDEZ      10010000000000420009DEPOSITO                                                                                                                               0000085
65505232207     044476106017584388  BSCOTMARCO ANTONIO FIGUEROA SORIA            10010000000000420009DEPOSITO                                                                                                                               0000086
65505232207     012277028911709963  BBBVASANDRA SANCHEZ MONTES                   10010000000000420009DEPOSITO                                                                                                                               0000087
65505232207     012497015008631300  BBBVAALMA ESTHER LOPEZ GUZMAN                10010000000000420009DEPOSITO                                                                                                                               0000088
65505232207     127320013366329677  CAROLINA LOPEZ AGUILA                   10010000000000320009DEPOSITO                                                                                                                               0000089
65505232207     014320567806279707  BSANTVERONICA MARCELA VELAZQUEZ OLGUIN       10010000000000320009DEPOSITO                                                                                                                               0000090
65505232207     012375015768784855  BBBVADORILIAN ESTRADA SANCHEZ                10010000000000320009DEPOSITO                                                                                                                               0000091
65505232207     021222064687446301  MARIA GUADALUPE GARNICA TREJO           10010000000000420009DEPOSITO                                                                                                                               0000092
65505232207     012476015217283049  BBBVAMIGUEL ANGEL VILLANUEVA GARCIA          10010000000000320009DEPOSITO                                                                                                                               0000093
65505232207     127497013539252763  DIANA GODINEZ RODRIGUEZ                 10010000000000320009DEPOSITO                                                                                                                               0000094
65505232207     021497063913774405  MIGUEL ANGEL LAUREANO NAVARRO           10010000000000320009DEPOSITO                                                                                                                               0000095
65505232207     044320010026237651  BSCOTXOCHITH GUADALUPE PRECIADO SANDOVAL     10010000000000920009DEPOSITO                                                                                                                               0000096
65505232207     012476028810326905  BBBVARAUL CRUZ GARCIA                        10010000000000420009DEPOSITO                                                                                                                               0000097
65505232207     021225064624324632  JUAN PABLO ACOSTA PEREZ                 10010000000000420009DEPOSITO                                                                                                                               0000098
65505232207     137222103446595468  BBANCJESUS ALFONSO GONZALEZ REY              10010000000000420009DEPOSITO                                                                                                                               0000099
65505232207     014476605627797449  BSANTJOSE LUIS RINCON HERNANDEZ              10010000000000020009DEPOSITO                                                                                                                               0000100
65505232207     127060001191407573  ELIZABETH RIVERA ALEMAN                 10010000000000320009DEPOSITO                                                                                                                               0000101
65505232207     012180015023512290  BBBVAMARIA GUADALUPE SANDOVAL AYALA          10010000000000320009DEPOSITO                                                                                                                               0000102
65505232207     127248001268215494  JAIME ALBERTO ORTEGA ESQUIVIAS          10010000000000420009DEPOSITO                                                                                                                               0000103
65505232207     012222029358640891  BBBVAFELIX GUILLERMO CONTRERAS ELIAS         10010000000000320009DEPOSITO                                                                                                                               0000104
65505232207     014261567667856428  BSANTREYNALDO CASTILLO PEREZ                 10010000000000320009DEPOSITO                                                                                                                               0000105
65505232207     127261017068311158  MAYRA CECILIA PARAMO AGUILAR            10010000000000320009DEPOSITO                                                                                                                               0000106
65505232207     012222012143322027  BBBVAOMAR PEREZ CAMACHO                      10010000000000320009DEPOSITO                                                                                                                               0000107
65505232207     014248605981932039  BSANTJOSE ANTONIO ARREDONDO PEREZ            10010000000000320009DEPOSITO                                                                                                                               0000108
65505232207     012180015947076414  BBBVAFIDEL ALTAMIRANO JUAREZ                 10010000000000320009DEPOSITO                                                                                                                               0000109
65505232207     127320001120066175  MARICELA RAMIREZ FLORES                 10010000000000420009DEPOSITO                                                                                                                               0000110
65505232207     127375013836353513  ERIKA YUDITH NAVARRETE GONZALEZ         10010000000000320009DEPOSITO                                                                                                                               0000111
65505232207     012261015496048236  BBBVAROSIBEL LOPEZ NAVARRETE                 10010000000000220009DEPOSITO                                                                                                                               0000112
65505232207     127215001302100838  ALEJANDRO RODRIGUEZ CAMPOS              10010000000000420009DEPOSITO                                                                                                                               0000113
65505232207     012535015355771396  BBBVAIGNACIO ALVAREZ HERNANDEZ               10010000000000320009DEPOSITO                                                                                                                               0000114
65505232207     012508015898287138  BBBVAMARIA DEL ROSARIO APOLONIO ALEJO        10010000000000320009DEPOSITO                                                                                                                               0000115
65505232207     012277004726319708  BBBVAJOSE CLEIVER OLVERA VARGAS              10010000000000420009DEPOSITO                                                                                                                               0000116
65505232207     012282027782016761  BBBVAHECTOR PENA VAZQUEZ                     10010000000000320009DEPOSITO                                                                                                                               0000117
65505232207     012320015334508724  BBBVACARLOS HUMBERTO PADILLA ORTIZ           10010000000000420009DEPOSITO                                                                                                                               0000118
65505232207     030320900019960350  FANNY MARGARITA ANAYA CORONA            10010000000000320009DEPOSITO                                                                                                                               0000119
65505232207     012215029803359835  BBBVASANDRA ALEXIS PUCH CHAY                 10010000000000320009DEPOSITO                                                                                                                               0000120
65505232207     012535015570342102  BBBVAMARIA DEL CARMEN VAZQUEZ AYALA          10010000000000320009DEPOSITO                                                                                                                               0000121
65505232207     012180015287595817  BBBVAGUSTAVO OREGEL ORTA                     10010000000000320009DEPOSITO                                                                                                                               0000122
65505232207     012180015498305566  BBBVAOMAR MARTINEZ CONTRERAS                 10010000000000420009DEPOSITO                                                                                                                               0000123
65505232207     021320063950061691  ELBIA MARTINEZ MENDEZ                   10010000000000320009DEPOSITO                                                                                                                               0000124
65505232207     012180015633695390  BBBVABENIGNO MAGALLAN TINOCO                 10010000000000420009DEPOSITO                                                                                                                               0000125
65505232207     012261015482633561  BBBVALUIS ALEJANDRO LUDWIG SEVILLA           10010000000000320009DEPOSITO                                                                                                                               0000126
65505232207     014320605933656414  BSANTLEONARDO JESUS BETANCOURT GUTIERREZ     10010000000000420009DEPOSITO                                                                                                                               0000127
65505232207     127320013933458489  LUIS FERNANDO GARCIA CASTANEDA          10010000000000420009DEPOSITO                                                                                                                               0000128
65505232207     021320064829787199  NORMA CASTELLANOS CORONEL               10010000000000320009DEPOSITO                                                                                                                               0000129
65505232207     012232029960038771  BBBVAALEJANDRA DE JESUS SILVA FLORES         10010000000000320009DEPOSITO                                                                                                                               0000130
65505232207     012180015740789856  BBBVAIVAN GERARDO JUAREZ DEL MONTE           10010000000000320009DEPOSITO                                                                                                                               0000131
65505232207     014535567776194765  BSANTNESTOR RICARDO ESPINOZA VERDUZCO        10010000000000420009DEPOSITO                                                                                                                               0000132
65505232207     127282001365718300  ISIS ALONDRA HERNANDEZ DIAZ             10010000000000320009DEPOSITO                                                                                                                               0000133
65505232207     012528015659393720  BBBVAMARIA GUADALUPE GONZALEZ SANDOVAL       10010000000000320009DEPOSITO                                                                                                                               0000134
65505232207     012320029035460717  BBBVAJESUS ENRIQUE MIRANDA SICOURET          10010000000000320009DEPOSITO                                                                                                                               0000135
65505232207     012470014045850971  BBBVAADRIAN TELLEZ ZACARIAS                  10010000000000420009DEPOSITO                                                                                                                               0000136
65505232207     012320015453235871  BBBVAPABLO ALFONSO CORTES HERNANDEZ          10010000000000320009DEPOSITO                                                                                                                               0000137
65505232207     012535014396338553  BBBVAHORACIO ALEJANDRO GARCIA PEREZ          10010000000000420009DEPOSITO                                                                                                                               0000138
65505232207     012528015760345861  BBBVALUIS FERNANDO GARCIA BENAVIDES          10010000000000420009DEPOSITO                                                                                                                               0000139
65505232207     012528015853157128  BBBVAKARINA EDITH MARIN HERNANDEZ            10010000000000320009DEPOSITO                                                                                                                               0000140
65505232207     127244001349506628  JUAN ANTONIO TORRES                     10010000000000320009DEPOSITO                                                                                                                               0000141
65505232207     014225567704774373  BSANTJUAN CARLOS MOLINA RODRIGUEZ            10010000000000420009DEPOSITO                                                                                                                               0000142
65505232207     012277015486599747  BBBVADULCE ELENA JIMENEZ TAPIA               10010000000000420009DEPOSITO                                                                                                                               0000143
65505232207     127528013102494704  MARIA ESPERANZA GUZMAN LEMUS            10010000000000420009DEPOSITO                                                                                                                               0000144
65505232207     030225900004298983  GABRIELA CASILLAS BONILLA               10010000000000420009DEPOSITO                                                                                                                               0000145
65505232207     072580010921729856  BBANOMARIA ALEJANDRA CAUDILLO RAMIREZ        10010000000000420009DEPOSITO                                                                                                                               0000146
65505232207     014535567212994982  BSANTESTELA PARDO OROZCO                     10010000000000320009DEPOSITO                                                                                                                               0000147
65505232207     012180015640523743  BBBVAJUAN ROBERTO ORTEGA BONILLA             10010000000000320009DEPOSITO                                                                                                                               0000148
65505232207     012528029285146667  BBBVABERENICE LOPEZ GAYOSSO                  10010000000000420009DEPOSITO                                                                                                                               0000149
65505232207     127506001162919745  MARIA NALLELY MONROY VELAZQUEZ          10010000000000420009DEPOSITO                                                                                                                               0000150
