100001E04152021     04152021
2000020013573GONZALEZ                      MARTINEZ            ISABEL                        00115235634     000000000000105000
2000030120015GAMBOA                        MANZANERO           JOSE DAMIAN                   13003246323     000000000000210000
2000040200011LOPEZ                         AGUILAR             MARCO ANTONIO                 10412190179     000000000000194720
2000050200038HERNANDEZ                     PEREZ               OSCAR                         00128841319     000000000000185000
2000060200108CORDERO                       HERNANDEZ           GIEZI AZAEL                   10346680380     000000000000289500
2000070200164CRUZ                          OROZCO              GERARDO                       01046107300     000000000000135693
2000080200563HERNANDEZ                     GARCIA              ALAIN FRANCISCO               01319639889     000000000000000000
2000090200580MORALES                       CHAVEZ              CARLOS                        00151053219     000000000000000000
2000100200909GALVEZ                        VILLASALDO          MIGUEL ANGEL                  01317876861     000000000000160000
2000110200940ARELLANO                      ESTELA              RICARDO                       10359771296     000000000000145000
2000120201027RODRIGUEZ                     NOTARIO             PERFECTO                      01062756847     000000000000080550
2000130201049VAZQUEZ                       CONTRERAS           JUAN JESUS                    01333484870     000000000000221454
2000140201174RODRIGUEZ                     DIEGO               SANTA                         01372807478     000000000000130000
2000150201286SANCHEZ                       GOMEZ               LOURDES                       01318203803     000000000000361985
2000160201325FLORES                        BECERRA             MAYRA ALEJANDRA               00133522919     000000000000147042
2000170201346TRINIDAD                      HERNANDEZ           SANDRA MADAI                  01350210035     000000000000000000
2000180201361TORRES                        VEGA                ADRIANA                       01367348578     000000000000190000
2000190201531ROJAS                         DIAZ                ANA DORA                      01085906753     000000000000119420
2000200201549CANO                          CASAS               LAURA VERENICE                01086475957     000000000000095000
2000210201670REYES                         FRASCO              MARIA ELIZABETH               00127764533     000000000000000000
2000220201706RUIZ                          TELLEZ              MARCO ARTURO                  00128283081     000000000000115000
2000230201719BAUTISTA                      CASTILLO            DIANA PATRICIA                01091641439     000000000000000000
2000240201750PEREZ                         DIAZ                ERICK RODRIGO                 01304616920     000000000000240000
2000250201759RODRIGUEZ                     QUIROZ              LUIS FRANCISCO                10381135794     000000000000240385
2000260201804GARCIA                        MARTINEZ            TATNAI LOT NADAB              00129409178     000000000000217700
2000270201849MACIAS                        ESPINOZA            LUIS ALBERTO                  00116228235     000000000000119420
2000280201960MUNOZ                         PEREZ               CARLOS ANTONIO                10341774620     000000000000290200
2000290202020FLORES                        OLMOS               JUAN CARLOS                   00113055607     000000000000211350
2000300202047LOPEZ                         MATA                JOSE MANUEL                   01090514862     000000000000218900
2000310202059LOPEZ                         MURILLO             NANCY ALINE                   00131889756     000000000000080000
2000320202085VICENTE                       RODRIGUEZ           LUZ MARIA ALICIA              00132832061     000000000000192145
2000330202086GONZALEZ                      VILLARREAL          FANNY RITA                    10128151180     000000000000818650
2000340202096ARIZMENDI                     GARCIA              RAFAEL                        03604151801     000000000000201400
2000350202120CENTENO                       REYES               SONIA                         00133067840     000000000000214445
2000360202123CUELLAR                       PEREZ               CLAUDIA ISABEL                10237995312     000000000000000000
2000370202126ALANIS                        TAPIA               CHRISTIAN                     00133079375     000000000000179300
2000380202130LUNA                          GARCIA              GUSTAVO                       00126336610     000000000000085000
2000390202136SOLIS                         GARCIA              MOISES                        00133308133     000000000000000000
2000400202144GONZALEZ                      MARTINEZ            VICTOR MANUEL                 01393894719     000000000000160000
2000410202146ORTIZ                         PEREZ               KEVIN GEOVANNY                00115508250     000000000000115000
2000420202148JUAREZ                        HERNANDEZ           ABAD                          01388579849     000000000000080000
2000430202180PALACIOS                      AGUILAR             ULISES ARIEL                  00126073530     000000000000325000
2000440202195DE LA ROSA                    PARRA               VIRGINIA                      01315080092     000000000000080550
2000450202205ESTRADA                       GONZALEZ            CANDIDA ARIADNA ZULEMA        10202022230     000000000000100000
2000460202206RODRIGUEZ                     OLIVARES            REYNA                         00133982589     000000000000188000
2000470202245LOYOLA                        VILLEGAS            JESSICA REGINA                01344788262     000000000000142920
2000480202250CADENA                        CORDOVA             CONCEPCION GUADALUPE          01369996519     000000000000723400
2000490202265RIVERA                        ROBLES              SANDRA EDHALIT                10340644285     000000000000095000
2000500202269ALBINO                        MENDEZ              ALMA LILIA                    00134752462     000000000000137600
2000510202279GONZALEZ                      MEDELLIN            SANTIAGO                      00121022444     000000000000104414
2000520202283RITO                          SALAZAR             MANUEL ALEJANDRO              00134899822     000000000000148000
2000530202286TELLEZ                        CARMONA             JOSE OSCAR                    00134893876     000000000000115000
2000540202301CHIMAN                        MORALES             SANDRA                        13004730172     000000000000166215
2000550202304AVILA                         PINEDA              PAUL                          00135103281     000000000000329780
2000560202311MOTA                          ROSAS               ANA PAOLA                     00121841091     000000000000000000
2000570202314APOLINAR                      GONZALEZ            ENRIQUE                       01000898502     000000000000100000
2000580202334VENEGAS                       GARCIA              ERENDIRA                      00128406427     000000000000243300
2000590202346MONTALVO                      TREJO               MA. GUADALUPE                 10386321685     000000000000135410
2000600202351BALTAZAR                      MARISCAL            MARTIN                        10133120780     000000000000183000
2000610202362ZAMORA                        OCAMPO              LUIS ALBERTO                  00141421086     000000000000095000
2000620202387GARRIDO                       CRUZ                MARIELY                       00116668408     000000000000211150
2000630202394SATURNINO                     RODRIGUEZ           CRISTIAN DANIEL               13004404550     000000000000105394
2000640202395MARTINEZ                      LUNA                IRVING                        00129018947     000000000000107356
2000650901019ESTRADA                       ROSAS               LAURA YESSICA                 01371251119     000000000000340880
2000660901107MARTINEZ                      BAHENA              YAZMIN                        10405771395     000000000000120000
2000670901135MARTINEZ                      ALVAREZ             JESUS ALEJANDRO               00113840125     000000000000150065
2000680901144SANTIAGO                      ANGELINA            NAYELI                        13005257969     000000000000116150
2000690901264MORENO                        PLASCENCIA          OSCAR MAURICIO                00008037698     000000000000216539
2000700901310LAZCANO                       QUIROGA             JESUS EMMANUEL                10024408170     000000000000315000
2000710901348MENDEZ                        NAVARRO             GIOVANNI                      01095847707     000000000000179445
2000720901393SANTOS                        SANTOS              GEMMA                         10385069427     000000000000390000
2000730901490PEREZ                         GUEVARA             NORMA ANGELICA                00137827098     000000000000126615
2000740901636ALVARADO                      FLORES              DULCE GUADALUPE               10407743950     000000000000091615
2000750901641ALONSO                        NAVARRO             NESTOR                        01326701154     000000000000106277
2000760901659CASILLAS                      GUTIERREZ           NADIA LIZETH                  25600256908     000000000000182300
2000770901684GONZALEZ                      AGUILERA            MARIA DE LA LUZ               10236342056     000000000000108345
2000780901701GARCIA                        RICO                SARA                          10197677789     000000000000117102
2000790901831COCONI                        TLAPALTOTOLI        OSUANY                        10305975589     000000000000000000
2000800901947SANTANA                       GOMEZ               ALMA DELIA                    01083300188     000000000000095000
2000810901950BRAVO                         MARTINEZ            KAREN                         00323160223     000000000000143000
2000820901984NAJERA                        TRUJILLO            LUIS                          00115369281     000000000000125000
2000830902181SARMIENTO                     SANDOVAL            VICTOR MANUEL                 13005456392     000000000000148800
2000840902187GONZALEZ                      GAYTAN              JORGE LUIS                    00124732239     000000000000123500
2000850902349GONZALEZ                      BERNAL              LUIS ARMANDO                  01097696673     000000000000143205
2000860902410SANCHEZ                       RAMIREZ             JUAN ANTONIO                  00114380572     000000000000194160
2000870902586CANO                          PEDRAZA             JORGE LUIS                    01094882783     000000000000225000
2000880902620REYES                         RIVERA              JULIO IVAN                    00111539133     000000000000223185
2000890902761FAUSTINO                      SANDOVAL            MARIA LUISA                   13001563739     000000000000116150
2000900902762VELAZQUEZ                     SANCHEZ             DIEGO DAVID                   00140173602     000000000000115000
2000910902896MUNOZ                         MOJICA              MARCOS                        00104435137     000000000000218501
2000920903006PACHECO                       ECHEVERRIA          IVAN EZEQUIEL                 00474325586     000000000000279300
2000930903077ZEPEDA                        VEGA                CARLOS EDUARDO                13004950857     000000000000104414
2000940903147GOMEZ                         DURAN               ANGELICA LEONOR               01385723878     000000000000251850
2000950903247VALADEZ                       BECERRA             ARACELI                       10416841786     000000000000110691
2000960903264VAZQUEZ                       OLIVOS              ARELI                         13004431981     000000000000000000
2000970903266BASILIO                       MIXCOATL            MARCELO EMMANUEL              00137950265     000000000000130000
2000980903269CORTES                        GARCIA              FABIAN                        00123757858     000000000000110000
2000990903310RAMOS                         LOPEZ               MARIA DEL ROSARIO             10414626179     000000000000142000
2001000903348CASILLAS                      TREJO               LUIS SERGIO                   00442416924     000000000000129070
2001010903411LEPE                          GARCIA              JAZMIN MONTSERRAT             10415151417     000000000000000000
2001020903436GONZALEZ                      COVARRUBIAS         SERGIO ALFONSO                00120431492     000000000000125697
2001030903548BONILLA                       CESPEDES            JANETT                        00142490114     000000000000116000
2001040903637GARCIA                        RIVERA              FRANCISCO JAVIER              00142101702     000000000000200000
2001050903649FAUSTINO                      ROMAN               ISAEL                         00121255771     000000000000080000
2001060903682MUNGUIA                       FLORES              SILVESTRE                     00121414450     000000000000197600
2001070903780LARA                          TORRES              PATRICIA                      00198126223     000000000000569375
2001080903781ENCARNACION                   DIAZ                RODRIGO                       00123536346     000000000000050000
2001090903789AGUILAR                       SANCHEZ             LADISLAO                      00115701232     000000000000124422
2001100903921VARGAS                        MARENTES            REBECA GABRIELA               01319247477     000000000000080000
2001110903992SILVA                         GONZALEZ            HUMBERTO                      01315097094     000000000000144609
2001120904016RUIZ                          ORTEGA              GUADALUPE                     10262290536     000000000000000000
2001130904064CARRANZA                      FALFAN              ROLANDO                       01330382784     000000000000378280
2001140904065ROSAS                         PEREZ               LUIS ANGEL                    00110804340     000000000000135033
2001150904130GARDUNO                       CAMBRON             CLAUDIA LIZETH                00131466931     000000000000080000
2001160904233ROMAN                         LIRA                DOLORES VIRIDIANA             01324900766     000000000000127927
2001170904254REYNA                         IBARRA              CARLOS ENRIQUE                01611649108     000000000000158827
2001180904321ROMERO                        PEREZ               GUILLERMO                     00120132118     000000000000116968
2001190904329ROLDAN                        DIAZ                GUSTAVO                       10419366051     000000000000000000
2001200904346HERNANDEZ                     LARA                LAURA MARIA                   13005193693     000000000000000000
2001210904401MATA                          PEREZ               ADRIANA                       01383039621     000000000000000000
2001220904429CASTILLO                      URBINA              ADRIANA                       10044879161     000000000000040000
2001230904468NOPALTITLA                    DIAZ                MANUEL                        01361808963     000000000000050000
2001240904596NAVA                          GOMEZ               EDSON MANUEL                  00151248550     000000000000050000
2001250904641BAHENA                        LOPEZ               GAMALIEL                      00119006680     000000000000050000
2001260904750GARCIA                        AGUILAR             MARIANO DE JESUS              00151428824     000000000000050000
2001270904764MORA                          GILES               ALBERTO                       00151562510     000000000000040000
2001280904774VALDEZ                        MIRANDA             JOSE MANUEL                   01389218672     000000000000050000
2001290904960VARGAS                        GARCIA              DANIEL                        00111890865     000000000000050000
2001300905047PALACIOS                      ROMERO              SANDRA                        01601936264     000000000000080000
2001310905057GARCIA                        ORTIZ               ALICIA ESMERALDA              01706164320     000000000000000000
2001320905113GONZALEZ                      DE LA ROSA          JUAN CARLOS                   10179056122     000000000000000000
2001330905137PARRA                         CRUZ                ANGEL JESUS                   01329792582     000000000000000000
2001340905183RODRIGUEZ                     GAMEZ               JUAN CARLOS                   10422386691     000000000000000000
2001350905268MONTESINOS                    MONTES DE OCA       ALEXANDRO                     25603162339     000000000000000000
2001360905270ESTRADA                       VALADEZ             ROSA GUADALUPE                01399050073     000000000000000000
2001370905330TAPIA                         JIMENEZ             ITZEL XIMENA                  01334805151     000000000000000000
2001380905339JUAREZ                        ALVARADO            KARLA KARINA                  01334923704     000000000000000000
2001390905364HERRERA                       HERRERA             ALICIA ELIDETH                00133586270     000000000000000000
2001400905372PADILLA                       PEREZ               EDGAR RICARDO                 00122748818     000000000000000000
2001410905529DURAN                         MENDEZ              ALAN EMIR                     01313751958     000000000000000000
2001420905531SALAZAR                       RAMIREZ             LUIS ANGEL DANIEL             00114082454     000000000000000000
2001430905539TOLENTINO                     SAUCEDO             JUAN CARLOS                   01366413523     000000000000000000
2001440905643CLEMENT                       FRANCO              MICHEL IVAN                   00153661036     000000000000000000
2001450905776ALONSO                        GUERRERO            ELDA YAZMIN                   13004676712     000000000000000000
2001460905778ZAMORANO                      MENDOZA             LUIS DANIEL                   00119080366     000000000000000000
2001470905837PALACIOS                      RAMOS               LIZETH YADIRA                 01340909495     000000000000000000
2001480905879FLORES                        DEALMONTE           JANEIRA                       10347835868     000000000000000000
2001490905993MARTINEZ                      ARANDA              YOANA                         00133743279     000000000000000000
2001500037908RAMIREZ                       DIONICIO            PERLA ATENEA                  01334245619     000000000000000000
2001510300006ROSAS                         ROSAS               ARTEMIO                       01376678105     000000000000771769
2001520300061LOPEZ                         TORRES              GUADALUPE                     01343946032     000000000000376500
2001530300063SANCHEZ                       DIAZ                MARIO ALBERTO                 00131843785     000000000000791433
2001540300068MUNOZ                         ALONSO              FELIX DAVID                   01377535891     000000000000155000
2001550300113HERNANDEZ                     BALVERDE            ADRIAN                        01700616700     000000000000363300
2001560300378OROZCO                        CORONA              NELLY ALEJANDRA               00142430422     000000000000260073
2001570300426JIMENEZ                       ZENTENO             ANAELY MONSERRAT              00139834610     000000000000697733
2001580300936BECERRIL                      PEREZ               AMAURY ISRAEL                 01322125565     000000000000698900
2001590301196BONILLA                       PLUAS               ULISES JIMMY                  01700243488     000000000000148446
2001600301214NIETO                         EGUIARTE            JAIME GABRIEL                      000000000010098667
2001610301227SANCHEZ                       REYES               JACQUELINE                    00493388322     000000000000231700
2001620301262HERNANDEZ                     ALVAREZ             SIANYA                        10417261228     000000000000000000
2001630301313LUNA                          TELLEZ              MARISOL                       00124723323     000000000000364133
2001640301380CHAVEZ                        CONTRERAS           IRIS MAGDALENA                01347863910     000000000000000000
2001650301400CARBAJAL                      ORTIZ               SINUE MACARIO                 00109232576     000000000000167850
2001660301659MOTA                          PEREZ               MIRIAM                        01348548643     000000000000271400
2001670301684GARDUNO                       JIMENEZ             BRIAN JAVIER                  10349659331     000000000000390367
2001680301691HERNANDEZ                     SERRANO             LIZBETH                       00124983406     000000000000362200
2001690301702GONZALEZ                      HERNANDEZ           ROBERTO                       00125300766     000000000000125000
2001700301751MONROY                        JIMENEZ             ALMA DELIA                    10003621192     000000000000224600
2001710301789RAMIREZ                       GOMEZ               VIRIDIANA                     01356163070     000000000000000000
2001720301806MENDOZA                       PEREZ               YESENIA                       01357733151     000000000000196658
2001730301826LEYVA                         HERNANDEZ           FERNANDA                      00124563526     000000000000058800
2001740301832HERNANDEZ                     PEREZ               ROBERTO                       00126090734     000000000000123833
2001750301835GARDUNO                       PUEBLA              DIANA GABRIELA                01314103014     000000000000197610
2001760301869JIMENEZ                       COYOTL              BLANCA FLOR                   01362385814     000000000000000000
2001770301898GONZALEZ                      LIMAS               ELIZABETH                     01365408749     000000000000257055
2001780301900TEPAL                         REYES               LAURA ELIZABETH               10380505083     000000000000233915
2001790301915VENANCIO                      CAMPOS              OMAR EZEQUIEL                 01373612139     000000000000000000
2001800301928SANCHEZ                       HOLGUIN             KEVIN                         00111931461     000000000000351500
2001810301944REYES                         GALAN               MIRIAM                        13002662307     000000000000246850
2001820301959SALAS                         GUTIERREZ           NOEL IGNACIO                  00126155216     000000000000214600
2001830301964LOPEZ                         HERNANDEZ           CARLOS ALFONSO                01369019599     000000000000179428
2001840301993GARCIA                        ACOSTA              ADRIANA ELSA                  10066818034     000000000000423733
2001850302029PEREZ                         OLIVA               FRANCISCO JAVIER              01061600701     000000000000000000
2001860302042PAZARAN                       PACHECO             HUGO CESAR                    25600285800     000000000000000000
2001870302043FLORES                        CONTRERAS           MARCOS                        00128119419     000000000000000000
2001880302083GALEOTE                       ROMERO              GERARDO                       01376803891     000000000000000000
2001890302144SILVA                         ARREOLA             MONICA                        00100075238     000000000000000000
2001900302145CRUZ                          RAMIREZ             NICOLAS                       01023258128     000000000000000000
2001910302148HUERTA                        PEREZ               ALEJANDRA                     00870415922     000000000000000000
2001920302153MARTINEZ                      NICOLAS             HERMENEGILDO                  10271231976     000000000000180000
2001930302202GOMEZ                         LOPEZ               OMAR                          01387159497     000000000000157500
2001940302241IBARRA                        VENEGAS             ANA PATRICIA                  00132570753     000000000000486700
2001950302261RAMIREZ                       RAMOS               KARLA FABIOLA                 00130095059     000000000000311900
2001960302270OLGUIN                        ESTRADA             DULCE ROSARIO                 25600557773     000000000000000000
2001970302294GONZALEZ                      DOMINGUEZ           CRISTAL                       01619024898     000000000000000000
2001980302314JUAREZ                        HUERTA              PERLA GABRIELA                00106160274     000000000000188000
2001990302322MORENO                        CERVANTES           LORENA                        10031238930     000000000000000000
2002000302325GARCIA                        QUINTERO            LAURA                         25600655268     000000000000000000
2002010302326HERNANDEZ                     LARA                ARIZBET                       13005148825     000000000000175000
2002020302327POZOS                         SANTOS              FERNANDO                      10360716533     000000000000154400
2002030302379BARRIENTOS                    COPADO              JOSE ERNESTO                  01313647918     000000000000000000
2002040302385CAMACHO                       GARCIA              LUZ DEL CARMEN                01091452121     000000000000000000
2002050302422ALCANTARA                     RANGEL              SAMANTHA NICOLE               01345932280     000000000000131224
2002060302426GOMEZ                         ADAME               OSCAR                         01301442574     000000000000748401
2002070302432ISLAS                         DIAZ                GLORIA                        10328359583     000000000000000000
2002080302440SANCHEZ                       RODRIGUEZ           ANA LUISA                     01327531143     000000000000218400
2002090302444ROMERO                        RICO                JUANA SILVIA                  00132232135     000000000000269100
2002100302463MARTINEZ                      CIFUENTES           ISMAEL                        01353541753     000000000000235000
2002110302472ARRIAGA                       GARCIA              NAYELI                        00132975323     000000000000000000
2002120302473BRAVO                         PACHECO             VALENTINA ISABEL              00132560552     000000000000284500
2002130302492HERNANDEZ                     PEREZ               IVAN                          00140891625     000000000000000000
2002140302499TORRES                        TORRES              OSCAR                         01031277003     000000000000000000
2002150302511HERNANDEZ                     HERNANDEZ           PEDRO                         13002272126     000000000000115000
2002160302517QUIJAS                        AYUZO               PEDRO                         01362174009     000000000000279400
2002170302529MORALES                       VAILLARD            GILBERTO                      10278415002     000000000000000000
2002180302561GUADARRAMA                    CARREON             JENNYFER GUADALUPE            10399636200     000000000000000000
2002190302572MARTINEZ                      CUANDO              EDGAR                         01362752643     000000000000080000
2002200302589BAUTISTA                      MENDEZ              MA ELIZABETH                  00134318350     000000000000309500
2002210302591ESCOBEDO                      GUZMAN              LIZBETH                       10078194141     000000000000242300
2002220302601DELGADO                       MARTINEZ            ENRIQUE                       01365363270     000000000001391433
2002230302604APARICIO                      CANSECO             FLAVIO CESAR                  00134626360     000000000000137308
2002240302608VEGA                          MORADO              RICARDO                       01603749995     000000000000282656
2002250302610PEREZ                         MARTINEZ            CARLOS                        00106744639     000000000000000000
2002260302620VALDEZ                        AGUILAR             RAUL EDUARDO                  00119493419     000000000000155000
2002270302621GARCIA                        RANGEL              ANGELICA                      01379805755     000000000000144983
2002280302633CUEVAS                        GAYOSSO             TERESA                        00134856782     000000000000217300
2002290302643CORDOBA                       MARTINEZ            HECTOR ALEJANDRO              00196046337     000000000000540333
2002300302644VEGA                          HURTADO             JOSE LUIS                     00115481916     000000000000502278
2002310302650XICOTENCATL                   SANCHEZ             MITZI SAMARA                  00135029745     000000000000294000
2002320302664GARCIA                        JUAREZ              PAOLA                         01370222042     000000000000000000
2002330302672CASTRO                        DAVILA              LUIS ALBERTO                  01623720429     000000000000568342
2002340302705ALCANTARA                     MARQUEZ             IVAN ERICK                    13003238916     000000000000361633
2002350302715ALVARADO                      ZACARIAS            GRISELDA                      01038543006     000000000000170000
2002360302721PEREZ                         MENESES             BARBARA GUADALUPE             01367267806     000000000000292000
2002370302725SANTOS                        ISLAS               RAUL ARTURO                   00100300388     000000000000000000
2002380302728GALINDO                       VAZQUEZ             GUILLERMO ALEJANDRO           13003553200     000000000000272800
2002390302729CERVANTES                     BARRERA             CARMEN PAOLA                  10325482260     000000000000214290
2002400302737CRUZ                          GAYTAN              OSCAR GABRIEL                 00121868880     000000000000238000
2002410302739CRUZ                          RODRIGUEZ           MICHAEL                       10388145990     000000000000297700
2002420302749VILLEGAS                      MONROY              YEISMI                        01336255822     000000000000321000
2002430302756LEOS                          GONZALEZ            ANAKAREN                      01378516184     000000000000000000
2002440302757BENITEZ                       SOLIS               BRENDA                        01357717190     000000000000242700
2002450302764HERNANDEZ                     RUIZ                MISAEL                        00117019597     000000000000265000
2002460302774PINEDA                        RAMIREZ             ESTEFANIA                     01118481699     000000000000000000
2002470302775MARTINEZ                      OCHOA               FRANCISCO JAVIER              01380198677     000000000000150974
2002480302776TORRES                        PAREDES             MAIRA PATRICIA                10038546185     000000000000000000
2002490302789PINA                          GONZALEZ            ZULLIM                        10404639868     000000000000000000
2002500302806NICOLAS                       GUADARRAMA          LAYVA GIOVANNA                10266085651     000000000000147000
2002510312462VICARIO                       BARRIOS             MARCO ANTONIO                 01011919891     000000000000000000
2002520312468MILLAN                        RAMIREZ             PABLO MIGUEL                  01325353270     000000000000000000
2002530901078CARRILLO                      AGUIRRE             CELENE MONSERRAT              00123016007     000000000000217000
2002540901177NERIA                         MARTINEZ            PABLO                         01362982003     000000000000179000
2002550901230MONTERO                       DE ANDA             LAURA LETICIA                 10367826610     000000000000392300
2002560901260CAMPOS                        LOPEZ               ANA MARIA GUADALUPE           01374876199     000000000000120499
2002570901267ANTONIO                       GASPAR              OSCAR                         10408858599     000000000000156000
2002580901270JUAREZ                        CORONA              PALMIDIA                      00113902391     000000000000126384
2002590901272BELLO                         NAVARRO             WENDOLYN AMAIRANI             01351942826     000000000000098700
2002600901297MUNIVE                        LOZANO              DAYSY                         00121532542     000000000000000000
2002610901340MEDINA                        DIAZ                NAYELI                        00112409637     000000000000095000
2002620901428HERNANDEZ                     SOLANO              EDUARDO                       01387629014     000000000000168000
2002630901448MEDRANO                       ORTEGA              YAZMIN                        00137807278     000000000000183085
2002640901544BECERRIL                      MENDOZA             MARCO JOSAINN                 01305141672     000000000000136653
2002650901685RIOS                          GONZALEZ            KAREN AIDEE                   01319508096     000000000000123833
2002660901744ALDIVAR                       CUEVAS              MIRIAM ARACELY                01364903678     000000000000100995
2002670901868CRUZ                          DORANTES            ALMA ROSA                     01375944780     000000000000170530
2002680901912LUNA                          BENITEZ             GUADALUPE ADRIANA             00138699754     000000000000118831
2002690901916ACEVEDO                       SANCHEZ             MARIA DE LA LUZ               01390676845     000000000000217198
2002700901929CUEVAS                        HERNANDEZ           ALEXIS                        00133826354     000000000000460000
2002710901934CERON                         MADRIGAL            ANDY                          01356027453     000000000000175000
2002720901999VENTURA                       CIFUENTES           ONAN                          01359608166     000000000000126305
2002730902065TENORIO                       CORELLA             CRISTIAN MANUEL               00138862975     000000000000134000
2002740902150GONZALEZ                      VELAZQUEZ           ARELY                         00120490407     000000000000125080
2002750902180MENDEZ                        HERNANDEZ           ROCIO                         01708933548     000000000000000000
2002760902203MENDIOLA                      CEDILLO             ALMA EUGENIA                  01371371572     000000000000468000
2002770902231DURAN                         RANGEL              GUADALUPE JANETTE             10409930331     000000000000000000
2002780902270BELTRAN                       SANCHEZ             LUIS MIGUEL                   01385521862     000000000000179000
2002790902279PARRA                         PEDROZA             RODRIGO IVAN                  00126007013     000000000000410000
2002800902469HERNANDEZ                     GARCIA              ROBERTO                       01367178033     000000000000123049
2002810902508CORONA                        LECHUGA             MARIA GUADALUPE               01308686382     000000000000000000
2002820902550ARANZA                        MORALES             ERNESTO                       01350203594     000000000000311176
2002830902551PEREZ                         YEPEZ               GERARDO MANUEL                01320810969     000000000000585522
2002840902592SOSA                          HERNANDEZ           GERARDO                       01301991547     000000000000113143
2002850902625MITRA                         GUZMAN              ARELI MARILU                  00828175009     000000000000270300
2002860902667MARTINEZ                      MARTINEZ            CESIA GABRIELA                00139921779     000000000000000000
2002870902697RUIZ                          SAAVEDRA            MARITZA PAOLA                 10357262785     000000000000228075
2002880902740GUADARRAMA                    TORRES              SERGIO                        01369750518     000000000000746619
2002890902758RIVERA                        BERNAL              LUIS FERNANDO                 01088749924     000000000000000000
2002900902771ARCINIEGA                     POSADAS             WENDY ZULEYKA                 01302258670     000000000000369000
2002910902796MUNOZ                         SERVIN              EDGAR                         01335886112     000000000001417661
2002920902810CAMPILLO                      ZAPATA              MIZTLI SAMANTHA               13004657386     000000000000253760
2002930902817FLORES                        OSORIO              DAVID                         10381896566     000000000000000000
2002940902888PADRON                        HERMENEGILDO        RAFAEL                        01350070263     000000000000196500
2002950902914VELAZQUEZ                     GUEVARA             OMAR                          00122430878     000000000000113915
2002960902963MORALES                       MARTINEZ            NESTOR BRANDON                10412899585     000000000000184077
2002970902976SANTOS                        MEDINA              VICTOR HUGO                   10305885261     000000000000345000
2002980903013CUEVAS                        CANCINO             ROSARIO ALINE                 01307875735     000000000000090000
2002990903047CRUZ                          VELAZQUEZ           SHARON CITLALI                10413518631     000000000000000000
2003000903101VALENCIA                      HERNANDEZ           RAUL                          01374525480     000000000000000000
2003010903109TOSCANO                       ISALAS              MARIA GUADALUPE               01388118025     000000000000150000
2003020903118NAVARRETE                     BANUELOS            LUISA ANGELICA DEL CARMEN     10247980623     000000000000000000
2003030903121GASPAR                        HERRERA             IVAN                          00118953779     000000000000221600
2003040903165CANO                          CARBAJAL            MARCO ANTONIO                 01117521806     000000000000080000
2003050903175VITE                          MORALES             JUAN CARLOS                   00113017403     000000000000435715
2003060903220CONTRERAS                     CABRERA             BEATRIZ EVELYN                01367605671     000000000000228000
2003070903223BRENA                         MANZO               MARCO ANTONIO                 00119632700     000000000000114000
2003080903228MENDEZ                        SANCHEZ             LESLI VICTORIA                01311548547     000000000000080000
2003090903238ARRIAGA                       JUAREZ              OSCAR                         01337121873     000000000000167000
2003100903260TORRES                        LARA                ENEYDA                        01311585062     000000000000213075
2003110903286OLIVARES                      HERNANDEZ           MARIA LUISA                   00141501035     000000000000253700
2003120903306LOPEZ                         MENDOZA             MONSERRAT JOCELYN             01320454069     000000000000143205
2003130903356PADILLA                       CRUZ                ANGEL ALBERTO                 01311865351     000000000000185000
2003140903381OSORIO                        HERNANDEZ           GLORIA                        00141681480     000000000000230000
2003150903437MARTINEZ                      DE LA ROSA          ABIGAIL AMAIRANI              00122887270     000000000000134000
2003160903515SANCHEZ                       MARTINEZ            DAVID                         00594406851     000000000000080000
2003170903523REYES                         GARCIA              LUIS ENRIQUE                  00106669618     000000000000080000
2003180903622GARCIA                        FLORES              JUAN PABLO                    13005420886     000000000000000000
2003190903644AVILA                         ORTIZ               ALEJANDRO ADOLFO              00114807339     000000000000080000
2003200903770RAMIREZ                       GONZALEZ            VASTI TAMAR                   10204908996     000000000000080000
2003210903776GARCIA                        GARCIA              JOSE ALFREDO                  01310744175     000000000000588150
2003220903882SANTIAGO                      ALCALA              DULCE MARIANA                 01339306839     000000000000011220
2003230903967TEODORO                       PATINO              DANIEL                        00121433010     000000000000220000
2003240903975SANTOYO                       MORA                JOSE LUIS                     00117346510     000000000000000000
2003250904013LOPEZ                         SANDOVAL            WENDY BELEN                   10386171101     000000000000000000
2003260904085RIVERA                        CORTES              MARLENE NAYELI                01304030715     000000000000340000
2003270904335GOMEZ                         VARA                LUIS ALFREDO                  00137958910     000000000000167000
2003280904438TORRES                        JUAREZ              ISAAC                         13006055839     000000000000130000
2003290904530JIMENEZ                       NAVA                GERARDO                       00110944145     000000000000374000
2003300904531ESTRADA                       BAUTISTA            DANIELA                       00150650691     000000000000374000
2003310904539CALOCH                        FLORES              LUIS MIGUEL                   00151136221     000000000000075000
2003320904562CERVANTES                     ARIAS               FRANCISCO JULIAN              00120059140     000000000000165300
2003330904588LOPEZ                         RETANA              RENE                          00152208570     000000000000150000
2003340904597BEDOLLA                       VELAZQUEZ           MIGUEL ANGEL                  13002522998     000000000000255000
2003350904627CONTRERAS                     HIPOLITO            ANGEL GAMALIEL                00119179643     000000000000040000
2003360904631IZAR                          SEGURA              MARIA DEL CARMEN              01135641164     000000000000050000
2003370904649GARCIA                        HERNANDEZ           CARMEN ANDREA                 01345411510     000000000000000000
2003380904713HERNANDEZ                     MARQUEZ             FELIPE DE JESUS               00821158885     000000000000000000
2003390904733SIFUENTES                     DE LA ROSA          KAREN FABIOLA                 01101565685     000000000000080000
2003400904740PERDOMO                       VAZQUEZ             ROBERTO GIOVANI               10420610780     000000000000080000
2003410904745PEREZ                         NIETO               TANIA ELIZABETH               01346915352     000000000000000000
2003420904801MORALES                       ROMERO              ANA DELIA                     01348434292     000000000000080000
2003430904808GARCIA                        REYES               RUBEN ALEJANDRO               00151555313     000000000000050000
2003440904811CASTILLO                      VELEZ               RUBEN                         10314722740     000000000000080000
2003450904820UGALDE                        AVALOS              CLAUDIA ALEJANDRA             01365689857     000000000000125000
2003460904825RODRIGUEZ                     ZARATE              ESMERALDA YANET               00814062302     000000000000032000
2003470904832MACARIO                       MIRANDA             ALFREDO IVAN                  00110728319     000000000000080000
2003480904850LEON                          RODRIGUEZ           CARLA AIDE                    01329141344     000000000000080000
2003490904873ANORVE                        MARCIAL             ANGEL DAVID                   00151710211     000000000000097000
2003500904876GONZALEZ                      PAEZ                BRYAN                         00113410172     000000000000100000
2003510904885SALAZAR                       ALBA                FERNANDO                      10395219214     000000000000100000
2003520904888PEREZ                         ALVARADO            VICTOR MANUEL                 00121725039     000000000000187000
2003530904920JUAREZ                        ZETINA              ANAHY                         13002598684     000000000000080000
2003540904999GARCIA                        MENDOZA             GABRIEL ULISES                10411073667     000000000000150000
2003550905012SANCHEZ                       ARTEAGA             MARTHA ELENA                  10308541148     000000000000040000
2003560905018VARGAS                        SANTANDER           YESSICA                       01331576337     000000000000000000
2003570905034ROJAS                         MONTIEL             ERIK JONATHAN                 13005718648     000000000000130000
2003580905036GUEVARA                       ZECUA               JOSE ALBERTO                  13001553580     000000000000080000
2003590905041VIVEROS                       HERRERA             JHOSIMAR ROGELIO              10392310563     000000000000080000
2003600905071JARQUIN                       CORTES              ITZEL BERENISSE               00119972570     000000000000100000
2003610905076PEDRAZA                       PEREZ               MELVA NELLY                   10408140051     000000000000000000
2003620905105JAMAICA                       TEMIMILPA           CRUZ                          01135293938     000000000000080000
2003630905168SUAREZ                        ROMERO              ALICIA                        10051383457     000000000000080000
2003640905170MENDOZA                       MERINO              ANGEL DE JESUS                00127440171     000000000000000000
2003650905181CAMPOS                        JUAREZ              JUAN CARLOS                   00112531138     000000000000150000
2003660905193TENJHAY                       HERNANDEZ           GUILLERMO                     01070036496     000000000000080000
2003670905198JALOMO                        MIRELES             MARIA ISABEL                  10422019206     000000000000005422
2003680905207VASQUEZ                       CASTRO              OSWALDO                       00152485671     000000000000080000
2003690905221SOSA                          MORENO              ZURI JAILINE                  00151200692     000000000000080000
2003700905252ZUNIGA                        HERNANDEZ           JORGE IVAN                    10422608244     000000000000000000
2003710905254RODRIGUEZ                     FERNANDEZ           EDUARDO                       01301444208     000000000000000000
2003720905256REBOLLEDO                     MORALES             CESAR IVAN                    00104383063     000000000000000000
2003730905275BAUTISTA                      PAZ                 YAZMIN LUCERO                 01631815520     000000000000000000
2003740905283VICENTE                       HIPOLITO            FELIPE                        10420812561     000000000000000000
2003750905333DIAZ                          RODRIGUEZ           SAMUEL DE JESUS               10422771196     000000000000000000
2003760905352SIERRA                        FRAGOSO             LUIS ANGEL                    01327948352     000000000000000000
2003770905357RAMIREZ                       AGUIRRE             GUADALUPE                     13006015845     000000000000000000
2003780905358GAMBOA                        GONZALEZ            LUIS GUSTAVO                  00152863594     000000000000000000
2003790905367RODRIGUEZ                     URIARTE             LUIS ALBERTO                  01342522290     000000000000000000
2003800905370SILVA                         MANZANO             KARLA IRAZEMA                 13004695490     000000000000000000
2003810905429TINOCO                        OLMEDO              MARCO ANTONIO                 00111310261     000000000000000000
2003820905448MARCELO                       QUINTANA            LUZ YOSELIN                   01373660657     000000000000000000
2003830905458MORALES                       BAUTISTA            GLORIA MARIA                  01331954945     000000000000000000
2003840905464VELASCO                       TORRES              CINTHIA VANESSA               10046493899     000000000000000000
2003850905481RUIZ                          ROMERO              JOSELYNE ALEJANDRA            10404394172     000000000000000000
2003860905484ESCOBAR                       VAZQUEZ             IRVING URIEL                  01336767904     000000000000000000
2003870905527ZUNIGA                        AVILA               MARCO ANTONIO                 10423695558     000000000000000000
2003880905528DOMINGUEZ                     PAREDES             JORGE                         01358517935     000000000000000000
2003890905543CRUZ                          HERNANDEZ           XOCHITL QUETZALLI             01396503932     000000000000000000
2003900905549VELA                          RUBIO               RICARDO ERNESTO               01051477575     000000000000000000
2003910905617MUNOZ                         FLORES              SHAMARY                       01338078553     000000000000000000
2003920905629GARCIA                        MENDOZA             RAMIRO DANIEL                 00152908907     000000000000000000
2003930905644FLORENCIO                     MORALES             ADRIANA                       01145127920     000000000000000000
2003940905656HERNANDEZ                     SANTIAGO            CHRISTIAN                     01340291371     000000000000000000
2003950905673BALVERDE                      CUAPANTECATL        KELLY                         13005157719     000000000000000000
2003960905678ISLAS                         ALONSO              HAZEL DANIEL                  00153755965     000000000000000000
2003970905681AGUILAR                       ALVA                LUCIA                         00153772623     000000000000000000
2003980905697MARTINEZ                      CUEVAS              RODOLFO                       01679456531     000000000000000000
2003990905705HERRERA                       HERNANDEZ           MARIA NALLELY                 00119827117     000000000000050000
2004000905710SANTOS                        MARTINEZ            VIANEY                        10340271519     000000000000000000
2004010905750HERNANDEZ                     MENDEZ              GUADALUPE NAYELLI             00150951310     000000000000000000
2004020905771FARIAS                        ALEMAN              JOSE LUIS                     01301855070     000000000000000000
2004030905777MORALES                       MENDEZ              HUGO DE  JESUS                01339932536     000000000000000000
2004040905846MARTINEZ                      GONZALEZ            MARGARITA                     01300635622     000000000000000000
2004050905867DE LA CRUZ                    ANTONIO             ANA LAURA                     01384632800     000000000000000000
2004060905885MANCERA                       TORRES              DANIEL                        01376329214     000000000000000000
2004070905888AGUILAR                       GARCIA              CARLOS ALDAHIR                01362360006     000000000000000000
2004080905891YUCA                          GALLEGOS            YULIANA EDDALY                13002615449     000000000000000000
2004090905940GEORGE                        TERCERO             LUIS ANGEL                    10319603544     000000000000000000
2004100905963HERNANDEZ                     PENA                ERICA ANABEL                  00154099080     000000000000000000
2004110012081MARTINEZ                      RAMIREZ             ALONDRA                       10371844550     000000000000000000
2004120120019ESPINOZA                      NAVA                JUAN ALBERTO                  01348067611     000000000000260900
2004130400115ALFARO                        CHAN                CRISTY MARILYN                00138750134     000000000000096500
2004140400545MAY                           CAHUN               AMERICA DE LA LUZ             00114540277     000000000000040000
2004150400713GONZALEZ                      TORRES              LUCY ANGELY                   01354455931     000000000000040000
2004160400758FABIAN                        MARCIAL             JOSE ALBERTO                  10257677910     000000000000067500
2004170400762MONTES                        MARTINEZ            YOSELINE                      01360402499     000000000000219800
2004180400790ANALCO                        SALINAS             ALEXIS YAMIR                  13004367485     000000000000298000
2004190400818JIMON                         BAUTISTA            ARISAI                        01371351961     000000000000085000
2004200400844ALVAREZ                       GALLARDO            KARINA                        00215936378     000000000000202000
2004210400846GARCIA                        RODRIGUEZ           CLARIBEL                      01341638114     000000000000040000
2004220400853RIVERA                        GARCIA              LORENA                        10301042197     000000000000548800
2004230400866RIVERA                        CASTRO              EDGAR IVAN                    01376512085     000000000000040000
2004240400867MARTINEZ                      MELCHOR             VIRGINIA LUZ MARIA            01324782119     000000000000350000
2004250400887ESTRELLA                      ORTIZ               JORGE BERNARDO                01375843114     000000000000040000
2004260400920GODINEZ                       RADILLA             KARLA ISABEL                  10110030539     000000000000080550
2004270400952GARCIA                        BELTRAN             MA OLIVIA                     00129103700     000000000000110000
2004280400977MONTIEL                       DE LA FUENTE        PAULINA                       10126482987     000000000000000000
2004290400980REYES                         GUTIERREZ           ERIK MANUEL                   00102508764     000000000000141845
2004300400991FLORES                        CHACON              SALVADOR                      00114216871     000000000000390440
2004310401018CANUL                         RODRIGUEZ           MARIA FERNANDA                13004853835     000000000000040000
2004320401037HERRERA                       TUN                 EDWIN ISRAEL                  10296777884     000000000000040000
2004330401091GRANDE                        CALAQUINO           RIGOBERTO                     01708627298     000000000000198100
2004340401102CANCHE                        UN                  MARIA GUADALUPE               10397924128     000000000000000000
2004350401105JUAN                          LAZARO              RUTH                          01104678063     000000000000000000
2004360401116RAMIREZ                       GARCIA              ALFONSO                       00111087735     000000000000040000
2004370401192DIAZ                          CHABLE              JUANITA                       01306736821     000000000000000000
2004380401193SANTOS                        GOMEZ               DAYARI IRAN                   10109870272     000000000000000000
2004390401207DIAZ                          BONFIL              GUADALUPE                     10086777156     000000000000040000
2004400401213TRUJILLO                      JIMENEZ             JOSE LUIS                     01095680959     000000000000271735
2004410401215SONDA                         VARGAS              CARLOS FELIPE                 01384209766     000000000000040000
2004420401219DOMINGUEZ                     COUTINO             AMAIRANI                      01336429174     000000000000094000
2004430401221CHAN                          LOZANO              EDDIE AMIR                    01306972829     000000000000040000
2004440401232TORRES                        PENAGOS             LUIS ANTONIO                  00132103420     000000000000000000
2004450901250CHAVEZ                        SERNA               CARLOS ALEXIS                 10134380174     000000000000205000
2004460901450OSORIO                        VIDAL               NANCY GUADALUPE               10413255088     000000000000258100
2004470901510CHI                           CANCHE              ADOLFO ANGEL                  00118938670     000000000000040000
2004480901601MIRANDA                       SANTOS              ROSA MARIA                    00137863724     000000000000000000
2004490901754ALAMILLO                      MEDORIO             ARACELI                       00125114164     000000000000191525
2004500901870RENDON                        CEBRERO             KARLA DEYSI                   00123064713     000000000000000000
2004510901969MORALES                       DIAZ                MAR LORENIZ                   10268173892     000000000000040000
2004520902064MUNOZ                         CARMEN              RAUL                          00138954172     000000000000168700
2004530902356GONZALEZ                      ROMERO              CARLOS EDUARDO                00142551582     000000000000080000
2004540902732SANTIAGO                      DEL ANGEL           ANTONIO                       00128044500     000000000000487830
2004550902961CAMPOS                        PANTALEON           HUGO TOMAS                    01105811045     000000000000124460
2004560903325NICOLAS                       ANDRADE             URIEL                         00121289398     000000000000204300
2004570903798ARGUELLES                     MORALES             JOSE MANUEL                   00121271710     000000000000287300
2004580904224JEREZANO                      ARTIGAS             ROLANDO                       01624978032     000000000000386415
2004590904257BELLO                         MARTINEZ            JONATHAN                      00130630330     000000000000104000
2004600904322FERNANDEZ                     DURAN               NORMA ANGELICA                00107847320     000000000000480500
2004610904363CABRERA                       MAROTO              GUSTAVO YAMIL                 10300649438     000000000000080000
2004620904366MORALES                       QUEZADA             FERNANDO                      13004318220     000000000000080000
2004630904449JIMENEZ                       CASTELLANOS         KARLA MAYTE                   00111468224     000000000000040000
2004640904459LOPEZ                         HERNANDEZ           ALEXIS GABRIEL DE JESUS       01326839587     000000000000050000
2004650904466HERNANDEZ                     MONTOYA             JORGE ALEJANDRO               01352291453     000000000000040000
2004660904493LOPEZ                         CALVO               VIVIANA GUADALUPE             00126828758     000000000000050000
2004670904506DIAZ                          MEJIA               ARTURO                        00114194619     000000000000050000
2004680904510ROSALES                       DELGADO             DAVID                         10144440957     000000000000040000
2004690904536RUIZ                          SANTIZ              HUGO ISAAC                    10247452198     000000000000040000
2004700904543PEREZ                         LOPEZ               ERIK                          00364741849     000000000000040000
2004710904560RAMIREZ                       ROBLERO             JOYNER AHITOFEL               00129231649     000000000000050000
2004720904606HERNANDEZ                     CHAVEZ              MIGUEL ANGEL                  01683247524     000000000000050000
2004730904644HERRERA                       ROBLERO             LISANIA KARLILY               10266139352     000000000000000000
2004740904663CRUZ                          RAMIREZ             ESVER ENRIQUE                 01328824345     000000000000050000
2004750904699CRUZ                          RUIZ                EDITH CONCEPCION              01301598859     000000000000000000
2004760904712ALFARO                        VELASCO             JAIME OSVALDO                 10404562806     000000000000040000
2004770904721GONZALEZ                      MARTINEZ            MAYRA ALINA                   13001651484     000000000000050000
2004780904736ESPINOZA                      FLORES              ADRIANA                       01314528060     000000000000000000
2004790904739SUAREZ                        PEREZ               EDDY                          01301963681     000000000000050000
2004800904752FELIX                         GARCIA              CESAR OMAR                    00151344890     000000000000050000
2004810904807ALVAREZ                       SANCHEZ             JOSE GABRIEL                  10421006305     000000000000050000
2004820904818HEREDIA                       SOLIS               IVAN ALFREDO                  10418992617     000000000000050000
2004830904822LUGARDO                       MILLAN              MISRAIM                       00123258373     000000000000080000
2004840904823GARCIA                        HERNANDEZ           JORGE LUIS                    13004921466     000000000000050000
2004850904833AVENDANO                      VERA                JORGE DANIEL                  00151586846     000000000000050000
2004860904851VILLANO                       GALINDO             LUIS ENRIQUE                  01330579524     000000000000040000
2004870904852LOPEZ                         LOPEZ               JORGE ALBERTO                 00122031541     000000000000050000
2004880904860VALENZUELA                    PEREZ               JORGE ALBERTO                 00139133006     000000000000040000
2004890904869RAMIREZ                       CAMPOS              AZUCENA                       01369537760     000000000000000000
2004900904882CRUZ                          MONTOYA             JOSE ANDRES                   01683241462     000000000000050000
2004910904894PENAGOS                       DOMINGUEZ           GAYBER EDIBALDO               00151664643     000000000000050000
2004920904900RAMIREZ                       ORDONEZ             VIALET MARISOL                10167341450     000000000000000000
2004930904911CAMBRANO                      GORDILLO            TANIA IZAMARA                 00124822230     000000000000000000
2004940904916PEREZ                         CRUZ                MARIA MAGDALENA               00151841817     000000000000050000
2004950904934RADILLA                       VALLE               EDGAR OMAR                    10346418732     000000000000040000
2004960904959GUMETA                        REYES               JOSE LUIS                     01679599979     000000000000050000
2004970904985ROMERO                        AYALA               EZEQUIEL                      01331527684     000000000000040000
2004980904991VILLARREAL                    ARANDA              GEOVANNY                      01315659230     000000000000050000
2004990905006SANTIAGO                      LANDA               ANTHONY OSVALDO               00151869084     000000000000050000
2005000905011RAMIREZ                       NUCAMENDI           SANTIAGO                      00151874077     000000000000050000
2005010905013TOLENTINO                     RAMIREZ             ARELI                         10247261449     000000000000040000
2005020905045DE PAZ                        RODRIGUEZ           SERGIO                        00121183974     000000000000050000
2005030905051TADEO                         ANTONIO             PEDRO                         10355671289     000000000000050000
2005040905054FLORES                        AVILA               JESUS ALBERTO                 00109247959     000000000000050000
2005050905102JIMENEZ                       GUMETA              EDGAR EDUARDO                 00151979640     000000000000000000
2005060905109LARA                          DIAZ                JULIO JESUS                   10332422648     000000000000000000
2005070905119NINO                          MATEO               ZENON                         01332680831     000000000000000000
2005080905125FLORES                        ARGUETA             SANDRA LUZ                    00152289577     000000000000000000
2005090905142SALAZAR                       DUARTE              CITLALI ASBET                 01380833846     000000000000000000
2005100905148SOBERANO                      LOPEZ               ALVIN MARCELO                 10296070365     000000000000000000
2005110905164CRUZ                          VAZQUEZ             JAZMIN LUCERO                 01330037551     000000000000000000
2005120905182JACOBO                        OLIVAR              OSIRIS                        00107328952     000000000000000000
2005130905196HERNANDEZ                     SANCHEZ             LUIS ALONSO                   01333222086     000000000000000000
2005140905199FLORES                        MARTINEZ            MARIA VICTORIA                00152410903     000000000000000000
2005150905217GOMEZ                         TORRES              ASAEL                         01311680126     000000000000000000
2005160905236BORJA                         VALDERRAMA          BLANCA RUBI                   13001336350     000000000000000000
2005170905248NOLAZCO                       GORDILLO            CHRISTOPHER ABIGAIL           01305949650     000000000000000000
2005180905255MONTALVAN                     MENDOZA             OLIVEY                        10092385367     000000000000000000
2005190905302BRITO                         RUVIALES            MAYRA                         00150549223     000000000000000000
2005200905305GOMEZ                         LOPEZ               RAFAEL EDUARDO                01378800093     000000000000000000
2005210905316JASSO                         ORTIZ               DANIELA                       00143335151     000000000000000000
2005220905322DE PAZ                        GONZALEZ            ESTRELLA YAMILET              13004977160     000000000000000000
2005230905325AGUILAR                       GUTIERREZ           FERNANDO ANGEL                00115946050     000000000000016693
2005240905328GARAVITO                      GARCIA              ALBERTO                       10317369447     000000000000000000
2005250905348DOMINGUEZ                     PEREZ               EDUARDO ALEXANDER             13005765530     000000000000000000
2005260905355HERNANDEZ                     VILLATORO           JACQUELINE DE LOS ANGELES     10340785644     000000000000000000
2005270905363MONTIEL                       RODRIGUEZ           ANARELI                       00119673629     000000000000000000
2005280905377LABRA                         RAMIREZ             HECTOR JUAN CARLOS            13005615342     000000000000000000
2005290905383DELGADO                       RIVERA              CHRISTIAN                     10414412462     000000000000000000
2005300905435ZAMBRANO                      MARTINEZ            VICTOR DANIEL                 10205295947     000000000000000000
2005310905439MENDEZ                        MAYO                EDMUR GENOVEVO                10202849402     000000000000000000
2005320905453MORALES                       MARTINEZ            MELISSA                       00119275619     000000000000000000
2005330905455VILLALOBOS                    BRAVO               ALEXI FRANCISCO               00120431104     000000000000000000
2005340905488FLORES                        PEREZ               ALMA MINERVA                  01336447164     000000000000000000
2005350905521LOEZA                         GUZMAN              JORGE ARMANDO                 01344224750     000000000000000000
2005360905535SOSA                          MORENO              LUIS ALEJANDRO                01322295595     000000000000000000
2005370905601VAZQUEZ                       ROBLERO             JEREMIAS                      00133884860     000000000000000000
2005380905602JUAREZ                        MALDONADO           FRANCISCO JAVIER              10394487789     000000000000000000
2005390905610LOPEZ                         SANTIZ              MARCO ANTONIO                 10239368501     000000000000000000
2005400905611DE LOS SANTOS                 PEREZ               EVELYN MAYRANI                10355678020     000000000000000000
2005410905618ALVAREZ                       GOMEZ               CARLA ALEJANDRA               01337137922     000000000000000000
2005420905627CORTAZAR                      ALVAREZ             JAVIER                        01306708316     000000000000000000
2005430905679IBARRA                        DIAZ                REBECA                        13004640173     000000000000000000
2005440905708CAMACHO                       TOALA               KARLA                         01315475379     000000000000000000
2005450905739MENDOZA                       LARA                HULBER                        10318161610     000000000000000000
2005460905760SANCHEZ                       BAUTISTA            NORMA                         01339469045     000000000000000000
2005470905784PEREZ                         MENDEZ              CELENE                        10142812709     000000000000000000
2005480905789MARROQUIN                     PASCACIO            JOSE ALFREDO                  10424796129     000000000000000000
2005490905797DIAS                          LERDO               BRUNO ARTEMIO                 00112311828     000000000000000000
2005500905798JIMENEZ                       RINCON              MANUEL DE JESUS               01133473624     000000000000000000
2005510905809RIVERA                        GIRON               ZURISADAI                     10198858191     000000000000000000
2005520905842NARCIA                        PEREZ               JORGE HUMBERTO                01326643757     000000000000000000
2005530905843GARCIA                        VAZQUEZ             MARIO ALBERTO                 01343216901     000000000000000000
2005540905872LOPEZ                         GONZALEZ            MIGUEL ANGEL                  00154174685     000000000000000000
2005550905907RECINOS                       LOPEZ               LUIS FERNANDO                 10148323548     000000000000000000
2005560905926PEREZ                         ESCOBAR             IVAN DONAI                    00154317223     000000000000000000
2005570905933GOMEZ                         AREVALO             MARICELA                      13002651674     000000000000000000
2005580905936ORTIZ                         MADRID              ROMAN                         00111490668     000000000000000000
2005590905984MORALES                       SANCHEZ             HENRY HERIBERTO               00154303262     000000000000000000
2005600905995ROBLERO                       ANTONIO             EDUARDO JESUS                 00154345062     000000000000000000
2005610043568FRAGOSO                       GARCIA              ANAYELI                       10334372648     000000000000000000
2005620600004JASSO                         BRETADO             MARIA CONCEPCION              10385445577     000000000000389600
2005630600015GAYTAN                        MARTINEZ            BEATRIZ ANGELICA              10395471819     000000000000165000
2005640600558ESPINOZA                      CADENA              DIANA SELENE                  10391994191     000000000000100000
2005650600579RIVERA                        ALMANZA             THELMA                        10358824450     000000000000104414
2005660600636GOMEZ                         JUAREZ              JUAN JOSE                     01329534715     000000000000185000
2005670600668CORNEJO                       TORRES              MIRNA                         00111086921     000000000000096500
2005680600727PACHECO                       RODRIGUEZ           JORGE ARMANDO                 10328980970     000000000000000000
2005690600816BUSTOS                        MUNOZ               DORA LUZ                      10115487952     000000000000235400
2005700600871MARTINEZ                      HERNANDEZ           LAURA MARICELA                10375471634     000000000000100000
2005710600935VILLAGOMEZ                    MANCILLA            IRVING ULISES                 00115725069     000000000000353500
2005720601013GARZA                         BUSTAMANTE          LAURA MARGARITA               01052590613     000000000000139461
2005730601037GOVEA                         SOSA                RODRIGO                       00330794121     000000000000000000
2005740601041MARTINEZ                      MARTINEZ            JULIA GUADALUPE               10382816469     000000000000570000
2005750601049CHAVEZ                        CORTEZ              EDGAR RICARDO                 01371319662     000000000000000000
2005760601067GARCIA                        RODRIGUEZ           MARIA GUADALUPE SALOME        01373717860     000000000000781800
2005770601129MARTINEZ                      GALVAN              JULIA GUADALUPE               10387049199     000000000000000000
2005780601153BOCANEGRA                     ARADILLAS           ROCIO                         01034757878     000000000000241200
2005790601229BURGOS                        RODRIGUEZ           JUAN PABLO                    10261800590     000000000000186500
2005800601261CEDILLO                       REYNA               JESUS RACIEL                  00131622749     000000000000402000
2005810601271ROMERO                        JUAREZ              SANDRA                        01342076657     000000000000329200
2005820601299CAMILO                        SOTO                MARIA GUADALUPE               00131844959     000000000000190000
2005830601314DE LA CRUZ                    RIVERA              CLAUDIA CAROLINA              10316272156     000000000000111279
2005840601344GONZALEZ                      AHUMADA             DALIA GUADALUPE               25600433641     000000000000344500
2005850601354LUNA                          RUIZ                ALMA MIRELLA                  01357618903     000000000000279050
2005860601355MARTINEZ                      ALDANA              BRIANDA PAOLA                 10150055631     000000000000000000
2005870601356CRUZ                          RIVERA              HUGO                          01102001573     000000000000150000
2005880601391MEDINA                        ESPINOZA            JOEL FRANCISCO                00118949579     000000000000100000
2005890601393SANCHEZ                       VENEGAS             CARLOS NOE                    00127787660     000000000000130000
2005900601396OYERVIDES                     TURRUBIATES         MARIA DE LA LUZ               10399726870     000000000000116576
2005910601402VILLARREAL                    DE LUNA             LEVINIA                       00825832203     000000000000178400
2005920601424PATINO                        RAMIREZ             BRICIA GABRIELA               01027074652     000000000000691108
2005930601453LOPEZ                         RODRIGUEZ           KARINA                        10288950712     000000000000159000
2005940601456CASTRO                        DEL ANGEL           IMELDA LIZBET                 01370375576     000000000000445000
2005950601481ROCHA                         ESTRADA             LUIS RODOLFO                  01674798176     000000000000000000
2005960601495MARTINEZ                      GUEVARA             RIGOBERTO                     00457749952     000000000000190000
2005970601497MONTELONGO                    MORENO              JUANITA GUADALUPE             25602287795     000000000000105885
2005980601498MORALES                       PEREZ               SONIA                         00332732770     000000000000190700
2005990601512GARCIA                        DELGADO             MARTHA ALICIA                 25602290275     000000000000132160
2006000601534ALVAREZ                       TORRES              NANCY                         01094937964     000000000000568400
2006010601535CASAS                         ZAVALA              KEVIN CRISTOPHER              10379523310     000000000000100000
2006020601537NAVARRETE                     ACEVEDO             FANNY DEL ROCIO               01105597509     000000000000000000
2006030601538CORTES                        RAMIREZ             JULIO CESAR                   00130244659     000000000000000000
2006040900977ESPINOSA                      MARTINEZ            JOSE LUIS                     01103007581     000000000000238922
2006050901219HERNANDEZ                     MIRELES             LUIS FRANCISCO                01384939002     000000000000355000
2006060901241BUENO                         GUTIERREZ           DIEGO ALBERTO                 25602457440     000000000000393300
2006070901412JAQUEZ                        CASTORENA           ROBERTO CARLOS                13005204598     000000000000387565
2006080901462RODRIGUEZ                     LANDEROS            ISRAEL                        00126972187     000000000000698000
2006090901676FERNANDEZ                     GONZALEZ            CLAUDIA LORENA                01122852438     000000000000402550
2006100901766BURGOS                        BONILLA             CLAUDIA YANETH                14503584208     000000000000000000
2006110901768MELO                          MARTINEZ            ABELINO                       01104684345     000000000000503600
2006120901774MIRANDA                       LOZANO              MARGARITA                     00823351100     000000000000193600
2006130901873MONCADA                       HERNANDEZ           JUAN ALEJANDRO                01316916103     000000000000109380
2006140901979GALINDO                       PEREZ               LUIS ANGEL                    00115827930     000000000000203500
2006150902186MORALES                       RUMBO               GLADYS JANETH                 00825594191     000000000000160000
2006160902237LEON                          SANUDO              HILDSE GIOVANA                01024820278     000000000000000000
2006170902292OROPEZA                       LERMA               EDUARDO                       10310921861     000000000000000000
2006180902454MATEOS                        ROSASLANDA          MANUEL                        01116281813     000000000000130000
2006190902548PEREZ                         SANCHEZ             ZULEMA MARISOL                13005833765     000000000000000000
2006200902642GARCIA                        HERNANDEZ           MARILU                        01367266780     000000000000000000
2006210902858RODRIGUEZ                     SALAS               LAURA REFUGIO                 00134521880     000000000000668000
2006220902859ROJAS                         CASADOS             LUIS ALBERTO                  00126687490     000000000000526000
2006230902860RAMIREZ                       ROJO                ROSARIO ALBERTO               13003490321     000000000000040000
2006240903066PICON                         ARELLANO            MARIO ALBERTO                 00120960076     000000000000130000
2006250903103GARCIA                        RODRIGUEZ           ANA ROSA                      00114246767     000000000000212900
2006260903132LLANOS                        DE LA CRUZ          JUANA PATRICIA                01116593299     000000000000222600
2006270903138ESPARZA                       DE LEON             FRANCISCO JAVIER              01097508570     000000000000335608
2006280903142GOMEZ                         RODRIGUEZ           ROSA ELENA                    00140219982     000000000000100000
2006290903222RAMOS                         RODRIGUEZ           JUDITH                        10105790630     000000000000170000
2006300903226OSUNA                         ESQUER              IDADA YOLANDA                 00595923131     000000000000150000
2006310903235DE LA ROSA                    MEJIA               MARIA DE LA LUZ               10266966160     000000000000145000
2006320903237LOZANO                        VALLEJO             BLANCA ESTHELA                10414511266     000000000000310000
2006330903298GUZMAN                        GONZALEZ            BERENICE                      10414452731     000000000000118600
2006340903481VALERIO                       LOZANO              ROBERTO ARATH                 01313710220     000000000000227800
2006350903567MARTINEZ                      MALDONADO           KARLA INES                    00831887311     000000000000080000
2006360903617GOMEZ                         RUBIO               MARIBEL                       01311542244     000000000000177000
2006370903650MENDO                         MARTINEZ            ANALI                         01316488440     000000000000000000
2006380903690BELTRAN                       NAVARRO             KARLA PATRICIA                00142211720     000000000000298000
2006390903727HERNANDEZ                     MARTINEZ            SANJUANA PATRICIA             00826052643     000000000000150000
2006400903742HUIZAR                        GUILLEN             BRENDA AMAIRANI               10319002087     000000000000149600
2006410903768LUNA                          DOMINGUEZ           JUDITH DEL CARMEN             00000482272     000000000000154000
2006420903818GREGORIO                      AMADO               BERNARDO                      01132430826     000000000000703000
2006430903829ESCAMILLA                     MUNOZ               DORA ELIA                     10416700040     000000000000410000
2006440903868ALVAREZ                       AYALA               MYRIAM CRISTINA               01097898815     000000000000536000
2006450904023GOMEZ                         PACHECO             ALEJANDRO                     10417581052     000000000000150000
2006460904107SANCHEZ                       RAMIREZ             ERIKA KARINA                  01024683820     000000000000000000
2006470904128ESTRADA                       MARTINEZ            KATYA GUADALUPE               01345513421     000000000000050000
2006480904139ESPINOSA                      CEDILLO             JESUS GUADALUPE               01131473880     000000000000050000
2006490904184GARCIA                        MORIN               WENDY NATALY                  13004374554     000000000000150000
2006500904185ZAMUDIO                       DIAZ                BRIAN                         00322615409     000000000000150000
2006510904240MARTINEZ                      HERRERA             LUIS FERNANDO                 01324119128     000000000000000000
2006520904262MARTINEZ                      GARZA               ALMA PATRICIA                 01325125155     000000000000062203
2006530904324GARZA                         VALLES              GRISELDA YANETH               10340424226     000000000000050000
2006540904379MENDOZA                       RESENDIZ            MADAY ARACETH                 00151837810     000000000000050000
2006550904418MUNIZ                         HERNANDEZ           ANA LIZETH                    01326096575     000000000000050000
2006560904440OLAN                          ZAPATA              JAVIER ARTURO                 10419823320     000000000000050000
2006570904448HERNANDEZ                     ZAVALETA            DIEGO                         13006032650     000000000000080000
2006580904457TORRES                        RIVERA              SANDRA                        00111001507     000000000000096500
2006590904458MOZO                          LOPEZ               MARIA                         10188630583     000000000000000000
2006600904461PEREZ                         CARBAJAL            BIBIANA                       00119563172     000000000000040000
2006610904463MOLINA                        CUEN                FLOR ESMERALDA                01327223573     000000000000000000
2006620904471ANGULO                        SANCHEZ             EMMANUEL                      10419836783     000000000000268000
2006630904473MORALES                       CARPINTEIRO         EDUARDO                       00113152166     000000000000100000
2006640904484AGUILERA                      VIVANCO             NAYRA VIRGINIA                10419965265     000000000000050000
2006650904497DEL TORO                      ALVAREZ             JONATAN                       10197063934     000000000000364650
2006660904500FERNANDEZ                     QUIROZ              LIDIA MARGARITA               10189144518     000000000000050000
2006670904508PEREZ                         GASPAR              RUBEN                         10420023427     000000000000040000
2006680904515BENITEZ                       ARANA               JOANAN ELIEZER                00134630951     000000000000040000
2006690904523GARCIA                        SOLIS               RUBI ARIADNA                  00114470280     000000000000185000
2006700904549ROJAS                         MEDINA              MAGALI                        00151159855     000000000000080000
2006710904555REYNA                         VELAZQUEZ           FERNANDA GUADALUPE            00129869386     000000000000050000
2006720904564SANCHEZ                       OJEDA               FREDDY                        13006023295     000000000000050000
2006730904570BENAVIDES                     SANCHEZ             LUIS CARLOS                   01327714266     000000000000000000
2006740904586BOBADILLA                     SERRANO             BRYAN ALEJANDRO               00151226890     000000000000130000
2006750904589CRUZ                          GARCIA              YESENIA                       00151151055     000000000000040000
2006760904591PECH                          RAZ                 AMPARO JANET                  10416761260     000000000000040000
2006770904595TAPIA                         CASTRO              MARIA GUADALUPE               01344879808     000000000000117095
2006780904603BARRUETA                      FLORES              JESUS BERNABE                 00113747683     000000000000093600
2006790904605PENA                          SALAZAR             JOSE SANTOS                   01028543294     000000000000080000
2006800904611HERNANDEZ                     RUIZ                JESUS ADRIAN                  00119387552     000000000000178500
2006810904617RAMIREZ                       PRADO               CITLALI MARIBEL               10420016480     000000000000096150
2006820904625RODRIGUEZ                     AYALA               MARIA VERONICA                01124511373     000000000000080000
2006830904632ONTIVEROS                     FLORES              JUAN MARIO                    13004912947     000000000000040000
2006840904636LOPEZ                         PRADO               ANA CECILIA                   01328783517     000000000000080000
2006850904639RUIZ                          RIOS                JUAN PABLO                    10400825578     000000000000090000
2006860904655GUTIERREZ                     PACHECO             JULIETA                       01328794866     000000000000100000
2006870904682MONTERO                       LOPEZ               JORGE LUIS                    10205687632     000000000000040000
2006880904687MACOSSAY                      RAMOS               LIZBETH                       01709581589     000000000000000000
2006890904696MORALES                       GALVEZ              RAQUEL                        10268178878     000000000000000000
2006900904718HERRERA                       ABURTO              VICTOR ALAN                   10409993341     000000000000050000
2006910904723TELLEZ                        ESPINO              ELIEL JOSUE                   01329117855     000000000000128900
2006920904728RODRIGUEZ                     PATINO              KIMBERLY YARELI               01360793070     000000000000000000
2006930904737VAZQUEZ                       SANCHEZ             JOGANY                        01614431792     000000000000050000
2006940904744TORRES                        ANGEL               LUIS GUSTAVO                  01361431687     000000000000050000
2006950904757AGUILA                        MONTERROSAS         MARIO OMAR                    00152714385     000000000000040000
2006960904758SANTOS                        LOPEZ               ALDO YAHIR                    25600454403     000000000000050000
2006970904759MARTINEZ                      ROMERO              LUIS GIBRAN                   00131951079     000000000000080000
2006980904776POLVO                         CEDILLO             JUAN                          01128310006     000000000000179611
2006990904777AGUILAR                       HERNANDEZ           JOSIMAR EMMANUEL              10279071943     000000000000040000
2007000904778BENITEZ                       RAMOS               MAYRA ZULEIMA                 10353918872     000000000000222000
2007010904780CORDERO                       CRUZ                ANA LIDIA                     01662303636     000000000000080000
2007020904787CORONA                        GARCIA              HECTOR                        00138146554     000000000000096500
2007030904788MARTINEZ                      REYES               JOANNA AIMME                  01329962430     000000000000000000
2007040904805SOTELO                        MELENDREZ           YESSICA                       10420872858     000000000000000000
2007050904809DIAZ                          CONTRERAS           CARLOS ALBERTO                01094447614     000000000000350000
2007060904810ALVARADO                      PEREZ               ARIDAI                        25600455781     000000000000040000
2007070904828SANTIAGO                      SANTIAGO            PALOMA                        10421092236     000000000000000000
2007080904839NUNEZ                         BRAVO               ERICK                         10299658533     000000000000165180
2007090904844GAYOSSO                       CUEVAS              LIZBETH                       10421130715     000000000000040000
2007100904846BUITIMEA                      LOPEZ               PERLA GUADALUPE               10288935390     000000000000040000
2007110904848ALVARADO                      HERNANDEZ           HILARIO                       10242810525     000000000000080000
2007120904849CABANAS                       MORALES             HELLEN YOMARI                 01333656290     000000000000040000
2007130904867HERNANDEZ                     GOMEZ               JACOBO GABRIEL                01120817246     000000000000040000
2007140904870ARMAS                         CORTES              JOSE EDUARDO                  00151698389     000000000000050000
2007150904877PEREZ                         TEUTLE              ELIZABETH                     13003030940     000000000000000000
2007160904881ROMO                          SOTO                ALMA PATRICIA                 01141233999     000000000000056000
2007170904884GUTIERREZ                     PEREZ               FLORICEL                      13004785716     000000000000040000
2007180904889CHIM                          UC                  JESSICA GABRIELA              13005393617     000000000000040000
2007190904895GONZALEZ                      TORREALBA           GABRIEL                       00151735747     000000000000100000
2007200904901FERNANDEZ                     BIBIANO             SONIA                         10421330730     000000000000040000
2007210904909AGUIRRE                       MERINO              MARIA ISABEL                  10421343450     000000000000100000
2007220904929ALONSO                        RAMIREZ             CESAR ARMANDO                 00115703661     000000000000080000
2007230904939GARCIA                        VELAZQUEZ           MARLENE                       10421343689     000000000000080000
2007240904951SOLORIO                       CRUZ                ERICK GABINO                  13004899991     000000000000050000
2007250904963ZAMORA                        VALENCIA            MARIO                         13005413537     000000000000080000
2007260904971DE JESUS                      VALENCIA            MARLENE                       10318428110     000000000000100000
2007270904980GARCIA                        CRUZ                JOSE LUIS                     01324371282     000000000000040000
2007280904983CONDE                         CRUZ                EVELIA                        00151821420     000000000000000000
2007290904986HIDALGO                       RAMIREZ             MIGUEL                        00120652448     000000000000130000
2007300904989CHAN                          CRUZ                LUIS ALBERTO                  00114107016     000000000000050000
2007310905009SANCHEZ                       PEREZ               NALLELY                       01331416621     000000000000080000
2007320905025MUNDO                         LOPEZ               IRIS DEL CARMEN               01319994839     000000000000050000
2007330905038ACEVEDO                       CHAVEZ              ELIZABETH                     10360146443     000000000000093161
2007340905048RODRIGUEZ                     OVALLE              ARTEMIO                       00317669903     000000000000080000
2007350905050SANTOS                        GARCIA              JUAN ANDRES                   00113997703     000000000000050000
2007360905053PAZ                           AGUILAR             OMAR                          00152031861     000000000000040000
2007370905056JUAREZ                        ROJANO              ALONSO EMIR                   00152113933     000000000000050000
2007380905058HERNANDEZ                     AVILA               MARVIN DANILO                 13005160744     000000000000040000
2007390905062CARMONA                       PORTUGUES           ARMANDO                       00116607570     000000000000040000
2007400905065MERINO                        VAZQUEZ             ALEJANDRO                     01302534250     000000000000050000
2007410905066RAMOS                         FRANCISCO           EVELYN GUADALUPE              00100035971     000000000000052920
2007420905067ZACARIAS                      ALEJANDRE           ESPERANZA                     01133147505     000000000000080000
2007430905070DELGADO                       FERNANDEZ           ARELY DEL CARMEN              00131074871     000000000000040000
2007440905073UITZIL                        POOL                LUIS REYES                    00110559832     000000000000000000
2007450905074JUAREZ                        MORALES             ALINNE ARACELI                00152214516     000000000000100000
2007460905075CHIMAL                        CUXIN               VICTOR MANUEL                 13005136177     000000000000000000
2007470905084REYES                         NOLASCO             GERARDO                       00140486306     000000000000025944
2007480905086QUINTERO                      LOPEZ               FREDDY                        00111013101     000000000000000000
2007490905092VILLALOBOS                    MERINO              IRMA                          10421832426     000000000000000000
2007500905099VAZQUEZ                       RAMIREZ             MARIA GUADALUPE               20305307902     000000000000173628
2007510905100RAMIREZ                       ROQUE               VALERIANO                     10350241057     000000000000050000
2007520905108BAUTISTA                      ZENDEJAS            JOSE FRANCISCO                10287377989     000000000000150000
2007530905114MEZA                          CHAVEZ              CARMEN ARACELI                01305113509     000000000000090000
2007540905132FLORES                        ROSAS               LUIS ERICK                    00123624360     000000000000080000
2007550905136MEDELLIN                      OLVERA              MARIO                         00818350058     000000000000080000
2007560905141NORIEGA                       GARCIA              FELIX                         25603028263     000000000000225160
2007570905147JUAREZ                        CORNELIO            YENI JOCABET                  13006069007     000000000000000000
2007580905149ALVARADO                      GUIZAR              LUZ MARIA                     01623798270     000000000000000000
2007590905154CRUZ                          SANTOS              ROSARIO                       00111880608     000000000000000000
2007600905174PASCUAL                       MARTINEZ            PABLO                         01333167174     000000000000100000
2007610905178GOMEZ                         CRUZ                JOSE ALBERTO                  01394853098     000000000000000000
2007620905186CABRERA                       LOPEZ               ANA KAREN                     13005323740     000000000000080000
2007630905188HERNANDEZ                     HERNANDEZ           DULCE OLIVIA                  00129783380     000000000000000000
2007640905190PEREZ                         FLORES              ISAAC                         01333438989     000000000000080000
2007650905194CONTRERAS                     PAVON               SOLEDAD                       10249471831     000000000000000000
2007660905214SEDANO                        QUINTERO            RICARDO                       10155035140     000000000000000000
2007670905222LOPEZ                         FRANCISCO           JAIRO JAHIR                   00152483780     000000000000000000
2007680905230CASTILLO                      CARREON             MARICELA                      01031084087     000000000000100000
2007690905258MEJIA                         CHAVEZ              JUAN ANTONIO                  01334069586     000000000000000000
2007700905265ALMAGUER                      GARZA               BLANCA LIZETH                 01334160760     000000000000080000
2007710905279MARTINEZ                      PEREZ               YANELI CINAY                  10421333624     000000000000000000
2007720905280CASTILLO                      MENDOZA             RAYMUNDO DANIEL               10352226039     000000000000000000
2007730905284TRINIDAD                      CALDERON            ZITLALXOCHITL                 10099714447     000000000000000000
2007740905288RIVERA                        OCAMPO              AMAIRANI                      10363428008     000000000000000000
2007750905289RAMIREZ                       UC                  JOSUE                         18001423041     000000000000000000
2007760905300GUTIERREZ                     SANCHEZ             JOSE GUADALUPE                10416199103     000000000000000000
2007770905307ORDONEZ                       DAVILA              CESAR IVAN                    00152777141     000000000000000000
2007780905336MACUIL                        ARANA               GILBERTO                      00152635953     000000000000000000
2007790905341RAMIREZ                       DIAZ                MARIA CRUZ LIZBETH            25603115488     000000000000000000
2007800905343CERVANTES                     MEDRANO             YAIR                          01350420400     000000000000000000
2007810905350LUCAS                         MELCHOR             LUIS ENRIQUE                  00114291357     000000000000000000
2007820905351MILAGRO                       GARCIA              HERI DABIR                    01321592466     000000000000000000
