000000001                991534735024          000000000272907JOSE ANGEL RAMOS MENDOZA                001001
000000002                991593555334          000000000272907XIMENA PAOLA ESCOBAR BARRIOS            001001
000000003                991504719941          000000000272907CESAR FABIAN MARTINEZ CRUZ              001001
000000004                992946437605          000000000272907HENRY JIMENEZ CASTELLANOS               001001
000000005                991161397567          000000000139174DULCE KARINA DE JESUS CEJEDA            001001
000000006                991500928801          000000000272907GABRIELA DE LOS SANTOS CUETO            001001
000000007                991591713802          000000000234177JOSE MARIA CABALLERO HILERIO            001001
000000008                991511828700          000000000183498JORGE ANTONIO CUNDAPI GONZALEZ          001001
000000009                991538306390          000000000272907LESLY YESSENIA CALDERON TOLEDO          001001
000000010                991504839148          000000000272907CARLOS ALBERTO ALVARADO ARRIAGA         001001
000000011                991504839204          000000000272907HECTOR ANSELMO MEJIA LOPEZ              001001
000000012                991536059543          000000000272907LUIS EDUARDO ROSALES GOMEZ              001001
000000013                991531717960          000000000272907FRANCISCO ALFONSO CORONA DE LA ROSA     001001
000000014                991526160215          000000000272907ROXANA JACQUELINE TOVILLA MOLINA        001001
000000015                992968879249          000000000294617JOSE DANIEL MORALES DE LEON             001001
000000016                991549073453          000000000533469GERSON GONZALEZ DOMINGUEZ               001001
000000017                991589745401          000000000294617PABLO ALEXIS BECERRA PACHECO            001001
000000018                991566444385          000000000294617BERTONY ALDAIR MONZON PEREZ             001001
000000019                992986025153          000000000272907JOSE LUIS PALACIOS MORALES              001001
000000020                991544216451          000000000272907BIRSI CAREMI DOMINGO BARTOLON           001001
000000021                991495354498          000000001069101FRANCISCO ANSELMO BRINGAS MEDA          001001
000000022                991570638242          000000000272907MANUEL LOPEZ AMORES                     001001
000000023                991523683233          000000000272907LUIS ANGEL DOMINGUEZ VELAZQUEZ          001001
000000024                991581088173          000000000272907MARCO ANTONIO GARCIA ORDONEZ            001001
000000025                992669508538          000000000228909GLADICELA DE LOS SANTOS CAMAS           001001
000000026                991563996690          000000000294624LUIS ENRIQUE COTA RODRIGUEZ             001001
000000027                991567187084          000000000249503JONATHAN CABALLERO VENTURA              001001
000000028                991579405011          000000000181125MARIA ALBINA LOPEZ DE LA ROSA           001001
000000029                991575811554          000000000201031JAIRO OBET ROJAS DE LA CRUZ             001001
000000030                991510445196          000000000272907CARLO ALAN LEY CRUZ                     001001
000000031                992977741030          000000000267907HECTOR ALBERTO CONSUEGRA PEREZ          001001
000000032                991562810835          000000000272907DIANA ANAHI HERNANDEZ RUIZ              001001
000000033                992894056043          000000000272907JUAN CARLOS SOLIS TADEO                 001001
000000034                991583172247          000000000272907JONATHAN JUAREZ Y JUAREZ                001001
000000035                991502891414          000000000294624LENING HERNANDEZ NUNEZ                  001001
000000036                992852795604          000000000272907ELVIS YOAN SANCHEZ ORTIZ                001001
000000037                991528144276          000000000204638OBET ENRIQUE ARREOLA TRINIDAD           001001
000000038                991522249972          000000000188873BERTHA RODHE DE LEON HERNANDEZ          001001
000000039                992880025577          000000000272907FERNANDO RENE GONZALEZ JEREZ            001001
000000040                991546245366          000000000272907YESICA PAZ VERDUGO                      001001
000000041                991526634294          000000000228909TANIA CAROLA HERNANDEZ ZACARIAS         001001
000000042                991535646696          000000000272907HEYNNER ALEXANDER FIGUEROA VILLALBA     001001
000000043                991506780894          000000000165189ISMAEL LOPEZ MATIAS                     001001
000000044                991537650515          000000000272907AMADA GUADALUPE PEREZ CANCINO           001001
000000045                991562695804          000000000203376ABRAHAM OSORIO LOPEZ                    001001
000000046                991581965525          000000000272907EMELIDA MATEO MARROQUIN                 001001
000000047                991170325392          000000000272907JESUS ANTONIO CONTRERAS GONZALEZ        001001
000000048                992787366590          000000000228902PAOLA PEREZ RUIZ                        001001
000000049                991151593188          000000000459528BRENDA PAOLA BRAVO CASTELLANOS          001001
000000050                991504287391          000000000272893FABIOLA DAMARI HERNANDEZ ESPINOSA       001001
000000051                991126653790          000000000421887MONICA VEGA CHIRINO                     001001
000000052                991534907064          000000000095544YADIRA VELAZQUEZ SERENO                 001001
000000053                991510945831          000000000203200JAIRO JUAREZ ESTEBAN                    001001
000000054                991532708671          000000000272899ALEJANDRA CABRERA VILLAREAL             001001
000000055                991546248691          000000000228896RUTH ESTHER ANTONIO ZARATE              001001
000000056                991559774254          000000000428630GABRIEL VAZQUEZ AGUILAR                 001001
000000057                992985927390          000000000272899FABIOLA ESQUINCA CAMAS                  001001
000000058                991149952829          000000000764179MARICELA PEREZ MENDEZ                   001001
000000059                992677746237          000000000314347FERNANDO DOMINGUEZ PASCACIO             001001
000000060                992893152448          000000000301266ILSE JANETH CEH CRUZ                    001001
000000061                992853898407          000000000359999MARCO ANTONIO MORALES ESPINOZA          001001
000000062                991506366808          000000000051492JORGE ENRIQUE DOMINGUEZ CRUZ            001001
000000063                991482124440          000000000272893VALERIA HILERIO RIVERA                  001001
000000064                991516733934          000000000589453CARLOS EDUARDO CAMPOS ORDONEZ           001001
000000065                991141348299          000000000218926FRIDAICE CHEVEZ MEZA                    001001
000000066                991175281245          000000000218926BLANCA ELIDIA DIEGO CASTRO              001001
000000067                991132998386          000000000336102ROSA LILIA DIAZ CRUZ                    001001
000000068                991130015512          000000000218940ANABELL VELAZQUEZ LOPEZ                 001001
000000069                991517022813          000000000174209ERIK IVAN DE LA CRUZ SALINAS            001001
000000070                991138302227          000000000444829YANET MENDOZA VELAZQUEZ                 001001
000000071                991166153186          000000000279632CATALINA DE LA CRUZ VELAZQUEZ           001001
000000072                992898931348          000000000393564JOSE ALBERT RAMIREZ MARINA              001001
000000073                991436227392          000000000176405MARIA MAGDALENA VILLATORO DE LOS SANTOS 001001
000000074                992886394337          000000000272893SAIRA CHIRINO HERNANDEZ                 001001
000000075                992903784665          000000000579199XOCHITL CITLALI SANCHEZ GUILLEN         001001
000000076                991516190604          000000000533395MAGDALENA RODRIGUEZ LOPEZ               001001
000000077                992879168923          000000000272879YOANA ONEYDI VELAZQUEZ GONZALEZ         001001
000000078                992883433773          000000000218933ZOILA YANETH MALDONADO ESCOBAR          001001
