65508020750     002180701446428036  BANAMSANDRA YETZUANY ORTEGA PEREZ            100100000000023565001001NOMINA                                                                                                                            0000001
65508020750     012180014886726444  BACOMLIZBETH HERNANDEZ ARENAS                100100000000022089101001NOMINA                                                                                                                            0000002
65508020750     012180014886715248  BACOMDULCE MARIA GARCIA RAMIREZ              100100000000022074601001NOMINA                                                                                                                            0000003
65508020750     012680029936827063  BACOMBEATRIZ OROPEZA GONZALEZ                100100000000022065001001NOMINA                                                                                                                            0000004
65508020750     072180010138833074  BBANOLAURA GIOVANNA CERVANTES RODRIGUEZ      100100000000013574601001NOMINA                                                                                                                            0000005
