0410059        0000000000112165185800002320700828572552000000000320000022062021DEPOSITO                      1100000000000000dgarcia@gruposeri.com                  22062021ANDREA ISABEL HEREDIA CERVANTES                                                    
0410192        0000000000112165185800002260900023345842000000005420000022062021DEPOSITO                      1100000000000000dgarcia@gruposeri.com                  22062021MAURICIO LOPEZ ROSAS                                                               
0410228        0000000000112165185800002261904133678239000000002096730022062021DEPOSITO                      1100000000000000dgarcia@gruposeri.com                  22062021MARIA DEL ROCIO RADILLA ZAMORA                                                     
0410261        0000000000112165185800002248902989950922000000000522340022062021DEPOSITO                      1100000000000000dgarcia@gruposeri.com                  22062021JUAN CARLOS ARROYO CORONA                                                          
0410278        0000000000112165185800002261904143202514000000001037490022062021DEPOSITO                      1100000000000000dgarcia@gruposeri.com                  22062021PAULINO URBANO RADILLA                                                             
0410467        0000000000112165185800002506903590674529000000000320000022062021DEPOSITO                      1100000000000000dgarcia@gruposeri.com                  22062021YOLANDA MAYA PAHUA                                                                 
0410490        0000000000112165185800002282903610314575000000000420000022062021DEPOSITO                      1100000000000000dgarcia@gruposeri.com                  22062021MARBELLA MARILEZ GUILLEN                                                           
0410947        0000000000112165185800002476903824919116000000000420000022062021DEPOSITO                      1100000000000000dgarcia@gruposeri.com                  22062021ALEXIS ALBERTO TINOCO CALDERON                                                     
0410795        0000000000112165185800002497901191093953000000000320000022062021DEPOSITO                      1100000000000000dgarcia@gruposeri.com                  22062021PAOLA ALVAREZ CARDENAS                                                             
0411530        0000000000112165185800002528901011215764000000000750000022062021DEPOSITO                      1100000000000000dgarcia@gruposeri.com                  22062021VERONICA COLIN GONZALEZ                                                            
0411533        0000000000112165185800002282901767365411000000000320000022062021DEPOSITO                      1100000000000000dgarcia@gruposeri.com                  22062021LIZZET MEZA FIGUEROA                                                               
0411603        0000000000112165185800002320904165977810000000000420000022062021DEPOSITO                      1100000000000000dgarcia@gruposeri.com                  22062021CRISTINA DEL CARMEN QUEZADA AGUILA                                                 
0411645        0000000000112165185800002261701538565140000000000320000022062021DEPOSITO                      1100000000000000dgarcia@gruposeri.com                  22062021JOSE ANTONIO VALENTIN LORENZO                                                      
0411764        0000000000112165185800002222902946577458000000000420000022062021DEPOSITO                      1100000000000000dgarcia@gruposeri.com                  22062021FELIPE DE JESUS VILLANUEVA CASTRO                                                  
0411771        0000000000112165185800002215904345696712000000000320000022062021DEPOSITO                      1100000000000000dgarcia@gruposeri.com                  22062021MARTHA LAURA ALONSO LOPEZ                                                          
0411836        0000000000112165185800002528904248288574000000000720000022062021DEPOSITO                      1100000000000000dgarcia@gruposeri.com                  22062021ARACELI ARCIGA PENA                                                                
0411838        0000000000112165185800002320902734805357000000000320000022062021DEPOSITO                      1100000000000000dgarcia@gruposeri.com                  22062021VICTOR RAMON DAVILA VALDEZ                                                         
0411733        0000000000112165185800002261902453964641000000000420000022062021DEPOSITO                      1100000000000000dgarcia@gruposeri.com                  22062021ROSALBA GENCHI GONZALEZ                                                            
0411734        0000000000112165185800002261903623833653000000000420000022062021DEPOSITO                      1100000000000000dgarcia@gruposeri.com                  22062021BLADIMIR GONZALEZ PALACIOS                                                         
0411927        0000000000112165185800002375903787161513000000000951660022062021DEPOSITO                      1100000000000000dgarcia@gruposeri.com                  22062021MA DE LOURDES DIAZ VELOZ                                                           
0411941        0000000000112165185800002225902702126451000000001170000022062021DEPOSITO                      1100000000000000dgarcia@gruposeri.com                  22062021CLAUDIA ADRIANA MARQUEZ GONZALEZ                                                   
0411954        0000000000112165185800002282904424471519000000000420000022062021DEPOSITO                      1100000000000000dgarcia@gruposeri.com                  22062021PERLA ZUHEY AMARO CARRANZA                                                         
0412048        0000000000112165185800002261904445331361000000000320000022062021DEPOSITO                      1100000000000000dgarcia@gruposeri.com                  22062021DULCE IVETH MACIEL GOMEZ                                                           
0437491        0000000000112165185800002272904489517651000000000293330022062021DEPOSITO                      1100000000000000dgarcia@gruposeri.com                  22062021PALOMA ELIZABETH SALDIERNA MALDONADO                                               
04901852       0000000000112165185800002282904421062578000000000320000022062021DEPOSITO                      1100000000000000dgarcia@gruposeri.com                  22062021CINTIA YASMIN DIAZ UVILLADA                                                        
04901700       0000000000112165185800002282904486610237000000000293330022062021DEPOSITO                      1100000000000000dgarcia@gruposeri.com                  22062021RAMON MOLINA RAMIREZ                                                               
04903525       0000000000112165185800002535904225675339000000000420000022062021DEPOSITO                      1100000000000000dgarcia@gruposeri.com                  22062021ISMAEL MEJIA CRUZ                                                                  
04904393       0000000000112165185800002272903647475934000000000320000022062021DEPOSITO                      1100000000000000dgarcia@gruposeri.com                  22062021RICARDO ARREDONDO LORENZO                                                          
0411005        0000000000112165185800002476902399640199000000000920000022062021DEPOSITO                      1100000000000000dgarcia@gruposeri.com                  22062021CECILIA GIOVANNA RUIZ LOZANO                                                       
0411045        0000000000112165185800012476015074024687000000000420000022062021DEPOSITO                      1100000000000000dgarcia@gruposeri.com                  22062021JASMIN GONZALEZ BARRERA                                                            
04903833       0000000000112165185800012506015715685938000000000320000022062021DEPOSITO                      1100000000000000dgarcia@gruposeri.com                  22062021MARIA ESMERALDA MOLINA NATIVIDAD                                                   
04904203       0000000000112165185800012225015791370250000000000720000022062021DEPOSITO                      1100000000000000dgarcia@gruposeri.com                  22062021LUIS FERNANDO MARTINEZ HERNANDEZ                                                   
04902074       0000000000112165185800012180015149371195000000000320000022062021DEPOSITO                      1100000000000000dgarcia@gruposeri.com                  22062021BERTHA CECILIA HERNANDEZ ESTRADA                                                   
04902080       0000000000112165185800012528015941135971000000000420000022062021DEPOSITO                      1100000000000000dgarcia@gruposeri.com                  22062021JUAN FRANCISCO WALDO HERRERA                                                       
04902244       0000000000112165185800012320029313428510000000000420000022062021DEPOSITO                      1100000000000000dgarcia@gruposeri.com                  22062021JUAN ANTONIO JIMENEZ RAMIREZ                                                       
04902313       0000000000112165185800012180015163162364000000000320000022062021DEPOSITO                      1100000000000000dgarcia@gruposeri.com                  22062021LUCIA MARTINEZ AGREDA                                                              
04903259       0000000000112165185800012885015068869685000000000285840022062021DEPOSITO                      1100000000000000dgarcia@gruposeri.com                  22062021BIANCA XITLALLI MORALES ANGELES                                                    
04901277       0000000000112165185800012180015090862313000000000320000022062021DEPOSITO                      1100000000000000dgarcia@gruposeri.com                  22062021LETICIA MARCELO TURJA                                                              
0411966        0000000000112165185800012320029035460717000000000320000022062021DEPOSITO                      1100000000000000dgarcia@gruposeri.com                  22062021JESUS ENRIQUE MIRANDA SICOURET                                                     
0411990        0000000000112165185800012535014396338553000000000420000022062021DEPOSITO                      1100000000000000dgarcia@gruposeri.com                  22062021HORACIO ALEJANDRO GARCIA PEREZ                                                     
0411991        0000000000112165185800012528015760345861000000000420000022062021DEPOSITO                      1100000000000000dgarcia@gruposeri.com                  22062021LUIS FERNANDO GARCIA BENAVIDES                                                     
0411995        0000000000112165185800012528015853157128000000003204000022062021DEPOSITO                      1100000000000000dgarcia@gruposeri.com                  22062021KARINA EDITH MARIN HERNANDEZ                                                       
0412014        0000000000112165185800012277015486599747000000000420000022062021DEPOSITO                      1100000000000000dgarcia@gruposeri.com                  22062021DULCE ELENA JIMENEZ TAPIA                                                          
0412023        0000000000112165185800012282015886295982000000000223330022062021DEPOSITO                      1100000000000000dgarcia@gruposeri.com                  22062021ARIANA YARELY VEJAR REYES                                                          
0411749        0000000000112165185800012476028810326905000000000420000022062021DEPOSITO                      1100000000000000dgarcia@gruposeri.com                  22062021RAUL CRUZ GARCIA                                                                   
0411903        0000000000112165185800012535015570342102000000000320000022062021DEPOSITO                      1100000000000000dgarcia@gruposeri.com                  22062021MARIA DEL CARMEN VAZQUEZ AYALA                                                     
0411907        0000000000112165185800012180015287595817000000000320000022062021DEPOSITO                      1100000000000000dgarcia@gruposeri.com                  22062021GUSTAVO OREGEL ORTA                                                                
0411913        0000000000112165185800012180015633695390000000000420000022062021DEPOSITO                      1100000000000000dgarcia@gruposeri.com                  22062021BENIGNO MAGALLAN TINOCO                                                            
0411863        0000000000112165185800012535015355771396000000000320000022062021DEPOSITO                      1100000000000000dgarcia@gruposeri.com                  22062021IGNACIO ALVAREZ HERNANDEZ                                                          
0411893        0000000000112165185800012320015334508724000000000420000022062021DEPOSITO                      1100000000000000dgarcia@gruposeri.com                  22062021CARLOS HUMBERTO PADILLA ORTIZ                                                      
0411785        0000000000112165185800012180015023512290000000001590000022062021DEPOSITO                      1100000000000000dgarcia@gruposeri.com                  22062021MARIA GUADALUPE SANDOVAL AYALA                                                     
0411822        0000000000112165185800012180015947076414000000000420000022062021DEPOSITO                      1100000000000000dgarcia@gruposeri.com                  22062021FIDEL ALTAMIRANO JUAREZ                                                            
0410150        0000000000112165185800012497015108894746000000000420000022062021DEPOSITO                      1100000000000000dgarcia@gruposeri.com                  22062021MARIA GUADALUPE GALLO LUVIANO                                                      
0410392        0000000000112165185800012528011457879631000000000320000022062021DEPOSITO                      1100000000000000dgarcia@gruposeri.com                  22062021ROLANDO ARTEMIO RAMIREZ SERENO                                                     
0411679        0000000000112165185800012375015768784855000000000320000022062021DEPOSITO                      1100000000000000dgarcia@gruposeri.com                  22062021DORILIAN ESTRADA SANCHEZ                                                           
0411682        0000000000112165185800012476015217283049000000000320000022062021DEPOSITO                      1100000000000000dgarcia@gruposeri.com                  22062021MIGUEL ANGEL VILLANUEVA GARCIA                                                     
0411652        0000000000112165185800012497015008631300000000000420000022062021DEPOSITO                      1100000000000000dgarcia@gruposeri.com                  22062021ALMA ESTHER LOPEZ GUZMAN                                                           
0410827        0000000000112165185800012497015736411711000000000320000022062021DEPOSITO                      1100000000000000dgarcia@gruposeri.com                  22062021AZUCENA SANDOVAL MAXIMINO                                                          
0410900        0000000000112165185800012528011599908871000000000320000022062021DEPOSITO                      1100000000000000dgarcia@gruposeri.com                  22062021MARTHA ARCELIA VAZQUEZ ORTEGA                                                      
0410940        0000000000112165185800012240026713413321000000000885000022062021DEPOSITO                      1100000000000000dgarcia@gruposeri.com                  22062021MARIA DEL CARMEN RANGEL RODRIGUEZ                                                  
0410956        0000000000112165185800012244015585823512000000000320000022062021DEPOSITO                      1100000000000000dgarcia@gruposeri.com                  22062021FRANCISCO TORRES CAUDILLO                                                          
0411052        0000000000112165185800012215027070391741000000000320000022062021DEPOSITO                      1100000000000000dgarcia@gruposeri.com                  22062021ELSA ELENA ESQUIVEL PICHARDO                                                       
0411119        0000000000112165185800012180015733343173000000000420000022062021DEPOSITO                      1100000000000000dgarcia@gruposeri.com                  22062021MARIA DE LOS ANGELES DIAZ JIMENEZ                                                  
0411128        0000000000112165185800012180015743075855000000000320000022062021DEPOSITO                      1100000000000000dgarcia@gruposeri.com                  22062021GLORIA LISETH HERNANDEZ CAYETANO                                                   
0411169        0000000000112165185800012227015053292485000000000420000022062021DEPOSITO                      1100000000000000dgarcia@gruposeri.com                  22062021MARCO ANTONIO LEDESMA HERNANDEZ                                                    
0411252        0000000000112165185800012180015859856094000000000420000022062021DEPOSITO                      1100000000000000dgarcia@gruposeri.com                  22062021CARLOS SILVA JIMENEZ                                                               
0411312        0000000000112165185800012528015021315637000000000320000022062021DEPOSITO                      1100000000000000dgarcia@gruposeri.com                  22062021ROSA HILDA WALDO HERRERA                                                           
0411389        0000000000112165185800012528029682177501000000001062000022062021DEPOSITO                      1100000000000000dgarcia@gruposeri.com                  22062021ANA ROSA PARDO GONZALEZ                                                            
0411396        0000000000112165185800012248004684477216000000000320000022062021DEPOSITO                      1100000000000000dgarcia@gruposeri.com                  22062021SUSANA VARGAS FLORES                                                               
0411427        0000000000112165185800012215015538378263000000000320000022062021DEPOSITO                      1100000000000000dgarcia@gruposeri.com                  22062021JORGE ALEJANDRO CAZARES MONTOYA                                                    
0411522        0000000000112165185800012476015205766824000000000320000022062021DEPOSITO                      1100000000000000dgarcia@gruposeri.com                  22062021MINERVA DEL CARMEN ESPINOZA GOMEZ                                                  
0410001        0000000000112165185800012244011301751532000000000320000022062021DEPOSITO                      1100000000000000dgarcia@gruposeri.com                  22062021SILVIA RAMIREZ GUTIERREZ                                                           
0410018        0000000000112165185800012320027504863614000000001420000022062021DEPOSITO                      1100000000000000dgarcia@gruposeri.com                  22062021ALEJANDRA YANETH FLORES SIFUENTES                                                  
0410058        0000000000112165185800012320028462929178000000000320000022062021DEPOSITO                      1100000000000000dgarcia@gruposeri.com                  22062021KALEP EFRAIN MATA ORTIZ                                                            
0410063        0000000000112165185800012498028396753025000000006420000022062021DEPOSITO                      1100000000000000dgarcia@gruposeri.com                  22062021RUBEN OMAR RAMIREZ CORREA                                                          
0410111        0000000000112165185800012375011609001840000000000420000022062021DEPOSITO                      1100000000000000dgarcia@gruposeri.com                  22062021IVONNE JAZMIN GONZALEZ HERNANDEZ                                                   
04901346       0000000000112165185800012320015849457124000000000320000022062021DEPOSITO                      1100000000000000dgarcia@gruposeri.com                  22062021BETZY YUNUEN BARRERA NUNEZ                                                         
0410116        0000000000112165185800014528605836248828000000000420000022062021DEPOSITO                      1100000000000000dgarcia@gruposeri.com                  22062021MARIO ALBERTO SANCHEZ MEJIA                                                        
0410068        0000000000112165185800014528605616372532000000001350000022062021DEPOSITO                      1100000000000000dgarcia@gruposeri.com                  22062021JORGE ALFREDO BUCIO BETANCOURT                                                     
0410061        0000000000112165185800014506605582812261000000000320000022062021DEPOSITO                      1100000000000000dgarcia@gruposeri.com                  22062021EDUARDO PEDRAZA CARPIO                                                             
0410545        0000000000112165185800014375605895869129000000000320000022062021DEPOSITO                      1100000000000000dgarcia@gruposeri.com                  22062021MERY ESTEFANIA MORFIN ANCIRA                                                       
0410791        0000000000112165185800014476605842451120000000000320000022062021DEPOSITO                      1100000000000000dgarcia@gruposeri.com                  22062021ALMA JANETH REYNA RUIZ                                                             
0410331        0000000000112165185800014528605882921720000000001170000022062021DEPOSITO                      1100000000000000dgarcia@gruposeri.com                  22062021JENNIFER VANESSA LARIOS PANTOJA                                                    
0411676        0000000000112165185800014320567806279707000000000420000022062021DEPOSITO                      1100000000000000dgarcia@gruposeri.com                  22062021VERONICA MARCELA VELAZQUEZ OLGUIN                                                  
0411901        0000000000112165185800014320606053084978000000001972800022062021DEPOSITO                      1100000000000000dgarcia@gruposeri.com                  22062021ANA GUADALUPE BAUTISTA DIAZ                                                        
0412024        0000000000112165185800014535567212994982000000000420000022062021DEPOSITO                      1100000000000000dgarcia@gruposeri.com                  22062021ESTELA PARDO OROZCO                                                                
04901319       0000000000112165185800014320606018802069000000000320000022062021DEPOSITO                      1100000000000000dgarcia@gruposeri.com                  22062021MARIA OLIVIER GARCIA MARTINEZ                                                      
04901836       0000000000112165185800014225606149500034000000001260000022062021DEPOSITO                      1100000000000000dgarcia@gruposeri.com                  22062021JESSICA DEL ROCIO PALOMINO VAZQUEZ                                                 
0420045        0000000000112165185800002434904359386462000000001300000022062021DEPOSITO                      1100000000000000dgarcia@gruposeri.com                  22062021ANA CECILIA ACEVEDO SANCHEZ                                                        
0420296        0000000000112165185800002276904081703539000000000891110022062021DEPOSITO                      1100000000000000dgarcia@gruposeri.com                  22062021GEYCEL CORAL CAMPOS GARCIA                                                         
0420298        0000000000112165185800002272902932328564000000000706680022062021DEPOSITO                      1100000000000000dgarcia@gruposeri.com                  22062021DOMINGA CANDIA SANTIAGO                                                            
0420344        0000000000112165185800002180901480143957000000000920000022062021DEPOSITO                      1100000000000000dgarcia@gruposeri.com                  22062021ADRIANA ALEJALDRE GUZMAN                                                           
0420780        0000000000112165185800002276903604633294000000000420000022062021DEPOSITO                      1100000000000000dgarcia@gruposeri.com                  22062021VICTOR MANUEL HERNANDEZ BAHENA                                                     
0420839        0000000000112165185800002420901082061278000000000920000022062021DEPOSITO                      1100000000000000dgarcia@gruposeri.com                  22062021MONICA SALAZAR MERCADO                                                             
0421011        0000000000112165185800002180902900186752000000000320000022062021DEPOSITO                      1100000000000000dgarcia@gruposeri.com                  22062021LUCIA CORONEL MONTERO                                                              
0421092        0000000000112165185800002542903655049888000000000320000022062021DEPOSITO                      1100000000000000dgarcia@gruposeri.com                  22062021NANCY ARAGON ANRRUBIO                                                              
0421114        0000000000112165185800002450901095795637000000000420000022062021DEPOSITO                      1100000000000000dgarcia@gruposeri.com                  22062021MARIA ISABEL CALVO RAMOS                                                           
0420542        0000000000112165185800002544904004818997000000000920000022062021DEPOSITO                      1100000000000000dgarcia@gruposeri.com                  22062021LOURDES DE LA CRUZ ESPINOZA                                                        
0420554        0000000000112165185800002180902188945922000000000420000022062021DEPOSITO                      1100000000000000dgarcia@gruposeri.com                  22062021OLIVIA LOPEZ HERNANDEZ                                                             
0421226        0000000000112165185800002180903749261277000000000024360022062021DEPOSITO                      1100000000000000dgarcia@gruposeri.com                  22062021JUAN CARLOS ONOFRE SUAREZ                                                          
0421389        0000000000112165185800002430902736161196000000000420000022062021DEPOSITO                      1100000000000000dgarcia@gruposeri.com                  22062021VICTOR GONZALEZ GUTIERREZ                                                          
0421738        0000000000112165185800002542903915002222000000000320000022062021DEPOSITO                      1100000000000000dgarcia@gruposeri.com                  22062021OSWALDO SALDIVAR PINEDA                                                            
0422046        0000000000112165185800002276903807994471000000000320000022062021DEPOSITO                      1100000000000000dgarcia@gruposeri.com                  22062021FRANCISCA MENDOZA DOMINGUEZ                                                        
0422182        0000000000112165185800002180701562652825000000002841000022062021DEPOSITO                      1100000000000000dgarcia@gruposeri.com                  22062021SANDRA CERVANTES LOPEZ                                                             
0422719        0000000000112165185800002545904021425443000000000279110022062021DEPOSITO                      1100000000000000dgarcia@gruposeri.com                  22062021ALEJANDRA GARCIA JIMENEZ                                                           
0422742        0000000000112165185800002542904270539293000000000320000022062021DEPOSITO                      1100000000000000dgarcia@gruposeri.com                  22062021ELVIA ZAMORA PEDROTTI                                                              
0422744        0000000000112165185800002450701450872340000000000320000022062021DEPOSITO                      1100000000000000dgarcia@gruposeri.com                  22062021ALMA EDITH LUVIANOS ARRIAGA                                                        
0422782        0000000000112165185800002180904075361099000000000320000022062021DEPOSITO                      1100000000000000dgarcia@gruposeri.com                  22062021MARIA EUGENIA GARCIA GOMEZ                                                         
0422874        0000000000112165185800002420901464836652000000000420000022062021DEPOSITO                      1100000000000000dgarcia@gruposeri.com                  22062021GABRIEL CAMPOS SOLIS                                                               
0422978        0000000000112165185800002441904099406598000000000420000022062021DEPOSITO                      1100000000000000dgarcia@gruposeri.com                  22062021PEDRO ALONSO LOPEZ AVILES                                                          
0422984        0000000000112165185800002424904433557813000000000320000022062021DEPOSITO                      1100000000000000dgarcia@gruposeri.com                  22062021ALEXIS SUAREZ FLORES                                                               
0422998        0000000000112165185800002276904336359722000000000420000022062021DEPOSITO                      1100000000000000dgarcia@gruposeri.com                  22062021KARINA JIMENEZ DIAZ                                                                
0423009        0000000000112165185800002435904337719652000000000420000022062021DEPOSITO                      1100000000000000dgarcia@gruposeri.com                  22062021WENDOLYNE JOVANA CRUZ BARRERA                                                      
0423155        0000000000112165185800002540904349789549000000001215480022062021DEPOSITO                      1100000000000000dgarcia@gruposeri.com                  22062021MARIA LUISA ACEVEDO SERRANO                                                        
0429506        0000000000112165185800002542903832535937000000000420000022062021DEPOSITO                      1100000000000000dgarcia@gruposeri.com                  22062021JONATHAN LOPEZ VARGAS                                                              
0429515        0000000000112165185800002272904296392111000000000320000022062021DEPOSITO                      1100000000000000dgarcia@gruposeri.com                  22062021JUAN ANTONIO PAEZ JUAREZ                                                           
0438601        0000000000112165185800002457904474562643000000000320000022062021DEPOSITO                      1100000000000000dgarcia@gruposeri.com                  22062021JAVIER FLORES DE PAZ                                                               
04901047       0000000000112165185800002180901733992693000000000320000022062021DEPOSITO                      1100000000000000dgarcia@gruposeri.com                  22062021JOSUE ISAI ROMERO PAVON                                                            
04902273       0000000000112165185800002544904364967368000000000320000022062021DEPOSITO                      1100000000000000dgarcia@gruposeri.com                  22062021ROSA ELENA ESTRADA MIRANDA                                                         
04902284       0000000000112165185800002546903994485727000000000420000022062021DEPOSITO                      1100000000000000dgarcia@gruposeri.com                  22062021SONIA ARACELI VALDES SANTOS                                                        
04902845       0000000000112165185800002435904517123055000000001591000022062021DEPOSITO                      1100000000000000dgarcia@gruposeri.com                  22062021ADRIANA CRUZ DOMINGUEZ                                                             
04903542       0000000000112165185800002441904460904360000000000386670022062021DEPOSITO                      1100000000000000dgarcia@gruposeri.com                  22062021VICTOR HUGO GUTIERREZ VEGA                                                         
04904355       0000000000112165185800002180904370225335000000000386670022062021DEPOSITO                      1100000000000000dgarcia@gruposeri.com                  22062021MIGUEL ANGEL FLORES DIAZ                                                           
04904378       0000000000112165185800012180015914228910000000000320000022062021DEPOSITO                      1100000000000000dgarcia@gruposeri.com                  22062021AURORA CUERO MEJIA                                                                 
04904156       0000000000112165185800012180015395399921000000000320000022062021DEPOSITO                      1100000000000000dgarcia@gruposeri.com                  22062021IRENE HILARIO MENDEZ                                                               
04904293       0000000000112165185800012180015762602021000000000320000022062021DEPOSITO                      1100000000000000dgarcia@gruposeri.com                  22062021MISAEL BARRETO FLORES                                                              
0422513        0000000000112165185800012450015031186173000000000420000022062021DEPOSITO                      1100000000000000dgarcia@gruposeri.com                  22062021ADRIANA MARTINEZ CERON                                                             
0429678        0000000000112165185800012180014443422916000000001420000022062021DEPOSITO                      1100000000000000dgarcia@gruposeri.com                  22062021MIGUEL ANGEL DE LA LUZ OROZCO                                                      
04903752       0000000000112165185800012438027689444662000000000420000022062021DEPOSITO                      1100000000000000dgarcia@gruposeri.com                  22062021JUANA SALAZAR BRAVO                                                                
04903802       0000000000112165185800012180015325396240000000000320000022062021DEPOSITO                      1100000000000000dgarcia@gruposeri.com                  22062021JOSE ANTONIO VILLALBA VAZQUEZ                                                      
04903853       0000000000112165185800012180004568931716000000000420000022062021DEPOSITO                      1100000000000000dgarcia@gruposeri.com                  22062021MARIO ALBERTO SANDOVAL REYES                                                       
04903857       0000000000112165185800012420004626963551000000000320000022062021DEPOSITO                      1100000000000000dgarcia@gruposeri.com                  22062021GUADALUPE DIANA MARTINEZ QUINTERO                                                  
04903901       0000000000112165185800012180015968131121000000000319830022062021DEPOSITO                      1100000000000000dgarcia@gruposeri.com                  22062021KAROL LILY CRUZ QUINTAS                                                            
04902985       0000000000112165185800012180015031956165000000000320000022062021DEPOSITO                      1100000000000000dgarcia@gruposeri.com                  22062021DOLORES AZUCENA ESMERALDA GONZALEZ VARGAS                                          
04903107       0000000000112165185800012180015227210550000000000320000022062021DEPOSITO                      1100000000000000dgarcia@gruposeri.com                  22062021VALENTINA DE LOS ANGELES BLASS MAYA                                                
04903457       0000000000112165185800012180015725530185000000000320000022062021DEPOSITO                      1100000000000000dgarcia@gruposeri.com                  22062021SAMIR BARRETO TORRES                                                               
04903468       0000000000112165185800012180015215633071000000000320000022062021DEPOSITO                      1100000000000000dgarcia@gruposeri.com                  22062021JESSICA CORTES CAMACHO                                                             
04902486       0000000000112165185800012420029215148225000000000320000022062021DEPOSITO                      1100000000000000dgarcia@gruposeri.com                  22062021ADRIANA LEDEZMA HERNANDEZ                                                          
04902725       0000000000112165185800012180015720936292000000000420000022062021DEPOSITO                      1100000000000000dgarcia@gruposeri.com                  22062021SAUL ALEJANDRO GARCIA RAMIREZ                                                      
04902795       0000000000112165185800012420015768938750000000000420000022062021DEPOSITO                      1100000000000000dgarcia@gruposeri.com                  22062021NORMA ANGELICA GONZALEZ GARCIA                                                     
04901130       0000000000112165185800012180015896365470000000000320000022062021DEPOSITO                      1100000000000000dgarcia@gruposeri.com                  22062021JESSICA BRIONES LOPEZ                                                              
04901269       0000000000112165185800012444015706252801000000000420000022062021DEPOSITO                      1100000000000000dgarcia@gruposeri.com                  22062021OSCAR ALVAREZ MARTINEZ                                                             
04901511       0000000000112165185800012540015673427485000000000320000022062021DEPOSITO                      1100000000000000dgarcia@gruposeri.com                  22062021MARISOL PASCUAL SANCHEZ                                                            
04901681       0000000000112165185800012442015388249247000000000420000022062021DEPOSITO                      1100000000000000dgarcia@gruposeri.com                  22062021CHRISTIAN MARTINEZ CORTINA                                                         
04901723       0000000000112165185800012276015774105064000000000320000022062021DEPOSITO                      1100000000000000dgarcia@gruposeri.com                  22062021JOSE GUILLERMO MOTA ALCANTARA                                                      
04901762       0000000000112165185800012180015244611268000000000420000022062021DEPOSITO                      1100000000000000dgarcia@gruposeri.com                  22062021VICTOR SALAZAR CANOVAS                                                             
04901901       0000000000112165185800012420015829613341000000000420000022062021DEPOSITO                      1100000000000000dgarcia@gruposeri.com                  22062021CESAR URIEL GARCIA CARRILLO                                                        
0429523        0000000000112165185800012438015758515081000000000320000022062021DEPOSITO                      1100000000000000dgarcia@gruposeri.com                  22062021LUCERO LOPEZ BENITEZ                                                               
0429559        0000000000112165185800012545011178299735000000000320000022062021DEPOSITO                      1100000000000000dgarcia@gruposeri.com                  22062021CARLOS MARTINEZ POPOCA                                                             
0429628        0000000000112165185800012180015952150927000000000320000022062021DEPOSITO                      1100000000000000dgarcia@gruposeri.com                  22062021CANDY ESTHER MONDRAGON HERNANDEZ                                                   
0429629        0000000000112165185800012180015109259260000000000301410022062021DEPOSITO                      1100000000000000dgarcia@gruposeri.com                  22062021CLAUDIA PAREDES ALBARRAN                                                           
0429647        0000000000112165185800012180015049657333000000000334630022062021DEPOSITO                      1100000000000000dgarcia@gruposeri.com                  22062021MIREYA NICOLAS ANICETO                                                             
0429656        0000000000112165185800012180015207933488000000000420000022062021DEPOSITO                      1100000000000000dgarcia@gruposeri.com                  22062021VICTOR GABRIEL BAEZ REZA                                                           
0429662        0000000000112165185800012424015242535581000000000320000022062021DEPOSITO                      1100000000000000dgarcia@gruposeri.com                  22062021ERIKA QUIROZ GALICIA                                                               
0429512        0000000000112165185800012180015470223954000000000420000022062021DEPOSITO                      1100000000000000dgarcia@gruposeri.com                  22062021LUIS OMAR ARROYO DIAZ                                                              
0429494        0000000000112165185800012420028965869884000000000420000022062021DEPOSITO                      1100000000000000dgarcia@gruposeri.com                  22062021DAVID RIVERO GARCIA                                                                
0429502        0000000000112165185800012180015390059978000000000320000022062021DEPOSITO                      1100000000000000dgarcia@gruposeri.com                  22062021HUMBERTO CHAVEZ GONZALEZ                                                           
0423163        0000000000112165185800012180015112559863000000000320000022062021DEPOSITO                      1100000000000000dgarcia@gruposeri.com                  22062021JORGE PEREZ MONTIEL                                                                
0423119        0000000000112165185800012180015605171033000000000320000022062021DEPOSITO                      1100000000000000dgarcia@gruposeri.com                  22062021DAVID MARTINEZ TRUJANO                                                             
0423145        0000000000112165185800012420015885607841000000000320000022062021DEPOSITO                      1100000000000000dgarcia@gruposeri.com                  22062021BLANCA MONICA FRUTIS RAMIREZ                                                       
0423012        0000000000112165185800012180015772325466000000000320000022062021DEPOSITO                      1100000000000000dgarcia@gruposeri.com                  22062021RICARDA HERNANDEZ VILLEGAS                                                         
0423021        0000000000112165185800012426015783421835000000000420000022062021DEPOSITO                      1100000000000000dgarcia@gruposeri.com                  22062021JUAN ANTONIO MARTINEZ NIETO                                                        
0423065        0000000000112165185800012180015678940233000000000320000022062021DEPOSITO                      1100000000000000dgarcia@gruposeri.com                  22062021VICTOR HUGO DIAZ YANEZ                                                             
0423076        0000000000112165185800012180015525842400000000000420000022062021DEPOSITO                      1100000000000000dgarcia@gruposeri.com                  22062021EDUARDO ESCALONA LOZOYA                                                            
0423101        0000000000112165185800012544015668100072000000000320000022062021DEPOSITO                      1100000000000000dgarcia@gruposeri.com                  22062021NELIDA ESLAVA GARCIA                                                               
0422882        0000000000112165185800012457029376911306000000000293330022062021DEPOSITO                      1100000000000000dgarcia@gruposeri.com                  22062021ROBERTO RUIZ CORTES                                                                
0422887        0000000000112165185800012457015773123507000000000320000022062021DEPOSITO                      1100000000000000dgarcia@gruposeri.com                  22062021YANIN KENIA GARCIA ALMAZAN                                                         
0422933        0000000000112165185800012290015811411710000000000320000022062021DEPOSITO                      1100000000000000dgarcia@gruposeri.com                  22062021PAOLA ANAIS GUERRERO JIMENEZ                                                       
0422934        0000000000112165185800012180015315182192000000001808000022062021DEPOSITO                      1100000000000000dgarcia@gruposeri.com                  22062021ANA MARIA LOPEZ RODRIGUEZ                                                          
0422955        0000000000112165185800012540029820108954000000000106670022062021DEPOSITO                      1100000000000000dgarcia@gruposeri.com                  22062021CELSO JORGE DERRAMONA PRADO                                                        
0422960        0000000000112165185800012180015741390736000000000420000022062021DEPOSITO                      1100000000000000dgarcia@gruposeri.com                  22062021JOSE OSVALDO ALONSO AGUILAR                                                        
0422974        0000000000112165185800012540015282789970000000000320000022062021DEPOSITO                      1100000000000000dgarcia@gruposeri.com                  22062021DELIA ARMAS CERON                                                                  
0422817        0000000000112165185800012180015429112728000000000420000022062021DEPOSITO                      1100000000000000dgarcia@gruposeri.com                  22062021DELFINO CRUZ ISIDORO                                                               
0422850        0000000000112165185800012180015537581416000000000320000022062021DEPOSITO                      1100000000000000dgarcia@gruposeri.com                  22062021CESAR ARTURO VELAZQUEZ NUNEZ                                                       
0422340        0000000000112165185800012447015483461941000000000320000022062021DEPOSITO                      1100000000000000dgarcia@gruposeri.com                  22062021REBECA CRUZ POSADAS                                                                
0422465        0000000000112165185800012542015216213038000000000420000022062021DEPOSITO                      1100000000000000dgarcia@gruposeri.com                  22062021ERIKA DIRCIO VELAZQUEZ                                                             
0422496        0000000000112165185800012180015269947849000000000420000022062021DEPOSITO                      1100000000000000dgarcia@gruposeri.com                  22062021ERNESTO VAZQUEZ MARTINEZ                                                           
0422522        0000000000112165185800012694012579834416000000000420000022062021DEPOSITO                      1100000000000000dgarcia@gruposeri.com                  22062021DANNY DAICY DE LA ROSA RAMIREZ                                                     
0422600        0000000000112165185800012180015309214018000000001491000022062021DEPOSITO                      1100000000000000dgarcia@gruposeri.com                  22062021LILIAN MARILY HERNANDEZ ALCALA                                                     
0422664        0000000000112165185800012180015009233975000000001210500022062021DEPOSITO                      1100000000000000dgarcia@gruposeri.com                  22062021JUAN CARLOS RODRIGUEZ MARTINEZ                                                     
0422716        0000000000112165185800012180015156955067000000000320000022062021DEPOSITO                      1100000000000000dgarcia@gruposeri.com                  22062021CRISTIAN ISAAC MATEOS LOPEZ                                                        
0422201        0000000000112165185800012180015092805857000000000420000022062021DEPOSITO                      1100000000000000dgarcia@gruposeri.com                  22062021WUILIAN JOVANI GARCIA BAUTISTA                                                     
0422065        0000000000112165185800012180015227427835000000000420000022062021DEPOSITO                      1100000000000000dgarcia@gruposeri.com                  22062021BRAULIO GUZMAN JIMENEZ                                                             
0422122        0000000000112165185800012180028643528156000000000320000022062021DEPOSITO                      1100000000000000dgarcia@gruposeri.com                  22062021CARLOS RAYON ZAMORA                                                                
0421930        0000000000112165185800012544015012927429000000000320000022062021DEPOSITO                      1100000000000000dgarcia@gruposeri.com                  22062021SUEE PERAL ESTUDILLO ALUCEMA                                                       
0421947        0000000000112165185800012180011728167410000000000420000022062021DEPOSITO                      1100000000000000dgarcia@gruposeri.com                  22062021ARMANDO LOPEZ BENIGNO                                                              
0421965        0000000000112165185800012180015576101734000000000320000022062021DEPOSITO                      1100000000000000dgarcia@gruposeri.com                  22062021JOSE ALFREDO HERNANDEZ GONZALEZ                                                    
0422007        0000000000112165185800012540015006571005000000000320000022062021DEPOSITO                      1100000000000000dgarcia@gruposeri.com                  22062021CARMEN OYUKY ARQUIETA MORALES                                                      
0421550        0000000000112165185800012272015487166255000000000420000022062021DEPOSITO                      1100000000000000dgarcia@gruposeri.com                  22062021LUCIA RODRIGUEZ SANCHEZ                                                            
0421322        0000000000112165185800012542015281887266000000009920000022062021DEPOSITO                      1100000000000000dgarcia@gruposeri.com                  22062021MYRNA VALDEZ SALAMANCA                                                             
0420713        0000000000112165185800012420029287869095000000000920000022062021DEPOSITO                      1100000000000000dgarcia@gruposeri.com                  22062021JESUS JEOVANY RUIZ RAMIREZ                                                         
0421122        0000000000112165185800012180015632119084000000001073500022062021DEPOSITO                      1100000000000000dgarcia@gruposeri.com                  22062021SHEIRAN NETTEL CARMONA                                                             
0421186        0000000000112165185800012424029270898134000000000420000022062021DEPOSITO                      1100000000000000dgarcia@gruposeri.com                  22062021JESUS SALVADOR CONSTANTINO CASTRILLO                                               
0420904        0000000000112165185800012180014654722968000000000320000022062021DEPOSITO                      1100000000000000dgarcia@gruposeri.com                  22062021MARIBEL LOPEZ CASTANEDA                                                            
0420906        0000000000112165185800012180015801511170000000000420000022062021DEPOSITO                      1100000000000000dgarcia@gruposeri.com                  22062021BORIS DANIEL SEGURA HERNANDEZ                                                      
0420976        0000000000112165185800012276015343887043000000000420000022062021DEPOSITO                      1100000000000000dgarcia@gruposeri.com                  22062021MONICA NATHALY GARCIA VALLADARES                                                   
0420983        0000000000112165185800012272004587173625000000000420000022062021DEPOSITO                      1100000000000000dgarcia@gruposeri.com                  22062021RAFAEL ANTONIO ACOSTA CONTRERAS                                                    
0420384        0000000000112165185800012180015969010458000000002439200022062021DEPOSITO                      1100000000000000dgarcia@gruposeri.com                  22062021ANA CRISTINA ZUNIGA VICENTE                                                        
0420397        0000000000112165185800012549015173177320000000001114020022062021DEPOSITO                      1100000000000000dgarcia@gruposeri.com                  22062021EDITH MALDONADO RAMIREZ                                                            
0420428        0000000000112165185800012541011720933919000000000812080022062021DEPOSITO                      1100000000000000dgarcia@gruposeri.com                  22062021JOSE MANUEL LOPEZ OLMEDO                                                           
0420539        0000000000112165185800012545004549809994000000000320000022062021DEPOSITO                      1100000000000000dgarcia@gruposeri.com                  22062021JAIRO YAEL LOPEZ REYES                                                             
0420301        0000000000112165185800012272015273930323000000002057630022062021DEPOSITO                      1100000000000000dgarcia@gruposeri.com                  22062021ROSA DELIA MENDOZA ANTONIO                                                         
0420309        0000000000112165185800012180004680656597000000000420000022062021DEPOSITO                      1100000000000000dgarcia@gruposeri.com                  22062021MA INES JUAREZ PALMA                                                               
0420338        0000000000112165185800012276015287046270000000000670000022062021DEPOSITO                      1100000000000000dgarcia@gruposeri.com                  22062021YESSICA JUDITH URCINO MATIAS                                                       
0420083        0000000000112165185800012420029951206324000000006594000022062021DEPOSITO                      1100000000000000dgarcia@gruposeri.com                  22062021MOISES EDUARDO MORENO GARDUNO                                                      
0420087        0000000000112165185800012180029612785411000000006971000022062021DEPOSITO                      1100000000000000dgarcia@gruposeri.com                  22062021MOISES ORTEGA BERNAL                                                               
0420090        0000000000112165185800012450015149981707000000006971000022062021DEPOSITO                      1100000000000000dgarcia@gruposeri.com                  22062021ELVIA JAQUELINNE PINA DIAZ                                                         
0420096        0000000000112165185800012180014379130288000000001020000022062021DEPOSITO                      1100000000000000dgarcia@gruposeri.com                  22062021FERNANDO TAPIA MATEOS                                                              
0420105        0000000000112165185800012180027671385980000000006420000022062021DEPOSITO                      1100000000000000dgarcia@gruposeri.com                  22062021DAVID PICHARDO GONZALEZ                                                            
0420128        0000000000112165185800012180029742300436000000000420000022062021DEPOSITO                      1100000000000000dgarcia@gruposeri.com                  22062021MARGARITA MELECIO GARCIA                                                           
0420131        0000000000112165185800012180029601818629000000000520000022062021DEPOSITO                      1100000000000000dgarcia@gruposeri.com                  22062021ROCIO REYES LOPEZ                                                                  
0420139        0000000000112165185800012180029681275062000000000420000022062021DEPOSITO                      1100000000000000dgarcia@gruposeri.com                  22062021GRISELDA VILLEGAS BECERRIL                                                         
0420288        0000000000112165185800012276004661803024000000002391830022062021DEPOSITO                      1100000000000000dgarcia@gruposeri.com                  22062021MA ARACELI FIGUEROA NUNEZ                                                          
0420026        0000000000112165185800012542029740904469000000001529650022062021DEPOSITO                      1100000000000000dgarcia@gruposeri.com                  22062021NANCY MARISOL GONZALEZ ZAMORA                                                      
0420063        0000000000112165185800012441029460376821000000000920000022062021DEPOSITO                      1100000000000000dgarcia@gruposeri.com                  22062021MIGUEL ANGEL GARDUNO ESQUIVEL                                                      
0420066        0000000000112165185800014426605611940016000000000800000022062021DEPOSITO                      1100000000000000dgarcia@gruposeri.com                  22062021JOSE ALBERTO GONZALEZ RODRIGUEZ                                                    
0420067        0000000000112165185800014180605482037876000000000145040022062021DEPOSITO                      1100000000000000dgarcia@gruposeri.com                  22062021YAEL ARLET HERNANDEZ PLATA                                                         
0420074        0000000000112165185800014420605518305158000000006852380022062021DEPOSITO                      1100000000000000dgarcia@gruposeri.com                  22062021DAVID MALVAIS TARANGO                                                              
0420076        0000000000112165185800014426566431837011000000001349600022062021DEPOSITO                      1100000000000000dgarcia@gruposeri.com                  22062021OSCAR MARTINEZ LOPEZ                                                               
0420078        0000000000112165185800014420605550467041000000000420000022062021DEPOSITO                      1100000000000000dgarcia@gruposeri.com                  22062021JUAN ANTONIO MEJIA NAPOLES                                                         
0420081        0000000000112165185800014453605688019697000000000420000022062021DEPOSITO                      1100000000000000dgarcia@gruposeri.com                  22062021SUSANA MORALES CORONA                                                              
0420082        0000000000112165185800014427566432043052000000001300000022062021DEPOSITO                      1100000000000000dgarcia@gruposeri.com                  22062021JUAN RAFAEL MORENO DE LA ROSA                                                      
0420036        0000000000112165185800014542605587216538000000000750000022062021DEPOSITO                      1100000000000000dgarcia@gruposeri.com                  22062021VERONICA TENORIO ESCOBAR                                                           
0420038        0000000000112165185800014542605691035553000000000920000022062021DEPOSITO                      1100000000000000dgarcia@gruposeri.com                  22062021ROSA MARIA YAZMIN ZEPEDA ORTIZ                                                     
0420043        0000000000112165185800014272605666767744000000000700000022062021DEPOSITO                      1100000000000000dgarcia@gruposeri.com                  22062021AURELIO MERCADO CHACON                                                             
0420022        0000000000112165185800014544566269228732000000000600000022062021DEPOSITO                      1100000000000000dgarcia@gruposeri.com                  22062021LIDIA RUTH DIEGUEZ MONTES                                                          
0420293        0000000000112165185800014272606090710036000000000504480022062021DEPOSITO                      1100000000000000dgarcia@gruposeri.com                  22062021YESICA YASMIN ALVAREZ FERNANDEZ                                                    
0420106        0000000000112165185800014427566432039862000000000420000022062021DEPOSITO                      1100000000000000dgarcia@gruposeri.com                  22062021FIDENCIO QUINTANA GONZALEZ                                                         
0420107        0000000000112165185800014427566431840984000000006594000022062021DEPOSITO                      1100000000000000dgarcia@gruposeri.com                  22062021ADEMAR DAVILA DAVILA                                                               
0420109        0000000000112165185800014426605727185312000000000920000022062021DEPOSITO                      1100000000000000dgarcia@gruposeri.com                  22062021JOSE IGNACIO GARCIA ANGELES                                                        
0420099        0000000000112165185800014427566286643378000000003070000022062021DEPOSITO                      1100000000000000dgarcia@gruposeri.com                  22062021MIGUEL ANGEL VELASQUEZ LUVIANOS                                                    
0420088        0000000000112165185800014453566286642945000000001749780022062021DEPOSITO                      1100000000000000dgarcia@gruposeri.com                  22062021MARIA ISABEL PATINO NOYOLA                                                         
0420084        0000000000112165185800014427605572377497000000002220000022062021DEPOSITO                      1100000000000000dgarcia@gruposeri.com                  22062021JORGE NEGRETE ORTEGA                                                               
0420086        0000000000112165185800014180566269511447000000005920000022062021DEPOSITO                      1100000000000000dgarcia@gruposeri.com                  22062021MARIA DEL ROSARIO OCHOA PANTOJA                                                    
0420046        0000000000112165185800014180605700816973000000000420000022062021DEPOSITO                      1100000000000000dgarcia@gruposeri.com                  22062021ARTURO BAUTISTA LIRA                                                               
0420049        0000000000112165185800014427566286643404000000000950000022062021DEPOSITO                      1100000000000000dgarcia@gruposeri.com                  22062021VALERIA CARRILLO ROSALES                                                           
0421581        0000000000112165185800014540605463450517000000000420000022062021DEPOSITO                      1100000000000000dgarcia@gruposeri.com                  22062021JAFET ISAAC YAHUITL HERNANDEZ                                                      
0421727        0000000000112165185800014426566626800439000000000420000022062021DEPOSITO                      1100000000000000dgarcia@gruposeri.com                  22062021LUIS ANTONIO PASCUAL CAYO                                                          
0422314        0000000000112165185800014272606085596757000000000320000022062021DEPOSITO                      1100000000000000dgarcia@gruposeri.com                  22062021EPIFANIO HERNANDEZ ALVAREZ                                                         
0423116        0000000000112165185800014427567725068905000000000320000022062021DEPOSITO                      1100000000000000dgarcia@gruposeri.com                  22062021ELIZABETH CASTANEDA PADILLA                                                        
0423211        0000000000112165185800014427605992555873000000000420000022062021DEPOSITO                      1100000000000000dgarcia@gruposeri.com                  22062021CHRISTIAN BOBADILLA HERNANDEZ                                                      
0429631        0000000000112165185800014426566432036824000000000420000022062021DEPOSITO                      1100000000000000dgarcia@gruposeri.com                  22062021CESAR RAMIREZ MATIAS                                                               
0429597        0000000000112165185800014540566865321053000000000320000022062021DEPOSITO                      1100000000000000dgarcia@gruposeri.com                  22062021JHONATHAN DANIEL BAHENA CASTELAR                                                   
04902352       0000000000112165185800014420606076800013000000000320000022062021DEPOSITO                      1100000000000000dgarcia@gruposeri.com                  22062021VERONICA FLORES ALPIZAR                                                            
04904354       0000000000112165185800014426200118342729000000000420000022062021DEPOSITO                      1100000000000000dgarcia@gruposeri.com                  22062021DALIA GUADALUPE GARCIA MARTINEZ                                                    
0430261        0000000000112165185800002190903759277555000000000320000022062021DEPOSITO                      1100000000000000dgarcia@gruposeri.com                  22062021BEATRIZ ADRIANA SERRANO LEYVA                                                      
0430028        0000000000112165185800002260904340050858000000002275020022062021DEPOSITO                      1100000000000000dgarcia@gruposeri.com                  22062021ANA MARIA TRUJILLO FIGUEROA                                                        
0430708        0000000000112165185800002650701508388683000000000420000022062021DEPOSITO                      1100000000000000dgarcia@gruposeri.com                  22062021JOVITA FLORES NAVARRETE                                                            
0430786        0000000000112165185800002275700881371573000000000320000022062021DEPOSITO                      1100000000000000dgarcia@gruposeri.com                  22062021MARIANO PARRA RAMIREZ                                                              
0430310        0000000000112165185800002260901128341753000000000320000022062021DEPOSITO                      1100000000000000dgarcia@gruposeri.com                  22062021NEOPOLDO OJEDA DEL MORAL                                                           
0430899        0000000000112165185800002281903886027150000000000420000022062021DEPOSITO                      1100000000000000dgarcia@gruposeri.com                  22062021JANET LEON SEGURA                                                                  
0430775        0000000000112165185800002060902921051410000000000420000022062021DEPOSITO                      1100000000000000dgarcia@gruposeri.com                  22062021ANA VELIA RODRIGUEZ OLAGUE                                                         
0430928        0000000000112165185800002668701280623250000000000920000022062021DEPOSITO                      1100000000000000dgarcia@gruposeri.com                  22062021ESTEVAN MIRANDA PORTAL                                                             
0493519        0000000000112165185800002453904276376455000000000320000022062021DEPOSITO                      1100000000000000dgarcia@gruposeri.com                  22062021LUIS JOSE SOLANO VEGA                                                              
0430953        0000000000112165185800002060902983046421000000000320000022062021DEPOSITO                      1100000000000000dgarcia@gruposeri.com                  22062021SANJUANA MARICELA SANCHEZ VILLARREAL                                               
0430957        0000000000112165185800002672903939412852000000000320000022062021DEPOSITO                      1100000000000000dgarcia@gruposeri.com                  22062021KARLA EYAMIN TOLEDO MORENO                                                         
0430941        0000000000112165185800012670029949016813000000000320000022062021DEPOSITO                      1100000000000000dgarcia@gruposeri.com                  22062021JORGE ALBERTO PEREZ ORDAZ                                                          
04902323       0000000000112165185800012180015160802753000000000420000022062021DEPOSITO                      1100000000000000dgarcia@gruposeri.com                  22062021JOSE ALEJANDRO LOZADA HESPERIDES                                                   
04902445       0000000000112165185800012672015430754353000000000320000022062021DEPOSITO                      1100000000000000dgarcia@gruposeri.com                  22062021MARTIN AGUILAR AGUILAR                                                             
04902956       0000000000112165185800012662029801658754000000000320000022062021DEPOSITO                      1100000000000000dgarcia@gruposeri.com                  22062021LUIS ENRIQUE CILIA CASTILLO                                                        
0430930        0000000000112165185800012675015105558687000000000320000022062021DEPOSITO                      1100000000000000dgarcia@gruposeri.com                  22062021FERNANDO MEJIA GARCIA                                                              
0430779        0000000000112165185800012672029173665821000000000420000022062021DEPOSITO                      1100000000000000dgarcia@gruposeri.com                  22062021VICTOR ALFONSO MORENO VELASCO                                                      
0430908        0000000000112165185800012671015100479228000000000320000022062021DEPOSITO                      1100000000000000dgarcia@gruposeri.com                  22062021MARIA DEL CARMEN MARTINEZ OROZCO                                                   
0430911        0000000000112165185800012068015181610143000000002024820022062021DEPOSITO                      1100000000000000dgarcia@gruposeri.com                  22062021ZULEMA GUADALUPE SILVA CABRERA                                                     
0430915        0000000000112165185800012660015776497739000000000420000022062021DEPOSITO                      1100000000000000dgarcia@gruposeri.com                  22062021EDGAR RAMOS ROMERO                                                                 
0430926        0000000000112165185800012180015268708597000000000420000022062021DEPOSITO                      1100000000000000dgarcia@gruposeri.com                  22062021JOSE ROGELIO ZAVALETA MENDEZ                                                       
0430362        0000000000112165185800012281015216950610000000000420000022062021DEPOSITO                      1100000000000000dgarcia@gruposeri.com                  22062021CESAR FLORES PINEDA                                                                
0430375        0000000000112165185800012673015669607908000000000420000022062021DEPOSITO                      1100000000000000dgarcia@gruposeri.com                  22062021YENNY VARGAS CASTELAN                                                              
0430608        0000000000112165185800012190015124586869000000000320000022062021DEPOSITO                      1100000000000000dgarcia@gruposeri.com                  22062021NELIDA YANETH PARRA LANDEROS                                                       
0430620        0000000000112165185800012180015259099024000000000420000022062021DEPOSITO                      1100000000000000dgarcia@gruposeri.com                  22062021ROLANDO GOMEZ REYES                                                                
0430660        0000000000112165185800012650015702613351000000000420000022062021DEPOSITO                      1100000000000000dgarcia@gruposeri.com                  22062021JAIME ALVAREZ MOLINA                                                               
0430681        0000000000112165185800012281015411397900000000000420000022062021DEPOSITO                      1100000000000000dgarcia@gruposeri.com                  22062021ERIKA PEREZ JUAREZ                                                                 
0430688        0000000000112165185800012654029888634314000000000320000022062021DEPOSITO                      1100000000000000dgarcia@gruposeri.com                  22062021DANIEL BALTAZAR ORTIZ                                                              
0430815        0000000000112165185800012320015821056831000000001270000022062021DEPOSITO                      1100000000000000dgarcia@gruposeri.com                  22062021MARIA CECILIA CAZARES ESQUIVEL                                                     
0430878        0000000000112165185800012060015700864608000000000320000022062021DEPOSITO                      1100000000000000dgarcia@gruposeri.com                  22062021ELSA CLEMENTINA CALDERON BUSTILLOS                                                 
0430889        0000000000112165185800012180015885666779000000001233700022062021DEPOSITO                      1100000000000000dgarcia@gruposeri.com                  22062021VERONICA IVETE CARRILLO MOLINA                                                     
0430773        0000000000112165185800012180015102942545000000000320000022062021DEPOSITO                      1100000000000000dgarcia@gruposeri.com                  22062021ELIZABETH FLORES RIOS                                                              
0430079        0000000000112165185800012281029750896705000000003002000022062021DEPOSITO                      1100000000000000dgarcia@gruposeri.com                  22062021FERMIN OLIVARES HERNANDEZ                                                          
0430230        0000000000112165185800012675015379638744000000000320000022062021DEPOSITO                      1100000000000000dgarcia@gruposeri.com                  22062021JONAS MORA CRUZ                                                                    
0430254        0000000000112165185800012190015349299423000000000320000022062021DEPOSITO                      1100000000000000dgarcia@gruposeri.com                  22062021LAURA MAYELA PUENTES SANDOVAL                                                      
0418556        0000000000112165185800012672011630252921000000000670000022062021DEPOSITO                      1100000000000000dgarcia@gruposeri.com                  22062021LUIS ANGEL ANTONIO TETEL                                                           
0427248        0000000000112165185800012671015406446874000000000320000022062021DEPOSITO                      1100000000000000dgarcia@gruposeri.com                  22062021GERARDO HERNANDEZ PEREZ                                                            
0430962        0000000000112165185800012671029194664365000000000420000022062021DEPOSITO                      1100000000000000dgarcia@gruposeri.com                  22062021JOSE ESTANISLAO SANCHEZ CASTILLO                                                   
04904044       0000000000112165185800012420015209339481000000000320000022062021DEPOSITO                      1100000000000000dgarcia@gruposeri.com                  22062021FRANCISCO JAVIER PEREZ MACARENO                                                    
0430267        0000000000112165185800014180565303076276000000000382290022062021DEPOSITO                      1100000000000000dgarcia@gruposeri.com                  22062021ISAIR RUBIO VALLE                                                                  
0430284        0000000000112165185800014651605973473494000000000386670022062021DEPOSITO                      1100000000000000dgarcia@gruposeri.com                  22062021MONICA FLORES AGUILAR                                                              
0430711        0000000000112165185800014672606124331570000000000420000022062021DEPOSITO                      1100000000000000dgarcia@gruposeri.com                  22062021PERFECTO JOVANY HERNANDEZ RAMIREZ                                                  
0430934        0000000000112165185800014060606127813005000000000420000022062021DEPOSITO                      1100000000000000dgarcia@gruposeri.com                  22062021LORENA DENNIS BERENICE RIOS DEVORA                                                 
0434585        0000000000112165185800014840567859080588000000000670000022062021DEPOSITO                      1100000000000000dgarcia@gruposeri.com                  22062021HECTOR MAXIMO ESCALANTE HERNANDEZ                                                  
0440041        0000000000112165185800002914903095720832000000000420000022062021DEPOSITO                      1100000000000000dgarcia@gruposeri.com                  22062021ISRAEL ALEXANDER CANUL MAGANA                                                      
0440045        0000000000112165185800002053901850243174000000001170000022062021DEPOSITO                      1100000000000000dgarcia@gruposeri.com                  22062021FRANCISCO JAVIER PEREZ MISS                                                        
0440052        0000000000112165185800002804902093341269000000000420000022062021DEPOSITO                      1100000000000000dgarcia@gruposeri.com                  22062021JORGE FOSIL SOSA                                                                   
0440142        0000000000112165185800002800904350359213000000001050000022062021DEPOSITO                      1100000000000000dgarcia@gruposeri.com                  22062021LAURA ALMEIDA JIMENEZ                                                              
0440165        0000000000112165185800002053903406770390000000000320000022062021DEPOSITO                      1100000000000000dgarcia@gruposeri.com                  22062021CAROLINA DE LA CRUZ MAY                                                            
0440200        0000000000112165185800002917902197263088000000000420000022062021DEPOSITO                      1100000000000000dgarcia@gruposeri.com                  22062021LEONARD JOAQUIN GARMA DZUL                                                         
0440256        0000000000112165185800002180902087994359000000000293330022062021DEPOSITO                      1100000000000000dgarcia@gruposeri.com                  22062021FELIPE ARCEO CANCHE                                                                
0440099        0000000000112165185800002914902791724256000000000320000022062021DEPOSITO                      1100000000000000dgarcia@gruposeri.com                  22062021EINER GABRIEL EK ALONZO                                                            
0440107        0000000000112165185800002053904014326892000000000420000022062021DEPOSITO                      1100000000000000dgarcia@gruposeri.com                  22062021FATIMA DEL ROSARIO BALAN VELAZQUEZ                                                 
0440499        0000000000112165185800002050903485413574000000000420000022062021DEPOSITO                      1100000000000000dgarcia@gruposeri.com                  22062021GERARDO NEFTALI ALEGRIA FOSIL                                                      
0440606        0000000000112165185800002053903921754655000000000420000022062021DEPOSITO                      1100000000000000dgarcia@gruposeri.com                  22062021CONCEPCION DZUL DIAZ                                                               
0440934        0000000000112165185800002914701451800802000000000320000022062021DEPOSITO                      1100000000000000dgarcia@gruposeri.com                  22062021MARCOS ANTONIO CANCHE MENA                                                         
0440839        0000000000112165185800002053904052760290000000001277800022062021DEPOSITO                      1100000000000000dgarcia@gruposeri.com                  22062021VIRIDIANA GUADALUPE KANTUN TZEEK                                                   
0440851        0000000000112165185800002052904275035334000000000320000022062021DEPOSITO                      1100000000000000dgarcia@gruposeri.com                  22062021CLAUDIA BEATRIZ MENDEZ LOPEZ                                                       
0440867        0000000000112165185800002910904060790816000000000420000022062021DEPOSITO                      1100000000000000dgarcia@gruposeri.com                  22062021ROQUER VARGUEZ SANCHEZ                                                             
0441077        0000000000112165185800002910904315740977000000000420000022062021DEPOSITO                      1100000000000000dgarcia@gruposeri.com                  22062021VIRGINIA ALONDRA COLLI NOVELO                                                      
0441087        0000000000112165185800002917902936110839000000000320000022062021DEPOSITO                      1100000000000000dgarcia@gruposeri.com                  22062021LUIS FERNANDO CHAN SIMA                                                            
0441093        0000000000112165185800002910903944081228000000000420000022062021DEPOSITO                      1100000000000000dgarcia@gruposeri.com                  22062021ELSY CRISTINA PAMPLONA PECH                                                        
0441122        0000000000112165185800002051904248575479000000000420000022062021DEPOSITO                      1100000000000000dgarcia@gruposeri.com                  22062021ALMA ROCIO CANUL NAAL                                                              
0441171        0000000000112165185800002053701657420264000000000320000022062021DEPOSITO                      1100000000000000dgarcia@gruposeri.com                  22062021YARALDY BAUTISTA VERA                                                              
04901568       0000000000112165185800002053904482112227000000000320000022062021DEPOSITO                      1100000000000000dgarcia@gruposeri.com                  22062021MARCO ENRIQUE COSGALLA CAMPOS                                                      
0440524        0000000000112165185800002800903787002477000000000320000022062021DEPOSITO                      1100000000000000dgarcia@gruposeri.com                  22062021EZEQUIEL DOMINGUEZ SANCHEZ                                                         
0440543        0000000000112165185800002050903290524771000000000420000022062021DEPOSITO                      1100000000000000dgarcia@gruposeri.com                  22062021JOSE DAVID CITALAN HERNANDEZ                                                       
04903855       0000000000112165185800002050701626202995000000000420000022062021DEPOSITO                      1100000000000000dgarcia@gruposeri.com                  22062021LUIS FERNANDO GOMEZ HIDALGO                                                        
04903858       0000000000112165185800012180015275924908000000000320000022062021DEPOSITO                      1100000000000000dgarcia@gruposeri.com                  22062021MIGUEL ANGEL AKE MARTINEZ                                                          
0441215        0000000000112165185800012050015881337899000000000420000022062021DEPOSITO                      1100000000000000dgarcia@gruposeri.com                  22062021MANUEL ANTONIO NORRA HIDALGO                                                       
0440551        0000000000112165185800012052004654081996000000000420000022062021DEPOSITO                      1100000000000000dgarcia@gruposeri.com                  22062021MOISES URIAS REYES SANCHEZ                                                         
04901781       0000000000112165185800012052015037691918000000000293330022062021DEPOSITO                      1100000000000000dgarcia@gruposeri.com                  22062021JAVIER DEL JESUS DIAZ MARIN                                                        
04902084       0000000000112165185800012052029135937117000000000320000022062021DEPOSITO                      1100000000000000dgarcia@gruposeri.com                  22062021GILBERTO GARCIA RAMOS                                                              
04902285       0000000000112165185800012580015122003611000000000320000022062021DEPOSITO                      1100000000000000dgarcia@gruposeri.com                  22062021MARIA ESTHER MORALES LOPEZ                                                         
04902579       0000000000112165185800012580015068781796000000000420000022062021DEPOSITO                      1100000000000000dgarcia@gruposeri.com                  22062021JUAN HUMBERTO DIAZ HERNANDEZ                                                       
04902695       0000000000112165185800012052015123105949000000000320000022062021DEPOSITO                      1100000000000000dgarcia@gruposeri.com                  22062021ANGEL GUADALUPE DAMAS JIMENEZ                                                      
04903197       0000000000112165185800012050015541551258000000000320000022062021DEPOSITO                      1100000000000000dgarcia@gruposeri.com                  22062021JULIA YASMIN SALINAS MOLINA                                                        
0441178        0000000000112165185800012180015441523214000000000420000022062021DEPOSITO                      1100000000000000dgarcia@gruposeri.com                  22062021ISMAEL DE JESUS SANTOS PEREZ                                                       
0441193        0000000000112165185800012180015414133547000000000420000022062021DEPOSITO                      1100000000000000dgarcia@gruposeri.com                  22062021ADOLFO JIMENEZ PEREZ                                                               
04901180       0000000000112165185800012057015014342654000000000320000022062021DEPOSITO                      1100000000000000dgarcia@gruposeri.com                  22062021MADELIN ROXANA MOLINA REYES                                                        
0441142        0000000000112165185800012050015258034864000000000320000022062021DEPOSITO                      1100000000000000dgarcia@gruposeri.com                  22062021JUAN RAMON US CRUZ                                                                 
0441152        0000000000112165185800012057027773667956000000000320000022062021DEPOSITO                      1100000000000000dgarcia@gruposeri.com                  22062021EDY AARON YAM UITZ                                                                 
0441157        0000000000112165185800012052015410915680000000000420000022062021DEPOSITO                      1100000000000000dgarcia@gruposeri.com                  22062021CLAUDETT ESMERALDA TELLEZ GARCIA                                                   
0441160        0000000000112165185800012050015888484017000000000668070022062021DEPOSITO                      1100000000000000dgarcia@gruposeri.com                  22062021JOSE MANUEL GUZMAN GARCIA                                                          
0441098        0000000000112165185800012180015623729784000000000420000022062021DEPOSITO                      1100000000000000dgarcia@gruposeri.com                  22062021MAIRANI NATALI UC CAMBRANIS                                                        
0441102        0000000000112165185800012910029423605866000000000320000022062021DEPOSITO                      1100000000000000dgarcia@gruposeri.com                  22062021MORONI ABINADI NOH CHALE                                                           
0441103        0000000000112165185800012150015797315630000000000320000022062021DEPOSITO                      1100000000000000dgarcia@gruposeri.com                  22062021REINA GUADALUPE CHIM CAN                                                           
0441105        0000000000112165185800012180015375912360000000000320000022062021DEPOSITO                      1100000000000000dgarcia@gruposeri.com                  22062021YAJAIRA LIZBETH HERNANDEZ ZUNIGA                                                   
0440921        0000000000112165185800012790011458416669000000000320000022062021DEPOSITO                      1100000000000000dgarcia@gruposeri.com                  22062021LUZ MARIA ZAVALA MARTINEZ                                                          
0440831        0000000000112165185800012790015811650466000000000420000022062021DEPOSITO                      1100000000000000dgarcia@gruposeri.com                  22062021JOSE TILO DE DIOS HERNANDEZ                                                        
0440969        0000000000112165185800012650029571232564000000001170000022062021DEPOSITO                      1100000000000000dgarcia@gruposeri.com                  22062021ISAIAS ALMEIDA ISIDRO                                                              
0440970        0000000000112165185800012050015693892454000000000320000022062021DEPOSITO                      1100000000000000dgarcia@gruposeri.com                  22062021GERARDO RAFAEL PECH TREJO                                                          
0440975        0000000000112165185800012055015358183063000000000420000022062021DEPOSITO                      1100000000000000dgarcia@gruposeri.com                  22062021ANGEL ENRIQUE CAUICH CAHUN                                                         
0441023        0000000000112165185800012180015572724678000000000420000022062021DEPOSITO                      1100000000000000dgarcia@gruposeri.com                  22062021DAFFMIR JAZIEL PENA ESPINOZA                                                       
0441043        0000000000112165185800012052015092106765000000000320000022062021DEPOSITO                      1100000000000000dgarcia@gruposeri.com                  22062021DALIA DEL CARMEN CHAN LANDERO                                                      
0441057        0000000000112165185800012050015480669573000000000320000022062021DEPOSITO                      1100000000000000dgarcia@gruposeri.com                  22062021ADRIAN MENDEZ REYES                                                                
0440660        0000000000112165185800012054028903319458000000000320000022062021DEPOSITO                      1100000000000000dgarcia@gruposeri.com                  22062021CINTHIA LIZBETH LOPEZ ROSARIO                                                      
0440518        0000000000112165185800012051027590886877000000000420000022062021DEPOSITO                      1100000000000000dgarcia@gruposeri.com                  22062021ARIANA ISABEL BURGOS CASTILLO                                                      
0440119        0000000000112165185800012054011624222394000000000103650022062021DEPOSITO                      1100000000000000dgarcia@gruposeri.com                  22062021REYNA DEL CARMEN OCAMPO BRAVO                                                      
0440267        0000000000112165185800012790015292719887000000000420000022062021DEPOSITO                      1100000000000000dgarcia@gruposeri.com                  22062021ANA LUISA FARIAS DE LA CRUZ                                                        
0440296        0000000000112165185800012691027322866535000000000420000022062021DEPOSITO                      1100000000000000dgarcia@gruposeri.com                  22062021ROGELIO DAVID SEGURA SALAZAR                                                       
0440335        0000000000112165185800012910015058297048000000000320000022062021DEPOSITO                      1100000000000000dgarcia@gruposeri.com                  22062021ALVARO HUMBERTO NADAL CRUZ                                                         
0440338        0000000000112165185800012180015419653365000000000420000022062021DEPOSITO                      1100000000000000dgarcia@gruposeri.com                  22062021JOSE ALEXANDER GARCIA MORALES                                                      
0440381        0000000000112165185800012054015299121499000000000420000022062021DEPOSITO                      1100000000000000dgarcia@gruposeri.com                  22062021DAVID BAUTISTA MARTINEZ                                                            
0440427        0000000000112165185800012795011659624718000000000320000022062021DEPOSITO                      1100000000000000dgarcia@gruposeri.com                  22062021JESUS REYES JIMENEZ SEGOVIA                                                        
0440180        0000000000112165185800012050015076096204000000001323500022062021DEPOSITO                      1100000000000000dgarcia@gruposeri.com                  22062021MARIA ALEJANDRA PUC UC                                                             
0440185        0000000000112165185800012050011389315773000000000450870022062021DEPOSITO                      1100000000000000dgarcia@gruposeri.com                  22062021VERONICA BELEN CAAMAL DAMIAN                                                       
0440053        0000000000112165185800012055029724243471000000000420000022062021DEPOSITO                      1100000000000000dgarcia@gruposeri.com                  22062021PEDRO IGNACIO ABNAL MIS                                                            
0440073        0000000000112165185800012055015107682919000000000420000022062021DEPOSITO                      1100000000000000dgarcia@gruposeri.com                  22062021EDWIN EFREN US CRUZ                                                                
0440030        0000000000112165185800012180015387826761000000000320000022062021DEPOSITO                      1100000000000000dgarcia@gruposeri.com                  22062021ISRAEL ARMANDO TREJO SALAZAR                                                       
0440029        0000000000112165185800014050605706290542000000000500000022062021DEPOSITO                      1100000000000000dgarcia@gruposeri.com                  22062021MIRIAM AIDE PAAT SIMA                                                              
0440081        0000000000112165185800014910566044570080000000000741330022062021DEPOSITO                      1100000000000000dgarcia@gruposeri.com                  22062021JOSE GONZALO CHAN NAJERA                                                           
0440089        0000000000112165185800014910565906166355000000005400000022062021DEPOSITO                      1100000000000000dgarcia@gruposeri.com                  22062021NAYBI YANELI SOBERANIS MARIN                                                       
0440772        0000000000112165185800014790606042860283000000000420000022062021DEPOSITO                      1100000000000000dgarcia@gruposeri.com                  22062021DELIA CRISTINA OLAN HERNANDEZ                                                      
0440778        0000000000112165185800014910605891888404000000000420000022062021DEPOSITO                      1100000000000000dgarcia@gruposeri.com                  22062021CRISTIAN ARMANDO TUYUB MORENO                                                      
0441063        0000000000112165185800014628605822306632000000000420000022062021DEPOSITO                      1100000000000000dgarcia@gruposeri.com                  22062021LUIS DANIEL CARRILLO SUAREZ                                                        
0450233        0000000000112165185800002540071009949701000000035410000022062021DEPOSITO                      1100000000000000dgarcia@gruposeri.com                  22062021MARIJOSE ALVAREZ GALVEZ                                                            
0450004        0000000000112165185800002123900566662569000000003020000022062021DEPOSITO                      1100000000000000dgarcia@gruposeri.com                  22062021JOSE GUSTAVO PEREZ MUNOZ                                                           
0450114        0000000000112165185800002546701660385780000000003172210022062021DEPOSITO                      1100000000000000dgarcia@gruposeri.com                  22062021SERGIO OMAR CHAVEZ MORALES                                                         
0450124        0000000000112165185800012528026252761447000000008099000022062021DEPOSITO                      1100000000000000dgarcia@gruposeri.com                  22062021LUIS ARAGON MENDOZA                                                                
0450007        0000000000112165185800012180026712011583000000014919860022062021DEPOSITO                      1100000000000000dgarcia@gruposeri.com                  22062021EDUARDO VILLA ZEVALLOS MARTINEZ                                                    
0450013        0000000000112165185800012050029328870614000000010383000022062021DEPOSITO                      1100000000000000dgarcia@gruposeri.com                  22062021GUADALUPE HERNANDEZ ALVAREZ                                                        
0450218        0000000000112165185800012760015643052563000000009137840022062021DEPOSITO                      1100000000000000dgarcia@gruposeri.com                  22062021RAMON ALBERTO IBARRA VALENZUELA                                                    
0450249        0000000000112165185800012180015314416445000000006855530022062021DEPOSITO                      1100000000000000dgarcia@gruposeri.com                  22062021WENDY ELIDET NAJERA ZAMORA                                                         
0450397        0000000000112165185800012691015373124157000000007753330022062021DEPOSITO                      1100000000000000dgarcia@gruposeri.com                  22062021GUSTAVO VLADIMIR HINOJOSA VILDOSO                                                  
0450537        0000000000112165185800012180001889208503000000029920000022062021DEPOSITO                      1100000000000000dgarcia@gruposeri.com                  22062021MARIA DEL CARMEN PINON SANCHEZ DEL VILLAR                                          
0450679        0000000000112165185800012180015738285333000000000184770022062021DEPOSITO                      1100000000000000dgarcia@gruposeri.com                  22062021YULI SUSANA GONZALEZ ABAD                                                          
0450603        0000000000112165185800012180015816830121000000000774500022062021DEPOSITO                      1100000000000000dgarcia@gruposeri.com                  22062021MARIA JOSE GARCIA MORALES                                                          
0450237        0000000000112165185800014540605180937300000000008720000022062021DEPOSITO                      1100000000000000dgarcia@gruposeri.com                  22062021LAURA TORRES OLGUIN                                                                
0450125        0000000000112165185800014540605524592262000000005656770022062021DEPOSITO                      1100000000000000dgarcia@gruposeri.com                  22062021GERARDO MEJIA PINA                                                                 
0450132        0000000000112165185800014426566431837778000000008099000022062021DEPOSITO                      1100000000000000dgarcia@gruposeri.com                  22062021ALVARO MARTINEZ CARDENAS                                                           
0450142        0000000000112165185800014180605695425068000000010803870022062021DEPOSITO                      1100000000000000dgarcia@gruposeri.com                  22062021ARELI GABRIELA OJEDA TAVIRA                                                        
0450122        0000000000112165185800014109605646166137000000014520000022062021DEPOSITO                      1100000000000000dgarcia@gruposeri.com                  22062021CESAR FERNANDO PENA LOZANO                                                         
0460072        0000000000112165185800002622902809562948000000001022970022062021DEPOSITO                      1100000000000000dgarcia@gruposeri.com                  22062021ERIKA SANTIAGO GOMEZ                                                               
0460328        0000000000112165185800002636904430642645000000000320000022062021DEPOSITO                      1100000000000000dgarcia@gruposeri.com                  22062021GERTRUDIS GUZMAN FLORES                                                            
0460822        0000000000112165185800002622904532184992000000000320000022062021DEPOSITO                      1100000000000000dgarcia@gruposeri.com                  22062021MARIA DE LOS ANGELES CRUZ VARGAS                                                   
0460862        0000000000112165185800002636904120754461000000000320000022062021DEPOSITO                      1100000000000000dgarcia@gruposeri.com                  22062021ANADELY YANET LOPEZ MARTINEZ                                                       
0460899        0000000000112165185800002010904401003910000000000965000022062021DEPOSITO                      1100000000000000dgarcia@gruposeri.com                  22062021HECTOR FERNANDO HERNANDEZ ALONSO                                                   
0460843        0000000000112165185800002636904397722899000000001004940022062021DEPOSITO                      1100000000000000dgarcia@gruposeri.com                  22062021JORGE CARMONA VARGAS                                                               
0460876        0000000000112165185800002685904419267652000000000320000022062021DEPOSITO                      1100000000000000dgarcia@gruposeri.com                  22062021CESAR GIOVANNI MEJIA SILVA                                                         
0473560        0000000000112165185800002537701532804696000000000420000022062021DEPOSITO                      1100000000000000dgarcia@gruposeri.com                  22062021XOCHIL OCELOTL VILCHIS                                                             
04904288       0000000000112165185800012180015222113380000000000320000022062021DEPOSITO                      1100000000000000dgarcia@gruposeri.com                  22062021LUIS DANIEL VENEGAS ANLEHU                                                         
04903793       0000000000112165185800012637011884928402000000001644000022062021DEPOSITO                      1100000000000000dgarcia@gruposeri.com                  22062021GUADALUPE CHINAS GARCIA                                                            
0460905        0000000000112165185800012610015517195923000000000420000022062021DEPOSITO                      1100000000000000dgarcia@gruposeri.com                  22062021JOSE ANTONIO PEDRO MEJIA                                                           
0460878        0000000000112165185800012180015796140216000000000320000022062021DEPOSITO                      1100000000000000dgarcia@gruposeri.com                  22062021JAQUELINE LICONA VAZQUEZ                                                           
