0480215        0000000000041174636400002111902550931096000000004032360023062021PAGO NOMINA                   11PUA150417AV7 00000000000000dgarcia@gruposeri.com                  23062021YESENIA DEL CARMEN TOLEDO RUIZ                                        
0480158        0000000000041174636400002111901207854184000000002991860023062021PAGO NOMINA                   11PUA150417AV7 00000000000000dgarcia@gruposeri.com                  23062021JOSE HERNANDEZ DIAZ                                                   
0480087        0000000000041174636400002100902018871421000000004301950023062021PAGO NOMINA                   11PUA150417AV7 00000000000000dgarcia@gruposeri.com                  23062021BELZAIN JIMENEZ POPOMEYA                                              
0480089        0000000000041174636400002138902080501678000000004786760023062021PAGO NOMINA                   11PUA150417AV7 00000000000000dgarcia@gruposeri.com                  23062021JUAN MANUEL RUIZ ORTIZ                                                
0480052        0000000000041174636400002138901105305860000000004056910023062021PAGO NOMINA                   11PUA150417AV7 00000000000000dgarcia@gruposeri.com                  23062021ANGEL ABEL VENTURA ENRIQUEZ                                           
0480119        0000000000041174636400002100902394833552000000005354060023062021PAGO NOMINA                   11PUA150417AV7 00000000000000dgarcia@gruposeri.com                  23062021DAVID GARCIA HERNANDEZ                                                
0480122        0000000000041174636400002138902595472441000000005348350023062021PAGO NOMINA                   11PUA150417AV7 00000000000000dgarcia@gruposeri.com                  23062021NOE GOMEZ CRUZ                                                        
0480020        0000000000041174636400002100903498910927000000002449200023062021PAGO NOMINA                   11PUA150417AV7 00000000000000dgarcia@gruposeri.com                  23062021JULIO MIGUEL HERNANDEZ OLVA                                           
0480028        0000000000041174636400002109027354460210000000004542390023062021PAGO NOMINA                   11PUA150417AV7 00000000000000dgarcia@gruposeri.com                  23062021MAURICIO AGUILAR AGUILAR                                              
0480033        0000000000041174636400002138029660397392000000002428480023062021PAGO NOMINA                   11PUA150417AV7 00000000000000dgarcia@gruposeri.com                  23062021DERI RAMOS MACAL                                                      
0480409        0000000000041174636400002180700455473277000000004372640023062021PAGO NOMINA                   11PUA150417AV7 00000000000000dgarcia@gruposeri.com                  23062021MA DE LOS ANGELES MONTIEL ANTE                                        
0480441        0000000000041174636400002100903806220322000000002747710023062021PAGO NOMINA                   11PUA150417AV7 00000000000000dgarcia@gruposeri.com                  23062021YURIDIA PEREZ SOLIS                                                   
0480477        0000000000041174636400002138903725894173000000004631380023062021PAGO NOMINA                   11PUA150417AV7 00000000000000dgarcia@gruposeri.com                  23062021ARIOSTO VAZQUEZ CRUZ                                                  
0480478        0000000000041174636400002100902784292444000000002747710023062021PAGO NOMINA                   11PUA150417AV7 00000000000000dgarcia@gruposeri.com                  23062021CARLOS SANCHEZ GARCIA                                                 
0480800        0000000000041174636400002138904164774413000000001951540023062021PAGO NOMINA                   11PUA150417AV7 00000000000000dgarcia@gruposeri.com                  23062021TANIA ISELA MUNOA ALFONSO                                             
0480942        0000000000041174636400002124904281943212000000002992170023062021PAGO NOMINA                   11PUA150417AV7 00000000000000dgarcia@gruposeri.com                  23062021ADRIANA DE PAZ GALDAMEZ                                               
0480948        0000000000041174636400002138902595466554000000004146300023062021PAGO NOMINA                   11PUA150417AV7 00000000000000dgarcia@gruposeri.com                  23062021ALONSO LOPEZ VAZQUEZ                                                  
0480977        0000000000041174636400002126904300657335000000002200410023062021PAGO NOMINA                   11PUA150417AV7 00000000000000dgarcia@gruposeri.com                  23062021GUSTAVO GUADALUPE GONZALEZ ALVAREZ                                    
0481001        0000000000041174636400002100904320762792000000002747840023062021PAGO NOMINA                   11PUA150417AV7 00000000000000dgarcia@gruposeri.com                  23062021HECTOR ANTONIO SOLIS PEREZ                                            
0481005        0000000000041174636400002100904106947427000000003764020023062021PAGO NOMINA                   11PUA150417AV7 00000000000000dgarcia@gruposeri.com                  23062021MARIA JOSE GARCIA PALACIOS                                            
0481071        0000000000041174636400002100701658631170000000002162480023062021PAGO NOMINA                   11PUA150417AV7 00000000000000dgarcia@gruposeri.com                  23062021SARA VARGAS SANCHEZ                                                   
0481087        0000000000041174636400002580903899245031000000002747840023062021PAGO NOMINA                   11PUA150417AV7 00000000000000dgarcia@gruposeri.com                  23062021BERSAIN ARCE ESTUDILLO                                                
0481097        0000000000041174636400002138904617695939000000002747840023062021PAGO NOMINA                   11PUA150417AV7 00000000000000dgarcia@gruposeri.com                  23062021JORGE ALBERTO RAMOS ARELLANO                                          
0481108        0000000000041174636400002100904284585235000000002747840023062021PAGO NOMINA                   11PUA150417AV7 00000000000000dgarcia@gruposeri.com                  23062021ALEX ERIK HERNANDEZ ZOMA                                              
0481133        0000000000041174636400002100904390546964000000002747840023062021PAGO NOMINA                   11PUA150417AV7 00000000000000dgarcia@gruposeri.com                  23062021LORENZO AGUILAR AQUINO                                                
0481152        0000000000041174636400002100904027980327000000010700530023062021PAGO NOMINA                   11PUA150417AV7 00000000000000dgarcia@gruposeri.com                  23062021LILIANA DEL CARMEN ROBLEDO PEREZ                                      
0481148        0000000000041174636400002124904367927851000000002747840023062021PAGO NOMINA                   11PUA150417AV7 00000000000000dgarcia@gruposeri.com                  23062021NERY GUADALUPE DIAZ MICELI                                            
0481173        0000000000041174636400002135904548276187000000004718010023062021PAGO NOMINA                   11PUA150417AV7 00000000000000dgarcia@gruposeri.com                  23062021ADAMIT GUILLEN ZAVALA                                                 
04902913       0000000000041174636400002010904382033889000000002747840023062021PAGO NOMINA                   11PUA150417AV7 00000000000000dgarcia@gruposeri.com                  23062021THAIRA ALEJANDRA HERNANDEZ MENDOZA                                    
04903893       0000000000041174636400002111904087638187000000002747840023062021PAGO NOMINA                   11PUA150417AV7 00000000000000dgarcia@gruposeri.com                  23062021JESUS GUADALUPE PEREZ VAZQUEZ                                         
04904091       0000000000041174636400002100903772408621000000002747840023062021PAGO NOMINA                   11PUA150417AV7 00000000000000dgarcia@gruposeri.com                  23062021JORGE AUGUSTO VAZQUEZ FIGUEROA                                        
04904294       0000000000041174636400002100904425277755000000002386270023062021PAGO NOMINA                   11PUA150417AV7 00000000000000dgarcia@gruposeri.com                  23062021LUIS ANTONIO CRUZ NAJERA                                              
0480989        0000000000041174636400021100064903581444000000002113880023062021PAGO NOMINA                   11PUA150417AV7 00000000000000dgarcia@gruposeri.com                  23062021HECTOR GUADALUPE VALENCIA MARTINEZ                                    
04901004       0000000000041174636400021100065006504084000000002747840023062021PAGO NOMINA                   11PUA150417AV7 00000000000000dgarcia@gruposeri.com                  23062021YESENIA BERENICE ORTIZ GUTIERREZ                                      
0481161        0000000000041174636400021100064645031058000000004801180023062021PAGO NOMINA                   11PUA150417AV7 00000000000000dgarcia@gruposeri.com                  23062021LUCERO SUZAN ALVAREZ MIJANGOS                                         
0480902        0000000000041174636400021876064239327839000000003627180023062021PAGO NOMINA                   11PUA150417AV7 00000000000000dgarcia@gruposeri.com                  23062021LUIS MIGUEL MILLAN CABANAS                                            
04903458       0000000000041174636400044100085079893776000000003999640023062021PAGO NOMINA                   11PUA150417AV7 00000000000000dgarcia@gruposeri.com                  23062021LUIS EMMANUEL MALDONADO ALCAZAR                                       
0480034        0000000000041174636400044100085065656891000000004438620023062021PAGO NOMINA                   11PUA150417AV7 00000000000000dgarcia@gruposeri.com                  23062021JOSE EDUARDO CHAMPO SUCHIAPA                                          
0480038        0000000000041174636400044100085066956985000000005500980023062021PAGO NOMINA                   11PUA150417AV7 00000000000000dgarcia@gruposeri.com                  23062021LISBETH EDOLITH ALBORES MEGCHUN                                       
0480039        0000000000041174636400044100085065856552000000007551110023062021PAGO NOMINA                   11PUA150417AV7 00000000000000dgarcia@gruposeri.com                  23062021DORY GUADALUPE MENDEZ ALVARADO                                        
0480046        0000000000041174636400127110013515526169000000003070500023062021PAGO NOMINA                   11PUA150417AV7 00000000000000dgarcia@gruposeri.com                  23062021BRAULIO SANCHEZ GUZMAN                                                
0437981        0000000000041174636400127104013501100521000000002747840023062021PAGO NOMINA                   11PUA150417AV7 00000000000000dgarcia@gruposeri.com                  23062021JARENY BERENICE SANCHEZ GUADARRAMA                                    
0433444        0000000000041174636400127104001397585359000000002075160023062021PAGO NOMINA                   11PUA150417AV7 00000000000000dgarcia@gruposeri.com                  23062021ANA MARIA VAZQUEZ MENDEZ                                              
0480239        0000000000041174636400127110013038757428000000003343890023062021PAGO NOMINA                   11PUA150417AV7 00000000000000dgarcia@gruposeri.com                  23062021MARIA DE JESUS MORALES ESTRADA                                        
0480191        0000000000041174636400127104013589387421000000009898690023062021PAGO NOMINA                   11PUA150417AV7 00000000000000dgarcia@gruposeri.com                  23062021DAVID RUVISEL MOLINA FONSECA                                          
0480192        0000000000041174636400127128001558475048000000002794780023062021PAGO NOMINA                   11PUA150417AV7 00000000000000dgarcia@gruposeri.com                  23062021JOSE GUADALUPE DE LA CRUZ VILLEGAS                                    
0480144        0000000000041174636400127124013454482745000000004028040023062021PAGO NOMINA                   11PUA150417AV7 00000000000000dgarcia@gruposeri.com                  23062021MARIA DEL ROSARIO HERNANDEZ CASTELLANOS                               
0480102        0000000000041174636400127111013282337800000000002122470023062021PAGO NOMINA                   11PUA150417AV7 00000000000000dgarcia@gruposeri.com                  23062021CLEMENTA TORRES GONZALEZ                                              
0480324        0000000000041174636400127100013263766320000000001631150023062021PAGO NOMINA                   11PUA150417AV7 00000000000000dgarcia@gruposeri.com                  23062021LAURA CRISTINA GARCIA ZUNUN                                           
0480304        0000000000041174636400127111013047679444000000003619550023062021PAGO NOMINA                   11PUA150417AV7 00000000000000dgarcia@gruposeri.com                  23062021ANGEL ALBERTO CHACON CABALLERO                                        
0480297        0000000000041174636400127138013533206540000000002747640023062021PAGO NOMINA                   11PUA150417AV7 00000000000000dgarcia@gruposeri.com                  23062021LIZBETH VENTURA ESTRADA                                               
0480445        0000000000041174636400127138013483636613000000001475650023062021PAGO NOMINA                   11PUA150417AV7 00000000000000dgarcia@gruposeri.com                  23062021GABRIEL POZO DE LA CRUZ                                               
0480582        0000000000041174636400127104013491213764000000002145710023062021PAGO NOMINA                   11PUA150417AV7 00000000000000dgarcia@gruposeri.com                  23062021MARCO ANTONIO DIAZ HERNANDEZ                                          
0480681        0000000000041174636400127279001976450853000000002151600023062021PAGO NOMINA                   11PUA150417AV7 00000000000000dgarcia@gruposeri.com                  23062021JOSE MANUEL PENALOZA ALTAMIRANO                                       
0480641        0000000000041174636400127138013809554939000000002747780023062021PAGO NOMINA                   11PUA150417AV7 00000000000000dgarcia@gruposeri.com                  23062021YASMIN SALDANA PEREZ                                                  
0480647        0000000000041174636400127104001116729862000000003379800023062021PAGO NOMINA                   11PUA150417AV7 00000000000000dgarcia@gruposeri.com                  23062021ISAIAS NUNEZ HERNANDEZ                                                
0480628        0000000000041174636400127111013779327802000000002747780023062021PAGO NOMINA                   11PUA150417AV7 00000000000000dgarcia@gruposeri.com                  23062021ANA MARIA MOLINA UTRILLA                                              
0480835        0000000000041174636400127111013327209408000000002144350023062021PAGO NOMINA                   11PUA150417AV7 00000000000000dgarcia@gruposeri.com                  23062021LUIS ANTONIO MENDEZ GOMEZ                                             
0480896        0000000000041174636400127100001339499601000000003764020023062021PAGO NOMINA                   11PUA150417AV7 00000000000000dgarcia@gruposeri.com                  23062021ANEL SAHIAN RIZO GALINDO                                              
0480862        0000000000041174636400127110001239294378000000001956970023062021PAGO NOMINA                   11PUA150417AV7 00000000000000dgarcia@gruposeri.com                  23062021CLAUDIA YESSENIA LOPEZ JIMENEZ                                        
0480871        0000000000041174636400127128013219744080000000003344160023062021PAGO NOMINA                   11PUA150417AV7 00000000000000dgarcia@gruposeri.com                  23062021JACQUELINE HERNANDEZ PATRACA                                          
0480925        0000000000041174636400127126013167769986000000002747840023062021PAGO NOMINA                   11PUA150417AV7 00000000000000dgarcia@gruposeri.com                  23062021FANNY BELLENY GARCIA SANGEADO                                         
0480755        0000000000041174636400127100013094452816000000002747780023062021PAGO NOMINA                   11PUA150417AV7 00000000000000dgarcia@gruposeri.com                  23062021ABRAHAM HERNANDEZ UTRILLA                                             
0480734        0000000000041174636400127110013060107745000000002244080023062021PAGO NOMINA                   11PUA150417AV7 00000000000000dgarcia@gruposeri.com                  23062021KARINA LIZETH DE LOS SANTOS REYES                                     
0480810        0000000000041174636400127180016548020737000000001671780023062021PAGO NOMINA                   11PUA150417AV7 00000000000000dgarcia@gruposeri.com                  23062021CARLOS MARTIN LOPEZ ENRIQUEZ                                          
0480798        0000000000041174636400127111001219287278000000002694080023062021PAGO NOMINA                   11PUA150417AV7 00000000000000dgarcia@gruposeri.com                  23062021CRISTINA ELIZABETH MARTINEZ CRUZ                                      
0480765        0000000000041174636400127138013132549501000000002747780023062021PAGO NOMINA                   11PUA150417AV7 00000000000000dgarcia@gruposeri.com                  23062021LUIS FERNANDO RUIZ MARINA                                             
0481091        0000000000041174636400127117013459048971000000002747840023062021PAGO NOMINA                   11PUA150417AV7 00000000000000dgarcia@gruposeri.com                  23062021JULIO ENRIQUE CASTILLEJOS MONTOYA                                     
0481062        0000000000041174636400127100013917454166000000002244160023062021PAGO NOMINA                   11PUA150417AV7 00000000000000dgarcia@gruposeri.com                  23062021NALLELY ELIZABETH GARCIA HERNANDEZ                                    
0481056        0000000000041174636400127794001528690229000000002747840023062021PAGO NOMINA                   11PUA150417AV7 00000000000000dgarcia@gruposeri.com                  23062021ALFONSO PEREZ DE LA CRUZ                                              
0481045        0000000000041174636400127104001301228165000000002021910023062021PAGO NOMINA                   11PUA150417AV7 00000000000000dgarcia@gruposeri.com                  23062021TEOFILO ALEJANDRO MARTINEZ GOMEZ                                      
0481021        0000000000041174636400127110013171064638000000002747840023062021PAGO NOMINA                   11PUA150417AV7 00000000000000dgarcia@gruposeri.com                  23062021JOSE LEYVER SANCHEZ LOPEZ                                             
0480980        0000000000041174636400127126013671720738000000002394160023062021PAGO NOMINA                   11PUA150417AV7 00000000000000dgarcia@gruposeri.com                  23062021ISIS PAMELA VILLALOBOS GENAREZ                                        
0480971        0000000000041174636400127100001189496317000000002747840023062021PAGO NOMINA                   11PUA150417AV7 00000000000000dgarcia@gruposeri.com                  23062021AARON RAMIREZ CABRERA                                                 
0481103        0000000000041174636400127100001361190664000000003344160023062021PAGO NOMINA                   11PUA150417AV7 00000000000000dgarcia@gruposeri.com                  23062021SANDRA ADILENE CRUZ PEREZ                                             
0481105        0000000000041174636400127128013690679884000000002747840023062021PAGO NOMINA                   11PUA150417AV7 00000000000000dgarcia@gruposeri.com                  23062021JEREMIAS DOMINGUEZ PEREZ                                              
0481128        0000000000041174636400127117013578240168000000002544160023062021PAGO NOMINA                   11PUA150417AV7 00000000000000dgarcia@gruposeri.com                  23062021BLANCA ANDREA VELASCO ESCOBAR                                         
0481129        0000000000041174636400127111001013095585000000002176340023062021PAGO NOMINA                   11PUA150417AV7 00000000000000dgarcia@gruposeri.com                  23062021CRISTIAN DE JESUS HERNANDEZ SANCHEZ                                   
0481111        0000000000041174636400127110013484942890000000002286160023062021PAGO NOMINA                   11PUA150417AV7 00000000000000dgarcia@gruposeri.com                  23062021DEYSI GUADALUPE PEREZ VAZQUEZ                                         
0481113        0000000000041174636400127128001255236797000000002567050023062021PAGO NOMINA                   11PUA150417AV7 00000000000000dgarcia@gruposeri.com                  23062021EDUARDO DAVID VILLEGAS SALVADOR                                       
0481151        0000000000041174636400127135001299545990000000002394160023062021PAGO NOMINA                   11PUA150417AV7 00000000000000dgarcia@gruposeri.com                  23062021ADRIANA SOLIS PENA                                                    
0481143        0000000000041174636400127111013607955430000000002372220023062021PAGO NOMINA                   11PUA150417AV7 00000000000000dgarcia@gruposeri.com                  23062021GUSTAVO ALBERTO HERNANDEZ PEREZ                                       
0481145        0000000000041174636400127111001228715757000000002544160023062021PAGO NOMINA                   11PUA150417AV7 00000000000000dgarcia@gruposeri.com                  23062021LUIS FRANCISCO SANDOVAL ROBLERO                                       
0481180        0000000000041174636400127124013150499540000000002747840023062021PAGO NOMINA                   11PUA150417AV7 00000000000000dgarcia@gruposeri.com                  23062021IOANA ELIZABETH MARROQUIN PIMENTEL                                    
0481175        0000000000041174636400127126013749481420000000002747840023062021PAGO NOMINA                   11PUA150417AV7 00000000000000dgarcia@gruposeri.com                  23062021JAVIER RODRIGUEZ SALAS                                                
0481165        0000000000041174636400127100001350983400000000003022900023062021PAGO NOMINA                   11PUA150417AV7 00000000000000dgarcia@gruposeri.com                  23062021YESSICA GUADALUPE JIMENEZ GUMETA                                      
04901295       0000000000041174636400127180016787254241000000002994160023062021PAGO NOMINA                   11PUA150417AV7 00000000000000dgarcia@gruposeri.com                  23062021CRISTIAN LAURIANA PENAGOS PEREZ                                       
04901362       0000000000041174636400127104013769473252000000001982950023062021PAGO NOMINA                   11PUA150417AV7 00000000000000dgarcia@gruposeri.com                  23062021SAUL ALEXIS DE LA CRUZ HERNANDEZ                                      
04901520       0000000000041174636400127138001306164999000000002747840023062021PAGO NOMINA                   11PUA150417AV7 00000000000000dgarcia@gruposeri.com                  23062021OSCAR JESUS MACIAS DELGADO                                            
04901552       0000000000041174636400127107013605653913000000002747840023062021PAGO NOMINA                   11PUA150417AV7 00000000000000dgarcia@gruposeri.com                  23062021SERGIO ANTONIO GIL HERRERA                                            
04903068       0000000000041174636400127124013086939637000000002747840023062021PAGO NOMINA                   11PUA150417AV7 00000000000000dgarcia@gruposeri.com                  23062021MARIA ANGELA SANCHEZ RUIZ                                             
04903183       0000000000041174636400127128001333483611000000002164510023062021PAGO NOMINA                   11PUA150417AV7 00000000000000dgarcia@gruposeri.com                  23062021JUAN DE DIOS ESTEBAN VILLEGAS                                         
04903843       0000000000041174636400127138013605929823000000002747840023062021PAGO NOMINA                   11PUA150417AV7 00000000000000dgarcia@gruposeri.com                  23062021ESTEBAN CALVO CORDOVA                                                 
04903788       0000000000041174636400127794001424781892000000002747840023062021PAGO NOMINA                   11PUA150417AV7 00000000000000dgarcia@gruposeri.com                  23062021YARELI LAZARO RODRIGUEZ                                               
04902874       0000000000041174636400127100001360580000000000002747840023062021PAGO NOMINA                   11PUA150417AV7 00000000000000dgarcia@gruposeri.com                  23062021ULISES ANTONIO MORALES LIEVANO                                        
04902274       0000000000041174636400127111013746386423000000001906180023062021PAGO NOMINA                   11PUA150417AV7 00000000000000dgarcia@gruposeri.com                  23062021ALEXIS MICHEL SANCHEZ ROBLES                                          
04904290       0000000000041174636400127126013256041078000000002567050023062021PAGO NOMINA                   11PUA150417AV7 00000000000000dgarcia@gruposeri.com                  23062021JOSE FRANCISCO SANCHEZ GOMEZ                                          
04904350       0000000000041174636400127117013254387808000000002747840023062021PAGO NOMINA                   11PUA150417AV7 00000000000000dgarcia@gruposeri.com                  23062021FERNANDO ULISES VAZQUEZ LOPEZ                                         
04904056       0000000000041174636400127100013423879921000000002747840023062021PAGO NOMINA                   11PUA150417AV7 00000000000000dgarcia@gruposeri.com                  23062021JAVIER PEREZ PEREZ                                                    
04904062       0000000000041174636400127111001430570913000000002747840023062021PAGO NOMINA                   11PUA150417AV7 00000000000000dgarcia@gruposeri.com                  23062021ANGEL ANTONIO PEREZ MORALES                                           
04904215       0000000000041174636400137107101898506339000000002747840023062021PAGO NOMINA                   11PUA150417AV7 00000000000000dgarcia@gruposeri.com                  23062021VICTOR HUGO VELAZQUEZ LOPEZ                                           
04903835       0000000000041174636400137100104071330193000000002747840023062021PAGO NOMINA                   11PUA150417AV7 00000000000000dgarcia@gruposeri.com                  23062021CESAR ALBERTO PETRIZ RAMIREZ                                          
04903896       0000000000041174636400137580102908964403000000002747840023062021PAGO NOMINA                   11PUA150417AV7 00000000000000dgarcia@gruposeri.com                  23062021CAROLINA GONZALEZ GARCIA                                              
04903305       0000000000041174636400137100103596607881000000002747840023062021PAGO NOMINA                   11PUA150417AV7 00000000000000dgarcia@gruposeri.com                  23062021EUCARIO VAZQUEZ OCANA                                                 
04902188       0000000000041174636400137111104026148840000000002245400023062021PAGO NOMINA                   11PUA150417AV7 00000000000000dgarcia@gruposeri.com                  23062021MARLON ELIEZER SANCHEZ ROBLES                                         
04901634       0000000000041174636400137100103816855229000000002747840023062021PAGO NOMINA                   11PUA150417AV7 00000000000000dgarcia@gruposeri.com                  23062021ITZEL MONZERRAT DELGADO LAZARO                                        
04901157       0000000000041174636400137320102860995518000000002747840023062021PAGO NOMINA                   11PUA150417AV7 00000000000000dgarcia@gruposeri.com                  23062021JUAN JOSE VELASCO RODRIGUEZ                                           
04521378       0000000000041174636400137100104078995269000000003764020023062021PAGO NOMINA                   11PUA150417AV7 00000000000000dgarcia@gruposeri.com                  23062021CAROL SHUNASHI GUTIERREZ CIRIACO                                      
0481171        0000000000041174636400137138102338225452000000002747840023062021PAGO NOMINA                   11PUA150417AV7 00000000000000dgarcia@gruposeri.com                  23062021LISANIA PETRIZ GORDILLO                                               
0481177        0000000000041174636400137128103098743704000000002747840023062021PAGO NOMINA                   11PUA150417AV7 00000000000000dgarcia@gruposeri.com                  23062021CARLOS DANIEL REYES REYES                                             
0481189        0000000000041174636400137133101157111604000000002544160023062021PAGO NOMINA                   11PUA150417AV7 00000000000000dgarcia@gruposeri.com                  23062021ROCIO DE LOS SANTOS SANTOS                                            
0481050        0000000000041174636400137107103387189139000000002694160023062021PAGO NOMINA                   11PUA150417AV7 00000000000000dgarcia@gruposeri.com                  23062021NAYELI GUADALUPE CRUZ ZARATE                                          
0481051        0000000000041174636400137780100131079268000000003090910023062021PAGO NOMINA                   11PUA150417AV7 00000000000000dgarcia@gruposeri.com                  23062021ROCIO EUNICE CHAVEZ LOPEZ                                             
0481058        0000000000041174636400137100130042432984000000002747840023062021PAGO NOMINA                   11PUA150417AV7 00000000000000dgarcia@gruposeri.com                  23062021ALEXIS SAYANA SANCHEZ ALVAREZ                                         
0481059        0000000000041174636400137128102207044460000000002144300023062021PAGO NOMINA                   11PUA150417AV7 00000000000000dgarcia@gruposeri.com                  23062021FABIAN EMETERIO RICARDEZ                                              
0481068        0000000000041174636400137100100166099495000000002747840023062021PAGO NOMINA                   11PUA150417AV7 00000000000000dgarcia@gruposeri.com                  23062021ELISA ARACELI GUZMAN MENDEZ                                           
0481070        0000000000041174636400137100130030172272000000002747840023062021PAGO NOMINA                   11PUA150417AV7 00000000000000dgarcia@gruposeri.com                  23062021MIGUEL OCTAVIO HERNANDEZ PEREZ                                        
0481078        0000000000041174636400137138102687961218000000002994160023062021PAGO NOMINA                   11PUA150417AV7 00000000000000dgarcia@gruposeri.com                  23062021GUADALUPE DE LA CRUZ SALAZAR                                          
0480754        0000000000041174636400137100103532509529000000002747780023062021PAGO NOMINA                   11PUA150417AV7 00000000000000dgarcia@gruposeri.com                  23062021ROCIO ARLETH PEREZ NUNEZ                                              
0480961        0000000000041174636400137100130033635677000000002747840023062021PAGO NOMINA                   11PUA150417AV7 00000000000000dgarcia@gruposeri.com                  23062021DOMINGO DIAZ LOPEZ                                                    
0480939        0000000000041174636400137798103352166826000000002140700023062021PAGO NOMINA                   11PUA150417AV7 00000000000000dgarcia@gruposeri.com                  23062021JUAN LUIS DOMINGUEZ LOPEZ                                             
0480897        0000000000041174636400137100102017247705000000002747840023062021PAGO NOMINA                   11PUA150417AV7 00000000000000dgarcia@gruposeri.com                  23062021JUDITH AZUCENA SERRANO MACIAS                                         
0480868        0000000000041174636400137100101744170971000000003764020023062021PAGO NOMINA                   11PUA150417AV7 00000000000000dgarcia@gruposeri.com                  23062021YEREMIT CASANDRA RODRIGUEZ ARELLANO                                   
0480850        0000000000041174636400137111101285282757000000003114520023062021PAGO NOMINA                   11PUA150417AV7 00000000000000dgarcia@gruposeri.com                  23062021ZAIRA YANET ORTIZ VAZQUEZ                                             
0480600        0000000000041174636400137107101807922315000000005348900023062021PAGO NOMINA                   11PUA150417AV7 00000000000000dgarcia@gruposeri.com                  23062021PASCUALA LOPEZ CERVANTES                                              
0480466        0000000000041174636400137100100967451041000000002122610023062021PAGO NOMINA                   11PUA150417AV7 00000000000000dgarcia@gruposeri.com                  23062021SONIA RAMOS VILLALOBOS                                                
0480527        0000000000041174636400137100103227963454000000001878170023062021PAGO NOMINA                   11PUA150417AV7 00000000000000dgarcia@gruposeri.com                  23062021MAYOLI DE PAZ TORRES                                                  
0480522        0000000000041174636400137100100964709547000000001811560023062021PAGO NOMINA                   11PUA150417AV7 00000000000000dgarcia@gruposeri.com                  23062021CARLOS ALBERTO SEAS AGUILAR                                           
0480369        0000000000041174636400137111102925804232000000002747710023062021PAGO NOMINA                   11PUA150417AV7 00000000000000dgarcia@gruposeri.com                  23062021ADI YANETH HERNANDEZ PEREZ                                            
0480092        0000000000041174636400137107103393385451000000004025310023062021PAGO NOMINA                   11PUA150417AV7 00000000000000dgarcia@gruposeri.com                  23062021IVAN ERNESTO RUIZ ESPINOSA                                            
0480040        0000000000041174636400137100102884469334000000007110500023062021PAGO NOMINA                   11PUA150417AV7 00000000000000dgarcia@gruposeri.com                  23062021CARLOS ANTONIO MACIAS NURICUMBO                                       
