0480215        00000000000041174636400002111902550931096000000004032360017062021PAGO NOMINA                   11PUA150417AV7 00000000000000dgarcia@gruposeri.com                  17062021YESENIA DEL CARMEN TOLEDO RUIZ                                       
0480158        00000000000041174636400002111901207854184000000002991860017062021PAGO NOMINA                   11PUA150417AV7 00000000000000dgarcia@gruposeri.com                  17062021JOSE HERNANDEZ DIAZ                                                  
0480087        00000000000041174636400002100902018871421000000004301950017062021PAGO NOMINA                   11PUA150417AV7 00000000000000dgarcia@gruposeri.com                  17062021BELZAIN JIMENEZ POPOMEYA                                             
0480089        00000000000041174636400002138902080501678000000004786760017062021PAGO NOMINA                   11PUA150417AV7 00000000000000dgarcia@gruposeri.com                  17062021JUAN MANUEL RUIZ ORTIZ                                               
0480052        00000000000041174636400002138901105305860000000004056910017062021PAGO NOMINA                   11PUA150417AV7 00000000000000dgarcia@gruposeri.com                  17062021ANGEL ABEL VENTURA ENRIQUEZ                                          
0480119        00000000000041174636400002100902394833552000000005354060017062021PAGO NOMINA                   11PUA150417AV7 00000000000000dgarcia@gruposeri.com                  17062021DAVID GARCIA HERNANDEZ                                               
0480122        00000000000041174636400002138902595472441000000005348350017062021PAGO NOMINA                   11PUA150417AV7 00000000000000dgarcia@gruposeri.com                  17062021NOE GOMEZ CRUZ                                                       
0480020        00000000000041174636400002100903498910927000000002449200017062021PAGO NOMINA                   11PUA150417AV7 00000000000000dgarcia@gruposeri.com                  17062021JULIO MIGUEL HERNANDEZ OLVA                                          
0480028        00000000000041174636400002109027354460210000000004542390017062021PAGO NOMINA                   11PUA150417AV7 00000000000000dgarcia@gruposeri.com                  17062021MAURICIO AGUILAR AGUILAR                                             
0480033        00000000000041174636400002138029660397392000000002428480017062021PAGO NOMINA                   11PUA150417AV7 00000000000000dgarcia@gruposeri.com                  17062021DERI RAMOS MACAL                                                     
0480409        00000000000041174636400002180700455473277000000004372640017062021PAGO NOMINA                   11PUA150417AV7 00000000000000dgarcia@gruposeri.com                  17062021MA DE LOS ANGELES MONTIEL ANTE                                       
0480441        00000000000041174636400002100903806220322000000002747710017062021PAGO NOMINA                   11PUA150417AV7 00000000000000dgarcia@gruposeri.com                  17062021YURIDIA PEREZ SOLIS                                                  
0480477        00000000000041174636400002138903725894173000000004631380017062021PAGO NOMINA                   11PUA150417AV7 00000000000000dgarcia@gruposeri.com                  17062021ARIOSTO VAZQUEZ CRUZ                                                 
0480478        00000000000041174636400002100902784292444000000002747710017062021PAGO NOMINA                   11PUA150417AV7 00000000000000dgarcia@gruposeri.com                  17062021CARLOS SANCHEZ GARCIA                                                
0480800        00000000000041174636400002138904164774413000000001951540017062021PAGO NOMINA                   11PUA150417AV7 00000000000000dgarcia@gruposeri.com                  17062021TANIA ISELA MUNOA ALFONSO                                            
0480942        00000000000041174636400002124904281943212000000002992170017062021PAGO NOMINA                   11PUA150417AV7 00000000000000dgarcia@gruposeri.com                  17062021ADRIANA DE PAZ GALDAMEZ                                              
0480948        00000000000041174636400002138902595466554000000004146300017062021PAGO NOMINA                   11PUA150417AV7 00000000000000dgarcia@gruposeri.com                  17062021ALONSO LOPEZ VAZQUEZ                                                 
0480977        00000000000041174636400002126904300657335000000002200410017062021PAGO NOMINA                   11PUA150417AV7 00000000000000dgarcia@gruposeri.com                  17062021GUSTAVO GUADALUPE GONZALEZ ALVAREZ                                   
0481001        00000000000041174636400002100904320762792000000002747840017062021PAGO NOMINA                   11PUA150417AV7 00000000000000dgarcia@gruposeri.com                  17062021HECTOR ANTONIO SOLIS PEREZ                                           
0481005        00000000000041174636400002100904106947427000000003764020017062021PAGO NOMINA                   11PUA150417AV7 00000000000000dgarcia@gruposeri.com                  17062021MARIA JOSE GARCIA PALACIOS                                           
0481071        00000000000041174636400002100701658631170000000002162480017062021PAGO NOMINA                   11PUA150417AV7 00000000000000dgarcia@gruposeri.com                  17062021SARA VARGAS SANCHEZ                                                  
0481087        00000000000041174636400002580903899245031000000002747840017062021PAGO NOMINA                   11PUA150417AV7 00000000000000dgarcia@gruposeri.com                  17062021BERSAIN ARCE ESTUDILLO                                               
0481097        00000000000041174636400002138904617695939000000002747840017062021PAGO NOMINA                   11PUA150417AV7 00000000000000dgarcia@gruposeri.com                  17062021JORGE ALBERTO RAMOS ARELLANO                                         
0481108        00000000000041174636400002100904284585235000000002747840017062021PAGO NOMINA                   11PUA150417AV7 00000000000000dgarcia@gruposeri.com                  17062021ALEX ERIK HERNANDEZ ZOMA                                             
0481133        00000000000041174636400002100904390546964000000002747840017062021PAGO NOMINA                   11PUA150417AV7 00000000000000dgarcia@gruposeri.com                  17062021LORENZO AGUILAR AQUINO                                               
0481152        00000000000041174636400002100904027980327000000010700530017062021PAGO NOMINA                   11PUA150417AV7 00000000000000dgarcia@gruposeri.com                  17062021LILIANA DEL CARMEN ROBLEDO PEREZ                                     
0481148        00000000000041174636400002124904367927851000000002747840017062021PAGO NOMINA                   11PUA150417AV7 00000000000000dgarcia@gruposeri.com                  17062021NERY GUADALUPE DIAZ MICELI                                           
0481173        00000000000041174636400002135904548276187000000004718010017062021PAGO NOMINA                   11PUA150417AV7 00000000000000dgarcia@gruposeri.com                  17062021ADAMIT GUILLEN ZAVALA                                                
04902913       00000000000041174636400002010904382033889000000002747840017062021PAGO NOMINA                   11PUA150417AV7 00000000000000dgarcia@gruposeri.com                  17062021THAIRA ALEJANDRA HERNANDEZ MENDOZA                                   
04904091       00000000000041174636400002100903772408621000000002747840017062021PAGO NOMINA                   11PUA150417AV7 00000000000000dgarcia@gruposeri.com                  17062021JORGE AUGUSTO VAZQUEZ FIGUEROA                                       
04904294       00000000000041174636400002100904425277755000000002386270017062021PAGO NOMINA                   11PUA150417AV7 00000000000000dgarcia@gruposeri.com                  17062021LUIS ANTONIO CRUZ NAJERA                                             
04901004       00000000000041174636400021100065006504084000000002747840017062021PAGO NOMINA                   11PUA150417AV7 00000000000000dgarcia@gruposeri.com                  17062021YESENIA BERENICE ORTIZ GUTIERREZ                                     
0481161        00000000000041174636400021100064645031058000000004801180017062021PAGO NOMINA                   11PUA150417AV7 00000000000000dgarcia@gruposeri.com                  17062021LUCERO SUZAN ALVAREZ MIJANGOS                                        
0480989        00000000000041174636400021100064903581444000000002113880017062021PAGO NOMINA                   11PUA150417AV7 00000000000000dgarcia@gruposeri.com                  17062021HECTOR GUADALUPE VALENCIA MARTINEZ                                   
0480902        00000000000041174636400021876064239327839000000003627180017062021PAGO NOMINA                   11PUA150417AV7 00000000000000dgarcia@gruposeri.com                  17062021LUIS MIGUEL MILLAN CABANAS                                           
04903458       00000000000041174636400044100085079893776000000003999640017062021PAGO NOMINA                   11PUA150417AV7 00000000000000dgarcia@gruposeri.com                  17062021LUIS EMMANUEL MALDONADO ALCAZAR                                      
0480034        00000000000041174636400044100085065656891000000004438620017062021PAGO NOMINA                   11PUA150417AV7 00000000000000dgarcia@gruposeri.com                  17062021JOSE EDUARDO CHAMPO SUCHIAPA                                         
0480038        00000000000041174636400044100085066956985000000005500980017062021PAGO NOMINA                   11PUA150417AV7 00000000000000dgarcia@gruposeri.com                  17062021LISBETH EDOLITH ALBORES MEGCHUN                                      
0480039        00000000000041174636400044100085065856552000000007551110017062021PAGO NOMINA                   11PUA150417AV7 00000000000000dgarcia@gruposeri.com                  17062021DORY GUADALUPE MENDEZ ALVARADO                                       
0480046        00000000000041174636400127110013515526169000000003070500017062021PAGO NOMINA                   11PUA150417AV7 00000000000000dgarcia@gruposeri.com                  17062021BRAULIO SANCHEZ GUZMAN                                               
0437981        00000000000041174636400127104013501100521000000002747840017062021PAGO NOMINA                   11PUA150417AV7 00000000000000dgarcia@gruposeri.com                  17062021JARENY BERENICE SANCHEZ GUADARRAMA                                   
0433444        00000000000041174636400127104001397585359000000002075160017062021PAGO NOMINA                   11PUA150417AV7 00000000000000dgarcia@gruposeri.com                  17062021ANA MARIA VAZQUEZ MENDEZ                                             
0480239        00000000000041174636400127110013038757428000000003343890017062021PAGO NOMINA                   11PUA150417AV7 00000000000000dgarcia@gruposeri.com                  17062021MARIA DE JESUS MORALES ESTRADA                                       
0480191        00000000000041174636400127104013589387421000000009898690017062021PAGO NOMINA                   11PUA150417AV7 00000000000000dgarcia@gruposeri.com                  17062021DAVID RUVISEL MOLINA FONSECA                                         
0480192        00000000000041174636400127128001558475048000000002794780017062021PAGO NOMINA                   11PUA150417AV7 00000000000000dgarcia@gruposeri.com                  17062021JOSE GUADALUPE DE LA CRUZ VILLEGAS                                   
0480144        00000000000041174636400127124013454482745000000004028040017062021PAGO NOMINA                   11PUA150417AV7 00000000000000dgarcia@gruposeri.com                  17062021MARIA DEL ROSARIO HERNANDEZ CASTELLANOS                              
0480102        00000000000041174636400127111013282337800000000002122470017062021PAGO NOMINA                   11PUA150417AV7 00000000000000dgarcia@gruposeri.com                  17062021CLEMENTA TORRES GONZALEZ                                             
0480324        00000000000041174636400127100013263766320000000001631150017062021PAGO NOMINA                   11PUA150417AV7 00000000000000dgarcia@gruposeri.com                  17062021LAURA CRISTINA GARCIA ZUNUN                                          
0480304        00000000000041174636400127111013047679444000000003619550017062021PAGO NOMINA                   11PUA150417AV7 00000000000000dgarcia@gruposeri.com                  17062021ANGEL ALBERTO CHACON CABALLERO                                       
0480297        00000000000041174636400127138013533206540000000002747640017062021PAGO NOMINA                   11PUA150417AV7 00000000000000dgarcia@gruposeri.com                  17062021LIZBETH VENTURA ESTRADA                                              
0480445        00000000000041174636400127138013483636613000000001475650017062021PAGO NOMINA                   11PUA150417AV7 00000000000000dgarcia@gruposeri.com                  17062021GABRIEL POZO DE LA CRUZ                                              
0480582        00000000000041174636400127104013491213764000000002145710017062021PAGO NOMINA                   11PUA150417AV7 00000000000000dgarcia@gruposeri.com                  17062021MARCO ANTONIO DIAZ HERNANDEZ                                         
0480681        00000000000041174636400127279001976450853000000002151600017062021PAGO NOMINA                   11PUA150417AV7 00000000000000dgarcia@gruposeri.com                  17062021JOSE MANUEL PENALOZA ALTAMIRANO                                      
0480641        00000000000041174636400127138013809554939000000002747780017062021PAGO NOMINA                   11PUA150417AV7 00000000000000dgarcia@gruposeri.com                  17062021YASMIN SALDANA PEREZ                                                 
0480647        00000000000041174636400127104001116729862000000003379800017062021PAGO NOMINA                   11PUA150417AV7 00000000000000dgarcia@gruposeri.com                  17062021ISAIAS NUNEZ HERNANDEZ                                               
0480628        00000000000041174636400127111013779327802000000002747780017062021PAGO NOMINA                   11PUA150417AV7 00000000000000dgarcia@gruposeri.com                  17062021ANA MARIA MOLINA UTRILLA                                             
0480835        00000000000041174636400127111013327209408000000002144350017062021PAGO NOMINA                   11PUA150417AV7 00000000000000dgarcia@gruposeri.com                  17062021LUIS ANTONIO MENDEZ GOMEZ                                            
0480896        00000000000041174636400127100001339499601000000003764020017062021PAGO NOMINA                   11PUA150417AV7 00000000000000dgarcia@gruposeri.com                  17062021ANEL SAHIAN RIZO GALINDO                                             
0480862        00000000000041174636400127110001239294378000000001956970017062021PAGO NOMINA                   11PUA150417AV7 00000000000000dgarcia@gruposeri.com                  17062021CLAUDIA YESSENIA LOPEZ JIMENEZ                                       
0480871        00000000000041174636400127128013219744080000000003344160017062021PAGO NOMINA                   11PUA150417AV7 00000000000000dgarcia@gruposeri.com                  17062021JACQUELINE HERNANDEZ PATRACA                                         
0480925        00000000000041174636400127126013167769986000000002747840017062021PAGO NOMINA                   11PUA150417AV7 00000000000000dgarcia@gruposeri.com                  17062021FANNY BELLENY GARCIA SANGEADO                                        
0480755        00000000000041174636400127100013094452816000000002747780017062021PAGO NOMINA                   11PUA150417AV7 00000000000000dgarcia@gruposeri.com                  17062021ABRAHAM HERNANDEZ UTRILLA                                            
0480734        00000000000041174636400127110013060107745000000002244080017062021PAGO NOMINA                   11PUA150417AV7 00000000000000dgarcia@gruposeri.com                  17062021KARINA LIZETH DE LOS SANTOS REYES                                    
0480810        00000000000041174636400127180016548020737000000001671780017062021PAGO NOMINA                   11PUA150417AV7 00000000000000dgarcia@gruposeri.com                  17062021CARLOS MARTIN LOPEZ ENRIQUEZ                                         
0480798        00000000000041174636400127111001219287278000000002694080017062021PAGO NOMINA                   11PUA150417AV7 00000000000000dgarcia@gruposeri.com                  17062021CRISTINA ELIZABETH MARTINEZ CRUZ                                     
0480765        00000000000041174636400127138013132549501000000002747780017062021PAGO NOMINA                   11PUA150417AV7 00000000000000dgarcia@gruposeri.com                  17062021LUIS FERNANDO RUIZ MARINA                                            
0480980        00000000000041174636400127126013671720738000000002394160017062021PAGO NOMINA                   11PUA150417AV7 00000000000000dgarcia@gruposeri.com                  17062021ISIS PAMELA VILLALOBOS GENAREZ                                       
0480971        00000000000041174636400127100001189496317000000002747840017062021PAGO NOMINA                   11PUA150417AV7 00000000000000dgarcia@gruposeri.com                  17062021AARON RAMIREZ CABRERA                                                
0481021        00000000000041174636400127110013171064638000000002747840017062021PAGO NOMINA                   11PUA150417AV7 00000000000000dgarcia@gruposeri.com                  17062021JOSE LEYVER SANCHEZ LOPEZ                                            
0481091        00000000000041174636400127117013459048971000000002747840017062021PAGO NOMINA                   11PUA150417AV7 00000000000000dgarcia@gruposeri.com                  17062021JULIO ENRIQUE CASTILLEJOS MONTOYA                                    
0481056        00000000000041174636400127794001528690229000000002747840017062021PAGO NOMINA                   11PUA150417AV7 00000000000000dgarcia@gruposeri.com                  17062021ALFONSO PEREZ DE LA CRUZ                                             
0481062        00000000000041174636400127100013917454166000000002244160017062021PAGO NOMINA                   11PUA150417AV7 00000000000000dgarcia@gruposeri.com                  17062021NALLELY ELIZABETH GARCIA HERNANDEZ                                   
0481045        00000000000041174636400127104001301228165000000002021910017062021PAGO NOMINA                   11PUA150417AV7 00000000000000dgarcia@gruposeri.com                  17062021TEOFILO ALEJANDRO MARTINEZ GOMEZ                                     
0481103        00000000000041174636400127100001361190664000000003344160017062021PAGO NOMINA                   11PUA150417AV7 00000000000000dgarcia@gruposeri.com                  17062021SANDRA ADILENE CRUZ PEREZ                                            
0481105        00000000000041174636400127128013690679884000000002747840017062021PAGO NOMINA                   11PUA150417AV7 00000000000000dgarcia@gruposeri.com                  17062021JEREMIAS DOMINGUEZ PEREZ                                             
0481128        00000000000041174636400127117013578240168000000002544160017062021PAGO NOMINA                   11PUA150417AV7 00000000000000dgarcia@gruposeri.com                  17062021BLANCA ANDREA VELASCO ESCOBAR                                        
0481129        00000000000041174636400127111001013095585000000002176340017062021PAGO NOMINA                   11PUA150417AV7 00000000000000dgarcia@gruposeri.com                  17062021CRISTIAN DE JESUS HERNANDEZ SANCHEZ                                  
0481111        00000000000041174636400127110013484942890000000002286160017062021PAGO NOMINA                   11PUA150417AV7 00000000000000dgarcia@gruposeri.com                  17062021DEYSI GUADALUPE PEREZ VAZQUEZ                                        
0481113        00000000000041174636400127128001255236797000000002567050017062021PAGO NOMINA                   11PUA150417AV7 00000000000000dgarcia@gruposeri.com                  17062021EDUARDO DAVID VILLEGAS SALVADOR                                      
0481151        00000000000041174636400127135001299545990000000002394160017062021PAGO NOMINA                   11PUA150417AV7 00000000000000dgarcia@gruposeri.com                  17062021ADRIANA SOLIS PENA                                                   
0481143        00000000000041174636400127111013607955430000000002372220017062021PAGO NOMINA                   11PUA150417AV7 00000000000000dgarcia@gruposeri.com                  17062021GUSTAVO ALBERTO HERNANDEZ PEREZ                                      
0481145        00000000000041174636400127111001228715757000000002544160017062021PAGO NOMINA                   11PUA150417AV7 00000000000000dgarcia@gruposeri.com                  17062021LUIS FRANCISCO SANDOVAL ROBLERO                                      
0481175        00000000000041174636400127126013749481420000000002747840017062021PAGO NOMINA                   11PUA150417AV7 00000000000000dgarcia@gruposeri.com                  17062021JAVIER RODRIGUEZ SALAS                                               
0481165        00000000000041174636400127100001350983400000000003022900017062021PAGO NOMINA                   11PUA150417AV7 00000000000000dgarcia@gruposeri.com                  17062021YESSICA GUADALUPE JIMENEZ GUMETA                                     
04901295       00000000000041174636400127180016787254241000000002994160017062021PAGO NOMINA                   11PUA150417AV7 00000000000000dgarcia@gruposeri.com                  17062021CRISTIAN LAURIANA PENAGOS PEREZ                                      
04901362       00000000000041174636400127104013769473252000000001982950017062021PAGO NOMINA                   11PUA150417AV7 00000000000000dgarcia@gruposeri.com                  17062021SAUL ALEXIS DE LA CRUZ HERNANDEZ                                     
04901520       00000000000041174636400127138001306164999000000002747840017062021PAGO NOMINA                   11PUA150417AV7 00000000000000dgarcia@gruposeri.com                  17062021OSCAR JESUS MACIAS DELGADO                                           
04901552       00000000000041174636400127107013605653913000000002747840017062021PAGO NOMINA                   11PUA150417AV7 00000000000000dgarcia@gruposeri.com                  17062021SERGIO ANTONIO GIL HERRERA                                           
0481180        00000000000041174636400127124013150499540000000002747840017062021PAGO NOMINA                   11PUA150417AV7 00000000000000dgarcia@gruposeri.com                  17062021IOANA ELIZABETH MARROQUIN PIMENTEL                                   
04903843       00000000000041174636400127138013605929823000000002747840017062021PAGO NOMINA                   11PUA150417AV7 00000000000000dgarcia@gruposeri.com                  17062021ESTEBAN CALVO CORDOVA                                                
04903893       00000000000041174636400127100001298803008000000002747840017062021PAGO NOMINA                   11PUA150417AV7 00000000000000dgarcia@gruposeri.com                  17062021JESUS GUADALUPE PEREZ VAZQUEZ                                        
04903788       00000000000041174636400127794001424781892000000002747840017062021PAGO NOMINA                   11PUA150417AV7 00000000000000dgarcia@gruposeri.com                  17062021YARELI LAZARO RODRIGUEZ                                              
04903183       00000000000041174636400127128001333483611000000002164510017062021PAGO NOMINA                   11PUA150417AV7 00000000000000dgarcia@gruposeri.com                  17062021JUAN DE DIOS ESTEBAN VILLEGAS                                        
04903068       00000000000041174636400127124013086939637000000002747840017062021PAGO NOMINA                   11PUA150417AV7 00000000000000dgarcia@gruposeri.com                  17062021MARIA ANGELA SANCHEZ RUIZ                                            
04902274       00000000000041174636400127111013746386423000000001906180017062021PAGO NOMINA                   11PUA150417AV7 00000000000000dgarcia@gruposeri.com                  17062021ALEXIS MICHEL SANCHEZ ROBLES                                         
04902874       00000000000041174636400127100001360580000000000002747840017062021PAGO NOMINA                   11PUA150417AV7 00000000000000dgarcia@gruposeri.com                  17062021ULISES ANTONIO MORALES LIEVANO                                       
04904350       00000000000041174636400127117013254387808000000002747840017062021PAGO NOMINA                   11PUA150417AV7 00000000000000dgarcia@gruposeri.com                  17062021FERNANDO ULISES VAZQUEZ LOPEZ                                        
04904056       00000000000041174636400127100013423879921000000002747840017062021PAGO NOMINA                   11PUA150417AV7 00000000000000dgarcia@gruposeri.com                  17062021JAVIER PEREZ PEREZ                                                   
04904062       00000000000041174636400127111001430570913000000002747840017062021PAGO NOMINA                   11PUA150417AV7 00000000000000dgarcia@gruposeri.com                  17062021ANGEL ANTONIO PEREZ MORALES                                          
04904290       00000000000041174636400127126013256041078000000002567050017062021PAGO NOMINA                   11PUA150417AV7 00000000000000dgarcia@gruposeri.com                  17062021JOSE FRANCISCO SANCHEZ GOMEZ                                         
04904215       00000000000041174636400137107101898506339000000002747840017062021PAGO NOMINA                   11PUA150417AV7 00000000000000dgarcia@gruposeri.com                  17062021VICTOR HUGO VELAZQUEZ LOPEZ                                          
04902188       00000000000041174636400137111104026148840000000002245400017062021PAGO NOMINA                   11PUA150417AV7 00000000000000dgarcia@gruposeri.com                  17062021MARLON ELIEZER SANCHEZ ROBLES                                        
04903305       00000000000041174636400137100103596607881000000002747840017062021PAGO NOMINA                   11PUA150417AV7 00000000000000dgarcia@gruposeri.com                  17062021EUCARIO VAZQUEZ OCANA                                                
04903835       00000000000041174636400137100104071330193000000002747840017062021PAGO NOMINA                   11PUA150417AV7 00000000000000dgarcia@gruposeri.com                  17062021CESAR ALBERTO PETRIZ RAMIREZ                                         
04903896       00000000000041174636400137580102908964403000000002747840017062021PAGO NOMINA                   11PUA150417AV7 00000000000000dgarcia@gruposeri.com                  17062021CAROLINA GONZALEZ GARCIA                                             
04901157       00000000000041174636400137320102860995518000000002747840017062021PAGO NOMINA                   11PUA150417AV7 00000000000000dgarcia@gruposeri.com                  17062021JUAN JOSE VELASCO RODRIGUEZ                                          
04521378       00000000000041174636400137100104078995269000000003764020017062021PAGO NOMINA                   11PUA150417AV7 00000000000000dgarcia@gruposeri.com                  17062021CAROL SHUNASHI GUTIERREZ CIRIACO                                     
04901634       00000000000041174636400137100103816855229000000002747840017062021PAGO NOMINA                   11PUA150417AV7 00000000000000dgarcia@gruposeri.com                  17062021ITZEL MONZERRAT DELGADO LAZARO                                       
0481171        00000000000041174636400137138102338225452000000002747840017062021PAGO NOMINA                   11PUA150417AV7 00000000000000dgarcia@gruposeri.com                  17062021LISANIA PETRIZ GORDILLO                                              
0481177        00000000000041174636400137128103098743704000000002747840017062021PAGO NOMINA                   11PUA150417AV7 00000000000000dgarcia@gruposeri.com                  17062021CARLOS DANIEL REYES REYES                                            
0481189        00000000000041174636400137133101157111604000000002544160017062021PAGO NOMINA                   11PUA150417AV7 00000000000000dgarcia@gruposeri.com                  17062021ROCIO DE LOS SANTOS SANTOS                                           
0481058        00000000000041174636400137100130042432984000000002747840017062021PAGO NOMINA                   11PUA150417AV7 00000000000000dgarcia@gruposeri.com                  17062021ALEXIS SAYANA SANCHEZ ALVAREZ                                        
0481059        00000000000041174636400137128102207044460000000002144300017062021PAGO NOMINA                   11PUA150417AV7 00000000000000dgarcia@gruposeri.com                  17062021FABIAN EMETERIO RICARDEZ                                             
0481050        00000000000041174636400137107103387189139000000002694160017062021PAGO NOMINA                   11PUA150417AV7 00000000000000dgarcia@gruposeri.com                  17062021NAYELI GUADALUPE CRUZ ZARATE                                         
0481051        00000000000041174636400137780100131079268000000003090910017062021PAGO NOMINA                   11PUA150417AV7 00000000000000dgarcia@gruposeri.com                  17062021ROCIO EUNICE CHAVEZ LOPEZ                                            
0481068        00000000000041174636400137100100166099495000000002747840017062021PAGO NOMINA                   11PUA150417AV7 00000000000000dgarcia@gruposeri.com                  17062021ELISA ARACELI GUZMAN MENDEZ                                          
0481070        00000000000041174636400137100130030172272000000002747840017062021PAGO NOMINA                   11PUA150417AV7 00000000000000dgarcia@gruposeri.com                  17062021MIGUEL OCTAVIO HERNANDEZ PEREZ                                       
0481078        00000000000041174636400137138102687961218000000002994160017062021PAGO NOMINA                   11PUA150417AV7 00000000000000dgarcia@gruposeri.com                  17062021GUADALUPE DE LA CRUZ SALAZAR                                         
0480754        00000000000041174636400137100103532509529000000002747780017062021PAGO NOMINA                   11PUA150417AV7 00000000000000dgarcia@gruposeri.com                  17062021ROCIO ARLETH PEREZ NUNEZ                                             
0480961        00000000000041174636400137100130033635677000000002747840017062021PAGO NOMINA                   11PUA150417AV7 00000000000000dgarcia@gruposeri.com                  17062021DOMINGO DIAZ LOPEZ                                                   
0480939        00000000000041174636400137798103352166826000000002140700017062021PAGO NOMINA                   11PUA150417AV7 00000000000000dgarcia@gruposeri.com                  17062021JUAN LUIS DOMINGUEZ LOPEZ                                            
0480897        00000000000041174636400137100102017247705000000002747840017062021PAGO NOMINA                   11PUA150417AV7 00000000000000dgarcia@gruposeri.com                  17062021JUDITH AZUCENA SERRANO MACIAS                                        
0480868        00000000000041174636400137100101744170971000000003764020017062021PAGO NOMINA                   11PUA150417AV7 00000000000000dgarcia@gruposeri.com                  17062021YEREMIT CASANDRA RODRIGUEZ ARELLANO                                  
0480850        00000000000041174636400137111101285282757000000003114520017062021PAGO NOMINA                   11PUA150417AV7 00000000000000dgarcia@gruposeri.com                  17062021ZAIRA YANET ORTIZ VAZQUEZ                                            
0480600        00000000000041174636400137107101807922315000000005348900017062021PAGO NOMINA                   11PUA150417AV7 00000000000000dgarcia@gruposeri.com                  17062021PASCUALA LOPEZ CERVANTES                                             
0480466        00000000000041174636400137100100967451041000000002122610017062021PAGO NOMINA                   11PUA150417AV7 00000000000000dgarcia@gruposeri.com                  17062021SONIA RAMOS VILLALOBOS                                               
0480527        00000000000041174636400137100103227963454000000001878170017062021PAGO NOMINA                   11PUA150417AV7 00000000000000dgarcia@gruposeri.com                  17062021MAYOLI DE PAZ TORRES                                                 
0480522        00000000000041174636400137100100964709547000000001811560017062021PAGO NOMINA                   11PUA150417AV7 00000000000000dgarcia@gruposeri.com                  17062021CARLOS ALBERTO SEAS AGUILAR                                          
0480369        00000000000041174636400137111102925804232000000002747710017062021PAGO NOMINA                   11PUA150417AV7 00000000000000dgarcia@gruposeri.com                  17062021ADI YANETH HERNANDEZ PEREZ                                           
0480092        00000000000041174636400137107103393385451000000004025310017062021PAGO NOMINA                   11PUA150417AV7 00000000000000dgarcia@gruposeri.com                  17062021IVAN ERNESTO RUIZ ESPINOSA                                           
0480040        00000000000041174636400137100102884469334000000007110500017062021PAGO NOMINA                   11PUA150417AV7 00000000000000dgarcia@gruposeri.com                  17062021CARLOS ANTONIO MACIAS NURICUMBO                                      
