EEHA8817801                                                                                                                                                                                                                                                                                                                                                                       
EEHB000000091004108100000000001000                                                                                                                                                                                                                                                                                                                                                
EEDA0400000000000267270202102250170164                            ESCOBAR VAZQUEZ LEONOR ENCARNACION      000000000000000100000000000002113306442457788100000                                        9 00000044021001PAGO NOMINA                                                                                                   0000000021133064424577881                      
EEDA0400000000000471196202102250170179                            RUIZ RODAS ROMEO FRANCISCO              000000000000000200000000000002113306374385691200000                                        9 00000044021001PAGO NOMINA                                                                                                   0000000021133063743856912                      
EEDA0400000000000184729202102250170610                            GAMBOA RUBIO LAURA YANETH               000000000000000300000000000002113306461131785400000                                        9 00000044021001PAGO NOMINA                                                                                                   0000000021133064611317854                      
EEDA0400000000000193365202102250170803                            LOPEZ OCEGUERA OSCAR DANIEL             000000000000000400000000000002113306478451754900000                                        9 00000044021001PAGO NOMINA                                                                                                   0000000021133064784517549                      
EEDA0400000000000253128202102250170962                            CABALLERO VENTURA JONATHAN              000000000000000500000000000001213301567187084900000                                        9 00000044021001PAGO NOMINA                                                                                                   0000000012133015671870849                      
EEDA0400000000000251221202102250170952                            HERNANDEZ LOPEZ VERA LILIANA            000000000000000600000000000012711100131875188300000                                        9 00000044127001PAGO NOMINA                                                                                                   0000000127111001318751883                      
EEDA0400000000000276501202102250170955                            CRUZ PALOMEQUE JORGE ALBERTO            000000000000000700000000000012711100132837352300000                                        9 00000044127001PAGO NOMINA                                                                                                   0000000127111001328373523                      
EEDA0400000000000256221202102250170960                            CISNEROS GALDAMEZ SERGIO                000000000000000800000000000012711400130054269600000                                        9 00000044127001PAGO NOMINA                                                                                                   0000000127114001300542696                      
EEDA0400000000000256221202102250170924                            ROBLERO VAZQUEZ FRANCY BERENICE         000000000000000900000000000012711101362733210100000                                        9 00000044127001PAGO NOMINA                                                                                                   0000000127111013627332101                      
EEDA0400000000000246221202102250170935                            RAMOS MEJIA SAUL ADRIAN                 000000000000001000000000000012713300124565143200000                                        9 00000044127001PAGO NOMINA                                                                                                   0000000127133001245651432                      
EEDA0400000000000413047202102250170936                            HERNANDEZ MORALES MABEL INES            000000000000001100000000000012712200135671941000000                                        9 00000044127001PAGO NOMINA                                                                                                   0000000127122001356719410                      
EEDA0400000000000276501202102250170964                            ALFARO ANTONIO LUIS REY                 000000000000001200000000000012712100130452800700000                                        9 00000044127001PAGO NOMINA                                                                                                   0000000127121001304528007                      
EEDA0400000000000223761202102250170965                            SANCHEZ ESPINOZA MARGARITA CONCEPCION   000000000000001300000000000012713300133287625600000                                        9 00000044127001PAGO NOMINA                                                                                                   0000000127133001332876256                      
EEDA0400000000000131124202102250170972                            MOLINA OROZCO MANUEL DE JESUS           000000000000001400000000000012713300111009365900000                                        9 00000044127001PAGO NOMINA                                                                                                   0000000127133001110093659                      
EEDA0400000000000301015202102250170985                            AGUILAR LOPEZ JUVENAL                   000000000000001500000000000012713500130264127300000                                        9 00000044127001PAGO NOMINA                                                                                                   0000000127135001302641273                      
EEDA0400000000000317990202102250170987                            VILLALOBOS FLORES JHONNATAN             000000000000001600000000000012710300127923080400000                                        9 00000044127001PAGO NOMINA                                                                                                   0000000127103001279230804                      
EEDA0400000000000249689202102250170991                            VENTURA LOPEZ YESENIA ESMIRNA           000000000000001700000000000012710501340639030900000                                        9 00000044127001PAGO NOMINA                                                                                                   0000000127105013406390309                      
EEDA0400000000000276480202102250170994                            GOMEZ MORALES ADILENE                   000000000000001800000000000012712101341028651900000                                        9 00000044127001PAGO NOMINA                                                                                                   0000000127121013410286519                      
EEDA04000000000002765012021022501901238                           RAMIREZ RAMIREZ ROMEO                   000000000000001900000000000012711401385071698600000                                        9 00000044127001PAGO NOMINA                                                                                                   0000000127114013850716986                      
EEDA04000000000001482672021022501901424                           AGUILAR GONZALEZ JESUS FRANCISCO        000000000000002000000000000012711400137572157800000                                        9 00000044127001PAGO NOMINA                                                                                                   0000000127114001375721578                      
EEDA04000000000003179802021022501901610                           LOPEZ ORTIZ JOSE GUILLERMO              000000000000002100000000000012713500116387111400000                                        9 00000044127001PAGO NOMINA                                                                                                   0000000127135001163871114                      
EEDA04000000000003179802021022501901683                           GUTIERREZ PINEDA SIXTO                  000000000000002200000000000012713500115624484200000                                        9 00000044127001PAGO NOMINA                                                                                                   0000000127135001156244842                      
EEDA04000000000003179802021022501901718                           CABALLERO RAMIREZ FELIPE FRANCISCO      000000000000002300000000000012713501395871461000000                                        9 00000044127001PAGO NOMINA                                                                                                   0000000127135013958714610                      
EEDA04000000000002764802021022501901788                           ESPINOZA RAMIREZ JHOVANI                000000000000002400000000000012712701378735988500000                                        9 00000044127001PAGO NOMINA                                                                                                   0000000127127013787359885                      
EEDA04000000000002764802021022501901828                           GOMEZ MORALES ESVIN                     000000000000002500000000000012711101317554067800000                                        9 00000044127001PAGO NOMINA                                                                                                   0000000127111013175540678                      
EEDA04000000000001467842021022501902069                           MARTINEZ MEZA GUILLERMO                 000000000000002600000000000012713300131895236900000                                        9 00000044127001PAGO NOMINA                                                                                                   0000000127133001318952369                      
EEDA04000000000002764802021022501902095                           ROQUE ROCHA ANGEL ANTONIO               000000000000002700000000000012710300123655483700000                                        9 00000044127001PAGO NOMINA                                                                                                   0000000127103001236554837                      
EEDA04000000000002562172021022501902189                           HERNANDEZ ZAMORANO LILIANA              000000000000002800000000000012711101323916260400000                                        9 00000044127001PAGO NOMINA                                                                                                   0000000127111013239162604                      
EEDA04000000000002764802021022501902381                           RAMOS RAMOS ANTONIO                     000000000000002900000000000012718001626556229300000                                        9 00000044127001PAGO NOMINA                                                                                                   0000000127180016265562293                      
EEDA04000000000002562182021022501902706                           CAMPERO OSORIO EVELIO                   000000000000003000000000000012712100132313673900000                                        9 00000044127001PAGO NOMINA                                                                                                   0000000127121001323136739                      
EEDA04000000000002895372021022501902759                           VALDENEGRO CASTRO GLORIA CITLALLY       000000000000003100000000000012732001708961408900000                                        9 00000044127001PAGO NOMINA                                                                                                   0000000127320017089614089                      
EEDA04000000000002562182021022501902772                           VICTORIO PEREZ KARLA JOVITA             000000000000003200000000000012713300132129822700000                                        9 00000044127001PAGO NOMINA                                                                                                   0000000127133001321298227                      
EEDA04000000000002764802021022501902836                           MARTINEZ VAZQUEZ PABLO ANTONIO          000000000000003300000000000012713501379233232600000                                        9 00000044127001PAGO NOMINA                                                                                                   0000000127135013792332326                      
EEDA04000000000002764802021022501902839                           PEREZ MENDEZ MARCO ANTONIO              000000000000003400000000000012712301300489267600000                                        9 00000044127001PAGO NOMINA                                                                                                   0000000127123013004892676                      
EEDA04000000000002764802021022501902842                           LOPEZ ZAMBRANO ISELA CONCEPCION         000000000000003500000000000012712701367718536300000                                        9 00000044127001PAGO NOMINA                                                                                                   0000000127127013677185363                      
EEDA0400000000000212377202102250170810                            HERNANDEZ NINO YASURI                   000000000000003600000000000012711101363324953400000                                        9 00000044127001PAGO NOMINA                                                                                                   0000000127111013633249534                      
EEDA0400000000000256221202102250170825                            LOPEZ RODRIGUEZ LUIS ALBERTO            000000000000003700000000000012712701319001466500000                                        9 00000044127001PAGO NOMINA                                                                                                   0000000127127013190014665                      
EEDA0400000000000184630202102250170846                            PALOMEQUE LOPEZ JOSUE EMANUEL           000000000000003800000000000012713300114663750000000                                        9 00000044127001PAGO NOMINA                                                                                                   0000000127133001146637500                      
EEDA0400000000000256221202102250170861                            RUIZ CABALLERO JUAN JOSE                000000000000003900000000000000210090455508559000000                                        9 00000044127001PAGO NOMINA                                                                                                   0000000002100904555085590                      
EEDA0400000000000276501202102250170888                            RODRIGUEZ ZARATE DOMINGO ANTONIO        000000000000004000000000000012712101381856846000000                                        9 00000044127001PAGO NOMINA                                                                                                   0000000127121013818568460                      
EEDA0400000000000218168202102250170677                            DEL PORTE ESCOBAR ANA LIDIA             000000000000004100000000000012712701320142985100000                                        9 00000044127001PAGO NOMINA                                                                                                   0000000127127013201429851                      
EEDA0400000000000208565202102250170695                            SALAS PEREZ JOSE LUIS                   000000000000004200000000000012712101338423650100000                                        9 00000044127001PAGO NOMINA                                                                                                   0000000127121013384236501                      
EEDA0400000000000189987202102250170698                            GOMEZ ARIAS MANUEL DE JESUS             000000000000004300000000000012784101701487705300000                                        9 00000044127001PAGO NOMINA                                                                                                   0000000127841017014877053                      
EEDA0400000000000188285202102250170733                            VAZQUEZ OVALLES JOSE LUIS               000000000000004400000000000012711100113871378400000                                        9 00000044127001PAGO NOMINA                                                                                                   0000000127111001138713784                      
EEDA0400000000000387338202102250170763                            ESCALANTE PAZ DARVIN ARTURO             000000000000004500000000000012711401358152861800000                                        9 00000044127001PAGO NOMINA                                                                                                   0000000127114013581528618                      
EEDA0400000000000256221202102250170791                            CHUN RAMIREZ HUMBERTO GAVINO            000000000000004600000000000012710500106803740700000                                        9 00000044127001PAGO NOMINA                                                                                                   0000000127105001068037407                      
EEDA0400000000000256221202102250170801                            CRUZ LOPEZ SAULO AARON                  000000000000004700000000000012710500113927293900000                                        9 00000044127001PAGO NOMINA                                                                                                   0000000127105001139272939                      
EEDA0400000000000256214202102250170616                            ROBLERO VELASQUEZ MARLENI DE JESUS      000000000000004800000000000012710501382747300900000                                        9 00000044127001PAGO NOMINA                                                                                                   0000000127105013827473009                      
EEDA0400000000000466489202102250170549                            COTOC MORADO SULMA BEATRIZ              000000000000004900000000000012711400115994467800000                                        9 00000044127001PAGO NOMINA                                                                                                   0000000127114001159944678                      
EEDA0400000000000134083202102250170555                            SANCHEZ PALACIOS MARIA ISABEL           000000000000005000000000000012710300111909077700000                                        9 00000044127001PAGO NOMINA                                                                                                   0000000127103001119090777                      
EEDA0400000000000416113202102250170042                            MORALES MEDINA LUIS ANTONIO             000000000000005100000000000012718001633283447200000                                        9 00000044127001PAGO NOMINA                                                                                                   0000000127180016332834472                      
EEDA0400000000000156652202102250170068                            CRUZ LAZARO ERICELDA                    000000000000005200000000000012712101312907083800000                                        9 00000044127001PAGO NOMINA                                                                                                   0000000127121013129070838                      
EEDA0400000000000188120202102250170510                            LOPEZ LUNA OTNIEL                       000000000000005300000000000012713300110330100200000                                        9 00000044127001PAGO NOMINA                                                                                                   0000000127133001103301002                      
EEDA0400000000000072313202102250170195                            SOTO GUTIERREZ IRMA DANIELA             000000000000005400000000000012713300128243774500000                                        9 00000044127001PAGO NOMINA                                                                                                   0000000127133001282437745                      
EEDA0400000000000533166202102250170244                            REYES REYES RUTH ELIZABETH              000000000000005500000000000012712101305784436900000                                        9 00000044127001PAGO NOMINA                                                                                                   0000000127121013057844369                      
EEDA0400000000000249028202102250170307                            MALDONADO GUZMAN BERNARDO               000000000000005600000000000012711400115172420700000                                        9 00000044127001PAGO NOMINA                                                                                                   0000000127114001151724207                      
EEDA0400000000000533166202102250170311                            MENDEZ ALONSO AZUCENA                   000000000000005700000000000012712101317819795300000                                        9 00000044127001PAGO NOMINA                                                                                                   0000000127121013178197953                      
EEDA0400000000000298228202102250170313                            RIVAS AGUILERA ERVIN OSVALDO            000000000000005800000000000012713301328098530000000                                        9 00000044127001PAGO NOMINA                                                                                                   0000000127133013280985300                      
EEDA0400000000000239676202102250170322                            JIMENEZ ROBLERO MARBILA LIZETH          000000000000005900000000000012710501369131939900000                                        9 00000044127001PAGO NOMINA                                                                                                   0000000127105013691319399                      
EEDA0400000000000313178202102250170323                            CRUZ SANCHO LORENA                      000000000000006000000000000012712701302183285100000                                        9 00000044127001PAGO NOMINA                                                                                                   0000000127127013021832851                      
EEDA0400000000000256214202102250170362                            ARELLANO SAMAYOA OSVALDO JAVIER         000000000000006100000000000012713301341753218600000                                        9 00000044127001PAGO NOMINA                                                                                                   0000000127133013417532186                      
EEDA0400000000000212370202102250170468                            HERNANDEZ LUNA CITLALI                  000000000000006200000000000012712101366098984400000                                        9 00000044127001PAGO NOMINA                                                                                                   0000000127121013660989844                      
EEDA0400000000000256214202102250170483                            LOPEZ DE LEON SHIRLEY YESENIA           000000000000006300000000000012710501395537953800000                                        9 00000044127001PAGO NOMINA                                                                                                   0000000127105013955379538                      
EEDA04000000000002714802021022501903172                           CULEBRO DURAN JORGE ALBERTO             000000000000006400000000000012712701391079426200000                                        9 00000044127001PAGO NOMINA                                                                                                   0000000127127013910794262                      
EEDA04000000000002764802021022501903317                           MENDEZ PONCE HECTOR                     000000000000006500000000000012718001611172730200000                                        9 00000044127001PAGO NOMINA                                                                                                   0000000127180016111727302                      
EEDA04000000000002714802021022501903418                           DE LA ROSA RUIZ LILIANA                 000000000000006600000000000012712101313475940300000                                        9 00000044127001PAGO NOMINA                                                                                                   0000000127121013134759403                      
EEDA04000000000002714802021022501903512                           HERNANDEZ LOPEZ EDUARDO                 000000000000006700000000000012712101334165378700000                                        9 00000044127001PAGO NOMINA                                                                                                   0000000127121013341653787                      
EEDA04000000000002714802021022501903560                           ORDONEZ VELAZQUEZ JUAN ALEJANDRO        000000000000006800000000000012713300138847708100000                                        9 00000044127001PAGO NOMINA                                                                                                   0000000127133001388477081                      
EEDA04000000000002714802021022501903801                           CITALAN MINA CARLOS MANUEL              000000000000006900000000000012711100111303675800000                                        9 00000044127001PAGO NOMINA                                                                                                   0000000127111001113036758                      
EEDA04000000000002714802021022501903914                           FIGUEROA RODAS MARIO ALBERTO            000000000000007000000000000012711400111945435700000                                        9 00000044127001PAGO NOMINA                                                                                                   0000000127114001119454357                      
EEDA04000000000002714802021022501903438                           ALFARO NUCAMENDI DANIEL ALBERTO         000000000000007100000000000012710001310587259200000                                        9 00000044127001PAGO NOMINA                                                                                                   0000000127100013105872592                      
EEDA04000000000002254912021022501904084                           ROSALES GOMEZ LUIS EDUARDO              000000000000007200000000000001212701536059543800000                                        9 00000044127001PAGO NOMINA                                                                                                   0000000012127015360595438                      
EEDA04000000000002254912021022501904090                           GARCIA JIMENEZ ARLETT                   000000000000007300000000000013712110418352120600000                                        9 00000044137001PAGO NOMINA                                                                                                   0000000137121104183521206                      
EEDA04000000000002664802021022501903453                           AMBROSIO CUETO ELIAS BERNARDINO         000000000000007400000000000013761610292791297300000                                        9 00000044137001PAGO NOMINA                                                                                                   0000000137616102927912973                      
EEDA04000000000002512182021022501904053                           GIRON GUERRA JUAN CARLOS                000000000000007500000000000013713310377579734300000                                        9 00000044137001PAGO NOMINA                                                                                                   0000000137133103775797343                      
EEDA04000000000002512182021022501904059                           GONZALEZ PEREZ AMAIRANI MONSERRTA       000000000000007600000000000013713310412268585800000                                        9 00000044137001PAGO NOMINA                                                                                                   0000000137133104122685858                      
EEDA04000000000002714802021022501903435                           LOPEZ DUQUE DE ESTRADA NOE              000000000000007700000000000013710310382551686000000                                        9 00000044137001PAGO NOMINA                                                                                                   0000000137103103825516860                      
EEDA0400000000000249428202102250170484                            HERNANDEZ MORALES JOSE DANIEL           000000000000007800000000000013761613003898525600000                                        9 00000044137001PAGO NOMINA                                                                                                   0000000137616130038985256                      
EEDA0400000000000109797202102250170528                            PEREZ GODINEZ ESTUARDO RAMON            000000000000007900000000000013711410064108862900000                                        9 00000044137001PAGO NOMINA                                                                                                   0000000137114100641088629                      
EEDA0400000000000140496202102250170069                            MONTES GAMINO MARGARITA                 000000000000008000000000000013712110349438084900000                                        9 00000044137001PAGO NOMINA                                                                                                   0000000137121103494380849                      
EEDA0400000000000195664202102250170605                            BIZAR CRUZ VICTOR ALFONSO               000000000000008100000000000013712110343156087100000                                        9 00000044137001PAGO NOMINA                                                                                                   0000000137121103431560871                      
EEDA0400000000000276501202102250170643                            MORENO PALACIOS KAREN                   000000000000008200000000000013712710327487995600000                                        9 00000044137001PAGO NOMINA                                                                                                   0000000137127103274879956                      
EEDA0400000000000195819202102250170742                            MEJIA RUBIO JOSUE IXAEL                 000000000000008300000000000013713310306787506700000                                        9 00000044137001PAGO NOMINA                                                                                                   0000000137133103067875067                      
EEDA0400000000000276501202102250170752                            DE LA CRUZ GOMEZ JOSE IGNACIO           000000000000008400000000000013712110343745244600000                                        9 00000044137001PAGO NOMINA                                                                                                   0000000137121103437452446                      
EEDA0400000000000233761202102250170708                            REYNOZA GARCIA MIRIAM CONSUELO          000000000000008500000000000013713310162913390300000                                        9 00000044137001PAGO NOMINA                                                                                                   0000000137133101629133903                      
EEDA0400000000000231677202102250170690                            ARGUETA MARTINEZ GREYSI NATALY          000000000000008600000000000013713310232461808100000                                        9 00000044137001PAGO NOMINA                                                                                                   0000000137133102324618081                      
EEDA0400000000000317990202102250170918                            AGUILAR ARCHILA CESAR OBDULIO           000000000000008700000000000013761610391684079600000                                        9 00000044137001PAGO NOMINA                                                                                                   0000000137616103916840796                      
EEDA0400000000000339754202102250170867                            PALMA RAYA FANNY                        000000000000008800000000000013711410296092962900000                                        9 00000044137001PAGO NOMINA                                                                                                   0000000137114102960929629                      
EEDA0400000000000276501202102250170885                            DURANTES GARCIA JOSE ANTELMO            000000000000008900000000000013732010265822660600000                                        9 00000044137001PAGO NOMINA                                                                                                   0000000137320102658226606                      
EEDA0400000000000301015202102250170853                            PASCACIO LORENZANA MARITZA              000000000000009000000000000013761613001839530300000                                        9 00000044137001PAGO NOMINA                                                                                                   0000000137616130018395303                      
EEDA04000000000002764802021022501903032                           ESCOBAR SALAZAR GILBERTO                000000000000009100000000000013710013001234611000000                                        9 00000044137001PAGO NOMINA                                                                                                   0000000137100130012346110                      
EEDA04000000000002764802021022501903106                           DE LA CRUZ GIL JORGE DANIEL             000000000000009200000000000013710310410783946800000                                        9 00000044137001PAGO NOMINA                                                                                                   0000000137103104107839468                      
EEDA04000000000002562182021022501902480                           GUTIERREZ GAMBOA ANABELL                000000000000009300000000000013713310411044560200000                                        9 00000044137001PAGO NOMINA                                                                                                   0000000137133104110445602                      
EEDA04000000000002765012021022501901240                           GABRIEL HERNANDEZ SANDRI                000000000000009400000000000013711410406102292800000                                        9 00000044137001PAGO NOMINA                                                                                                   0000000137114104061022928                      
EEDA04000000000002337612021022501901122                           SALVADOR GOMEZ ITZEL BERENICE           000000000000009500000000000013713310156141424300000                                        9 00000044137001PAGO NOMINA                                                                                                   0000000137133101561414243                      
EEDA04000000000002764802021022501901186                           BONIFAZ MONZON JORGE LUIS               000000000000009600000000000013732010356962457400000                                        9 00000044137001PAGO NOMINA                                                                                                   0000000137320103569624574                      
EEDA0400000000000276501202102250170993                            PEREZ VAZQUEZ MARIA DEL ROSARIO         000000000000009700000000000013712110404465215900000                                        9 00000044137001PAGO NOMINA                                                                                                   0000000137121104044652159                      
EEDA0400000000000249689202102250170941                            ARREOLA LOPEZ KARLA VIVIANA             000000000000009800000000000013712710393991858900000                                        9 00000044137001PAGO NOMINA                                                                                                   0000000137127103939918589                      
EEDA0400000000000218168202102250170926                            BRUNO ZEPEDA YADIRA                     000000000000009900000000000013718010249642776800000                                        9 00000044137001PAGO NOMINA                                                                                                   0000000137180102496427768                      
EEDA0400000000000249689202102250170927                            CITALAN ORDONEZ FANNY DEL CARMEN        000000000000010000000000000013713310186843822300000                                        9 00000044137001PAGO NOMINA                                                                                                   0000000137133101868438223                      
EEDA0400000000000276501202102250170963                            AGUILAR MAZARIEGOS FERNANDO EFRAIN      000000000000010100000000000013713313004500100400000                                        9 00000044137001PAGO NOMINA                                                                                                   0000000137133130045001004                      
EETB000010100000000026516271000000000000000000000000000000000000000000000000000000000000000000000000000000000000000000000000000000000000000000000000000000000000000000000000000000000000000000000000000000000000000000000000000000000000000000000000000                                                                                                                           
EETA000010100000000026516271000000000000000000000000000000000000000000000000000000000000000000000000000000000000000000000000000000000000000000000000000000000000000000000000000000000000000000000000000000000000000000000000000000000000000000000000000                                                                                                                           
