0490648        0000000000029234784900002813902459783151000000001598680017062021PAGO NOMINA                   11CRA1504189V9 00000000000000dgarcia@gruposeri.com                  17062021RICARDO MERIDA CASTILLO                                               
0490708        0000000000029234784900002670902830118517000000001655890017062021PAGO NOMINA                   11CRA1504189V9 00000000000000dgarcia@gruposeri.com                  17062021SARA JENNY MONTES FARFAN                                              
0490572        0000000000029234784900002669903704251824000000002122540017062021PAGO NOMINA                   11CRA1504189V9 00000000000000dgarcia@gruposeri.com                  17062021TEODORA CASTILLO MORENO                                               
0490495        0000000000029234784900002180903901768479000000002793890017062021PAGO NOMINA                   11CRA1504189V9 00000000000000dgarcia@gruposeri.com                  17062021SARAH MARLENNE BALDUMINO CHACON                                       
0490042        0000000000029234784900002650901410873031000000006998260017062021PAGO NOMINA                   11CRA1504189V9 00000000000000dgarcia@gruposeri.com                  17062021MARISELA VELAZCO MURILLO                                              
0490065        0000000000029234784900002290701463492595000000005206910017062021PAGO NOMINA                   11CRA1504189V9 00000000000000dgarcia@gruposeri.com                  17062021HIRAM URIEL ORTEGA HIDALGO                                            
0490068        0000000000029234784900002303901794269346000000004202520017062021PAGO NOMINA                   11CRA1504189V9 00000000000000dgarcia@gruposeri.com                  17062021ROCIO HERNANDEZ HILARIO                                               
0490194        0000000000029234784900002830901979050762000000005348530017062021PAGO NOMINA                   11CRA1504189V9 00000000000000dgarcia@gruposeri.com                  17062021JUAN CARLOS VALENCIA BRIONES                                          
0490208        0000000000029234784900002881904289581278000000005120260017062021PAGO NOMINA                   11CRA1504189V9 00000000000000dgarcia@gruposeri.com                  17062021JORGE LUIS BLANCO REZA                                                
0490419        0000000000029234784900002854904289692343000000003292950017062021PAGO NOMINA                   11CRA1504189V9 00000000000000dgarcia@gruposeri.com                  17062021AURELIA MARIA RUEDA VELAZQUEZ                                         
0490973        0000000000029234784900002903903725881191000000002612270017062021PAGO NOMINA                   11CRA1504189V9 00000000000000dgarcia@gruposeri.com                  17062021EMMANUEL DE LA CRUZ MARTINEZ                                          
0490988        0000000000029234784900002841902429702082000000002694030017062021PAGO NOMINA                   11CRA1504189V9 00000000000000dgarcia@gruposeri.com                  17062021ALIN SUGEY CERVANTES MARTINEZ                                         
0491020        0000000000029234784900002877904341766615000000003999410017062021PAGO NOMINA                   11CRA1504189V9 00000000000000dgarcia@gruposeri.com                  17062021NORA DEL CARMEN MATEO HERNANDEZ                                       
0491056        0000000000029234784900002650901347391686000000003343970017062021PAGO NOMINA                   11CRA1504189V9 00000000000000dgarcia@gruposeri.com                  17062021CECILIA JACOME ROJAS                                                  
0491135        0000000000029234784900002290901766330099000000003649870017062021PAGO NOMINA                   11CRA1504189V9 00000000000000dgarcia@gruposeri.com                  17062021MIGUEL ANGEL CALVA PANTALEON                                          
0491184        0000000000029234784900002674902795689653000000003343970017062021PAGO NOMINA                   11CRA1504189V9 00000000000000dgarcia@gruposeri.com                  17062021MARIANA PALETA JIMENEZ                                                
0491282        0000000000029234784900002885903650415543000000003465810017062021PAGO NOMINA                   11CRA1504189V9 00000000000000dgarcia@gruposeri.com                  17062021FABIOLA DE LEON SANTIAGO                                              
0491693        0000000000029234784900002841903805599342000000002209100017062021PAGO NOMINA                   11CRA1504189V9 00000000000000dgarcia@gruposeri.com                  17062021EDGAR EMILIO AZAMAR FONSECA                                           
0492035        0000000000029234784900002876901943871986000000002992010017062021PAGO NOMINA                   11CRA1504189V9 00000000000000dgarcia@gruposeri.com                  17062021LORENZO RIQUELME GONZALEZ                                             
0492192        0000000000029234784900002650904117480135000000002566990017062021PAGO NOMINA                   11CRA1504189V9 00000000000000dgarcia@gruposeri.com                  17062021ANA KAREN FRANCISCO CABRERA                                           
0492224        0000000000029234784900002881904129765167000000002992000017062021PAGO NOMINA                   11CRA1504189V9 00000000000000dgarcia@gruposeri.com                  17062021TERESA DE JESUS DE LA CRUZ DOMINGUEZ                                  
0492243        0000000000029234784900002669904113212657000000002394080017062021PAGO NOMINA                   11CRA1504189V9 00000000000000dgarcia@gruposeri.com                  17062021MARTHA ELENA JUAREZ ALMEIDA                                           
0492357        0000000000029234784900002877904173933810000000002747780017062021PAGO NOMINA                   11CRA1504189V9 00000000000000dgarcia@gruposeri.com                  17062021ROSA KAREN JIMENEZ VAZQUEZ                                            
0492413        0000000000029234784900002841903504885959000000003175300017062021PAGO NOMINA                   11CRA1504189V9 00000000000000dgarcia@gruposeri.com                  17062021EDER ANTONIO MOLINA                                                   
0492425        0000000000029234784900002881904395907092000000002992000017062021PAGO NOMINA                   11CRA1504189V9 00000000000000dgarcia@gruposeri.com                  17062021DIEGO GERMAN TRUJILLO GERONIMO                                        
0492498        0000000000029234784900002888904163763788000000002267960017062021PAGO NOMINA                   11CRA1504189V9 00000000000000dgarcia@gruposeri.com                  17062021ARMANDO ORTIZ MARTINEZ                                                
0492523        0000000000029234784900002650901627155762000000003679440017062021PAGO NOMINA                   11CRA1504189V9 00000000000000dgarcia@gruposeri.com                  17062021SAUL FUENTES JUAREZ                                                   
0492524        0000000000029234784900002813902179044112000000002390200017062021PAGO NOMINA                   11CRA1504189V9 00000000000000dgarcia@gruposeri.com                  17062021MARIA LAURA JEREZ RODRIGUEZ                                           
0492639        0000000000029234784900002841904188854745000000002748200017062021PAGO NOMINA                   11CRA1504189V9 00000000000000dgarcia@gruposeri.com                  17062021ENITH ARLINNE PONCE RAMIREZ                                           
0492696        0000000000029234784900002813904278276656000000002388650017062021PAGO NOMINA                   11CRA1504189V9 00000000000000dgarcia@gruposeri.com                  17062021DREHIDY JANET FLORES RUIZ                                             
0492703        0000000000029234784900002877903658764275000000002992090017062021PAGO NOMINA                   11CRA1504189V9 00000000000000dgarcia@gruposeri.com                  17062021REYNA DEL CARMEN MALDONADO LURIA                                      
0492725        0000000000029234784900002580903776460874000000002992170017062021PAGO NOMINA                   11CRA1504189V9 00000000000000dgarcia@gruposeri.com                  17062021MAURITANIA DESHIDU AGUIRRE SALAZAR                                    
0492782        0000000000029234784900002885903688070439000000002992080017062021PAGO NOMINA                   11CRA1504189V9 00000000000000dgarcia@gruposeri.com                  17062021CARLOS ALBERTO JUAREZ HERNANDEZ                                       
0492853        0000000000029234784900002296904312830177000000002992080017062021PAGO NOMINA                   11CRA1504189V9 00000000000000dgarcia@gruposeri.com                  17062021REYNALDO HERNANDEZ BADILLO                                            
0492856        0000000000029234784900002290701581820748000000004773670017062021PAGO NOMINA                   11CRA1504189V9 00000000000000dgarcia@gruposeri.com                  17062021ARMANDO GUTIERREZ MORALES                                             
0492985        0000000000029234784900002650904476356492000000003344160017062021PAGO NOMINA                   11CRA1504189V9 00000000000000dgarcia@gruposeri.com                  17062021ANGEL GUTIERREZ RAMIREZ                                               
0493118        0000000000029234784900002869701658851453000000002992090017062021PAGO NOMINA                   11CRA1504189V9 00000000000000dgarcia@gruposeri.com                  17062021PORFIRIO PITA BUSTAMANTE                                              
0493129        0000000000029234784900002813701329957519000000002368900017062021PAGO NOMINA                   11CRA1504189V9 00000000000000dgarcia@gruposeri.com                  17062021MANUEL ANTONIO ROBLEDO GUTIERREZ                                      
0493147        0000000000029234784900002668701664783499000000002747840017062021PAGO NOMINA                   11CRA1504189V9 00000000000000dgarcia@gruposeri.com                  17062021ESTEFANIA GONZALEZ CAMPOS                                             
0493152        0000000000029234784900002855904103621114000000002730070017062021PAGO NOMINA                   11CRA1504189V9 00000000000000dgarcia@gruposeri.com                  17062021KRISTIAN ORLANDO LOPEZ MARTINEZ                                       
0493169        0000000000029234784900002813902497734243000000005905240017062021PAGO NOMINA                   11CRA1504189V9 00000000000000dgarcia@gruposeri.com                  17062021OMAR RIOS RODRIGUEZ                                                   
0493234        0000000000029234784900002813700966106436000000002992090017062021PAGO NOMINA                   11CRA1504189V9 00000000000000dgarcia@gruposeri.com                  17062021ELVIA RUTH MIRANDA PACHECO                                            
0493309        0000000000029234784900002650903460208722000000002597300017062021PAGO NOMINA                   11CRA1504189V9 00000000000000dgarcia@gruposeri.com                  17062021PATRICIA VARGAS VICUNO                                                
0493311        0000000000029234784900002854904395731114000000002747840017062021PAGO NOMINA                   11CRA1504189V9 00000000000000dgarcia@gruposeri.com                  17062021ILSE IVETH PEREZ CHAVEZ                                               
04901834       0000000000029234784900002840904050335416000000002992090017062021PAGO NOMINA                   11CRA1504189V9 00000000000000dgarcia@gruposeri.com                  17062021JORGE LUIS TORRES GARCIA                                              
04902216       0000000000029234784900002834902930390534000000005349080017062021PAGO NOMINA                   11CRA1504189V9 00000000000000dgarcia@gruposeri.com                  17062021JUAN TEPATZI ZEMPOALTECA                                              
04902829       0000000000029234784900002650902264398376000000003344160017062021PAGO NOMINA                   11CRA1504189V9 00000000000000dgarcia@gruposeri.com                  17062021ALAN GUTIERREZ ANDRADE                                                
04902979       0000000000029234784900002680904415447730000000001773280017062021PAGO NOMINA                   11CRA1504189V9 00000000000000dgarcia@gruposeri.com                  17062021ANGELICO MARTINEZ BAUTISTA                                            
04903018       0000000000029234784900002311904523474061000000002096890017062021PAGO NOMINA                   11CRA1504189V9 00000000000000dgarcia@gruposeri.com                  17062021MARIA ISABEL MARIN HIDALGO                                            
04903042       0000000000029234784900002877904438807115000000002747840017062021PAGO NOMINA                   11CRA1504189V9 00000000000000dgarcia@gruposeri.com                  17062021VALERIA IDALIA GOMEZ ATILANO                                          
04903498       0000000000029234784900002895902942101475000000002992090017062021PAGO NOMINA                   11CRA1504189V9 00000000000000dgarcia@gruposeri.com                  17062021SUSLI DAMARIS LOZANO CRUZ                                             
04903615       0000000000029234784900002882903299240910000000003175390017062021PAGO NOMINA                   11CRA1504189V9 00000000000000dgarcia@gruposeri.com                  17062021FELIPE DE JESUS TOLEDO BARRAN                                         
04903866       0000000000029234784900002876701622160480000000002992090017062021PAGO NOMINA                   11CRA1504189V9 00000000000000dgarcia@gruposeri.com                  17062021SILVESTRE LOPEZ RIVERA                                                
04904182       0000000000029234784900012845029109375925000000002992090017062021PAGO NOMINA                   11CRA1504189V9 00000000000000dgarcia@gruposeri.com                  17062021GASPAR GONZALEZ MUNOZ                                                 
04904235       0000000000029234784900012180015601380226000000002992090017062021PAGO NOMINA                   11CRA1504189V9 00000000000000dgarcia@gruposeri.com                  17062021ALEJANDRO MANUEL LUIS CRUZ                                            
04903984       0000000000029234784900012180015295178446000000003175390017062021PAGO NOMINA                   11CRA1504189V9 00000000000000dgarcia@gruposeri.com                  17062021JOSE ANTONIO ISLAS CRUZ                                               
04904097       0000000000029234784900012180015268027508000000002747840017062021PAGO NOMINA                   11CRA1504189V9 00000000000000dgarcia@gruposeri.com                  17062021GEMA ALESSANDRA GUADALUPE MORALES HERNANDEZ                           
0492695        0000000000029234784900012834015680389536000000003999640017062021PAGO NOMINA                   11CRA1504189V9 00000000000000dgarcia@gruposeri.com                  17062021JOSE ERIK AGUILAR DOMINGUEZ                                           
04903854       0000000000029234784900012650004717419933000000006529170017062021PAGO NOMINA                   11CRA1504189V9 00000000000000dgarcia@gruposeri.com                  17062021JULIO JUAN ARCOS MENDEZ                                               
04903916       0000000000029234784900012180015280370974000000002931210017062021PAGO NOMINA                   11CRA1504189V9 00000000000000dgarcia@gruposeri.com                  17062021BEATRIZ HERRERA MARQUEZ                                               
04903610       0000000000029234784900012180015195194724000000002747840017062021PAGO NOMINA                   11CRA1504189V9 00000000000000dgarcia@gruposeri.com                  17062021KARLA LIZETH PENA GONZALEZ                                            
04903343       0000000000029234784900012180015745277910000000003175390017062021PAGO NOMINA                   11CRA1504189V9 00000000000000dgarcia@gruposeri.com                  17062021LUIS ALBERTO HERRERA MACIAS                                           
04903430       0000000000029234784900012832015214548622000000003764020017062021PAGO NOMINA                   11CRA1504189V9 00000000000000dgarcia@gruposeri.com                  17062021ELIAS MERINO HERNANDEZ                                                
04903045       0000000000029234784900012840015501260553000000002747840017062021PAGO NOMINA                   11CRA1504189V9 00000000000000dgarcia@gruposeri.com                  17062021NORMA LISETTE HERNANDEZ CASTILLO                                      
04903104       0000000000029234784900012180015107282996000000002408760017062021PAGO NOMINA                   11CRA1504189V9 00000000000000dgarcia@gruposeri.com                  17062021FAUSTINO GIL ORTEGA                                                   
04903230       0000000000029234784900012888029906650457000000005349080017062021PAGO NOMINA                   11CRA1504189V9 00000000000000dgarcia@gruposeri.com                  17062021HECTOR CARO ALONSO                                                    
04903329       0000000000029234784900012905015560457446000000001819660017062021PAGO NOMINA                   11CRA1504189V9 00000000000000dgarcia@gruposeri.com                  17062021SERGIO MEDEL AGUILAR                                                  
04902925       0000000000029234784900012670015117679368000000003180630017062021PAGO NOMINA                   11CRA1504189V9 00000000000000dgarcia@gruposeri.com                  17062021GUADALUPE ANAHI MORALES JIMENEZ                                       
04902926       0000000000029234784900012290029283883852000000002747840017062021PAGO NOMINA                   11CRA1504189V9 00000000000000dgarcia@gruposeri.com                  17062021ARACELI HERNANDEZ ROMERO                                              
04902855       0000000000029234784900012650026691022806000000002211290017062021PAGO NOMINA                   11CRA1504189V9 00000000000000dgarcia@gruposeri.com                  17062021PEDRO ARTURO MARTINEZ SEGURA                                          
04902495       0000000000029234784900012180015183787062000000003175390017062021PAGO NOMINA                   11CRA1504189V9 00000000000000dgarcia@gruposeri.com                  17062021ARAFATH IUDICAEL HERNANDEZ MARTINEZ                                   
04902496       0000000000029234784900012813026378563852000000002419680017062021PAGO NOMINA                   11CRA1504189V9 00000000000000dgarcia@gruposeri.com                  17062021SOFIA MARTINEZ GONZALEZ                                               
04902316       0000000000029234784900012650015505800345000000003344160017062021PAGO NOMINA                   11CRA1504189V9 00000000000000dgarcia@gruposeri.com                  17062021JHOVANY RAMOS FLORES                                                  
04902322       0000000000029234784900012296015720546152000000002547840017062021PAGO NOMINA                   11CRA1504189V9 00000000000000dgarcia@gruposeri.com                  17062021DULCE CRISTAL HERNANDEZ ARADIAZ                                       
04901942       0000000000029234784900012311014938653470000000003175390017062021PAGO NOMINA                   11CRA1504189V9 00000000000000dgarcia@gruposeri.com                  17062021DONAJI HORTENCIA PELAEZ SARABIA                                       
04901802       0000000000029234784900012180015024960003000000002747840017062021PAGO NOMINA                   11CRA1504189V9 00000000000000dgarcia@gruposeri.com                  17062021ENRIQUE DE JESUS AGUILAR FLORES                                       
04901569       0000000000029234784900012320015241299825000000003344160017062021PAGO NOMINA                   11CRA1504189V9 00000000000000dgarcia@gruposeri.com                  17062021JOSE CARLOS MUNOZ CRUZ                                                
04901622       0000000000029234784900012881015450017764000000003175390017062021PAGO NOMINA                   11CRA1504189V9 00000000000000dgarcia@gruposeri.com                  17062021PEDRO LUIS CRUZ HERNANDEZ                                             
04901117       0000000000029234784900012180015091469867000000002153690017062021PAGO NOMINA                   11CRA1504189V9 00000000000000dgarcia@gruposeri.com                  17062021GUADALUPE BARBA ALBARRAN                                              
04901456       0000000000029234784900012650027950545670000000002592060017062021PAGO NOMINA                   11CRA1504189V9 00000000000000dgarcia@gruposeri.com                  17062021JORGE ANGEL ITURBIDE MORALES                                          
04901309       0000000000029234784900012813015690311971000000002573540017062021PAGO NOMINA                   11CRA1504189V9 00000000000000dgarcia@gruposeri.com                  17062021JOSE GUADALUPE DEL RIO CRUZ                                           
04901222       0000000000029234784900012810029787862678000000002500070017062021PAGO NOMINA                   11CRA1504189V9 00000000000000dgarcia@gruposeri.com                  17062021LIDIA YETZEMANY CORTEZ CRUZ                                           
04901060       0000000000029234784900012888015385929933000000002408760017062021PAGO NOMINA                   11CRA1504189V9 00000000000000dgarcia@gruposeri.com                  17062021JULIO CESAR RODRIGUEZ RAMIREZ                                         
0493398        0000000000029234784900012180015712952093000000002747840017062021PAGO NOMINA                   11CRA1504189V9 00000000000000dgarcia@gruposeri.com                  17062021BRENDA JAEL HURTADO RUVALCABA                                         
0493400        0000000000029234784900012180015291896997000000003175390017062021PAGO NOMINA                   11CRA1504189V9 00000000000000dgarcia@gruposeri.com                  17062021HYARACET RAMIREZ RAMIREZ                                              
0493393        0000000000029234784900012885029182621876000000004519870017062021PAGO NOMINA                   11CRA1504189V9 00000000000000dgarcia@gruposeri.com                  17062021JESUS ANGEL GONZALEZ RAMIREZ                                          
0493349        0000000000029234784900012885029958529432000000002992090017062021PAGO NOMINA                   11CRA1504189V9 00000000000000dgarcia@gruposeri.com                  17062021LETICIA GARCIA BENITO                                                 
0493362        0000000000029234784900012888029959075005000000002747840017062021PAGO NOMINA                   11CRA1504189V9 00000000000000dgarcia@gruposeri.com                  17062021KATYA EMIRETH MARTINEZ PEREZ                                          
0493373        0000000000029234784900012876011273807209000000002408750017062021PAGO NOMINA                   11CRA1504189V9 00000000000000dgarcia@gruposeri.com                  17062021ALEXIS GONZALEZ DE LA CRUZ                                            
0493318        0000000000029234784900012854027906876267000000002599790017062021PAGO NOMINA                   11CRA1504189V9 00000000000000dgarcia@gruposeri.com                  17062021NESTOR MARTINEZ LOPEZ                                                 
0493338        0000000000029234784900012903015624921085000000002244160017062021PAGO NOMINA                   11CRA1504189V9 00000000000000dgarcia@gruposeri.com                  17062021KAREN CLAUDINE CRUZ SILVA                                             
0493341        0000000000029234784900012877015161994999000000002432380017062021PAGO NOMINA                   11CRA1504189V9 00000000000000dgarcia@gruposeri.com                  17062021ANITA HERNANDEZ TRANQUILINO                                           
0493277        0000000000029234784900012290015143123925000000005349080017062021PAGO NOMINA                   11CRA1504189V9 00000000000000dgarcia@gruposeri.com                  17062021BRIANN EDUARDO ZAMUDIO ANGELES                                        
0493289        0000000000029234784900012670015735804340000000002221150017062021PAGO NOMINA                   11CRA1504189V9 00000000000000dgarcia@gruposeri.com                  17062021KARLA ADRIANA FLORES SAAVEDRA                                         
0493300        0000000000029234784900012180015572601160000000002992090017062021PAGO NOMINA                   11CRA1504189V9 00000000000000dgarcia@gruposeri.com                  17062021JUAN DIEGO JUAREZ LOPEZ                                               
0493301        0000000000029234784900012854015410976555000000002992090017062021PAGO NOMINA                   11CRA1504189V9 00000000000000dgarcia@gruposeri.com                  17062021ISSAC CHAVEZ WOOD                                                     
0493263        0000000000029234784900012712015590531855000000002992090017062021PAGO NOMINA                   11CRA1504189V9 00000000000000dgarcia@gruposeri.com                  17062021CARLOS TOMAS EUGENIO REYES                                            
0493265        0000000000029234784900012290027649885072000000002403140017062021PAGO NOMINA                   11CRA1504189V9 00000000000000dgarcia@gruposeri.com                  17062021DANIEL OMANA ZARCO                                                    
0493257        0000000000029234784900012876011252350735000000002992090017062021PAGO NOMINA                   11CRA1504189V9 00000000000000dgarcia@gruposeri.com                  17062021PATRICIA GONZALEZ FRAYRE                                              
0493240        0000000000029234784900012650015096703469000000003344160017062021PAGO NOMINA                   11CRA1504189V9 00000000000000dgarcia@gruposeri.com                  17062021FERNANDO JUAREZ MARIN                                                 
0493244        0000000000029234784900012676015801648722000000003175390017062021PAGO NOMINA                   11CRA1504189V9 00000000000000dgarcia@gruposeri.com                  17062021JESUS EMMANUEL CRUZ HERNANDEZ                                         
0493246        0000000000029234784900012905028694524009000000003764020017062021PAGO NOMINA                   11CRA1504189V9 00000000000000dgarcia@gruposeri.com                  17062021EDNA GISELDA CARDENA MUNOZ                                            
0493191        0000000000029234784900012180015742828100000000003344160017062021PAGO NOMINA                   11CRA1504189V9 00000000000000dgarcia@gruposeri.com                  17062021ISRAEL CARRERA PACHECO                                                
0493183        0000000000029234784900012876004632075951000000002381480017062021PAGO NOMINA                   11CRA1504189V9 00000000000000dgarcia@gruposeri.com                  17062021JOSE SALVADOR RUEDA LECORTUA                                          
0493218        0000000000029234784900012180015634071984000000003175390017062021PAGO NOMINA                   11CRA1504189V9 00000000000000dgarcia@gruposeri.com                  17062021EVELIN YANET RAMIREZ HERNANDEZ                                        
0493224        0000000000029234784900012150015762436421000000003175390017062021PAGO NOMINA                   11CRA1504189V9 00000000000000dgarcia@gruposeri.com                  17062021KENIA ELIDETH GONZALEZ CRUZ                                           
0493216        0000000000029234784900012180015940001486000000002992090017062021PAGO NOMINA                   11CRA1504189V9 00000000000000dgarcia@gruposeri.com                  17062021LUCAS FELIPE CASTRO                                                   
0493159        0000000000029234784900012883015181538688000000002267790017062021PAGO NOMINA                   11CRA1504189V9 00000000000000dgarcia@gruposeri.com                  17062021LUIS CRUZ HERNANDEZ                                                   
0493156        0000000000029234784900012884026978924626000000002623240017062021PAGO NOMINA                   11CRA1504189V9 00000000000000dgarcia@gruposeri.com                  17062021LUZ ADRIANA HERNANDEZ DEL ANGEL                                       
0493131        0000000000029234784900012832015407369566000000002747840017062021PAGO NOMINA                   11CRA1504189V9 00000000000000dgarcia@gruposeri.com                  17062021CAROLINA MENDOZA MENDEZ                                               
0493060        0000000000029234784900012830015159724040000000003344160017062021PAGO NOMINA                   11CRA1504189V9 00000000000000dgarcia@gruposeri.com                  17062021CLARA ESTEFANY DURAN TORRES                                           
0493086        0000000000029234784900012873015592262498000000002747840017062021PAGO NOMINA                   11CRA1504189V9 00000000000000dgarcia@gruposeri.com                  17062021BRENDA MELENDEZ MENDEZ                                                
0493052        0000000000029234784900012311015670803723000000003175240017062021PAGO NOMINA                   11CRA1504189V9 00000000000000dgarcia@gruposeri.com                  17062021ERICK FRANCISCO NERI CASTRO                                           
0493030        0000000000029234784900012180015704741296000000003175240017062021PAGO NOMINA                   11CRA1504189V9 00000000000000dgarcia@gruposeri.com                  17062021IRMA CHAVEZ PEREZ                                                     
0493032        0000000000029234784900012180015832100848000000005349080017062021PAGO NOMINA                   11CRA1504189V9 00000000000000dgarcia@gruposeri.com                  17062021DULCE ESPERANZA VARGAS ZAMORANO                                       
0493037        0000000000029234784900012180015831984670000000002747840017062021PAGO NOMINA                   11CRA1504189V9 00000000000000dgarcia@gruposeri.com                  17062021SILVIA LUCERO CARRASCO CARCAMO                                        
0493013        0000000000029234784900012580029921440500000000002597300017062021PAGO NOMINA                   11CRA1504189V9 00000000000000dgarcia@gruposeri.com                  17062021ALONDRA CORONA ALAMEDA                                                
0493006        0000000000029234784900012180015547700342000000003175390017062021PAGO NOMINA                   11CRA1504189V9 00000000000000dgarcia@gruposeri.com                  17062021PABLO OLMEDO GARCIA                                                   
0492969        0000000000029234784900012650015078151699000000003180630017062021PAGO NOMINA                   11CRA1504189V9 00000000000000dgarcia@gruposeri.com                  17062021FABIOLA SERRANO NOLASCO                                               
0492975        0000000000029234784900012813015136207785000000004493110017062021PAGO NOMINA                   11CRA1504189V9 00000000000000dgarcia@gruposeri.com                  17062021JERONIMO DEL ANGEL GARCIA                                             
0492922        0000000000029234784900012854015170587161000000002992090017062021PAGO NOMINA                   11CRA1504189V9 00000000000000dgarcia@gruposeri.com                  17062021VICTOR MANUEL RIVERA RUEDA                                            
0492940        0000000000029234784900012180029274178880000000005349080017062021PAGO NOMINA                   11CRA1504189V9 00000000000000dgarcia@gruposeri.com                  17062021DIANA ALEJANDRA NAVARRO ARROYO                                        
0492916        0000000000029234784900012813028875880117000000002650560017062021PAGO NOMINA                   11CRA1504189V9 00000000000000dgarcia@gruposeri.com                  17062021ALBERTO JORGE MORENO ROJAS                                            
0492888        0000000000029234784900012854029603268529000000002747840017062021PAGO NOMINA                   11CRA1504189V9 00000000000000dgarcia@gruposeri.com                  17062021LORENA AIDEE HERRERA GONZALEZ                                         
0492859        0000000000029234784900012864015720856180000000002394160017062021PAGO NOMINA                   11CRA1504189V9 00000000000000dgarcia@gruposeri.com                  17062021LETICIA GARCIA GARCIA                                                 
0492798        0000000000029234784900012311015675797054000000002992090017062021PAGO NOMINA                   11CRA1504189V9 00000000000000dgarcia@gruposeri.com                  17062021ALMA KARINA ARGUELLO RAMIREZ                                          
0492801        0000000000029234784900012864004696828800000000003175390017062021PAGO NOMINA                   11CRA1504189V9 00000000000000dgarcia@gruposeri.com                  17062021LESLY MARILYN OLMEDO TICANTE                                          
0492803        0000000000029234784900012888011319129761000000001826810017062021PAGO NOMINA                   11CRA1504189V9 00000000000000dgarcia@gruposeri.com                  17062021GERARDO GONZALEZ PACHECO                                              
0492758        0000000000029234784900012894015630974070000000002992080017062021PAGO NOMINA                   11CRA1504189V9 00000000000000dgarcia@gruposeri.com                  17062021MIRIAM IGNOT DE LA CRUZ                                               
0492764        0000000000029234784900012180015006725839000000003450720017062021PAGO NOMINA                   11CRA1504189V9 00000000000000dgarcia@gruposeri.com                  17062021LEYDI VIANEY SANTIAGO NAZARIO                                         
0492719        0000000000029234784900012180015626509781000000002992080017062021PAGO NOMINA                   11CRA1504189V9 00000000000000dgarcia@gruposeri.com                  17062021DIEGO FLORES FRANCO                                                   
0492673        0000000000029234784900012667014329998540000000002587590017062021PAGO NOMINA                   11CRA1504189V9 00000000000000dgarcia@gruposeri.com                  17062021MARTIN FLORES SANCHEZ                                                 
0492680        0000000000029234784900012180015432590162000000002491920017062021PAGO NOMINA                   11CRA1504189V9 00000000000000dgarcia@gruposeri.com                  17062021ALMA EDITH LABASTIDA GIL                                              
0492640        0000000000029234784900012180015041637649000000003180630017062021PAGO NOMINA                   11CRA1504189V9 00000000000000dgarcia@gruposeri.com                  17062021JESUS MANUEL MENESES ZAYAS                                            
0492614        0000000000029234784900012886027484782524000000009081930017062021PAGO NOMINA                   11CRA1504189V9 00000000000000dgarcia@gruposeri.com                  17062021JULIO CESAR GUTIERREZ MARTINEZ                                        
0492621        0000000000029234784900012888015538082656000000002747840017062021PAGO NOMINA                   11CRA1504189V9 00000000000000dgarcia@gruposeri.com                  17062021ANAHI QUIROZ HERNANDEZ                                                
0492633        0000000000029234784900012845015574686143000000002480400017062021PAGO NOMINA                   11CRA1504189V9 00000000000000dgarcia@gruposeri.com                  17062021TERESA DE JESUS HERNANDEZ MURILLO                                     
0492607        0000000000029234784900012670028609114373000000001477450017062021PAGO NOMINA                   11CRA1504189V9 00000000000000dgarcia@gruposeri.com                  17062021DANIEL MARTINEZ SANCHEZ                                               
0492609        0000000000029234784900012180015371929917000000002244160017062021PAGO NOMINA                   11CRA1504189V9 00000000000000dgarcia@gruposeri.com                  17062021LEIDY GALLEGOS ASTACIO                                                
0492550        0000000000029234784900012650029445418634000000001706210017062021PAGO NOMINA                   11CRA1504189V9 00000000000000dgarcia@gruposeri.com                  17062021GABRIEL RUBEN PEREZ MORENO                                            
0492465        0000000000029234784900012669015268136936000000003114520017062021PAGO NOMINA                   11CRA1504189V9 00000000000000dgarcia@gruposeri.com                  17062021CIRO ARTURO CANCINO MENESES                                           
0492434        0000000000029234784900012180015474895634000000003999520017062021PAGO NOMINA                   11CRA1504189V9 00000000000000dgarcia@gruposeri.com                  17062021KARLA FABIOLA MATEO PASCUAL                                           
0492450        0000000000029234784900012903015498274984000000003788980017062021PAGO NOMINA                   11CRA1504189V9 00000000000000dgarcia@gruposeri.com                  17062021ALACIEL CURIEL TORRES                                                 
0492451        0000000000029234784900012813015454231844000000003788980017062021PAGO NOMINA                   11CRA1504189V9 00000000000000dgarcia@gruposeri.com                  17062021BRENDA YADIRA DELGADILLO CUETO                                        
0492461        0000000000029234784900012811014376770499000000003361080017062021PAGO NOMINA                   11CRA1504189V9 00000000000000dgarcia@gruposeri.com                  17062021JULIAN CASTILLO FLORES                                                
0492395        0000000000029234784900012864015187439946000000003175300017062021PAGO NOMINA                   11CRA1504189V9 00000000000000dgarcia@gruposeri.com                  17062021PEDRO BAUTISTA QUINTERO                                               
0492381        0000000000029234784900012290028848079950000000002992210017062021PAGO NOMINA                   11CRA1504189V9 00000000000000dgarcia@gruposeri.com                  17062021KARINA OILEGOR CANTERA GOMEZ                                          
0492372        0000000000029234784900012296015524792652000000003175300017062021PAGO NOMINA                   11CRA1504189V9 00000000000000dgarcia@gruposeri.com                  17062021CONSUELO MIJAIL VITE LOYDA                                            
0492377        0000000000029234784900012580015056557576000000002547780017062021PAGO NOMINA                   11CRA1504189V9 00000000000000dgarcia@gruposeri.com                  17062021CINTHYA LORENA OLVERA BARRIOS                                         
0492349        0000000000029234784900012830029067456878000000003175160017062021PAGO NOMINA                   11CRA1504189V9 00000000000000dgarcia@gruposeri.com                  17062021YEINI FLORES HERNANDEZ                                                
0492313        0000000000029234784900012876015806057862000000002992010017062021PAGO NOMINA                   11CRA1504189V9 00000000000000dgarcia@gruposeri.com                  17062021ALMA GABRIELA ESPINOSA CRUZ                                           
0492314        0000000000029234784900012877011492430977000000004514760017062021PAGO NOMINA                   11CRA1504189V9 00000000000000dgarcia@gruposeri.com                  17062021HAMILTON PEREZ JIMENEZ                                                
0492265        0000000000029234784900012225015043694529000000002992090017062021PAGO NOMINA                   11CRA1504189V9 00000000000000dgarcia@gruposeri.com                  17062021NATALI KARINA CADENA GOMEZ                                            
0492230        0000000000029234784900012864004684728239000000001894370017062021PAGO NOMINA                   11CRA1504189V9 00000000000000dgarcia@gruposeri.com                  17062021ALMA LIZZETH CRUZ AGUILAR                                             
0492221        0000000000029234784900012180015244847579000000002224130017062021PAGO NOMINA                   11CRA1504189V9 00000000000000dgarcia@gruposeri.com                  17062021NANCY ALEJANDRA GARCIA OROPEZA                                        
0492214        0000000000029234784900012813014207966545000000003390390017062021PAGO NOMINA                   11CRA1504189V9 00000000000000dgarcia@gruposeri.com                  17062021DIANA ARELI ROCHA QUINTANILLA                                         
0492215        0000000000029234784900012650015784460328000000005940620017062021PAGO NOMINA                   11CRA1504189V9 00000000000000dgarcia@gruposeri.com                  17062021ERIKA LUCIA ZURITA REYES                                              
0492199        0000000000029234784900012290015235428347000000003634990017062021PAGO NOMINA                   11CRA1504189V9 00000000000000dgarcia@gruposeri.com                  17062021SAYIRA PEREZ MOCINO                                                   
0492174        0000000000029234784900012180015327158839000000002747780017062021PAGO NOMINA                   11CRA1504189V9 00000000000000dgarcia@gruposeri.com                  17062021DIANA KRISTEL SOBREVILLA SIERRA                                       
0492162        0000000000029234784900012813015951090973000000004765660017062021PAGO NOMINA                   11CRA1504189V9 00000000000000dgarcia@gruposeri.com                  17062021LUIS FELIPE LAVIN TOVAR                                               
0492133        0000000000029234784900012180015198591722000000002244100017062021PAGO NOMINA                   11CRA1504189V9 00000000000000dgarcia@gruposeri.com                  17062021CARMEN LIZETH MARTINEZ MARTINEZ                                       
0492134        0000000000029234784900012290012424373688000000002244100017062021PAGO NOMINA                   11CRA1504189V9 00000000000000dgarcia@gruposeri.com                  17062021ROSI ISELA LOZANO GASCA                                               
0492126        0000000000029234784900012832015619252539000000004023810017062021PAGO NOMINA                   11CRA1504189V9 00000000000000dgarcia@gruposeri.com                  17062021ALEXIS NOYOLA CAMARILLO                                               
0492079        0000000000029234784900012905015779501361000000003175300017062021PAGO NOMINA                   11CRA1504189V9 00000000000000dgarcia@gruposeri.com                  17062021ABELMAIN GARCIA TLAXCALA                                              
0492070        0000000000029234784900012903015483740313000000003175300017062021PAGO NOMINA                   11CRA1504189V9 00000000000000dgarcia@gruposeri.com                  17062021CARLOS RUBEN SANCHEZ DE LA CRUZ                                       
0492040        0000000000029234784900012650015615381369000000002747780017062021PAGO NOMINA                   11CRA1504189V9 00000000000000dgarcia@gruposeri.com                  17062021IRMA LOPEZ GAYTAN                                                     
0491933        0000000000029234784900012180015372416076000000002992210017062021PAGO NOMINA                   11CRA1504189V9 00000000000000dgarcia@gruposeri.com                  17062021PEDRO VALENTIN MARQUEZ                                                
0491774        0000000000029234784900012290029801542533000000002985160017062021PAGO NOMINA                   11CRA1504189V9 00000000000000dgarcia@gruposeri.com                  17062021ALEJANDRO RODRIGUEZ LATORRE                                           
0491775        0000000000029234784900012290014021592365000000002693050017062021PAGO NOMINA                   11CRA1504189V9 00000000000000dgarcia@gruposeri.com                  17062021VALENTIN LORENZO FILER                                                
0491740        0000000000029234784900012864015866205158000000002266790017062021PAGO NOMINA                   11CRA1504189V9 00000000000000dgarcia@gruposeri.com                  17062021ARITH PULIDO GARCIA                                                   
0491747        0000000000029234784900012296015615066792000000002992210017062021PAGO NOMINA                   11CRA1504189V9 00000000000000dgarcia@gruposeri.com                  17062021IVETH ORTEGA HERNANDEZ                                                
0491706        0000000000029234784900012667029736788574000000003175300017062021PAGO NOMINA                   11CRA1504189V9 00000000000000dgarcia@gruposeri.com                  17062021ALITZEL GARCIA MARTINEZ                                               
0491661        0000000000029234784900012180015835306982000000001977590017062021PAGO NOMINA                   11CRA1504189V9 00000000000000dgarcia@gruposeri.com                  17062021CLAUDIA GUADALUPE PEREZ GARAY                                         
0491668        0000000000029234784900012180015481727766000000002740420017062021PAGO NOMINA                   11CRA1504189V9 00000000000000dgarcia@gruposeri.com                  17062021EIMER CHAGOYA ESPINOSA                                                
0491650        0000000000029234784900012894015718976246000000002979880017062021PAGO NOMINA                   11CRA1504189V9 00000000000000dgarcia@gruposeri.com                  17062021CARMEN ELIZABETH PEREZ MERAZ                                          
0491600        0000000000029234784900012180015685779947000000003175300017062021PAGO NOMINA                   11CRA1504189V9 00000000000000dgarcia@gruposeri.com                  17062021MARTIN LOPEZ GUZMAN                                                   
0491564        0000000000029234784900012650029840618291000000002528650017062021PAGO NOMINA                   11CRA1504189V9 00000000000000dgarcia@gruposeri.com                  17062021JESUS ANTONIO OCAMPO ROSAS                                            
0491486        0000000000029234784900012650029441315171000000003745400017062021PAGO NOMINA                   11CRA1504189V9 00000000000000dgarcia@gruposeri.com                  17062021ISMAEL DOMINGUEZ CLEMENTE                                             
0491444        0000000000029234784900012670027950917217000000002747710017062021PAGO NOMINA                   11CRA1504189V9 00000000000000dgarcia@gruposeri.com                  17062021NANCY KARINA MUNDO PERALTA                                            
0491354        0000000000029234784900012840011732610264000000005348870017062021PAGO NOMINA                   11CRA1504189V9 00000000000000dgarcia@gruposeri.com                  17062021IGNACIO CRUZ ORTEGA                                                   
0491334        0000000000029234784900012290015548425451000000002244030017062021PAGO NOMINA                   11CRA1504189V9 00000000000000dgarcia@gruposeri.com                  17062021NOHEMI PERALTA HERNANDEZ                                              
0491327        0000000000029234784900012813015342098856000000002747710017062021PAGO NOMINA                   11CRA1504189V9 00000000000000dgarcia@gruposeri.com                  17062021DARINKA BEATRIZ ZAVALA CASTILLO                                       
0491347        0000000000029234784900012885015418519695000000002505940017062021PAGO NOMINA                   11CRA1504189V9 00000000000000dgarcia@gruposeri.com                  17062021RUBICELI PEREZ CAMPOS                                                 
0491280        0000000000029234784900012881029885100245000000005348710017062021PAGO NOMINA                   11CRA1504189V9 00000000000000dgarcia@gruposeri.com                  17062021EDGAR LEOPOLDO JUAREZ MAYA                                            
0491268        0000000000029234784900012180015612104404000000003485160017062021PAGO NOMINA                   11CRA1504189V9 00000000000000dgarcia@gruposeri.com                  17062021DONAXI GUADALUPE ALVARADO ROBLES                                      
0491218        0000000000029234784900012650015441317620000000003540210017062021PAGO NOMINA                   11CRA1504189V9 00000000000000dgarcia@gruposeri.com                  17062021JAZMIN MATAMOROS JUAREZ                                               
0491118        0000000000029234784900012811029420078786000000002917650017062021PAGO NOMINA                   11CRA1504189V9 00000000000000dgarcia@gruposeri.com                  17062021GEORGINA DEL ANGEL MONFIL                                             
0491066        0000000000029234784900012650004593054758000000005348810017062021PAGO NOMINA                   11CRA1504189V9 00000000000000dgarcia@gruposeri.com                  17062021ARMANDO CABRERA CASTILLO                                              
0490967        0000000000029234784900012876011607142242000000002122610017062021PAGO NOMINA                   11CRA1504189V9 00000000000000dgarcia@gruposeri.com                  17062021REYNA MARTHA RODRIGUEZ ALBERTO                                        
0490925        0000000000029234784900012650015700389894000000001429470017062021PAGO NOMINA                   11CRA1504189V9 00000000000000dgarcia@gruposeri.com                  17062021GABRIELA SELENE ROQUE ROJAS                                           
0490370        0000000000029234784900012296004596610508000000002566940017062021PAGO NOMINA                   11CRA1504189V9 00000000000000dgarcia@gruposeri.com                  17062021EDER IVAN LIZCANO ALONZO                                              
0490418        0000000000029234784900012877015726587398000000004042810017062021PAGO NOMINA                   11CRA1504189V9 00000000000000dgarcia@gruposeri.com                  17062021GUADALUPE DIAZ MENDOZA                                                
0490346        0000000000029234784900012669015188115325000000005136890017062021PAGO NOMINA                   11CRA1504189V9 00000000000000dgarcia@gruposeri.com                  17062021MARIEL LOPEZ JIMENEZ                                                  
0490350        0000000000029234784900012650015689344552000000005200690017062021PAGO NOMINA                   11CRA1504189V9 00000000000000dgarcia@gruposeri.com                  17062021MIRIAM RAMIREZ GONZALEZ                                               
0490256        0000000000029234784900012903011275364532000000003938610017062021PAGO NOMINA                   11CRA1504189V9 00000000000000dgarcia@gruposeri.com                  17062021EDUARDO CRUZ CASTILLO                                                 
0490268        0000000000029234784900012903011227988241000000002128700017062021PAGO NOMINA                   11CRA1504189V9 00000000000000dgarcia@gruposeri.com                  17062021ELENA MORALES PELCASTRE                                               
0490272        0000000000029234784900012854012557830706000000004071480017062021PAGO NOMINA                   11CRA1504189V9 00000000000000dgarcia@gruposeri.com                  17062021HILDA KARINA GUTIERREZ CHAVEZ                                         
0490277        0000000000029234784900012885015001022023000000004461370017062021PAGO NOMINA                   11CRA1504189V9 00000000000000dgarcia@gruposeri.com                  17062021NADIA BERENICE DE LEON HERNANDEZ                                      
0490282        0000000000029234784900012830029541765373000000003423850017062021PAGO NOMINA                   11CRA1504189V9 00000000000000dgarcia@gruposeri.com                  17062021TERESA PELCASTRE LOPEZ                                                
0490207        0000000000029234784900012864015782711519000000004495910017062021PAGO NOMINA                   11CRA1504189V9 00000000000000dgarcia@gruposeri.com                  17062021ADAN ISAAC BERNABE LUCAS                                              
0490212        0000000000029234784900012894015005153109000000003999170017062021PAGO NOMINA                   11CRA1504189V9 00000000000000dgarcia@gruposeri.com                  17062021SILBINO DEL ANGEL TENORIO                                             
0490213        0000000000029234784900012180015425717334000000002929660017062021PAGO NOMINA                   11CRA1504189V9 00000000000000dgarcia@gruposeri.com                  17062021ANA RUTH DIAZ MARIANO                                                 
0490217        0000000000029234784900012894015004838852000000002991860017062021PAGO NOMINA                   11CRA1504189V9 00000000000000dgarcia@gruposeri.com                  17062021ERIC HERNANDEZ PEREZ                                                  
0490179        0000000000029234784900012290011487774623000000003707940017062021PAGO NOMINA                   11CRA1504189V9 00000000000000dgarcia@gruposeri.com                  17062021MARIA ESTELA GRANADA TEODORO                                          
0490183        0000000000029234784900012676011491358633000000002260710017062021PAGO NOMINA                   11CRA1504189V9 00000000000000dgarcia@gruposeri.com                  17062021NORMA JUAREZ ORTEGA                                                   
0490166        0000000000029234784900012670011659062026000000002747640017062021PAGO NOMINA                   11CRA1504189V9 00000000000000dgarcia@gruposeri.com                  17062021MARIA ANGELICA DE JESUS HERNANDEZ                                     
0490171        0000000000029234784900012650011634512595000000003101850017062021PAGO NOMINA                   11CRA1504189V9 00000000000000dgarcia@gruposeri.com                  17062021JOSE LUIS AVALOS BOBADILLA                                            
0490135        0000000000029234784900012180015227195992000000005348350017062021PAGO NOMINA                   11CRA1504189V9 00000000000000dgarcia@gruposeri.com                  17062021RAFAEL DIAZ HERNANDEZ                                                 
0490040        0000000000029234784900012676011585964250000000004148300017062021PAGO NOMINA                   11CRA1504189V9 00000000000000dgarcia@gruposeri.com                  17062021SONIA LOPEZ GUTIERREZ                                                 
0490089        0000000000029234784900012837015120022729000000007650500017062021PAGO NOMINA                   11CRA1504189V9 00000000000000dgarcia@gruposeri.com                  17062021TANIA ARCELIA VAZQUEZ CORDOVA                                         
0490095        0000000000029234784900012832028604410315000000004911200017062021PAGO NOMINA                   11CRA1504189V9 00000000000000dgarcia@gruposeri.com                  17062021XOCHITL MARIA GUADALUPE LOYOLA ZAVALETA                               
0490107        0000000000029234784900012311015239875516000000006240480017062021PAGO NOMINA                   11CRA1504189V9 00000000000000dgarcia@gruposeri.com                  17062021ALEXIS CONRADO GALVAN TAVERA                                          
0490073        0000000000029234784900012290011510918754000000006528250017062021PAGO NOMINA                   11CRA1504189V9 00000000000000dgarcia@gruposeri.com                  17062021TANIA PALACIOS OSTRIA                                                 
0490050        0000000000029234784900012676011774944599000000002122470017062021PAGO NOMINA                   11CRA1504189V9 00000000000000dgarcia@gruposeri.com                  17062021ANALI PEREZ CASTRO                                                    
0490056        0000000000029234784900012125029521552143000000006528250017062021PAGO NOMINA                   11CRA1504189V9 00000000000000dgarcia@gruposeri.com                  17062021BEATRIZ ADRIANA HERNANDEZ MENDEZ                                      
0490059        0000000000029234784900012676029332821716000000006004640017062021PAGO NOMINA                   11CRA1504189V9 00000000000000dgarcia@gruposeri.com                  17062021MARGARITA VAZQUEZ GUTIERREZ                                           
0490062        0000000000029234784900012290011494309890000000002122470017062021PAGO NOMINA                   11CRA1504189V9 00000000000000dgarcia@gruposeri.com                  17062021MARIA GUADALUPE PEREZ MONTALVO                                        
0430043        0000000000029234784900012672015034530737000000005327500017062021PAGO NOMINA                   11CRA1504189V9 00000000000000dgarcia@gruposeri.com                  17062021FAUSTINO HINOJOSA HERNANDEZ                                           
0490005        0000000000029234784900012877004581984383000000002122540017062021PAGO NOMINA                   11CRA1504189V9 00000000000000dgarcia@gruposeri.com                  17062021MARCELA VIVES GONZALEZ                                                
0490506        0000000000029234784900012885027038426305000000004931860017062021PAGO NOMINA                   11CRA1504189V9 00000000000000dgarcia@gruposeri.com                  17062021ANA MARIA RAMIREZ ZEPEDA                                              
0490512        0000000000029234784900012905015120049171000000003763710017062021PAGO NOMINA                   11CRA1504189V9 00000000000000dgarcia@gruposeri.com                  17062021PEDRO DAMIAN MARTINEZ BLANCO                                          
0490514        0000000000029234784900012841004557856507000000004778530017062021PAGO NOMINA                   11CRA1504189V9 00000000000000dgarcia@gruposeri.com                  17062021NALLELY REYES SANTOS                                                  
0490517        0000000000029234784900012881015035480745000000002225290017062021PAGO NOMINA                   11CRA1504189V9 00000000000000dgarcia@gruposeri.com                  17062021HECTOR JOEL DEL ANGEL LOZANO                                          
0490551        0000000000029234784900012855015163693087000000002122540017062021PAGO NOMINA                   11CRA1504189V9 00000000000000dgarcia@gruposeri.com                  17062021KARINA VELAZQUEZ LOPEZ                                                
0490574        0000000000029234784900012669027951168050000000003293830017062021PAGO NOMINA                   11CRA1504189V9 00000000000000dgarcia@gruposeri.com                  17062021LUIS ANGEL TORRES MARIN                                               
0490607        0000000000029234784900012650015216125490000000003763710017062021PAGO NOMINA                   11CRA1504189V9 00000000000000dgarcia@gruposeri.com                  17062021CARLOS ALBERTO MENDOZA ORTIZ                                          
0490738        0000000000029234784900012813015199436412000000002174500017062021PAGO NOMINA                   11CRA1504189V9 00000000000000dgarcia@gruposeri.com                  17062021VERONICA CRUZ CASTILLO                                                
0490732        0000000000029234784900012813015196883233000000002992020017062021PAGO NOMINA                   11CRA1504189V9 00000000000000dgarcia@gruposeri.com                  17062021MARIA DE JESUS PEREZ TICANTE                                          
0490683        0000000000029234784900012832015299533377000000002578030017062021PAGO NOMINA                   11CRA1504189V9 00000000000000dgarcia@gruposeri.com                  17062021ANABEL WITLE VAZQUEZ                                                  
0490655        0000000000029234784900012290028721472467000000003175220017062021PAGO NOMINA                   11CRA1504189V9 00000000000000dgarcia@gruposeri.com                  17062021JONATHAN HERNANDEZ ALVITER                                            
0490739        0000000000029234784900014811567056070171000000002122610017062021PAGO NOMINA                   11CRA1504189V9 00000000000000dgarcia@gruposeri.com                  17062021YOLANDA RODRIGUEZ ORTIZ                                               
0490110        0000000000029234784900014311605648957352000000002467640017062021PAGO NOMINA                   11CRA1504189V9 00000000000000dgarcia@gruposeri.com                  17062021YESSICA BERENICE MEZA CHAVEZ                                          
0490117        0000000000029234784900014670605703715057000000004542400017062021PAGO NOMINA                   11CRA1504189V9 00000000000000dgarcia@gruposeri.com                  17062021DANIEL CECILIO LUNA                                                   
0490441        0000000000029234784900014404568130887612000000006009210017062021PAGO NOMINA                   11CRA1504189V9 00000000000000dgarcia@gruposeri.com                  17062021NORMA STEFANIA RAMOS FIGUEROA                                         
0490827        0000000000029234784900014894606196352239000000002071100017062021PAGO NOMINA                   11CRA1504189V9 00000000000000dgarcia@gruposeri.com                  17062021BEATRIZ CRUZ DEL ANGEL                                                
0491033        0000000000029234784900014813566888135351000000002910490017062021PAGO NOMINA                   11CRA1504189V9 00000000000000dgarcia@gruposeri.com                  17062021MARIAN LIZBETH CASTILLO LOPEZ                                         
0491193        0000000000029234784900014877605958352026000000005348710017062021PAGO NOMINA                   11CRA1504189V9 00000000000000dgarcia@gruposeri.com                  17062021RIGOBERTO TORRES REYES                                                
0491256        0000000000029234784900014894200072434606000000005348710017062021PAGO NOMINA                   11CRA1504189V9 00000000000000dgarcia@gruposeri.com                  17062021MANUEL ZUNIGA VILLEGAS                                                
0491342        0000000000029234784900014888605985021050000000005319980017062021PAGO NOMINA                   11CRA1504189V9 00000000000000dgarcia@gruposeri.com                  17062021JOSE CARLOMAGNO VILLANUEVA LOTINA                                     
0491517        0000000000029234784900014813605969866484000000001728030017062021PAGO NOMINA                   11CRA1504189V9 00000000000000dgarcia@gruposeri.com                  17062021KARLA LIZBETH RODRIGUEZ CASTILLO                                      
0491815        0000000000029234784900014822567370478435000000002992210017062021PAGO NOMINA                   11CRA1504189V9 00000000000000dgarcia@gruposeri.com                  17062021MARISELA PEREZ ATZIN                                                  
0492120        0000000000029234784900014854606039076052000000002289350017062021PAGO NOMINA                   11CRA1504189V9 00000000000000dgarcia@gruposeri.com                  17062021SERGIO ANGEL CAMERINO PEREZ VELAZQUEZ                                 
0492208        0000000000029234784900014830606015435741000000002495720017062021PAGO NOMINA                   11CRA1504189V9 00000000000000dgarcia@gruposeri.com                  17062021MARIA DEL CARMEN OJEDA VALENCIA                                       
0492229        0000000000029234784900014290606105245559000000005278730017062021PAGO NOMINA                   11CRA1504189V9 00000000000000dgarcia@gruposeri.com                  17062021FRANCISCO LEONARDO ESTRADA RUIZ                                       
0492262        0000000000029234784900014841606077726937000000003763920017062021PAGO NOMINA                   11CRA1504189V9 00000000000000dgarcia@gruposeri.com                  17062021NUBIA ISEL SOLANO LARA                                                
0492285        0000000000029234784900014650567417475932000000005940940017062021PAGO NOMINA                   11CRA1504189V9 00000000000000dgarcia@gruposeri.com                  17062021JOSE OCTAVIO RUIZ MEJIA                                               
0492350        0000000000029234784900014650606002347417000000001368490017062021PAGO NOMINA                   11CRA1504189V9 00000000000000dgarcia@gruposeri.com                  17062021REYNOLDS MOJICA BALMORI                                               
0492605        0000000000029234784900014404568038174003000000002992080017062021PAGO NOMINA                   11CRA1504189V9 00000000000000dgarcia@gruposeri.com                  17062021KARINA AVALOS CRUZ                                                    
0492643        0000000000029234784900014832606081853520000000002394160017062021PAGO NOMINA                   11CRA1504189V9 00000000000000dgarcia@gruposeri.com                  17062021JACQUELIN GONZALEZ ORDONEZ                                            
0492709        0000000000029234784900014881567727192428000000003175390017062021PAGO NOMINA                   11CRA1504189V9 00000000000000dgarcia@gruposeri.com                  17062021MARCO ANTONIO CASTILLO CALDERON                                       
0492699        0000000000029234784900014296566795265928000000002992090017062021PAGO NOMINA                   11CRA1504189V9 00000000000000dgarcia@gruposeri.com                  17062021JULIO CESAR GARCIA REYES                                              
0492962        0000000000029234784900014845606129843803000000002992080017062021PAGO NOMINA                   11CRA1504189V9 00000000000000dgarcia@gruposeri.com                  17062021JUAN JOSE HERNANDEZ CRUZ                                              
0492979        0000000000029234784900014885567833459925000000002592060017062021PAGO NOMINA                   11CRA1504189V9 00000000000000dgarcia@gruposeri.com                  17062021ABRIL MARGARITA CERON ZEPETA                                          
0493038        0000000000029234784900014813567731821216000000002747840017062021PAGO NOMINA                   11CRA1504189V9 00000000000000dgarcia@gruposeri.com                  17062021VALERIA ESTEFANIA PEREZ GARAY                                         
0493034        0000000000029234784900014650605817800661000000002267110017062021PAGO NOMINA                   11CRA1504189V9 00000000000000dgarcia@gruposeri.com                  17062021GEOVANNI GONZALEZ GARCIA                                              
0493134        0000000000029234784900014811567872775249000000002992090017062021PAGO NOMINA                   11CRA1504189V9 00000000000000dgarcia@gruposeri.com                  17062021EMMA LAURA DE LA FUENTE MARTINEZ                                      
0493170        0000000000029234784900014813605623706071000000004760630017062021PAGO NOMINA                   11CRA1504189V9 00000000000000dgarcia@gruposeri.com                  17062021JESSICA MUNOZ SANCHEZ                                                 
0493177        0000000000029234784900014876567733793305000000001871040017062021PAGO NOMINA                   11CRA1504189V9 00000000000000dgarcia@gruposeri.com                  17062021BLANCA ISABEL ORTIZ CAMACHO                                           
0493204        0000000000029234784900014813567679920790000000003175390017062021PAGO NOMINA                   11CRA1504189V9 00000000000000dgarcia@gruposeri.com                  17062021VICTOR OMAR VALENTIN AGUIRRE                                          
0493194        0000000000029234784900014877606122565295000000002992090017062021PAGO NOMINA                   11CRA1504189V9 00000000000000dgarcia@gruposeri.com                  17062021YAZMIN DEL CARMEN RODRIGUEZ LURIA                                     
0493233        0000000000029234784900014854606050136625000000003826750017062021PAGO NOMINA                   11CRA1504189V9 00000000000000dgarcia@gruposeri.com                  17062021CARLOS CAZARIN DOMINGUEZ                                              
0493258        0000000000029234784900014580567478940893000000002419760017062021PAGO NOMINA                   11CRA1504189V9 00000000000000dgarcia@gruposeri.com                  17062021MARIA DE LOURDES PEREZ MARINO                                         
0493248        0000000000029234784900014650200120836015000000003764020017062021PAGO NOMINA                   11CRA1504189V9 00000000000000dgarcia@gruposeri.com                  17062021DENY PATRICIA MASTRANZO ROMERO                                        
0493307        0000000000029234784900014404606102353900000000002212010017062021PAGO NOMINA                   11CRA1504189V9 00000000000000dgarcia@gruposeri.com                  17062021JOSE ANTONIO VIQUEZ ESCALANTE                                         
0493294        0000000000029234784900014667567762954780000000002655290017062021PAGO NOMINA                   11CRA1504189V9 00000000000000dgarcia@gruposeri.com                  17062021JONATHAN ORTEGA FLORES                                                
0493374        0000000000029234784900014876605923805897000000001810510017062021PAGO NOMINA                   11CRA1504189V9 00000000000000dgarcia@gruposeri.com                  17062021IRIDIANA SANCHEZ SANCHEZ                                              
0493377        0000000000029234784900014650605963569490000000003344160017062021PAGO NOMINA                   11CRA1504189V9 00000000000000dgarcia@gruposeri.com                  17062021CLAUDIA VAZQUEZ DE LA ROSA                                            
0493352        0000000000029234784900014854605942366180000000012217550017062021PAGO NOMINA                   11CRA1504189V9 00000000000000dgarcia@gruposeri.com                  17062021JAIR FAJARDO FLORES                                                   
04901323       0000000000029234784900014580606149773739000000002992090017062021PAGO NOMINA                   11CRA1504189V9 00000000000000dgarcia@gruposeri.com                  17062021ANA KARINA DIAS LORENZO                                               
0493401        0000000000029234784900014670605523271690000000002975890017062021PAGO NOMINA                   11CRA1504189V9 00000000000000dgarcia@gruposeri.com                  17062021IVONNE AREVALO HUESCA                                                 
04904194       0000000000029234784900014580606104191958000000001616950017062021PAGO NOMINA                   11CRA1504189V9 00000000000000dgarcia@gruposeri.com                  17062021MIGUEL ROBERTO GARCIA GONZALEZ                                        
04904106       0000000000029234784900021813064739230476000000003175390017062021PAGO NOMINA                   11CRA1504189V9 00000000000000dgarcia@gruposeri.com                  17062021BLANCA LILIANA SALAZAR LOPEZ                                          
04904376       0000000000029234784900021671064070646783000000003175390017062021PAGO NOMINA                   11CRA1504189V9 00000000000000dgarcia@gruposeri.com                  17062021JUANA MORALES ANDRADE                                                 
0493392        0000000000029234784900021905064935161286000000003175390017062021PAGO NOMINA                   11CRA1504189V9 00000000000000dgarcia@gruposeri.com                  17062021AMALIA SUSETT HERNANDEZ SARAIBA                                       
0493371        0000000000029234784900021832064958859680000000003175390017062021PAGO NOMINA                   11CRA1504189V9 00000000000000dgarcia@gruposeri.com                  17062021ELVIA PEREZ ROMERO                                                    
0493361        0000000000029234784900021650065133050249000000003805210017062021PAGO NOMINA                   11CRA1504189V9 00000000000000dgarcia@gruposeri.com                  17062021ANA YANETH FLORES IGNACIO                                             
0493274        0000000000029234784900021650065117121220000000004661830017062021PAGO NOMINA                   11CRA1504189V9 00000000000000dgarcia@gruposeri.com                  17062021JOSE ANTONIO JIMENEZ ROSAS                                            
0493050        0000000000029234784900021650064970474018000000003180630017062021PAGO NOMINA                   11CRA1504189V9 00000000000000dgarcia@gruposeri.com                  17062021LILIANA STEPHANIA HERNANDEZ JORGE                                     
0493026        0000000000029234784900021830064610742419000000004281940017062021PAGO NOMINA                   11CRA1504189V9 00000000000000dgarcia@gruposeri.com                  17062021LORENZO ANTONIO GOIS BRIONES                                          
0492437        0000000000029234784900021854064555367757000000002992010017062021PAGO NOMINA                   11CRA1504189V9 00000000000000dgarcia@gruposeri.com                  17062021LEONARDO MICHEL ANTONIO HERNANDEZ                                     
0492112        0000000000029234784900021885065143053386000000001198540017062021PAGO NOMINA                   11CRA1504189V9 00000000000000dgarcia@gruposeri.com                  17062021CARMELA HERNANDEZ AMADOR                                              
0491989        0000000000029234784900021855065132986669000000002747780017062021PAGO NOMINA                   11CRA1504189V9 00000000000000dgarcia@gruposeri.com                  17062021ERICKA BECERRIL PEREZ                                                 
0491822        0000000000029234784900021888064510616464000000003190160017062021PAGO NOMINA                   11CRA1504189V9 00000000000000dgarcia@gruposeri.com                  17062021MARTHA PATRICIA DIEGO LARA                                            
0491511        0000000000029234784900021881064943605599000000002992020017062021PAGO NOMINA                   11CRA1504189V9 00000000000000dgarcia@gruposeri.com                  17062021BLANCA FLOR DEL ANGEL CRUZ                                            
0491199        0000000000029234784900021854064295834650000000003175220017062021PAGO NOMINA                   11CRA1504189V9 00000000000000dgarcia@gruposeri.com                  17062021ERASMO VASQUEZ DIAZ                                                   
0491022        0000000000029234784900021650064034481727000000007844490017062021PAGO NOMINA                   11CRA1504189V9 00000000000000dgarcia@gruposeri.com                  17062021SONIA BARRALES RIOS                                                   
0490830        0000000000029234784900021660064283888255000000010699720017062021PAGO NOMINA                   11CRA1504189V9 00000000000000dgarcia@gruposeri.com                  17062021ROGELIO PLUMA MENESES                                                 
0490295        0000000000029234784900021650063373983107000000002512900017062021PAGO NOMINA                   11CRA1504189V9 00000000000000dgarcia@gruposeri.com                  17062021MARIBEL BAUTISTA PINEDA                                               
0490304        0000000000029234784900021832063374049774000000003058010017062021PAGO NOMINA                   11CRA1504189V9 00000000000000dgarcia@gruposeri.com                  17062021ROSA MARIA HERNANDEZ HERNANDEZ                                        
0490318        0000000000029234784900021650063745885341000000004547710017062021PAGO NOMINA                   11CRA1504189V9 00000000000000dgarcia@gruposeri.com                  17062021ELIZABETH SOTO TEPOX                                                  
0490335        0000000000029234784900021650063917924166000000001819260017062021PAGO NOMINA                   11CRA1504189V9 00000000000000dgarcia@gruposeri.com                  17062021DANIEL ORTEGA DE LA CRUZ                                              
0490254        0000000000029234784900021877064444695672000000010106690017062021PAGO NOMINA                   11CRA1504189V9 00000000000000dgarcia@gruposeri.com                  17062021YESSIKA GUADALUPE PEREZ VIVES                                         
0490144        0000000000029234784900021670064063108255000000004542540017062021PAGO NOMINA                   11CRA1504189V9 00000000000000dgarcia@gruposeri.com                  17062021MARCELA ISIDRO ROBLES                                                 
04901079       0000000000029234784900044650256013072036000000003180630017062021PAGO NOMINA                   11CRA1504189V9 00000000000000dgarcia@gruposeri.com                  17062021LUCERO LOPEZ LIRA                                                     
0493325        0000000000029234784900044670043067041662000000002479410017062021PAGO NOMINA                   11CRA1504189V9 00000000000000dgarcia@gruposeri.com                  17062021JUAN CARLOS TELLEZ DIEGO                                              
04903926       0000000000029234784900044580145031776537000000003175390017062021PAGO NOMINA                   11CRA1504189V9 00000000000000dgarcia@gruposeri.com                  17062021MA. GUADALUPE MARCELENO MELENDEZ                                      
0492091        0000000000029234784900044650036055476959000000003344070017062021PAGO NOMINA                   11CRA1504189V9 00000000000000dgarcia@gruposeri.com                  17062021RONALDO CRUZ AGUIRRE                                                  
0492825        0000000000029234784900044890063011301969000000004578530017062021PAGO NOMINA                   11CRA1504189V9 00000000000000dgarcia@gruposeri.com                  17062021HECTOR MANUEL CARDENAS MAIN                                           
0492988        0000000000029234784900044650256007764871000000003344160017062021PAGO NOMINA                   11CRA1504189V9 00000000000000dgarcia@gruposeri.com                  17062021CARMEN BEATRIZ PEREZ ZUNIGA                                           
0491995        0000000000029234784900127832013766064091000000002485220017062021PAGO NOMINA                   11CRA1504189V9 00000000000000dgarcia@gruposeri.com                  17062021GABRIEL FLORES CARRASCO                                               
0492232        0000000000029234784900127650001375823516000000001760200017062021PAGO NOMINA                   11CRA1504189V9 00000000000000dgarcia@gruposeri.com                  17062021ROCIO SANCHEZ GARCIA                                                  
0492293        0000000000029234784900127670001066106412000000003170070017062021PAGO NOMINA                   11CRA1504189V9 00000000000000dgarcia@gruposeri.com                  17062021OSCAR HERNANDEZ GARCIA                                                
0492196        0000000000029234784900127650013110955488000000003180550017062021PAGO NOMINA                   11CRA1504189V9 00000000000000dgarcia@gruposeri.com                  17062021CESAR VAZQUEZ JUAREZ                                                  
0492181        0000000000029234784900127650001115904093000000002900390017062021PAGO NOMINA                   11CRA1504189V9 00000000000000dgarcia@gruposeri.com                  17062021MARIA DEL ROCIO LOPEZ SANCHEZ                                         
0492161        0000000000029234784900127650013659244223000000002574280017062021PAGO NOMINA                   11CRA1504189V9 00000000000000dgarcia@gruposeri.com                  17062021ADRIANA BELTRAN MENDEZ                                                
0492412        0000000000029234784900127869013331481315000000002992010017062021PAGO NOMINA                   11CRA1504189V9 00000000000000dgarcia@gruposeri.com                  17062021SARAI FERNANDEZ LOPEZ                                                 
0492512        0000000000029234784900127854001522463156000000002992090017062021PAGO NOMINA                   11CRA1504189V9 00000000000000dgarcia@gruposeri.com                  17062021FRANCISCO JAVIER PEREYRA MARTINEZ                                     
0492476        0000000000029234784900127869001168418592000000002992090017062021PAGO NOMINA                   11CRA1504189V9 00000000000000dgarcia@gruposeri.com                  17062021MARCO ANTONIO GOMEZ LOPEZ                                             
0492402        0000000000029234784900127311001142293951000000002992210017062021PAGO NOMINA                   11CRA1504189V9 00000000000000dgarcia@gruposeri.com                  17062021MIGUEL ANGEL VILLEDA GREGORIO                                         
0492540        0000000000029234784900127180016558086198000000002394180017062021PAGO NOMINA                   11CRA1504189V9 00000000000000dgarcia@gruposeri.com                  17062021NATALY SANLUIS HERNANDEZ                                              
0492589        0000000000029234784900127667013492635891000000001975050017062021PAGO NOMINA                   11CRA1504189V9 00000000000000dgarcia@gruposeri.com                  17062021CRISTIAN SERRANO PEREZ                                                
0492852        0000000000029234784900127834013704832461000000003175240017062021PAGO NOMINA                   11CRA1504189V9 00000000000000dgarcia@gruposeri.com                  17062021JORGE SANCHEZ JUAREZ                                                  
0493000        0000000000029234784900127650001293259822000000002228890017062021PAGO NOMINA                   11CRA1504189V9 00000000000000dgarcia@gruposeri.com                  17062021SANDRA LIZBETH PEREZ FLORES                                           
0492968        0000000000029234784900127888001288166611000000003175390017062021PAGO NOMINA                   11CRA1504189V9 00000000000000dgarcia@gruposeri.com                  17062021ANA LAURA VEGA VILLANUEVA                                             
0492959        0000000000029234784900127180016293025692000000002879510017062021PAGO NOMINA                   11CRA1504189V9 00000000000000dgarcia@gruposeri.com                  17062021JEZRAEL TEHOZOL CRUZ                                                  
0492949        0000000000029234784900127650013810898489000000002747840017062021PAGO NOMINA                   11CRA1504189V9 00000000000000dgarcia@gruposeri.com                  17062021ALMA GUADALUPE ALVARADO RODRIGUEZ                                     
0492897        0000000000029234784900127905001160264624000000019395990017062021PAGO NOMINA                   11CRA1504189V9 00000000000000dgarcia@gruposeri.com                  17062021MARIA ANGELICA PEREZ PASCAL                                           
0493217        0000000000029234784900127670001150575904000000003175390017062021PAGO NOMINA                   11CRA1504189V9 00000000000000dgarcia@gruposeri.com                  17062021VIRGINIA DEL CARMEN FELIPE CHIGO                                      
0493185        0000000000029234784900127869001243108099000000002992090017062021PAGO NOMINA                   11CRA1504189V9 00000000000000dgarcia@gruposeri.com                  17062021NATANAEL HERNANDEZ PASCUAL                                            
0493100        0000000000029234784900127890001101520898000000011218640017062021PAGO NOMINA                   11CRA1504189V9 00000000000000dgarcia@gruposeri.com                  17062021ARMANDO MELENDEZ HERNANDEZ                                            
0490265        0000000000029234784900127650013207460608000000003343890017062021PAGO NOMINA                   11CRA1504189V9 00000000000000dgarcia@gruposeri.com                  17062021IVONNE TOXQUI MARCIAL                                                 
0490328        0000000000029234784900127670001422221847000000002634740017062021PAGO NOMINA                   11CRA1504189V9 00000000000000dgarcia@gruposeri.com                  17062021YADIRA ZARATE MONTIEL                                                 
0490298        0000000000029234784900127614001422205683000000003058010017062021PAGO NOMINA                   11CRA1504189V9 00000000000000dgarcia@gruposeri.com                  17062021GLORIA ARIAS RIVERA                                                   
0490287        0000000000029234784900127311001098161629000000002991940017062021PAGO NOMINA                   11CRA1504189V9 00000000000000dgarcia@gruposeri.com                  17062021MARTIN ESTRADA OLMOS                                                  
0490442        0000000000029234784900127832013797769909000000003343890017062021PAGO NOMINA                   11CRA1504189V9 00000000000000dgarcia@gruposeri.com                  17062021CECILIA GARCIA FLORES                                                 
0490102        0000000000029234784900127676001040179210000000002573570017062021PAGO NOMINA                   11CRA1504189V9 00000000000000dgarcia@gruposeri.com                  17062021RAFAEL HERRERA CARMONA                                                
0490046        0000000000029234784900127832013346038434000000002747640017062021PAGO NOMINA                   11CRA1504189V9 00000000000000dgarcia@gruposeri.com                  17062021CARMEN LORENA SUAREZ SOSA                                             
0490048        0000000000029234784900127832013684711811000000002161520017062021PAGO NOMINA                   11CRA1504189V9 00000000000000dgarcia@gruposeri.com                  17062021CANDELARIA SOSA PEREZ                                                 
0490038        0000000000029234784900127311013903756706000000002213910017062021PAGO NOMINA                   11CRA1504189V9 00000000000000dgarcia@gruposeri.com                  17062021DIANA GABRIELA MIER PINTOR                                            
0490631        0000000000029234784900127404002121036605000000002823950017062021PAGO NOMINA                   11CRA1504189V9 00000000000000dgarcia@gruposeri.com                  17062021LORENA GONZALEZ RAMIREZ                                               
0490656        0000000000029234784900127303013252380433000000004001060017062021PAGO NOMINA                   11CRA1504189V9 00000000000000dgarcia@gruposeri.com                  17062021DEYRA YOSELIN HERNANDEZ QUIJANO                                       
0490490        0000000000029234784900127855013124425916000000002292750017062021PAGO NOMINA                   11CRA1504189V9 00000000000000dgarcia@gruposeri.com                  17062021MARGARITA MENDOZA RENDON                                              
0490456        0000000000029234784900127310001114741047000000002224820017062021PAGO NOMINA                   11CRA1504189V9 00000000000000dgarcia@gruposeri.com                  17062021ERIK ALEJANDRO ZUNIGA TREJO                                           
0490476        0000000000029234784900127832013791304373000000002747640017062021PAGO NOMINA                   11CRA1504189V9 00000000000000dgarcia@gruposeri.com                  17062021ROSALVA PEREZ HERNANDEZ                                               
0490531        0000000000029234784900127840013030620043000000002372130017062021PAGO NOMINA                   11CRA1504189V9 00000000000000dgarcia@gruposeri.com                  17062021LIZ YUBANY RAZZO JUAREZ                                               
0490545        0000000000029234784900127650013091158744000000002336200017062021PAGO NOMINA                   11CRA1504189V9 00000000000000dgarcia@gruposeri.com                  17062021JORGE XIQUE CABRERA                                                   
0490493        0000000000029234784900127855001383863981000000008043050017062021PAGO NOMINA                   11CRA1504189V9 00000000000000dgarcia@gruposeri.com                  17062021CAROLINA MARTINEZ HILARIO                                             
0490603        0000000000029234784900127291013204177104000000002122540017062021PAGO NOMINA                   11CRA1504189V9 00000000000000dgarcia@gruposeri.com                  17062021HORTENSIA GUZMAN HERNANDEZ                                            
0490604        0000000000029234784900127303013204035655000000003999280017062021PAGO NOMINA                   11CRA1504189V9 00000000000000dgarcia@gruposeri.com                  17062021KARINA LOPEZ ROSAS                                                    
0490968        0000000000029234784900127650013637786680000000005348710017062021PAGO NOMINA                   11CRA1504189V9 00000000000000dgarcia@gruposeri.com                  17062021OSCAR GABRIEL MARTINEZ VALLE                                          
0491055        0000000000029234784900127667013392032824000000002122610017062021PAGO NOMINA                   11CRA1504189V9 00000000000000dgarcia@gruposeri.com                  17062021HILARIA ANTONIA LOPEZ VARGAS                                          
0491134        0000000000029234784900127877013490136085000000004765370017062021PAGO NOMINA                   11CRA1504189V9 00000000000000dgarcia@gruposeri.com                  17062021EDUARDO ZUNIGA DE LA CRUZ                                             
0491304        0000000000029234784900127895001868761814000000003175220017062021PAGO NOMINA                   11CRA1504189V9 00000000000000dgarcia@gruposeri.com                  17062021ARELY AZUARA ALEJANDRE                                                
0491414        0000000000029234784900127834013433552481000000002405120017062021PAGO NOMINA                   11CRA1504189V9 00000000000000dgarcia@gruposeri.com                  17062021MARGARITA ROSETE AYAPANTECATL                                         
0491455        0000000000029234784900127650001149958950000000004042930017062021PAGO NOMINA                   11CRA1504189V9 00000000000000dgarcia@gruposeri.com                  17062021SANDRA VIRIDIANA OLVERA ESCUTIA                                       
04903869       0000000000029234784900127667013191827696000000003175390017062021PAGO NOMINA                   11CRA1504189V9 00000000000000dgarcia@gruposeri.com                  17062021NELSON YAMIL SUAREZ PEREZ                                             
04903004       0000000000029234784900127650013060417018000000002747840017062021PAGO NOMINA                   11CRA1504189V9 00000000000000dgarcia@gruposeri.com                  17062021RUTILO ALEJANDRO JUAREZ MERINO                                        
04903161       0000000000029234784900127905001414081498000000002198290017062021PAGO NOMINA                   11CRA1504189V9 00000000000000dgarcia@gruposeri.com                  17062021JERONIMO ROMAN ARRIETA                                                
04902921       0000000000029234784900127832001405281228000000003175390017062021PAGO NOMINA                   11CRA1504189V9 00000000000000dgarcia@gruposeri.com                  17062021CARLOS ALEJANDRO PALESTINA LIMA                                       
04904001       0000000000029234784900127890001427240001000000002747840017062021PAGO NOMINA                   11CRA1504189V9 00000000000000dgarcia@gruposeri.com                  17062021MARIBEL ESPINOSA CHAPOL                                               
04904039       0000000000029234784900127311013640902842000000002992090017062021PAGO NOMINA                   11CRA1504189V9 00000000000000dgarcia@gruposeri.com                  17062021FRANCISCO JAVIER RESENDIZ MIRANDA                                     
04903962       0000000000029234784900127650001427588686000000002567050017062021PAGO NOMINA                   11CRA1504189V9 00000000000000dgarcia@gruposeri.com                  17062021PRISCILA DALIA CASTRO GONZALEZ                                        
04904229       0000000000029234784900127650001231514626000000002760830017062021PAGO NOMINA                   11CRA1504189V9 00000000000000dgarcia@gruposeri.com                  17062021MARIA FERNANDA ROBLES LOPEZ                                           
0493335        0000000000029234784900127843001128938656000000005911740017062021PAGO NOMINA                   11CRA1504189V9 00000000000000dgarcia@gruposeri.com                  17062021HECTOR GONZALEZ CELAYA                                                
0493379        0000000000029234784900127667001196078724000000002985370017062021PAGO NOMINA                   11CRA1504189V9 00000000000000dgarcia@gruposeri.com                  17062021IVAN SANCHEZ CASCO                                                    
0493375        0000000000029234784900127832001245263053000000002695040017062021PAGO NOMINA                   11CRA1504189V9 00000000000000dgarcia@gruposeri.com                  17062021KEVIN CARMONA AVILA                                                   
0493347        0000000000029234784900127290013125450176000000003265720017062021PAGO NOMINA                   11CRA1504189V9 00000000000000dgarcia@gruposeri.com                  17062021IRVIN ASSAEL ESCAMILLA ISIDRO                                         
0493229        0000000000029234784900127650013529074154000000002274810017062021PAGO NOMINA                   11CRA1504189V9 00000000000000dgarcia@gruposeri.com                  17062021MARIA JOSE GUERRERO TONIZ                                             
0493247        0000000000029234784900127610001510085081000000004611770017062021PAGO NOMINA                   11CRA1504189V9 00000000000000dgarcia@gruposeri.com                  17062021KEYMA GOMEZ VELAZQUEZ                                                 
0493261        0000000000029234784900127650001333824900000000002747840017062021PAGO NOMINA                   11CRA1504189V9 00000000000000dgarcia@gruposeri.com                  17062021KARLA GARCES JUAREZ                                                   
0493280        0000000000029234784900127670013652427195000000002387680017062021PAGO NOMINA                   11CRA1504189V9 00000000000000dgarcia@gruposeri.com                  17062021MARY CARMEN BRAVO ACEVEDO                                             
0493287        0000000000029234784900127811001357764830000000004147200017062021PAGO NOMINA                   11CRA1504189V9 00000000000000dgarcia@gruposeri.com                  17062021PEDRO SANTIAGO RAMON                                                  
0493288        0000000000029234784900127290001267326701000000003175240017062021PAGO NOMINA                   11CRA1504189V9 00000000000000dgarcia@gruposeri.com                  17062021JOSE JESUS MEJIA LAZCANO                                              
04901518       0000000000029234784900127705001118951804000000005349080017062021PAGO NOMINA                   11CRA1504189V9 00000000000000dgarcia@gruposeri.com                  17062021HUGO ENRIQUE GOMEZ JUAREZ                                             
04901343       0000000000029234784900127180016072098332000000002747840017062021PAGO NOMINA                   11CRA1504189V9 00000000000000dgarcia@gruposeri.com                  17062021JESUS MANUEL SANTACRUZ HUERTA                                         
0493390        0000000000029234784900127841001168796012000000002221510017062021PAGO NOMINA                   11CRA1504189V9 00000000000000dgarcia@gruposeri.com                  17062021VERONICA SOTO RAMIREZ                                                 
0493395        0000000000029234784900127660001367735796000000003344160017062021PAGO NOMINA                   11CRA1504189V9 00000000000000dgarcia@gruposeri.com                  17062021BRISA TLAPAYA MENESES                                                 
0493396        0000000000029234784900127650001367717410000000001830250017062021PAGO NOMINA                   11CRA1504189V9 00000000000000dgarcia@gruposeri.com                  17062021BRENDA ALEJANDRA SORIANO RODRIGUEZ                                    
04902489       0000000000029234784900127811001353048754000000003451050017062021PAGO NOMINA                   11CRA1504189V9 00000000000000dgarcia@gruposeri.com                  17062021MA. LETICIA CRUZ MENDEZ                                               
04902127       0000000000029234784900127650013669955188000000002576420017062021PAGO NOMINA                   11CRA1504189V9 00000000000000dgarcia@gruposeri.com                  17062021LUCIA HERNANDEZ SERDA                                                 
04902311       0000000000029234784900127650013946211697000000003344160017062021PAGO NOMINA                   11CRA1504189V9 00000000000000dgarcia@gruposeri.com                  17062021JESSICA SANCHEZ PALESTINA                                             
04902650       0000000000029234784900127877001213123300000000002744180017062021PAGO NOMINA                   11CRA1504189V9 00000000000000dgarcia@gruposeri.com                  17062021JUAN CARLOS PEREZ MORALES                                             
04902587       0000000000029234784900127894013719927107000000002992090017062021PAGO NOMINA                   11CRA1504189V9 00000000000000dgarcia@gruposeri.com                  17062021HEBER JAVIN MEDINA MORALES                                            
04901645       0000000000029234784900127652001313787243000000002558640017062021PAGO NOMINA                   11CRA1504189V9 00000000000000dgarcia@gruposeri.com                  17062021GIOVANNI TELLEZ ROSAS                                                 
0492090        0000000000029234784900137850104133586504000000003763920017062021PAGO NOMINA                   11CRA1504189V9 00000000000000dgarcia@gruposeri.com                  17062021CARMEN CITLALLI SANTOS GARCIA                                         
0491942        0000000000029234784900137841103414556726000000001725850017062021PAGO NOMINA                   11CRA1504189V9 00000000000000dgarcia@gruposeri.com                  17062021NEREYDA DEL CARMEN ANTONIO HERNANDEZ                                  
0491866        0000000000029234784900137885103393341911000000001544740017062021PAGO NOMINA                   11CRA1504189V9 00000000000000dgarcia@gruposeri.com                  17062021LUCIANO LOPEZ RAMOS                                                   
0491785        0000000000029234784900137669140007400725000000003175300017062021PAGO NOMINA                   11CRA1504189V9 00000000000000dgarcia@gruposeri.com                  17062021MAYRA LETICIA GONZALEZ ALMEIDA                                        
0491783        0000000000029234784900137650101384652396000000005348900017062021PAGO NOMINA                   11CRA1504189V9 00000000000000dgarcia@gruposeri.com                  17062021CINTHIA GUADALUPE PACHECO RODRIGUEZ                                   
0492383        0000000000029234784900137877102951629408000000002747780017062021PAGO NOMINA                   11CRA1504189V9 00000000000000dgarcia@gruposeri.com                  17062021DANIELA ARANTZA VASQUEZ RAMIREZ                                       
0492197        0000000000029234784900137311102186014001000000002747780017062021PAGO NOMINA                   11CRA1504189V9 00000000000000dgarcia@gruposeri.com                  17062021MARIA DEL CARMEN GODOY GONZAGA                                        
0492301        0000000000029234784900137874100813293922000000002747780017062021PAGO NOMINA                   11CRA1504189V9 00000000000000dgarcia@gruposeri.com                  17062021YESSEL IZBET OLIVARES DIAZ                                            
0493047        0000000000029234784900137905103926178208000000003175390017062021PAGO NOMINA                   11CRA1504189V9 00000000000000dgarcia@gruposeri.com                  17062021JOSE IRVING LOPEZ OLMOS                                               
0492936        0000000000029234784900137877100476237966000000002992090017062021PAGO NOMINA                   11CRA1504189V9 00000000000000dgarcia@gruposeri.com                  17062021ENRIQUE MOCTEZUMA ANAYA                                               
0493215        0000000000029234784900137903103687870902000000003175390017062021PAGO NOMINA                   11CRA1504189V9 00000000000000dgarcia@gruposeri.com                  17062021ARMANDO CASTAN HERNANDEZ                                              
0493187        0000000000029234784900137669170007122727000000002158280017062021PAGO NOMINA                   11CRA1504189V9 00000000000000dgarcia@gruposeri.com                  17062021MARIAN KELLY ROSAS SANCHEZ                                            
0493088        0000000000029234784900137855103673607936000000002268970017062021PAGO NOMINA                   11CRA1504189V9 00000000000000dgarcia@gruposeri.com                  17062021LUIS ALBERTO SORCIA TRUJILLO                                          
0492794        0000000000029234784900137881103695949963000000002495140017062021PAGO NOMINA                   11CRA1504189V9 00000000000000dgarcia@gruposeri.com                  17062021GUADALUPE MARTINEZ MAR                                                
0492815        0000000000029234784900137650130050165201000000002544180017062021PAGO NOMINA                   11CRA1504189V9 00000000000000dgarcia@gruposeri.com                  17062021LAURA PAOLA VELAZQUEZ ROJAS                                           
0492620        0000000000029234784900137845101812656006000000002244160017062021PAGO NOMINA                   11CRA1504189V9 00000000000000dgarcia@gruposeri.com                  17062021ILSE SOFIA GARCIA HERNANDEZ                                           
