0490042        00000000000292347849000002650901410873031000000006998260017062021PAGO NOMINA                   11CRA1504189V9 00000000000000dgarcia@gruposeri.com                  17062021MARISELA VELAZCO MURILLO                                             
0490065        00000000000292347849000002290701463492595000000005206910017062021PAGO NOMINA                   11CRA1504189V9 00000000000000dgarcia@gruposeri.com                  17062021HIRAM URIEL ORTEGA HIDALGO                                           
0490068        00000000000292347849000002303901794269346000000004202520017062021PAGO NOMINA                   11CRA1504189V9 00000000000000dgarcia@gruposeri.com                  17062021ROCIO HERNANDEZ HILARIO                                              
0490208        00000000000292347849000002881904289581278000000005120260017062021PAGO NOMINA                   11CRA1504189V9 00000000000000dgarcia@gruposeri.com                  17062021JORGE LUIS BLANCO REZA                                               
0490194        00000000000292347849000002830901979050762000000005348530017062021PAGO NOMINA                   11CRA1504189V9 00000000000000dgarcia@gruposeri.com                  17062021JUAN CARLOS VALENCIA BRIONES                                         
0490419        00000000000292347849000002854904289692343000000003292950017062021PAGO NOMINA                   11CRA1504189V9 00000000000000dgarcia@gruposeri.com                  17062021AURELIA MARIA RUEDA VELAZQUEZ                                        
0490495        00000000000292347849000002180903901768479000000002793890017062021PAGO NOMINA                   11CRA1504189V9 00000000000000dgarcia@gruposeri.com                  17062021SARAH MARLENNE BALDUMINO CHACON                                      
0490572        00000000000292347849000002669903704251824000000002122540017062021PAGO NOMINA                   11CRA1504189V9 00000000000000dgarcia@gruposeri.com                  17062021TEODORA CASTILLO MORENO                                              
0490648        00000000000292347849000002813902459783151000000001598680017062021PAGO NOMINA                   11CRA1504189V9 00000000000000dgarcia@gruposeri.com                  17062021RICARDO MERIDA CASTILLO                                              
0490708        00000000000292347849000002670902830118517000000001655890017062021PAGO NOMINA                   11CRA1504189V9 00000000000000dgarcia@gruposeri.com                  17062021SARA JENNY MONTES FARFAN                                             
0490973        00000000000292347849000002903903725881191000000002612270017062021PAGO NOMINA                   11CRA1504189V9 00000000000000dgarcia@gruposeri.com                  17062021EMMANUEL DE LA CRUZ MARTINEZ                                         
0490988        00000000000292347849000002841902429702082000000002694030017062021PAGO NOMINA                   11CRA1504189V9 00000000000000dgarcia@gruposeri.com                  17062021ALIN SUGEY CERVANTES MARTINEZ                                        
0491020        00000000000292347849000002877904341766615000000003999410017062021PAGO NOMINA                   11CRA1504189V9 00000000000000dgarcia@gruposeri.com                  17062021NORA DEL CARMEN MATEO HERNANDEZ                                      
0491056        00000000000292347849000002650901347391686000000003343970017062021PAGO NOMINA                   11CRA1504189V9 00000000000000dgarcia@gruposeri.com                  17062021CECILIA JACOME ROJAS                                                 
0491135        00000000000292347849000002290901766330099000000003649870017062021PAGO NOMINA                   11CRA1504189V9 00000000000000dgarcia@gruposeri.com                  17062021MIGUEL ANGEL CALVA PANTALEON                                         
0491184        00000000000292347849000002674902795689653000000003343970017062021PAGO NOMINA                   11CRA1504189V9 00000000000000dgarcia@gruposeri.com                  17062021MARIANA PALETA JIMENEZ                                               
0491282        00000000000292347849000002885903650415543000000003465810017062021PAGO NOMINA                   11CRA1504189V9 00000000000000dgarcia@gruposeri.com                  17062021FABIOLA DE LEON SANTIAGO                                             
0491693        00000000000292347849000002841903805599342000000002209100017062021PAGO NOMINA                   11CRA1504189V9 00000000000000dgarcia@gruposeri.com                  17062021EDGAR EMILIO AZAMAR FONSECA                                          
0492035        00000000000292347849000002876901943871986000000002992010017062021PAGO NOMINA                   11CRA1504189V9 00000000000000dgarcia@gruposeri.com                  17062021LORENZO RIQUELME GONZALEZ                                            
0492192        00000000000292347849000002650904117480135000000002566990017062021PAGO NOMINA                   11CRA1504189V9 00000000000000dgarcia@gruposeri.com                  17062021ANA KAREN FRANCISCO CABRERA                                          
0492224        00000000000292347849000002881904129765167000000002992000017062021PAGO NOMINA                   11CRA1504189V9 00000000000000dgarcia@gruposeri.com                  17062021TERESA DE JESUS DE LA CRUZ DOMINGUEZ                                 
0492243        00000000000292347849000002669904113212657000000002394080017062021PAGO NOMINA                   11CRA1504189V9 00000000000000dgarcia@gruposeri.com                  17062021MARTHA ELENA JUAREZ ALMEIDA                                          
0492357        00000000000292347849000002877904173933810000000002747780017062021PAGO NOMINA                   11CRA1504189V9 00000000000000dgarcia@gruposeri.com                  17062021ROSA KAREN JIMENEZ VAZQUEZ                                           
0492413        00000000000292347849000002841903504885959000000003175300017062021PAGO NOMINA                   11CRA1504189V9 00000000000000dgarcia@gruposeri.com                  17062021EDER ANTONIO MOLINA                                                  
0492425        00000000000292347849000002881904395907092000000002992000017062021PAGO NOMINA                   11CRA1504189V9 00000000000000dgarcia@gruposeri.com                  17062021DIEGO GERMAN TRUJILLO GERONIMO                                       
0492498        00000000000292347849000002888904163763788000000002267960017062021PAGO NOMINA                   11CRA1504189V9 00000000000000dgarcia@gruposeri.com                  17062021ARMANDO ORTIZ MARTINEZ                                               
0492523        00000000000292347849000002650901627155762000000003679440017062021PAGO NOMINA                   11CRA1504189V9 00000000000000dgarcia@gruposeri.com                  17062021SAUL FUENTES JUAREZ                                                  
0492524        00000000000292347849000002813902179044112000000002390200017062021PAGO NOMINA                   11CRA1504189V9 00000000000000dgarcia@gruposeri.com                  17062021MARIA LAURA JEREZ RODRIGUEZ                                          
0492639        00000000000292347849000002841904188854745000000002748200017062021PAGO NOMINA                   11CRA1504189V9 00000000000000dgarcia@gruposeri.com                  17062021ENITH ARLINNE PONCE RAMIREZ                                          
0492696        00000000000292347849000002813904278276656000000002388650017062021PAGO NOMINA                   11CRA1504189V9 00000000000000dgarcia@gruposeri.com                  17062021DREHIDY JANET FLORES RUIZ                                            
0492703        00000000000292347849000002877903658764275000000002992090017062021PAGO NOMINA                   11CRA1504189V9 00000000000000dgarcia@gruposeri.com                  17062021REYNA DEL CARMEN MALDONADO LURIA                                     
0492725        00000000000292347849000002580903776460874000000002992170017062021PAGO NOMINA                   11CRA1504189V9 00000000000000dgarcia@gruposeri.com                  17062021MAURITANIA DESHIDU AGUIRRE SALAZAR                                   
0492782        00000000000292347849000002885903688070439000000002992080017062021PAGO NOMINA                   11CRA1504189V9 00000000000000dgarcia@gruposeri.com                  17062021CARLOS ALBERTO JUAREZ HERNANDEZ                                      
0492853        00000000000292347849000002296904312830177000000002992080017062021PAGO NOMINA                   11CRA1504189V9 00000000000000dgarcia@gruposeri.com                  17062021REYNALDO HERNANDEZ BADILLO                                           
0492856        00000000000292347849000002290701581820748000000004773670017062021PAGO NOMINA                   11CRA1504189V9 00000000000000dgarcia@gruposeri.com                  17062021ARMANDO GUTIERREZ MORALES                                            
0492985        00000000000292347849000002650904476356492000000003344160017062021PAGO NOMINA                   11CRA1504189V9 00000000000000dgarcia@gruposeri.com                  17062021ANGEL GUTIERREZ RAMIREZ                                              
0493118        00000000000292347849000002869701658851453000000002992090017062021PAGO NOMINA                   11CRA1504189V9 00000000000000dgarcia@gruposeri.com                  17062021PORFIRIO PITA BUSTAMANTE                                             
0493129        00000000000292347849000002813701329957519000000002368900017062021PAGO NOMINA                   11CRA1504189V9 00000000000000dgarcia@gruposeri.com                  17062021MANUEL ANTONIO ROBLEDO GUTIERREZ                                     
0493147        00000000000292347849000002668701664783499000000002747840017062021PAGO NOMINA                   11CRA1504189V9 00000000000000dgarcia@gruposeri.com                  17062021ESTEFANIA GONZALEZ CAMPOS                                            
0493152        00000000000292347849000002855904103621114000000002730070017062021PAGO NOMINA                   11CRA1504189V9 00000000000000dgarcia@gruposeri.com                  17062021KRISTIAN ORLANDO LOPEZ MARTINEZ                                      
0493169        00000000000292347849000002813902497734243000000005905240017062021PAGO NOMINA                   11CRA1504189V9 00000000000000dgarcia@gruposeri.com                  17062021OMAR RIOS RODRIGUEZ                                                  
0493234        00000000000292347849000002813700966106436000000002992090017062021PAGO NOMINA                   11CRA1504189V9 00000000000000dgarcia@gruposeri.com                  17062021ELVIA RUTH MIRANDA PACHECO                                           
0493309        00000000000292347849000002650903460208722000000002597300017062021PAGO NOMINA                   11CRA1504189V9 00000000000000dgarcia@gruposeri.com                  17062021PATRICIA VARGAS VICUNO                                               
0493311        00000000000292347849000002854904395731114000000002747840017062021PAGO NOMINA                   11CRA1504189V9 00000000000000dgarcia@gruposeri.com                  17062021ILSE IVETH PEREZ CHAVEZ                                              
04901834       00000000000292347849000002840904050335416000000002992090017062021PAGO NOMINA                   11CRA1504189V9 00000000000000dgarcia@gruposeri.com                  17062021JORGE LUIS TORRES GARCIA                                             
04902216       00000000000292347849000002834902930390534000000005349080017062021PAGO NOMINA                   11CRA1504189V9 00000000000000dgarcia@gruposeri.com                  17062021JUAN TEPATZI ZEMPOALTECA                                             
04902829       00000000000292347849000002650902264398376000000003344160017062021PAGO NOMINA                   11CRA1504189V9 00000000000000dgarcia@gruposeri.com                  17062021ALAN GUTIERREZ ANDRADE                                               
04903018       00000000000292347849000002311904523474061000000002096890017062021PAGO NOMINA                   11CRA1504189V9 00000000000000dgarcia@gruposeri.com                  17062021MARIA ISABEL MARIN HIDALGO                                           
04903042       00000000000292347849000002877904438807115000000002747840017062021PAGO NOMINA                   11CRA1504189V9 00000000000000dgarcia@gruposeri.com                  17062021VALERIA IDALIA GOMEZ ATILANO                                         
04902979       00000000000292347849000002680904415447730000000001773280017062021PAGO NOMINA                   11CRA1504189V9 00000000000000dgarcia@gruposeri.com                  17062021ANGELICO MARTINEZ BAUTISTA                                           
04903498       00000000000292347849000002895902942101475000000002992090017062021PAGO NOMINA                   11CRA1504189V9 00000000000000dgarcia@gruposeri.com                  17062021SUSLI DAMARIS LOZANO CRUZ                                            
04903615       00000000000292347849000002882903299240910000000003175390017062021PAGO NOMINA                   11CRA1504189V9 00000000000000dgarcia@gruposeri.com                  17062021FELIPE DE JESUS TOLEDO BARRAN                                        
04903866       00000000000292347849000002876701622160480000000002992090017062021PAGO NOMINA                   11CRA1504189V9 00000000000000dgarcia@gruposeri.com                  17062021SILVESTRE LOPEZ RIVERA                                               
04903916       00000000000292347849000012180015280370974000000002931210017062021PAGO NOMINA                   11CRA1504189V9 00000000000000dgarcia@gruposeri.com                  17062021BEATRIZ HERRERA MARQUEZ                                              
04903984       00000000000292347849000012180015295178446000000003175390017062021PAGO NOMINA                   11CRA1504189V9 00000000000000dgarcia@gruposeri.com                  17062021JOSE ANTONIO ISLAS CRUZ                                              
04904097       00000000000292347849000012180015268027508000000002747840017062021PAGO NOMINA                   11CRA1504189V9 00000000000000dgarcia@gruposeri.com                  17062021GEMA ALESSANDRA GUADALUPE MORALES HERNANDEZ                          
04904182       00000000000292347849000012845029109375925000000002992090017062021PAGO NOMINA                   11CRA1504189V9 00000000000000dgarcia@gruposeri.com                  17062021GASPAR GONZALEZ MUNOZ                                                
04903610       00000000000292347849000012180015195194724000000002747840017062021PAGO NOMINA                   11CRA1504189V9 00000000000000dgarcia@gruposeri.com                  17062021KARLA LIZETH PENA GONZALEZ                                           
04903854       00000000000292347849000012650004717419933000000006529170017062021PAGO NOMINA                   11CRA1504189V9 00000000000000dgarcia@gruposeri.com                  17062021JULIO JUAN ARCOS MENDEZ                                              
04903045       00000000000292347849000012840015501260553000000002747840017062021PAGO NOMINA                   11CRA1504189V9 00000000000000dgarcia@gruposeri.com                  17062021NORMA LISETTE HERNANDEZ CASTILLO                                     
04903104       00000000000292347849000012180015107282996000000002408760017062021PAGO NOMINA                   11CRA1504189V9 00000000000000dgarcia@gruposeri.com                  17062021FAUSTINO GIL ORTEGA                                                  
04903230       00000000000292347849000012888029906650457000000005349080017062021PAGO NOMINA                   11CRA1504189V9 00000000000000dgarcia@gruposeri.com                  17062021HECTOR CARO ALONSO                                                   
04903329       00000000000292347849000012905015560457446000000001819660017062021PAGO NOMINA                   11CRA1504189V9 00000000000000dgarcia@gruposeri.com                  17062021SERGIO MEDEL AGUILAR                                                 
04903343       00000000000292347849000012180015745277910000000003175390017062021PAGO NOMINA                   11CRA1504189V9 00000000000000dgarcia@gruposeri.com                  17062021LUIS ALBERTO HERRERA MACIAS                                          
04903430       00000000000292347849000012832015214548622000000003764020017062021PAGO NOMINA                   11CRA1504189V9 00000000000000dgarcia@gruposeri.com                  17062021ELIAS MERINO HERNANDEZ                                               
04904235       00000000000292347849000012180015601380226000000002992090017062021PAGO NOMINA                   11CRA1504189V9 00000000000000dgarcia@gruposeri.com                  17062021ALEJANDRO MANUEL LUIS CRUZ                                           
0492695        00000000000292347849000012834015680389536000000003999640017062021PAGO NOMINA                   11CRA1504189V9 00000000000000dgarcia@gruposeri.com                  17062021JOSE ERIK AGUILAR DOMINGUEZ                                          
04902855       00000000000292347849000012650026691022806000000002211290017062021PAGO NOMINA                   11CRA1504189V9 00000000000000dgarcia@gruposeri.com                  17062021PEDRO ARTURO MARTINEZ SEGURA                                         
04902316       00000000000292347849000012650015505800345000000003344160017062021PAGO NOMINA                   11CRA1504189V9 00000000000000dgarcia@gruposeri.com                  17062021JHOVANY RAMOS FLORES                                                 
04902322       00000000000292347849000012296015720546152000000002547840017062021PAGO NOMINA                   11CRA1504189V9 00000000000000dgarcia@gruposeri.com                  17062021DULCE CRISTAL HERNANDEZ ARADIAZ                                      
04902925       00000000000292347849000012670015117679368000000003180630017062021PAGO NOMINA                   11CRA1504189V9 00000000000000dgarcia@gruposeri.com                  17062021GUADALUPE ANAHI MORALES JIMENEZ                                      
04902926       00000000000292347849000012290029283883852000000002747840017062021PAGO NOMINA                   11CRA1504189V9 00000000000000dgarcia@gruposeri.com                  17062021ARACELI HERNANDEZ ROMERO                                             
04901942       00000000000292347849000012311014938653470000000003175390017062021PAGO NOMINA                   11CRA1504189V9 00000000000000dgarcia@gruposeri.com                  17062021DONAJI HORTENCIA PELAEZ SARABIA                                      
04902495       00000000000292347849000012180015183787062000000003175390017062021PAGO NOMINA                   11CRA1504189V9 00000000000000dgarcia@gruposeri.com                  17062021ARAFATH IUDICAEL HERNANDEZ MARTINEZ                                  
04902496       00000000000292347849000012813026378563852000000002419680017062021PAGO NOMINA                   11CRA1504189V9 00000000000000dgarcia@gruposeri.com                  17062021SOFIA MARTINEZ GONZALEZ                                              
04901802       00000000000292347849000012180015024960003000000002747840017062021PAGO NOMINA                   11CRA1504189V9 00000000000000dgarcia@gruposeri.com                  17062021ENRIQUE DE JESUS AGUILAR FLORES                                      
04901456       00000000000292347849000012650027950545670000000002592060017062021PAGO NOMINA                   11CRA1504189V9 00000000000000dgarcia@gruposeri.com                  17062021JORGE ANGEL ITURBIDE MORALES                                         
04901569       00000000000292347849000012320015241299825000000003344160017062021PAGO NOMINA                   11CRA1504189V9 00000000000000dgarcia@gruposeri.com                  17062021JOSE CARLOS MUNOZ CRUZ                                               
04901622       00000000000292347849000012881015450017764000000003175390017062021PAGO NOMINA                   11CRA1504189V9 00000000000000dgarcia@gruposeri.com                  17062021PEDRO LUIS CRUZ HERNANDEZ                                            
0493398        00000000000292347849000012180015712952093000000002747840017062021PAGO NOMINA                   11CRA1504189V9 00000000000000dgarcia@gruposeri.com                  17062021BRENDA JAEL HURTADO RUVALCABA                                        
0493400        00000000000292347849000012180015291896997000000003175390017062021PAGO NOMINA                   11CRA1504189V9 00000000000000dgarcia@gruposeri.com                  17062021HYARACET RAMIREZ RAMIREZ                                             
04901060       00000000000292347849000012888015385929933000000002408760017062021PAGO NOMINA                   11CRA1504189V9 00000000000000dgarcia@gruposeri.com                  17062021JULIO CESAR RODRIGUEZ RAMIREZ                                        
04901117       00000000000292347849000012180015091469867000000002153690017062021PAGO NOMINA                   11CRA1504189V9 00000000000000dgarcia@gruposeri.com                  17062021GUADALUPE BARBA ALBARRAN                                             
04901222       00000000000292347849000012810029787862678000000002500070017062021PAGO NOMINA                   11CRA1504189V9 00000000000000dgarcia@gruposeri.com                  17062021LIDIA YETZEMANY CORTEZ CRUZ                                          
04901309       00000000000292347849000012813015690311971000000002573540017062021PAGO NOMINA                   11CRA1504189V9 00000000000000dgarcia@gruposeri.com                  17062021JOSE GUADALUPE DEL RIO CRUZ                                          
0493318        00000000000292347849000012854027906876267000000002599790017062021PAGO NOMINA                   11CRA1504189V9 00000000000000dgarcia@gruposeri.com                  17062021NESTOR MARTINEZ LOPEZ                                                
0493338        00000000000292347849000012903015624921085000000002244160017062021PAGO NOMINA                   11CRA1504189V9 00000000000000dgarcia@gruposeri.com                  17062021KAREN CLAUDINE CRUZ SILVA                                            
0493341        00000000000292347849000012877015161994999000000002432380017062021PAGO NOMINA                   11CRA1504189V9 00000000000000dgarcia@gruposeri.com                  17062021ANITA HERNANDEZ TRANQUILINO                                          
0493263        00000000000292347849000012712015590531855000000002992090017062021PAGO NOMINA                   11CRA1504189V9 00000000000000dgarcia@gruposeri.com                  17062021CARLOS TOMAS EUGENIO REYES                                           
0493265        00000000000292347849000012290027649885072000000002403140017062021PAGO NOMINA                   11CRA1504189V9 00000000000000dgarcia@gruposeri.com                  17062021DANIEL OMANA ZARCO                                                   
0493289        00000000000292347849000012670015735804340000000002221150017062021PAGO NOMINA                   11CRA1504189V9 00000000000000dgarcia@gruposeri.com                  17062021KARLA ADRIANA FLORES SAAVEDRA                                        
0493300        00000000000292347849000012180015572601160000000002992090017062021PAGO NOMINA                   11CRA1504189V9 00000000000000dgarcia@gruposeri.com                  17062021JUAN DIEGO JUAREZ LOPEZ                                              
0493301        00000000000292347849000012854015410976555000000002992090017062021PAGO NOMINA                   11CRA1504189V9 00000000000000dgarcia@gruposeri.com                  17062021ISSAC CHAVEZ WOOD                                                    
0493349        00000000000292347849000012885029958529432000000002992090017062021PAGO NOMINA                   11CRA1504189V9 00000000000000dgarcia@gruposeri.com                  17062021LETICIA GARCIA BENITO                                                
0493362        00000000000292347849000012888029959075005000000002747840017062021PAGO NOMINA                   11CRA1504189V9 00000000000000dgarcia@gruposeri.com                  17062021KATYA EMIRETH MARTINEZ PEREZ                                         
0493373        00000000000292347849000012876011273807209000000002408750017062021PAGO NOMINA                   11CRA1504189V9 00000000000000dgarcia@gruposeri.com                  17062021ALEXIS GONZALEZ DE LA CRUZ                                           
0493393        00000000000292347849000012885029182621876000000004519870017062021PAGO NOMINA                   11CRA1504189V9 00000000000000dgarcia@gruposeri.com                  17062021JESUS ANGEL GONZALEZ RAMIREZ                                         
0493240        00000000000292347849000012650015096703469000000003344160017062021PAGO NOMINA                   11CRA1504189V9 00000000000000dgarcia@gruposeri.com                  17062021FERNANDO JUAREZ MARIN                                                
0493244        00000000000292347849000012676015801648722000000003175390017062021PAGO NOMINA                   11CRA1504189V9 00000000000000dgarcia@gruposeri.com                  17062021JESUS EMMANUEL CRUZ HERNANDEZ                                        
0493246        00000000000292347849000012905028694524009000000003764020017062021PAGO NOMINA                   11CRA1504189V9 00000000000000dgarcia@gruposeri.com                  17062021EDNA GISELDA CARDENA MUNOZ                                           
0493216        00000000000292347849000012180015940001486000000002992090017062021PAGO NOMINA                   11CRA1504189V9 00000000000000dgarcia@gruposeri.com                  17062021LUCAS FELIPE CASTRO                                                  
0493218        00000000000292347849000012180015634071984000000003175390017062021PAGO NOMINA                   11CRA1504189V9 00000000000000dgarcia@gruposeri.com                  17062021EVELIN YANET RAMIREZ HERNANDEZ                                       
0493224        00000000000292347849000012150015762436421000000003175390017062021PAGO NOMINA                   11CRA1504189V9 00000000000000dgarcia@gruposeri.com                  17062021KENIA ELIDETH GONZALEZ CRUZ                                          
0493257        00000000000292347849000012876011252350735000000002992090017062021PAGO NOMINA                   11CRA1504189V9 00000000000000dgarcia@gruposeri.com                  17062021PATRICIA GONZALEZ FRAYRE                                             
0493277        00000000000292347849000012290015143123925000000005349080017062021PAGO NOMINA                   11CRA1504189V9 00000000000000dgarcia@gruposeri.com                  17062021BRIANN EDUARDO ZAMUDIO ANGELES                                       
0493156        00000000000292347849000012884026978924626000000002623240017062021PAGO NOMINA                   11CRA1504189V9 00000000000000dgarcia@gruposeri.com                  17062021LUZ ADRIANA HERNANDEZ DEL ANGEL                                      
0493159        00000000000292347849000012883015181538688000000002267790017062021PAGO NOMINA                   11CRA1504189V9 00000000000000dgarcia@gruposeri.com                  17062021LUIS CRUZ HERNANDEZ                                                  
0492633        00000000000292347849000012845015574686143000000002480400017062021PAGO NOMINA                   11CRA1504189V9 00000000000000dgarcia@gruposeri.com                  17062021TERESA DE JESUS HERNANDEZ MURILLO                                    
0493183        00000000000292347849000012876004632075951000000002381480017062021PAGO NOMINA                   11CRA1504189V9 00000000000000dgarcia@gruposeri.com                  17062021JOSE SALVADOR RUEDA LECORTUA                                         
0493191        00000000000292347849000012180015742828100000000003344160017062021PAGO NOMINA                   11CRA1504189V9 00000000000000dgarcia@gruposeri.com                  17062021ISRAEL CARRERA PACHECO                                               
0493131        00000000000292347849000012832015407369566000000002747840017062021PAGO NOMINA                   11CRA1504189V9 00000000000000dgarcia@gruposeri.com                  17062021CAROLINA MENDOZA MENDEZ                                              
0493052        00000000000292347849000012311015670803723000000003175240017062021PAGO NOMINA                   11CRA1504189V9 00000000000000dgarcia@gruposeri.com                  17062021ERICK FRANCISCO NERI CASTRO                                          
0493060        00000000000292347849000012830015159724040000000003344160017062021PAGO NOMINA                   11CRA1504189V9 00000000000000dgarcia@gruposeri.com                  17062021CLARA ESTEFANY DURAN TORRES                                          
0493086        00000000000292347849000012873015592262498000000002747840017062021PAGO NOMINA                   11CRA1504189V9 00000000000000dgarcia@gruposeri.com                  17062021BRENDA MELENDEZ MENDEZ                                               
0493006        00000000000292347849000012180015547700342000000003175390017062021PAGO NOMINA                   11CRA1504189V9 00000000000000dgarcia@gruposeri.com                  17062021PABLO OLMEDO GARCIA                                                  
0493013        00000000000292347849000012580029921440500000000002597300017062021PAGO NOMINA                   11CRA1504189V9 00000000000000dgarcia@gruposeri.com                  17062021ALONDRA CORONA ALAMEDA                                               
0493030        00000000000292347849000012180015704741296000000003175240017062021PAGO NOMINA                   11CRA1504189V9 00000000000000dgarcia@gruposeri.com                  17062021IRMA CHAVEZ PEREZ                                                    
0493032        00000000000292347849000012180015832100848000000005349080017062021PAGO NOMINA                   11CRA1504189V9 00000000000000dgarcia@gruposeri.com                  17062021DULCE ESPERANZA VARGAS ZAMORANO                                      
0493037        00000000000292347849000012180015831984670000000002747840017062021PAGO NOMINA                   11CRA1504189V9 00000000000000dgarcia@gruposeri.com                  17062021SILVIA LUCERO CARRASCO CARCAMO                                       
0492859        00000000000292347849000012864015720856180000000002394160017062021PAGO NOMINA                   11CRA1504189V9 00000000000000dgarcia@gruposeri.com                  17062021LETICIA GARCIA GARCIA                                                
0492888        00000000000292347849000012854029603268529000000002747840017062021PAGO NOMINA                   11CRA1504189V9 00000000000000dgarcia@gruposeri.com                  17062021LORENA AIDEE HERRERA GONZALEZ                                        
0492916        00000000000292347849000012813028875880117000000002650560017062021PAGO NOMINA                   11CRA1504189V9 00000000000000dgarcia@gruposeri.com                  17062021ALBERTO JORGE MORENO ROJAS                                           
0492922        00000000000292347849000012854015170587161000000002992090017062021PAGO NOMINA                   11CRA1504189V9 00000000000000dgarcia@gruposeri.com                  17062021VICTOR MANUEL RIVERA RUEDA                                           
0492940        00000000000292347849000012180029274178880000000005349080017062021PAGO NOMINA                   11CRA1504189V9 00000000000000dgarcia@gruposeri.com                  17062021DIANA ALEJANDRA NAVARRO ARROYO                                       
0492969        00000000000292347849000012650015078151699000000003180630017062021PAGO NOMINA                   11CRA1504189V9 00000000000000dgarcia@gruposeri.com                  17062021FABIOLA SERRANO NOLASCO                                              
0492975        00000000000292347849000012813015136207785000000004493110017062021PAGO NOMINA                   11CRA1504189V9 00000000000000dgarcia@gruposeri.com                  17062021JERONIMO DEL ANGEL GARCIA                                            
0492758        00000000000292347849000012894015630974070000000002992080017062021PAGO NOMINA                   11CRA1504189V9 00000000000000dgarcia@gruposeri.com                  17062021MIRIAM IGNOT DE LA CRUZ                                              
0492764        00000000000292347849000012180015006725839000000003450720017062021PAGO NOMINA                   11CRA1504189V9 00000000000000dgarcia@gruposeri.com                  17062021LEYDI VIANEY SANTIAGO NAZARIO                                        
0492798        00000000000292347849000012311015675797054000000002992090017062021PAGO NOMINA                   11CRA1504189V9 00000000000000dgarcia@gruposeri.com                  17062021ALMA KARINA ARGUELLO RAMIREZ                                         
0492801        00000000000292347849000012864004696828800000000003175390017062021PAGO NOMINA                   11CRA1504189V9 00000000000000dgarcia@gruposeri.com                  17062021LESLY MARILYN OLMEDO TICANTE                                         
0492803        00000000000292347849000012888011319129761000000001826810017062021PAGO NOMINA                   11CRA1504189V9 00000000000000dgarcia@gruposeri.com                  17062021GERARDO GONZALEZ PACHECO                                             
0492719        00000000000292347849000012180015626509781000000002992080017062021PAGO NOMINA                   11CRA1504189V9 00000000000000dgarcia@gruposeri.com                  17062021DIEGO FLORES FRANCO                                                  
0492673        00000000000292347849000012667014329998540000000002587590017062021PAGO NOMINA                   11CRA1504189V9 00000000000000dgarcia@gruposeri.com                  17062021MARTIN FLORES SANCHEZ                                                
0492680        00000000000292347849000012180015432590162000000002491920017062021PAGO NOMINA                   11CRA1504189V9 00000000000000dgarcia@gruposeri.com                  17062021ALMA EDITH LABASTIDA GIL                                             
0492640        00000000000292347849000012180015041637649000000003180630017062021PAGO NOMINA                   11CRA1504189V9 00000000000000dgarcia@gruposeri.com                  17062021JESUS MANUEL MENESES ZAYAS                                           
0492621        00000000000292347849000012888015538082656000000002747840017062021PAGO NOMINA                   11CRA1504189V9 00000000000000dgarcia@gruposeri.com                  17062021ANAHI QUIROZ HERNANDEZ                                               
0492607        00000000000292347849000012670028609114373000000001477450017062021PAGO NOMINA                   11CRA1504189V9 00000000000000dgarcia@gruposeri.com                  17062021DANIEL MARTINEZ SANCHEZ                                              
0492609        00000000000292347849000012180015371929917000000002244160017062021PAGO NOMINA                   11CRA1504189V9 00000000000000dgarcia@gruposeri.com                  17062021LEIDY GALLEGOS ASTACIO                                               
0492614        00000000000292347849000012886027484782524000000009081930017062021PAGO NOMINA                   11CRA1504189V9 00000000000000dgarcia@gruposeri.com                  17062021JULIO CESAR GUTIERREZ MARTINEZ                                       
0492550        00000000000292347849000012650029445418634000000001706210017062021PAGO NOMINA                   11CRA1504189V9 00000000000000dgarcia@gruposeri.com                  17062021GABRIEL RUBEN PEREZ MORENO                                           
0492395        00000000000292347849000012864015187439946000000003175300017062021PAGO NOMINA                   11CRA1504189V9 00000000000000dgarcia@gruposeri.com                  17062021PEDRO BAUTISTA QUINTERO                                              
0492450        00000000000292347849000012903015498274984000000003788980017062021PAGO NOMINA                   11CRA1504189V9 00000000000000dgarcia@gruposeri.com                  17062021ALACIEL CURIEL TORRES                                                
0492451        00000000000292347849000012813015454231844000000003788980017062021PAGO NOMINA                   11CRA1504189V9 00000000000000dgarcia@gruposeri.com                  17062021BRENDA YADIRA DELGADILLO CUETO                                       
0492461        00000000000292347849000012811014376770499000000003361080017062021PAGO NOMINA                   11CRA1504189V9 00000000000000dgarcia@gruposeri.com                  17062021JULIAN CASTILLO FLORES                                               
0492465        00000000000292347849000012669015268136936000000003114520017062021PAGO NOMINA                   11CRA1504189V9 00000000000000dgarcia@gruposeri.com                  17062021CIRO ARTURO CANCINO MENESES                                          
0492434        00000000000292347849000012180015474895634000000003999520017062021PAGO NOMINA                   11CRA1504189V9 00000000000000dgarcia@gruposeri.com                  17062021KARLA FABIOLA MATEO PASCUAL                                          
0492372        00000000000292347849000012296015524792652000000003175300017062021PAGO NOMINA                   11CRA1504189V9 00000000000000dgarcia@gruposeri.com                  17062021CONSUELO MIJAIL VITE LOYDA                                           
0492377        00000000000292347849000012580015056557576000000002547780017062021PAGO NOMINA                   11CRA1504189V9 00000000000000dgarcia@gruposeri.com                  17062021CINTHYA LORENA OLVERA BARRIOS                                        
0492381        00000000000292347849000012290028848079950000000002992210017062021PAGO NOMINA                   11CRA1504189V9 00000000000000dgarcia@gruposeri.com                  17062021KARINA OILEGOR CANTERA GOMEZ                                         
0492230        00000000000292347849000012864004684728239000000001894370017062021PAGO NOMINA                   11CRA1504189V9 00000000000000dgarcia@gruposeri.com                  17062021ALMA LIZZETH CRUZ AGUILAR                                            
0492214        00000000000292347849000012813014207966545000000003390390017062021PAGO NOMINA                   11CRA1504189V9 00000000000000dgarcia@gruposeri.com                  17062021DIANA ARELI ROCHA QUINTANILLA                                        
0492215        00000000000292347849000012650015784460328000000005940620017062021PAGO NOMINA                   11CRA1504189V9 00000000000000dgarcia@gruposeri.com                  17062021ERIKA LUCIA ZURITA REYES                                             
0492221        00000000000292347849000012180015244847579000000002224130017062021PAGO NOMINA                   11CRA1504189V9 00000000000000dgarcia@gruposeri.com                  17062021NANCY ALEJANDRA GARCIA OROPEZA                                       
0492265        00000000000292347849000012225015043694529000000002992090017062021PAGO NOMINA                   11CRA1504189V9 00000000000000dgarcia@gruposeri.com                  17062021NATALI KARINA CADENA GOMEZ                                           
0492313        00000000000292347849000012876015806057862000000002992010017062021PAGO NOMINA                   11CRA1504189V9 00000000000000dgarcia@gruposeri.com                  17062021ALMA GABRIELA ESPINOSA CRUZ                                          
0492314        00000000000292347849000012877011492430977000000004514760017062021PAGO NOMINA                   11CRA1504189V9 00000000000000dgarcia@gruposeri.com                  17062021HAMILTON PEREZ JIMENEZ                                               
0492349        00000000000292347849000012830029067456878000000003175160017062021PAGO NOMINA                   11CRA1504189V9 00000000000000dgarcia@gruposeri.com                  17062021YEINI FLORES HERNANDEZ                                               
0492199        00000000000292347849000012290015235428347000000003634990017062021PAGO NOMINA                   11CRA1504189V9 00000000000000dgarcia@gruposeri.com                  17062021SAYIRA PEREZ MOCINO                                                  
0492162        00000000000292347849000012813015951090973000000004765660017062021PAGO NOMINA                   11CRA1504189V9 00000000000000dgarcia@gruposeri.com                  17062021LUIS FELIPE LAVIN TOVAR                                              
0492174        00000000000292347849000012180015327158839000000002747780017062021PAGO NOMINA                   11CRA1504189V9 00000000000000dgarcia@gruposeri.com                  17062021DIANA KRISTEL SOBREVILLA SIERRA                                      
0492126        00000000000292347849000012832015619252539000000004023810017062021PAGO NOMINA                   11CRA1504189V9 00000000000000dgarcia@gruposeri.com                  17062021ALEXIS NOYOLA CAMARILLO                                              
0492133        00000000000292347849000012180015198591722000000002244100017062021PAGO NOMINA                   11CRA1504189V9 00000000000000dgarcia@gruposeri.com                  17062021CARMEN LIZETH MARTINEZ MARTINEZ                                      
0492134        00000000000292347849000012290012424373688000000002244100017062021PAGO NOMINA                   11CRA1504189V9 00000000000000dgarcia@gruposeri.com                  17062021ROSI ISELA LOZANO GASCA                                              
0492040        00000000000292347849000012650015615381369000000002747780017062021PAGO NOMINA                   11CRA1504189V9 00000000000000dgarcia@gruposeri.com                  17062021IRMA LOPEZ GAYTAN                                                    
0492070        00000000000292347849000012903015483740313000000003175300017062021PAGO NOMINA                   11CRA1504189V9 00000000000000dgarcia@gruposeri.com                  17062021CARLOS RUBEN SANCHEZ DE LA CRUZ                                      
0492079        00000000000292347849000012905015779501361000000003175300017062021PAGO NOMINA                   11CRA1504189V9 00000000000000dgarcia@gruposeri.com                  17062021ABELMAIN GARCIA TLAXCALA                                             
0491933        00000000000292347849000012180015372416076000000002992210017062021PAGO NOMINA                   11CRA1504189V9 00000000000000dgarcia@gruposeri.com                  17062021PEDRO VALENTIN MARQUEZ                                               
0491600        00000000000292347849000012180015685779947000000003175300017062021PAGO NOMINA                   11CRA1504189V9 00000000000000dgarcia@gruposeri.com                  17062021MARTIN LOPEZ GUZMAN                                                  
0491650        00000000000292347849000012894015718976246000000002979880017062021PAGO NOMINA                   11CRA1504189V9 00000000000000dgarcia@gruposeri.com                  17062021CARMEN ELIZABETH PEREZ MERAZ                                         
0491661        00000000000292347849000012180015835306982000000001977590017062021PAGO NOMINA                   11CRA1504189V9 00000000000000dgarcia@gruposeri.com                  17062021CLAUDIA GUADALUPE PEREZ GARAY                                        
0491668        00000000000292347849000012180015481727766000000002740420017062021PAGO NOMINA                   11CRA1504189V9 00000000000000dgarcia@gruposeri.com                  17062021EIMER CHAGOYA ESPINOSA                                               
0491706        00000000000292347849000012667029736788574000000003175300017062021PAGO NOMINA                   11CRA1504189V9 00000000000000dgarcia@gruposeri.com                  17062021ALITZEL GARCIA MARTINEZ                                              
0491740        00000000000292347849000012864015866205158000000002266790017062021PAGO NOMINA                   11CRA1504189V9 00000000000000dgarcia@gruposeri.com                  17062021ARITH PULIDO GARCIA                                                  
0491747        00000000000292347849000012296015615066792000000002992210017062021PAGO NOMINA                   11CRA1504189V9 00000000000000dgarcia@gruposeri.com                  17062021IVETH ORTEGA HERNANDEZ                                               
0491774        00000000000292347849000012290029801542533000000002985160017062021PAGO NOMINA                   11CRA1504189V9 00000000000000dgarcia@gruposeri.com                  17062021ALEJANDRO RODRIGUEZ LATORRE                                          
0491775        00000000000292347849000012290014021592365000000002693050017062021PAGO NOMINA                   11CRA1504189V9 00000000000000dgarcia@gruposeri.com                  17062021VALENTIN LORENZO FILER                                               
0491444        00000000000292347849000012670027950917217000000002747710017062021PAGO NOMINA                   11CRA1504189V9 00000000000000dgarcia@gruposeri.com                  17062021NANCY KARINA MUNDO PERALTA                                           
0491486        00000000000292347849000012650029441315171000000003745400017062021PAGO NOMINA                   11CRA1504189V9 00000000000000dgarcia@gruposeri.com                  17062021ISMAEL DOMINGUEZ CLEMENTE                                            
0491564        00000000000292347849000012650029840618291000000002528650017062021PAGO NOMINA                   11CRA1504189V9 00000000000000dgarcia@gruposeri.com                  17062021JESUS ANTONIO OCAMPO ROSAS                                           
0491327        00000000000292347849000012813015342098856000000002747710017062021PAGO NOMINA                   11CRA1504189V9 00000000000000dgarcia@gruposeri.com                  17062021DARINKA BEATRIZ ZAVALA CASTILLO                                      
0491334        00000000000292347849000012290015548425451000000002244030017062021PAGO NOMINA                   11CRA1504189V9 00000000000000dgarcia@gruposeri.com                  17062021NOHEMI PERALTA HERNANDEZ                                             
0491347        00000000000292347849000012885015418519695000000002505940017062021PAGO NOMINA                   11CRA1504189V9 00000000000000dgarcia@gruposeri.com                  17062021RUBICELI PEREZ CAMPOS                                                
0491354        00000000000292347849000012840011732610264000000005348870017062021PAGO NOMINA                   11CRA1504189V9 00000000000000dgarcia@gruposeri.com                  17062021IGNACIO CRUZ ORTEGA                                                  
0491218        00000000000292347849000012650015441317620000000003540210017062021PAGO NOMINA                   11CRA1504189V9 00000000000000dgarcia@gruposeri.com                  17062021JAZMIN MATAMOROS JUAREZ                                              
0491268        00000000000292347849000012180015612104404000000003485160017062021PAGO NOMINA                   11CRA1504189V9 00000000000000dgarcia@gruposeri.com                  17062021DONAXI GUADALUPE ALVARADO ROBLES                                     
0491280        00000000000292347849000012881029885100245000000005348710017062021PAGO NOMINA                   11CRA1504189V9 00000000000000dgarcia@gruposeri.com                  17062021EDGAR LEOPOLDO JUAREZ MAYA                                           
0491066        00000000000292347849000012650004593054758000000005348810017062021PAGO NOMINA                   11CRA1504189V9 00000000000000dgarcia@gruposeri.com                  17062021ARMANDO CABRERA CASTILLO                                             
0491118        00000000000292347849000012811029420078786000000002917650017062021PAGO NOMINA                   11CRA1504189V9 00000000000000dgarcia@gruposeri.com                  17062021GEORGINA DEL ANGEL MONFIL                                            
0490925        00000000000292347849000012650015700389894000000001429470017062021PAGO NOMINA                   11CRA1504189V9 00000000000000dgarcia@gruposeri.com                  17062021GABRIELA SELENE ROQUE ROJAS                                          
0490967        00000000000292347849000012876011607142242000000002122610017062021PAGO NOMINA                   11CRA1504189V9 00000000000000dgarcia@gruposeri.com                  17062021REYNA MARTHA RODRIGUEZ ALBERTO                                       
0490732        00000000000292347849000012813015196883233000000002992020017062021PAGO NOMINA                   11CRA1504189V9 00000000000000dgarcia@gruposeri.com                  17062021MARIA DE JESUS PEREZ TICANTE                                         
0490738        00000000000292347849000012813015199436412000000002174500017062021PAGO NOMINA                   11CRA1504189V9 00000000000000dgarcia@gruposeri.com                  17062021VERONICA CRUZ CASTILLO                                               
0490655        00000000000292347849000012290028721472467000000003175220017062021PAGO NOMINA                   11CRA1504189V9 00000000000000dgarcia@gruposeri.com                  17062021JONATHAN HERNANDEZ ALVITER                                           
0490683        00000000000292347849000012832015299533377000000002578030017062021PAGO NOMINA                   11CRA1504189V9 00000000000000dgarcia@gruposeri.com                  17062021ANABEL WITLE VAZQUEZ                                                 
0490418        00000000000292347849000012877015726587398000000004042810017062021PAGO NOMINA                   11CRA1504189V9 00000000000000dgarcia@gruposeri.com                  17062021GUADALUPE DIAZ MENDOZA                                               
0490551        00000000000292347849000012855015163693087000000002122540017062021PAGO NOMINA                   11CRA1504189V9 00000000000000dgarcia@gruposeri.com                  17062021KARINA VELAZQUEZ LOPEZ                                               
0490607        00000000000292347849000012650015216125490000000003763710017062021PAGO NOMINA                   11CRA1504189V9 00000000000000dgarcia@gruposeri.com                  17062021CARLOS ALBERTO MENDOZA ORTIZ                                         
0490574        00000000000292347849000012669027951168050000000003293830017062021PAGO NOMINA                   11CRA1504189V9 00000000000000dgarcia@gruposeri.com                  17062021LUIS ANGEL TORRES MARIN                                              
0490506        00000000000292347849000012885027038426305000000004931860017062021PAGO NOMINA                   11CRA1504189V9 00000000000000dgarcia@gruposeri.com                  17062021ANA MARIA RAMIREZ ZEPEDA                                             
0490512        00000000000292347849000012905015120049171000000003763710017062021PAGO NOMINA                   11CRA1504189V9 00000000000000dgarcia@gruposeri.com                  17062021PEDRO DAMIAN MARTINEZ BLANCO                                         
0490514        00000000000292347849000012841004557856507000000004778530017062021PAGO NOMINA                   11CRA1504189V9 00000000000000dgarcia@gruposeri.com                  17062021NALLELY REYES SANTOS                                                 
0490517        00000000000292347849000012881015035480745000000002225290017062021PAGO NOMINA                   11CRA1504189V9 00000000000000dgarcia@gruposeri.com                  17062021HECTOR JOEL DEL ANGEL LOZANO                                         
0490346        00000000000292347849000012669015188115325000000005136890017062021PAGO NOMINA                   11CRA1504189V9 00000000000000dgarcia@gruposeri.com                  17062021MARIEL LOPEZ JIMENEZ                                                 
0490350        00000000000292347849000012650015689344552000000005200690017062021PAGO NOMINA                   11CRA1504189V9 00000000000000dgarcia@gruposeri.com                  17062021MIRIAM RAMIREZ GONZALEZ                                              
0490370        00000000000292347849000012296004596610508000000002566940017062021PAGO NOMINA                   11CRA1504189V9 00000000000000dgarcia@gruposeri.com                  17062021EDER IVAN LIZCANO ALONZO                                             
0490207        00000000000292347849000012864015782711519000000004495910017062021PAGO NOMINA                   11CRA1504189V9 00000000000000dgarcia@gruposeri.com                  17062021ADAN ISAAC BERNABE LUCAS                                             
0490217        00000000000292347849000012894015004838852000000002991860017062021PAGO NOMINA                   11CRA1504189V9 00000000000000dgarcia@gruposeri.com                  17062021ERIC HERNANDEZ PEREZ                                                 
0490212        00000000000292347849000012894015005153109000000003999170017062021PAGO NOMINA                   11CRA1504189V9 00000000000000dgarcia@gruposeri.com                  17062021SILBINO DEL ANGEL TENORIO                                            
0490213        00000000000292347849000012180015425717334000000002929660017062021PAGO NOMINA                   11CRA1504189V9 00000000000000dgarcia@gruposeri.com                  17062021ANA RUTH DIAZ MARIANO                                                
0490166        00000000000292347849000012670011659062026000000002747640017062021PAGO NOMINA                   11CRA1504189V9 00000000000000dgarcia@gruposeri.com                  17062021MARIA ANGELICA DE JESUS HERNANDEZ                                    
0490171        00000000000292347849000012650011634512595000000003101850017062021PAGO NOMINA                   11CRA1504189V9 00000000000000dgarcia@gruposeri.com                  17062021JOSE LUIS AVALOS BOBADILLA                                           
0490179        00000000000292347849000012290011487774623000000003707940017062021PAGO NOMINA                   11CRA1504189V9 00000000000000dgarcia@gruposeri.com                  17062021MARIA ESTELA GRANADA TEODORO                                         
0490183        00000000000292347849000012676011491358633000000002260710017062021PAGO NOMINA                   11CRA1504189V9 00000000000000dgarcia@gruposeri.com                  17062021NORMA JUAREZ ORTEGA                                                  
0490268        00000000000292347849000012903011227988241000000002128700017062021PAGO NOMINA                   11CRA1504189V9 00000000000000dgarcia@gruposeri.com                  17062021ELENA MORALES PELCASTRE                                              
0490272        00000000000292347849000012854012557830706000000004071480017062021PAGO NOMINA                   11CRA1504189V9 00000000000000dgarcia@gruposeri.com                  17062021HILDA KARINA GUTIERREZ CHAVEZ                                        
0490277        00000000000292347849000012885015001022023000000004461370017062021PAGO NOMINA                   11CRA1504189V9 00000000000000dgarcia@gruposeri.com                  17062021NADIA BERENICE DE LEON HERNANDEZ                                     
0490282        00000000000292347849000012830029541765373000000003423850017062021PAGO NOMINA                   11CRA1504189V9 00000000000000dgarcia@gruposeri.com                  17062021TERESA PELCASTRE LOPEZ                                               
0490256        00000000000292347849000012903011275364532000000003938610017062021PAGO NOMINA                   11CRA1504189V9 00000000000000dgarcia@gruposeri.com                  17062021EDUARDO CRUZ CASTILLO                                                
0490073        00000000000292347849000012290011510918754000000006528250017062021PAGO NOMINA                   11CRA1504189V9 00000000000000dgarcia@gruposeri.com                  17062021TANIA PALACIOS OSTRIA                                                
0490107        00000000000292347849000012311015239875516000000006240480017062021PAGO NOMINA                   11CRA1504189V9 00000000000000dgarcia@gruposeri.com                  17062021ALEXIS CONRADO GALVAN TAVERA                                         
0490135        00000000000292347849000012180015227195992000000005348350017062021PAGO NOMINA                   11CRA1504189V9 00000000000000dgarcia@gruposeri.com                  17062021RAFAEL DIAZ HERNANDEZ                                                
0490089        00000000000292347849000012837015120022729000000007650500017062021PAGO NOMINA                   11CRA1504189V9 00000000000000dgarcia@gruposeri.com                  17062021TANIA ARCELIA VAZQUEZ CORDOVA                                        
0490095        00000000000292347849000012832028604410315000000004911200017062021PAGO NOMINA                   11CRA1504189V9 00000000000000dgarcia@gruposeri.com                  17062021XOCHITL MARIA GUADALUPE LOYOLA ZAVALETA                              
0490059        00000000000292347849000012676029332821716000000006004640017062021PAGO NOMINA                   11CRA1504189V9 00000000000000dgarcia@gruposeri.com                  17062021MARGARITA VAZQUEZ GUTIERREZ                                          
0490062        00000000000292347849000012290011494309890000000002122470017062021PAGO NOMINA                   11CRA1504189V9 00000000000000dgarcia@gruposeri.com                  17062021MARIA GUADALUPE PEREZ MONTALVO                                       
0490050        00000000000292347849000012676011774944599000000002122470017062021PAGO NOMINA                   11CRA1504189V9 00000000000000dgarcia@gruposeri.com                  17062021ANALI PEREZ CASTRO                                                   
0490056        00000000000292347849000012125029521552143000000006528250017062021PAGO NOMINA                   11CRA1504189V9 00000000000000dgarcia@gruposeri.com                  17062021BEATRIZ ADRIANA HERNANDEZ MENDEZ                                     
0430043        00000000000292347849000012672015034530737000000005327500017062021PAGO NOMINA                   11CRA1504189V9 00000000000000dgarcia@gruposeri.com                  17062021FAUSTINO HINOJOSA HERNANDEZ                                          
0490005        00000000000292347849000012877004581984383000000002122540017062021PAGO NOMINA                   11CRA1504189V9 00000000000000dgarcia@gruposeri.com                  17062021MARCELA VIVES GONZALEZ                                               
0490040        00000000000292347849000012676011585964250000000004148300017062021PAGO NOMINA                   11CRA1504189V9 00000000000000dgarcia@gruposeri.com                  17062021SONIA LOPEZ GUTIERREZ                                                
0490110        00000000000292347849000014311605648957352000000002467640017062021PAGO NOMINA                   11CRA1504189V9 00000000000000dgarcia@gruposeri.com                  17062021YESSICA BERENICE MEZA CHAVEZ                                         
0490117        00000000000292347849000014670605703715057000000004542400017062021PAGO NOMINA                   11CRA1504189V9 00000000000000dgarcia@gruposeri.com                  17062021DANIEL CECILIO LUNA                                                  
0490441        00000000000292347849000014404568130887612000000006009210017062021PAGO NOMINA                   11CRA1504189V9 00000000000000dgarcia@gruposeri.com                  17062021NORMA STEFANIA RAMOS FIGUEROA                                        
0490739        00000000000292347849000014811567056070171000000002122610017062021PAGO NOMINA                   11CRA1504189V9 00000000000000dgarcia@gruposeri.com                  17062021YOLANDA RODRIGUEZ ORTIZ                                              
0490827        00000000000292347849000014894606196352239000000002071100017062021PAGO NOMINA                   11CRA1504189V9 00000000000000dgarcia@gruposeri.com                  17062021BEATRIZ CRUZ DEL ANGEL                                               
0491033        00000000000292347849000014813566888135351000000002910490017062021PAGO NOMINA                   11CRA1504189V9 00000000000000dgarcia@gruposeri.com                  17062021MARIAN LIZBETH CASTILLO LOPEZ                                        
0491256        00000000000292347849000014894200072434606000000005348710017062021PAGO NOMINA                   11CRA1504189V9 00000000000000dgarcia@gruposeri.com                  17062021MANUEL ZUNIGA VILLEGAS                                               
0491193        00000000000292347849000014877605958352026000000005348710017062021PAGO NOMINA                   11CRA1504189V9 00000000000000dgarcia@gruposeri.com                  17062021RIGOBERTO TORRES REYES                                               
0491342        00000000000292347849000014888605985021050000000005319980017062021PAGO NOMINA                   11CRA1504189V9 00000000000000dgarcia@gruposeri.com                  17062021JOSE CARLOMAGNO VILLANUEVA LOTINA                                    
0491517        00000000000292347849000014813605969866484000000001728030017062021PAGO NOMINA                   11CRA1504189V9 00000000000000dgarcia@gruposeri.com                  17062021KARLA LIZBETH RODRIGUEZ CASTILLO                                     
0491815        00000000000292347849000014822567370478435000000002992210017062021PAGO NOMINA                   11CRA1504189V9 00000000000000dgarcia@gruposeri.com                  17062021MARISELA PEREZ ATZIN                                                 
0492120        00000000000292347849000014854606039076052000000002289350017062021PAGO NOMINA                   11CRA1504189V9 00000000000000dgarcia@gruposeri.com                  17062021SERGIO ANGEL CAMERINO PEREZ VELAZQUEZ                                
0492208        00000000000292347849000014830606015435741000000002495720017062021PAGO NOMINA                   11CRA1504189V9 00000000000000dgarcia@gruposeri.com                  17062021MARIA DEL CARMEN OJEDA VALENCIA                                      
0492350        00000000000292347849000014650606002347417000000001368490017062021PAGO NOMINA                   11CRA1504189V9 00000000000000dgarcia@gruposeri.com                  17062021REYNOLDS MOJICA BALMORI                                              
0492285        00000000000292347849000014650567417475932000000005940940017062021PAGO NOMINA                   11CRA1504189V9 00000000000000dgarcia@gruposeri.com                  17062021JOSE OCTAVIO RUIZ MEJIA                                              
0492229        00000000000292347849000014290606105245559000000005278730017062021PAGO NOMINA                   11CRA1504189V9 00000000000000dgarcia@gruposeri.com                  17062021FRANCISCO LEONARDO ESTRADA RUIZ                                      
0492262        00000000000292347849000014841606077726937000000003763920017062021PAGO NOMINA                   11CRA1504189V9 00000000000000dgarcia@gruposeri.com                  17062021NUBIA ISEL SOLANO LARA                                               
0492605        00000000000292347849000014404568038174003000000002992080017062021PAGO NOMINA                   11CRA1504189V9 00000000000000dgarcia@gruposeri.com                  17062021KARINA AVALOS CRUZ                                                   
0492643        00000000000292347849000014832606081853520000000002394160017062021PAGO NOMINA                   11CRA1504189V9 00000000000000dgarcia@gruposeri.com                  17062021JACQUELIN GONZALEZ ORDONEZ                                           
0492699        00000000000292347849000014296566795265928000000002992090017062021PAGO NOMINA                   11CRA1504189V9 00000000000000dgarcia@gruposeri.com                  17062021JULIO CESAR GARCIA REYES                                             
0492709        00000000000292347849000014881567727192428000000003175390017062021PAGO NOMINA                   11CRA1504189V9 00000000000000dgarcia@gruposeri.com                  17062021MARCO ANTONIO CASTILLO CALDERON                                      
0492979        00000000000292347849000014885567833459925000000002592060017062021PAGO NOMINA                   11CRA1504189V9 00000000000000dgarcia@gruposeri.com                  17062021ABRIL MARGARITA CERON ZEPETA                                         
0492962        00000000000292347849000014845606129843803000000002992080017062021PAGO NOMINA                   11CRA1504189V9 00000000000000dgarcia@gruposeri.com                  17062021JUAN JOSE HERNANDEZ CRUZ                                             
0493038        00000000000292347849000014813567731821216000000002747840017062021PAGO NOMINA                   11CRA1504189V9 00000000000000dgarcia@gruposeri.com                  17062021VALERIA ESTEFANIA PEREZ GARAY                                        
0493034        00000000000292347849000014650605817800661000000002267110017062021PAGO NOMINA                   11CRA1504189V9 00000000000000dgarcia@gruposeri.com                  17062021GEOVANNI GONZALEZ GARCIA                                             
0493134        00000000000292347849000014811567872775249000000002992090017062021PAGO NOMINA                   11CRA1504189V9 00000000000000dgarcia@gruposeri.com                  17062021EMMA LAURA DE LA FUENTE MARTINEZ                                     
0493194        00000000000292347849000014877606122565295000000002992090017062021PAGO NOMINA                   11CRA1504189V9 00000000000000dgarcia@gruposeri.com                  17062021YAZMIN DEL CARMEN RODRIGUEZ LURIA                                    
0493204        00000000000292347849000014813567679920790000000003175390017062021PAGO NOMINA                   11CRA1504189V9 00000000000000dgarcia@gruposeri.com                  17062021VICTOR OMAR VALENTIN AGUIRRE                                         
0493170        00000000000292347849000014813605623706071000000004760630017062021PAGO NOMINA                   11CRA1504189V9 00000000000000dgarcia@gruposeri.com                  17062021JESSICA MUNOZ SANCHEZ                                                
0493177        00000000000292347849000014876567733793305000000001871040017062021PAGO NOMINA                   11CRA1504189V9 00000000000000dgarcia@gruposeri.com                  17062021BLANCA ISABEL ORTIZ CAMACHO                                          
0493258        00000000000292347849000014580567478940893000000002419760017062021PAGO NOMINA                   11CRA1504189V9 00000000000000dgarcia@gruposeri.com                  17062021MARIA DE LOURDES PEREZ MARINO                                        
0493233        00000000000292347849000014854606050136625000000003826750017062021PAGO NOMINA                   11CRA1504189V9 00000000000000dgarcia@gruposeri.com                  17062021CARLOS CAZARIN DOMINGUEZ                                             
0493377        00000000000292347849000014650605963569490000000003344160017062021PAGO NOMINA                   11CRA1504189V9 00000000000000dgarcia@gruposeri.com                  17062021CLAUDIA VAZQUEZ DE LA ROSA                                           
0493374        00000000000292347849000014876605923805897000000001810510017062021PAGO NOMINA                   11CRA1504189V9 00000000000000dgarcia@gruposeri.com                  17062021IRIDIANA SANCHEZ SANCHEZ                                             
0493352        00000000000292347849000014854605942366180000000012217550017062021PAGO NOMINA                   11CRA1504189V9 00000000000000dgarcia@gruposeri.com                  17062021JAIR FAJARDO FLORES                                                  
0493248        00000000000292347849000014650200120836015000000003764020017062021PAGO NOMINA                   11CRA1504189V9 00000000000000dgarcia@gruposeri.com                  17062021DENY PATRICIA MASTRANZO ROMERO                                       
0493307        00000000000292347849000014404606102353900000000002212010017062021PAGO NOMINA                   11CRA1504189V9 00000000000000dgarcia@gruposeri.com                  17062021JOSE ANTONIO VIQUEZ ESCALANTE                                        
0493294        00000000000292347849000014667567762954780000000002655290017062021PAGO NOMINA                   11CRA1504189V9 00000000000000dgarcia@gruposeri.com                  17062021JONATHAN ORTEGA FLORES                                               
04901323       00000000000292347849000014580606149773739000000002992090017062021PAGO NOMINA                   11CRA1504189V9 00000000000000dgarcia@gruposeri.com                  17062021ANA KARINA DIAS LORENZO                                              
04904194       00000000000292347849000014580606104191958000000001616950017062021PAGO NOMINA                   11CRA1504189V9 00000000000000dgarcia@gruposeri.com                  17062021MIGUEL ROBERTO GARCIA GONZALEZ                                       
0493401        00000000000292347849000014670605523271690000000002975890017062021PAGO NOMINA                   11CRA1504189V9 00000000000000dgarcia@gruposeri.com                  17062021IVONNE AREVALO HUESCA                                                
04904106       00000000000292347849000021813064739230476000000003175390017062021PAGO NOMINA                   11CRA1504189V9 00000000000000dgarcia@gruposeri.com                  17062021BLANCA LILIANA SALAZAR LOPEZ                                         
04904376       00000000000292347849000021671064070646783000000003175390017062021PAGO NOMINA                   11CRA1504189V9 00000000000000dgarcia@gruposeri.com                  17062021JUANA MORALES ANDRADE                                                
0493392        00000000000292347849000021905064935161286000000003175390017062021PAGO NOMINA                   11CRA1504189V9 00000000000000dgarcia@gruposeri.com                  17062021AMALIA SUSETT HERNANDEZ SARAIBA                                      
0493274        00000000000292347849000021650065117121220000000004661830017062021PAGO NOMINA                   11CRA1504189V9 00000000000000dgarcia@gruposeri.com                  17062021JOSE ANTONIO JIMENEZ ROSAS                                           
0493361        00000000000292347849000021650065133050249000000003805210017062021PAGO NOMINA                   11CRA1504189V9 00000000000000dgarcia@gruposeri.com                  17062021ANA YANETH FLORES IGNACIO                                            
0493371        00000000000292347849000021832064958859680000000003175390017062021PAGO NOMINA                   11CRA1504189V9 00000000000000dgarcia@gruposeri.com                  17062021ELVIA PEREZ ROMERO                                                   
0493050        00000000000292347849000021650064970474018000000003180630017062021PAGO NOMINA                   11CRA1504189V9 00000000000000dgarcia@gruposeri.com                  17062021LILIANA STEPHANIA HERNANDEZ JORGE                                    
0493026        00000000000292347849000021830064610742419000000004281940017062021PAGO NOMINA                   11CRA1504189V9 00000000000000dgarcia@gruposeri.com                  17062021LORENZO ANTONIO GOIS BRIONES                                         
0492437        00000000000292347849000021854064555367757000000002992010017062021PAGO NOMINA                   11CRA1504189V9 00000000000000dgarcia@gruposeri.com                  17062021LEONARDO MICHEL ANTONIO HERNANDEZ                                    
0492112        00000000000292347849000021885065143053386000000001198540017062021PAGO NOMINA                   11CRA1504189V9 00000000000000dgarcia@gruposeri.com                  17062021CARMELA HERNANDEZ AMADOR                                             
0491511        00000000000292347849000021881064943605599000000002992020017062021PAGO NOMINA                   11CRA1504189V9 00000000000000dgarcia@gruposeri.com                  17062021BLANCA FLOR DEL ANGEL CRUZ                                           
0491822        00000000000292347849000021888064510616464000000003190160017062021PAGO NOMINA                   11CRA1504189V9 00000000000000dgarcia@gruposeri.com                  17062021MARTHA PATRICIA DIEGO LARA                                           
0491989        00000000000292347849000021855065132986669000000002747780017062021PAGO NOMINA                   11CRA1504189V9 00000000000000dgarcia@gruposeri.com                  17062021ERICKA BECERRIL PEREZ                                                
0491199        00000000000292347849000021854064295834650000000003175220017062021PAGO NOMINA                   11CRA1504189V9 00000000000000dgarcia@gruposeri.com                  17062021ERASMO VASQUEZ DIAZ                                                  
0491022        00000000000292347849000021650064034481727000000007844490017062021PAGO NOMINA                   11CRA1504189V9 00000000000000dgarcia@gruposeri.com                  17062021SONIA BARRALES RIOS                                                  
0490830        00000000000292347849000021660064283888255000000010699720017062021PAGO NOMINA                   11CRA1504189V9 00000000000000dgarcia@gruposeri.com                  17062021ROGELIO PLUMA MENESES                                                
0490335        00000000000292347849000021650063917924166000000001819260017062021PAGO NOMINA                   11CRA1504189V9 00000000000000dgarcia@gruposeri.com                  17062021DANIEL ORTEGA DE LA CRUZ                                             
0490318        00000000000292347849000021650063745885341000000004547710017062021PAGO NOMINA                   11CRA1504189V9 00000000000000dgarcia@gruposeri.com                  17062021ELIZABETH SOTO TEPOX                                                 
0490144        00000000000292347849000021670064063108255000000004542540017062021PAGO NOMINA                   11CRA1504189V9 00000000000000dgarcia@gruposeri.com                  17062021MARCELA ISIDRO ROBLES                                                
0490295        00000000000292347849000021650063373983107000000002512900017062021PAGO NOMINA                   11CRA1504189V9 00000000000000dgarcia@gruposeri.com                  17062021MARIBEL BAUTISTA PINEDA                                              
0490304        00000000000292347849000021832063374049774000000003058010017062021PAGO NOMINA                   11CRA1504189V9 00000000000000dgarcia@gruposeri.com                  17062021ROSA MARIA HERNANDEZ HERNANDEZ                                       
0490254        00000000000292347849000021877064444695672000000010106690017062021PAGO NOMINA                   11CRA1504189V9 00000000000000dgarcia@gruposeri.com                  17062021YESSIKA GUADALUPE PEREZ VIVES                                        
0492091        00000000000292347849000044650036055476959000000003344070017062021PAGO NOMINA                   11CRA1504189V9 00000000000000dgarcia@gruposeri.com                  17062021RONALDO CRUZ AGUIRRE                                                 
0492988        00000000000292347849000044650256007764871000000003344160017062021PAGO NOMINA                   11CRA1504189V9 00000000000000dgarcia@gruposeri.com                  17062021CARMEN BEATRIZ PEREZ ZUNIGA                                          
0492825        00000000000292347849000044890063011301969000000004578530017062021PAGO NOMINA                   11CRA1504189V9 00000000000000dgarcia@gruposeri.com                  17062021HECTOR MANUEL CARDENAS MAIN                                          
0493325        00000000000292347849000044670043067041662000000002479410017062021PAGO NOMINA                   11CRA1504189V9 00000000000000dgarcia@gruposeri.com                  17062021JUAN CARLOS TELLEZ DIEGO                                             
04901079       00000000000292347849000044650256013072036000000003180630017062021PAGO NOMINA                   11CRA1504189V9 00000000000000dgarcia@gruposeri.com                  17062021LUCERO LOPEZ LIRA                                                    
04903926       00000000000292347849000044580145031776537000000003175390017062021PAGO NOMINA                   11CRA1504189V9 00000000000000dgarcia@gruposeri.com                  17062021MA. GUADALUPE MARCELENO MELENDEZ                                     
0491134        00000000000292347849000127877013490136085000000004765370017062021PAGO NOMINA                   11CRA1504189V9 00000000000000dgarcia@gruposeri.com                  17062021EDUARDO ZUNIGA DE LA CRUZ                                            
0491055        00000000000292347849000127667013392032824000000002122610017062021PAGO NOMINA                   11CRA1504189V9 00000000000000dgarcia@gruposeri.com                  17062021HILARIA ANTONIA LOPEZ VARGAS                                         
0490968        00000000000292347849000127650013637786680000000005348710017062021PAGO NOMINA                   11CRA1504189V9 00000000000000dgarcia@gruposeri.com                  17062021OSCAR GABRIEL MARTINEZ VALLE                                         
0490656        00000000000292347849000127303013252380433000000004001060017062021PAGO NOMINA                   11CRA1504189V9 00000000000000dgarcia@gruposeri.com                  17062021DEYRA YOSELIN HERNANDEZ QUIJANO                                      
0490631        00000000000292347849000127404002121036605000000002823950017062021PAGO NOMINA                   11CRA1504189V9 00000000000000dgarcia@gruposeri.com                  17062021LORENA GONZALEZ RAMIREZ                                              
0490456        00000000000292347849000127310001114741047000000002224820017062021PAGO NOMINA                   11CRA1504189V9 00000000000000dgarcia@gruposeri.com                  17062021ERIK ALEJANDRO ZUNIGA TREJO                                          
0490476        00000000000292347849000127832013791304373000000002747640017062021PAGO NOMINA                   11CRA1504189V9 00000000000000dgarcia@gruposeri.com                  17062021ROSALVA PEREZ HERNANDEZ                                              
0490490        00000000000292347849000127855013124425916000000002292750017062021PAGO NOMINA                   11CRA1504189V9 00000000000000dgarcia@gruposeri.com                  17062021MARGARITA MENDOZA RENDON                                             
0490493        00000000000292347849000127855001383863981000000008043050017062021PAGO NOMINA                   11CRA1504189V9 00000000000000dgarcia@gruposeri.com                  17062021CAROLINA MARTINEZ HILARIO                                            
0490442        00000000000292347849000127832013797769909000000003343890017062021PAGO NOMINA                   11CRA1504189V9 00000000000000dgarcia@gruposeri.com                  17062021CECILIA GARCIA FLORES                                                
0490531        00000000000292347849000127840013030620043000000002372130017062021PAGO NOMINA                   11CRA1504189V9 00000000000000dgarcia@gruposeri.com                  17062021LIZ YUBANY RAZZO JUAREZ                                              
0490545        00000000000292347849000127650013091158744000000002336200017062021PAGO NOMINA                   11CRA1504189V9 00000000000000dgarcia@gruposeri.com                  17062021JORGE XIQUE CABRERA                                                  
0490603        00000000000292347849000127291013204177104000000002122540017062021PAGO NOMINA                   11CRA1504189V9 00000000000000dgarcia@gruposeri.com                  17062021HORTENSIA GUZMAN HERNANDEZ                                           
0490604        00000000000292347849000127303013204035655000000003999280017062021PAGO NOMINA                   11CRA1504189V9 00000000000000dgarcia@gruposeri.com                  17062021KARINA LOPEZ ROSAS                                                   
0490328        00000000000292347849000127670001422221847000000002634740017062021PAGO NOMINA                   11CRA1504189V9 00000000000000dgarcia@gruposeri.com                  17062021YADIRA ZARATE MONTIEL                                                
0490046        00000000000292347849000127832013346038434000000002747640017062021PAGO NOMINA                   11CRA1504189V9 00000000000000dgarcia@gruposeri.com                  17062021CARMEN LORENA SUAREZ SOSA                                            
0490048        00000000000292347849000127832013684711811000000002161520017062021PAGO NOMINA                   11CRA1504189V9 00000000000000dgarcia@gruposeri.com                  17062021CANDELARIA SOSA PEREZ                                                
0490038        00000000000292347849000127311013903756706000000002213910017062021PAGO NOMINA                   11CRA1504189V9 00000000000000dgarcia@gruposeri.com                  17062021DIANA GABRIELA MIER PINTOR                                           
0490102        00000000000292347849000127676001040179210000000002573570017062021PAGO NOMINA                   11CRA1504189V9 00000000000000dgarcia@gruposeri.com                  17062021RAFAEL HERRERA CARMONA                                               
0490298        00000000000292347849000127614001422205683000000003058010017062021PAGO NOMINA                   11CRA1504189V9 00000000000000dgarcia@gruposeri.com                  17062021GLORIA ARIAS RIVERA                                                  
0490265        00000000000292347849000127650013207460608000000003343890017062021PAGO NOMINA                   11CRA1504189V9 00000000000000dgarcia@gruposeri.com                  17062021IVONNE TOXQUI MARCIAL                                                
0490287        00000000000292347849000127311001098161629000000002991940017062021PAGO NOMINA                   11CRA1504189V9 00000000000000dgarcia@gruposeri.com                  17062021MARTIN ESTRADA OLMOS                                                 
0492540        00000000000292347849000127180016558086198000000002394180017062021PAGO NOMINA                   11CRA1504189V9 00000000000000dgarcia@gruposeri.com                  17062021NATALY SANLUIS HERNANDEZ                                             
0492589        00000000000292347849000127667013492635891000000001975050017062021PAGO NOMINA                   11CRA1504189V9 00000000000000dgarcia@gruposeri.com                  17062021CRISTIAN SERRANO PEREZ                                               
0492293        00000000000292347849000127670001066106412000000003170070017062021PAGO NOMINA                   11CRA1504189V9 00000000000000dgarcia@gruposeri.com                  17062021OSCAR HERNANDEZ GARCIA                                               
0492232        00000000000292347849000127650001375823516000000001760200017062021PAGO NOMINA                   11CRA1504189V9 00000000000000dgarcia@gruposeri.com                  17062021ROCIO SANCHEZ GARCIA                                                 
0492476        00000000000292347849000127869001168418592000000002992090017062021PAGO NOMINA                   11CRA1504189V9 00000000000000dgarcia@gruposeri.com                  17062021MARCO ANTONIO GOMEZ LOPEZ                                            
0492402        00000000000292347849000127311001142293951000000002992210017062021PAGO NOMINA                   11CRA1504189V9 00000000000000dgarcia@gruposeri.com                  17062021MIGUEL ANGEL VILLEDA GREGORIO                                        
0492412        00000000000292347849000127869013331481315000000002992010017062021PAGO NOMINA                   11CRA1504189V9 00000000000000dgarcia@gruposeri.com                  17062021SARAI FERNANDEZ LOPEZ                                                
0492512        00000000000292347849000127854001522463156000000002992090017062021PAGO NOMINA                   11CRA1504189V9 00000000000000dgarcia@gruposeri.com                  17062021FRANCISCO JAVIER PEREYRA MARTINEZ                                    
0491455        00000000000292347849000127650001149958950000000004042930017062021PAGO NOMINA                   11CRA1504189V9 00000000000000dgarcia@gruposeri.com                  17062021SANDRA VIRIDIANA OLVERA ESCUTIA                                      
0491414        00000000000292347849000127834013433552481000000002405120017062021PAGO NOMINA                   11CRA1504189V9 00000000000000dgarcia@gruposeri.com                  17062021MARGARITA ROSETE AYAPANTECATL                                        
0491304        00000000000292347849000127895001868761814000000003175220017062021PAGO NOMINA                   11CRA1504189V9 00000000000000dgarcia@gruposeri.com                  17062021ARELY AZUARA ALEJANDRE                                               
0491995        00000000000292347849000127832013766064091000000002485220017062021PAGO NOMINA                   11CRA1504189V9 00000000000000dgarcia@gruposeri.com                  17062021GABRIEL FLORES CARRASCO                                              
0492181        00000000000292347849000127650001115904093000000002900390017062021PAGO NOMINA                   11CRA1504189V9 00000000000000dgarcia@gruposeri.com                  17062021MARIA DEL ROCIO LOPEZ SANCHEZ                                        
0492196        00000000000292347849000127650013110955488000000003180550017062021PAGO NOMINA                   11CRA1504189V9 00000000000000dgarcia@gruposeri.com                  17062021CESAR VAZQUEZ JUAREZ                                                 
0492161        00000000000292347849000127650013659244223000000002574280017062021PAGO NOMINA                   11CRA1504189V9 00000000000000dgarcia@gruposeri.com                  17062021ADRIANA BELTRAN MENDEZ                                               
0493185        00000000000292347849000127869001243108099000000002992090017062021PAGO NOMINA                   11CRA1504189V9 00000000000000dgarcia@gruposeri.com                  17062021NATANAEL HERNANDEZ PASCUAL                                           
0493100        00000000000292347849000127890001101520898000000011218640017062021PAGO NOMINA                   11CRA1504189V9 00000000000000dgarcia@gruposeri.com                  17062021ARMANDO MELENDEZ HERNANDEZ                                           
0493261        00000000000292347849000127650001333824900000000002747840017062021PAGO NOMINA                   11CRA1504189V9 00000000000000dgarcia@gruposeri.com                  17062021KARLA GARCES JUAREZ                                                  
0493280        00000000000292347849000127670013652427195000000002387680017062021PAGO NOMINA                   11CRA1504189V9 00000000000000dgarcia@gruposeri.com                  17062021MARY CARMEN BRAVO ACEVEDO                                            
0493287        00000000000292347849000127811001357764830000000004147200017062021PAGO NOMINA                   11CRA1504189V9 00000000000000dgarcia@gruposeri.com                  17062021PEDRO SANTIAGO RAMON                                                 
0493288        00000000000292347849000127290001267326701000000003175240017062021PAGO NOMINA                   11CRA1504189V9 00000000000000dgarcia@gruposeri.com                  17062021JOSE JESUS MEJIA LAZCANO                                             
0493229        00000000000292347849000127650013529074154000000002274810017062021PAGO NOMINA                   11CRA1504189V9 00000000000000dgarcia@gruposeri.com                  17062021MARIA JOSE GUERRERO TONIZ                                            
0493217        00000000000292347849000127670001150575904000000003175390017062021PAGO NOMINA                   11CRA1504189V9 00000000000000dgarcia@gruposeri.com                  17062021VIRGINIA DEL CARMEN FELIPE CHIGO                                     
0493247        00000000000292347849000127610001510085081000000004611770017062021PAGO NOMINA                   11CRA1504189V9 00000000000000dgarcia@gruposeri.com                  17062021KEYMA GOMEZ VELAZQUEZ                                                
0492852        00000000000292347849000127834013704832461000000003175240017062021PAGO NOMINA                   11CRA1504189V9 00000000000000dgarcia@gruposeri.com                  17062021JORGE SANCHEZ JUAREZ                                                 
0492897        00000000000292347849000127905001160264624000000019395990017062021PAGO NOMINA                   11CRA1504189V9 00000000000000dgarcia@gruposeri.com                  17062021MARIA ANGELICA PEREZ PASCAL                                          
0492968        00000000000292347849000127888001288166611000000003175390017062021PAGO NOMINA                   11CRA1504189V9 00000000000000dgarcia@gruposeri.com                  17062021ANA LAURA VEGA VILLANUEVA                                            
0492949        00000000000292347849000127650013810898489000000002747840017062021PAGO NOMINA                   11CRA1504189V9 00000000000000dgarcia@gruposeri.com                  17062021ALMA GUADALUPE ALVARADO RODRIGUEZ                                    
0492959        00000000000292347849000127180016293025692000000002879510017062021PAGO NOMINA                   11CRA1504189V9 00000000000000dgarcia@gruposeri.com                  17062021JEZRAEL TEHOZOL CRUZ                                                 
0493000        00000000000292347849000127650001293259822000000002228890017062021PAGO NOMINA                   11CRA1504189V9 00000000000000dgarcia@gruposeri.com                  17062021SANDRA LIZBETH PEREZ FLORES                                          
0493390        00000000000292347849000127841001168796012000000002221510017062021PAGO NOMINA                   11CRA1504189V9 00000000000000dgarcia@gruposeri.com                  17062021VERONICA SOTO RAMIREZ                                                
0493379        00000000000292347849000127667001196078724000000002985370017062021PAGO NOMINA                   11CRA1504189V9 00000000000000dgarcia@gruposeri.com                  17062021IVAN SANCHEZ CASCO                                                   
0493395        00000000000292347849000127660001367735796000000003344160017062021PAGO NOMINA                   11CRA1504189V9 00000000000000dgarcia@gruposeri.com                  17062021BRISA TLAPAYA MENESES                                                
0493396        00000000000292347849000127650001367717410000000001830250017062021PAGO NOMINA                   11CRA1504189V9 00000000000000dgarcia@gruposeri.com                  17062021BRENDA ALEJANDRA SORIANO RODRIGUEZ                                   
0493375        00000000000292347849000127832001245263053000000002695040017062021PAGO NOMINA                   11CRA1504189V9 00000000000000dgarcia@gruposeri.com                  17062021KEVIN CARMONA AVILA                                                  
0493335        00000000000292347849000127843001128938656000000005911740017062021PAGO NOMINA                   11CRA1504189V9 00000000000000dgarcia@gruposeri.com                  17062021HECTOR GONZALEZ CELAYA                                               
0493347        00000000000292347849000127290013125450176000000003265720017062021PAGO NOMINA                   11CRA1504189V9 00000000000000dgarcia@gruposeri.com                  17062021IRVIN ASSAEL ESCAMILLA ISIDRO                                        
04901343       00000000000292347849000127180016072098332000000002747840017062021PAGO NOMINA                   11CRA1504189V9 00000000000000dgarcia@gruposeri.com                  17062021JESUS MANUEL SANTACRUZ HUERTA                                        
04901645       00000000000292347849000127652001313787243000000002558640017062021PAGO NOMINA                   11CRA1504189V9 00000000000000dgarcia@gruposeri.com                  17062021GIOVANNI TELLEZ ROSAS                                                
04901518       00000000000292347849000127705001118951804000000005349080017062021PAGO NOMINA                   11CRA1504189V9 00000000000000dgarcia@gruposeri.com                  17062021HUGO ENRIQUE GOMEZ JUAREZ                                            
04902587       00000000000292347849000127894013719927107000000002992090017062021PAGO NOMINA                   11CRA1504189V9 00000000000000dgarcia@gruposeri.com                  17062021HEBER JAVIN MEDINA MORALES                                           
04902650       00000000000292347849000127877001213123300000000002744180017062021PAGO NOMINA                   11CRA1504189V9 00000000000000dgarcia@gruposeri.com                  17062021JUAN CARLOS PEREZ MORALES                                            
04902311       00000000000292347849000127650013946211697000000003344160017062021PAGO NOMINA                   11CRA1504189V9 00000000000000dgarcia@gruposeri.com                  17062021JESSICA SANCHEZ PALESTINA                                            
04902127       00000000000292347849000127650013669955188000000002576420017062021PAGO NOMINA                   11CRA1504189V9 00000000000000dgarcia@gruposeri.com                  17062021LUCIA HERNANDEZ SERDA                                                
04902921       00000000000292347849000127832001405281228000000003175390017062021PAGO NOMINA                   11CRA1504189V9 00000000000000dgarcia@gruposeri.com                  17062021CARLOS ALEJANDRO PALESTINA LIMA                                      
04902489       00000000000292347849000127811001353048754000000003451050017062021PAGO NOMINA                   11CRA1504189V9 00000000000000dgarcia@gruposeri.com                  17062021MA. LETICIA CRUZ MENDEZ                                              
04903962       00000000000292347849000127650001427588686000000002567050017062021PAGO NOMINA                   11CRA1504189V9 00000000000000dgarcia@gruposeri.com                  17062021PRISCILA DALIA CASTRO GONZALEZ                                       
04903869       00000000000292347849000127667013191827696000000003175390017062021PAGO NOMINA                   11CRA1504189V9 00000000000000dgarcia@gruposeri.com                  17062021NELSON YAMIL SUAREZ PEREZ                                            
04904229       00000000000292347849000127650001231514626000000002760830017062021PAGO NOMINA                   11CRA1504189V9 00000000000000dgarcia@gruposeri.com                  17062021MARIA FERNANDA ROBLES LOPEZ                                          
04904001       00000000000292347849000127890001427240001000000002747840017062021PAGO NOMINA                   11CRA1504189V9 00000000000000dgarcia@gruposeri.com                  17062021MARIBEL ESPINOSA CHAPOL                                              
04904039       00000000000292347849000127311013640902842000000002992090017062021PAGO NOMINA                   11CRA1504189V9 00000000000000dgarcia@gruposeri.com                  17062021FRANCISCO JAVIER RESENDIZ MIRANDA                                    
04903161       00000000000292347849000127905001414081498000000002198290017062021PAGO NOMINA                   11CRA1504189V9 00000000000000dgarcia@gruposeri.com                  17062021JERONIMO ROMAN ARRIETA                                               
04903004       00000000000292347849000127650013060417018000000002747840017062021PAGO NOMINA                   11CRA1504189V9 00000000000000dgarcia@gruposeri.com                  17062021RUTILO ALEJANDRO JUAREZ MERINO                                       
04903565       00000000000292347849000137867101666798729000000003114580017062021PAGO NOMINA                   11CRA1504189V9 00000000000000dgarcia@gruposeri.com                  17062021ITZEL GABRIELA HERNANDEZ MUNOZ                                       
04903654       00000000000292347849000137898103360084049000000002388130017062021PAGO NOMINA                   11CRA1504189V9 00000000000000dgarcia@gruposeri.com                  17062021JOSE ALEJANDRO DELFIN GUZMAN                                         
04904105       00000000000292347849000137290104184021005000000002361320017062021PAGO NOMINA                   11CRA1504189V9 00000000000000dgarcia@gruposeri.com                  17062021MARIA ISABEL JIMENEZ CASANOVA                                        
04903919       00000000000292347849000137877104004114716000000002747840017062021PAGO NOMINA                   11CRA1504189V9 00000000000000dgarcia@gruposeri.com                  17062021ARLENY SUREY GUTIERREZ JAVIER                                        
04903993       00000000000292347849000137905103071770276000000002992090017062021PAGO NOMINA                   11CRA1504189V9 00000000000000dgarcia@gruposeri.com                  17062021KARLA ISABEL LOPEZ GOMEZ                                             
04904336       00000000000292347849000137888130045551508000000003175390017062021PAGO NOMINA                   11CRA1504189V9 00000000000000dgarcia@gruposeri.com                  17062021RICARDO SANCHEZ HINOJOSA                                             
04902862       00000000000292347849000137813130034157108000000003175390017062021PAGO NOMINA                   11CRA1504189V9 00000000000000dgarcia@gruposeri.com                  17062021RICARDO ESTEBAN MIRAMON ROSETE                                       
04902078       00000000000292347849000137653130015250718000000003344160017062021PAGO NOMINA                   11CRA1504189V9 00000000000000dgarcia@gruposeri.com                  17062021YESSICA MORALES CONTRERAS                                            
04901889       00000000000292347849000137650104087605993000000003180630017062021PAGO NOMINA                   11CRA1504189V9 00000000000000dgarcia@gruposeri.com                  17062021LIMBERG MARROQUIN HERNANDEZ                                          
0493332        00000000000292347849000137813104013067876000000002794910017062021PAGO NOMINA                   11CRA1504189V9 00000000000000dgarcia@gruposeri.com                  17062021AGUSTIN OSWALDO NAVA MAYORAL                                         
0493323        00000000000292347849000137291102592924478000000002747840017062021PAGO NOMINA                   11CRA1504189V9 00000000000000dgarcia@gruposeri.com                  17062021YAQUELIN OLVERA TEJEDA                                               
0493316        00000000000292347849000137650104005798015000000003344160017062021PAGO NOMINA                   11CRA1504189V9 00000000000000dgarcia@gruposeri.com                  17062021LUIS ALFREDO MINTO ORTIZ                                             
0493303        00000000000292347849000137894103997149539000000002992090017062021PAGO NOMINA                   11CRA1504189V9 00000000000000dgarcia@gruposeri.com                  17062021MAGALI GUADALUPE DEL ANGEL SANTIAGO                                  
0493357        00000000000292347849000137885130035205579000000002992090017062021PAGO NOMINA                   11CRA1504189V9 00000000000000dgarcia@gruposeri.com                  17062021CLAUDIA PATRICIA PEREZ GUTIERREZ                                     
0493397        00000000000292347849000137650101430328639000000003013440017062021PAGO NOMINA                   11CRA1504189V9 00000000000000dgarcia@gruposeri.com                  17062021GUADALUPE MARTINEZ PEREZ                                             
0493391        00000000000292347849000137903103429436038000000002747840017062021PAGO NOMINA                   11CRA1504189V9 00000000000000dgarcia@gruposeri.com                  17062021ADRIANA SINAI GOMEZ RAMIREZ                                          
