EEHA8817801                                                                                                                                                                                                                                                                                                                                                                       
EEHB0000000001060151350000000001000                                                                                                                                                                                                                                                                                                                                                
EEDA0400000000000804655202106210150004                            PEREZ MUNOZ JOSE GUSTAVO                000000000000000100000000000000212390056666256900000                                        9 00000044002001PAGO NOMINA                                                                                                   0000000002123900566662569                      
EEDA0400000000000501242202106210150100                            PACHECO BENITEZ BENJAMIN                000000000000000200000000000000218070082061787500000                                        9 00000044002001PAGO NOMINA                                                                                                   0000000002180700820617875                      
EEDA0400000000000447761202106210150114                            CHAVEZ MORALES SERGIO OMAR              000000000000000300000000000000254670166038578000000                                        9 00000044002001PAGO NOMINA                                                                                                   0000000002546701660385780                      
EEDA0400000000001701332202106210150055                            VALENZUELA BORBON ROSELA ADRIANA        000000000000000400000000000000276090125360288300000                                        9 00000044002001PAGO NOMINA                                                                                                   0000000002760901253602883                      
EEDA0400000000001758317202106210150060                            DIAZ HERNANDEZ YAZMIN                   000000000000000500000000000000218070108658248400000                                        9 00000044002001PAGO NOMINA                                                                                                   0000000002180701086582484                      
EEDA0400000000000628919202106210150160                            GONZALEZ GARCIA HECTOR                  000000000000000600000000000000218090281164928100000                                        9 00000044002001PAGO NOMINA                                                                                                   0000000002180902811649281                      
EEDA0400000000000396310202106210150223                            REYES MARTINEZ MISAEL                   000000000000000700000000000000218090295095317100000                                        9 00000044002001PAGO NOMINA                                                                                                   0000000002180902950953171                      
EEDA0400000000002709466202106210150233                            ALVAREZ GALVEZ MARIJOSE                 000000000000000800000000000000254007100994970100000                                        9 00000044002001PAGO NOMINA                                                                                                   0000000002540071009949701                      
EEDA0400000000000644804202106210150258                            MORALES GARCIA MANUEL                   000000000000000900000000000000218090266368258000000                                        9 00000044002001PAGO NOMINA                                                                                                   0000000002180902663682580                      
EEDA0400000000000446090202106210150355                            BOLANOS VARGAS CARLOS ARMANDO           000000000000001000000000000000218090368880468500000                                        9 00000044002001PAGO NOMINA                                                                                                   0000000002180903688804685                      
EEDA0400000000000883115202106210150357                            SERRA VILLAGOMEZ ADRIAN RAFAEL          000000000000001100000000000000218090252485081700000                                        9 00000044002001PAGO NOMINA                                                                                                   0000000002180902524850817                      
EEDA0400000000000946617202106210150449                            PEREZ CASTILLO JULIETA                  000000000000001200000000000000218090220401013900000                                        9 00000044002001PAGO NOMINA                                                                                                   0000000002180902204010139                      
EEDA0400000000000835370202106210150453                            CASTRO GARCIA ELSA BEATRIZ              000000000000001300000000000000218090001048022700000                                        9 00000044002001PAGO NOMINA                                                                                                   0000000002180900010480227                      
EEDA0400000000000479486202106210150496                            RIVERA MAYA ARIANA                      000000000000001400000000000000218070128592421200000                                        9 00000044002001PAGO NOMINA                                                                                                   0000000002180701285924212                      
EEDA0400000000000410001202106210150588                            MONTIEL VAZQUEZ ZULMA REBECA            000000000000001500000000000000218070133353656500000                                        9 00000044002001PAGO NOMINA                                                                                                   0000000002180701333536565                      
EEDA0400000000000644849202106210150589                            CRUZ GARCIA JOSUE FARID                 000000000000001600000000000000246070142766092800000                                        9 00000044002001PAGO NOMINA                                                                                                   0000000002460701427660928                      
EEDA0400000000000873508202106210150600                            GUADARRAMA NAVA GINA AURORA             000000000000001700000000000000218070135449456300000                                        9 00000044002001PAGO NOMINA                                                                                                   0000000002180701354494563                      
EEDA0400000000000926363202106210150610                            RODRIGUEZ GUTIERREZ CARLOS              000000000000001800000000000000218090384131254500000                                        9 00000044002001PAGO NOMINA                                                                                                   0000000002180903841312545                      
EEDA0400000000000410001202106210150556                            VELASQUEZ GUEVARA BHETSY SAINA          000000000000001900000000000000218070138074119600000                                        9 00000044002001PAGO NOMINA                                                                                                   0000000002180701380741196                      
EEDA0400000000000488591202106210150560                            AGUILAR EUMANA ITZEL DENISSE            000000000000002000000000000000218090353614842200000                                        9 00000044002001PAGO NOMINA                                                                                                   0000000002180903536148422                      
EEDA0400000000000410013202106210150629                            MENDOZA VAZQUEZ AMALINALLI AURORA       000000000000002100000000000000218070125068373700000                                        9 00000044002001PAGO NOMINA                                                                                                   0000000002180701250683737                      
EEDA0400000000000534967202106210150642                            BUREOS GARCIA IVAN RICARDO              000000000000002200000000000000218090419853053200000                                        9 00000044002001PAGO NOMINA                                                                                                   0000000002180904198530532                      
EEDA0400000000000344971202106210150647                            ITURBE REYES ADRIAN                     000000000000002300000000000000265090372868529400000                                        9 00000044002001PAGO NOMINA                                                                                                   0000000002650903728685294                      
EEDA0400000000000410013202106210150653                            MONROY OVANDO ANA MARGARITA             000000000000002400000000000000218090354806044600000                                        9 00000044002001PAGO NOMINA                                                                                                   0000000002180903548060446                      
EEDA0400000000000643461202106210150656                            VILLAR BARCENAS RICARDO ISAID           000000000000002500000000000000218090401750915200000                                        9 00000044002001PAGO NOMINA                                                                                                   0000000002180904017509152                      
EEDA04000000000006448732021062101900993                           ALAYETO PINZON JOSE MANUEL              000000000000002600000000000000218070153502631000000                                        9 00000044002001PAGO NOMINA                                                                                                   0000000002180701535026310                      
EEDA0400000000000492283202106210150354                            VICTORIA GUTIERREZ SHARON ROSARIO       000000000000002700000000000000218070165154957700000                                        9 00000044002001PAGO NOMINA                                                                                                   0000000002180701651549577                      
EEDA0400000000000528469202106210150660                            OLVERA GARCIA ANDREA PATRICIA           000000000000002800000000000002118006407352586800000                                        9 00000044021001PAGO NOMINA                                                                                                   0000000021180064073525868                      
EEDA0400000000000352381202106210150564                            NOLASCO DIOSDADO DANIEL                 000000000000002900000000000002118006468612175600000                                        9 00000044021001PAGO NOMINA                                                                                                   0000000021180064686121756                      
EEDA0400000000000257836202106210150462                            ARIAS PACHECO CARLOS ALBERTO            000000000000003000000000000002118006447833363900000                                        9 00000044021001PAGO NOMINA                                                                                                   0000000021180064478333639                      
EEDA0400000000001323912202106210150424                            TOVAR SALGADO MARTIN                    000000000000003100000000000002154006353159174200000                                        9 00000044021001PAGO NOMINA                                                                                                   0000000021540063531591742                      
EEDA0400000000000358446202106210150432                            PEREZ DAVILA HUGO EDUARDO               000000000000003200000000000002118006468713338700000                                        9 00000044021001PAGO NOMINA                                                                                                   0000000021180064687133387                      
EEDA0400000000000307035202106210150438                            DE LAZARO MARQUEZ OSCAR                 000000000000003300000000000002118006464481674400000                                        9 00000044021001PAGO NOMINA                                                                                                   0000000021180064644816744                      
EEDA0400000000000450715202106210150263                            PRIETO LALDE BIBIANA IRAIS              000000000000003400000000000002118006432836322500000                                        9 00000044021001PAGO NOMINA                                                                                                   0000000021180064328363225                      
EEDA0400000000001397747202106210150293                            GARCIA CEDILLO FABIOLA                  000000000000003500000000000002118006342906206000000                                        9 00000044021001PAGO NOMINA                                                                                                   0000000021180063429062060                      
EEDA0400000000000349171202106210150168                            HERNANDEZ TORRES FERNANDO EDUARDO       000000000000003600000000000002190506373294530500000                                        9 00000044021001PAGO NOMINA                                                                                                   0000000021905063732945305                      
EEDA0400000000000759096202106210150115                            GARCIA BARCENA DANIEL                   000000000000003700000000000002118006414693675300000                                        9 00000044021001PAGO NOMINA                                                                                                   0000000021180064146936753                      
EEDA0400000000002224529202106210150688                            OLVERA GONZALEZ GEOVANNY                000000000000003800000000000002118004063264931600000                                        9 00000044021001PAGO NOMINA                                                                                                   0000000021180040632649316                      
EEDA0400000000000485400202106210150129                            LOPEZ GONZALEZ CARLOS ANTONIO           000000000000003900000000000003618050039680892800000                                        9 00000044036001PAGO NOMINA                                                                                                   0000000036180500396808928                      
EEDA0400000000000606719202106210150327                            GUTIERREZ MARTINEZ JESUS                000000000000004000000000000012718000102630554900000                                        9 00000044127001PAGO NOMINA                                                                                                   0000000127180001026305549                      
EEDA0400000000000685790202106210150295                            ROMERO PINA DULCE VIRIDIANA             000000000000004100000000000012718000153581850100000                                        9 00000044127001PAGO NOMINA                                                                                                   0000000127180001535818501                      
EEDA0400000000000338036202106210150161                            MENDOZA PEREZ JOSE EDUARDO              000000000000004200000000000012718001340651261000000                                        9 00000044127001PAGO NOMINA                                                                                                   0000000127180013406512610                      
EEDA0400000000000267344202106210150126                            ESQUIVEL BACA MARIA CONCEPCION          000000000000004300000000000012718000141696230100000                                        9 00000044127001PAGO NOMINA                                                                                                   0000000127180001416962301                      
EEDA0400000000001069059202106210150543                            REAL ANTONIO ROSALVA                    000000000000004400000000000012763201325555147700000                                        9 00000044127001PAGO NOMINA                                                                                                   0000000127632013255551477                      
EEDA0400000000000410001202106210150501                            VENTURA GUTIERREZ IVAN                  000000000000004500000000000012718001376272528000000                                        9 00000044127001PAGO NOMINA                                                                                                   0000000127180013762725280                      
EEDA0400000000000133471202106210150614                            SANCHEZ REYES WENDY DE LOS ANGELES      000000000000004600000000000012718000115086317700000                                        9 00000044127001PAGO NOMINA                                                                                                   0000000127180001150863177                      
EEDA0400000000000528469202106210150625                            PEDROZA ZARATE AURIEL                   000000000000004700000000000012718001644271437200000                                        9 00000044127001PAGO NOMINA                                                                                                   0000000127180016442714372                      
EEDA0400000000000306049202106210150628                            MARTINEZ JIMENEZ DULCE SARAI            000000000000004800000000000012718001659085394900000                                        9 00000044127001PAGO NOMINA                                                                                                   0000000127180016590853949                      
EEDA0400000000000628432202106210150479                            VAZQUEZ AYALA LAURA VANESA              000000000000004900000000000012718001390840903000000                                        9 00000044127001PAGO NOMINA                                                                                                   0000000127180013908409030                      
EEDA0400000000000591450202106210150641                            AYALA GUILLEN JONATHAN                  000000000000005000000000000012718000154076224400000                                        9 00000044127001PAGO NOMINA                                                                                                   0000000127180001540762244                      
EEDA0400000000000528450202106210150528                            MIRELES RODRIGUEZ ABRIL                 000000000000005100000000000012718001327799292200000                                        9 00000044127001PAGO NOMINA                                                                                                   0000000127180013277992922                      
EEDA0400000000000410013202106210150681                            RAMIREZ CORTES OSCAR MARTIN             000000000000005200000000000012718001612962250900000                                        9 00000044127001PAGO NOMINA                                                                                                   0000000127180016129622509                      
EEDA0400000000000644873202106210150672                            BRAMBILA REYES BRAYAN ENRIQUE           000000000000005300000000000012718000139200387600000                                        9 00000044127001PAGO NOMINA                                                                                                   0000000127180001392003876                      
EEDA0400000000000528469202106210150676                            ESTEVEZ GRIMALDO MARIA FERNANDA         000000000000005400000000000013718010335804657400000                                        9 00000044137001PAGO NOMINA                                                                                                   0000000137180103358046574                      
EEDA0400000000000759207202106210150670                            SANCHEZ RUIZ ANGEL DE JESUS             000000000000005500000000000013786910195902963700000                                        9 00000044137001PAGO NOMINA                                                                                                   0000000137869101959029637                      
EETB000005500000000000000000000000000000000000000000000000000000000000000000000000000000000000000000000000000000000000000000000000000000000000000000000000000000000000000000000000000000000000000000000000000000000000000000000000000000000000000000000                                                                                                                           
EETA000005500000000000000000000000000000000000000000000000000000000000000000000000000000000000000000000000000000000000000000000000000000000000000000000000000000000000000000000000000000000000000000000000000000000000000000000000000000000000000000000                                                                                                                           
