000000001                991545185661          000000000410013CARLOS ALFREDO CRUZ CORDERO             001001
000000002                991420039519          000000000263564ESTELA SOTO ROSAS                       001001
000000003                991494132661          000000000367123DAVID ZARATE GARCIA                     001001
000000004                991503212907          000000000295208LUIS DARIO ESTRADA GREGORIO             001001
000000005                992665979412          000000002010401EMMANUEL MENDEZ NERI                    001001
000000006                992918952515          000000000100035GUSTAVO JIMENEZ REYES                   001001
000000007                992688688443          000000000755032ANGELICA HERNANDEZ CAZAREZ              001001
000000008                991550892804          000000000632105CYNTHIA LIDIA TRUJILLO MUNOZ            001001
000000009                991420039357          000000003199070MARIA ISABEL RAMOS AVILA                001001
000000010                991509126658          000000000533450GERARDO DANIEL GUTIERREZ GOMEZ          001001
000000011                991577160909          000000000221433FRANCISCO REYES ARISTA                  001001
000000012                991555013860          000000000163739JUAN ANTONIO PRUDENTE CRUZ              001001
000000013                991519458144          000000000687959LINDA CHAVEZ SIFUENTES                  001001
000000014                991121480251          000000000615783MARIA GUADALUPE FLORES CASTILLO         001001
000000015                992985358221          000000000359635NOEMI MIGUEL ORTIZ                      001001
000000016                991164153324          000000000687959SANDRA MARTINEZ FERRER                  001001
000000017                991162976757          000000000272899LUCERO VALENCIA ARIAS                   001001
000000018                992690988707          000000000326490GRACIELA CAMACHO GONZALEZ               001001
000000019                991512135922          000000000271916LIZBETH GARCIA LEON                     001001
000000020                990458111308          000000000326490ROSA ISELA LUNA MAYA                    001001
000000021                992872221519          000000000313065VERONICA HERNANDEZ ALVAREZ              001001
000000022                992892164574          000000000272899OSCAR ALEXANDER MARTINEZ JIMENEZ        001001
000000023                991504838866          000000000272899VERONICA MARTINEZ HERNANDEZ             001001
000000024                992998258910          000000000307784NOEMI CASTRO OLVERA                     001001
000000025                991516592201          000000000533450GLADIS KARINA SOTO HERNANDEZ            001001
000000026                991541574337          000000000272899LILIA TINAJERO VAZQUEZ                  001001
000000027                991545860407          000000000272899ALMA JOSEFINA LUCERO BRAVO              001001
000000028                991549099131          000000000272899ROBERTO ESCOBAR GARCIA                  001001
000000029                992934414624          000000000670464TANIA VANESSA BAUTISTA RENDON           001001
000000030                991569508929          000000000224441MARIBEL VAZQUEZ BUENROSTRO              001001
000000031                991512656361          000000000611739TANIA LISBETH VARGAS CASTRO             001001
000000032                991578928754          000000000326490MARIA TERESA GARCIA DOMINGUEZ           001001
000000033                991123537226          000000000042394ALAN MICHEL ESTRADA BRIONES             001001
000000034                991534864433          000000000103792MARISELA MARCIAL ESQUIVEL               001001
000000035                991572277239          000000000316490MARBELL DE JESUS ROJAS PEREZ            001001
000000036                991500592824          000000000252736MARIA TERESA MOLINA LICONA              001001
000000037                991554742080          000000000218304GUILLERMO ORTUNO MENA                   001001
000000038                991553681955          000000000483393MARIA DEL PILAR PASTRANA OTAMENDI       001001
000000039                991580005509          000000000326490BLANCA ESTELA REYES HERNANDEZ           001001
000000040                991505631696          000000000269440NADIA GRISEL PEREZ SANDOVAL             001001
000000041                991570457116          000000000319824HERMELINDA ROSALES VARGAS               001001
000000042                991510974355          000000000797289ERIC OBED PARRA COTA                    001001
000000043                990468887233          000000000687959MAURICIO GARCIA CASILLAS                001001
000000044                991579359110          000000000706251CRISTINA VAZQUEZ ORTIZ                  001001
000000045                991504329619          000000004766841ILIANA DE SILVA MUNOZ                   001001
000000046                991143478939          000000000468195JANET PEREZ RAMIREZ                     001001
000000047                991184203577          000000001927479JULIO CESAR VARGAS HUERTA               001001
000000048                991530471925          000000000349630TERESA GUADALUPE ZAMUDIO JUAREZ         001001
000000049                991219888888          000000000953264DENISE LOZA SAUCEDO                     001001
000000050                991175671655          000000000632653JAIME HUITRON LUJANO                    001001
000000051                992957771150          000000000246420MARIA GUADALUPE DONATO CONTRERAS        001001
000000052                991549080155          000000000700111OSCAR EMIR CRUZ ILLESCAS                001001
000000053                991538013357          000000000272899ERIKA MERARI REYES SAMPERIO             001001
000000054                991525818567          000000000929445JOSE ALFREDO PERALTA MORALES            001001
000000055                991574276124          000000000163536FRANCISCO JAVIER HURTADO LUNA           001001
000000056                990462030381          000000000313699PAUL JORGE BERMUDEZ HERNANDEZ           001001
000000057                991526104282          000000000309574JORGE LUIS HERNANDEZ TIBURCIO           001001
000000058                992968608717          000000000555060ELIZABETH SANCHEZ PEREZ                 001001
000000059                992852152592          000000000726610RODRIGO ULLOA TERAN                     001001
000000060                991537924189          000000000877894MIGUEL ANGEL NAVARRO PEREZ              001001
000000061                991538665730          000000000272907BENJAMIN MIROS GONZALEZ                 001001
000000062                991437340699          000000000568300DIANA SIERRA RAMOS                      001001
000000063                991501642642          000000000494056JESUS ZAMORA GONZALEZ                   001001
000000064                991543321921          000000000285161ANA KAREN LIMA OROZCO                   001001
000000065                992971050664          000000000773435GUILLERMO ORTEGA ALMANZA                001001
000000066                991582614891          000000001398078ROBERTO ANTONIO ORTIZ LAZCANO           001001
000000067                991528273670          000000000272907JOSE DE JESUS MENDEZ YEPEZ              001001
000000068                991186968317          000000000626461MARIO CRISTIAN RIVERA MARTINEZ          001001
000000069                992986904572          000000000528469YURIDIA PAULETTE MARQUEZ CRUZ           001001
000000070                991134991532          000000000258562ARSENIO MORENO SOLANO                   001001
000000071                991520771503          000000000292144RAUL ARVIZU GONZALEZ                    001001
000000072                991297873719          000000000568300MARLON ALEXIS FIGUEROA ACEVEDO          001001
000000073                991545383831          000000000272907RUBEN ANGEL HERRERA VEGA                001001
000000074                991152097656          000000000100596CARMELO DE LUNA CORTES                  001001
000000075                991133173690          000000000357329JORGE ESPARZA HERNANDEZ                 001001
000000076                992751157892          000000000528469ULISES FERNANDO RUBIO GARCIA            001001
000000077                992977397917          000000000336118RAFAEL DOMINGUEZ PALACIOS               001001
000000078                991525005571          000000000267907NORMA ELSA LUNA RANGEL                  001001
000000079                991526736726          000000000076941GRACIELA CORTES ZUNIGA                  001001
000000080                991501468106          000000000463620PAULINO CALLEJA GARCIA                  001001
000000081                991578839905          000000000272907PAOLA SANCHEZ SANCHEZ                   001001
000000082                990463520919          000000000406049LUIS ANGEL GARCES JIMENEZ               001001
000000083                991550801341          000000000844085RAFAEL ALEJANDRO RUIZ MENDOZA           001001
000000084                991516389635          000000000528469ALEJANDRO PALOMO MARINO                 001001
000000085                992994978048          000000000272907JOSE ROBERTO HERNANDEZ HERNANDEZ        001001
000000086                991517835950          000000000272907OLIVA HERNANDEZ VASQUEZ                 001001
000000087                991539236794          000000000252907NIDIA LAURA VILLANUEVA FERNANDEZ        001001
000000088                991500237861          000000000399719LUIS ALBERTO LOPEZ RODRIGUEZ            001001
000000089                991446342779          000000000447817IVONNE MONSERRAT AGUILAR CETINA         001001
000000090                992905302757          000000000241104FRANCISCO JAVIER PEREZ SANCHEZ          001001
000000091                991513536168          000000000272907DAVID BAUTISTA RIOS                     001001
000000092                990464761251          000000000447817WALTER ANDRES PFEIFFER ALFARO           001001
000000093                991538656185          000000000461967YARA GEORGINA AGUILAR GALEANA           001001
000000094                991503950557          000000000525763SOFIA LIZBETH CORDOBA GONZALEZ          001001
000000095                992887695195          000000000491395LUIS EDUARDO GUTIERREZ ESPINOZA         001001
000000096                991514320867          000000000475180GRACIELA PASTRANA GONZALEZ              001001
000000097                991141101609          000000000383421CARLOS RUBEN NOVA LUPERCIO              001001
000000098                991572982784          000000000461967YOALI JOEL CASTRO RAMOS                 001001
000000099                991588726577          000000000272907MIRNA VIRIDIANA MANRIQUEZ CHAVERO       001001
000000100                992924090535          000000001658740ADRIANA MARTINEZ TREVINO                001001
000000101                991576425766          000000000272907LIZBETH DANIELA GODINEZ HERNANDEZ       001001
000000102                991590113614          000000000587706ANA PATRICIA AQUINO CHAVEZ              001001
000000103                991525404408          000000000081313JOSE JUAN CUAMATZI PEREZ                001001
000000104                991556365973          000000000873541AZUCENA PERALES REYES                   001001
000000105                991527798776          000000000294617GABRIEL MARTINEZ NERI                   001001
000000106                991585036801          000000000272907FERNANDO VELAZQUEZ VELIZ                001001
000000107                991595278981          000000000272907FERNANDO PEREZ GARCIA                   001001
000000108                991546510500          000000000272907GUSTAVO HUGO HILARIO MONROY             001001
000000109                992969023089          000000000759207JOSUE DAVID MEZA HERNANDEZ              001001
000000110                990466516149          000000000447817FERNANDO HERNANDEZ GONZALEZ             001001
000000111                991528121799          000000000272907MANUEL FELIPE AMAYA REYES               001001
000000112                991573776754          000000000113866JUAN ALBERTO FLORES SOLIS               001001
000000113                991503161300          000000000294617MARGARITA SERRALDE ESPINOZA             001001
000000114                992915643465          000000001324014ROSAURA RIVERA GUTIERREZ                001001
000000115                991577354455          000000000483410MARIA DE LOS ANGELES PEREZ MARTINEZ     001001
000000116                991522730472          000000001398078JONATHAN SANCHEZ CERON                  001001
000000117                991273082377          000000000272907MARTIN HERNANDEZ HERNANDEZ              001001
000000118                992719476466          000000000528469MARLEN BEATRIZ PAULINO REYES            001001
000000119                991575478812          000000000309355ABILENE MARISOL BECERRA HERNANDEZ       001001
000000120                991544805464          000000000272907ALEJANDRO DANIEL AVILES                 001001
000000121                991500679727          000000000272907MARIO ALBERTO DIAZ QUINTERO             001001
000000122                991544754266          000000000272907MIRNA DIAZ HERNANDEZ                    001001
000000123                991521778178          000000000461737JOSE VICENTE RODRIGUEZ RODRIGUEZ        001001
000000124                991501390859          000000000300413VANESA OVANDO ESPINOSA                  001001
000000125                991534054881          000000000723391JULIO CESAR MIGUEL SANTIAGO             001001
000000126                990473231097          000000000300413GEAZUL SANTOS TOLENTINO                 001001
000000127                992955577381          000000000307078SANDRA CORTEZ VAZQUEZ                   001001
000000128                991550766954          000000000447817VALERIA YOSELIN FLORES TREJO            001001
000000129                992704072200          000000001724817ANEDI SUSED CRUZ GARCIA                 001001
000000130                991502040972          000000000683176FERNANDO REYES MORUA                    001001
000000131                991557730012          000000000410013JOSE LUIS RUIZ SAUCEDO                  001001
000000132                991565924505          000000000447817GRISELDA ESTHER NARVAEZ LINARES         001001
000000133                991548110352          000000000447817ALEJANDRA ALFARO MARTINEZ               001001
000000134                991509791725          000000000272907JANETH GARCIA SANCHEZ                   001001
000000135                991526997913          000000000272907EMANUEL AURELIO AYALA ARROYO            001001
000000136                991510444771          000000000447817MARTHA REBECA RAMIREZ FLORES            001001
000000137                991510708387          000000000272907LUIS ROBERTO QUINTANA CARRETO           001001
000000138                991243679098          000000000759207DANIEL OLIVARES VAZQUEZ                 001001
000000139                991520086637          000000000367134ANDREA TORRES HERNANDEZ                 001001
000000140                992774063813          000000000272907JOSE JESUS MARTINEZ ESTRADA             001001
000000141                991565526780          000000000483410JOSE LUIS MARTINEZ BIXANO               001001
000000142                992907976755          000000000294617JONATHAN DANIEL RIVERA ROMERO           001001
000000143                991521745720          000000000447817VERONICA ESPINOSA RAMIREZ               001001
000000144                991533106571          000000000410013JAZMIN VENECIA CAMARENA SORIA           001001
000000145                992837129688          000000000243677JUVENCIO MEDINA AGUILAR                 001001
000000146                991515020638          000000000300529EDGAR ARROYO ALMAZAN                    001001
000000147                991510847747          000000000272907FABIOLA NOEMY CRUZ BARAJAS              001001
000000148                992981655167          000000001758601VANIA SALAS GARCIA                      001001
000000149                991559204884          000000000272907VERONICA GONZALEZ PONCE                 001001
000000150                991512515315          000000000272907JOSE MANUEL ALANIS RODRIGUEZ            001001
000000151                991509710020          000000000294617GUADALUPE RICO SANCHEZ                  001001
000000152                991523773043          000000000447817JOSE FRANCISCO OCAMPO FRANCO            001001
000000153                991532897539          000000000447817IVAN ROJAS GALINDO                      001001
000000154                991570488308          000000000300413PABLO ANTONIO MORALES BECERRIL          001001
000000155                991558443800          000000000447817ISELA ROSAS LARA                        001001
000000156                991532301779          000000000410013BRENDA MERLOS GONZALEZ                  001001
000000157                991500306017          000000000410013BRAYAN NAFTALI RODRIGUEZ RUIZ           001001
000000158                990475358310          000000000197289EUNICE ORTEGA MARTINEZ                  001001
000000159                991564021188          000000000272907JORGE ANTONIO MARTINEZ FRAIRE           001001
000000160                991514975177          000000000314355MARIO DE JESUS CANO GUTIERREZ           001001
000000161                991560253793          000000000528469BETSABE NALLELY TORNES MONTALVO         001001
000000162                991535798747          000000000272907ALEXIS JUAREZ PEREZ                     001001
000000163                991541388037          000000000272907ANGELINA SANCHEZ PALACIOS               001001
000000164                992759379967          000000001263390JOSE SALVADOR TELLEZ RODRIGUEZ          001001
000000165                992795191475          000000000823613ARELI NOEMI PACHECO ARANDA              001001
000000166                991125201624          000000000410013HUGO RICARDO ORTEGA ALEJO               001001
000000167                991537958397          000000000272907JUAN PABLO CAMPOS GUZMAN                001001
000000168                991508942096          000000000272907NORMA LILIANA LOPEZ CORONEL             001001
000000169                991529765284          000000000272907NESTOR HERNANDEZ LAZCANO                001001
000000170                991520568429          000000000272907JAQUELINE GARCIA SANCHEZ                001001
000000171                991551729874          000000000644873JOSE ADOLFO MORENO BECERRIL             001001
000000172                990472073838          000000000267907GUADALUPE YAZMIN DE LA CRUZ GOMEZ       001001
000000173                992849227350          000000000447817CINTIA PALESTINO PEREZ                  001001
000000174                991498192286          000000000873541SANDRA ANGELES RAMIREZ                  001001
000000175                991547370898          000000000257731ONAN VENTURA CIFUENTES                  001001
000000176                991122138107          000000000447817JUAN ANGEL MARQUEZ GARCIA               001001
000000177                991524509897          000000000644873KARLA MONTSSERRAT GARCIA RAMIREZ        001001
000000178                992622070758          000000000390513VERELISA GUEVARA RUIZ                   001001
000000179                991513512746          000000000267907JOSE FRANCISCO DAVID AGUILAR HERNANDEZ  001001
000000180                991560305972          000000000272907MAYRA TRINIDAD RECOBA                   001001
000000181                991548692084          000000000272907LETICIA ESPINDOLA BAUTISTA              001001
000000182                991547473382          000000000294617GUADALUPE CABRERA REYES                 001001
000000183                991590213678          000000000272907FABIOLA CASTILLO OCAMPO                 001001
000000184                991553147665          000000000294617JAZMIN GALICIA MILLAN                   001001
000000185                991592035972          000000000336118KEVIN JACINTO MACEDO                    001001
000000186                991143212408          000000002029971ANAYANSI BERENICE REYES LOPEZ           001001
000000187                991518883303          000000000447817ERIKA CARRERA ORTEGA                    001001
000000188                991553143384          000000000272907VIANEY JACQUELINE HERNANDEZ AGUILAR     001001
000000189                991516894995          000000000528469UBALDO ROA MENDEZ                       001001
000000190                991145097215          000000000447817LUIS ROBERTO PRADO ESPINOSA             001001
000000191                991529381524          000000000294617ISRAEL LUGO CRUZ                        001001
000000192                992748473277          000000001398078LUIS ALBERTO LOPEZ HERNANDEZ            001001
000000193                992799510311          000000000055130ERIKA NATALIA JARAMILLO HERNANDEZ       001001
000000194                991508992017          000000000272907SUAYAREMI GABRIELA RUIZ CRUZ            001001
000000195                991527789251          000000000294617GERARDO ANTONIO CHAVARRIA CASTILLO      001001
000000196                991532004523          000000000294617LUIS DE JESUS CONSUEGRA PEREZ           001001
000000197                991557134854          000000000272907JORGE ARMANDO LEAL CERVANTES            001001
000000198                991539988061          000000000272907LESLIE SALVADOR ABAD                    001001
000000199                992881291785          000000000272907VERONICA RAMOS HERNANDEZ                001001
000000200                991582381567          000000000447817RAUL CRUZ JAVIER                        001001
000000201                992948672601          000000000416831JUAN FERNANDO DE LA ROSA AVILA          001001
000000202                991554733978          000000000257731MONICA LOPEZ RODRIGUEZ                  001001
000000203                991507564565          000000000294617MARIA EUGENIA ALEJANDRA GARCIA GOMEZ    001001
000000204                991536459711          000000000257731CARLOS EDUARDO ACEVEDO MORALES          001001
000000205                991500690411          000000000150732PAMELA NAYLE BELTRAN GUERRERO           001001
000000206                992988916853          000000000447817OSCAR DAVID DE LOERA SEGUNDO            001001
000000207                991552127733          000000000214574BLANCA ALELI ROSAS DE LOS SANTOS        001001
000000208                991594067897          000000000040280EDGAR SAUL GUEVARA LARA                 001001
000000209                991526573603          000000000483410FREDY HERNANDEZ ESPINOSA                001001
000000210                992759796991          000000000129357IVONNE ANGEL TORREBLANCA                001001
000000211                991531732869          000000000410013LIZBETH CASTILLO ZAMORA                 001001
000000212                991523184533          000000000272907EMMA LUCERO GONZALEZ OSORIO             001001
000000213                991573286358          000000000231240NIURKA YAHAIRA TOVAR MARTINEZ           001001
000000214                991599631804          000000000314355JONATHAN COLUNGA SANTIAGO               001001
000000215                991586826116          000000000272907ARACELI MEDINA RIVERA                   001001
000000216                991532729268          000000000250447KARLA EDNEY HERNANDEZ GARCIA            001001
000000217                991589779259          000000000272907CRISTIAN TEJA PEREZ                     001001
000000218                991528518648          000000000410013MARIO REYNA BARRIOS                     001001
000000219                991534373517          000000000272907YESSICA GONZALEZ PEREZ                  001001
000000220                992715681847          000000000405660JAVIER GONZALEZ NORIEGA                 001001
000000221                991536887127          000000000410660ITZUMY VIRIDIANA CRUZ SALGADO           001001
000000222                991518988045          000000000483410CARLOS ALBERTO RODRIGUEZ CRUZ           001001
000000223                991591530006          000000000294617JULIO CESAR REYES LEON                  001001
000000224                991579096453          000000000294617SONIA LESLIE MENDEZ CASTRO              001001
000000225                991516929288          000000000447817ERICK ARZATE HERNANDEZ                  001001
000000226                991501553879          000000000272907NANCY BERENICE SANCHEZ CANO             001001
000000227                992888975094          000000000294617ALEJANDRO GODOY IBANEZ                  001001
000000228                991514154921          000000000272907ARANDELI ALEJANDRO HERNANDEZ            001001
000000229                991254824865          000000000236284MISAEL RAMIREZ RIOS                     001001
000000230                992735329965          000000000483410SERGIO MEDINA SOTO                      001001
000000231                991544405460          000000000272907JACQUELINE FELICIANO MORALES            001001
000000232                991550310859          000000000314355HILDA GUADALUPE DIAZ PEREZ              001001
000000233                992719336672          000000000759207TANIA ELIZABETH BARAJAS LEZAMA          001001
000000234                991122802341          000000000314355LEOBARDO FRANKLIN OLIVARES HERNANDEZ    001001
000000235                991582140624          000000000336118BLANCA MONICA GUERRERO CASTILLO         001001
000000236                991517649743          000000000314355ANA TERESA REYES ZUNIGA                 001001
000000237                991552970671          000000000294617EDGAR ROMERO ZERMENO                    001001
000000238                991522250376          000000000272907ARIANA PATRICIA AVILA CASTILLO          001001
000000239                991545655706          000000000294617HUGO ENRIQUE MORENO MARTINEZ            001001
000000240                991547854126          000000000272907ERIK EDUARDO SANCHEZ CASTANEDA          001001
000000241                991510517239          000000000294617ISAIAS FELIX PEREZ GUTIERREZ            001001
000000242                991536321014          000000000447817ALINE DEL CARMEN VALDEZ VARGAS          001001
000000243                991540465383          000000000294617SAMANTHA SEVILLA CORDOVA                001001
000000244                991547957656          000000000447817VICTOR LUNA POLO LOPEZ                  001001
000000245                991554965280          000000000447817LUZ ANDREA BARRIENTOS LOPEZ             001001
000000246                991575731164          000000000447817LUIS ALBERTO SEGUNDO ROSAS              001001
000000247                990474173740          000000000410013ROCIO SALCEDO RAMIREZ                   001001
000000248                991565712443          000000000314355BLANCA ARACELI PONCE MARTINEZ           001001
000000249                992995487005          000000000272907CRISTOPHER GARCIA ALVAREZ               001001
000000250                991525738888          000000000294617MANUEL AGUILAR JIMENEZ                  001001
000000251                991524361145          000000000314355DANIELA EBENEZER GONZALEZ ROJAS         001001
000000252                991583989992          000000000272907AXEL LEVY SANCHEZ PEREZ                 001001
000000253                991546829411          000000000272907MARIA DEL CARMEN PACHECO GREGORIO       001001
000000254                991578787860          000000000272907LIZBETH SARAI BALDERAS BRIONES          001001
000000255                991577479169          000000000272907DIANA GONZALEZ MAGANA                   001001
000000256                990476916805          000000000294617JESUS MANUEL CASTRO MONTIEL             001001
000000257                991567044422          000000000240826JOSE LUIS PEREZ RAMIREZ                 001001
000000258                991538091940          000000000272907ANTONIA SARAI CRUZ LUNA                 001001
000000259                991515757908          000000000314355JUAN ESTEBAN HERNANDEZ GONZALEZ         001001
000000260                991560410179          000000000231717KARLA VIANEY CASTILLO RODRIGUEZ         001001
000000261                991531182407          000000000272907EMMANUEL MEDRANO CRUZ                   001001
000000262                991522823088          000000000257731MAURICIO RAMIREZ MENDEZ                 001001
000000263                992851162454          000000000314355CARLOS HERNANDEZ CRUZ                   001001
000000264                991503961963          000000000314355BRAYAN ALEXIS GARCIA SANTIAGO           001001
000000265                991507740839          000000000314355DELFINA GUADALUPE GARCIA VEGA           001001
000000266                991516028672          000000000272907JENIFER BAEZ GUEVARA                    001001
000000267                991518433035          000000000294617ESTEBAN DAMIAN GONZALEZ                 001001
000000268                991528810161          000000000447817LILIA MANUEL FERNANDEZ                  001001
000000269                991548671386          000000000294617TANIA MICHEL SANTOS FLORES              001001
000000270                991543349702          000000000294617GUADALUPE JENIFFER MARTINEZ JIMENEZ     001001
000000271                991525529295          000000000294617ALFONSO ANDRES JIMENEZ                  001001
000000272                991542505395          000000000267907JAVIER ESCOBAR LORA                     001001
000000273                992926744265          000000001064101CELIS FLORA ZARATE PACHECO              001001
000000274                991549139041          000000000331118EVELINE CAROLINA DE LA ROSA VELAZQUEZ   001001
000000275                991550888963          000000000267907TANIA JACQUELINE MORENO HERRERA         001001
000000276                991576016545          000000000144696ALEJANDRO BECERRIL MARTINEZ             001001
000000277                991587264898          000000000331118LUIS IVAN CAMPUZANO HERRERA             001001
000000278                991511100146          000000000331118YANELI JIMENEZ LOPEZ                    001001
000000279                991515387007          000000000272907DANIELA ABIGAIL AMAYA SALVADOR          001001
000000280                991509319775          000000000294617BRAULIO JAFET HERMOSILLO MORENO         001001
000000281                991502001477          000000000267907GLORIA ESTHER HERNANDEZ CHACON          001001
000000282                991536829934          000000000528469EDILBERTO MENDOZA ESPINOSA              001001
000000283                991548165893          000000000267907LUIS ALBERTO MARTINEZ MARTINEZ          001001
000000284                991536655480          000000000528469RODRIGO RIOS MIRANDA                    001001
000000285                991585192610          000000000267907GERARDO MARTINEZ GARCIA                 001001
000000286                991551933368          000000000331118CLAUDIA LIZBETH LEIJA HERNANDEZ         001001
000000287                991548423078          000000000528469NAHUM BERMEO JIMENEZ                    001001
000000288                991584893964          000000000528469ENRIQUE DE JESUS JUAREZ                 001001
000000289                991551158144          000000000289617JUANA GARCIA VASQUEZ                    001001
000000290                992968940754          000000001784703VICTOR HUGO OLMEDO GARCIA               001001
000000291                990466637388          000000000331118MARIA FERNANDA BALDERAS ESPINO          001001
000000292                992798115974          000000000267907ERIKA CARRETO DIEGO                     001001
000000293                991589437480          000000000289617NAYELI ALVAREZ RIVERA                   001001
000000294                991580964363          000000000528469JULIO ARTURO ANASTACIO GARCIA           001001
000000295                991523460085          000000000528469ELIAS SEBASTIAN MARTINEZ CORTES         001001
000000296                991578851144          000000000528469EDUARDO DANIEL PAZ ESTRADA              001001
000000297                991565431594          000000000331118DULCE MARIA MEJIA AVALOS                001001
000000298                991247058195          000000000289617ESPERANZA GUADALUPE HERNANDEZ HERNANDE  001001
000000299                991518431988          000000000267907CONCEPCION MAGALI PONCE ESPINO          001001
000000300                991501444682          000000000289617JUAN OMAR BARCENAS MARQUEZ              001001
000000301                991551944093          000000000267907LEOPOLDO ISRAEL ORDONEZ AGUILAR         001001
000000302                991557638135          000000000280912ARELI ZURITA LOAEZA                     001001
000000303                991557320356          000000000267907JOSE JUAN DURAN LIRA                    001001
000000304                991521966169          000000000309355ARI DANIEL REBOLLAR SANCHEZ             001001
000000305                991242216957          000000000478410ROSARIO LARA RAMIREZ                    001001
000000306                991511134374          000000000289617VIRGINIA MARTINEZ LOPEZ                 001001
000000307                991585353541          000000000267907JOZABED ABISUE CHAIRE HURTADO           001001
000000308                991527751033          000000000267907SAYRA JARED PERALTA MERINO              001001
000000309                991503158376          000000000309355MIGUEL ANGEL MAZATZI NAVA               001001
000000310                991564501937          000000000478410JOSE ANTONIO RAMIREZ NICOLAS            001001
000000311                991528981198          000000000289617CARLOS HIPOLITO ANGULO                  001001
000000312                991552769112          000000000309355ANA GABRIELA ROJO VARGAS                001001
000000313                991546384857          000000000419906ALEJANDRO PEREZ CARDOSO                 001001
000000314                991515256760          000000000309355JESSICA LIZETH REBOLLAR PAZ             001001
000000315                991561673653          000000000267907SOLEDAD GABRIELA PEREZ MARTINEZ         001001
000000316                991547548920          000000000331118JENNY  DEL  ROCIO MORENO GALLARDO       001001
000000317                991131268546          000000000496464CRIZTELA LORENA BUSTOS IBARRA           001001
000000318                991549250182          000000000252823DARINKA MONSERRAT ORTIZ NOVELO          001001
000000319                991552952693          000000000383579CARLOS REYES MENDOZA                    001001
000000320                991552997718          000000000262378ABRAHAM CRUZ LOPEZ                      001001
000000321                991580272698          000000000252823SALVADOR ALEXIS CRUZ OCANA              001001
000000322                991502601458          000000000294617JUANA ALEJANDRA MARTINEZ GLORIA         001001
000000323                991501973654          000000000289617JOSAFATH JOSUE GARCIA CASTILLO          001001
000000324                992691422995          000000000144423OSCAR MADRIGAL GUEVARA                  001001
