100001E0614202165507451972     06142021
2000020906995MARTINEZ                      REZA                RICARDO                       60610582782     000000000000528469
2000030905861BERMUDEZ                      CASTILLO            AURELIO                       56726140672     000000000000367134
2000040905867DE LA CRUZ                    ANTONIO             ANA LAURA                     56737880255     000000000000277078
2000050907539RODRIGUEZ                     VEGA                ALEXIS  MISSAEL               56782480205     000000000000310780
2000060907404HERNANDEZ                     RAMIREZ             ELIZABETH                     56757570072     000000000000331118
2000070907120SALAZAR                       MENDOZA             MIGUEL ANGEL                  56790594381     000000000000331118
2000080906769VALENZUELA                    MATIAS              ALEXANDRA                     56787519700     000000000000285912
2000090906904SALGADO                       GOMEZ               CESAR DANIEL                  56750996203     000000000000331118
2000100906657SCHIETEKAT                    ROSADO              VERONICA SOCORRO              60519857426     000000000001324014
2000110906570CERON                         MUNOZ               LLUVIA LEYDI                  60599015252     000000000000294617
2000120906290SALINAS                       AYALA               ERICK GEOVANNIE               56800713148     000000000000289617
2000130803925NUNEZ                         MARTINEZ            CAROLINA                      56728430444     000000000000954765
2000140905706RAMIREZ                       GARCIA              DAVID                         56772722592     000000000000483410
2000150905831ROSETE                        MONDRAGON           NALLELY GUADALUPE             56809079627     000000000000294617
2000160905560VILLAFUERTE                   LOPEZ               JUAN CARLOS                   60581752850     000000000001324014
2000170904656TELLEZ                        ROMAN               MOISES                        56734530411     000000000000483410
2000180903645KURI                          SHIMIDZU            ALFREDO                       26028452953     000000000000383710
2000190904344HERRERA                       MARTINEZ            HUGO                          25000513983     000000000000272907
2000200904020RAMIREZ                       REYES               CYNTHIA                       60617212110     000000000000272907
2000210903693MAYA                          SANDOVAL            MAYRA                         56755144018     000000000000447817
2000220903114MARQUEZ                       CORONADO            RUBEN                         56723983724     000000000000447817
2000230902179REYES                         VALLE               ANGEL EDUARDO                 56685226085     000000000000447817
2000240903075BARRERA                       ARCIGA              ADRIANA                       60554370277     000000000000835431
2000250902777PEREZ                         MORALES             GABRIELA                      55504067036     000000000000237907
2000260902671RAMIREZ                       FRANCISCO           ALEJANDRO                     60570311478     000000000000272907
2000270901902MARTINEZ                      JAIMES              DANIEL                        60592419594     000000000000410013
2000280302665ALVAREZ                       ESPINOZA            ERIC                          60613067768     000000000000497817
2000290901779RETANA                        ANAYA               YOLANDA                       60602960931     000000000000272907
2000300302646SANCHEZ                       DORANTES            IRMA ROSA                     56760773799     000000000000497817
2000310302612COTE                          ROLON               JOSE LEOPOLDO                 56771876607     000000000000272907
2000320302568PEREGRINA                     VILLASENOR          ALEXANDRA                     20012954509     000000000000410013
2000330302522BARRIOS                       MORALES             RAYMUNDO EDUARDO              60566338582     000000000001324014
2000340302096ALVAREZ                       RAMIREZ             HECTOR PATRIK                 56714577361     000000000000483410
2000350302438YESCAS                        GONZALEZ            RICARDO                       60615313870     000000000000294617
2000360302364RANGEL                        MORA                JOSE MANUEL                   60589931195     000000000000447817
2000370302274OSORIO                        EVANGELISTA         HERNANDO                      60602493120     000000000000528469
2000380302042PAZARAN                       PACHECO             HUGO CESAR                    60616247230     000000000000410013
2000390031108VALDEZ                        MEJIA               LUIS LEONARDO                 56733955028     000000000000528469
2000400301979AGUILAR                       GUTIERREZ           JORDY GEOVANNI                60610494842     000000000000272907
2000410301647BERNABE                       VELAZQUEZ           SUSANA LISSET                 60559148264     000000000000294617
2000420301409AVILA                         VILLEGAS            ILCE                          56679411483     000000000000272899
30004300041000000000019049117
