000000001                991557043937          000000000288545JUANA LOPEZ SANTIS                      001001
000000002                992757734719          000000000288545EDRAY RAMOS MACAL                       001001
000000003                991564142411          000000000288545ENRIQUE RUIZ MELGAR                     001001
000000004                991153249611          000000000288545DANNY UBEL MORENO LAZARO                001001
000000005                991543871676          000000000288545STEPHANIE BERENICE CHI ALCUDIA          001001
000000006                991515871576          000000000288545JUAN DANIEL SUAREZ HERNANDEZ            001001
000000007                991518884843          000000000005000AMALIA ESMERALDA VARELA HERNANDEZ       001001
000000008                991561340514          000000000288545DEY MARINA CABALLERO MARTINEZ           001001
000000009                991505931234          000000000441638LILIANA CAMACHO RAMIREZ                 001001
000000010                991533349678          000000000288545CARLOS MARIO DE LA PIEDRA AGUILAR       001001
000000011                991519855346          000000000240765DIANA LAURA MENDEZ SANTIZ               001001
000000012                991547885134          000000000240765MARTHA DEYSI RUIZ NUNEZ                 001001
000000013                991515825736          000000000288545MIGUEL ANGEL RODRIGUEZ PEREZ            001001
000000014                991493342964          000000000288545KEVIN RICARDO ARGUETA COUTINO           001001
000000015                991590573178          000000000288545VALERIA DEL CARMEN VAZQUEZ GARCIA       001001
000000016                991583142353          000000000288545JOSE LUIS VAZQUEZ HERNANDEZ             001001
000000017                991501550303          000000000288545MARIA ALEJANDRA PENA NUCAMENDI          001001
000000018                991539521219          000000000240765LUIS ARTEMIO SOLIS ACERO                001001
000000019                991556124542          000000000288545REYNALDO DE JESUS HERNANDEZ CORZO       001001
000000020                991537496527          000000000240765MARIANA PALACIOS ARIAS                  001001
000000021                991539924640          000000000288545DAVID GILBERTO ACOSTA BONILLA           001001
000000022                991557889341          000000000288545SANDRA LUCIA NUCAMENDI JIMENEZ          001001
000000023                991577541406          000000000240765BRENDA JIMENEZ CAMACHO                  001001
000000024                991562196934          000000000240765LUCRECIA FAVIOLA ZUNIGA GOMEZ           001001
000000025                991170447404          000000000288545JUAN JOSE HERNANDEZ JIMENEZ             001001
000000026                991555111595          000000000309645VIRGILIO HERNANDEZ PEREZ                001001
000000027                991576677374          000000000058482IRAN ROMEO GARCIA PEREZ                 001001
000000028                991508691986          000000000288545ITZEL ASENCIO CASTILLO                  001001
000000029                991553068927          000000000288545JOSE GUADALUPE DE LA CRUZ SANCHEZ       001001
000000030                991591890894          000000000288545CRISTAMELINA MUNIVE SANTOS              001001
000000031                991551900420          000000000288545DIMAS JOSUE COUTINO DE PAZ              001001
000000032                991590997393          000000000288545ALFONSO PEREZ DE LA CRUZ                001001
000000033                991569803893          000000000240765FLOR YASMIN PEREZ CERVANTES             001001
000000034                991525219523          000000000240765PATRICIA SANCHEZ DE LA CRUZ             001001
000000035                991543857232          000000000288545PEDRO DE LA CRUZ GOMEZ                  001001
000000036                991529477520          000000000389851CUAUHTEMOC DONOVAN VAZQUEZ QUINTO       001001
000000037                991178808147          000000000240267VERONICA SANTIZ LOPEZ                   001001
000000038                991552982245          000000000288538WILBERT ANTONIO TOLEDO SANCHEZ          001001
000000039                992979766863          000000000791632GRISSELL NICTE HA POOT KITUC            001001
000000040                991177751028          000000000564659MIGUEL ANGEL MONTALVO QUINONES          001001
000000041                991523539811          000000000227995GEORGE MICHAEL MARROQUIN GOMEZ          001001
000000042                991543012557          000000000227882VILAS MAURICIO GOMEZ ENRIQUEZ           001001
000000043                992856544630          000000000469394ARTEMIO DE JESUS JIMENEZ DIAZ           001001
000000044                991587620322          000000000288545DAVID DE JESUS JIMENEZ GUTIERREZ        001001
000000045                991541632828          000000000288545SANDY YUSETH GOMEZ ESCOBAR              001001
000000046                991559033354          000000000288545LEONARDO DAVID ESPONDA CERVANTES        001001
000000047                991533712845          000000000240765KAREN ROSALINDA DIAZ MORALES            001001
000000048                991570756482          000000000288545NOEL AARON BAMACA GONZALEZ              001001
000000049                991578237967          000000000138495MIGUEL HERNANDEZ HERNANDEZ              001001
000000050                991555204119          000000000081425ISRAEL CHABLE MAGANA                    001001
000000051                991515351251          000000000464880CARIME COLORADO SOTO                    001001
000000052                991542883899          000000000564626JOSE LUIS GALDAMEZ PEREZ                001001
000000053                991561258532          000000000091131LUIS GUSTAVO SANCHEZ MORALES            001001
000000054                991572955210          000000000435909EDUARDO CASTANEDA MARIN                 001001
000000055                991541212613          000000000392980ALONDRA PEREZ ARCHILA                   001001
000000056                992799200975          000000000288530BRENDA IVONNE PEREZ SANCHEZ             001001
000000057                991512982587          000000000240749VANESSA OCHOA GARCIA                    001001
000000058                991553866912          000000000240749YONENDY HERNANDEZ CALDERON              001001
000000059                991530390275          000000000309634ALFREDO RODRIGUEZ ROQUE                 001001
000000060                991536466532          000000000288530ZURI SADAI GUTIERREZ DOMINGUEZ          001001
000000061                992866091490          000000000426642MADIOLIDETH GRAJALES TOALA              001001
000000062                991547442165          000000000240725WENDY JANETH ANGEL MORENO               001001
000000063                991541637940          000000000037365MARTHA ELENA AGUILAR DIAZ               001001
000000064                991520085545          000000000552137JUAN CARLOS HERNANDEZ ALVAREZ           001001
000000065                992710556238          000000000686951MAILIN PEREZ PEREZ                      001001
000000066                992990647136          000000000288514JAZMIN TOLEDO HERNANDEZ                 001001
000000067                992994888790          000000000343461TANIA JACQUELINE FARRERA CHACON         001001
000000068                991506511821          000000000230094MARIA LIDIA SANCHEZ MACAL               001001
000000069                992884829921          000000000335995ULISES CAMACHO MARROQUIN                001001
000000070                992897968256          000000000191676MISAEL PEREZ SANTOS                     001001
000000071                992915631734          000000000177983DAVID SALINAS DE LOS SANTOS             001001
000000072                991547044801          000000000309618JORGE LUIS GUTIERREZ SANCHEZ            001001
000000073                992896191762          000000000564564CARLOS FERNANDO GARCIA MARTINEZ         001001
000000074                992757734425          000000000309618EDUARDO HERNANDEZ REYES                 001001
000000075                991544999991          000000000472541MARCOS GENAREZ AGUILAR                  001001
000000076                991123619680          000000000564564HUGO DELIS MOLINA GUTIERREZ             001001
000000077                992976083161          000000000304626JOSE GUADALUPE DE LA CRUZ VILLEGAS      001001
000000078                991147094663          000000000197574ISRAEL CLEMENTE LOPEZ                   001001
000000079                991142530457          000000000288521MONICA VIRIDIANA HERNANDEZ LOPEZ        001001
000000080                991135405521          000000000288521VICENTE MIGUEL COUTINO GONZALEZ         001001
000000081                992973633527          000000000257678JUAN ANTONIO ESCOBAR VILLATORO          001001
000000082                991501832735          000000000327696BERTHA JUDITH ESPINOZA TORRES           001001
000000083                991530134562          000000000230110JOSEFA MAGDALENA MARTINEZ TRUJILLO      001001
000000084                991137355343          000000000230094ELIDIA ROMERO VERA                      001001
000000085                991502095661          000000000240732ISIDRO DIONICIO HERNANDEZ SANCHEZ       001001
000000086                991140583227          000000000230094LUCIA ALVAREZ PEREZ                     001001
000000087                992847259301          000000000564564CONCEPCION GUADALUPE VELASCO PEREZ      001001
000000088                991160425141          000000000475490FELIPE DE JESUS CAMACHO CRUZ            001001
000000089                992932625075          000000000784544YAZMIN GUADALUPE TOLEDO CHACON          001001
000000090                991122741946          000000000644442CANDELARIA HERNANDEZ PEREZ              001001
000000091                991592793052          000000000314457MARITZA GOMEZ RODRIGUEZ                 001001
