100001E0415202165505074061     04152021
2000020080091LAZARO                        GUTIERREZ           ISABEL VERONICA               60612246033     000000000000260769
2000030080327CASTELLANOS                   MENDOZA             ANGELA                        56655759055     000000000000090168
2000040080140SANCHEZ                       GONZALEZ            CARLOS                        60567491418     000000000000295165
2000050080147HERNANDEZ                     LOPEZ               TERESA DE JESUS               60580202641     000000000000564564
2000060080928NANDAYAPA                     NURIULU             GEOVANY ALEXANDER             60609052068     000000000000042175
2000070080822PEREZ                         JIMENEZ             DANIEL                        60604516957     000000000000223355
2000080080960MORENO                        CANTO               JOSE BERNARDO                 56783893068     000000000000231008
2000090081057MONTOYA                       GOMEZ               FREDY ALONSO                  20011718013     000000000000288545
2000100081029MORALES                       GOMEZ               SILVIA GUADALUPE              60603473859     000000000000240765
2000110903904AVALOS                        GARCIA              MARCOS DAVID                  56778111702     000000000000288545
2000120904159ESTRADA                       GALLEGOS            ANGELICA MARISOL              60614495408     000000000000000149
2000130904306MENDEZ                        HERNANDEZ           TERESA DE JESUS               56755759947     000000000000288545
2000140904286LOPEZ                         ESTEBAN             ALFONSO                       20012843223     000000000000288545
30001500013000000000003102298
