000000001                990137698829          000000000170028CLAUDIA ZUNIGA ALTAMIRANO               001001
000000002                990217942585          000000000587725MARIA GABRIELA MANZO LORENZO            001001
000000003                990166454963          000000000221845ERNESTO ENRIQUE AGUILAR SOLIS           001001
000000004                990166839954          000000000341098MARIA DE LOURDES ORTEGA HERNANDEZ       001001
000000005                990262719277          000000000282857ADRIAN TOLEDO SANTOS                    001001
000000006                990251382599          000000000580396JAVIER PERALTA ROJAS                    001001
000000007                990213496602          000000000216556MARIANITO DE JESUS GARCIA ROBLES        001001
000000008                990216660209          000000000528346ADRIANA RUBIO LOPEZ                     001001
000000009                990165561715          000000000401904JORGE ALBERTO MARTINEZ SILVAS           001001
000000010                990170726196          000000000469033SAMUEL QUINTANILLA HERNANDEZ            001001
000000011                990329622567          000000000314331DANIEL MAYORAL MURAKAHUA                001001
000000012                990391627737          000000000228902LIZBETH MORENO GONZALEZ                 001001
000000013                990392059732          000000000303758JUAN ARTURO HIDALGO RIOS                001001
000000014                990088960724          000000000080285GUADALUPE PENA MADARIAGA                001001
000000015                990246151538          000000000272907ROBERTO CARLOS GOMEZ MORENO             001001
000000016                990455508559          000000000272907JUAN JOSE RUIZ CABALLERO                001001
000000017                990436153111          000000000272907EDUARDO VERDUGO MAZARIEGOS              001001
000000018                990421420784          000000000272907JULIO CESAR TOVILLA ZAMUDIO             001001
000000019                990448921289          000000000059977GARY JONATAN AGUILAR MORGAN             001001
000000020                990451679367          000000000314355RITO CONCEPCION OCHOA MARTINEZ          001001
000000021                990419078017          000000000272907MARCO ANTONIO BRAVO LORENZO             001001
000000022                992946437605          000000000272907HENRY JIMENEZ CASTELLANOS               001001
000000023                991534735024          000000000272907JOSE ANGEL RAMOS MENDOZA                001001
000000024                991504839148          000000000272907CARLOS ALBERTO ALVARADO ARRIAGA         001001
000000025                991593555334          000000000272907XIMENA PAOLA ESCOBAR BARRIOS            001001
000000026                991504719941          000000000272907CESAR FABIAN MARTINEZ CRUZ              001001
000000027                991161397567          000000000267907DULCE KARINA DE JESUS CEJEDA            001001
000000028                991500928801          000000000272907GABRIELA DE LOS SANTOS CUETO            001001
000000029                991591713802          000000000136541JOSE MARIA CABALLERO HILERIO            001001
000000030                991511828700          000000000066578JORGE ANTONIO CUNDAPI GONZALEZ          001001
000000031                991538306390          000000000272907LESLY YESSENIA CALDERON TOLEDO          001001
000000032                991504839204          000000000272907HECTOR ANSELMO MEJIA LOPEZ              001001
000000033                991536059543          000000000272907LUIS EDUARDO ROSALES GOMEZ              001001
000000034                991531717960          000000000272907FRANCISCO ALFONSO CORONA DE LA ROSA     001001
000000035                992986025153          000000000272907JOSE LUIS PALACIOS MORALES              001001
000000036                991526160215          000000000272907ROXANA JACQUELINE TOVILLA MOLINA        001001
000000037                992968879249          000000000294617JOSE DANIEL MORALES DE LEON             001001
000000038                991549073453          000000000533419GERSON GONZALEZ DOMINGUEZ               001001
000000039                991527234573          000000000294617SHALOM NISSI HERNANDEZ CASTELLANOS      001001
000000040                991589745401          000000000294617PABLO ALEXIS BECERRA PACHECO            001001
000000041                991566444385          000000000294617BERTONY ALDAIR MONZON PEREZ             001001
000000042                991544216451          000000000272907BIRSI CAREMI DOMINGO BARTOLON           001001
000000043                991495354498          000000001069051FRANCISCO ANSELMO BRINGAS MEDA          001001
000000044                991523683233          000000000272907LUIS ANGEL DOMINGUEZ VELAZQUEZ          001001
000000045                991581088173          000000000272907MARCO ANTONIO GARCIA ORDONEZ            001001
000000046                992669508538          000000000228909GLADICELA DE LOS SANTOS CAMAS           001001
000000047                991563996690          000000000294624LUIS ENRIQUE COTA RODRIGUEZ             001001
000000048                991579405011          000000000181125MARIA ALBINA LOPEZ DE LA ROSA           001001
000000049                991570638242          000000000272907MANUEL LOPEZ AMORES                     001001
000000050                992977741030          000000000035778HECTOR ALBERTO CONSUEGRA PEREZ          001001
000000051                991562810835          000000000272907DIANA ANAHI HERNANDEZ RUIZ              001001
000000052                992894056043          000000000272907JUAN CARLOS SOLIS TADEO                 001001
000000053                991583172247          000000000272907JONATHAN JUAREZ Y JUAREZ                001001
000000054                991510445196          000000000272907CARLO ALAN LEY CRUZ                     001001
000000055                991567187084          000000000249503JONATHAN CABALLERO VENTURA              001001
000000056                991575811554          000000000201031JAIRO OBET ROJAS DE LA CRUZ             001001
000000057                991170325392          000000000272907JESUS ANTONIO CONTRERAS GONZALEZ        001001
000000058                991506780894          000000000165189ISMAEL LOPEZ MATIAS                     001001
000000059                991537650515          000000000272907AMADA GUADALUPE PEREZ CANCINO           001001
000000060                991562695804          000000000140321ABRAHAM OSORIO LOPEZ                    001001
000000061                991581965525          000000000272907EMELIDA MATEO MARROQUIN                 001001
000000062                992880025577          000000000272907FERNANDO RENE GONZALEZ JEREZ            001001
000000063                991546245366          000000000272907YESICA PAZ VERDUGO                      001001
000000064                991526634294          000000000228909TANIA CAROLA HERNANDEZ ZACARIAS         001001
000000065                991535646696          000000000172705HEYNNER ALEXANDER FIGUEROA VILLALBA     001001
000000066                991128539375          000000000020789RAMON DE JESUS MARTINEZ APARICIO        001001
000000067                991528144276          000000000007561OBET ENRIQUE ARREOLA TRINIDAD           001001
000000068                991502891414          000000000294624LENING HERNANDEZ NUNEZ                  001001
000000069                991532708671          000000000272899ALEJANDRA CABRERA VILLAREAL             001001
000000070                992852795604          000000000272907ELVIS YOAN SANCHEZ ORTIZ                001001
000000071                991522249972          000000000152206BERTHA RODHE DE LEON HERNANDEZ          001001
000000072                991534907064          000000000216999YADIRA VELAZQUEZ SERENO                 001001
000000073                991510945831          000000000203200JAIRO JUAREZ ESTEBAN                    001001
000000074                991126653790          000000000421838MONICA VEGA CHIRINO                     001001
000000075                992787366590          000000000228902PAOLA PEREZ RUIZ                        001001
000000076                992893152448          000000000301266ILSE JANETH CEH CRUZ                    001001
000000077                992853898407          000000000144815MARCO ANTONIO MORALES ESPINOZA          001001
000000078                991506366808          000000000001627JORGE ENRIQUE DOMINGUEZ CRUZ            001001
000000079                991482124440          000000000272893VALERIA HILERIO RIVERA                  001001
000000080                991546248691          000000000228896RUTH ESTHER ANTONIO ZARATE              001001
000000081                991151593188          000000000459479BRENDA PAOLA BRAVO CASTELLANOS          001001
000000082                991504287391          000000000272893FABIOLA DAMARI HERNANDEZ ESPINOSA       001001
000000083                991559774254          000000000431773GABRIEL VAZQUEZ AGUILAR                 001001
000000084                992985927390          000000000272899FABIOLA ESQUINCA CAMAS                  001001
000000085                991149952829          000000000633395MARICELA PEREZ MENDEZ                   001001
000000086                992677746237          000000000314347FERNANDO DOMINGUEZ PASCACIO             001001
000000087                991132998386          000000000336102ROSA LILIA DIAZ CRUZ                    001001
000000088                991130015512          000000000218940ANABELL VELAZQUEZ LOPEZ                 001001
000000089                991516733934          000000000589403CARLOS EDUARDO CAMPOS ORDONEZ           001001
000000090                991141348299          000000000218926FRIDAICE CHEVEZ MEZA                    001001
000000091                991175281245          000000000218926BLANCA ELIDIA DIEGO CASTRO              001001
000000092                991517022813          000000000174209ERIK IVAN DE LA CRUZ SALINAS            001001
000000093                991138302227          000000000444780YANET MENDOZA VELAZQUEZ                 001001
000000094                992879168923          000000000272879YOANA ONEYDI VELAZQUEZ GONZALEZ         001001
000000095                992883433773          000000000268528ZOILA YANETH MALDONADO ESCOBAR          001001
000000096                991166153186          000000000279632CATALINA DE LA CRUZ VELAZQUEZ           001001
000000097                992898931348          000000000253684JOSE ALBERT RAMIREZ MARINA              001001
000000098                991436227392          000000000213933MARIA MAGDALENA VILLATORO DE LOS SANTOS 001001
000000099                992886394337          000000000272893SAIRA CHIRINO HERNANDEZ                 001001
000000100                992903784665          000000000579149XOCHITL CITLALI SANCHEZ GUILLEN         001001
000000101                991516190604          000000000533346MAGDALENA RODRIGUEZ LOPEZ               001001
000000102                990614274939          000000000403568JAIRO ELI ROBLERO RAMIREZ               001001
000000103                996627224260          000000000515352EDREY VAZQUEZ OSORIO                    001001
000000104                996641625766          000000000453572JUAN CARLOS JIMENEZ ALBOREZ             001001
000000105                990601045488          000000000171314WENDY PATRICIA AGUILAR ROBLERO          001001
000000106                996681190087          000000000448323FRANCISCO ANTONIO MORALES VAZQUEZ       001001
000000107                996727100752          000000000228909CLAUDIA PATRICIA VELAZQUEZ TRUJILLO     001001
000000108                990602258037          000000000223483DENIZ KAZUMY PARRA MALDONADO            001001
000000109                996795674632          000000000272907JAIME ANTONIO FUENTES GUTIERREZ         001001
000000110                990615911171          000000000272907JULIO FERNANDO MORENO HERNANDEZ         001001
000000111                996799683974          000000000272907GUSTAVO HERNANDEZ RAMIREZ               001001
000000112                990563447632          000000000272907JAVIER IVAN CRUZ OLIVERA                001001
000000113                995002154842          000000000272907MARILI FABIOLA LOPEZ LOPEZ              001001
000000114                990613265670          000000000214574KEVIN BRANDON LOPEZ VELASCO             001001
000000115                995000332071          000000000272907GUADALUPE RAMOS AHUMADA                 001001
000000116                990295780625          000000000364004NISSIN TSUYOSHY FARCHI NAKAMURA         001001
000000117                990528262052          000000000294611YESENIA GUADALUPE CRUZ MENDEZ           001001
000000118                990485195673          000000000146147MARTHA CLARA GOMEZ DIAZ                 001001
000000119                990434438417          000000000402366CARLOS ALFONSO CHOY GERARDO             001001
000000120                990848492708          000000000359978ROSARIO DE JESUS VERDUGO BRAVO          001001
000000121                990335645134          000000000205166IVETTE HERNANDEZ ROSALES                001001
000000122                990326225598          000000000236102KARLA PATRICIA AGUIRRES FERNANDEZ       001001
000000123                990485196821          000000000143294DULCE MARIA FLORES HERRERA              001001
000000124                990495797825          000000000204098GABRIEL GARCIA CASTRO                   001001
000000125                991029392266          000000000171280GUSTAVO ALEXIS MENDEZ GARCIA            001001
000000126                991105703083          000000000171666LUIS MARIO HERNANDEZ MAZARIEGOS         001001
000000127                991117664598          000000000272907JESUS ALFREDO MAZARIEGOS FONG           001001
000000128                991131456146          000000000236107ALEJANDRO DOMINGUEZ CISNEROS            001001
000000129                991120725592          000000000272907LILIANA GUADALUPE DAMIAN CORTEZ         001001
