10001068587472502210001ASESORES EN ADMINISTRACION Y SERVICCNOMINA 25022021     05                                        C00
2100100000000000646593101700900000000000004522887
300010000000000001700280100000000090137698829                              0000070047CLAUDIA ZUNIGA ALTAMIRANO                              NOMINA                                                          0000       00
300010000000000005877250100000000090217942585                              0000070063MARIA GABRIELA MANZO LORENZO                           NOMINA                                                          0000       00
300010000000000002218450100000000090166454963                              0000070074ERNESTO ENRIQUE AGUILAR SOLIS                          NOMINA                                                          0000       00
300010000000000003410980100000000090166839954                              0000070081MARIA DE LOURDES ORTEGA HERNANDEZ                      NOMINA                                                          0000       00
300010000000000002828570100000000090262719277                              0000070084ADRIAN TOLEDO SANTOS                                   NOMINA                                                          0000       00
300010000000000005803960100000000090251382599                              0000070090JAVIER PERALTA ROJAS                                   NOMINA                                                          0000       00
300010000000000002165560100000000090213496602                              0000070100MARIANITO DE JESUS GARCIA ROBLES                       NOMINA                                                          0000       00
300010000000000005283460100000000090216660209                              0000070107ADRIANA RUBIO LOPEZ                                    NOMINA                                                          0000       00
300010000000000004019040100000000090165561715                              0000070193JORGE ALBERTO MARTINEZ SILVAS                          NOMINA                                                          0000       00
300010000000000004690330100000000090170726196                              0000070196SAMUEL QUINTANILLA HERNANDEZ                           NOMINA                                                          0000       00
300010000000000003143310100000000090329622567                              0000070228DANIEL MAYORAL MURAKAHUA                               NOMINA                                                          0000       00
300010000000000002289020100000000090391627737                              0000070478LIZBETH MORENO GONZALEZ                                NOMINA                                                          0000       00
300010000000000003037580100000000090392059732                              0000070626JUAN ARTURO HIDALGO RIOS                               NOMINA                                                          0000       00
300010000000000000802850100000000070088960724                              0000070636GUADALUPE PENA MADARIAGA                               NOMINA                                                          0000       00
300010000000000002729070100000000090246151538                              0000070777ROBERTO CARLOS GOMEZ MORENO                            NOMINA                                                          0000       00
300010000000000002729070100000000090455508559                              0000070861JUAN JOSE RUIZ CABALLERO                               NOMINA                                                          0000       00
300010000000000002729070100000000090436153111                              0000070976EDUARDO VERDUGO MAZARIEGOS                             NOMINA                                                          0000       00
300010000000000002729070100000000090421420784                              0000070982JULIO CESAR TOVILLA ZAMUDIO                            NOMINA                                                          0000       00
300010000000000000599770100000000090448921289                              0000901820GARY JONATAN AGUILAR MORGAN                            NOMINA                                                          0000       00
300010000000000003143550100000000090451679367                              0000902877RITO CONCEPCION OCHOA MARTINEZ                         NOMINA                                                          0000       00
300010000000000002729070100000000090419078017                              0000903303MARCO ANTONIO BRAVO LORENZO                            NOMINA                                                          0000       00
4001000021000000000006465931000001000000000006465931
