65505232207     012244011376928549  BACOMLAURA ADRIANA GARCIA FLORES             100100000000008248501001NOMINA                                                                                                                            0000001
65505232207     012225029591594879  BACOMCARLOS ALFREDO PEREZ VILLA              100100000000050018601001NOMINA                                                                                                                            0000002
65505232207     012320027504863614  BACOMALEJANDRA YANETH FLORES SIFUENTES       100100000000069011401001NOMINA                                                                                                                            0000003
65505232207     012320027907099991  BACOMELIZABETH HERNANDEZ CASTELLANOS         100100000000014122901001NOMINA                                                                                                                            0000004
65505232207     012225015094927588  BACOMMA DE LOURDES CAUDILLO VAZQUEZ          100100000000010812901001NOMINA                                                                                                                            0000005
65505232207     012320028681544570  BACOMESTHER DEL ROCIO ARELLANO OCAMPO        100100000000023373201001NOMINA                                                                                                                            0000006
65505232207     012320028953248151  BACOMALEJANDRA MONSIVAIS CHAVEZ              100100000000027640301001NOMINA                                                                                                                            0000007
65505232207     012506014053654732  BACOMCARMEN MIROSLAVA HURTADO RUEDA          100100000000022266801001NOMINA                                                                                                                            0000008
65505232207     012528015266658887  BACOMJEANNETE AMAIREANI ROMERO CERDA         100100000000067106201001NOMINA                                                                                                                            0000009
65505232207     012528004702946679  BACOMGUSTAVO ALONSO RODRIGUEZ PEREZ          100100000000017187301001NOMINA                                                                                                                            0000010
65505232207     012375011609001840  BACOMIVONNE JAZMIN GONZALEZ HERNANDEZ        100100000000033971701001NOMINA                                                                                                                            0000011
65505232207     012476015292783140  BACOMMARIA DE JESUS PAZ ESPINOZA             100100000000036533301001NOMINA                                                                                                                            0000012
65505232207     012320028462929178  BACOMKALEP EFRAIN MATA ORTIZ                 100100000000006916701001NOMINA                                                                                                                            0000013
65505232207     012498028396753025  BACOMRUBEN OMAR RAMIREZ CORREA               100100000000100048001001NOMINA                                                                                                                            0000014
65505232207     012497015108894746  BACOMMARIA GUADALUPE GALLO LUVIANO           100100000000029820101001NOMINA                                                                                                                            0000015
65505232207     012225015048034508  BACOMLUIS MIGUEL MENDOZA GONZALEZ            100100000000026506301001NOMINA                                                                                                                            0000016
65505232207     012215015800976199  BACOMPAULA LIDIA MEDINA ALVARADO             100100000000009920101001NOMINA                                                                                                                            0000017
65505232207     012528028717870473  BACOMERICK EDUARDO URIBE MARTINEZ            100100000000025620801001NOMINA                                                                                                                            0000018
65505232207     012528011457879631  BACOMROLANDO ARTEMIO RAMIREZ SERENO          100100000000022067601001NOMINA                                                                                                                            0000019
65505232207     012180015261964655  BACOMJOSEFINA DOMINGUEZ RAMIREZ              100100000000041712101001NOMINA                                                                                                                            0000020
65505232207     012320015281627431  BACOMMIGUEL ANGEL BAEZA OCHOA                100100000000024660101001NOMINA                                                                                                                            0000021
65505232207     012282015260310564  BACOMCECILIA PEREZ BARRON                    100100000000033972601001NOMINA                                                                                                                            0000022
65505232207     012320015460102968  BACOMROSA MENDOZA CASTILLO                   100100000000019854301001NOMINA                                                                                                                            0000023
65505232207     012320011509484622  BACOMSAUL ROMERO GONZALEZ                    100100000000047646901001NOMINA                                                                                                                            0000024
65505232207     012760014717582766  BACOMDENNIA ALEJANDRA ARELLANO SANCHEZ       100100000000076176201001NOMINA                                                                                                                            0000025
65505232207     012180027100279017  BACOMAMERICA SAMANTHA MUNOZ CUEVAS           100100000000036362401001NOMINA                                                                                                                            0000026
65505232207     012320029481074757  BACOMJOSE ANGEL CERVANTES PRECIADO           100100000000026142401001NOMINA                                                                                                                            0000027
65505232207     012225015003045422  BACOMARTURO RODRIGUEZ RAMIREZ                100100000000033972601001NOMINA                                                                                                                            0000028
65505232207     012476015074024687  BACOMJASMIN GONZALEZ BARRERA                 100100000000022592001001NOMINA                                                                                                                            0000029
65505232207     012215027070391741  BACOMELSA ELENA ESQUIVEL PICHARDO            100100000000022179201001NOMINA                                                                                                                            0000030
65505232207     012560014575937245  BACOMXITLALLI ANDRESILLO LLAMAS              100100000000029323501001NOMINA                                                                                                                            0000031
65505232207     012320015656651676  BACOMANA KARINA DIAZ MORALES                 100100000000006243401001NOMINA                                                                                                                            0000032
65505232207     012180015733343173  BACOMMARIA DE LOS ANGELES DIAZ JIMENEZ       100100000000031797201001NOMINA                                                                                                                            0000033
65505232207     012180015743075855  BACOMGLORIA LISETH HERNANDEZ CAYETANO        100100000000003970101001NOMINA                                                                                                                            0000034
65505232207     012180015506720680  BACOMANA MARIA SAMANO PARADA                 100100000000019854301001NOMINA                                                                                                                            0000035
65505232207     012497015736411711  BACOMAZUCENA SANDOVAL MAXIMINO               100100000000031796501001NOMINA                                                                                                                            0000036
65505232207     012528011599908871  BACOMMARTHA ARCELIA VAZQUEZ ORTEGA           100100000000012334801001NOMINA                                                                                                                            0000037
65505232207     012180015577142970  BACOMVANESSA GUADALUPE CEJA TORRES           100100000000041303501001NOMINA                                                                                                                            0000038
65505232207     012240026713413321  BACOMMARIA DEL CARMEN RANGEL RODRIGUEZ       100100000000020244501001NOMINA                                                                                                                            0000039
65505232207     012244015585823512  BACOMFRANCISCO TORRES CAUDILLO               100100000000028346101001NOMINA                                                                                                                            0000040
65505232207     012227015053292485  BACOMMARCO ANTONIO LEDESMA HERNANDEZ         100100000000036050801001NOMINA                                                                                                                            0000041
65505232207     012180015828299598  BACOMMARISOL HERNANDEZ DIAZ                  100100000000049647201001NOMINA                                                                                                                            0000042
65505232207     012180015859856094  BACOMCARLOS SILVA JIMENEZ                    100100000000038794301001NOMINA                                                                                                                            0000043
65505232207     012180015864111423  BACOMMARIA GUADALUPE ARENAS REYES            100100000000025621401001NOMINA                                                                                                                            0000044
65505232207     012506015660996963  BACOMMARIA DE LA SALUD GUZMAN AYALA          100100000000012965601001NOMINA                                                                                                                            0000045
65505232207     012180015105417996  BACOMDIANA IRIS MARQUINA MARTINEZ            100100000000033973401001NOMINA                                                                                                                            0000046
65505232207     012528029682177501  BACOMANA ROSA PARDO GONZALEZ                 100100000000064751301001NOMINA                                                                                                                            0000047
65505232207     012248004684477216  BACOMSUSANA VARGAS FLORES                    100100000000018141001001NOMINA                                                                                                                            0000048
65505232207     012215015538378263  BACOMJORGE ALEJANDRO CAZARES MONTOYA         100100000000031795501001NOMINA                                                                                                                            0000049
65505232207     012476015205766824  BACOMMINERVA DEL CARMEN ESPINOZA GOMEZ       100100000000029826001001NOMINA                                                                                                                            0000050
65505232207     012528015021315637  BACOMROSA HILDA WALDO HERRERA                100100000000029824201001NOMINA                                                                                                                            0000051
65505232207     012261015259724454  BACOMMARIBEL RUIZ PARRA                      100100000000024468901001NOMINA                                                                                                                            0000052
65505232207     012277028911709963  BACOMSANDRA SANCHEZ MONTES                   100100000000031298001001NOMINA                                                                                                                            0000053
65505232207     012497015008631300  BACOMALMA ESTHER LOPEZ GUZMAN                100100000000000163401001NOMINA                                                                                                                            0000054
65505232207     012375015768784855  BACOMDORILIAN ESTRADA SANCHEZ                100100000000031796401001NOMINA                                                                                                                            0000055
65505232207     012476015217283049  BACOMMIGUEL ANGEL VILLANUEVA GARCIA          100100000000029824201001NOMINA                                                                                                                            0000056
65505232207     012180015516972114  BACOMMONICA PALACIOS SANCHEZ                 100100000000025621701001NOMINA                                                                                                                            0000057
65505232207     012476028810326905  BACOMRAUL CRUZ GARCIA                        100100000000027808001001NOMINA                                                                                                                            0000058
65505232207     012180015023512290  BACOMMARIA GUADALUPE SANDOVAL AYALA          100100000000022540201001NOMINA                                                                                                                            0000059
65505232207     012222029358640891  BACOMFELIX GUILLERMO CONTRERAS ELIAS         100100000000026050401001NOMINA                                                                                                                            0000060
65505232207     012222012143322027  BACOMOMAR PEREZ CAMACHO                      100100000000031796401001NOMINA                                                                                                                            0000061
65505232207     012180015947076414  BACOMFIDEL ALTAMIRANO JUAREZ                 100100000000030152401001NOMINA                                                                                                                            0000062
65505232207     012535015355771396  BACOMIGNACIO ALVAREZ HERNANDEZ               100100000000029824901001NOMINA                                                                                                                            0000063
65505232207     012508015898287138  BACOMMARIA DEL ROSARIO APOLONIO ALEJO        100100000000003500101001NOMINA                                                                                                                            0000064
65505232207     012320015334508724  BACOMCARLOS HUMBERTO PADILLA ORTIZ           100100000000071985801001NOMINA                                                                                                                            0000065
65505232207     012215029803359835  BACOMSANDRA ALEXIS PUCH CHAY                 100100000000006038601001NOMINA                                                                                                                            0000066
65505232207     012535015570342102  BACOMMARIA DEL CARMEN VAZQUEZ AYALA          100100000000012966201001NOMINA                                                                                                                            0000067
65505232207     012180015287595817  BACOMGUSTAVO OREGEL ORTA                     100100000000019320901001NOMINA                                                                                                                            0000068
65505232207     012180015498305566  BACOMOMAR MARTINEZ CONTRERAS                 100100000000031798001001NOMINA                                                                                                                            0000069
65505232207     012180015633695390  BACOMBENIGNO MAGALLAN TINOCO                 100100000000027616801001NOMINA                                                                                                                            0000070
65505232207     012261015482633561  BACOMLUIS ALEJANDRO LUDWIG SEVILLA           100100000000029324201001NOMINA                                                                                                                            0000071
65505232207     012180015266634126  BACOMLUIS ANGEL CARRILLO RODRIGUEZ           100100000000033975401001NOMINA                                                                                                                            0000072
65505232207     012180015688132727  BACOMOSCAR DANIEL DORADO GARCIA              100100000000020015801001NOMINA                                                                                                                            0000073
65505232207     012528015659393720  BACOMMARIA GUADALUPE GONZALEZ SANDOVAL       100100000000020367301001NOMINA                                                                                                                            0000074
65505232207     012320029035460717  BACOMJESUS ENRIQUE MIRANDA SICOURET          100100000000011851301001NOMINA                                                                                                                            0000075
65505232207     012470014045850971  BACOMADRIAN TELLEZ ZACARIAS                  100100000000031798001001NOMINA                                                                                                                            0000076
65505232207     012180015894038877  BACOMLISSETH MONSERRAT SALAS MILANES         100100000000028953701001NOMINA                                                                                                                            0000077
65505232207     012320015453235871  BACOMPABLO ALFONSO CORTES HERNANDEZ          100100000000033974301001NOMINA                                                                                                                            0000078
65505232207     012535014396338553  BACOMHORACIO ALEJANDRO GARCIA PEREZ          100100000000007949401001NOMINA                                                                                                                            0000079
65505232207     012528015760345861  BACOMLUIS FERNANDO GARCIA BENAVIDES          100100000000039038001001NOMINA                                                                                                                            0000080
65505232207     012180015833858872  BACOMIVAN LAUREL ZAVALA                      100100000000025621701001NOMINA                                                                                                                            0000081
65505232207     012528015853157128  BACOMKARINA EDITH MARIN HERNANDEZ            100100000000005007201001NOMINA                                                                                                                            0000082
65505232207     012232029960038771  BACOMALEJANDRA DE JESUS SILVA FLORES         100100000000031296401001NOMINA                                                                                                                            0000083
65505232207     012180015938621548  BACOMALAN MOISES ORTEGA NIEVES               100100000000025621701001NOMINA                                                                                                                            0000084
65505232207     012277015486599747  BACOMDULCE ELENA JIMENEZ TAPIA               100100000000053320201001NOMINA                                                                                                                            0000085
65505232207     012222004727748954  BACOMLIZBETH DANIELA MARTINEZ MARTINEZ       100100000000025621701001NOMINA                                                                                                                            0000086
65505232207     021506065050490858  BACOMSILVIA RAMOS VACA                       100100000000024968901001NOMINA                                                                                                                            0000087
65505232207     012282015886295982  BACOMARIANA YARELY VEJAR REYES               100100000000021648901001NOMINA                                                                                                                            0000088
65505232207     012180015556261814  BACOMKATYA PAOLA ZAPATA JIMENEZ              100100000000024968901001NOMINA                                                                                                                            0000089
65505232207     012282028554704983  BACOMYUNUEN JANITZI TEODORO BENITEZ          100100000000004591401001NOMINA                                                                                                                            0000090
65505232207     012282015157062514  BACOMFLOR ANEL GODOY MORALES                 100100000000029824201001NOMINA                                                                                                                            0000091
65505232207     012282015072497280  BACOMEMMANUEL GONZALEZ GIL                   100100000000029824201001NOMINA                                                                                                                            0000092
65505232207     012476029840809475  BACOMROSA IVETTE MADRIZ ARROYO               100100000000030798001001NOMINA                                                                                                                            0000093
65505232207     012225015089454354  BACOMSANDRA GUADALUPE MENDOZA RODRIGUEZ      100100000000025621701001NOMINA                                                                                                                            0000094
65505232207     012261015281506132  BACOMMARIO JORGE OTERO LOPEZ                 100100000000011570001001NOMINA                                                                                                                            0000095
65505232207     012180015090862313  BACOMLETICIA MARCELO TURJA                   100100000000029824201001NOMINA                                                                                                                            0000096
65505232207     012838015058919945  BACOMLUIS GUTIERREZ LEON                     100100000000029824201001NOMINA                                                                                                                            0000097
65505232207     012320015849457124  BACOMBETZY YUNUEN BARRERA NUNEZ              100100000000029824201001NOMINA                                                                                                                            0000098
65505232207     012180015257299156  BACOMDIANA LAURA GUZMAN MERAZ                100100000000033974301001NOMINA                                                                                                                            0000099
65505232207     012180015149371195  BACOMBERTHA CECILIA HERNANDEZ ESTRADA        100100000000029824201001NOMINA                                                                                                                            0000100
65505232207     012528015941135971  BACOMJUAN FRANCISCO WALDO HERRERA            100100000000031798001001NOMINA                                                                                                                            0000101
65505232207     012180015155048616  BACOMSILVIA RAMIREZ BANDA                    100100000000029824201001NOMINA                                                                                                                            0000102
65505232207     012320029313428510  BACOMJUAN ANTONIO JIMENEZ RAMIREZ            100100000000033974301001NOMINA                                                                                                                            0000103
65505232207     012180015595499896  BACOMJOSE ASCENCION GONZALEZ MIRANDA         100100000000029824201001NOMINA                                                                                                                            0000104
65505232207     012282028936280782  BACOMGUILLERMO MARTINEZ MANON                100100000000029824201001NOMINA                                                                                                                            0000105
65505232207     012180015163162364  BACOMLUCIA MARTINEZ AGREDA                   100100000000031798001001NOMINA                                                                                                                            0000106
65505232207     012180015185855277  BACOMMONSERRAT ALCANTARA CAMPOS              100100000000033974301001NOMINA                                                                                                                            0000107
65505232207     012180015187958402  BACOMDIANA ELIBETH BELTRAN VILLANUEVA        100100000000023376101001NOMINA                                                                                                                            0000108
65505232207     012476015188829804  BACOMESPERANZA CASTILLO VALENCIA             100100000000029824201001NOMINA                                                                                                                            0000109
65505232207     012261015064301321  BACOMRICARDO RENDON VARELA                   100100000000025121801001NOMINA                                                                                                                            0000110
65505232207     012180015763401593  BACOMANDREA MONTES CAMARILLO                 100100000000029824201001NOMINA                                                                                                                            0000111
65505232207     012885015068869685  BACOMBIANCA XITLALLI MORALES ANGELES         100100000000025621801001NOMINA                                                                                                                            0000112
65505232207     012180015139970768  BACOMALICIA ALEJANDRA LOPEZ CERVANTES        100100000000024700901001NOMINA                                                                                                                            0000113
65505232207     012225015448227944  BACOMRUTILIA CORTES ARIAS                    100100000000010688101001NOMINA                                                                                                                            0000114
65505232207     012180015348637151  BACOMSANDRA PAOLA MUNOS FRAUSTO              100100000000030798101001NOMINA                                                                                                                            0000115
65505232207     012215015206202140  BACOMVICTOR GIOVANNI GUTIERREZ RANGEL        100100000000036575901001NOMINA                                                                                                                            0000116
65505232207     012180015125656737  BACOMMARIA ELENA ZARAGOZA BOCARDO            100100000000033474301001NOMINA                                                                                                                            0000117
65505232207     012180015550197560  BACOMFREDI SAID HERNANDEZ HERNANDEZ          100100000000028953701001NOMINA                                                                                                                            0000118
65505232207     012528015248755672  BACOMARLYN DIANA MARTINEZ MERCED             100100000000024404001001NOMINA                                                                                                                            0000119
65505232207     012506015715685938  BACOMMARIA ESMERALDA MOLINA NATIVIDAD        100100000000029324201001NOMINA                                                                                                                            0000120
65505232207     012180015121562346  BACOMYANIRA MATILDE EUSEBIO MEDINA           100100000000033474301001NOMINA                                                                                                                            0000121
65505232207     012528015403296303  BACOMFERNANDO CONTRERAS BUCIO                100100000000027575001001NOMINA                                                                                                                            0000122
65505232207     021375065130927964  BITALJESSICA MARIELA ESTRADA LOPEZ           100100000000031798101001NOMINA                                                                                                                            0000123
65505232207     021225064425627774  BITALREYNA ARLETTE ROJAS CASTRO              100100000000016106701001NOMINA                                                                                                                            0000124
65505232207     021320064829787199  BITALNORMA CASTELLANOS CORONEL               100100000000033974301001NOMINA                                                                                                                            0000125
65505232207     021320063950061691  BITALELBIA MARTINEZ MENDEZ                   100100000000024665101001NOMINA                                                                                                                            0000126
65505232207     021497064337701574  BITALOMAR AVELINO BUSTOS                     100100000000042474201001NOMINA                                                                                                                            0000127
65505232207     021225064624324632  BITALJUAN PABLO ACOSTA PEREZ                 100100000000017599901001NOMINA                                                                                                                            0000128
65505232207     021497063913774405  BITALMIGUEL ANGEL LAUREANO NAVARRO           100100000000025621701001NOMINA                                                                                                                            0000129
65505232207     021282064559942300  BITALOSBEL CORTEZ VALERIO                    100100000000024968901001NOMINA                                                                                                                            0000130
65505232207     030222900011207164  BAJIOMARIA DE LOS ANGELES PEREZ AVILES       100100000000025621701001NOMINA                                                                                                                            0000131
65505232207     030320900019960350  BAJIOFANNY MARGARITA ANAYA CORONA            100100000000027186801001NOMINA                                                                                                                            0000132
65505232207     030225900004298983  BAJIOGABRIELA CASILLAS BONILLA               100100000000033974301001NOMINA                                                                                                                            0000133
65505232207     030097900016544549  BAJIOJOSE ROBERTO MONTANO GUADIANA           100100000000033474301001NOMINA                                                                                                                            0000134
65505232207     044282256026729566  COMERFRANCISCO TACUBA BLANCO                 100100000000052820201001NOMINA                                                                                                                            0000135
65505232207     044476106017584388  COMERMARCO ANTONIO FIGUEROA SORIA            100100000000031798001001NOMINA                                                                                                                            0000136
65505232207     044320010026237651  COMERXOCHITH GUADALUPE PRECIADO SANDOVAL     100100000000022820201001NOMINA                                                                                                                            0000137
65505232207     044225017044556496  COMERJOSE JUAN IBARRA GUILLEN                100100000000035714801001NOMINA                                                                                                                            0000138
65505232207     044180001013521079  COMERESMERALDA RENTERIA MANRRIQUEZ           100100000000015626701001NOMINA                                                                                                                            0000139
65505232207     044180001013521493  COMERJESUS ADRIAN SORIANO HERNANDEZ          100100000000051988301001NOMINA                                                                                                                            0000140
65505232207     062497008256233106  BAFIRADILENE VELEZ GONZALEZ                  100100000000023376101001NOMINA                                                                                                                            0000141
65505232207     062497008303589606  BAFIRANDRES BARRAGAN TORRES                  100100000000033144901001NOMINA                                                                                                                            0000142
65505232207     072180002712786584  BBANOMAURICIO MACIAS MANCERA                 100100000000031798001001NOMINA                                                                                                                            0000143
65505232207     072580010570852530  BBANOMARIA DE LOS ANGELES RODRIGUEZ DELGADO  100100000000029824201001NOMINA                                                                                                                            0000144
65505232207     072580010921729856  BBANOMARIA ALEJANDRA CAUDILLO RAMIREZ        100100000000026195301001NOMINA                                                                                                                            0000145
65505232207     072320008377313716  BBANOCLAUDIA LETICIA LOPEZ PARDO             100100000000059028601001NOMINA                                                                                                                            0000146
65505232207     072215005923860899  BBANOMARIA FERNANDA VILLANUEVA PRADO         100100000000102731101001NOMINA                                                                                                                            0000147
65505232207     072180002868452050  BBANOFREDY LOPEZ PEREZ                       100100000000053314001001NOMINA                                                                                                                            0000148
65505232207     072180004908228980  BBANOJOSEFINA ALVARADO BENITEZ               100100000000032834001001NOMINA                                                                                                                            0000149
65505232207     072180004851312244  BBANOMABEL VILLANUEVA VILLASENOR             100100000000056370801001NOMINA                                                                                                                            0000150
65505232207     072180004851386076  BBANOSANTIAGO MARTINEZ MARTINEZ              100100000000040099201001NOMINA                                                                                                                            0000151
65505232207     072180004851220080  BBANOLUZ MARIA BEATRIZ LARA SANCHEZ          100100000000018853001001NOMINA                                                                                                                            0000152
65505232207     072180004851434410  BBANOMIRNA PATRICIA VERA HERNANDEZ           100100000000017495301001NOMINA                                                                                                                            0000153
65505232207     072180004851357186  BBANOADRIANA GONZALEZ VILLASENOR             100100000000008771901001NOMINA                                                                                                                            0000154
65505232207     072180004851500108  BBANONEFTALI JUAREZ MARIN                    100100000000053312901001NOMINA                                                                                                                            0000155
65505232207     072180004850989610  BBANOKENNETH SANCHEZ AGATON                  100100000000051589401001NOMINA                                                                                                                            0000156
65505232207     072180004851030254  BBANOCARLOS ARTURO DELGADO RODRIGUEZ         100100000000041964601001NOMINA                                                                                                                            0000157
65505232207     072180004851513988  BBANOERIKA OROPEZA VALENTE                   100100000000033971301001NOMINA                                                                                                                            0000158
65505232207     072180010142305514  BBANOMILAGROS CRISTINA CAMARGO ABOYTES       100100000000053314701001NOMINA                                                                                                                            0000159
65505232207     072180004851068844  BBANOMAYRA LISSETTE SANCHEZ MARTINEZ         100100000000034703401001NOMINA                                                                                                                            0000160
65505232207     072180004850900770  BBANOMA DE LOURDES GUTIERREZ RADILLA         100100000000024509501001NOMINA                                                                                                                            0000161
65505232207     0485148848  BBANOGUADALUPE CASTELLANOS MAYA              100100000000019352401001NOMINA                                                                                                                            0000162
65505232207     072180004850937332  BBANOISABEL LOPEZ DIAZ                       100100000000016071201001NOMINA                                                                                                                            0000163
65505232207     072180004851520968  BBANOLUCIA DEL CARMEN SANCHEZ MOLINA         100100000000042509501001NOMINA                                                                                                                            0000164
65505232207     072180004851072924  BBANOMARIA ISABEL VALENCIA REYES             100100000000031164701001NOMINA                                                                                                                            0000165
65505232207     072180004851044790  BBANOCRISTIAN ELIVIER FLORES VEGA            100100000000025490501001NOMINA                                                                                                                            0000166
65505232207     072180004851349084  BBANOMARIA LORENA FUERTE JIMENEZ             100100000000047763301001NOMINA                                                                                                                            0000167
65505232207     072180004851491356  BBANOBENITO DIAZ SIMON                       100100000000043200901001NOMINA                                                                                                                            0000168
65505232207     072090004311739130  BBANOALMA DELIA TELLEZ SANCHEZ               100100000000012320201001NOMINA                                                                                                                            0000169
65505232207     072180004467781890  BBANOHECTOR DANIEL BECERRA CORTES            100100000000029822701001NOMINA                                                                                                                            0000170
65505232207     072225002536723730  BBANOMARIA GUADALUPE MIRELES VILLASANA       100100000000020885801001NOMINA                                                                                                                            0000171
65505232207     072535003222997064  BBANOMARIA SOCORRO MAGANA MALDONADO          100100000000015040201001NOMINA                                                                                                                            0000172
65505232207     072225010344188258  BBANOALMA DELIA ALVAREZ TORRES               100100000000053316601001NOMINA                                                                                                                            0000173
65505232207     072180004012306594  BBANOANTONIO BOTELLO CISNEROS                100100000000053316301001NOMINA                                                                                                                            0000174
65505232207     072320003350019906  BBANOMAYRA YADIRA AGUILA GONZALEZ            100100000000044766601001NOMINA                                                                                                                            0000175
65505232207     072180004356308342  BBANOJORGE SALDANA BERBER                    100100000000045379301001NOMINA                                                                                                                            0000176
65505232207     127497013728321243  BAZTEMA DE JESUS AMBRIS DELGADO              100100000000029823501001NOMINA                                                                                                                            0000177
65505232207     127320013741924312  BAZTEMARIA DE JESUS PRECIADO GUTIERREZ       100100000000027301501001NOMINA                                                                                                                            0000178
65505232207     127528013211090947  BAZTEMILAGROS ALVARADO AGUILAR               100100000000023375401001NOMINA                                                                                                                            0000179
65505232207     127506001113774117  BAZTEMARTIN SACRAMENTO LOPEZ LOPEZ           100100000000029822801001NOMINA                                                                                                                            0000180
65505232207     127225001199564949  BAZTEFRANCISCO ENRIQUE OSORIO BUTRON         100100000000025097001001NOMINA                                                                                                                            0000181
65505232207     127528013102494704  BAZTEMARIA ESPERANZA GUZMAN LEMUS            100100000000031798001001NOMINA                                                                                                                            0000182
65505232207     127244001349506628  BAZTEJUAN ANTONIO TORRES                     100100000000031298001001NOMINA                                                                                                                            0000183
65505232207     127282013592789462  BAZTEGILBERTO MACEDA VIDAL                   100100000000023376101001NOMINA                                                                                                                            0000184
65505232207     127060001191407573  BAZTEELIZABETH RIVERA ALEMAN                 100100000000029824201001NOMINA                                                                                                                            0000185
65505232207     127375001278881956  BAZTELUZ ELENA GARCIA TORRES                 100100000000032974301001NOMINA                                                                                                                            0000186
65505232207     127261017068311158  BAZTEMAYRA CECILIA PARAMO AGUILAR            100100000000029824201001NOMINA                                                                                                                            0000187
65505232207     127320001120066175  BAZTEMARICELA RAMIREZ FLORES                 100100000000026143301001NOMINA                                                                                                                            0000188
65505232207     127215001302100838  BAZTEALEJANDRO RODRIGUEZ CAMPOS              100100000000021569401001NOMINA                                                                                                                            0000189
65505232207     127497013539252763  BAZTEDIANA GODINEZ RODRIGUEZ                 100100000000029324201001NOMINA                                                                                                                            0000190
65505232207     127528013383606544  BAZTEELSA MONSERRAT RAMIREZ ARELLANO         100100000000024968901001NOMINA                                                                                                                            0000191
65505232207     127261013143282038  BAZTEJAHAIRA CAMACHO HERNANDEZ               100100000000024968901001NOMINA                                                                                                                            0000192
65505232207     127261013075666638  BAZTEMARVIC MALENY CRUZ CARRANZA             100100000000033823401001NOMINA                                                                                                                            0000193
65505232207     127320013366329677  BAZTECAROLINA LOPEZ AGUILA                   100100000000008013301001NOMINA                                                                                                                            0000194
65505232207     127282001320767024  BAZTEMARIANA PAREDES MILLAN                  100100000000048106101001NOMINA                                                                                                                            0000195
65505232207     127320013198635076  BAZTELORENA SAYANY AGUILERA SANCHEZ          100100000000021879401001NOMINA                                                                                                                            0000196
65505232207     127277013394296142  BAZTEALEJANDRO OROZCO ROMERO                 100100000000029824201001NOMINA                                                                                                                            0000197
65505232207     127504001263363043  BAZTELIZANDRO ALCARAZ ESTRADA                100100000000031798001001NOMINA                                                                                                                            0000198
65505232207     127225001315758704  BAZTEEDUARDO VILLANUEVA MEDINA               100100000000033974301001NOMINA                                                                                                                            0000199
65505232207     127225001392320223  BAZTENESTOR EDUARDO SALAS RODRIGUEZ          100100000000031798001001NOMINA                                                                                                                            0000200
65505232207     127225001385882419  BAZTEMANUEL ALFONSO RODRIGUEZ GOMEZ          100100000000029824201001NOMINA                                                                                                                            0000201
65505232207     127277001365227505  BAZTEVICTOR JESUS GONZALEZ NOGUEDA           100100000000029824201001NOMINA                                                                                                                            0000202
65505232207     127210001230201341  BAZTEMARIA DE LA LUZ GARCIA DIAZ             100100000000033474301001NOMINA                                                                                                                            0000203
65505232207     127282013800825940  BAZTEPATRICIA SERRANO QUIRINO                100100000000029824201001NOMINA                                                                                                                            0000204
65505232207     127180016725902416  BAZTEMOISES ALEJANDRO CARDOSO ORTEGA         100100000000025964701001NOMINA                                                                                                                            0000205
65505232207     127506001162919745  BAZTEMARIA NALLELY MONROY VELAZQUEZ          100100000000031798001001NOMINA                                                                                                                            0000206
65505232207     127222001213251814  BAZTEFRANCISCO SERRATO ROSALES               100100000000033474301001NOMINA                                                                                                                            0000207
65505232207     127375001119710403  BAZTEJOSE ALBERTO GONZALEZ ALATORRE          100100000000031798101001NOMINA                                                                                                                            0000208
65505232207     127528013111735360  BAZTECECILIA ALEJO FLORES                    100100000000031798101001NOMINA                                                                                                                            0000209
65505232207     127261001141747118  BAZTEKENIA JIMENEZ GALVAN                    100100000000029324201001NOMINA                                                                                                                            0000210
65505232207     127470001206644895  BAZTEGUILLERMO MENDEZ PEREZ                  100100000000031298101001NOMINA                                                                                                                            0000211
65505232207     127476013543913886  BAZTERAFAEL NAVA ROCHA                       100100000000008969501001NOMINA                                                                                                                            0000212
65505232207     127215013010894631  BAZTEANDRES JIMENEZ RODRIGUEZ                100100000000030085001001NOMINA                                                                                                                            0000213
65505232207     127180016425013139  BAZTELUIS ANGEL MARIN TAPIA                  100100000000031798101001NOMINA                                                                                                                            0000214
65505232207     127180001253223229  BAZTEMARIO LOPEZ CHAVARRIA                   100100000000031798101001NOMINA                                                                                                                            0000215
65505232207     127248001419905744  BAZTEJUAN PABLO ESTRADA HERNANDEZ            100100000000030860001001NOMINA                                                                                                                            0000216
65505232207     127180013563361319  BAZTEERIC DE LA TORRE ROMERO                 100100000000025983901001NOMINA                                                                                                                            0000217
65505232207     137535100156030929  COPELALAIN PAULO PENA GUTIERREZ              100100000000031298101001NOMINA                                                                                                                            0000218
65505232207     137225140013018118  COPELLAURA BERENICE RIVERA PEREZ             100100000000033974301001NOMINA                                                                                                                            0000219
65505232207     137476101037231701  COPELFREDY GABRIEL HERNANDEZ VILLALOBOS      100100000000029824201001NOMINA                                                                                                                            0000220
65505232207     137225104071433917  COPELJORGE ULISES CAMPOS NEGRETE             100100000000031798001001NOMINA                                                                                                                            0000221
65505232207     137528102767747221  COPELJESUS HERNANDEZ TORRES                  100100000000029824201001NOMINA                                                                                                                            0000222
65505232207     137248104071863920  COPELMYRIAM HELENA RETIZ ROJAS               100100000000025621701001NOMINA                                                                                                                            0000223
65505232207     137320104053467916  COPELNAYELI ABIGAIL RAMIREZ AGUILAR          100100000000025621701001NOMINA                                                                                                                            0000224
65505232207     137277103343590647  COPELADRIANA AHUELICAN AHUIXTLE              100100000000024969001001NOMINA                                                                                                                            0000225
65505232207     137225103219962607  COPELOMAR JOSE GUADALUPE HERNANDEZ OROZCO    100100000000033974301001NOMINA                                                                                                                            0000226
65505232207     137748103939426104  COPELSANDRA BALTAZAR VIVANCO                 100100000000030085001001NOMINA                                                                                                                            0000227
65505232207     137476130052860982  COPELMIRYAN ALEJANDRA REYNAUD AREVALO        100100000000023426601001NOMINA                                                                                                                            0000228
65505232207     137320130040756468  COPELFERNANDO JIMENEZ HERNANDEZ              100100000000033973401001NOMINA                                                                                                                            0000229
65505232207     137528103004384456  COPELJULIO AURELIO TRUJILLO RODRIGUEZ        100100000000024968901001NOMINA                                                                                                                            0000230
65505232207     137222103446595468  COPELJESUS ALFONSO GONZALEZ REY              100100000000025622001001NOMINA                                                                                                                            0000231
65505232207     137225130043231784  COPELROSA DELIA ORTEGA HERNANDEZ             100100000000025621701001NOMINA                                                                                                                            0000232
65505232207     137497130031410688  COPELBERENICE ESPINO POPOCA                  100100000000023376101001NOMINA                                                                                                                            0000233
65505232207     137535102488627642  COPELMARISOL BASTIDA PLASCENCIA              100100000000024968901001NOMINA                                                                                                                            0000234
65505232207     137282102074118041  COPELELOY GUTIERREZ BEIZA                    100100000000029824201001NOMINA                                                                                                                            0000235
65505232207     137320103143600079  COPELAIDE AVIGAIL VEGA LUGO                  100100000000019979701001NOMINA                                                                                                                            0000236
65505232207     137528103642424396  COPELMARIA DE LOURDES TINOCO CAMPOS          100100000000017433701001NOMINA                                                                                                                            0000237
65505232207     137535102621829702  COPELMELISSA VIDALES CARDENAS                100100000000023830801001NOMINA                                                                                                                            0000238
