000000001                991536422052          000000000742710FELIPE YACOMOC ORTEGA GONZALEZ          001001
000000002                992666557104          000000000733096MARIA DE LA LUZ MALACARA MACEDO         001001
000000003                992666556418          000000000757156DORIAN IVAN ORTIZ PARRA                 001001
000000004                991537209939          000000001038178OFELIA GONZALEZ GONZALEZ                001001
000000005                992666556345          000000001214961ALBERTO MICHEL VILLEGAS RIVERA          001001
000000006                991584462364          000000000763435ADRIANA LOPEZ GRIEGO                    001001
000000007                991538246498          000000000609996MAURICIO PENA NERIA                     001001
000000008                991553536036          000000000902804OCTAVIO ANTONIO MEZA ALTAMIRANO         001001
000000009                992666556353          000000002046006ARMANDO BARRON HERNANDEZ                001001
000000010                992787291485          000000001530836GRECIA HEREDIA GARCIA                   001001
000000011                992904915119          000000000687975LUCIANO PAEZ OCHOA                      001001
000000012                992927313616          000000000547719ANDRES RAMIREZ GUZMAN                   001001
000000013                992955774152          000000001057064JOSE ALEJANDRO TORRES SIL               001001
000000014                992999290451          000000000493461LUIS FERNANDO HERNANDEZ GARCIA          001001
000000015                992837987102          000000002724558FRANCISCO MARIEL GONZALEZ               001001
000000016                992850805904          000000000863424GABRIEL FUENTES IBANEZ                  001001
000000017                991536422036          000000000611731ALEJANDRO GUTIERREZ CRUZ                001001
000000018                991537209980          000000000535168EDITH SANCHEZ LOZANO                    001001
000000019                991537210007          000000000668439ERIKA HERNANDEZ ACOSTA                  001001
000000020                991537209947          000000000425142MARCELA SILVA GAMBOA                    001001
000000021                991125947065          000000000605659HUMBERTO MOSCO RODRIGUEZ                001001
000000022                991537209972          000000000808334JOSE ARTEAGA MORA                       001001
000000023                991537209998          000000000356051BLANCA LIZET RUIZ RODRIGUEZ             001001
000000024                991526048237          000000000594394ALEJANDRA YOSHABETL DE LA TORRE GARAY   001001
000000025                991536422044          000000000528227MARISOL DE LA CRUZ MOGOLLAN             001001
000000026                991538246502          000000000530903EDGAR ALEJANDRO AREVALO CORTES          001001
000000027                991536422019          000000000384436LARIZA PAULINA VILLARREAL AVILA         001001
000000028                991536422001          000000000505290EVA AZUCENA PEREZ GONZALEZ              001001
000000029                991536422027          000000000261653MELISSA ITZEL LOREDO GONZALEZ           001001
000000030                991580699962          000000000685153KATHYA NEMILIS VAZQUEZ ARROYO           001001
