000000001                991533981290          000000000374125MARA VANESSA VARGAS JIMENEZ             001001
000000002                991531616067          000000000358156CRISTIAN MARIA GUADALUPE TIRADO HERNAN  001001
000000003                991552131257          000000000407284LUIS DAVID VALENCIA CISNEROS            001001
000000004                991513834542          000000000358161DIANA JAZMIN OZUNA REYES                001001
000000005                991573722794          000000000229471CARLOS ARTURO SANCHEZ SANCHEZ           001001
000000006                991548633743          000000000216452CESAR EMMANUEL AGUIRRE REYES            001001
000000007                991590152997          000000000274785DIANA LAURA GARCIA PEREGRINO            001001
000000008                991508806494          000000000358156ERNESTO RAFAEL NUNEZ LOPEZ              001001
000000009                991569985144          000000000534081EDWIN GUADALUPE APARICIO VARGAS         001001
000000010                992966773990          000000000534081CARLOS SOTO CARRILLO                    001001
000000011                991561666455          000000000317079GUADALUPE GARCIA VALENCIA               001001
000000012                991500287519          000000000274433DAYNEET AVILES ALARCON                  001001
000000013                991516922195          000000000274433JULIO CESAR RIVERA FLORES               001001
000000014                991548712598          000000000256799SERGIO ROLDAN ALVAREZ                   001001
000000015                991522684163          000000000390093MIGUEL ANGEL VAZQUEZ RAMIREZ            001001
000000016                991548470402          000000000390093LUIS MANUEL MARTINEZ PERAFAN            001001
000000017                992711923382          000000000390093ERICK ANTONIO CABRERA JIMENEZ           001001
000000018                991551588580          000000000415459AARON DANNIR JIMENEZ ZENTENO            001001
000000019                991534532399          000000000390093ALEXANDER RANGEL FONSECA                001001
000000020                991561442981          000000000519816LUIS ALBERTO MILLAN ZAVALA              001001
000000021                991560558306          000000000374125MAYRA MIRANDA HERNANDEZ                 001001
000000022                991507817972          000000000398044MARIA DE LA PAZ MAYA TELLEZ             001001
000000023                991513923231          000000000235061VICTOR SAUL RUIZ RODRIGUEZ              001001
000000024                991585100707          000000000317500ARIEL FIDENCIO PEREZ DE JESUS           001001
000000025                991547227159          000000000299209MARICELA ZACATE PALACIOS                001001
000000026                991530756633          000000000274785RAYMUNDO ARMANDO RUEDAS DE LA CRUZ      001001
000000027                991175893135          000000000279491DANIEL MELCHOR CARDENAS                 001001
000000028                991269455817          000000000274785LUIS GERARDO BUENDIA GARCIA             001001
000000029                991528481982          000000000274785LUCERO VEGA NIETO                       001001
000000030                992752443023          000000000274785MARIA DE LOS ANGELES TORRES ORNELAS     001001
000000031                991544409119          000000000274785ABRAHAM JAIR CAMARGO ESCALANTE          001001
000000032                991535671429          000000000274785ROSA GABRIELA MOCTEZUMA CARRILLO        001001
000000033                992999140050          000000000299209RICARDA SERNAS IBARRA                   001001
000000034                991555844414          000000000274785EDGAR URIEL SALCEDO ARROYO              001001
000000035                991525414868          000000000274785JAVIER ALBERTO GARCIA SANCHEZ           001001
000000036                991524563479          000000000274785DIEGO LOPEZ FLORES                      001001
000000037                991527896797          000000000284416MICHELLE ALEJANDRA GARAY MARTINEZ       001001
000000038                991572033715          000000000274785JESSICA LEON BAUTISTA                   001001
000000039                992866563260          000000000274785ADRIANA MENDOZA ALVAREZ                 001001
000000040                991547661166          000000000317500MARCO ANTONIO LOPEZ MAYA                001001
000000041                991586458622          000000000486641JOSE LUIS DE JESUS GUTIERREZ CARDENAS   001001
000000042                991569170173          000000000274785EDWIN DOMINGUEZ RAMIREZ                 001001
000000043                991574249771          000000000274785LUIS ALEXIS CAMARGO URBANO              001001
000000044                991548415567          000000000299209CHRISTIAN OMAR MARTINEZ ALCANTARA       001001
000000045                991525572611          000000000299209ABIMAEL GASPAR LANDIN                   001001
000000046                991539193649          000000000274785RAFAEL SANCHEZ CASTRO                   001001
000000047                991521087558          000000000317500NATALY MARTINEZ EVANGELISTA             001001
000000048                991553148866          000000000216235JORGE ALBERTO CONTRERAS SEGUNDO         001001
000000049                991535414451          000000000284416SANDRA ABIGAIL CARMONA SANCHEZ          001001
000000050                991567223547          000000000274785LUIS EDUARDO FLORES PICHARDO            001001
000000051                991544514048          000000000274785KAREN JAZMIN CARRILLO MARTINEZ          001001
000000052                991544166767          000000000274785DIEGO ARTURO ROMERO MARTINEZ            001001
000000053                991535523702          000000000256706BRUNO RODRIGO ELEUTERIO SOLIS           001001
000000054                992925494486          000000000299209JUAN IGNACIO CORDOVA HERNANDEZ          001001
000000055                991597366836          000000000299209ANAHI LAURA REYES GARCIA                001001
000000056                991553543824          000000000299209ERIC GOMEZ SALVADOR                     001001
000000057                991593530674          000000000299209FRANCISCO FERNANDO GARCIA CONTRERAS     001001
000000058                991517330895          000000000274785EVELIN YARENY AQUINO GALBAN             001001
000000059                991523395548          000000000299209ALFREDO ANTONIO MONTIEL CASTILLO        001001
000000060                992812997762          000000000274785EVELIN MARLENE ESTRADA GONZALEZ         001001
000000061                991585254330          000000000274785ROSA ISABEL ORTEGA DIEGUEZ              001001
000000062                992936988733          000000000274785ANALI ROMERO RODRIGUEZ                  001001
000000063                991588993958          000000000274785GIOVANY MIGUEL GUZMAN SERRANO           001001
000000064                991548007568          000000000274785HUMBERTO JIOVANNI LAGUNAS MENA          001001
000000065                991552875543          000000000299209ERICK ALEXIS FLORES MORALES             001001
000000066                991548649738          000000000299209JOCABEB YOSELIN AGUILAR MENDOZA         001001
000000067                991503404576          000000000486641CATALINA ORTIZ HERRERA                  001001
000000068                991553681904          000000000957451NARCIZO GERARDO LOPEZ SEGURA            001001
000000069                991534926835          000000000299209LUCIO GARCIA HORMIGA                    001001
000000070                991550207368          000000000269689CANDY DAYANA MONTALVO CUEVAS            001001
000000071                991543480958          000000000299209ROBERTO JAVIER CERVANTES ESPARZA        001001
000000072                991576144627          000000000256300JONATHAN MORALES SOSA                   001001
000000073                991539702374          000000000274785MARIANA RIVAS GUTIERREZ                 001001
000000074                991584181835          000000000299209ADRIANA FLORES SUAREZ                   001001
000000075                991523589673          000000000274785LIZETH DOMINGUEZ PAGAZA                 001001
000000076                991584768833          000000000299209JOHAN ORNELAS CARRO                     001001
000000077                991565875122          000000000334325LIZZET CARRENO ESQUIVEL                 001001
000000078                991542938984          000000000274785JOSE ALBERTO PONCE MORALES              001001
000000079                991564095467          000000000274785DIEGO DIAZ MANZANARES                   001001
000000080                991292319810          000000000274785TERESA MOCTEZUMA VAZQUEZ                001001
000000081                991588545271          000000000534908REGINA RAMIREZ ESCOBAR                  001001
000000082                991507973091          000000000238629CRISTIAN NARVIK MORENO MONDRAGON        001001
000000083                991568301410          000000000274785DIEGO LOPEZ CRUZ                        001001
000000084                991535627080          000000000334325ROBERTO ZEPEDA HERNANDEZ                001001
000000085                991556333270          000000000163607JUAN CARLOS HERNANDEZ MARTINEZ          001001
000000086                992851100092          000000000256706FRANCISCO JAVIER CERON HERRERA          001001
000000087                991538900814          000000000274785ANDROS JOSAFAT JAIMES CASTRO            001001
000000088                991545708971          000000000486641JOSE SALVADOR COLUMNA MARTINEZ          001001
000000089                991570215214          000000000317500CITLALII FABIOLA NOLASCO ORTEGA         001001
000000090                991546783896          000000000256706MARCO ANTONIO CASANAS ESTEBAN           001001
000000091                991504657842          000000000274785LUIS FERNANDO GARCIA MARTINEZ           001001
000000092                991506837236          000000000109731OSCAR GUSTAVO MEDINA VILLARREAL         001001
000000093                991553148645          000000000486641JUAN MANUEL SOTO BRISENO                001001
000000094                991506358210          000000000317500AMAHIRAIN GALINDO GONZALEZ              001001
000000095                991541763758          000000000358923JAVIER TRUJILLO CORNEJO                 001001
000000096                991522845116          000000000172568ERANDY GABRIELA GONZALEZ DAVILA         001001
000000097                992632240904          000000000274785EDGAR JOSUE GOMEZ LOPEZ                 001001
000000098                992910079294          000000000274785MERCED LARA MARTINEZ                    001001
000000099                991553423023          000000000274785BRAYAN DAVID PEREZ DE LA CRUZ           001001
000000100                991496745253          000000000274785JESSICA JUAREZ RAMIREZ                  001001
000000101                991566177301          000000000298525ALONDRA ABIGAIL GARCIA FARIAS           001001
000000102                991570866614          000000000125362ROBERTO HERNANDEZ HERNANDEZ             001001
000000103                991147273843          000000000274785LUIS VALDEZ HOFFAY MARTINEZ             001001
000000104                991522971224          000000000274785LUIS HUMBERTO PEREIDA AGUAYO            001001
000000105                991554210207          000000000274785ALDAIR MORALES CARRILLO                 001001
000000106                991506853444          000000000065810JULIO HERIBERTO MORALES HERNANDEZ       001001
000000107                991518611650          000000000274785JESSICA JORGE CARBALLO                  001001
000000108                991502765214          000000000334325ZURI YULIETT MARTINEZ LIMON             001001
000000109                991537644113          000000000224725MONICA RAMIREZ GARCIA                   001001
000000110                991538741902          000000000299209IRIS ABIGAIL HERNANDEZ ORTIZ            001001
000000111                992992425726          000000000334325MARIA DE JESUS SANTIAGO QUINTERO        001001
000000112                991523424308          000000000274785MARIA CANDELARIA HERNANDEZ SEBASTIAN    001001
000000113                991512370783          000000000274785CARLOS MAURICIO GUERRERO MATEOS         001001
000000114                991538069778          000000000274785CESAR MIRANDA CARMONA                   001001
000000115                992878683824          000000000388010CONSUELO VASQUEZ MARIANO                001001
000000116                991540365988          000000000274785OSCAR HURTADO SANCHEZ                   001001
000000117                991572349322          000000000256799LUIS ENRIQUE MARQUEZ CERRANO            001001
000000118                991540370998          000000000279593JOSE ENRIQUE REYES HERNANDEZ            001001
000000119                991539886128          000000000274785BLANCA ESTHELA MOO ESQUIVEL             001001
000000120                991563406377          000000000274784LUIS MANUEL MORALES RUIZ                001001
000000121                991529768681          000000000274784OSCAR EMMANUEL SANCHEZ URIBE            001001
000000122                991536703481          000000000299209SEBASTIAN CASTILLO MARTINEZ             001001
000000123                991586329970          000000000274784GUADALUPE MIREYA PACHECO MATA           001001
000000124                991139986634          000000000274784CARLOS SANCHEZ OCON                     001001
000000125                991511588513          000000000274784BEATRIZ ADRIANA AGUIRRE VAZQUEZ         001001
000000126                991518854168          000000000274784JAVIER IVAN PEREZ DE PAZ                001001
000000127                992837845405          000000000274784ANGELICA MARIBEL JIMENEZ GARCIA         001001
000000128                991588692117          000000000299209ESTEBAN JOSET GARDUNO AGUILAR           001001
000000129                991532775278          000000000274784MONICA JAQUELIN LOPEZ LOPEZ             001001
000000130                991567903653          000000000216451MARGARITA DE LA CRUZ DAMIAN             001001
000000131                992923624315          000000000274784CINTHIA SUSANA REYES MENDOZA            001001
000000132                991182080338          000000000299209MARIA CRISTINA MAYA ROJAS               001001
000000133                991534001328          000000000274784IVONNE JANNET RODRIGUEZ DELGADO         001001
000000134                991510131349          000000000274784MARIA DEL CARMEN FERNANDEZ VILLAFAN     001001
000000135                991506877148          000000000274784LESLIE MICHELLE PORTO LANDEROS          001001
000000136                990476352162          000000000274784MARBELLA EULAGE JUAREZ                  001001
000000137                991585045509          000000000299209MARCOS DORANTES CRUZ                    001001
000000138                991446392210          000000000072232ALEJANDRO AHUMADA ROMERO                001001
000000139                991507104797          000000000274784ARIANA YAEL PEREZ ROSALES               001001
000000140                991584667657          000000000274784MARIA RAQUEL BELTRAN BUENDIA            001001
000000141                991529609412          000000000274784LUIS JAVIER MARTINEZ ESPEJEL            001001
000000142                991536556191          000000000274784EDGAR ULISES MARTINEZ CRUZ              001001
000000143                991515990685          000000000249886SILVIA TAVERA MOSQUEDA                  001001
000000144                991532394700          000000000274784INGRID GLORIA GUZMAN ORDUNA             001001
000000145                991586400518          000000000274784JUAN PABLO RIVERA GONZALEZ              001001
000000146                991543028981          000000000274784ANA MARIA ANTONIO ROSAS                 001001
000000147                991538407838          000000000274784DANIEL ALEJANDRO RODRIGUEZ CALDERON     001001
000000148                991522960532          000000000274784ENRIQUE AMADO GALINDO COACHE            001001
000000149                991557479665          000000000236611KARLA MARIA QUIROZ HERNANDEZ            001001
000000150                991541674900          000000000274784ALEJANDRO YANEZ ESQUIVEL                001001
000000151                991559591756          000000000256705SAMUEL TADEO DOMINGUEZ ZACARIAS         001001
000000152                991509665547          000000000274784ANA LAURA CERON MORENO                  001001
000000153                991584430454          000000000274784KARLA ADRIANA TORRES ARELLANO           001001
000000154                991508921625          000000000274784ALFREDO VAZQUEZ VALDEZ                  001001
000000155                991438080593          000000000274784MOISES UGARTE MONTES                    001001
000000156                991579066333          000000000154835EDGAR DANIEL CASTILLO CANO              001001
000000157                991550457806          000000000274784ERICK ALFONSO MARTINEZ MACEDA           001001
000000158                991552880990          000000000274784ANGELICA MICHELLE GONZALEZ MONDRAGON    001001
000000159                991577858739          000000000274784DIANA ELIZABETH HERNANDEZ GONZALEZ      001001
000000160                992891559389          000000000274784SELENE DE JESUS TAPIA                   001001
000000161                991532049775          000000000274784CARLOS ALDAHIR VIVEROS ANTUNEZ          001001
000000162                991507284842          000000000274784BRENDA ZUGEHY ALCANTARA ORDAZ           001001
000000163                991518793363          000000000274784DILLAN TABOADA SANCHEZ                  001001
000000164                991515121976          000000000274784DIANA ROCHA GARCIA                      001001
000000165                991538591027          000000000274784EDUARDO ALEJANDRO RAZO DOMINGUEZ        001001
000000166                991519883220          000000000274784JUAN BERNARDO CERVANTES GONZALEZ        001001
000000167                991566563786          000000000274784ULISES RIVERA ANGEL                     001001
000000168                991534688123          000000000216451MAYRA HERNANDEZ FLORES                  001001
000000169                991546664873          000000000274784YASMIN ARELI ESQUIVEL DUARTE            001001
000000170                991541346970          000000000299209ENRIQUE FRANCISCO SEBASTIAN MARTINEZ    001001
000000171                991527450524          000000000360628JUANA ROBERTA LOPEZ JUAREZ              001001
000000172                991506847983          000000000198372ISRAEL GARCIA GODINEZ                   001001
000000173                991569763565          000000000149409DANIEL MANRIQUEZ LOPEZ                  001001
000000174                992874592344          000000000486641CHRISTIAN JONATHAN LUNA ORTEGA          001001
000000175                991568455735          000000000274784RAMON ALBERTO SOTO BARRON               001001
000000176                991549471637          000000000256705ELIZABETH PEREZ PERALTA                 001001
000000177                991583411306          000000000274784JUAN CARLOS TORALES ZAFRA               001001
000000178                991511856313          000000000299209LISET TREJO ESCOBEDO                    001001
000000179                991552779733          000000000274784JORGE LEONARDO MENDOZA GALICIA          001001
000000180                992856628818          000000000274784FERNANDO VAZQUEZ LOPEZ                  001001
000000181                991586558430          000000000274784XOCHITL JAZMIN CONTRERAS RAMIREZ        001001
000000182                991520940771          000000000274784ANNA LOURDES CRUZ PERALTA               001001
000000183                992954906268          000000000274784FIDENCIO JUAREZ MENDOZA                 001001
000000184                991574190963          000000000216451ALEJANDRO FABIAN VILLANUEVA MARTINEZ    001001
000000185                991523344022          000000000274784ULISES ROJAS GUTIERREZ                  001001
000000186                991509121559          000000000256705BEATRIZ ADRIANA MARTINEZ HELGUERAS      001001
000000187                991553681866          000000000274784RAFAEL ALEJANDRO ROBLES MARTINEZ        001001
000000188                991508135956          000000000274784LESLY JOSELIN HERNANDEZ PEREZ           001001
000000189                991550529144          000000000274784ALAN EMMANUEL SANCHEZ CIPRIANO          001001
000000190                991502500538          000000000302290YURIXHI PAOLA TORRES RAMIREZ            001001
000000191                991587058950          000000000274784KAREN ITZEL LOPEZ JUAREZ                001001
000000192                991501441091          000000000216451PATRICIA VALENTAN CANEDO                001001
000000193                991500205989          000000000274784JORGE ALBERTO GUTIERREZ IBARRA          001001
000000194                991553146103          000000000274784ARNOLDO LOPEZ ALVARADO                  001001
000000195                991549331794          000000000274784LORENZO AVILA FUENTES                   001001
000000196                991521569379          000000000274784RICARDO ERICK BARRERA SANTIAGO          001001
000000197                991553682366          000000000126940JOSE ALBERTO SALINAS GUTIERREZ          001001
000000198                991577420277          000000000107525HECTOR ENRIQUE ROLDAN CRUZ              001001
000000199                991551817752          000000000553774MANUEL ANGEL GARCIA MARTINEZ            001001
000000200                991548664498          000000000376250CINTHIA VERENICE ARTIGAS LOPEZ          001001
000000201                991524826895          000000000274784JOSE ARMANDO ROBLES PEREZ               001001
000000202                991524948524          000000000227462PATRICIA SARAY LARA FLORES              001001
000000203                991586702409          000000000343201RANDY EDUARDO MARTINEZ CANUTO           001001
000000204                991525504821          000000000256705DAVID SAN JUAN OLVERA                   001001
000000205                992968874425          000000000274784ERICK JOVANI SANCHEZ ORTIZ              001001
000000206                991510492802          000000000274784HECTOR MARIO MALDONADO LOPEZ            001001
000000207                991572471507          000000000486641KAREN ANALHY GONZALEZ PEREZ             001001
000000208                992907828195          000000000274784MAURO ALFREDO CAZARES ZEPEDA            001001
000000209                992994331044          000000000155375MOISI GONZALEZ VALLE                    001001
000000210                991591724838          000000000374913LILIANA MACEDA PENALOZA                 001001
000000211                991563977034          000000000274784TONATIUH BARTOLOME PENA CASTILLO        001001
000000212                991568682995          000000000274784NESTOR ALEXIS MENDEZ ENRIQUEZ           001001
000000213                991525304175          000000000274784JESUS DANIEL RESENDIZ CAMPOS            001001
000000214                991507803578          000000000259776MIRIAM DAYANAVA ACEVEDO NAVARRO         001001
000000215                991551911922          000000000486641JOSE ALFREDO BECERRIL MORALES           001001
000000216                992850996661          000000000098787MARISOL VALENZUELA OROZCO               001001
000000217                991549659679          000000000256705FAUSTA ELIZABETH VERGARA MEDINA         001001
000000218                991554655648          000000000274784SUSANA ARLAETH SANCHEZ TORRES           001001
000000219                991560109312          000000000342149VIRIDIANA MARBELLA CAMARILLO LOPEZ      001001
000000220                992874803302          000000000202797TERESA GONZALEZ ALARCON                 001001
000000221                992968877106          000000000192282ISRAEL HERRERA ESCOBAR                  001001
000000222                991555349900          000000000274784KARLA ALEJANDRA VAZQUEZ ESPINOSA        001001
000000223                991547352454          000000000324261FERNANDA ISABEL SOLANO ROJAS            001001
000000224                991508944625          000000000274784DIANA CARBAJAL OLVERA                   001001
000000225                992944296931          000000000383534ALVARO SANTIAGO SANTIAGO                001001
000000226                991522045080          000000000197906MIGUEL ISAAC MALDONADO SANCHEZ          001001
000000227                991588899145          000000000274784HECTOR IVAN JARDON GALINDO              001001
000000228                991549605986          000000000274784MARIO ALBERTO HERNANDEZ CALZADA         001001
000000229                991526059044          000000000256705BRAYAN ALEXIS RANGEL VAZQUEZ            001001
000000230                991554434034          000000000274784ARMANDO NAVA MONTANO                    001001
000000231                991550112518          000000000315943LISETTE GARCIA NUNEZ                    001001
000000232                991585185206          000000000486641LUIS BERNARDO MESINAS AGUILAR           001001
000000233                991585415635          000000000274784ARELLY MEJIA SALAS                      001001
000000234                991586294815          000000000274784ERIKA YOCELIN CRUZ BRITO                001001
000000235                991581605984          000000000434734MIGUEL ANGEL PORTELA CUEVAS             001001
000000236                991569384050          000000000256705MARIO ALBERTO CARRERA FERNANDEZ         001001
000000237                991484183843          000000000274784HECTOR CONTRERAS FLORES                 001001
000000238                991508180817          000000000274784ALVARO SANCHEZ GALLO                    001001
000000239                991256163939          000000000233118CINTHYA DOMINGUEZ LOPEZ                 001001
000000240                991141596225          000000000274784TONANTZIN LOPEZ CORTAZAR                001001
000000241                991550585095          000000000073385CRHISTIAN JANDETTE SORIANO              001001
000000242                991567768284          000000000274784IZAMAR FLORES BEIZA                     001001
000000243                991196017401          000000000274784ARTURO SANCHEZ LOPEZ                    001001
000000244                991583155334          000000000274784GITZEL CAROLINA VARGAS BOURET           001001
000000245                991581801120          000000000274784ABIGAIL ARROYO MARTINEZ                 001001
000000246                991584026643          000000000274784MAYRA SUSANA CASTANEDA FLORES           001001
000000247                992958999120          000000000690080NESTOR DARIO SANCHEZ MARTINEZ           001001
000000248                991581961899          000000000008462RIGOBERTO MIGUEL RAMOS                  001001
000000249                991568945254          000000000274784MARIANA RODRIGUEZ ARENAS                001001
000000250                991509483621          000000000409195JORGE LUIS ROSALES MARTINEZ             001001
000000251                991582215911          000000000791380JOSE REYNALDO NOVOA OBISPO              001001
000000252                990465106745          000000000274784RUTH RODRIGUEZ RAMIREZ                  001001
000000253                991576052358          000000000017986ALFONSO JAVIER LOPEZ PERALTA            001001
000000254                991506657486          000000000274784RICARDO FUENTES MARTINEZ                001001
000000255                991565878527          000000000274784DIANA KARINA GOMEZ HERNANDEZ            001001
000000256                991566597729          000000000486641LAURA SUSANA SANCHEZ HERNANDEZ          001001
000000257                991579366663          000000000274784FERNANDO JERONIMO MARTINEZ              001001
000000258                991574976568          000000000274784ANALILIA TORRES SANJUAN                 001001
000000259                991546067258          000000000274784MIGUEL CALZADA CARRASCO                 001001
000000260                991577081998          000000000256705MARIA GUADALUPE DIAZ QUINTERO           001001
000000261                991550531866          000000000274784BLANCA ELIZABETH RODRIGUEZ VILLEGAS     001001
000000262                991578376509          000000000299209ALEJANDRO VERA RODRIGUEZ                001001
000000263                992923928624          000000000486641LUIS GARAY PEREZ                        001001
000000264                991514739038          000000000274784JULIO CESAR ROMERO DIAZ                 001001
000000265                991543844907          000000000486641ALFREDO DOMINGUEZ GALVEZ                001001
000000266                991519285067          000000000376250LUCERO ALVAREZ GONZALEZ                 001001
000000267                991172763958          000000000274784NESTOR JULIAN VAZQUEZ MACIAS            001001
000000268                991551047208          000000000206490MARY KAREN CELIS PEREZ                  001001
000000269                991556423976          000000000534908LADY TANIA CELAYA MENDOZA               001001
000000270                991546387918          000000000274784EBER MANUEL FLORES MORALES              001001
000000271                991534391381          000000000246953LUCIA ANTONIA TRUJILLO MENDOZA          001001
000000272                991547905524          000000000254810VICTOR ARMANDO MORALES GOMEZ            001001
000000273                992765445183          000000000574696AURORA MENDOZA ALCANTARA                001001
000000274                992864352009          000000000433958CARMEN JULIA BALAM SOLORZANO            001001
000000275                991563700562          000000000274784JENNIFER VERA LEMUS                     001001
000000276                991523371657          000000000210423CESAR ARMANDO NEGRETE MORENO            001001
000000277                991556401638          000000000274784PATRICIA DE LOURDES RESENDIZ VILLANUEV  001001
000000278                992948404011          000000000231240JOSE DE JESUS GERARDO SANCHEZ SANCHEZ   001001
000000279                990455754240          000000000214423EDWIN DARIO MONTANO MEDINA              001001
000000280                991556728033          000000000274784SANDY LIZBETH APARICIO CORDERO          001001
000000281                991501911208          000000000234452DAVID GONZALEZ LUNA                     001001
000000282                992949437517          000000000311452MAGDALENA QUINTERO PASTOR               001001
000000283                991524559074          000000000274784MARCO ANTONIO HERRERA GALICIA           001001
000000284                991518305869          000000000274784MARIA ALEJANDRA VARELA NAVA             001001
000000285                991553606743          000000000274784JOSE YAIR PALMA MALVAEZ                 001001
000000286                991548235425          000000000179818ISRAEL RICARDO GONZALEZ HERNANDEZ       001001
000000287                991530579017          000000000690070NELLY JAZMIN VILLA ESPINOSA             001001
000000288                991580955779          000000000311452DIANA ELIZABETH MORALES BAEZ            001001
000000289                992965921384          000000000534918EDGAR EMMANUEL PENA MENDEZ              001001
000000290                992929946373          000000000202924SARAI DIAZ BRAVO                        001001
000000291                992997595182          000000000577904SERGIO SAUL MARTINEZ SALAZAR            001001
000000292                991124206711          000000000690045ADRIAN GAMBOA REYES                     001001
000000293                992861995855          000000000274778VICTOR HUGO GONZALEZ GUTIERREZ          001001
000000294                991533484592          000000000282286CESAR ANTONIO HERNANDEZ                 001001
000000295                991521462311          000000000274778JENNIFER ROMAN MORENO                   001001
000000296                991530851994          000000000690045JOSE LUIS REYES JUAREZ                  001001
000000297                991588911104          000000000274778PABLO GALICIA QUIROZ                    001001
000000298                991550530631          000000000274778EDWIN ANTONIO VILLALPANDO TORRES        001001
000000299                991169129928          000000000482188BRENDA MONSERRAT FLORES RUBI            001001
000000300                991548801684          000000000446496JOSE ARTURO MORENO ZARATE               001001
000000301                991531710869          000000000143881JESUS DANIEL CHAVEZ GARCIA              001001
000000302                992888189862          000000000274778HECTOR VALADEZ LUGO                     001001
000000303                992982015927          000000000156546JOSE ALFONSO PONCE JUAREZ               001001
000000304                992976629539          000000000274778ALONDRA LIZETTE GUEVARA SANTOYO         001001
000000305                991575307767          000000000158176JOSE OLIMPO SANCHEZ POSADA              001001
000000306                991520957359          000000000256699ADRIAN LEON MENDOZA                     001001
000000307                991563446026          000000000326032CRISTINA ZARATE PADILLA                 001001
000000308                992981742469          000000000273689MARIA DE LOS ANGELES LUGO VENCES        001001
000000309                992877094825          000000000249017ANA IVONNE GUTIERREZ GALINDO            001001
000000310                992966229492          000000000274778ALBERTO INIESTRA CAMPILLO               001001
000000311                991545982642          000000000360621AIDA ANDRES MARTINEZ                    001001
000000312                992692364654          000000000222890PATRICIA VENEGAS CAMPOS                 001001
000000313                991582610329          000000000259085GABRIEL JIMENEZ SANTOS                  001001
000000314                991509733143          000000000256699MARIO DOMINGUEZ MIGUEL                  001001
000000315                991420823813          000000000274778JUAN FERNANDO LEON RAMIREZ              001001
000000316                992997184921          000000000284511KAREN JOSELYN SAAVEDRA LOPEZ            001001
000000317                992674127331          000000000056647FRANCISCO JAVIER GOMEZ MONTES DE OCA    001001
000000318                991583791599          000000000328340NAYELI YAZLIN HERNANDEZ CASTILLO        001001
000000319                991500459154          000000000328340GUADALUPE MEJIA GUTIERREZ               001001
000000320                991553682552          000000000256885FABRICIO SANTIAGO ESTEVEZ HEREDIA       001001
000000321                991501862360          000000000274778ROBERTO MORALES MARTINEZ                001001
000000322                990459162909          000000000197665BRISA LINDA OLVERA JIMENEZ              001001
000000323                992984619927          000000000484291LUIS ANTONIO SANTIAGO MERIDA            001001
000000324                991554240561          000000000328340JUAN JOSE GONZALEZ MARTINEZ             001001
000000325                991554212770          000000000146982JOSE DE JESUS MONZALVO GARCIA           001001
000000326                991502297469          000000000534890IVAN GONZALEZ ESTRADA                   001001
000000327                991575884101          000000000320621JORGE MUNOZ VILLASANA                   001001
000000328                991576411924          000000000677820ADOLFO CABRERA GOMEZ                    001001
000000329                991569709150          000000000190782VERONICA PLATA AMAYA                    001001
000000330                991166618073          000000000216444SERGIO LOPEZ MORALES                    001001
000000331                991519961992          000000000259931GABRIELA ROSALES RUBIO                  001001
000000332                991145552141          000000000274778SERGIO FERNANDO GARCIA TELLEZ           001001
000000333                991575357775          000000000842545FRANCISCO JAVIER MENDEZ CASTANEDA       001001
000000334                990464404092          000000000274778MARIA LUISA HERRERA LUNA                001001
000000335                991558411867          000000000561129CARLOS JESUS PINON TREJO                001001
000000336                992903641899          000000000274778EVA GONZALEZ ALVAREZ                    001001
000000337                991166469523          000000000205496JUAN CARLOS HERNANDEZ HERNANDEZ         001001
000000338                991207509413          000000000503460JUAN CARLOS BAUTISTA VILLA              001001
000000339                991205500397          000000000254961VICTOR HERNANDEZ SANCHEZ                001001
000000340                991548692270          000000000256699NANCY JAZMIN MARQUEZ PALOMARES          001001
000000341                991548756430          000000000180806DIANA GONZALEZ MARTINEZ                 001001
000000342                992986990924          000000000274778CESAR PAZ FERRER                        001001
000000343                991158406553          000000000233382ANAKAREN VALENCIA GARCIA                001001
000000344                991541566105          000000000328340JOSUE MANUEL ZOZAYA HERNANDEZ           001001
000000345                991541797468          000000000143881MARIA GUADALUPE SANCHEZ CAMACHO         001001
000000346                991536703550          000000000274778LETICIA ARENAS RUEDA                    001001
000000347                991527231809          000000000276510ADRIANA BERENICE AGUILAR ALONSO         001001
000000348                991539654216          000000000328340REBECA ROBLES ARENAS                    001001
000000349                992892744635          000000000388703ANDRES ARTURO MEDINA BERMUDEZ           001001
000000350                991585839674          000000000256699KARLA YARAVITH HERNANDEZ TINOCO         001001
000000351                990461196413          000000000360621CRISTINA MENDIOLA MOSQUEDA              001001
000000352                991529942971          000000000222923DULCE MARIA PERALTA PACHECO             001001
000000353                991164292200          000000000528310ENRIQUE MENDOZA ORTIZ                   001001
000000354                990459796452          000000000587160NICOLAS PADILLA BELTRAN                 001001
000000355                991529936491          000000000328340BLANCA ARGELIA SEVERO VALENCIA          001001
000000356                991529445684          000000000301702IVAN ISMAEL RAMIREZ CRUZ                001001
000000357                991524915755          000000000388801ELSI YARATSEL TOLEDO CHAVEZ             001001
000000358                991525286344          000000000659485GUADALUPE LIBIEL BUSTAMANTE SERENA      001001
000000359                992890345326          000000000328340CATALINA SANTIAGO LEYVA                 001001
000000360                992994304438          000000000274778REYNA OFELIA JACINTO LAGUNA             001001
000000361                992905932300          000000000690045ZURISADAI BURGOS BETANCOURT             001001
000000362                991177614209          000000000454400JUAN EDMUNDO LUNA AGUILLON              001001
000000363                991520381004          000000000230328ELEAZAR MANUEL DAMIAN SANTIAGO          001001
000000364                991138708398          000000000454797RUTH GABRIELA ABARCA MELENDEZ           001001
000000365                991500464848          000000000209135PATRICIA NAVIDAD DE LA LUZ MORALES      001001
000000366                992968545715          000000000486625DAVID LOPEZ RAMIREZ                     001001
000000367                991141025694          000000000274778SUSANA AYDA REYES MARTINEZ              001001
000000368                991589089996          000000000535117CESAR ANASTACIO DEL ANGEL               001001
000000369                991560697764          000000000274778MARIA TERESA PADILLA MIRANDA            001001
000000370                991549317856          000000000440289MARCELA LOPEZ ORTEGA                    001001
000000371                991469088172          000000000438580RAMON MORALES JUAREZ                    001001
000000372                992730471682          000000000274778SILVIA BAUTISTA JUAREZ                  001001
000000373                991169396977          000000000328340OSCAR VICTORIA LOPEZ                    001001
000000374                990188768714          000000001382193FERMIN ALEJANDRO DELGADILLO JUAREZ      001001
000000375                991121179756          000000000638357FRANCISCO PEREZ HERNANDEZ               001001
000000376                992959489169          000000000788939CIPACTLI RINCON MEDRANO                 001001
000000377                991541657917          000000000343099SANDRA ARLETH CUEVAS MARIACA            001001
000000378                990472881071          000000000690045FELICIANO RAMOS JARAMILLO               001001
000000379                992975362237          000000000303340GUSTAVO ALEXIS TORRES MARTINEZ          001001
000000380                991578060200          000000000336490VIRIDIANA RODRIGUEZ GARCIA              001001
000000381                991582133091          000000000534890NANCY LUCERO VARGAS SANTIAGO            001001
000000382                991575384187          000000000534890ANTONIO DE JESUS ALCARAZ REYES          001001
000000383                991569357974          000000000288801MARIA DE LOS ANGELES CARRICHI HERNANDE  001001
000000384                991552312891          000000000511984ALEJANDRO CRUZ ZENON                    001001
000000385                992988771529          000000000417780MARCO ANTONIO CRUZ BAZAN                001001
000000386                991146623948          000000000216444MARTHA LETICIA HUIZAR CARRILLO          001001
000000387                991160743046          000000000690045JUAN LUIS LOPEZ SOTO                    001001
000000388                991517503471          000000000576013JHEIMY CUAUTLE PACHECO                  001001
000000389                991510345973          000000000762645IRMA ESTEPHANIE MARTINEZ LAZCANO        001001
000000390                991580945857          000000000274778ANTONIO MORALES BETANZOS                001001
000000391                991534439582          000000000557060DULCE CAROLINA JUAREZ TORIBIO           001001
000000392                991518358242          000000000575654GERSON JOSUE GARCIA FLORES              001001
000000393                991504059037          000000000397268ALEJANDRA VELAZQUEZ CARMONA             001001
000000394                990171395661          000000000590596RUBEN FLORES GONZALEZ                   001001
000000395                991503385127          000000000376911GEMMA NAYELLY VILLA GUTIERREZ           001001
000000396                992687151055          000000000399434JESICA FRANCISCA JIMENEZ ROMERO         001001
000000397                992688688397          000000001308361FRANCISCO MARTIN TERAN DEL VALLE        001001
000000398                991543564584          000000001078894AIDA LUNA ARTEAGA                       001001
000000399                991494132815          000000000274778AURELIO NICOLAS MALDONADO               001001
000000400                991528112401          000000000788939SARA CASTRO SANTOS                      001001
000000401                991160678708          000000000939448ELIA GARCIA ORTEGA                      001001
000000402                991523117666          000000000416119SANDRA ALICIA NUNEZ CERVANTES           001001
000000403                991413152480          000000000762621MARIA DE LOURDES CERDA TORRES           001001
000000404                991413148343          000000002316510LUIS ANGEL ROMERO HERNANDEZ             001001
000000405                991413152391          000000001532791GABRIELA CORTEZ FLORES                  001001
000000406                992633475816          000000000587451NANCY HERRERA MIRANDA                   001001
000000407                991413152049          000000002976395NATALIA DOMINGUEZ PALACIOS              001001
000000408                991521406515          000000000486641FERNANDO VALENCIA CASTRO                001001
000000409                991551078132          000000000256706NAYELLI VIGUERAS SANCHEZ                001001
000000410                991502482913          000000000274784NEREYDA ANGUIANO RIVERA                 001001
000000411                991280786624          000000000274784MONICA PATRICIA MILLAN NEQUIZ           001001
000000412                991512742230          000000000334325LAURA JANETH BONILLA GRAJALE            001001
