100001E0622202165507462116     06222021
2000020701948ALDAMA                        RODRIGUEZ           MARIA DE LOS ANGELES          56698753904     000000000000089926
2000030030644SANCHEZ                       JIMENEZ             ROSA JANETH                   56685739403     000000000000274784
2000040702533LOZANO                        MARISCAL            SANDRA                        60606405633     000000000000274784
2000050703152RODRIGUEZ                     CRUZ                DIANA GRACIELA HERMILA        56734761074     000000000000274784
2000060703161ZAMORA                        ROSALES             ITZEL IRERI                   56728300755     000000000000274784
2000070703062GUZMAN                        PACHECO             ULISES                        60604510403     000000000000256705
2000080703071TOLENTINO                     TOLENTINO           MARICRUZ                      60612764886     000000000000234455
2000090703545MEJIA                         TAMAYO              LUZ JAZMIN                    56761834411     000000000000227334
2000100703588HERNANDEZ                     SANTILLAN           JOSE MANUEL                   60599918791     000000000000256705
2000110703561PARRA                         RIVERA              BRYAN                         56782414537     000000000000238627
2000120703685MORENO                        NAVARRO             VIANEY IRIS                   60609105207     000000000000274784
2000130703890GERMAN                        CASTANEDA           JACQUELINE                    60582701865     000000000000274784
2000140704195BARAJAS                       BOCANEGRA           ANIA GUADALUPE                56774244517     000000000000284607
2000150704178AGUILAR                       MEJIA               ITZEL DANAE                   56780489117     000000000000256705
2000160901427PIZANO                        ALBINO              JOSE JULIO                    56666328235     000000000000254718
2000170902258MALDONADO                     OCHOA               SARA RAQUEL                   60611767836     000000000000274784
2000180902984GONZALEZ                      VELASCO             YESSICA LISSET                56687837821     000000000000359109
2000190903179ALANIS                        HERNANDEZ           ROSA MARIA                    56761833876     000000000000256705
2000200903755HERNANDEZ                     GARCIA              EMMANUEL                      56799059562     000000000000333552
2000210903898VALLE                         REYNA               LUIS ERNESTO                  56757046279     000000000000399099
2000220905110VAZQUEZ                       SAAVEDRA            JUAN PABLO                    56699173460     000000000000486641
2000230905386MONDRAGON                     MENDOZA             ANGEL ALEXANDER               60620507873     000000000000334325
2000240905546CABRERA                       VALENCIA            ANA BELEM                     56724415861     000000000000274785
2000250905692TREJO                         MENDOZA             FREDY                         56752623559     000000000000534908
2000260905622ROMERO                        HERRERA             LUIS ANTONIO                  56739874840     000000000000259167
2000270906394ARREGUIN                      BANOS               EDUARDO                       56722881515     000000000000433096
2000280906353SALDANA                       SANCHEZ             ABIGAIL                       56798865675     000000000000238629
2000290906357ROMAN                         MATA                DIEGO                         60620370079     000000000000256706
2000300906267GUADARRAMA                    BARRIENTOS          VICTOR BENJAMIN               55507895739     000000000000256706
2000310906159MORENO                        ROSALES             ANA ISABEL                    60616232697     000000000000299209
2000320905736GALLEGOS                      HERNANDEZ           ANA KAREN                     60609167561     000000000000486641
2000330905774ROJAS                         CHAVIRA             ERIK OCTAVIO                  60619005677     000000000000486641
2000340906060OROZCO                        MARTINEZ            LUIS ANTONIO                  56766361010     000000000000299209
2000350906130RAMIREZ                       ORBE                HECTOR IVAN                   56757897442     000000000000274785
2000360906684CANSECO                       GONZALEZ            SERGIO ABRAHAM                56782154817     000000000000274785
2000370906510CRUZ                          CASTRO              NANCY LIZBETH                 25000264060     000000000000239416
2000380906835SANCHEZ                       BERNAL              ROSA MARIA                    56773030868     000000000000334325
2000390906719ANTONIO                       DELGADO             ROSALINO                      56807729724     000000000000274785
2000400907509GARCIA                        GUTIERREZ           CESAR PASCUAL                 60575808446     000000000000256799
2000410907372RODRIGUEZ                     OLVERA              JAVIER DAVID                  60599976373     000000000000358156
2000420907312CRUZ                          MARTINEZ            NIEVES GUADALUPE              56723966529     000000000000358156
30004300041000000000012389605
