10001154519552206210001ADMINISTRACION AISEN SA DE CV       NOMINA 22062021     05                                        C00
2100100000000013510351701701000000000000003743492
300010000000000002747840100000000090380486279                              0000041897BEATRIZ PEDRO PEDRO                                    NOMINA                                                          0000       00
300010000000000004134740100000000090390474597                              0000042460IRVIN URIEL MORA VELAZCO                               NOMINA                                                          0000       00
300010000000000003829480100000000090115556699                              0000700003VIANEY PARRA PORTUGAL                                  NOMINA                                                          0000       00
300010000000000036713540100000000090116598581                              0000700009BRISELDA CORREA FLORES                                 NOMINA                                                          0000       00
300010000000000003831190100000000090116599987                              0000700011LAURA RAMIREZ PALMER                                   NOMINA                                                          0000       00
300010000000000005348890100000000090116606754                              0000700015JOSE ARTURO LOPEZ RAMIREZ                              NOMINA                                                          0000       00
300010000000000001495620100000000090224663551                              0000700017BERNARDO SANCHEZ LOPEZ                                 NOMINA                                                          0000       00
300010000000000003999120100000000090113479638                              0000700019HUGO RIVERA HERNANDEZ                                  NOMINA                                                          0000       00
300010000000000014298990100000000090113070578                              0000700023VERONICA ACACIA PEREZ MORALES                          NOMINA                                                          0000       00
300010000000000003762400100000000090415892739                              0000700024MARIBEL DAVILA JIMENEZ                                 NOMINA                                                          0000       00
300010000000000014096050100000000090116607114                              0000700005EFIGENIA LETICIA ARZOLA HERNANDEZ                      NOMINA                                                          0000       00
300010000000000004866250100000000090113053118                              0000700026DORA PATRICIA ALVARADO GONZALEZ                        NOMINA                                                          0000       00
300010000000000005348900100000000090124804905                              0000700036MARISELA SANCHEZ ANDRADE                               NOMINA                                                          0000       00
300010000000000002882080100000000090145811812                              0000700038VERONICA TORRES CASTILLO                               NOMINA                                                          0000       00
300010000000000003762400100000000090118387367                              0000700042SERGIO SAAVEDRA BETANCOURT                             NOMINA                                                          0000       00
300010000000000003762400100000000090121366729                              0000700045AUDENCIO ZUNIGA LOPEZ                                  NOMINA                                                          0000       00
300010000000000004524970100000000090113226071                              0000700050FELIPE REYES IBARRA                                    NOMINA                                                          0000       00
300010000000000004850060100000000090115557814                              0000700053DANIEL GONZALEZ GARCIA                                 NOMINA                                                          0000       00
300010000000000003547820100000000090124345714                              0000700055GUADALUPE SUAREZ MONTIEL                               NOMINA                                                          0000       00
300010000000000003415130100000000090144937847                              0000700063ALEJANDRA BERENICE ALEMAN PEREZ                        NOMINA                                                          0000       00
300010000000000002747780100000000090241640042                              0000700073JUAN LUIS ORTIZ                                        NOMINA                                                          0000       00
300010000000000002614580100000000090407859927                              0000700080RAMIRO FERNANDEZ BALLADARES                            NOMINA                                                          0000       00
300010000000000001952500100000000090078114389                              0000700082JORGE ANTONIO SOLIS SIBAJA                             NOMINA                                                          0000       00
300010000000000005419010100000000090124551144                              0000700083FRANCISCO RAMOS SERAFIN                                NOMINA                                                          0000       00
300010000000000013821930100000000090082336086                              0000700087JOSE ALBERTO LARA VELAZQUEZ                            NOMINA                                                          0000       00
300010000000000002747780100000000090101370827                              0000700092SOFIA VARGAS HERNANDEZ                                 NOMINA                                                          0000       00
300010000000000002747780100000000090105737385                              0000700096EFREN ALANIS RAMOS                                     NOMINA                                                          0000       00
300010000000000002837570100000000090101600326                              0000700097MAYRA GARZON PEREZ                                     NOMINA                                                          0000       00
300010000000000005017180100000000090109643741                              0000700098RUPERTO NOLASCO HERNANDEZ                              NOMINA                                                          0000       00
300010000000000006530060100000000090107144845                              0000700101MIRNA ORTIZ LABASTIDA                                  NOMINA                                                          0000       00
300010000000000005348890100000000090120942874                              0000700106CINTHIA JANNET ISLAS ESPINOSA                          NOMINA                                                          0000       00
300010000000000008425450100000000090131943945                              0000700108ROBERTO CARLOS ZAMORA MONTOYA                          NOMINA                                                          0000       00
300010000000000002747780100000000090172633489                              0000700151AARON ESCALONA DEL MORAL                               NOMINA                                                          0000       00
300010000000000004866250100000000090361242946                              0000700159ISABEL PEREZ AVENDANO                                  NOMINA                                                          0000       00
300010000000000004324310100000000090176677421                              0000700160MARIANA LEMUS SOTO                                     NOMINA                                                          0000       00
300010000000000005348890100000000090176913389                              0000700161LETICIA DELGADO SANCHEZ                                NOMINA                                                          0000       00
300010000000000006052300100000000090176895011                              0000700162OSCAR ISMAEL LOZANO GARZON                             NOMINA                                                          0000       00
300010000000000002747780100000000090178690077                              0000700164CLAUDIO RICARDO MARTINEZ FERNANDEZ                     NOMINA                                                          0000       00
300010000000000006500120100000000090180114121                              0000700166YOCOXOCHITL SELEN VARGAS LIRA                          NOMINA                                                          0000       00
300010000000000007889390100000000090128897266                              0000700115YULIANA JUAREZ ROQUE                                   NOMINA                                                          0000       00
300010000000000003631070100000000090139194429                              0000700122CELSO PEREZ LEON                                       NOMINA                                                          0000       00
300010000000000003545680100000000090146733572                              0000700127SILVIA SEVERO TOLENTINO                                NOMINA                                                          0000       00
300010000000000005348890100000000090151846962                              0000700132ROCIO REYES GARCIA                                     NOMINA                                                          0000       00
300010000000000002566990100000000090159837288                              0000700137MARIA ELENA TREJO LEON                                 NOMINA                                                          0000       00
300010000000000001245630100000000090169524776                              0000700144MARIA DE JESUS LEON REYES                              NOMINA                                                          0000       00
300010000000000003971710100000000090181139977                              0000700168JOSE FRANCISCO SERRANO DONGU                           NOMINA                                                          0000       00
300010000000000004594970100000000090185469114                              0000700173JOSE LUIS CONTRERAS MARTINEZ                           NOMINA                                                          0000       00
300010000000000003758390100000000090185703354                              0000700174SANDRA YESSICA NORIEGA DIRECTA                         NOMINA                                                          0000       00
300010000000000002459320100000000090192731703                              0000700187MARIA GABRIELA MORALES CHAVEZ                          NOMINA                                                          0000       00
300010000000000016060650100000000090193949834                              0000700189EFRAIN SAMANO DIAZ                                     NOMINA                                                          0000       00
300010000000000022411640100000000090194383028                              0000700190YENDERINA VARGAS BAHENA                                NOMINA                                                          0000       00
300010000000000007889390100000000090194328787                              0000700191ELIZABETH GONZALEZ SOSA                                NOMINA                                                          0000       00
300010000000000004334600100000000090183240322                              0000700195RAUL IGNACIO CAMACHO HERNANDEZ                         NOMINA                                                          0000       00
300010000000000004688680100000000090201005859                              0000700196EPIFANIA EUGENIO ANACLETO                              NOMINA                                                          0000       00
300010000000000008657430100000000090204330904                              0000700199NAYELI LIZETH MENDOZA MONDRAGON                        NOMINA                                                          0000       00
300010000000000004789400100000000090207211779                              0000700210MARCOS JIMENEZ MENDOZA                                 NOMINA                                                          0000       00
300010000000000013821930100000000090211387083                              0000700215MIGUEL ANGEL ALCANTARA AGUILAR                         NOMINA                                                          0000       00
300010000000000003303110100000000090211744773                              0000700217ROSALINDA LARA LARA                                    NOMINA                                                          0000       00
300010000000000003503110100000000090212264619                              0000700220GRISSEL SANCHEZ BALDERAS                               NOMINA                                                          0000       00
300010000000000005178790100000000090213708049                              0000700221ALBERTO FRANCISCO GONZALEZ LOPEZ                       NOMINA                                                          0000       00
300010000000000002573000100000000090216678817                              0000700230GABRIELA TERESA GAYOSSO RANGEL                         NOMINA                                                          0000       00
300010000000000019954470100000000090217535122                              0000700231GUILLERMO DURAN NAVARRO                                NOMINA                                                          0000       00
300010000000000002333390100000000090222176637                              0000700233FERNANDO GARDUNO DE LA CRUZ                            NOMINA                                                          0000       00
300010000000000005348900100000000090224870301                              0000700236REYNA LOPEZ URBANO                                     NOMINA                                                          0000       00
300010000000000002129980100000000090225436788                              0000700239ADRIANA HERNANDEZ LOPEZ                                NOMINA                                                          0000       00
300010000000000005364440100000000090229591222                              0000700246JUDITH PATRICIA SERRANO HERRERA                        NOMINA                                                          0000       00
300010000000000003351160100000000090230260701                              0000700248MANUEL GONZALEZ RAMIREZ                                NOMINA                                                          0000       00
300010000000000001437990100000000090230590116                              0000700250MARIA ISABEL PACHECO AVILA                             NOMINA                                                          0000       00
300010000000000005024010100000000090113072287                              0000700071JOSE ANTONIO ISLAS VERA                                NOMINA                                                          0000       00
300010000000000005348900100000000090191524682                              0000700185MONICA EDUARDO VALENCIA                                NOMINA                                                          0000       00
300010000000000007954970100000000090232246668                              0000700257LUIS ADRIAN ORTIZ ZARZA                                NOMINA                                                          0000       00
300010000000000002635530100000000090234122893                              0000700262MARIA DOLORES ORTIZ ORTIZ                              NOMINA                                                          0000       00
300010000000000005288100100000000090236316954                              0000700266FREDY ANTONIO RIOS GONZALEZ                            NOMINA                                                          0000       00
300010000000000002747780100000000090235428236                              0000700269ABIGAIL ALEJO SANTIAGO                                 NOMINA                                                          0000       00
300010000000000002919540100000000070087412650                              0000700295MIRIAM SONIA ORTIZ MARTINEZ                            NOMINA                                                          0000       00
300010000000000004866250100000000090241443611                              0000700297MARIA TERESA MAYA MARTINEZ                             NOMINA                                                          0000       00
300010000000000000592400100000000090241657441                              0000700298MARIA GUADALUPE GARDUNO ARANA                          NOMINA                                                          0000       00
300010000000000001702440100000000090242451723                              0000700299MARIA DE LOURDES CAMPUZANO ESTRADA                     NOMINA                                                          0000       00
300010000000000002929010100000000090243118017                              0000700301IVONNE VALLEJO CORTES                                  NOMINA                                                          0000       00
300010000000000003762400100000000090243012197                              0000700302SERAPIO PRECIADO SANCHEZ                               NOMINA                                                          0000       00
300010000000000003445080100000000090243399563                              0000700304GENNY YANETH MARURI CRUZ                               NOMINA                                                          0000       00
300010000000000002956370100000000090243962349                              0000700305GRACIELA LOPEZ LOPEZ                                   NOMINA                                                          0000       00
300010000000000003364900100000000090244218546                              0000700307ROSA ISELA ENCISO VILLARREAL                           NOMINA                                                          0000       00
300010000000000006900450100000000090245107209                              0000700312DANIEL ARTURO GARRIDO SOLORZANO                        NOMINA                                                          0000       00
300010000000000002810730100000000090235890606                              0000700272JAZMIN BARRIENTOS ESPARZA                              NOMINA                                                          0000       00
300010000000000002747780100000000090173126904                              0000700277MAURICIO GONZALEZ CORTES                               NOMINA                                                          0000       00
300010000000000003351160100000000090237252534                              0000700278GUSTAVO ARREOLA LEON                                   NOMINA                                                          0000       00
300010000000000003840020100000000090237067516                              0000700279RICARDO VELAZQUEZ GOMORA                               NOMINA                                                          0000       00
300010000000000004619750100000000090239721086                              0000700289JESUS ALEJANDRO ALMANZA HERNANDEZ                      NOMINA                                                          0000       00
300010000000000006674030100000000090240610115                              0000700292ITZEL BERENICE GARCIA PADILLA                          NOMINA                                                          0000       00
300010000000000001705800100000000090249597472                              0000700318LAURA FABIOLA HERNANDEZ CASTILLO                       NOMINA                                                          0000       00
300010000000000009600960100000000090250375548                              0000700319JAVIER LOPEZ RIVAS                                     NOMINA                                                          0000       00
300010000000000015234120100000000090251462126                              0000700322JESUS ALBERTO PEREZ ONTIVEROS                          NOMINA                                                          0000       00
300010000000000002929010100000000090251392896                              0000700324ELEUTERIO ALVAREZ GARCIA                               NOMINA                                                          0000       00
300010000000000001732300100000000090397007684                              0000700326RODOLFO HERNANDEZ CERNA                                NOMINA                                                          0000       00
300010000000000003762400100000000090252008828                              0000700327HUGO GARCIA GONZALEZ                                   NOMINA                                                          0000       00
300010000000000003362600100000000090240649534                              0000700329NIDYA YOLANDA PEREZ CASTRO                             NOMINA                                                          0000       00
300010000000000003415130100000000090253406886                              0000700330YOSSELIN MARIELA ORTEGA SANCHEZ                        NOMINA                                                          0000       00
300010000000000002747780100000000090253630778                              0000700331JOSE DIDIER DIAZ PEREZ                                 NOMINA                                                          0000       00
300010000000000002747780100000000090255180648                              0000700337MARIO AMADO BUENABAD LAZCANO                           NOMINA                                                          0000       00
300010000000000004618030100000000090255552324                              0000700339ISIDORO ALEJANDRO NAVA LOPEZ                           NOMINA                                                          0000       00
300010000000000003283400100000000090256696559                              0000700343ANAYELI GALLARDO BENITEZ                               NOMINA                                                          0000       00
300010000000000002535430100000000090258717731                              0000700351LUIS ANTONIO SERRANO DONGU                             NOMINA                                                          0000       00
300010000000000006790610100000000090259928515                              0000700353JULIO ANTONIO GONZALEZ RODRIGUEZ                       NOMINA                                                          0000       00
300010000000000008386030100000000090259938642                              0000700354EVELYN LEON CRUZ                                       NOMINA                                                          0000       00
300010000000000003379640100000000090263262955                              0000700360JOSE GUADALUPE GOMEZ SOLACHE                           NOMINA                                                          0000       00
300010000000000006293220100000000090264272938                              0000700364SHEILA ISABEL MONDRAGON OJEDA                          NOMINA                                                          0000       00
300010000000000002352770100000000090193634574                              0000700369DANIEL RAMIREZ AVILA                                   NOMINA                                                          0000       00
300010000000000008365930100000000090266969669                              0000700379MARISELA ROMERO ROCHA                                  NOMINA                                                          0000       00
300010000000000007889390100000000090269684134                              0000700388CHRISTIAN IVAN AGUILAR QUISTIAN                        NOMINA                                                          0000       00
300010000000000002414450100000000090273384412                              0000700402FRANCISCO CHAVEZ AGUILAR                               NOMINA                                                          0000       00
300010000000000004058130100000000090274397658                              0000700405ADRIANA VAZQUEZ CAMACHO                                NOMINA                                                          0000       00
300010000000000004866250100000000090274444222                              0000700410LUIS ALBERTO FELIPE MARTINEZ                           NOMINA                                                          0000       00
300010000000000001896210100000000090278413534                              0000700418JOSE MIRANDA RAMIREZ                                   NOMINA                                                          0000       00
300010000000000002658920100000000090217289474                              0000700422ARMANDO MEDINA GUTIERREZ                               NOMINA                                                          0000       00
300010000000000005348900100000000090287145755                              0000700447BEDSAIDA PEREZ LAZCANO                                 NOMINA                                                          0000       00
300010000000000007307520100000000090287597842                              0000700452CESAR GARDUNO BARAJAS                                  NOMINA                                                          0000       00
300010000000000004915060100000000090244206157                              0000700453EDDIE BRANDON TRONCOSO GALINDO                         NOMINA                                                          0000       00
300010000000000002747780100000000090289304702                              0000700454LUZ ELENA AGUILAR JAIMES                               NOMINA                                                          0000       00
300010000000000003283400100000000090283934917                              0000700436HUGO IVAN CABRERA GOMEZ                                NOMINA                                                          0000       00
300010000000000002450390100000000090289754627                              0000700459YAZMIN PENALOZA MORALES                                NOMINA                                                          0000       00
300010000000000002367400100000000090290737442                              0000700460AVITO PACHECO DIAZ                                     NOMINA                                                          0000       00
300010000000000003762400100000000090291351661                              0000700472MARIA ELENA ORTEGA HERNANDEZ                           NOMINA                                                          0000       00
300010000000000003231760100000000090271085493                              0000700473JAIR ADRIAN ROJAS MENESES                              NOMINA                                                          0000       00
300010000000000005721820100000000090242918036                              0000700474CLAUDIA ADRIANA VEGA SERRET                            NOMINA                                                          0000       00
300010000000000003231760100000000090294554628                              0000700481PERLA XOCHITL MONTIEL VAZQUEZ                          NOMINA                                                          0000       00
300010000000000002751820100000000090297556273                              0000700486LIZBETH BISTRAIN RAMOS                                 NOMINA                                                          0000       00
300010000000000005899990100000000090398064517                              0000700488WILLIAM ELIUD LUIS AMADOR                              NOMINA                                                          0000       00
300010000000000003524450100000000090309769685                              0000700494EMMANUEL JUAREZ RAMIREZ                                NOMINA                                                          0000       00
300010000000000001397180100000000090246616301                              0000700500NORMA ARACELI DOMINGUEZ JAIME                          NOMINA                                                          0000       00
300010000000000004123350100000000090341951746                              0000700518ALEXIS GRANADOS PEREZ                                  NOMINA                                                          0000       00
300010000000000003283400100000000090346738749                              0000700535MARIANA HERNANDEZ MARTINEZ                             NOMINA                                                          0000       00
300010000000000004866250100000000090347830851                              0000700540LUIS ROBERTO MESINAS ACEVEDO                           NOMINA                                                          0000       00
300010000000000003901060100000000090348003509                              0000700543MARYSOL FIGUEROA REY                                   NOMINA                                                          0000       00
300010000000000003283400100000000090349494859                              0000700554GUADALUPE GRISELDA CARRILLO ORDAZ                      NOMINA                                                          0000       00
300010000000000006900450100000000090252388817                              0000700557ANDRES ISAAC GARCIA HERNANDEZ                          NOMINA                                                          0000       00
300010000000000001450310100000000090350532691                              0000700564MARIA CRISTINA HERNANDEZ CRUZ                          NOMINA                                                          0000       00
300010000000000011514520100000000090265054438                              0000700567KARLHOS MANUEL RODRIGO ACOSTA CANALES                  NOMINA                                                          0000       00
300010000000000004491590100000000090341449501                              0000700515DANIELA VIRIDIANA MORALES OLGUIN                       NOMINA                                                          0000       00
300010000000000002066410100000000090354764562                              0000700580JESUS REYES MORALES                                    NOMINA                                                          0000       00
300010000000000003595430100000000090358913643                              0000700598JONATHAN GARCIA HERRERA                                NOMINA                                                          0000       00
300010000000000005357660100000000090357869187                              0000700599LUIS GONZALEZ ZAMUDIO                                  NOMINA                                                          0000       00
300010000000000002747780100000000090359561988                              0000700610VIANEEY LOPEZ MORALES                                  NOMINA                                                          0000       00
300010000000000004866250100000000090359435818                              0000700615SILVIA AMADOR GOMEZ                                    NOMINA                                                          0000       00
300010000000000003888010100000000090358063658                              0000700617ALBERTO ADRIAN RODRIGUEZ CASTELO                       NOMINA                                                          0000       00
300010000000000006900450100000000090360100986                              0000700621LADY PALOMARES MARTINEZ                                NOMINA                                                          0000       00
300010000000000003831420100000000090355833894                              0000700587NANCY PENA VIDAL                                       NOMINA                                                          0000       00
300010000000000002566990100000000090355675121                              0000700588ROSALIA ISLAS QUINTERO                                 NOMINA                                                          0000       00
300010000000000003015500100000000090360681482                              0000700629ARIANA SANCHEZ SORIANO                                 NOMINA                                                          0000       00
300010000000000001154510100000000090364364635                              0000700647ELVIA MARTINEZ PERALTA                                 NOMINA                                                          0000       00
300010000000000003297890100000000090361968637                              0000700639GUSTAVO PEREZ AGUIRRE                                  NOMINA                                                          0000       00
300010000000000001411340100000000090366265405                              0000700663PAULINO OCHOA ANGELES                                  NOMINA                                                          0000       00
300010000000000001458050100000000090366486126                              0000700667CARLOS ENRIQUE RAMIREZ SANCHEZ                         NOMINA                                                          0000       00
300010000000000001918150100000000090368168385                              0000700677ANDREA RIVAS MORALES                                   NOMINA                                                          0000       00
300010000000000003606210100000000090370185203                              0000700699PATRICIA OLVERA FUENTES                                NOMINA                                                          0000       00
300010000000000002908780100000000090370279097                              0000700700JUAN MANUEL ORDAZ DE LA CRUZ                           NOMINA                                                          0000       00
300010000000000003283400100000000090371154026                              0000700690YULIANA PATRICIA HERNANDEZ TOBON                       NOMINA                                                          0000       00
300010000000000003283400100000000090282088273                              0000700718CINTHIA OROZCO CRUZ                                    NOMINA                                                          0000       00
300010000000000001533430100000000090006178005                              0000700725JUDITH BOCANEGRA VAZQUEZ                               NOMINA                                                          0000       00
300010000000000002747780100000000090374194991                              0000700726EDITH FONSECA TREJO                                    NOMINA                                                          0000       00
300010000000000001980590100000000090164540501                              0000700731OSCAR RIVERA GOMEZ                                     NOMINA                                                          0000       00
300010000000000001570590100000000090373046646                              0000700737SILVIA MONROY MARQUEZ                                  NOMINA                                                          0000       00
300010000000000002641970100000000090377640003                              0000700757SANDRA SANTIAGO ZARATE                                 NOMINA                                                          0000       00
300010000000000002747780100000000090375910917                              0000700744MARIANELA REBOLLEDO CASTRO                             NOMINA                                                          0000       00
300010000000000002747780100000000090380501197                              0000700779ERIKA GONZALEZ CRUZ                                    NOMINA                                                          0000       00
300010000000000004866250100000000090381678589                              0000700794INDALECIO PEREDA OTANEZ                                NOMINA                                                          0000       00
300010000000000002747780100000000090381639001                              0000700796JORGE LORENZO LOVERA                                   NOMINA                                                          0000       00
300010000000000006156190100000000090368336555                              0000700806GUADALUPE CITLALI LAZCANO PENA                         NOMINA                                                          0000       00
300010000000000011300210100000000090009587887                              0000700808JAVIER VEGA GODINEZ                                    NOMINA                                                          0000       00
300010000000000013061970100000000090289251498                              0000700829RICARDO IBARRA LOZANO                                  NOMINA                                                          0000       00
300010000000000002078330100000000090354462353                              0000700839CARLOS ARTURO MARTINEZ RAMIREZ                         NOMINA                                                          0000       00
300010000000000004866250100000000090384740625                              0000700843CINTYA YAZMIN PUON CASTRO                              NOMINA                                                          0000       00
300010000000000002747780100000000090385650417                              0000700851LUIS ALBERTO PANO GUERRERO                             NOMINA                                                          0000       00
300010000000000002747780100000000090386155207                              0000700861SAYRA GUADALUPE TORRES HERRERA                         NOMINA                                                          0000       00
300010000000000002343980100000000090386907845                              0000700869NANCY VERONICA MONTOYA GONZALEZ                        NOMINA                                                          0000       00
300010000000000002747780100000000090386045584                              0000700872MARIA CRISTINA PEREZ VIVAR                             NOMINA                                                          0000       00
300010000000000002047730100000000090388786581                              0000700899JORGE GUILLERMO GARCIA CABALLERO                       NOMINA                                                          0000       00
300010000000000003283400100000000090388400837                              0000700900RODRIGO MOCTEZUMA VILLEGAS                             NOMINA                                                          0000       00
300010000000000002747780100000000090389054711                              0000700904LAURA LIZBETH GUTIERREZ VILLEGAS                       NOMINA                                                          0000       00
300010000000000004279830100000000090389425558                              0000700908CESAR ALEJANDRO RAMIREZ GARCIA                         NOMINA                                                          0000       00
300010000000000006178480100000000070135581931                              0000700919DANIEL BRITO MORENO                                    NOMINA                                                          0000       00
300010000000000003283400100000000090390822781                              0000700932INGRID JESSICA LOPEZ ROANO                             NOMINA                                                          0000       00
300010000000000003283400100000000090390997204                              0000700936JUDITH DEL CARMEN TREJO DEL TORO                       NOMINA                                                          0000       00
300010000000000002134460100000000090380690925                              0000700785JESSICA MARIA GONZALEZ SANTILLAN                       NOMINA                                                          0000       00
300010000000000003283400100000000090393140576                              0000700981LEYDA ABRIL MATIAS ORTIZ                               NOMINA                                                          0000       00
300010000000000002720500100000000090393944047                              0000700997SARAI ORTELA ALEMAN                                    NOMINA                                                          0000       00
300010000000000002080840100000000090353645489                              0000701010JUAN CARLOS FUENTES TABLEROS                           NOMINA                                                          0000       00
300010000000000005348900100000000090298259388                              0000701018JOSE DANIEL DURAN ZEPEDA                               NOMINA                                                          0000       00
300010000000000003762400100000000090395108785                              0000701021LAURA ANGELICA MARTINEZ CABALLERO                      NOMINA                                                          0000       00
300010000000000002747780100000000090396051213                              0000701041MARIA DE JESUS SOTO QUIJADA                            NOMINA                                                          0000       00
300010000000000005506330100000000090400676517                              0000701134FRANCISCO VELAZQUEZ BLANCAS                            NOMINA                                                          0000       00
300010000000000002566990100000000090255869735                              0000701148DANIEL ANZUREZ GOMEZ                                   NOMINA                                                          0000       00
300010000000000002747780100000000090401188702                              0000701149ALMA BEATRIZ BECERRA GASPAR                            NOMINA                                                          0000       00
300010000000000002747780100000000090402041861                              0000701165CARLOS CABRERA ARELLANO                                NOMINA                                                          0000       00
300010000000000001840850100000000090395551565                              0000701031KENIA GUADALUPE SOLANO BASULTO                         NOMINA                                                          0000       00
300010000000000002747780100000000090395908854                              0000701037ARACELI LOPEZ RAMIREZ                                  NOMINA                                                          0000       00
300010000000000002747780100000000090406049077                              0000701257LILIAN GUTIERREZ LOPEZ                                 NOMINA                                                          0000       00
300010000000000002845110100000000090407169254                              0000701270ANDREA HERNANDEZ HERNANDEZ                             NOMINA                                                          0000       00
300010000000000003307580100000000090235966297                              0000701345JOSE GUADALUPE TELLEZ GONZALEZ                         NOMINA                                                          0000       00
300010000000000004671140100000000090228799644                              0000701348BEATRIZ MORALES BELMONT                                NOMINA                                                          0000       00
300010000000000003143600100000000090209931817                              0000701350VIVIANA ELIZABETH MARTINEZ AVELINO                     NOMINA                                                          0000       00
300010000000000002955210100000000090267879701                              0000701352OYUKI DEYANIRA GUEVARA GODINEZ                         NOMINA                                                          0000       00
300010000000000004896810100000000090133925308                              0000701353MARIA JUANA ROBLES MELCHOR                             NOMINA                                                          0000       00
300010000000000004229470100000000090250715101                              0000701356ELIZABETH ROSAS MARTINEZ                               NOMINA                                                          0000       00
300010000000000003129800100000000090264607174                              0000701357ALEJANDRA ORTEGA JUAREZ                                NOMINA                                                          0000       00
300010000000000003283400100000000090266332768                              0000701302MARIA GUADALUPE MENDOZA MARTINEZ                       NOMINA                                                          0000       00
300010000000000000429230100000000090408683784                              0000701307EFRAIN TREJO SORIA                                     NOMINA                                                          0000       00
300010000000000004671170100000000090295049641                              0000701359EVELYN LOPEZ RODRIGUEZ                                 NOMINA                                                          0000       00
300010000000000003433270100000000090363857948                              0000701360MARCO ANTONIO RAMIREZ CORTEZ                           NOMINA                                                          0000       00
300010000000000004051510100000000090146697258                              0000701362ARACELI PEREZ RESENOS                                  NOMINA                                                          0000       00
300010000000000003648440100000000090231578853                              0000701368DAVID ORTIZ ROJAS                                      NOMINA                                                          0000       00
300010000000000003900420100000000090293482615                              0000701369MARIA DE LOURDES GARCIA TORRES                         NOMINA                                                          0000       00
300010000000000003364820100000000090233704511                              0000701371ANA ROSA EMILIANO ARZATE                               NOMINA                                                          0000       00
300010000000000003075080100000000090195120861                              0000701373BERTHA EMMA ALVAREZ ALVAREZ                            NOMINA                                                          0000       00
300010000000000007085300100000000090274713517                              0000701382MARIA DE LA CRUZ EMBATI RAMIREZ                        NOMINA                                                          0000       00
300010000000000004765560100000000090411387266                              0000701422IGNACIO ROSAS PEREZ                                    NOMINA                                                          0000       00
300010000000000002747780100000000090411156329                              0000701445ARLETTE YADIRA JUAREZ PEREZ                            NOMINA                                                          0000       00
300010000000000003762400100000000090412012576                              0000701461ROSALIA RODRIGUEZ VANEGAS                              NOMINA                                                          0000       00
300010000000000002992000100000000090388830572                              0000701550DANIELA ADMIN SOLARES GOMEZ                            NOMINA                                                          0000       00
300010000000000003500650100000000090258144642                              0000701594GUADALUPE PAULINA ARANDA TENORIO                       NOMINA                                                          0000       00
300010000000000003283400100000000090374395024                              0000701511ANAHI YAZBECK LOPEZ RAMIREZ                            NOMINA                                                          0000       00
300010000000000001983650100000000090412700197                              0000701543ALAN SEBASTIAN NUNEZ VERA                              NOMINA                                                          0000       00
300010000000000002747780100000000090414262286                              0000701625OMAR TINOCO PUNTOS                                     NOMINA                                                          0000       00
300010000000000008627760100000000090433799959                              0000701681FERNANDO HERNANDEZ CORNEJO                             NOMINA                                                          0000       00
300010000000000003887010100000000090216954016                              0000701734LAURA FLORES HERNANDEZ                                 NOMINA                                                          0000       00
300010000000000002339870100000000090423278284                              0000701804VICTOR MANUEL ESCOBAR NUNEZ                            NOMINA                                                          0000       00
300010000000000002259430100000000090213319859                              0000701870DULCE YURIDIA VILLEGAS PINA                            NOMINA                                                          0000       00
300010000000000008197930100000000090440102742                              0000701884FERNANDO MARTINEZ RODRIGUEZ                            NOMINA                                                          0000       00
300010000000000002747780100000000090419120285                              0000701940JESSICA JIMENEZ SANCHEZ                                NOMINA                                                          0000       00
300010000000000003343160100000000090414710777                              0000701634EDWIN ANTONY AYALA AYALA                               NOMINA                                                          0000       00
300010000000000001745240100000000090420222148                              0000701961VERONICA AVENDANO GUTIERREZ                            NOMINA                                                          0000       00
300010000000000002934410100000000090420893921                              0000702024YESICA ARLET GUTIERREZ AREVALO                         NOMINA                                                          0000       00
300010000000000003101790100000000090420798481                              0000702149EVA RODRIGUEZ TORRES                                   NOMINA                                                          0000       00
300010000000000004866410100000000090364134702                              0000702158LUIS MANUEL HERNANDEZ BAUTISTA                         NOMINA                                                          0000       00
300010000000000002747840100000000090422580629                              0000702178ANA KAREN NAZARIO TAPIA                                NOMINA                                                          0000       00
300010000000000001966560100000000090422857388                              0000702195GREGORIO VAZQUEZ TELLEZ                                NOMINA                                                          0000       00
300010000000000003429810100000000090401073905                              0000702210DIANA PAMELA GONZALEZ SOSA                             NOMINA                                                          0000       00
300010000000000003818440100000000090424239371                              0000702212ALEJANDRO MARTINEZ CORDOVA                             NOMINA                                                          0000       00
300010000000000002747840100000000090261561513                              0000702265ADRIANA PATRICIA REYES MARTINEZ                        NOMINA                                                          0000       00
300010000000000002747840100000000090423569122                              0000702283ANA KORINA TOLEDO SANTOS                               NOMINA                                                          0000       00
300010000000000005316920100000000090148157919                              0000702070ARACELI OLGUIN ALARCON                                 NOMINA                                                          0000       00
300010000000000002747840100000000090432026158                              0000702335HASSDAL FRANCISCO VALERIANO CARBALLO                   NOMINA                                                          0000       00
300010000000000002747840100000000090424750823                              0000702340EMILIO GUZMAN LOPEZ                                    NOMINA                                                          0000       00
300010000000000002747840100000000090425714642                              0000702415ABRAHAM LOPEZ SUAREZ                                   NOMINA                                                          0000       00
300010000000000000216340100000000090162366539                              0000702361CARLOS LOPEZ PORRAS                                    NOMINA                                                          0000       00
300010000000000002618130100000000090216746456                              0000702398JOSE BARRERA NAVARRETE                                 NOMINA                                                          0000       00
300010000000000002747840100000000090409609081                              0000702525EZEQUIEL AVILES FRANCISCO                              NOMINA                                                          0000       00
300010000000000004866410100000000070175360954                              0000702711CLAUDIA NAYELLI LEYVA SOTO                             NOMINA                                                          0000       00
300010000000000002747840100000000090429003783                              0000702717FERNANDO SANCHEZ VAZQUEZ                               NOMINA                                                          0000       00
300010000000000002747840100000000090387134386                              0000702807ALMA ROSA MORALES JIMENEZ                              NOMINA                                                          0000       00
300010000000000001791040100000000090392548083                              0000702822HUGO ADRIAN MUNOZ HERNANDEZ                            NOMINA                                                          0000       00
300010000000000002747840100000000090437414164                              0000702917MARIA DE LOS ANGELES MARCELINO SOCORRO                 NOMINA                                                          0000       00
300010000000000002747840100000000090119346036                              0000702924AURELIA VARGAS VENANCIO                                NOMINA                                                          0000       00
300010000000000003023170100000000090219677285                              0000702934JUAN CARLOS VAZQUEZ RIANO                              NOMINA                                                          0000       00
300010000000000004449740100000000090435717526                              0000702786DULCE JANNET RODRIGUEZ RAMIREZ                         NOMINA                                                          0000       00
300010000000000002747840100000000090431433655                              0000702950JOSE DE JESUS HERNANDEZ LOBATO                         NOMINA                                                          0000       00
300010000000000002747840100000000090431746998                              0000702961MARITZA ISABEL SANCHEZ GARCIA                          NOMINA                                                          0000       00
300010000000000002218320100000000090430435328                              0000703089GUSTAVO SACRAMENTO ARCOS                               NOMINA                                                          0000       00
300010000000000002535290100000000090260220038                              0000703093LIZBETH MERCEDES PALMERO LEON                          NOMINA                                                          0000       00
300010000000000002747840100000000090148677351                              0000702972JOSE ANTONIO ISLAS VICTORES                            NOMINA                                                          0000       00
300010000000000006900700100000000090188329283                              0000702984TEOFILO SANCHEZ RUIZ                                   NOMINA                                                          0000       00
300010000000000002747840100000000090278478881                              0000703040ALEJANDRO CARRILLO DELGADILLO                          NOMINA                                                          0000       00
300010000000000004866410100000000070143160430                              0000703218OSCAR JIMENEZ CERVANTES                                NOMINA                                                          0000       00
300010000000000002747840100000000090293043611                              0000703251ANA LAURA GUTIERREZ GONZALEZ                           NOMINA                                                          0000       00
300010000000000002331170100000000090359912853                              0000703325JULIA GABRIELA GARCIA MARTINEZ                         NOMINA                                                          0000       00
300010000000000002045170100000000090433717359                              0000703363CITLALI MONSERRATH SALGADO SERRA                       NOMINA                                                          0000       00
300010000000000002567050100000000090235841214                              0000703378LIZBETH AGUILAR GONZALEZ                               NOMINA                                                          0000       00
300010000000000002065960100000000090422963757                              0000703431JESUS GARCIA HERNANDEZ                                 NOMINA                                                          0000       00
300010000000000002579760100000000090207420424                              0000703434ISAAC ELIAS CASTRO BELLO                               NOMINA                                                          0000       00
300010000000000003662810100000000090115557423                              0000703435JOSE NARNO LOPEZ CARRASCO                              NOMINA                                                          0000       00
300010000000000001407880100000000090438569722                              0000703465MAURA RAMIREZ NAVARRETE                                NOMINA                                                          0000       00
300010000000000002747840100000000090370087392                              0000703487ELIAS REYES RAMIREZ                                    NOMINA                                                          0000       00
300010000000000002603010100000000090433640402                              0000703565JAVIER ROEL PLATA RAZO                                 NOMINA                                                          0000       00
300010000000000002164500100000000090295648812                              0000703574JORGE BRAYAN GARCIA ESCOBAR                            NOMINA                                                          0000       00
300010000000000002055370100000000090433685597                              0000703683LETICIA MESINAS ACEVEDO                                NOMINA                                                          0000       00
300010000000000003762500100000000090388846657                              0000703763NOEMI MORALES MONTES                                   NOMINA                                                          0000       00
300010000000000004104880100000000070115401589                              0000703774YARELLI GUADALUPE VELAZQUEZ APARICIO                   NOMINA                                                          0000       00
300010000000000004866410100000000090237947753                              0000703827MONSERRAT LOPEZ TORRES                                 NOMINA                                                          0000       00
300010000000000002747840100000000090297830464                              0000703854MARIA GUADALUPE ARROYO FLORES                          NOMINA                                                          0000       00
300010000000000006900700100000000090251087228                              0000703855ALEJANDRO CARREON RODRIGUEZ                            NOMINA                                                          0000       00
300010000000000002747840100000000090442644127                              0000703716ERIKA PAOLA OBREGON GARCIA                             NOMINA                                                          0000       00
300010000000000002747840100000000090435114139                              0000703893JOANA ROCIO MORALES BAUTISTA                           NOMINA                                                          0000       00
300010000000000002747840100000000090408105209                              0000703909MARIA MERCEDES MARTINEZ HERNANDEZ                      NOMINA                                                          0000       00
300010000000000002747840100000000090437925851                              0000703931EDGAR YAIR INOCENCIO VARGAS                            NOMINA                                                          0000       00
300010000000000002747840100000000090428315536                              0000704163JESSICA YAZMIN ISLAS ANGUIANO                          NOMINA                                                          0000       00
300010000000000003624910100000000090329716499                              0000704170VICTOR MANUEL SANCHEZ PEREZ                            NOMINA                                                          0000       00
300010000000000004866410100000000090445244634                              0000704180JOSE LUIS ALCALA MUNGUIA                               NOMINA                                                          0000       00
300010000000000002747840100000000090398952013                              0000704208JULIAN GUILLERMO JUAREZ RIOS                           NOMINA                                                          0000       00
300010000000000006801280100000000090165423738                              0000704225IVAN ASKARI LEON HEREDIA                               NOMINA                                                          0000       00
300010000000000005349080100000000090115458204                              0000704226GABRIEL HERNANDEZ CRUZ                                 NOMINA                                                          0000       00
300010000000000010169750100000000090214092238                              0000705000MIGUEL ANGEL NAVEZ LOBERA                              NOMINA                                                          0000       00
300010000000000002747840100000000090206883552                              0000901001SUSANA SAUCEDO ESTRADA                                 NOMINA                                                          0000       00
300010000000000001882840100000000090405730889                              0000901261SUSANA ALEJANDRA LOPEZ PLATA                           NOMINA                                                          0000       00
300010000000000002281190100000000090296180806                              0000901280RICARDO GONZALEZ JUAREZ                                NOMINA                                                          0000       00
300010000000000000419800100000000090408790491                              0000901487MIGUEL ANGEL ROMULO LOPEZ                              NOMINA                                                          0000       00
300010000000000002747840100000000090264775727                              0000901691MARICELA ALEJANDRO CANO                                NOMINA                                                          0000       00
300010000000000002331170100000000090448106992                              0000901745YAZMIN CATALINA CANO VALERIO                           NOMINA                                                          0000       00
300010000000000002747840100000000090408303914                              0000901437ERIK SANCHEZ RODRIGUEZ                                 NOMINA                                                          0000       00
300010000000000002747840100000000090442122066                              0000901467EDGAR IVAN VERA PICAZO                                 NOMINA                                                          0000       00
300010000000000004283070100000000070162247121                              0000902030BEATRIZ ALARCON CHAVEZ                                 NOMINA                                                          0000       00
300010000000000002747840100000000070148260670                              0000902184ALAN DANIEL GUERRERO JIMENEZ                           NOMINA                                                          0000       00
300010000000000002747840100000000090450875758                              0000902571ANGEL DANIEL GONZALEZ PEREZ                            NOMINA                                                          0000       00
300010000000000001273340100000000090433323113                              0000902818ALBERTO BALDERAS CRUZ                                  NOMINA                                                          0000       00
300010000000000002747840100000000090178853685                              0000902849PEDRO ALFONSO MEJIA CAMPOS                             NOMINA                                                          0000       00
300010000000000002747840100000000090444162014                              0000902912EDGAR ANTONIO RAMIREZ MOLINA                           NOMINA                                                          0000       00
300010000000000007561060100000000090122036986                              0000902940SANDRA PAOLA CHAVEZ MORALES                            NOMINA                                                          0000       00
300010000000000002747840100000000090389496625                              0000903100LORENA LAZCANO RODRIGUEZ                               NOMINA                                                          0000       00
300010000000000002747840100000000090340565141                              0000902380MARICELA LOPEZ ZUNIGA                                  NOMINA                                                          0000       00
300010000000000002747840100000000070004067175                              0000903422FELIPE NERI OSORIO TAPIA                               NOMINA                                                          0000       00
300010000000000002747840100000000090453459593                              0000903465NANCY RODRIGUEZ RAMOS                                  NOMINA                                                          0000       00
300010000000000002747840100000000090409221342                              0000903516ANA LAURA MERINO ORDUNA                                NOMINA                                                          0000       00
300010000000000002747840100000000070151182435                              0000903249BERENICE BASILIO GUZMAN                                NOMINA                                                          0000       00
300010000000000002747840100000000090440043614                              0000903335SURY SORAYA CERVANTES ROBLERO                          NOMINA                                                          0000       00
300010000000000002747840100000000090399591189                              0000903948JOSE ANGEL HERNANDEZ ARIZMENDI                         NOMINA                                                          0000       00
300010000000000002240890100000000090434903954                              0000903954JOSE MANUEL PERDOMO GARCIA                             NOMINA                                                          0000       00
300010000000000002747840100000000090423730446                              0000904226LAURA DE JESUS FRANCISCO                               NOMINA                                                          0000       00
300010000000000002747840100000000090280608946                              0000904276CRISTINA PALMAS GONZALEZ                               NOMINA                                                          0000       00
300010000000000002394160100000000090451102809                              0000904481NUVIA MIRANDA GARCIA ESTRADA                           NOMINA                                                          0000       00
300010000000000002844160100000000090009140394                              0000904845ALEJANDRA CORDERO GUTIERREZ                            NOMINA                                                          0000       00
300010000000000002747850100000000070166709367                              0000905042MARTIN MARTINEZ SANTILLAN                              NOMINA                                                          0000       00
300010000000000002747850100000000090411089877                              0000905155TAMARA DANIELA TORRES GIL                              NOMINA                                                          0000       00
300010000000000006530280100000000070156652316                              0000905375MARCO ANTONIO ARELLANO SALGADO                         NOMINA                                                          0000       00
300010000000000002992090100000000090458893348                              0000905440ANA LAURA SANCHEZ ALDAMA                               NOMINA                                                          0000       00
300010000000000004681520100000000090459105165                              0000905590VIOLETA HERRERA GALINDO                                NOMINA                                                          0000       00
300010000000000002747850100000000090457915011                              0000905873JULIO CESAR ORTIZ REYES                                NOMINA                                                          0000       00
300010000000000002747850100000000090460714345                              0000906009LUIS ANGEL RIVERA HERNANDEZ                            NOMINA                                                          0000       00
300010000000000002992090100000000090455507943                              0000906441ERIC ELENO ROJAS                                       NOMINA                                                          0000       00
300010000000000003175000100000000090458869404                              0000906705MAYRA GRACIELA ESCAMILLA QUEZADA                       NOMINA                                                          0000       00
300010000000000002747850100000000090459936555                              0000906909MARELI KARIME ROSALES MENDOZA                          NOMINA                                                          0000       00
300010000000000002747850100000000090269878931                              0000906915LEONEL ALEXIS CANO CARPINTEYRO                         NOMINA                                                          0000       00
300010000000000002747850100000000090460595761                              0000907165BRAYAN ORTIZ ALVAREZ                                   NOMINA                                                          0000       00
300010000000000004303830100000000090403645809                              0000907281SANDRA LEON BENITEZ                                    NOMINA                                                          0000       00
4001000332000000000135103517000001000000000135103517
