65505232207     012244011301751532  BACOMSILVIA RAMIREZ GUTIERREZ                100100000000040802501001NOMINA                                                                                                                            0000001
65505232207     012225029591594879  BACOMCARLOS ALFREDO PEREZ VILLA              100100000000051476501001NOMINA                                                                                                                            0000002
65505232207     012320027504863614  BACOMALEJANDRA YANETH FLORES SIFUENTES       100100000000086942901001NOMINA                                                                                                                            0000003
65505232207     012320027907099991  BACOMELIZABETH HERNANDEZ CASTELLANOS         100100000000030370701001NOMINA                                                                                                                            0000004
65505232207     012225015094927588  BACOMMA DE LOURDES CAUDILLO VAZQUEZ          100100000000016682201001NOMINA                                                                                                                            0000005
65505232207     012320028681544570  BACOMESTHER DEL ROCIO ARELLANO OCAMPO        100100000000022888001001NOMINA                                                                                                                            0000006
65505232207     012320028953248151  BACOMALEJANDRA MONSIVAIS CHAVEZ              100100000000031456401001NOMINA                                                                                                                            0000007
65505232207     012506014053654732  BACOMCARMEN MIROSLAVA HURTADO RUEDA          100100000000016414801001NOMINA                                                                                                                            0000008
65505232207     012528015266658887  BACOMJEANNETE AMAIREANI ROMERO CERDA         100100000000053924801001NOMINA                                                                                                                            0000009
65505232207     012528004702946679  BACOMGUSTAVO ALONSO RODRIGUEZ PEREZ          100100000000039229401001NOMINA                                                                                                                            0000010
65505232207     012375011609001840  BACOMIVONNE JAZMIN GONZALEZ HERNANDEZ        100100000000033609201001NOMINA                                                                                                                            0000011
65505232207     012320028462929178  BACOMKALEP EFRAIN MATA ORTIZ                 100100000000020105901001NOMINA                                                                                                                            0000012
65505232207     012498028396753025  BACOMRUBEN OMAR RAMIREZ CORREA               100100000000097820401001NOMINA                                                                                                                            0000013
65505232207     012476015292783140  BACOMMARIA DE JESUS PAZ ESPINOZA             100100000000048163801001NOMINA                                                                                                                            0000014
65505232207     012497015108894746  BACOMMARIA GUADALUPE GALLO LUVIANO           100100000000039186701001NOMINA                                                                                                                            0000015
65505232207     012225015048034508  BACOMLUIS MIGUEL MENDOZA GONZALEZ            100100000000021731601001NOMINA                                                                                                                            0000016
65505232207     012215015800976199  BACOMPAULA LIDIA MEDINA ALVARADO             100100000000018885101001NOMINA                                                                                                                            0000017
65505232207     012528028717870473  BACOMERICK EDUARDO URIBE MARTINEZ            100100000000020549801001NOMINA                                                                                                                            0000018
65505232207     012528011457879631  BACOMROLANDO ARTEMIO RAMIREZ SERENO          100100000000021704301001NOMINA                                                                                                                            0000019
65505232207     012180015261964655  BACOMJOSEFINA DOMINGUEZ RAMIREZ              100100000000041506901001NOMINA                                                                                                                            0000020
65505232207     012320015281627431  BACOMMIGUEL ANGEL BAEZA OCHOA                100100000000024297601001NOMINA                                                                                                                            0000021
65505232207     012180027100279017  BACOMAMERICA SAMANTHA MUNOZ CUEVAS           100100000000035999901001NOMINA                                                                                                                            0000022
65505232207     012320015460102968  BACOMROSA MENDOZA CASTILLO                   100100000000018156801001NOMINA                                                                                                                            0000023
65505232207     012225015003045422  BACOMARTURO RODRIGUEZ RAMIREZ                100100000000041499001001NOMINA                                                                                                                            0000024
65505232207     012180015506720680  BACOMANA MARIA SAMANO PARADA                 100100000000021894701001NOMINA                                                                                                                            0000025
65505232207     012497015736411711  BACOMAZUCENA SANDOVAL MAXIMINO               100100000000031434001001NOMINA                                                                                                                            0000026
65505232207     012528011599908871  BACOMMARTHA ARCELIA VAZQUEZ ORTEGA           100100000000020663501001NOMINA                                                                                                                            0000027
65505232207     012180015577142970  BACOMVANESSA GUADALUPE CEJA TORRES           100100000000041063701001NOMINA                                                                                                                            0000028
65505232207     012240026713413321  BACOMMARIA DEL CARMEN RANGEL RODRIGUEZ       100100000000033452101001NOMINA                                                                                                                            0000029
65505232207     012244015585823512  BACOMFRANCISCO TORRES CAUDILLO               100100000000027982901001NOMINA                                                                                                                            0000030
65505232207     012180015733343173  BACOMMARIA DE LOS ANGELES DIAZ JIMENEZ       100100000000031434001001NOMINA                                                                                                                            0000031
65505232207     012180015743075855  BACOMGLORIA LISETH HERNANDEZ CAYETANO        100100000000029460301001NOMINA                                                                                                                            0000032
65505232207     012227015053292485  BACOMMARCO ANTONIO LEDESMA HERNANDEZ         100100000000048577501001NOMINA                                                                                                                            0000033
65505232207     012180015828299598  BACOMMARISOL HERNANDEZ DIAZ                  100100000000049673901001NOMINA                                                                                                                            0000034
65505232207     012180015859856094  BACOMCARLOS SILVA JIMENEZ                    100100000000034654301001NOMINA                                                                                                                            0000035
65505232207     012180015864111423  BACOMMARIA GUADALUPE ARENAS REYES            100100000000023575101001NOMINA                                                                                                                            0000036
65505232207     012506015660996963  BACOMMARIA DE LA SALUD GUZMAN AYALA          100100000000021189601001NOMINA                                                                                                                            0000037
65505232207     012180015105417996  BACOMDIANA IRIS MARQUINA MARTINEZ            100100000000041500101001NOMINA                                                                                                                            0000038
65505232207     012528015021315637  BACOMROSA HILDA WALDO HERRERA                100100000000029461701001NOMINA                                                                                                                            0000039
65505232207     012528029682177501  BACOMANA ROSA PARDO GONZALEZ                 100100000000076417901001NOMINA                                                                                                                            0000040
65505232207     012248004684477216  BACOMSUSANA VARGAS FLORES                    100100000000017778501001NOMINA                                                                                                                            0000041
65505232207     012215015538378263  BACOMJORGE ALEJANDRO CAZARES MONTOYA         100100000000027575101001NOMINA                                                                                                                            0000042
65505232207     012476015205766824  BACOMMINERVA DEL CARMEN ESPINOZA GOMEZ       100100000000029462601001NOMINA                                                                                                                            0000043
65505232207     012215027070391741  BACOMELSA ELENA ESQUIVEL PICHARDO            100100000000039147101001NOMINA                                                                                                                            0000044
65505232207     012261015259724454  BACOMMARIBEL RUIZ PARRA                      100100000000027289901001NOMINA                                                                                                                            0000045
65505232207     012497015008631300  BACOMALMA ESTHER LOPEZ GUZMAN                100100000000015064001001NOMINA                                                                                                                            0000046
65505232207     012375015768784855  BACOMDORILIAN ESTRADA SANCHEZ                100100000000035766101001NOMINA                                                                                                                            0000047
65505232207     012476015217283049  BACOMMIGUEL ANGEL VILLANUEVA GARCIA          100100000000033460901001NOMINA                                                                                                                            0000048
65505232207     012180015516972114  BACOMMONICA PALACIOS SANCHEZ                 100100000000027290701001NOMINA                                                                                                                            0000049
65505232207     012476028810326905  BACOMRAUL CRUZ GARCIA                        100100000000039451701001NOMINA                                                                                                                            0000050
65505232207     012180015023512290  BACOMMARIA GUADALUPE SANDOVAL AYALA          100100000000033781301001NOMINA                                                                                                                            0000051
65505232207     012180015947076414  BACOMFIDEL ALTAMIRANO JUAREZ                 100100000000038943201001NOMINA                                                                                                                            0000052
65505232207     012535015355771396  BACOMIGNACIO ALVAREZ HERNANDEZ               100100000000029462401001NOMINA                                                                                                                            0000053
65505232207     012180015938621548  BACOMALAN MOISES ORTEGA NIEVES               100100000000027290701001NOMINA                                                                                                                            0000054
65505232207     012320029035460717  BACOMJESUS ENRIQUE MIRANDA SICOURET          100100000000020758501001NOMINA                                                                                                                            0000055
65505232207     012180015894038877  BACOMLISSETH MONSERRAT SALAS MILANES         100100000000028591201001NOMINA                                                                                                                            0000056
65505232207     012535014396338553  BACOMHORACIO ALEJANDRO GARCIA PEREZ          100100000000012370301001NOMINA                                                                                                                            0000057
65505232207     012528015760345861  BACOMLUIS FERNANDO GARCIA BENAVIDES          100100000000023451401001NOMINA                                                                                                                            0000058
65505232207     012528015853157128  BACOMKARINA EDITH MARIN HERNANDEZ            100100000000029592401001NOMINA                                                                                                                            0000059
65505232207     012277015486599747  BACOMDULCE ELENA JIMENEZ TAPIA               100100000000053346901001NOMINA                                                                                                                            0000060
65505232207     012320015334508724  BACOMCARLOS HUMBERTO PADILLA ORTIZ           100100000000073219301001NOMINA                                                                                                                            0000061
65505232207     012535015570342102  BACOMMARIA DEL CARMEN VAZQUEZ AYALA          100100000000023828801001NOMINA                                                                                                                            0000062
65505232207     012180015287595817  BACOMGUSTAVO OREGEL ORTA                     100100000000029462401001NOMINA                                                                                                                            0000063
65505232207     012180015633695390  BACOMBENIGNO MAGALLAN TINOCO                 100100000000031435501001NOMINA                                                                                                                            0000064
65505232207     012222004727748954  BACOMLIZBETH DANIELA MARTINEZ MARTINEZ       100100000000030041301001NOMINA                                                                                                                            0000065
65505232207     012282015886295982  BACOMARIANA YARELY VEJAR REYES               100100000000024640901001NOMINA                                                                                                                            0000066
65505232207     012180015556261814  BACOMKATYA PAOLA ZAPATA JIMENEZ              100100000000027290701001NOMINA                                                                                                                            0000067
65505232207     012225015089454354  BACOMSANDRA GUADALUPE MENDOZA RODRIGUEZ      100100000000027290701001NOMINA                                                                                                                            0000068
65505232207     012180015090862313  BACOMLETICIA MARCELO TURJA                   100100000000029461701001NOMINA                                                                                                                            0000069
65505232207     012320015849457124  BACOMBETZY YUNUEN BARRERA NUNEZ              100100000000029461701001NOMINA                                                                                                                            0000070
65505232207     012180015257299156  BACOMDIANA LAURA GUZMAN MERAZ                100100000000033611801001NOMINA                                                                                                                            0000071
65505232207     012180015149371195  BACOMBERTHA CECILIA HERNANDEZ ESTRADA        100100000000029461701001NOMINA                                                                                                                            0000072
65505232207     012528015941135971  BACOMJUAN FRANCISCO WALDO HERRERA            100100000000031435501001NOMINA                                                                                                                            0000073
65505232207     012320029313428510  BACOMJUAN ANTONIO JIMENEZ RAMIREZ            100100000000028611801001NOMINA                                                                                                                            0000074
65505232207     012180015163162364  BACOMLUCIA MARTINEZ AGREDA                   100100000000031435501001NOMINA                                                                                                                            0000075
65505232207     012180015187958402  BACOMDIANA ELIBETH BELTRAN VILLANUEVA        100100000000022890901001NOMINA                                                                                                                            0000076
65505232207     012528015248755672  BACOMARLYN DIANA MARTINEZ MERCED             100100000000027290701001NOMINA                                                                                                                            0000077
65505232207     012506015715685938  BACOMMARIA ESMERALDA MOLINA NATIVIDAD        100100000000029461701001NOMINA                                                                                                                            0000078
65505232207     012225015791370250  BACOMLUIS FERNANDO MARTINEZ HERNANDEZ        100100000000020613801001NOMINA                                                                                                                            0000079
65505232207     012180015320020757  BACOMLETICIA JUAREZ ROMERO                   100100000000027290701001NOMINA                                                                                                                            0000080
65505232207     012476015074024687  BACOMJASMIN GONZALEZ BARRERA                 100100000000046111701001NOMINA                                                                                                                            0000081
65505232207     012320015656651676  BACOMANA KARINA DIAZ MORALES                 100100000000026119601001NOMINA                                                                                                                            0000082
65505232207     012180015550197560  BACOMFREDI SAID HERNANDEZ HERNANDEZ          100100000000028091201001NOMINA                                                                                                                            0000083
65505232207     012885015068869685  BACOMBIANCA XITLALLI MORALES ANGELES         100100000000027290701001NOMINA                                                                                                                            0000084
65505232207     021180064193731176  BITALDANIEL FLORES NIETO                     100100000000011037401001NOMINA                                                                                                                            0000085
65505232207     021282064559942300  BITALOSBEL CORTEZ VALERIO                    100100000000027289901001NOMINA                                                                                                                            0000086
65505232207     021497063913774405  BITALMIGUEL ANGEL LAUREANO NAVARRO           100100000000027290701001NOMINA                                                                                                                            0000087
65505232207     021506065050490858  BITALSILVIA RAMOS VACA                       100100000000030041301001NOMINA                                                                                                                            0000088
65505232207     021320064829787199  BITALNORMA CASTELLANOS CORONEL               100100000000033611801001NOMINA                                                                                                                            0000089
65505232207     021320063950061691  BITALELBIA MARTINEZ MENDEZ                   100100000000023069301001NOMINA                                                                                                                            0000090
65505232207     021375065130927964  BITALJESSICA MARIELA ESTRADA LOPEZ           100100000000031435501001NOMINA                                                                                                                            0000091
65505232207     030320900019960350  BAJIOFANNY MARGARITA ANAYA CORONA            100100000000026824301001NOMINA                                                                                                                            0000092
65505232207     030222900011207164  BAJIOMARIA DE LOS ANGELES PEREZ AVILES       100100000000027290701001NOMINA                                                                                                                            0000093
65505232207     044320010026237651  COMERXOCHITH GUADALUPE PRECIADO SANDOVAL     100100000000037751401001NOMINA                                                                                                                            0000094
65505232207     044476106017584388  COMERMARCO ANTONIO FIGUEROA SORIA            100100000000031434701001NOMINA                                                                                                                            0000095
65505232207     044225017044556496  COMERJOSE JUAN IBARRA GUILLEN                100100000000046017801001NOMINA                                                                                                                            0000096
65505232207     044225017045019181  COMERJUAN ARTURO MORENO SANTIAGO             100100000000029815701001NOMINA                                                                                                                            0000097
65505232207     044225017047121611  COMERRUBEN LUQUE PENA                        100100000000079628801001NOMINA                                                                                                                            0000098
65505232207     044180001013521493  COMERJESUS ADRIAN SORIANO HERNANDEZ          100100000000078824901001NOMINA                                                                                                                            0000099
65505232207     044282256026729566  COMERFRANCISCO TACUBA BLANCO                 100100000000053346901001NOMINA                                                                                                                            0000100
65505232207     062497008303589606  BAFIRANDRES BARRAGAN TORRES                  100100000000031435501001NOMINA                                                                                                                            0000101
65505232207     062497008256233106  BAFIRADILENE VELEZ GONZALEZ                  100100000000022890901001NOMINA                                                                                                                            0000102
65505232207     072580010570852530  BBANOMARIA DE LOS ANGELES RODRIGUEZ DELGADO  100100000000029461701001NOMINA                                                                                                                            0000103
65505232207     072320008377313716  BBANOCLAUDIA LETICIA LOPEZ PARDO             100100000000059262201001NOMINA                                                                                                                            0000104
65505232207     072180004851068844  BBANOMAYRA LISSETTE SANCHEZ MARTINEZ         100100000000026611801001NOMINA                                                                                                                            0000105
65505232207     072180004850900770  BBANOMA DE LOURDES GUTIERREZ RADILLA         100100000000024261701001NOMINA                                                                                                                            0000106
65505232207     0485148848  BBANOGUADALUPE CASTELLANOS MAYA              100100000000021892601001NOMINA                                                                                                                            0000107
65505232207     072180004850937332  BBANOISABEL LOPEZ DIAZ                       100100000000030400401001NOMINA                                                                                                                            0000108
65505232207     072180004851520968  BBANOLUCIA DEL CARMEN SANCHEZ MOLINA         100100000000042346501001NOMINA                                                                                                                            0000109
65505232207     072180004851072924  BBANOMARIA ISABEL VALENCIA REYES             100100000000039290201001NOMINA                                                                                                                            0000110
65505232207     072180004851044790  BBANOCRISTIAN ELIVIER FLORES VEGA            100100000000024410301001NOMINA                                                                                                                            0000111
65505232207     072180004851349084  BBANOMARIA LORENA FUERTE JIMENEZ             100100000000047722201001NOMINA                                                                                                                            0000112
65505232207     072180004851491356  BBANOBENITO DIAZ SIMON                       100100000000053020901001NOMINA                                                                                                                            0000113
65505232207     072225002536723730  BBANOMARIA GUADALUPE MIRELES VILLASANA       100100000000027287901001NOMINA                                                                                                                            0000114
65505232207     072090004311739130  BBANOALMA DELIA TELLEZ SANCHEZ               100100000000020830901001NOMINA                                                                                                                            0000115
65505232207     072180004467781890  BBANOHECTOR DANIEL BECERRA CORTES            100100000000036459601001NOMINA                                                                                                                            0000116
65505232207     072180004851030254  BBANOCARLOS ARTURO DELGADO RODRIGUEZ         100100000000041975601001NOMINA                                                                                                                            0000117
65505232207     072180002868452050  BBANOFREDY LOPEZ PEREZ                       100100000000044986101001NOMINA                                                                                                                            0000118
65505232207     072215005923860899  BBANOMARIA FERNANDA VILLANUEVA PRADO         100100000000103083101001NOMINA                                                                                                                            0000119
65505232207     072180004908228980  BBANOJOSEFINA ALVARADO BENITEZ               100100000000032471501001NOMINA                                                                                                                            0000120
65505232207     072180004851312244  BBANOMABEL VILLANUEVA VILLASENOR             100100000000056192401001NOMINA                                                                                                                            0000121
65505232207     072180004851386076  BBANOSANTIAGO MARTINEZ MARTINEZ              100100000000040112101001NOMINA                                                                                                                            0000122
65505232207     072180004851220080  BBANOLUZ MARIA BEATRIZ LARA SANCHEZ          100100000000000500001001NOMINA                                                                                                                            0000123
65505232207     072180004851434410  BBANOMIRNA PATRICIA VERA HERNANDEZ           100100000000030906401001NOMINA                                                                                                                            0000124
65505232207     072180004851357186  BBANOADRIANA GONZALEZ VILLASENOR             100100000000017381701001NOMINA                                                                                                                            0000125
65505232207     072180004851500108  BBANONEFTALI JUAREZ MARIN                    100100000000053339501001NOMINA                                                                                                                            0000126
65505232207     072180004850989610  BBANOKENNETH SANCHEZ AGATON                  100100000000046418901001NOMINA                                                                                                                            0000127
65505232207     072535003222997064  BBANOMARIA SOCORRO MAGANA MALDONADO          100100000000027891701001NOMINA                                                                                                                            0000128
65505232207     072320003350019906  BBANOMAYRA YADIRA AGUILA GONZALEZ            100100000000044793201001NOMINA                                                                                                                            0000129
65505232207     072180004356308342  BBANOJORGE SALDANA BERBER                    100100000000045279201001NOMINA                                                                                                                            0000130
65505232207     127497013728321243  BAZTEMA DE JESUS AMBRIS DELGADO              100100000000034460301001NOMINA                                                                                                                            0000131
65505232207     127528013211090947  BAZTEMILAGROS ALVARADO AGUILAR               100100000000022889601001NOMINA                                                                                                                            0000132
65505232207     127215001302100838  BAZTEALEJANDRO RODRIGUEZ CAMPOS              100100000000026649201001NOMINA                                                                                                                            0000133
65505232207     127528013102494704  BAZTEMARIA ESPERANZA GUZMAN LEMUS            100100000000034685501001NOMINA                                                                                                                            0000134
65505232207     127506001162919745  BAZTEMARIA NALLELY MONROY VELAZQUEZ          100100000000019350701001NOMINA                                                                                                                            0000135
65505232207     127261013143282038  BAZTEJAHAIRA CAMACHO HERNANDEZ               100100000000023083501001NOMINA                                                                                                                            0000136
65505232207     127060001191407573  BAZTEELIZABETH RIVERA ALEMAN                 100100000000041066001001NOMINA                                                                                                                            0000137
65505232207     127320013198635076  BAZTELORENA SAYANY AGUILERA SANCHEZ          100100000000027289901001NOMINA                                                                                                                            0000138
65505232207     127282001320767024  BAZTEMARIANA PAREDES MILLAN                  100100000000053345001001NOMINA                                                                                                                            0000139
65505232207     127528013383606544  BAZTEELSA MONSERRAT RAMIREZ ARELLANO         100100000000017932701001NOMINA                                                                                                                            0000140
65505232207     127320013366329677  BAZTECAROLINA LOPEZ AGUILA                   100100000000017497201001NOMINA                                                                                                                            0000141
65505232207     127248001419905744  BAZTEJUAN PABLO ESTRADA HERNANDEZ            100100000000031435501001NOMINA                                                                                                                            0000142
65505232207     127180016425013139  BAZTELUIS ANGEL MARIN TAPIA                  100100000000031435501001NOMINA                                                                                                                            0000143
65505232207     127180001253223229  BAZTEMARIO LOPEZ CHAVARRIA                   100100000000031435501001NOMINA                                                                                                                            0000144
65505232207     127476013543913886  BAZTERAFAEL NAVA ROCHA                       100100000000022890901001NOMINA                                                                                                                            0000145
65505232207     127215013010894631  BAZTEANDRES JIMENEZ RODRIGUEZ                100100000000033611801001NOMINA                                                                                                                            0000146
65505232207     127504001263363043  BAZTELIZANDRO ALCARAZ ESTRADA                100100000000031435501001NOMINA                                                                                                                            0000147
65505232207     137748103939426104  COPELSANDRA BALTAZAR VIVANCO                 100100000000033611801001NOMINA                                                                                                                            0000148
65505232207     137248104071863920  COPELMYRIAM HELENA RETIZ ROJAS               100100000000021398201001NOMINA                                                                                                                            0000149
65505232207     137375103356591771  COPELAMERICA MONTSERRAT CUETO RIVERA         100100000000029461701001NOMINA                                                                                                                            0000150
65505232207     137282130057972629  COPELJUAN LOPEZ RUIZ                         100100000000031435501001NOMINA                                                                                                                            0000151
65505232207     137225130043231784  COPELROSA DELIA ORTEGA HERNANDEZ             100100000000027290701001NOMINA                                                                                                                            0000152
65505232207     137222103446595468  COPELJESUS ALFONSO GONZALEZ REY              100100000000029886001001NOMINA                                                                                                                            0000153
65505232207     137528103004384456  COPELJULIO AURELIO TRUJILLO RODRIGUEZ        100100000000027290701001NOMINA                                                                                                                            0000154
65505232207     137225104071433917  COPELJORGE ULISES CAMPOS NEGRETE             100100000000031435501001NOMINA                                                                                                                            0000155
65505232207     137497130031410688  COPELBERENICE ESPINO POPOCA                  100100000000022890901001NOMINA                                                                                                                            0000156
65505232207     137320103143600079  COPELAIDE AVIGAIL VEGA LUGO                  100100000000030237101001NOMINA                                                                                                                            0000157
65505232207     137535102621829702  COPELMELISSA VIDALES CARDENAS                100100000000023344901001NOMINA                                                                                                                            0000158
65505232207     137528103642424396  COPELMARIA DE LOURDES TINOCO CAMPOS          100100000000032800401001NOMINA                                                                                                                            0000159
