65505232380     002876701622160480  BANAMSILVESTRE LOPEZ RIVERA                  100100000000030964501001NOMINA                                                                                                                            0000001
65505232380     002882903299240910  BANAMFELIPE DE JESUS TOLEDO BARRAN           100100000000033282301001NOMINA                                                                                                                            0000002
65505232380     002650903514699850  BANAMGAMALIEL MORALES GONZALEZ               100100000000034349101001NOMINA                                                                                                                            0000003
65505232380     002895902942101475  BANAMSUSLI DAMARIS LOZANO CRUZ               100100000000030964501001NOMINA                                                                                                                            0000004
65505232380     002680904415447730  BANAMANGELICO MARTINEZ BAUTISTA              100100000000027313801001NOMINA                                                                                                                            0000005
65505232380     002877904438807115  BANAMVALERIA IDALIA GOMEZ ATILANO            100100000000023175101001NOMINA                                                                                                                            0000006
65505232380     002311904523474061  BANAMMARIA ISABEL MARIN HIDALGO              100100000000024076501001NOMINA                                                                                                                            0000007
65505232380     002650902264398376  BANAMALAN GUTIERREZ ANDRADE                  100100000000034349101001NOMINA                                                                                                                            0000008
65505232380     002813904136249589  BANAMANDREA HERRERA GAMEZ                    100100000000025937801001NOMINA                                                                                                                            0000009
65505232380     002670903823076225  BANAMJESUS LORENZO SOLANO TORRES             100100000000005925401001NOMINA                                                                                                                            0000010
65505232380     002840904050335416  BANAMJORGE LUIS TORRES GARCIA                100100000000030964501001NOMINA                                                                                                                            0000011
65505232380     002650903764291040  BANAMELIOBET ARTURO JIMENEZ LOPEZ            100100000000105564501001NOMINA                                                                                                                            0000012
65505232380     002854904395731114  BANAMILSE IVETH PEREZ CHAVEZ                 100100000000028854501001NOMINA                                                                                                                            0000013
65505232380     002650903460208722  BANAMPATRICIA VARGAS VICUNO                  100100000000034349101001NOMINA                                                                                                                            0000014
65505232380     002813700966106436  BANAMELVIA RUTH MIRANDA PACHECO              100100000000033789501001NOMINA                                                                                                                            0000015
65505232380     002813902497734243  BANAMOMAR RIOS RODRIGUEZ                     100100000000080876901001NOMINA                                                                                                                            0000016
65505232380     002855904103621114  BANAMKRISTIAN ORLANDO LOPEZ MARTINEZ         100100000000028829101001NOMINA                                                                                                                            0000017
65505232380     002668701664783499  BANAMESTEFANIA GONZALEZ CAMPOS               100100000000028854501001NOMINA                                                                                                                            0000018
65505232380     002813701329957519  BANAMMANUEL ANTONIO ROBLEDO GUTIERREZ        100100000000024369701001NOMINA                                                                                                                            0000019
65505232380     002869701658851453  BANAMPORFIRIO PITA BUSTAMANTE                100100000000030964501001NOMINA                                                                                                                            0000020
65505232380     002813701404154703  BANAMSURI ANAHI MALDONADO BRENA              100100000000030964501001NOMINA                                                                                                                            0000021
65505232380     002650904476356492  BANAMANGEL GUTIERREZ RAMIREZ                 100100000000034349101001NOMINA                                                                                                                            0000022
65505232380     002676904146561287  BANAMFIDEL CASTILLA HERNANDEZ                100100000000027344501001NOMINA                                                                                                                            0000023
65505232380     002290701581820748  BANAMARMANDO GUTIERREZ MORALES               100100000000056481601001NOMINA                                                                                                                            0000024
65505232380     002650903855666966  BANAMISABEL FLORES ROMERO                    100100000000034349101001NOMINA                                                                                                                            0000025
65505232380     002296904312830177  BANAMREYNALDO HERNANDEZ BADILLO              100100000000030964501001NOMINA                                                                                                                            0000026
65505232380     002676903943967959  BANAMCRISTIAN FERNANDO BUSTAMANTE GONZALEZ   100100000000039093201001NOMINA                                                                                                                            0000027
65505232380     002885903688070439  BANAMCARLOS ALBERTO JUAREZ HERNANDEZ         100100000000030964501001NOMINA                                                                                                                            0000028
65505232380     002580903776460874  BANAMMAURITANIA DESHIDU AGUIRRE SALAZAR      100100000000045365201001NOMINA                                                                                                                            0000029
65505232380     002877903658764275  BANAMREYNA DEL CARMEN MALDONADO LURIA        100100000000030964501001NOMINA                                                                                                                            0000030
65505232380     002813904278276656  BANAMDREHIDY JANET FLORES RUIZ               100100000000030964501001NOMINA                                                                                                                            0000031
65505232380     002841904188854745  BANAMENITH ARLINNE PONCE RAMIREZ             100100000000026086901001NOMINA                                                                                                                            0000032
65505232380     002650903763233067  BANAMEDGAR JAIME BAEZ GONZALEZ               100100000000034349101001NOMINA                                                                                                                            0000033
65505232380     002813902179044112  BANAMMARIA LAURA JEREZ RODRIGUEZ             100100000000024945501001NOMINA                                                                                                                            0000034
65505232380     002650901627155762  BANAMSAUL FUENTES JUAREZ                     100100000000035291701001NOMINA                                                                                                                            0000035
65505232380     002888904163763788  BANAMARMANDO ORTIZ MARTINEZ                  100100000000028854501001NOMINA                                                                                                                            0000036
65505232380     002881904395907092  BANAMDIEGO GERMAN TRUJILLO GERONIMO          100100000000030964501001NOMINA                                                                                                                            0000037
65505232380     002841903504885959  BANAMEDER ANTONIO MOLINA                     100100000000033282301001NOMINA                                                                                                                            0000038
65505232380     002668902080301238  BANAMCAROLINA MORALES GUILLEN                100100000000014523501001NOMINA                                                                                                                            0000039
65505232380     002296903859729535  BANAMEDEL SAN JUAN VAZQUEZ                   100100000000027542301001NOMINA                                                                                                                            0000040
65505232380     002877904173933810  BANAMROSA KAREN JIMENEZ VAZQUEZ              100100000000028854501001NOMINA                                                                                                                            0000041
65505232380     002669904113212657  BANAMMARTHA ELENA JUAREZ ALMEIDA             100100000000024075701001NOMINA                                                                                                                            0000042
65505232380     002881904129765167  BANAMTERESA DE JESUS DE LA CRUZ DOMINGUEZ    100100000000030963501001NOMINA                                                                                                                            0000043
65505232380     002650904117480135  BANAMANA KAREN FRANCISCO CABRERA             100100000000028853801001NOMINA                                                                                                                            0000044
65505232380     002813904009748874  BANAMJOSE LUIS RIVERA ALFARO                 100100000000030964301001NOMINA                                                                                                                            0000045
65505232380     002876901943871986  BANAMLORENZO RIQUELME GONZALEZ               100100000000030963501001NOMINA                                                                                                                            0000046
65505232380     002841903805599342  BANAMEDGAR EMILIO AZAMAR FONSECA             100100000000023637901001NOMINA                                                                                                                            0000047
65505232380     002813701288479507  BANAMSAMUEL TADEO JIMENEZ ALVA               100100000000023637901001NOMINA                                                                                                                            0000048
65505232380     002888904021122461  BANAMJORGE CRISTOBAL CRUZ                    100100000000027464201001NOMINA                                                                                                                            0000049
65505232380     002885903650415543  BANAMFABIOLA DE LEON SANTIAGO                100100000000038468701001NOMINA                                                                                                                            0000050
65505232380     002674902795689653  BANAMMARIANA PALETA JIMENEZ                  100100000000034347201001NOMINA                                                                                                                            0000051
65505232380     002290901766330099  BANAMMIGUEL ANGEL CALVA PANTALEON            100100000000040442801001NOMINA                                                                                                                            0000052
65505232380     002650901347391686  BANAMCECILIA JACOME ROJAS                    100100000000034347201001NOMINA                                                                                                                            0000053
65505232380     002877904341766615  BANAMNORA DEL CARMEN MATEO HERNANDEZ         100100000000043589601001NOMINA                                                                                                                            0000054
65505232380     002841902429702082  BANAMALIN SUGEY CERVANTES MARTINEZ           100100000000024075101001NOMINA                                                                                                                            0000055
65505232380     002903903725881191  BANAMEMMANUEL DE LA CRUZ MARTINEZ            100100000000027650801001NOMINA                                                                                                                            0000056
65505232380     002670902830118517  BANAMSARA JENNY MONTES FARFAN                100100000000017036801001NOMINA                                                                                                                            0000057
65505232380     002298701165364376  BANAMANGELICA PEREZ DOTHE                    100100000000056460601001NOMINA                                                                                                                            0000058
65505232380     002813902459783151  BANAMRICARDO MERIDA CASTILLO                 100100000000018411901001NOMINA                                                                                                                            0000059
65505232380     002669903704251824  BANAMTEODORA CASTILLO MORENO                 100100000000018834601001NOMINA                                                                                                                            0000060
65505232380     002180903901768479  BANAMSARAH MARLENNE BALDUMINO CHACON         100100000000034346101001NOMINA                                                                                                                            0000061
65505232380     002854904289692343  BANAMAURELIA MARIA RUEDA VELAZQUEZ           100100000000032792701001NOMINA                                                                                                                            0000062
65505232380     002881904289581278  BANAMJORGE LUIS BLANCO REZA                  100100000000048849701001NOMINA                                                                                                                            0000063
65505232380     002830901979050762  BANAMJUAN CARLOS VALENCIA BRIONES            100100000000056458501001NOMINA                                                                                                                            0000064
65505232380     002881904350801887  BANAMCESAR RENE BARRON LUGO                  100100000000056456401001NOMINA                                                                                                                            0000065
65505232380     002840903995487637  BANAMFELIPA DE JESUS SARABIA RAMIREZ         100100000000025754301001NOMINA                                                                                                                            0000066
65505232380     002303901794269346  BANAMROCIO HERNANDEZ HILARIO                 100100000000046353901001NOMINA                                                                                                                            0000067
65505232380     002290701463492595  BANAMHIRAM URIEL ORTEGA HIDALGO              100100000000049491601001NOMINA                                                                                                                            0000068
65505232380     002650901410873031  BANAMMARISELA VELAZCO MURILLO                100100000000075175801001NOMINA                                                                                                                            0000069
65505232380     002840903576102218  BANAMMIGUEL ANGEL MUNOZ GARCIA               100100000000027221201001NOMINA                                                                                                                            0000070
65505232380     012650015829528510  BACOMISAIAS MANCILLA  RIVERA                 100100000000031285401001NOMINA                                                                                                                            0000071
65505232380     012676011585964250  BACOMSONIA LOPEZ GUTIERREZ                   100100000000043552901001NOMINA                                                                                                                            0000072
65505232380     012877004581984383  BACOMMARCELA VIVES GONZALEZ                  100100000000023011001001NOMINA                                                                                                                            0000073
65505232380     012854015556344902  BACOMCRISTIAN KUDI MATUS DECENA              100100000000030964501001NOMINA                                                                                                                            0000074
65505232380     012672015034530737  BACOMFAUSTINO HINOJOSA HERNANDEZ             100100000000057493501001NOMINA                                                                                                                            0000075
65505232380     012125029521552143  BACOMBEATRIZ ADRIANA HERNANDEZ MENDEZ        100100000000060933901001NOMINA                                                                                                                            0000076
65505232380     012676011774944599  BACOMANALI PEREZ CASTRO                      100100000000023009401001NOMINA                                                                                                                            0000077
65505232380     012290011494309890  BACOMMARIA GUADALUPE PEREZ MONTALVO          100100000000023009401001NOMINA                                                                                                                            0000078
65505232380     012676029332821716  BACOMMARGARITA VAZQUEZ GUTIERREZ             100100000000051220301001NOMINA                                                                                                                            0000079
65505232380     012290011510918754  BACOMTANIA PALACIOS OSTRIA                   100100000000068695101001NOMINA                                                                                                                            0000080
65505232380     012905014963167512  BACOMMARISSA REBOLLEDO NACIFF                100100000000056456401001NOMINA                                                                                                                            0000081
65505232380     012813015391904687  BACOMJUAN AHUMADA SANTES                     100100000000017350301001NOMINA                                                                                                                            0000082
65505232380     012180015227195992  BACOMRAFAEL DIAZ HERNANDEZ                   100100000000043587001001NOMINA                                                                                                                            0000083
65505232380     012311015239875516  BACOMALEXIS CONRADO GALVAN TAVERA            100100000000065693201001NOMINA                                                                                                                            0000084
65505232380     012832028604410315  BACOMXOCHITL MARIA GUADALUPE LOYOLA ZAVALETA 100100000000060482701001NOMINA                                                                                                                            0000085
65505232380     012837015120022729  BACOMTANIA ARCELIA VAZQUEZ CORDOVA           100100000000080864301001NOMINA                                                                                                                            0000086
65505232380     012676011491358633  BACOMNORMA JUAREZ ORTEGA                     100100000000017887001001NOMINA                                                                                                                            0000087
65505232380     012290011487774623  BACOMMARIA ESTELA GRANADA TEODORO            100100000000038223801001NOMINA                                                                                                                            0000088
65505232380     012650011634512595  BACOMJOSE LUIS AVALOS BOBADILLA              100100000000031425701001NOMINA                                                                                                                            0000089
65505232380     012670011659062026  BACOMMARIA ANGELICA DE JESUS HERNANDEZ       100100000000028852101001NOMINA                                                                                                                            0000090
65505232380     012864015782711519  BACOMADAN ISAAC BERNABE LUCAS                100100000000041256301001NOMINA                                                                                                                            0000091
65505232380     012180015425717334  BACOMANA RUTH DIAZ MARIANO                   100100000000025801101001NOMINA                                                                                                                            0000092
65505232380     012894015005153109  BACOMSILBINO DEL ANGEL TENORIO               100100000000043587001001NOMINA                                                                                                                            0000093
65505232380     012894015004838852  BACOMERIC HERNANDEZ PEREZ                    100100000000030961801001NOMINA                                                                                                                            0000094
65505232380     012830029541765373  BACOMTERESA PELCASTRE LOPEZ                  100100000000038033401001NOMINA                                                                                                                            0000095
65505232380     012885015001022023  BACOMNADIA BERENICE DE LEON HERNANDEZ        100100000000056458501001NOMINA                                                                                                                            0000096
65505232380     012854012557830706  BACOMHILDA KARINA GUTIERREZ CHAVEZ           100100000000064882001001NOMINA                                                                                                                            0000097
65505232380     012903011227988241  BACOMELENA MORALES PELCASTRE                 100100000000021002401001NOMINA                                                                                                                            0000098
65505232380     012903011275364532  BACOMEDUARDO CRUZ CASTILLO                   100100000000043967001001NOMINA                                                                                                                            0000099
65505232380     012877015726587398  BACOMGUADALUPE DIAZ MENDOZA                  100100000000044024701001NOMINA                                                                                                                            0000100
65505232380     012676015272345117  BACOMVERONICA ARELI HERNANDEZ TRINIDAD       100100000000024668501001NOMINA                                                                                                                            0000101
65505232380     012888029370989877  BACOMSANDRA CORTES BAUTISTA                  100100000000056459701001NOMINA                                                                                                                            0000102
65505232380     012881015035480745  BACOMHECTOR JOEL DEL ANGEL LOZANO            100100000000023296101001NOMINA                                                                                                                            0000103
65505232380     012841004557856507  BACOMNALLELY REYES SANTOS                    100100000000043919901001NOMINA                                                                                                                            0000104
65505232380     012905015120049171  BACOMPEDRO DAMIAN MARTINEZ BLANCO            100100000000033148301001NOMINA                                                                                                                            0000105
65505232380     012885027038426305  BACOMANA MARIA RAMIREZ ZEPEDA                100100000000056458501001NOMINA                                                                                                                            0000106
65505232380     012296004596610508  BACOMEDER IVAN LIZCANO ALONZO                100100000000026849301001NOMINA                                                                                                                            0000107
65505232380     012650015689344552  BACOMMIRIAM RAMIREZ GONZALEZ                 100100000000056456401001NOMINA                                                                                                                            0000108
65505232380     012669015188115325  BACOMMARIEL LOPEZ JIMENEZ                    100100000000028424501001NOMINA                                                                                                                            0000109
65505232380     012855015163693087  BACOMKARINA VELAZQUEZ LOPEZ                  100100000000023011001001NOMINA                                                                                                                            0000110
65505232380     012669027951168050  BACOMLUIS ANGEL TORRES MARIN                 100100000000033846801001NOMINA                                                                                                                            0000111
65505232380     012290028721472467  BACOMJONATHAN HERNANDEZ ALVITER              100100000000032780401001NOMINA                                                                                                                            0000112
65505232380     012832015537861374  BACOMEDER SOCRATES PADILLA MORA              100100000000056460601001NOMINA                                                                                                                            0000113
65505232380     012650015216125490  BACOMCARLOS ALBERTO MENDOZA ORTIZ            100100000000038982801001NOMINA                                                                                                                            0000114
65505232380     012832015299533377  BACOMANABEL WITLE VAZQUEZ                    100100000000025505401001NOMINA                                                                                                                            0000115
65505232380     012813015199436412  BACOMVERONICA CRUZ CASTILLO                  100100000000027135101001NOMINA                                                                                                                            0000116
65505232380     012813015196883233  BACOMMARIA DE JESUS PEREZ TICANTE            100100000000030963501001NOMINA                                                                                                                            0000117
65505232380     012650015700389894  BACOMGABRIELA SELENE ROQUE ROJAS             100100000000024086201001NOMINA                                                                                                                            0000118
65505232380     012650004593054758  BACOMARMANDO CABRERA CASTILLO                100100000000056461801001NOMINA                                                                                                                            0000119
65505232380     012876011607142242  BACOMREYNA MARTHA RODRIGUEZ ALBERTO          100100000000023011001001NOMINA                                                                                                                            0000120
65505232380     012881015441819803  BACOMLILIANA MORELOS SALAS                   100100000000028853001001NOMINA                                                                                                                            0000121
65505232380     012811029420078786  BACOMGEORGINA DEL ANGEL MONFIL               100100000000031786101001NOMINA                                                                                                                            0000122
65505232380     012813015570105676  BACOMMARIA ELENA GUERRERO SALAS              100100000000009108401001NOMINA                                                                                                                            0000123
65505232380     012296027741570959  BACOMFEDERICO HERNANDEZ HERNANDEZ            100100000000027793001001NOMINA                                                                                                                            0000124
65505232380     012650015441317620  BACOMJAZMIN MATAMOROS JUAREZ                 100100000000032380301001NOMINA                                                                                                                            0000125
65505232380     012881029885100245  BACOMEDGAR LEOPOLDO JUAREZ MAYA              100100000000056460601001NOMINA                                                                                                                            0000126
65505232380     012180015612104404  BACOMDONAXI GUADALUPE ALVARADO ROBLES        100100000000028360201001NOMINA                                                                                                                            0000127
65505232380     012290015548425451  BACOMNOHEMI PERALTA HERNANDEZ                100100000000027825101001NOMINA                                                                                                                            0000128
65505232380     012813015342098856  BACOMDARINKA BEATRIZ ZAVALA CASTILLO         100100000000033171601001NOMINA                                                                                                                            0000129
65505232380     012840011732610264  BACOMIGNACIO CRUZ ORTEGA                     100100000000000500001001NOMINA                                                                                                                            0000130
65505232380     012885015418519695  BACOMRUBICELI PEREZ CAMPOS                   100100000000032310101001NOMINA                                                                                                                            0000131
65505232380     012670027950917217  BACOMNANCY KARINA MUNDO PERALTA              100100000000028853801001NOMINA                                                                                                                            0000132
65505232380     012894015718976246  BACOMCARMEN ELIZABETH PEREZ MERAZ            100100000000023085401001NOMINA                                                                                                                            0000133
65505232380     012180015685779947  BACOMMARTIN LOPEZ GUZMAN                     100100000000033281301001NOMINA                                                                                                                            0000134
65505232380     012855011264255852  BACOMLUZ DEL CARMEN MARTINEZ UBIETA          100100000000025255401001NOMINA                                                                                                                            0000135
65505232380     012180015481727766  BACOMEIMER CHAGOYA ESPINOSA                  100100000000033281301001NOMINA                                                                                                                            0000136
65505232380     012180015835306982  BACOMCLAUDIA GUADALUPE PEREZ GARAY           100100000000021410801001NOMINA                                                                                                                            0000137
65505232380     012650029840618291  BACOMJESUS ANTONIO OCAMPO ROSAS              100100000000024937501001NOMINA                                                                                                                            0000138
65505232380     012650029441315171  BACOMISMAEL DOMINGUEZ CLEMENTE               100100000000039296101001NOMINA                                                                                                                            0000139
65505232380     012180015372416076  BACOMPEDRO VALENTIN MARQUEZ                  100100000000030965401001NOMINA                                                                                                                            0000140
65505232380     012876015237195539  BACOMOSCAR HERNANDEZ BALTAZAR                100100000000023691601001NOMINA                                                                                                                            0000141
65505232380     012885015570411440  BACOMBRIZET ESTELA SANTES PEREZ              100100000000023657601001NOMINA                                                                                                                            0000142
65505232380     012290014021592365  BACOMVALENTIN LORENZO FILER                  100100000000029322601001NOMINA                                                                                                                            0000143
65505232380     012290029801542533  BACOMALEJANDRO RODRIGUEZ LATORRE             100100000000033279501001NOMINA                                                                                                                            0000144
65505232380     012296015615066792  BACOMIVETH ORTEGA HERNANDEZ                  100100000000030965401001NOMINA                                                                                                                            0000145
65505232380     012864015866205158  BACOMARITH PULIDO GARCIA                     100100000000023544001001NOMINA                                                                                                                            0000146
65505232380     012667029736788574  BACOMALITZEL GARCIA MARTINEZ                 100100000000033281301001NOMINA                                                                                                                            0000147
65505232380     012905015765829235  BACOMNELSON AARON MARQUEZ MARTINEZ           100100000000028853801001NOMINA                                                                                                                            0000148
65505232380     012905015779501361  BACOMABELMAIN GARCIA TLAXCALA                100100000000033281301001NOMINA                                                                                                                            0000149
65505232380     012903015483740313  BACOMCARLOS RUBEN SANCHEZ DE LA CRUZ         100100000000033281301001NOMINA                                                                                                                            0000150
65505232380     012650015615381369  BACOMIRMA LOPEZ GAYTAN                       100100000000028853801001NOMINA                                                                                                                            0000151
65505232380     012180015093983655  BACOMCARMELA HERNANDEZ AMADOR                100100000000024075701001NOMINA                                                                                                                            0000152
65505232380     012180015327158839  BACOMDIANA KRISTEL SOBREVILLA SIERRA         100100000000028853801001NOMINA                                                                                                                            0000153
65505232380     012813015951090973  BACOMLUIS FELIPE LAVIN TOVAR                 100100000000056463801001NOMINA                                                                                                                            0000154
65505232380     012290012424373688  BACOMROSI ISELA LOZANO GASCA                 100100000000024075901001NOMINA                                                                                                                            0000155
65505232380     012180015198591722  BACOMCARMEN LIZETH MARTINEZ MARTINEZ         100100000000024075901001NOMINA                                                                                                                            0000156
65505232380     012832015619252539  BACOMALEXIS NOYOLA CAMARILLO                 100100000000049045201001NOMINA                                                                                                                            0000157
65505232380     012180015244847579  BACOMNANCY ALEJANDRA GARCIA OROPEZA          100100000000028853801001NOMINA                                                                                                                            0000158
65505232380     012650015784460328  BACOMERIKA LUCIA ZURITA REYES                100100000000062614201001NOMINA                                                                                                                            0000159
65505232380     012813014207966545  BACOMDIANA ARELI ROCHA QUINTANILLA           100100000000035063601001NOMINA                                                                                                                            0000160
65505232380     012290015235428347  BACOMSAYIRA PEREZ MOCINO                     100100000000036724201001NOMINA                                                                                                                            0000161
65505232380     012864004684728239  BACOMALMA LIZZETH CRUZ AGUILAR               100100000000015670601001NOMINA                                                                                                                            0000162
65505232380     012225015043694529  BACOMNATALI KARINA CADENA GOMEZ              100100000000030964301001NOMINA                                                                                                                            0000163
65505232380     012830029067456878  BACOMYEINI FLORES HERNANDEZ                  100100000000033280401001NOMINA                                                                                                                            0000164
65505232380     012180015474895634  BACOMKARLA FABIOLA MATEO PASCUAL             100100000000033282301001NOMINA                                                                                                                            0000165
65505232380     012180026295456461  BACOMNORMA ANGELICA ROMERO CABELLO           100100000000058737201001NOMINA                                                                                                                            0000166
65505232380     012877011492430977  BACOMHAMILTON PEREZ JIMENEZ                  100100000000046839101001NOMINA                                                                                                                            0000167
65505232380     012876015806057862  BACOMALMA  GABRIELA ESPINOSA CRUZ            100100000000030964501001NOMINA                                                                                                                            0000168
65505232380     012864015187439946  BACOMPEDRO BAUTISTA QUINTERO                 100100000000033282301001NOMINA                                                                                                                            0000169
65505232380     012290028848079950  BACOMKARINA OILEGOR CANTERA GOMEZ            100100000000030966301001NOMINA                                                                                                                            0000170
65505232380     012580015056557576  BACOMCINTHYA  LORENA OLVERA BARRIOS          100100000000020487101001NOMINA                                                                                                                            0000171
65505232380     012296015524792652  BACOMCONSUELO MIJAIL VITE LOYDA              100100000000030258801001NOMINA                                                                                                                            0000172
65505232380     012669015268136936  BACOMCIRO ARTURO CANCINO MENESES             100100000000028854501001NOMINA                                                                                                                            0000173
65505232380     012811014376770499  BACOMJULIAN CASTILLO FLORES                  100100000000030965201001NOMINA                                                                                                                            0000174
65505232380     012813015454231844  BACOMBRENDA YADIRA DELGADILLO CUETO          100100000000034349101001NOMINA                                                                                                                            0000175
65505232380     012903015498274984  BACOMALACIEL CURIEL TORRES                   100100000000034349101001NOMINA                                                                                                                            0000176
65505232380     012180015603753819  BACOMMARTIN GUTIERREZ HUERTA                 100100000000030964501001NOMINA                                                                                                                            0000177
65505232380     012650029445418634  BACOMGABRIEL RUBEN PEREZ MORENO              100100000000016843801001NOMINA                                                                                                                            0000178
65505232380     012845015574686143  BACOMTERESA DE JESUS HERNANDEZ MURILLO       100100000000026180201001NOMINA                                                                                                                            0000179
65505232380     012180015041637649  BACOMJESUS MANUEL MENESES ZAYAS              100100000000034349101001NOMINA                                                                                                                            0000180
65505232380     012834015680389536  BACOMJOSE ERIK AGUILAR DOMINGUEZ             100100000000030964501001NOMINA                                                                                                                            0000181
65505232380     012813015245032799  BACOMYANET TORRES FERNANDEZ                  100100000000020699801001NOMINA                                                                                                                            0000182
65505232380     012180015432590162  BACOMALMA EDITH LA BASTIDA GIL               100100000000026447601001NOMINA                                                                                                                            0000183
65505232380     012667014329998540  BACOMMARTIN FLORES SANCHEZ                   100100000000033282301001NOMINA                                                                                                                            0000184
65505232380     012886027484782524  BACOMJULIO CESAR GUTIERREZ MARTINEZ          100100000000095914201001NOMINA                                                                                                                            0000185
65505232380     012180015371929917  BACOMLEIDY GALLEGOS ASTACIO                  100100000000018321601001NOMINA                                                                                                                            0000186
65505232380     012670028609114373  BACOMDANIEL MARTINEZ SANCHEZ                 100100000000013727201001NOMINA                                                                                                                            0000187
65505232380     012888015567498211  BACOMANA PAULINA MARTINEZ MARROQUIN          100100000000030964501001NOMINA                                                                                                                            0000188
65505232380     012888015538082656  BACOMANAHI QUIROZ HERNANDEZ                  100100000000028854501001NOMINA                                                                                                                            0000189
65505232380     012667015300751608  BACOMNEYDI SARMIENTO SERRANO                 100100000000028854501001NOMINA                                                                                                                            0000190
65505232380     012180015384654554  BACOMDALIA  LORENA MARTINEZ RAMIREZ          100100000000034349101001NOMINA                                                                                                                            0000191
65505232380     012180015626509781  BACOMDIEGO FLORES FRANCO                     100100000000030964501001NOMINA                                                                                                                            0000192
65505232380     012180015006725839  BACOMLEYDI VIANEY SANTIAGO NAZARIO           100100000000019915301001NOMINA                                                                                                                            0000193
65505232380     012894015630974070  BACOMMIRIAM IGNOT DE LA CRUZ                 100100000000030964501001NOMINA                                                                                                                            0000194
65505232380     012311015675797054  BACOMALMA KARINA ARGUELLO RAMIREZ            100100000000030964501001NOMINA                                                                                                                            0000195
65505232380     012888011319129761  BACOMGERARDO GONZALEZ PACHECO                100100000000018751801001NOMINA                                                                                                                            0000196
65505232380     012864004696828800  BACOMLESLY MARILYN OLMEDO TICANTE            100100000000033282301001NOMINA                                                                                                                            0000197
65505232380     012864015720856180  BACOMLETICIA GARCIA GARCIA                   100100000000024076501001NOMINA                                                                                                                            0000198
65505232380     012813028875880117  BACOMALBERTO JORGE MORENO ROJAS              100100000000026895001001NOMINA                                                                                                                            0000199
65505232380     012705029864752994  BACOMJESSICA IRINET CASTILLO CORDOVA         100100000000054862901001NOMINA                                                                                                                            0000200
65505232380     012854029603268529  BACOMLORENA AIDEE HERRERA GONZALEZ           100100000000028854501001NOMINA                                                                                                                            0000201
65505232380     012834015780393341  BACOMWILBERT HARO MARQUEZ                    100100000000002457501001NOMINA                                                                                                                            0000202
65505232380     012813015136207785  BACOMJERONIMO DEL ANGEL GARCIA               100100000000047448501001NOMINA                                                                                                                            0000203
65505232380     012650015078151699  BACOMFABIOLA SERRANO NOLASCO                 100100000000034349101001NOMINA                                                                                                                            0000204
65505232380     012580029921440500  BACOMALONDRA CORONA ALAMEDA                  100100000000034349101001NOMINA                                                                                                                            0000205
65505232380     012180015547700342  BACOMPABLO OLMEDO GARCIA                     100100000000033282301001NOMINA                                                                                                                            0000206
65505232380     012180029274178880  BACOMDIANA ALEJANDRA NAVARRO ARROYO          100100000000043592301001NOMINA                                                                                                                            0000207
65505232380     012854015170587161  BACOMVICTOR MANUEL RIVERA RUEDA              100100000000030964501001NOMINA                                                                                                                            0000208
65505232380     012180015370264916  BACOMDALIA GUADALUPE GARZA SOLIS             100100000000024076501001NOMINA                                                                                                                            0000209
65505232380     012830015159724040  BACOMCLARA ESTEFANY DURAN TORRES             100100000000034349101001NOMINA                                                                                                                            0000210
65505232380     012311015670803723  BACOMERICK FRANCISCO NERI CASTRO             100100000000033280401001NOMINA                                                                                                                            0000211
65505232380     012873015592262498  BACOMBRENDA MELENDEZ MENDEZ                  100100000000028854501001NOMINA                                                                                                                            0000212
65505232380     012296011601302309  BACOMBENITO HERNANDEZ SALVADOR               100100000000025130601001NOMINA                                                                                                                            0000213
65505232380     012180015831984670  BACOMSILVIA LUCERO CARRASCO CARCAMO          100100000000028854501001NOMINA                                                                                                                            0000214
65505232380     012180015874393370  BACOMHUMBERTO PERALTA ZARATE                 100100000000018626001001NOMINA                                                                                                                            0000215
65505232380     012180015832100848  BACOMDULCE ESPERANZA VARGAS ZAMORANO         100100000000043592301001NOMINA                                                                                                                            0000216
65505232380     012180015704741296  BACOMIRMA CHAVEZ PEREZ                       100100000000033280401001NOMINA                                                                                                                            0000217
65505232380     012832015407369566  BACOMCAROLINA MENDOZA MENDEZ                 100100000000005848201001NOMINA                                                                                                                            0000218
65505232380     012883015181538688  BACOMLUIS CRUZ HERNANDEZ                     100100000000023721601001NOMINA                                                                                                                            0000219
65505232380     012884026978924626  BACOMLUZ ADRIANA HERNANDEZ DEL ANGEL         100100000000027276001001NOMINA                                                                                                                            0000220
65505232380     012180015870809169  BACOMHUGO ALEJANDRO FRANCISCO CORTES         100100000000030964501001NOMINA                                                                                                                            0000221
65505232380     012876004632075951  BACOMJOSE SALVADOR RUEDA LECORTUA            100100000000030964501001NOMINA                                                                                                                            0000222
65505232380     012876011252350735  BACOMPATRICIA GONZALEZ FRAYRE                100100000000030964501001NOMINA                                                                                                                            0000223
65505232380     012150015762436421  BACOMKENIA ELIDETH GONZALEZ CRUZ             100100000000036341701001NOMINA                                                                                                                            0000224
65505232380     012180015346372861  BACOMJORGE IVAN CRUZ CRUZ                    100100000000033789501001NOMINA                                                                                                                            0000225
65505232380     012180015634071984  BACOMEVELIN YANET RAMIREZ HERNANDEZ          100100000000036341701001NOMINA                                                                                                                            0000226
65505232380     012180015940001486  BACOMLUCAS FELIPE CASTRO                     100100000000033789501001NOMINA                                                                                                                            0000227
65505232380     012180015742828100  BACOMISRAEL CARRERA PACHECO                  100100000000034349101001NOMINA                                                                                                                            0000228
65505232380     012855029717183476  BACOMGERMAN  ESTEBAN ESPINOSA GUTIERREZ      100100000000030964501001NOMINA                                                                                                                            0000229
65505232380     012854027906876267  BACOMNESTOR MARTINEZ LOPEZ                   100100000000030964501001NOMINA                                                                                                                            0000230
65505232380     012854015410976555  BACOMISSAC CHAVEZ WOOD                       100100000000030964501001NOMINA                                                                                                                            0000231
65505232380     012180015572601160  BACOMJUAN DIEGO JUAREZ LOPEZ                 100100000000030964501001NOMINA                                                                                                                            0000232
65505232380     012670015735804340  BACOMKARLA ADRIANA FLORES SAAVEDRA           100100000000033282301001NOMINA                                                                                                                            0000233
65505232380     012290015143123925  BACOMBRIANN EDUARDO ZAMUDIO ANGELES          100100000000017125901001NOMINA                                                                                                                            0000234
65505232380     012290027649885072  BACOMDANIEL OMANA ZARCO                      100100000000020674901001NOMINA                                                                                                                            0000235
65505232380     012712015590531855  BACOMCARLOS TOMAS EUGENIO REYES              100100000000030964501001NOMINA                                                                                                                            0000236
65505232380     012610015093819532  BACOMKEYMA GOMEZ VELAZQUEZ                   100100000000043258301001NOMINA                                                                                                                            0000237
65505232380     012905028694524009  BACOMEDNA GISELDA CARDENA MUNOZ              100100000000038985101001NOMINA                                                                                                                            0000238
65505232380     012676015801648722  BACOMJESUS EMMANUEL CRUZ HERNANDEZ           100100000000033282301001NOMINA                                                                                                                            0000239
65505232380     012650015096703469  BACOMFERNANDO JUAREZ MARIN                   100100000000037642901001NOMINA                                                                                                                            0000240
65505232380     012885029958529432  BACOMLETICIA GARCIA BENITO                   100100000000030964501001NOMINA                                                                                                                            0000241
65505232380     012888029959075005  BACOMKATYA  EMIRETH MARTINEZ PEREZ           100100000000028854501001NOMINA                                                                                                                            0000242
65505232380     012877015161994999  BACOMANITA HERNANDEZ TRANQUILINO             100100000000030964501001NOMINA                                                                                                                            0000243
65505232380     012903015624921085  BACOMKAREN CLAUDINE CRUZ SILVA               100100000000026326501001NOMINA                                                                                                                            0000244
65505232380     012180015712952093  BACOMBRENDA JAEL HURTADO RUVALCABA           100100000000028854501001NOMINA                                                                                                                            0000245
65505232380     012290015422997157  BACOMARELY MENINDEZ LORA                     100100000000028854501001NOMINA                                                                                                                            0000246
65505232380     012180015019399197  BACOMMANUEL LOPEZ LUEVANO                    100100000000030964501001NOMINA                                                                                                                            0000247
65505232380     012885029182621876  BACOMJESUS  ANGEL GONZALEZ RAMIREZ           100100000000048172601001NOMINA                                                                                                                            0000248
65505232380     012876011273807209  BACOMALEXIS GONZALEZ DE LA CRUZ              100100000000030964501001NOMINA                                                                                                                            0000249
65505232380     012180015024960003  BACOMENRIQUE DE JESUS AGUILAR FLORES         100100000000028854501001NOMINA                                                                                                                            0000250
65505232380     012881015450017764  BACOMPEDRO LUIS CRUZ HERNANDEZ               100100000000033282301001NOMINA                                                                                                                            0000251
65505232380     012320015241299825  BACOMJOSE CARLOS MUNOZ CRUZ                  100100000000034349101001NOMINA                                                                                                                            0000252
65505232380     012650027950545670  BACOMJORGE ANGEL ITURBIDE MORALES            100100000000033282301001NOMINA                                                                                                                            0000253
65505232380     012180015139572739  BACOMKAREN SAMANTHA SANCHEZ TORRES           100100000000033282301001NOMINA                                                                                                                            0000254
65505232380     012311014938653470  BACOMDONAJI HORTENCIA PELAEZ SARABIA         100100000000033282301001NOMINA                                                                                                                            0000255
65505232380     012180015304845408  BACOMALIDAI CRUZ JIMENEZ                     100100000000030964501001NOMINA                                                                                                                            0000256
65505232380     012180015888736347  BACOMJAIR JIMENEZ GARCIA                     100100000000030964501001NOMINA                                                                                                                            0000257
65505232380     012813015690311971  BACOMJOSE GUADALUPE DEL RIO CRUZ             100100000000027263701001NOMINA                                                                                                                            0000258
65505232380     012810029787862678  BACOMLIDIA YETZEMANY CORTEZ CRUZ             100100000000026376801001NOMINA                                                                                                                            0000259
65505232380     012180015091469867  BACOMGUADALUPE BARBA ALBARAN                 100100000000030964501001NOMINA                                                                                                                            0000260
65505232380     012888015385929933  BACOMJULIO CESAR RODRIGUEZ RAMIREZ           100100000000030964501001NOMINA                                                                                                                            0000261
65505232380     012885015999242410  BACOMPEDRO  ALDAIR TIRSO GARCIA              100100000000030964501001NOMINA                                                                                                                            0000262
65505232380     012311015159541506  BACOMMICHEL DE JESUS HERNANDEZ ACEVEDO       100100000000033789501001NOMINA                                                                                                                            0000263
65505232380     012180015291896997  BACOMHYARACET RAMIREZ RAMIREZ                100100000000033282301001NOMINA                                                                                                                            0000264
65505232380     012888015805637501  BACOMJUAN CARLOS MAYA HERNANDEZ              100100000000030964501001NOMINA                                                                                                                            0000265
65505232380     012650026691022806  BACOMPEDRO ARTURO MARTINEZ SEGURA            100100000000033282301001NOMINA                                                                                                                            0000266
65505232380     012180015034804421  BACOMESTEFANY FELIX GABRIEL                  100100000000024076501001NOMINA                                                                                                                            0000267
65505232380     012813026378563852  BACOMSOFIA MARTINEZ GONZALEZ                 100100000000026135801001NOMINA                                                                                                                            0000268
65505232380     012180015183787062  BACOMARAFATH IUDICAEL HERNANDEZ MARTINEZ     100100000000033282301001NOMINA                                                                                                                            0000269
65505232380     012296015720546152  BACOMDULCE  CRISTAL HERNANDEZ ARADIAZ        100100000000028354501001NOMINA                                                                                                                            0000270
65505232380     012650015505800345  BACOMJHOVANY RAMOS FLORES                    100100000000034349101001NOMINA                                                                                                                            0000271
65505232380     012290029283883852  BACOMARACELI HERNANDEZ ROMERO                100100000000028854501001NOMINA                                                                                                                            0000272
65505232380     012670015117679368  BACOMGUADALUPE ANAHI MORALES JIMENEZ         100100000000034349101001NOMINA                                                                                                                            0000273
65505232380     012888029906650457  BACOMHECTOR CARO ALONSO                      100100000000056464701001NOMINA                                                                                                                            0000274
65505232380     012670028601449596  BACOMNAYELI PEREZ LEZAMA                     100100000000033282301001NOMINA                                                                                                                            0000275
65505232380     012180015107282996  BACOMFAUSTINO GIL ORTEGA                     100100000000030964501001NOMINA                                                                                                                            0000276
65505232380     012840015501260553  BACOMNORMA LISETTE HERNANDEZ CASTILLO        100100000000028854501001NOMINA                                                                                                                            0000277
65505232380     012832015214548622  BACOMELIAS MERINO HERNANDEZ                  100100000000038985101001NOMINA                                                                                                                            0000278
65505232380     012180015745277910  BACOMLUIS ALBERTO HERRERA MACIAS             100100000000033282301001NOMINA                                                                                                                            0000279
65505232380     012905015560457446  BACOMSERGIO MENDEL AGUILAR                   100100000000013896801001NOMINA                                                                                                                            0000280
65505232380     012830015109395801  BACOMMAYDANI ARMAS DAZA                      100100000000020934101001NOMINA                                                                                                                            0000281
65505232380     012180015195194724  BACOMKARLA LIZETH PENA GONZALEZ              100100000000028854501001NOMINA                                                                                                                            0000282
65505232380     012180015298119444  BACOMCINDY JAQUELINE CORONA GARCIA           100100000000030964501001NOMINA                                                                                                                            0000283
65505232380     012650004717419933  BACOMJULIO JUAN ARCOS MENDEZ                 100100000000068705501001NOMINA                                                                                                                            0000284
65505232380     012650015387103545  BACOMMARIA PAULA RODRIGUEZ GALICIA           100100000000038985101001NOMINA                                                                                                                            0000285
65505232380     012180015295178446  BACOMJOSE ANTONIO ISLAS CRUZ                 100100000000033282301001NOMINA                                                                                                                            0000286
65505232380     012180015797424614  BACOMEDGAR SANCHEZ AMADOR                    100100000000033282301001NOMINA                                                                                                                            0000287
65505232380     012180015280370974  BACOMBEATRIZ HERRERA MARQUEZ                 100100000000028854501001NOMINA                                                                                                                            0000288
65505232380     012580015205540460  BACOMMARINA GARCIA CHACON                    100100000000056464701001NOMINA                                                                                                                            0000289
65505232380     012680015288625862  BACOMSAYONARA DE JUQUILA DE LA ROSA PEREZ    100100000000030964501001NOMINA                                                                                                                            0000290
65505232380     012296015671329839  BACOMJUAN ANDRES ESPINOZA CHAVEZ             100100000000030964501001NOMINA                                                                                                                            0000291
65505232380     012180015601380226  BACOMALEJANDRO MANUEL LUIS CRUZ              100100000000030964501001NOMINA                                                                                                                            0000292
65505232380     012832015888812124  BACOMLETICIA PAOLA VAZQUEZ MENDEZ            100100000000020306501001NOMINA                                                                                                                            0000293
65505232380     012845029109375925  BACOMGASPAR GONZALEZ MUNOZ                   100100000000030964501001NOMINA                                                                                                                            0000294
65505232380     012180015268027508  BACOMGEMA ALESSANDRA GUADALUPE MORALES HERNA 100100000000028854501001NOMINA                                                                                                                            0000295
65505232380     012180015285773974  BACOMSANDRA CRUZ TORRES MORALES              100100000000028854501001NOMINA                                                                                                                            0000296
65505232380     021877064444695672  BITALYESSIKA GUADALUPE PEREZ VIVES           100100000000090915701001NOMINA                                                                                                                            0000297
65505232380     021650063745885341  BITALELIZABETH SOTO TEPOX                    100100000000047993601001NOMINA                                                                                                                            0000298
65505232380     021832063374049774  BITALROSA MARIA HERNANDEZ HERNANDEZ          100100000000031887101001NOMINA                                                                                                                            0000299
65505232380     021650063373983107  BITALMARIBEL BAUTISTA PINEDA                 100100000000024589401001NOMINA                                                                                                                            0000300
65505232380     021670064063108255  BITALMARCELA ISIDRO ROBLES                   100100000000047942001001NOMINA                                                                                                                            0000301
65505232380     021650064034481727  BITALSONIA BARRALES RIOS                     100100000000067889001001NOMINA                                                                                                                            0000302
65505232380     021660064283888255  BITALROGELIO PLUMA MENESES                   100100000000113207701001NOMINA                                                                                                                            0000303
65505232380     021650063917924166  BITALDANIEL ORTEGA DE LA CRUZ                100100000000012498201001NOMINA                                                                                                                            0000304
65505232380     021669064447657414  BITALANTONIA BEATRIZ CARRERA CASTRO          100100000000056458501001NOMINA                                                                                                                            0000305
65505232380     021854064295834650  BITALERASMO VASQUEZ DIAZ                     100100000000033280401001NOMINA                                                                                                                            0000306
65505232380     021881064943621269  BITALANA MARTHA SANTOS GOMEZ                 100100000000028074901001NOMINA                                                                                                                            0000307
65505232380     021881064943605599  BITALBLANCA FLOR DEL ANGEL CRUZ              100100000000030964301001NOMINA                                                                                                                            0000308
65505232380     021660064558032257  BITALEDUARDO ARTURO ARDAVIN DEL ANGEL        100100000000030964301001NOMINA                                                                                                                            0000309
65505232380     021888064510616464  BITALMARTHA PATRICIA DIEGO LARA              100100000000033246301001NOMINA                                                                                                                            0000310
65505232380     021855065132986669  BITALERICKA BECERRIL PEREZ                   100100000000028811301001NOMINA                                                                                                                            0000311
65505232380     021854064555367757  BITALLEONARDO MICHEL ANTONIO HERNANDEZ       100100000000030964501001NOMINA                                                                                                                            0000312
65505232380     021888064969031179  BITALJESSICA IVONNE MORALES AGUILERA         100100000000030964501001NOMINA                                                                                                                            0000313
65505232380     021830064610742419  BITALLORENZO ANTONIO GOIS BRIONES            100100000000032880001001NOMINA                                                                                                                            0000314
65505232380     021650064970474018  BITALLILIANA STEPHANIA HERNANDEZ JORGE       100100000000034349101001NOMINA                                                                                                                            0000315
65505232380     021180062433412393  BITALHECTOR GUILLERMO CID CARRERA            100100000000035841701001NOMINA                                                                                                                            0000316
65505232380     021650065117121220  BITALJOSE ANTONIO JIMENEZ ROSAS              100100000000036719901001NOMINA                                                                                                                            0000317
65505232380     021650065133050249  BITALANA YANETH FLORES IGNACIO               100100000000056465901001NOMINA                                                                                                                            0000318
65505232380     021905064935161286  BITALAMALIA SUSETT HERNANDEZ SARAIBA         100100000000033282301001NOMINA                                                                                                                            0000319
65505232380     021832064958859680  BITALELVIA PEREZ ROMERO                      100100000000033282301001NOMINA                                                                                                                            0000320
65505232380     021881065154567917  BITALMARIA DEL CARMEN GONZALEZ GERONIMO      100100000000008360001001NOMINA                                                                                                                            0000321
65505232380     021813064739230476  BITALBLANCA LILIANA SALAZAR LOPEZ            100100000000033282301001NOMINA                                                                                                                            0000322
65505232380     021650065164260338  BITALJORGE OCTAVIO LARA ARCEGA               100100000000034349101001NOMINA                                                                                                                            0000323
65505232380     021671064070646783  BITALJUANA MORALES ANDRADE                   100100000000033282301001NOMINA                                                                                                                            0000324
65505232380     036670500571808787  BINBULIZBETH CRUZ MARTINEZ                   100100000000040932601001NOMINA                                                                                                                            0000325
65505232380     036888500528416930  BINBUJANETH ESVEYDI ALEJO QUIAB              100100000000030964501001NOMINA                                                                                                                            0000326
65505232380     044650256007764871  COMERCARMEN BEATRIZ PEREZ ZUNIGA             100100000000033849101001NOMINA                                                                                                                            0000327
65505232380     044890063011301969  COMERHECTOR MANUEL CARDENAS MAIN             100100000000048759201001NOMINA                                                                                                                            0000328
65505232380     044813040058911914  COMERTANIA MARLEN CHIU DIAZ                  100100000000030964501001NOMINA                                                                                                                            0000329
65505232380     044650256013072036  COMERLUCERO LOPEZ LIRA                       100100000000034349101001NOMINA                                                                                                                            0000330
65505232380     044670043067041662  COMERJUAN CARLOS TELLEZ DIEGO                100100000000033282301001NOMINA                                                                                                                            0000331
65505232380     044580145031776537  COMERMA. GUADALUPE MARCELENO MELENDEZ        100100000000033282301001NOMINA                                                                                                                            0000332
65505232380     044650036055476959  COMERRONALDO CRUZ AGUIRRE                    100100000000034348101001NOMINA                                                                                                                            0000333
65505232380     072832002712767398  BBANOELIZABETH QUEZADA LOPEZ                 100100000000023923001001NOMINA                                                                                                                            0000334
65505232380     072580010237508732  BBANOLESLIE GUADALUPE GARCIA TORRES          100100000000040932801001NOMINA                                                                                                                            0000335
65505232380     072905010589828813  BBANONOELIA  GUADALUPE AVILA GONZALEZ        100100000000028853801001NOMINA                                                                                                                            0000336
65505232380     072320004454562662  BBANOROSA ANDREA BALLESTEROS BAUTISTA        100100000000027254501001NOMINA                                                                                                                            0000337
65505232380     072855010646310699  BBANOJOSE  LUIS TRUJILLO ZAMORANO            100100000000062619901001NOMINA                                                                                                                            0000338
65505232380     072876010622368440  BBANOCINTYA BURGOS LOPEZ                     100100000000028854501001NOMINA                                                                                                                            0000339
65505232380     072580003665683582  BBANOFLOR ISABEL CABRERA GUTIERREZ           100100000000014992201001NOMINA                                                                                                                            0000340
65505232380     072854010309344026  BBANOMELISSA RUIZ FUENTES                    100100000000028155901001NOMINA                                                                                                                            0000341
65505232380     072876010284102206  BBANOALDO BURGOS ABURTO                      100100000000049053001001NOMINA                                                                                                                            0000342
65505232380     072840010187394273  BBANONESTOR ENRIQUE MAGANA TREJO             100100000000028853801001NOMINA                                                                                                                            0000343
65505232380     072813010111217887  BBANOGENESIS GUADALUPE GONZALEZ QUINTANA     100100000000013648101001NOMINA                                                                                                                            0000344
65505232380     072650010398696196  BBANOLUZ ARACELI TENORIO CHACON              100100000000027119801001NOMINA                                                                                                                            0000345
65505232380     072876010025239066  BBANOLUIS FERNANDO PINO RUIZ                 100100000000030964301001NOMINA                                                                                                                            0000346
65505232380     072650003226527946  BBANOMARIA INES HERNANDEZ SANCHEZ            100100000000056460601001NOMINA                                                                                                                            0000347
65505232380     072180004851388676  BBANOALIA MARICRUZ LOPEZ GUZMAN              100100000000024871301001NOMINA                                                                                                                            0000348
65505232380     072180004851391906  BBANOYASER MAXIMILIANO BRINGAS               100100000000028862701001NOMINA                                                                                                                            0000349
65505232380     072180004851213822  BBANODANIEL FLORES LARA                      100100000000009915801001NOMINA                                                                                                                            0000350
65505232380     072180004851437404  BBANOLEYDI LAURA BARRUETA MONTIEL            100100000000052192201001NOMINA                                                                                                                            0000351
65505232380     072180004851358570  BBANOFABIAN DE JESUS HERNANDEZ               100100000000043962701001NOMINA                                                                                                                            0000352
65505232380     072180004851005564  BBANOJESUS ROBERTO TREJO LARA                100100000000078544001001NOMINA                                                                                                                            0000353
65505232380     072180004851234348  BBANOVICTOR MANUEL LOPEZ FLORES              100100000000054224201001NOMINA                                                                                                                            0000354
65505232380     072180004851002842  BBANOMARIA ESPERANZA TOLEDO MAZARIEGO        100100000000027302001001NOMINA                                                                                                                            0000355
65505232380     072180004851271152  BBANOBAUDEL PACHECO GUTIERREZ                100100000000034344701001NOMINA                                                                                                                            0000356
65505232380     072670010166953148  BBANOMARICRUZ YARETH LOPEZ PAREDES           100100000000056458501001NOMINA                                                                                                                            0000357
65505232380     072180004851366300  BBANOOSCAR BALLINAS LANDA                    100100000000030790701001NOMINA                                                                                                                            0000358
65505232380     072903003105134725  BBANONORMA STEFANIA RAMOS FIGUEROA           100100000000063505101001NOMINA                                                                                                                            0000359
65505232380     072180004851475068  BBANOVANIA GARCIA CASTILLO                   100100000000056458501001NOMINA                                                                                                                            0000360
65505232380     072650003357793380  BBANODIONISIA CUAPIO ROSETE                  100100000000024075101001NOMINA                                                                                                                            0000361
65505232380     072650010915881504  BBANOJHOAN NORBERTO GUEVARA BORGES           100100000000037472901001NOMINA                                                                                                                            0000362
65505232380     072180003519805900  BBANOEDER ALBERTO GARMENDIA REYES            100100000000056086801001NOMINA                                                                                                                            0000363
65505232380     072813003290031441  BBANOALMA ROSA RIVERA CRUZ                   100100000000024074901001NOMINA                                                                                                                            0000364
65505232380     072903004860573125  BBANOMARTHA MARTINEZ MARTINEZ                100100000000023874101001NOMINA                                                                                                                            0000365
65505232380     072905004268479489  BBANOCAROLINA SUAZO SANCHEZ                  100100000000019289901001NOMINA                                                                                                                            0000366
65505232380     072905004182325583  BBANOAIDE MARISOL CONDE SANCHEZ              100100000000031423801001NOMINA                                                                                                                            0000367
65505232380     072840004192146901  BBANOANDRES ANTONIO AVENDANO NAVARRO         100100000000050507901001NOMINA                                                                                                                            0000368
65505232380     072840010232081871  BBANOGUILLERMO LARA AVENDANO                 100100000000038981601001NOMINA                                                                                                                            0000369
65505232380     072180004184998746  BBANOGABRIEL FLORES CARBALLO                 100100000000176302501001NOMINA                                                                                                                            0000370
65505232380     072180004851009214  BBANOSOFIA VAZQUEZ SANTIAGO                  100100000000032814601001NOMINA                                                                                                                            0000371
65505232380     072180004850987298  BBANOELIZABETH PERALTA PEREZ                 100100000000018406501001NOMINA                                                                                                                            0000372
65505232380     072180004851447740  BBANOFRANCISCA PAOLA CAMACHO JIMENEZ         100100000000031887101001NOMINA                                                                                                                            0000373
65505232380     072180004851531876  BBANOANA CARINA ANGEL DIAZ                   100100000000067038301001NOMINA                                                                                                                            0000374
65505232380     072180004851348878  BBANOERICA ANDRADE BERMUDEZ                  100100000000033483001001NOMINA                                                                                                                            0000375
65505232380     072180004851273668  BBANOROLANDO PAREDES LIRA                    100100000000035246001001NOMINA                                                                                                                            0000376
65505232380     072180004851484910  BBANOLUIS ALBERTO GONZALEZ GONZALEZ          100100000000036639101001NOMINA                                                                                                                            0000377
65505232380     072180004547283218  BBANOEDUARDO LUCIANO MONROY BARRON           100100000000054320501001NOMINA                                                                                                                            0000378
65505232380     072180002451529918  BBANOMARIO ENRIQUE GOMEZ MARTINEZ            100100000000038036801001NOMINA                                                                                                                            0000379
65505232380     072180004121867160  BBANOJUAN GARCIA ORDONEZ                     100100000000056457501001NOMINA                                                                                                                            0000380
65505232380     072180002648792082  BBANOERICK DANIEL GONZALEZ PEREZ             100100000000043760701001NOMINA                                                                                                                            0000381
65505232380     072830002818717228  BBANOCARMINA MORALES LIMA                    100100000000027968901001NOMINA                                                                                                                            0000382
65505232380     072832002777922770  BBANOJUAN ANTONIO MARTINEZ CASTILLO          100100000000034345101001NOMINA                                                                                                                            0000383
65505232380     072180004851517272  BBANOROSA MACUIXTLE MALPICA                  100100000000042688001001NOMINA                                                                                                                            0000384
65505232380     072180004340526994  BBANOCIPRIANO OVANDO CARDENAS                100100000000000063201001NOMINA                                                                                                                            0000385
65505232380     072320002984225976  BBANOARACELY SANTIAGO GONZALEZ               100100000000068695101001NOMINA                                                                                                                            0000386
65505232380     072650002542614576  BBANOELIZABETH GARCIA PRADO                  100100000000023009401001NOMINA                                                                                                                            0000387
65505232380     072650002410398160  BBANOAQUILEO PALMA MARQUEZ                   100100000000030961001001NOMINA                                                                                                                            0000388
65505232380     072650008863919886  BBANOGLORIA ZACARIAS MORALES                 100100000000019345701001NOMINA                                                                                                                            0000389
65505232380     072910008650148351  BBANOCINTHIA CECILIA FELIX NOVELO            100100000000061146701001NOMINA                                                                                                                            0000390
65505232380     072832008484898748  BBANOHORTENSIA ILHUICATZI REYES              100100000000023008601001NOMINA                                                                                                                            0000391
65505232380     072830008484788876  BBANODIANA BELEM GARCIA MARTINEZ             100100000000047243001001NOMINA                                                                                                                            0000392
65505232380     072830008484789176  BBANOMIGUEL ANGEL MENESES CAMPECH            100100000000028836201001NOMINA                                                                                                                            0000393
65505232380     072855011388800589  BBANOHERNAN JOSUE RODRIGUEZ MATIAS           100100000000030964501001NOMINA                                                                                                                            0000394
65505232380     072813008691575077  BBANOCARLOS ARTURO RODRIGUEZ CRUZ            100100000000027464501001NOMINA                                                                                                                            0000395
65505232380     072320010349899696  BBANOEULALIO SANTIAGO SERNA                  100100000000030964501001NOMINA                                                                                                                            0000396
65505232380     072813003297226783  BBANODANIEL AUGUSTO CABRERA MENDEZ           100100000000020956201001NOMINA                                                                                                                            0000397
65505232380     072670010892823526  BBANOJESUS EDUARDO CORONADO MATIAS           100100000000032780401001NOMINA                                                                                                                            0000398
65505232380     072650010826509344  BBANOMIGUEL ANGEL VELAZQUEZ CHINO            100100000000028854501001NOMINA                                                                                                                            0000399
65505232380     072905010826827661  BBANOARELY  SARAI TRINIDAD MAURICIO          100100000000024076501001NOMINA                                                                                                                            0000400
65505232380     072876010789967470  BBANOOSCAR  MANUEL RODRIGUEZ HERNANDEZ       100100000000028854501001NOMINA                                                                                                                            0000401
65505232380     072905011068831249  BBANORICARDO PANTOJA OSORIO                  100100000000030964501001NOMINA                                                                                                                            0000402
65505232380     072580010347646348  BBANOALFREDO VELAZQUEZ CRUZ                  100100000000033280401001NOMINA                                                                                                                            0000403
65505232380     072876011002446114  BBANONESTOR HERNANDEZ LOPEZ                  100100000000024080701001NOMINA                                                                                                                            0000404
65505232380     072830004982878596  BBANOJHOVANNY MENESES SEGUNDO                100100000000027559301001NOMINA                                                                                                                            0000405
65505232380     072840010981903103  BBANOMONSERRATH BLASQUEZ FLORES              100100000000023140301001NOMINA                                                                                                                            0000406
65505232380     072877010200600121  BBANOYESSICA XITLALLI BERNAL TORRES          100100000000024076501001NOMINA                                                                                                                            0000407
65505232380     072580004342917978  BBANOJUAN CARLOS AVILA OCTAVO                100100000000041095901001NOMINA                                                                                                                            0000408
65505232380     127311013903756706  BAZTEDIANA GABRIELA MIER PINTOR              100100000000018080201001NOMINA                                                                                                                            0000409
65505232380     127869001243108099  BAZTENATANAEL HERNANDEZ PASCUAL              100100000000030964501001NOMINA                                                                                                                            0000410
65505232380     127890001101520898  BAZTEARMANDO MELENDEZ HERNANDEZ              100100000000129475901001NOMINA                                                                                                                            0000411
