10001069200150804210001APOYOS EMPRESARIALES REJUM S.A. DE CNOMINA 08042021     05                                        C00
2100100000000001479936301700900000000000004986611
300010000000000006985580100000000090425877851                              0000010006BERENICE ACOSTA MARES                                  NOMINA                                                          0000       00
300010000000000005127090100000000070082857255                              0000010059ANDREA ISABEL HEREDIA CERVANTES                        NOMINA                                                          0000       00
300010000000000006728690100000000090002334584                              0000010192MAURICIO LOPEZ ROSAS                                   NOMINA                                                          0000       00
300010000000000004376280100000000090413367823                              0000010228MARIA DEL ROCIO RADILLA ZAMORA                         NOMINA                                                          0000       00
300010000000000005926440100000000090298995092                              0000010261JUAN CARLOS ARROYO CORONA                              NOMINA                                                          0000       00
300010000000000002275610100000000090414320251                              0000010278PAULINO URBANO RADILLA                                 NOMINA                                                          0000       00
300010000000000002896030100000000090359067452                              0000010467YOLANDA MAYA PAHUA                                     NOMINA                                                          0000       00
300010000000000004106370100000000090361031457                              0000010490MARBELLA MARILEZ GUILLEN                               NOMINA                                                          0000       00
300010000000000001015030100000000090119109395                              0000010795PAOLA ALVAREZ CARDENAS                                 NOMINA                                                          0000       00
300010000000000003143400100000000090382491911                              0000010947ALEXIS ALBERTO TINOCO CALDERON                         NOMINA                                                          0000       00
300010000000000004266570100000000090239964019                              0000011005CECILIA GIOVANNA RUIZ LOZANO                           NOMINA                                                          0000       00
300010000000000002728930100000000090299592463                              0000011026GRECIA MARGARITA SALAZAR AGUILERA                      NOMINA                                                          0000       00
300010000000000001686370100000000090426358726                              0000011032GRISELDA GARCIA SILVA                                  NOMINA                                                          0000       00
300010000000000001361830100000000090261870346                              0000011066JORGE LUIS FLORES RAYA                                 NOMINA                                                          0000       00
300010000000000007045190100000000090263289802                              0000011249KATIA IVETTE ROSAS HERNANDEZ                           NOMINA                                                          0000       00
300010000000000002728990100000000090101121576                              0000011530VERONICA COLIN GONZALEZ                                NOMINA                                                          0000       00
300010000000000001854040100000000090176736541                              0000011533LIZZET MEZA FIGUEROA                                   NOMINA                                                          0000       00
300010000000000002946260100000000090179556943                              0000011540JAZMIN SARABIA BALTEZAR                                NOMINA                                                          0000       00
300010000000000002946090100000000090391018277                              0000011557KAREM ROCIO RODRIGUEZ SERNA                            NOMINA                                                          0000       00
300010000000000006134500100000000090416597781                              0000011603CRISTINA DEL CARMEN QUEZADA AGUILA                     NOMINA                                                          0000       00
300010000000000002207680100000000090405935146                              0000011621ARISBETH RAMIREZ SOTO                                  NOMINA                                                          0000       00
300010000000000004286640100000000070153856514                              0000011645JOSE ANTONIO VALENTIN LORENZO                          NOMINA                                                          0000       00
300010000000000002459890100000000090416528437                              0000011707JUANA MARIA ELENA DELGADO RAMIREZ                      NOMINA                                                          0000       00
300010000000000002894510100000000070128972992                              0000011730CECILIA MARGARITA FUENTES HERNANDEZ                    NOMINA                                                          0000       00
300010000000000002536430100000000090245396464                              0000011733ROSALBA GENCHI GONZALEZ                                NOMINA                                                          0000       00
300010000000000004106600100000000090362383365                              0000011734BLADIMIR GONZALEZ PALACIOS                             NOMINA                                                          0000       00
300010000000000002729070100000000070131944940                              0000011758BRANDON EDIBALDO RAMOS VAZQUEZ                         NOMINA                                                          0000       00
300010000000000003143390100000000090434569671                              0000011771MARTHA LAURA ALONSO LOPEZ                              NOMINA                                                          0000       00
300010000000000002632310100000000090294657745                              0000011764FELIPE DE JESUS VILLANUEVA CASTRO                      NOMINA                                                          0000       00
300010000000000002729070100000000090269829809                              0000011818EDGAR ALEXIS VARGAS TETUAN                             NOMINA                                                          0000       00
300010000000000002325800100000000090424828857                              0000011836ARACELI ARCIGA PENA                                    NOMINA                                                          0000       00
300010000000000002036980100000000090273480535                              0000011838VICTOR RAMON DAVILA VALDEZ                             NOMINA                                                          0000       00
300010000000000003361180100000000090417133533                              0000011839EDGAR JOSUE GUTIERREZ VAZQUEZ                          NOMINA                                                          0000       00
300010000000000003361180100000000090435720454                              0000011870MILVIA PATRICIA LORETO VALLEJO                         NOMINA                                                          0000       00
300010000000000002289090100000000070161917883                              0000011904PAULINA DIAZ QUIROZ                                    NOMINA                                                          0000       00
300010000000000000756280100000000090378716151                              0000011927MA DE LOURDES DIAZ VELOZ                               NOMINA                                                          0000       00
300010000000000002477070100000000090442447151                              0000011954PERLA ZUHEY AMARO CARRANZA                             NOMINA                                                          0000       00
300010000000000000815590100000000090270212645                              0000011941CLAUDIA ADRIANA MARQUEZ GONZALEZ                       NOMINA                                                          0000       00
300010000000000003143550100000000056011407838                              0000011998DULCE ROSARIO CUELLAR CUELLAR                          NOMINA                                                          0000       00
300010000000000002946170100000000090419084769                              0000012038KAREN LISSET PURECO NUNEZ                              NOMINA                                                          0000       00
300010000000000002946170100000000090444533136                              0000012048DULCE IVETH MACIEL GOMEZ                               NOMINA                                                          0000       00
300010000000000002362840100000000090448951765                              0000037491PALOMA ELIZABETH SALDIERNA MALDONADO                   NOMINA                                                          0000       00
300010000000000002946170100000000090448661023                              0000901700RAMON MOLINA RAMIREZ                                   NOMINA                                                          0000       00
300010000000000002946170100000000090442106257                              0000901852CINTIA YASMIN DIAZ UVILLADA                            NOMINA                                                          0000       00
300010000000000004328340100000000090422567533                              0000903525ISMAEL MEJIA CRUZ                                      NOMINA                                                          0000       00
300010000000000002946170100000000090364747593                              0000904393RICARDO ARREDONDO LORENZO                              NOMINA                                                          0000       00
4001000046000000000014799363000001000000000014799363
