000000001                991538617097          000000000205397JOSE LUIS RAMIREZ LOPEZ                 001001
000000002                991543719339          000000000042056SANTIAGO MAYO DEL CASTILLO              001001
000000003                991532434652          000000000228525ANTONIO MONROY MARTINEZ                 001001
000000004                991543287567          000000000049062JOSE MANUEL GARISTA SORIANO             001001
000000005                991525075150          000000000190759ROBERTO LANDEROS OLMEDO                 001001
000000006                991545542604          000000000325709IZEL CONTRERAS MARTINEZ                 001001
000000007                991537775116          000000000338497NELLY SUGEY DURAN LOZANO                001001
000000008                992983958612          000000000264751FRANCISCO MORALES HERNANDEZ             001001
000000009                992882542447          000000000277878CYNTHIA CATALINA REYNOSO ORDONEZ        001001
000000010                991585995760          000000000195788AARON JESUS AMARO GARCIA                001001
000000011                991187138385          000000000284404VICTOR JOSE PEREZ RODRIGUEZ             001001
000000012                992868741115          000000000066804LUIS CIRIACO CALIGUA                    001001
000000013                991266329381          000000000163292MANUEL IGNACIO NAVARRETE BAXIN          001001
000000014                991554892623          000000000186597RAFAEL ROLDAN VENEGAS                   001001
000000015                992666555810          000000000728587ANTONIO FRIAS FERNANDEZ                 001001
000000016                992666555802          000000000575183MARCOS LEOPOLDO FLORES FALCON           001001
000000017                992674642937          000000000325389GUILLERMO GARCIA MARQUEZ                001001
000000018                992666556159          000000000528753JUAN CARLOS SANTAMARIA MIRANDA          001001
000000019                991565980839          000000000401345RAFAEL ALBERTO PASCACIO VILLEGAS        001001
000000020                992880565636          000000000301964RODRIGO MOSCOSA AMARO                   001001
000000021                992725944481          000000000888160MOISES ARTEAGA TROYA                    001001
000000022                992949491546          000000000260434ROBERTO SALGADO SOTELO                  001001
