000000001                991153249611          000000000244040DANNY UBEL MORENO LAZARO                001001
000000002                991535897194          000000000266480JOSE ISIDRO DE LA CRUZ DE LA CRUZ       001001
000000003                991564142411          000000000251218ENRIQUE RUIZ MELGAR                     001001
000000004                991320174299          000000000271480KEVIN ALBERTO ESTRADA ENRIQUE           001001
000000005                991543965442          000000000246218JUAN CARLOS JIMENEZ LOPEZ               001001
000000006                991561340514          000000000271480DEY MARINA CABALLERO MARTINEZ           001001
000000007                992757734719          000000000271480EDRAY RAMOS MACAL                       001001
000000008                991543871676          000000000249690STEPHANIE BERENICE CHI ALCUDIA          001001
000000009                991515871576          000000000256218JUAN DANIEL SUAREZ HERNANDEZ            001001
000000010                991542841340          000000000244044CARLOS BENITO SANCHEZ VILLEGAS          001001
000000011                991530645349          000000000251218JOANDRA STEPHANIA MIRANDA GUMETA        001001
000000012                991567855888          000000000244689MARISSA ROBLERO RAMOS                   001001
000000013                991505931234          000000000427121LILIANA CAMACHO RAMIREZ                 001001
000000014                991533349678          000000000271480CARLOS MARIO DE LA PIEDRA AGUILAR       001001
000000015                991519855346          000000000233761DIANA LAURA MENDEZ SANTIZ               001001
000000016                991547885134          000000000233761MARTHA DEYSI RUIZ NUNEZ                 001001
000000017                991518884843          000000000256218AMALIA ESMERALDA VARELA HERNANDEZ       001001
000000018                991501550303          000000000276480MARIA ALEJANDRA PENA NUCAMENDI          001001
000000019                992653481557          000000000256217KARLA ELIZABETH MENDOZA HERNANDEZ       001001
000000020                991557889341          000000000249044SANDRA LUCIA NUCAMENDI JIMENEZ          001001
000000021                991515825736          000000000276480MIGUEL ANGEL RODRIGUEZ PEREZ            001001
000000022                991493342964          000000000261900KEVIN RICARDO ARGUETA COUTINO           001001
000000023                991529757221          000000000249689LEDY LAURA AREVALO MONROY               001001
000000024                991590573178          000000000249689VALERIA DEL CARMEN VAZQUEZ GARCIA       001001
000000025                991583142353          000000000230169JOSE LUIS VAZQUEZ HERNANDEZ             001001
000000026                991562196934          000000000212377LUCRECIA FAVIOLA ZUNIGA GOMEZ           001001
000000027                991577541406          000000000233761BRENDA JIMENEZ CAMACHO                  001001
000000028                991180660833          000000000276480ASUNCION KARELY RICARDEZ ALPUCHE        001001
000000029                991576677374          000000000197888IRAN ROMEO GARCIA PEREZ                 001001
000000030                991539521219          000000000212377LUIS ARTEMIO SOLIS ACERO                001001
000000031                991555111595          000000000298242VIRGILIO HERNANDEZ PEREZ                001001
000000032                991562070138          000000000256217OSCAR MENDOZA HERNANDEZ                 001001
000000033                991556124542          000000000276480REYNALDO DE JESUS HERNANDEZ CORZO       001001
000000034                991537496527          000000000039425MARIANA PALACIOS ARIAS                  001001
000000035                991539924640          000000000276501DAVID GILBERTO ACOSTA BONILLA           001001
000000036                991170447404          000000000256221JUAN JOSE HERNANDEZ JIMENEZ             001001
000000037                991539391502          000000000276480WILIAN ALEXIS SOLORZANO SANCHEZ         001001
000000038                991508691986          000000000244689ITZEL ASENCIO CASTILLO                  001001
000000039                991548608914          000000000523202VANESSA BOCANEGRA DE LA CRUZ            001001
000000040                991591890894          000000000249689CRISTAMELINA MUNIVE SANTOS              001001
000000041                991369067988          000000000276480JEREMIAS DOMINGUEZ PEREZ                001001
000000042                991553068927          000000000241184JOSE GUADALUPE DE LA CRUZ SANCHEZ       001001
000000043                991551900420          000000000276480DIMAS JOSUE COUTINO DE PAZ              001001
000000044                991590997393          000000000228636ALFONSO PEREZ DE LA CRUZ                001001
000000045                991525219523          000000000176192PATRICIA SANCHEZ DE LA CRUZ             001001
000000046                991543857232          000000000276501PEDRO DE LA CRUZ GOMEZ                  001001
000000047                991102485990          000000000429318ALDRIN GAMANIEL HERNANDEZ MOHENO        001001
000000048                991569803893          000000000223973FLOR YASMIN PEREZ CERVANTES             001001
000000049                991529477520          000000000339754CUAUHTEMOC DONOVAN VAZQUEZ QUINTO       001001
000000050                991538534881          000000000244040LILIANA DEL CARMEN LOPEZ LOPEZ          001001
000000051                991587620322          000000000217438DAVID DE JESUS JIMENEZ GUTIERREZ        001001
000000052                991541632828          000000000256199SANDY YUSETH GOMEZ ESCOBAR              001001
000000053                991559033354          000000000261900LEONARDO DAVID ESPONDA CERVANTES        001001
000000054                991557318751          000000000144777WILLIAMS VELASCO LOPEZ                  001001
000000055                991533712845          000000000223973KAREN ROSALINDA DIAZ MORALES            001001
000000056                991570756482          000000000228636NOEL AARON BAMACA GONZALEZ              001001
000000057                991178808147          000000000201418VERONICA SANTIZ LOPEZ                   001001
000000058                991552982245          000000000271480WILBERT ANTONIO TOLEDO SANCHEZ          001001
000000059                992979766863          000000000744394GRISSELL NICTE HA POOT KITUC            001001
000000060                991177751028          000000000533214MIGUEL ANGEL MONTALVO QUINONES          001001
000000061                991534593731          000000000345755JUAN CARLOS LOPEZ GOMEZ                 001001
000000062                992856544630          000000000437949ARTEMIO DE JESUS JIMENEZ DIAZ           001001
000000063                991561258532          000000000077081LUIS GUSTAVO SANCHEZ MORALES            001001
000000064                991572955210          000000000276473EDUARDO CASTANEDA MARIN                 001001
000000065                991523539811          000000000210930GEORGE MICHAEL MARROQUIN GOMEZ          001001
000000066                991543012557          000000000215824VILAS MAURICIO GOMEZ ENRIQUEZ           001001
000000067                991555204119          000000000095085ISRAEL CHABLE MAGANA                    001001
000000068                992765638577          000000000213746RODOLFO VALENZUELA RODRIGUEZ            001001
000000069                991515351251          000000000349013CARIME COLORADO SOTO                    001001
000000070                991542883899          000000000533183JOSE LUIS GALDAMEZ PEREZ                001001
000000071                991553866912          000000000245697YONENDY HERNANDEZ CALDERON              001001
000000072                991536466532          000000000249034ZURI SADAI GUTIERREZ DOMINGUEZ          001001
000000073                991518481388          000000000149672CESIA MORENO ESPINOSA                   001001
000000074                991541637940          000000000005000MARTHA ELENA AGUILAR DIAZ               001001
000000075                992866091490          000000000533166MADIOLIDETH GRAJALES TOALA              001001
000000076                991547442165          000000000340587WENDY JANETH ANGEL MORENO               001001
000000077                991541212613          000000000373698ALONDRA PEREZ ARCHILA                   001001
000000078                992799200975          000000000249676BRENDA IVONNE PEREZ SANCHEZ             001001
000000079                991512982587          000000000212364VANESSA OCHOA GARCIA                    001001
000000080                991520085545          000000000497950JUAN CARLOS HERNANDEZ ALVAREZ           001001
000000081                991530134562          000000000198543JOSEFA MAGDALENA MARTINEZ TRUJILLO      001001
000000082                992710556238          000000000647443MAILIN PEREZ PEREZ                      001001
000000083                992990647136          000000000306247JAZMIN TOLEDO HERNANDEZ                 001001
000000084                992994888790          000000000339717TANIA JACQUELINE FARRERA CHACON         001001
000000085                992976083161          000000000298227JOSE GUADALUPE DE LA CRUZ VILLEGAS      001001
000000086                991147094663          000000000164316ISRAEL CLEMENTE LOPEZ                   001001
000000087                991142530457          000000000239670MONICA VIRIDIANA HERNANDEZ LOPEZ        001001
000000088                991135405521          000000000256202VICENTE MIGUEL COUTINO GONZALEZ         001001
000000089                992973633527          000000000246279JUAN ANTONIO ESCOBAR VILLATORO          001001
000000090                991501832735          000000000313169BERTHA JUDITH ESPINOZA TORRES           001001
000000091                992884829921          000000000299181ULISES CAMACHO MARROQUIN                001001
000000092                992897968256          000000000313398MISAEL PEREZ SANTOS                     001001
000000093                991530390275          000000000298236ALFREDO RODRIGUEZ ROQUE                 001001
000000094                992953610829          000000000225621BEATRIZ ESTELA HERNANDEZ SUAREZ         001001
000000095                991506511821          000000000198530MARIA LIDIA SANCHEZ MACAL               001001
000000096                991137355343          000000000156759ELIDIA ROMERO VERA                      001001
000000097                991502095661          000000000212351ISIDRO DIONICIO HERNANDEZ SANCHEZ       001001
000000098                991547044801          000000000298219JORGE LUIS GUTIERREZ SANCHEZ            001001
000000099                992896191762          000000000533129CARLOS FERNANDO GARCIA MARTINEZ         001001
000000100                992757734425          000000000298219EDUARDO HERNANDEZ REYES                 001001
000000101                991544999991          000000000533129MARCOS GENAREZ AGUILAR                  001001
000000102                991123619680          000000000533129HUGO DELIS MOLINA GUTIERREZ             001001
000000103                991140583227          000000000198530LUCIA ALVAREZ PEREZ                     001001
000000104                992932625075          000000000822089YAZMIN GUADALUPE TOLEDO CHACON          001001
000000105                992847259301          000000000671062CONCEPCION GUADALUPE VELASCO PEREZ      001001
000000106                991122741946          000000000574231CANDELARIA HERNANDEZ PEREZ              001001
000000107                991160425141          000000000166221FELIPE DE JESUS CAMACHO CRUZ            001001
000000108                991592793052          000000000249689MARITZA GOMEZ RODRIGUEZ                 001001
