65508187217     002691902715256049  BANAMTRIANA ABIGAIL TORRES PECH              100100000000032857801001NOMINA                                                                                                                            0000001
65508187217     002180903557108577  BANAMLUCELY GUADALUPE XIX CHAN               100100000000032831201001NOMINA                                                                                                                            0000002
65508187217     002692701464717204  BANAMJORGE IVAN CIAU TORRES                  100100000000012737001001NOMINA                                                                                                                            0000003
65508187217     002855902209247928  BANAMCLAUDIA ADRIANA TELLEZ GUERRERO         100100000000053404701001NOMINA                                                                                                                            0000004
65508187217     002691701538314301  BANAMANGELA MARIA RODRIGUEZ CABRERA          100100000000040114101001NOMINA                                                                                                                            0000005
65508187217     002691701501980872  BANAMMONICA DE LA CRUZ TULIM COB             100100000000007430801001NOMINA                                                                                                                            0000006
65508187217     002690902674016318  BANAMKARINA GUADALUPE RAMIREZ CANUL          100100000000029312101001NOMINA                                                                                                                            0000007
65508187217     002691904466748370  BANAMMARIA ERIKA LOPEZ ZAVALA                100100000000032741801001NOMINA                                                                                                                            0000008
65508187217     002010904396669854  BANAMADALBERTO TOLEDO OROZCO                 100100000000033441601001NOMINA                                                                                                                            0000009
65508187217     012840029347918275  BACOMCRISTOFHER RAFAEL CORNEJO LANDA         100100000000026616501001NOMINA                                                                                                                            0000010
65508187217     012540015216465273  BACOMDELMY VICTORIA AKE BAAS                 100100000000029920901001NOMINA                                                                                                                            0000011
65508187217     012917015062477844  BACOMNEYTHER DEMETRIO POOX COOL              100100000000062574301001NOMINA                                                                                                                            0000012
65508187217     012691015714251993  BACOMMARIA DE LOURDES VAZQUEZ XIU            100100000000033442601001NOMINA                                                                                                                            0000013
65508187217     012150028825303417  BACOMLUIS JORGE LOPEZ AVILEZ                 100100000000037050901001NOMINA                                                                                                                            0000014
65508187217     012854015556113968  BACOMELIEZER VAZQUEZ MORALES                 100100000000033441601001NOMINA                                                                                                                            0000015
65508187217     012690015322525038  BACOMIVAN ISMAEL POOT ALVAREZ                100100000000028974501001NOMINA                                                                                                                            0000016
65508187217     012180015207897016  BACOMRODRIGO RIVERA GABRIELLI                100100000000107005301001NOMINA                                                                                                                            0000017
65508187217     012690015847679702  BACOMILSE MARIBEL XIJUM COBA                 100100000000033441601001NOMINA                                                                                                                            0000018
65508187217     012180015399502840  BACOMLAURA ANGELICA CANUL GONZALEZ           100100000000029920901001NOMINA                                                                                                                            0000019
65508187217     012691015225234234  BACOMJOSE FRANCISCO CANCHE CHAN              100100000000018565201001NOMINA                                                                                                                            0000020
65508187217     012694015877258762  BACOMGUADALUPE DE JESUS CONRADO KU           100100000000039996401001NOMINA                                                                                                                            0000021
65508187217     012690015253561925  BACOMJESSICA DEL CARMEN MORENO PEREZ         100100000000033441601001NOMINA                                                                                                                            0000022
65508187217     012691026417448872  BACOMFRANKLIN DOMINGUEZ CASTELLANOS          100100000000139370901001NOMINA                                                                                                                            0000023
65508187217     012180015746484207  BACOMANTONIO DE JESUS RAMIREZ CORREA         100100000000023624901001NOMINA                                                                                                                            0000024
65508187217     012694015405939071  BACOMEDUARDO IGNACIO BAUTISTA                100100000000023487101001NOMINA                                                                                                                            0000025
65508187217     012694015303303880  BACOMMARIO ISMAEL GONZALEZ HERNANDEZ         100100000000033442601001NOMINA                                                                                                                            0000026
65508187217     012690015526435377  BACOMMARIA SILVIA GARCIA MANZANO             100100000000037891001001NOMINA                                                                                                                            0000027
65508187217     012628029847465974  BACOMMIGUEL ANGEL CHAN ITZA                  100100000000017919301001NOMINA                                                                                                                            0000028
65508187217     012180015857630966  BACOMROSALINDA PEREZ COUTINO                 100100000000025749101001NOMINA                                                                                                                            0000029
65508187217     012691015121123960  BACOMJADE SHUHEI TEC CHAN                    100100000000043260301001NOMINA                                                                                                                            0000030
65508187217     012690028638623488  BACOMSELMY MARISOL CHAN CASTILLO             100100000000025722801001NOMINA                                                                                                                            0000031
65508187217     012694029661929206  BACOMJOSE VICENTE ROSADO ROSADO              100100000000017599201001NOMINA                                                                                                                            0000032
65508187217     012690015427244997  BACOMJESUS ISRAEL AGUILAR SANSORES           100100000000047449401001NOMINA                                                                                                                            0000033
65508187217     012180015525807283  BACOMMARIA ISABEL CAAMAL DZUL                100100000000040429301001NOMINA                                                                                                                            0000034
65508187217     012690015121407056  BACOMLARISA DENISSE RUIZ GONZALEZ            100100000000023227901001NOMINA                                                                                                                            0000035
65508187217     012691028676627775  BACOMCRISTEL MENDEZ HERNANDEZ                100100000000038735301001NOMINA                                                                                                                            0000036
65508187217     021691064604640478  BITALFELIX ZARATE HERNANDEZ                  100100000000041260201001NOMINA                                                                                                                            0000037
65508187217     021690064305372606  BITALFATIMA DEL ROSARIO CAAMAL CAAMAL        100100000000039047301001NOMINA                                                                                                                            0000038
65508187217     021691064848261147  BITALAVELINO PATRICIO TAPIA                  100100000000014016401001NOMINA                                                                                                                            0000039
65508187217     021691064974105342  BITALIVAN FLORES VELAZCO                     100100000000036779501001NOMINA                                                                                                                            0000040
65508187217     072691004887822705  BBANOLETICIA HERNANDEZ SANTOS                100100000000017792901001NOMINA                                                                                                                            0000041
65508187217     072691008484781407  BBANOLUISA MATILDE ESTRELLA GALA             100100000000021224001001NOMINA                                                                                                                            0000042
65508187217     072692003621891484  BBANOIRASEMA DE JESUS CHINAS GARCIA          100100000000069969101001NOMINA                                                                                                                            0000043
65508187217     072691008600581889  BBANOJOSE OBEIMAR VAZQUEZ CIGARROA           100100000000057534401001NOMINA                                                                                                                            0000044
65508187217     072692002961837730  BBANODAVID MELCHOR VELA PERALTA              100100000000033438001001NOMINA                                                                                                                            0000045
65508187217     072180006959521896  BBANOSANDRA GUADALUPE GONZALEZ MATUS         100100000000067531701001NOMINA                                                                                                                            0000046
65508187217     072180002769055200  BBANOZOILA DEL SOCORRO ALCOCER BALAM         100100000000035260601001NOMINA                                                                                                                            0000047
65508187217     072180008282908304  BBANOCESAR AUGUSTO KU CHI                    100100000000061369801001NOMINA                                                                                                                            0000048
65508187217     072180004098929694  BBANOMELISA ARACELY CATZIN VASQUEZ           100100000000029918601001NOMINA                                                                                                                            0000049
65508187217     072692004201611656  BBANOCHRISTIAN GUADALUPE REJON POOT          100100000000053483501001NOMINA                                                                                                                            0000050
65508187217     072694004195296020  BBANOROSA MORALES ARIAS                      100100000000053483501001NOMINA                                                                                                                            0000051
65508187217     072180004851598628  BBANOJOAQUIN CRUZ ROSAS                      100100000000038266101001NOMINA                                                                                                                            0000052
65508187217     072691010627349665  BBANONEFTALI PATRICIO DIAZ                   100100000000026008101001NOMINA                                                                                                                            0000053
65508187217     072180010658684334  BBANOWILBERTH MANUEL KUK CANCHE              100100000000042577701001NOMINA                                                                                                                            0000054
65508187217     072691004477511345  BBANOLORENA GUADALUPE CHI HUCHIM             100100000000037082401001NOMINA                                                                                                                            0000055
65508187217     127694013579891709  BAZTEMARIA ROSA DE LA CRUZ GUZMAN            100100000000015184201001NOMINA                                                                                                                            0000056
65508187217     127692001165092890  BAZTENATALIA DEL ROSARIO CANUL XIX           100100000000033441601001NOMINA                                                                                                                            0000057
65508187217     127690013571515744  BAZTECECILIA CONCEPCION PECH TUZ             100100000000032741801001NOMINA                                                                                                                            0000058
65508187217     127691017068431093  BAZTEGABRIELA ESTEFANIA CANCHE DIAZ          100100000000027949101001NOMINA                                                                                                                            0000059
65508187217     127691001058930293  BAZTEDIANA SAIRET BADILLO MARTINEZ           100100000000033441601001NOMINA                                                                                                                            0000060
65508187217     127691013590978439  BAZTERAUL JIMENEZ GUZMAN                     100100000000033442601001NOMINA                                                                                                                            0000061
65508187217     127691001330866153  BAZTENAIRY KARINA EK PUC                     100100000000019593501001NOMINA                                                                                                                            0000062
65508187217     127691013359320655  BAZTEJHONATAN SMITH LOPEZ HERNANDEZ          100100000000033442601001NOMINA                                                                                                                            0000063
65508187217     127691013570814209  BAZTELAURA ANTONIA SARAO MARTINEZ            100100000000027949101001NOMINA                                                                                                                            0000064
65508187217     127692013763967810  BAZTEJOSE ALONSO KINIL MIS                   100100000000033442601001NOMINA                                                                                                                            0000065
65508187217     127691001101258644  BAZTEDIANA GABRIELA CAAMAL DZUL              100100000000029312101001NOMINA                                                                                                                            0000066
65508187217     127692013731619093  BAZTERODRIGO AXEL VALLADARES GOMEZ           100100000000033442601001NOMINA                                                                                                                            0000067
65508187217     127691001156289613  BAZTEROBERTO CARLOS FARFAN GOMEZ             100100000000014535101001NOMINA                                                                                                                            0000068
65508187217     127690013710442050  BAZTEJOSE ENRIQUE TEC CAB                    100100000000026244901001NOMINA                                                                                                                            0000069
65508187217     127692001222557058  BAZTEJAVIER FRANCISCO PEREZ HERNANDEZ        100100000000023204301001NOMINA                                                                                                                            0000070
65508187217     127694013167281158  BAZTELILIANA LAINEZ ACOSTA                   100100000000023347501001NOMINA                                                                                                                            0000071
65508187217     127691001248695173  BAZTETANIA JANET TAMAYO PINTO                100100000000021785801001NOMINA                                                                                                                            0000072
65508187217     127691013080615367  BAZTEMARIA DE LOS ANGELES HERNANDEZ DE LA CR 100100000000033441801001NOMINA                                                                                                                            0000073
65508187217     127691013807050503  BAZTELOURDES ABIGAIL AKE UICAB               100100000000024748701001NOMINA                                                                                                                            0000074
65508187217     127692001330310433  BAZTEISIDRO ALBERTO BALAM MALDONADO          100100000000033439701001NOMINA                                                                                                                            0000075
65508187217     127690001022967950  BAZTELAURA ESMERALDA EUAN SANCHEZ            100100000000029920201001NOMINA                                                                                                                            0000076
65508187217     127690013193984193  BAZTELILIA CUPUL PECH                        100100000000021225401001NOMINA                                                                                                                            0000077
65508187217     127691001013708842  BAZTENANCI LORENA PUC WITZIL                 100100000000043619301001NOMINA                                                                                                                            0000078
65508187217     127691013001319846  BAZTEPASTORA HEREDIA CANCHE                  100100000000021225401001NOMINA                                                                                                                            0000079
65508187217     137692103967186135  COPELKAYMAE ISABEL HYDES VILLAFANA           100100000000031145801001NOMINA                                                                                                                            0000080
65508187217     137694101978167541  COPELGABRIELA IRENE AQUINO LOPEZ             100100000000027348801001NOMINA                                                                                                                            0000081
65508187217     137680103987832264  COPELANTONIO DE JESUS HERNANDEZ GUTIERREZ    100100000000017556501001NOMINA                                                                                                                            0000082
65508187217     137691103138716607  COPELLUZ ARELI ALVAREZ HERNANDEZ             100100000000019932601001NOMINA                                                                                                                            0000083
65508187217     137691102550055594  COPELFRANCISCO JAVIER CANUL CANCHE           100100000000019579601001NOMINA                                                                                                                            0000084
65508187217     137692130031437534  COPELYEREMI GABRIEL SANTANA CAB              100100000000024918301001NOMINA                                                                                                                            0000085
65508187217     137877101772231102  COPELMIRIAM BEATRIZ GARCIA CAMACHO           100100000000033442601001NOMINA                                                                                                                            0000086
65508187217     137692130002125765  COPELKEILA NOEMI CHAN DIAZ                   100100000000033442601001NOMINA                                                                                                                            0000087
65508187217     137130102065171615  COPELANTONIO GOMEZ DIAZ                      100100000000033442601001NOMINA                                                                                                                            0000088
65508187217     137692130015948719  COPELMARIA REBECA DZUL BACELIS               100100000000015487801001NOMINA                                                                                                                            0000089
65508187217     137692130038616565  COPELINGRID PATRICIA CABRERA MUNOZ           100100000000033442601001NOMINA                                                                                                                            0000090
65508187217     137920102851941861  COPELANGELES NAVIDAD RUIZ CAMPOS             100100000000031145801001NOMINA                                                                                                                            0000091
65508187217     137691103471116650  COPELDULCE ARACELLY CITUK UC                 100100000000025075301001NOMINA                                                                                                                            0000092
65508187217     137690130021224937  COPELROSARIA CHUC CAAMAL                     100100000000019337901001NOMINA                                                                                                                            0000093
65508187217     137691101055930102  COPELBRISA DEL ROSARIO TEC CHALE             100100000000026229001001NOMINA                                                                                                                            0000094
65508187217     137691103433200300  COPELBEATRIZ ADRIANA MENDOZA CANUL           100100000000027949101001NOMINA                                                                                                                            0000095
65508187217     137691104117221934  COPELKAREN AMAYRANI ARCOS EK                 100100000000032741801001NOMINA                                                                                                                            0000096
65508187217     137692130038220223  COPELSERGIO LEONEL RAMIREZ CANCHE            100100000000033441601001NOMINA                                                                                                                            0000097
65508187217     137691104157999132  COPELMARIA DAMARIS GONZALEZ VELASCO          100100000000032741801001NOMINA                                                                                                                            0000098
