100001E0615202165507534530     06152021
2000020015613ENCISO                        CALDERON            DAVID                         56803491688     000000000000647242
2000030017998GONZALEZ                      HERNANDEZ           PEDRO                         60599740363     000000000000610637
2000040017999VILLANUEVA                    MARTINEZ            MIGUEL                        56803430471     000000000000551215
2000050017970MONTES                        OROZCO              MIGUEL ANGEL                  60619132541     000000000001146733
2000060017741OTERO                         ROJAS               ANDER ROMAN                   60619385194     000000000000113537
2000070017591DIAZ                          RIVERA              RAMIRO SINUHE                 60619152271     000000000000521010
2000080017707GUERRERO                      DIAZ                BRUNO                         60619151259     000000000000206624
2000090017556DURAN                         LEAL                EMMANUEL ALEJANDRO            60619112552     000000000000140514
2000100017525FUENTES                       PALMA               DAVID                         56803429457     000000000001908964
2000110017420GOMEZ                         GONZALEZ            KARINA                        56678555280     000000000000529232
2000120017474CABRERA                       QUINTANA            HECTOR IRVING                 60590662781     000000000001222658
2000130017353DOMINGUEZ                     SALINAS             ANILU ADRIANA                 60619153354     000000000000301683
2000140017382CASTRO                        VARGAS              EDUARDO                       56803518404     000000000000928305
2000150017247AVENDANO                      HERRERA             ISAAC LEONARDO                25009160813     000000000001070303
2000160017222ALTAMIRANO                    JEREZ               ALONSO                        60619142014     000000000000190755
2000170017244HERNANDEZ                     ROMERO              ALFONSO  NORIMITSU            56803458004     000000000000219265
2000180017208BOHORQUEZ                     VERA                NESTOR OSVALDO                60619162966     000000000000181307
2000190016991SEGURA                        GALICIA             BENITO ISAAC                  60617601900     000000000001004724
2000200016687AVILES                        ARRIAGA             KENIA JACQUELINE              60619143389     000000000000216679
2000210016449TENORIO                       VAZQUEZ             MARCO ANTONIO                 56803606068     000000000001225535
2000220016925CHAVEZ                        ALVAREZ             NANCY ALLIN                   60619124012     000000000000507325
2000230016676CISNEROS                      SALDIVAR            CHRISTIAN ENRIQUE             60619152115     000000000001068545
2000240016590OTERO                         MERCADO             JORDI ISRAEL                  60619137276     000000000000499570
2000250016386GOMEZ                         TELLEZ              RAFAEL                        56803460879     000000000001042437
2000260016246VALDEZ                        CARRANZA            DAVID JONATHAN                56803506563     000000000001190731
2000270016250BETANCOURT                    MARTINEZ            EDGAR ANTONIO                 60612356131     000000000000480861
2000280016189HERNANDEZ                     GARCIA              ARGOS                         56803976016     000000000001111517
2000290016115SILVA                         REYNOSO             CAROLINA VIANEY               60616739080     000000000000623103
2000300016124RUIZ                          LOPEZ               JULIO CESAR                   56803508578     000000000002180003
2000310016150CALDERON                      MEJIA               ADRIANA ISABEL                60619121570     000000000000240673
2000320015937NAVA                          ROCHA               ANGEL DANIEL                  56803503857     000000000000372367
2000330015844CALDERON                      GONZALEZ            JOSE ISMAEL                   60619143802     000000000000578452
2000340015307ORTIZ                         UBILLA              ABISAI                        56803449506     000000000000535728
2000350015521DE LA ROSA                    TORRES              MARIO ELIAS                   60617854215     000000000000524328
2000360015539MANRIQUE                      PINA                RAUL SEBASTIAN                60619156992     000000000000255928
2000370015543DOLORES                       SORIANO             HUMBERTO CARLOS               60586997615     000000000000170570
2000380015050GOMEZ                         VERA                JORGE ALBERTO                 60619135548     000000000000725504
2000390015077AGUILAR                       VEGA                OSCAR DANIEL                  60619118416     000000000001290945
2000400015097MERCADER                      PADILLA             ESPERANZA ROSARIO             60619845485     000000000000298605
2000410015498MOLGADO                       FANTTINI            RICARDO                       56803437955     000000000000546323
2000420014905VAZQUEZ                       CRESCENCIO          DANIEL                        60619135028     000000000000856005
2000430014921GARAY                         MORENO              ROGELIO ISRAEL                60614540178     000000000000527174
2000440014861ROSAS                         CHAVEZ              VICTOR FERNANDO               56803607032     000000000000283454
2000450014669BECERRA                       CARDONA             GUILLERMO                     56803459868     000000000000615759
2000460014638BARRIENTOS                    ACEVEDO             BENJAMIN DE JESUS             56803518023     000000000000014824
2000470014533DIAZ                          RAMIREZ             DIANA BERENICE                56803501933     000000000000828599
2000480014547MONTERROZA                    CASTILLO            JAVIER                        56803458984     000000000001390274
2000490014584ACEVEDO                       VAZQUEZ             RENE                          60619137106     000000000000694967
2000500014400SANCHEZ                       ZAMARRIPA           SAMUEL EDUARDO                56803430332     000000000000922822
2000510013986HERNANDEZ                     ORDONEZ             MARCOS EFREN                  56803332185     000000000000402715
2000520012159VILLANUEVA                    YESCAS              OSVALDO                       56803493368     000000000000409772
2000530011809VAZQUEZ                       CARBALLO            EDUARDO DAVID                 60617271511     000000000000239240
2000540011230CASIMIRO                      DE JESUS            ALEJANDRO                     60594427520     000000000000334131
2000550002931MARTINEZ                      VAZQUEZ             ROSA MARIA                    60619143543     000000000000647127
30005600054000000000035347300
