000000001                991527012966          000000000395780JOSE REFUGIO JIMENEZ SANCHEZ            001001
000000002                991170666475          000000000989051NORMA LESLY QUEVEDO TORRES              001001
000000003                992675256569          000000001655393OSCAR DANIEL PEREZ MARTINEZ             001001
000000004                991527012982          000000000346515JAVIER PEREZ LEON                       001001
000000005                992657121172          000000001027339GRISELDA NINO DE RIVERA RAMIREZ         001001
000000006                992956032052          000000000903593ALEJANDRO ESTANISLAO ABAD               001001
000000007                992973132161          000000000438035SERGIO CASIMIRO DE JESUS                001001
000000008                991527012680          000000000329568MARIA TERESA RODRIGUEZ SEGUNDO          001001
000000009                991126366481          000000000811142BERNARDO LOPEZ PEREZ                    001001
000000010                992956032753          000000000518382ESTEBAN RUEDA ORTEGA                    001001
000000011                991525757751          000000000100136ALEJANDRO VALENCIA RAMIREZ              001001
000000012                992710261866          000000000677495DULCE MARIA ENRIQUEZ SALCEDO            001001
000000013                991527012647          000000001155952ANA LILIA ROMERO SANCHEZ                001001
000000014                991527012656          000000000752734JONATHAN JOVANY BETANCOURT MARTINEZ     001001
000000015                992917900929          000000000272276JOSELY ELIDEE BARRERA MANZANO           001001
000000016                992925352061          000000000402508JULIO CESAR FUENTES RENTERIA            001001
000000017                992928132755          000000001267586JOSE ANTONIO BONILLA BECIES             001001
000000018                992930234907          000000001082155JOAQUIN SANTOYO PINEDA                  001001
000000019                991467201036          000000001931979OSCAR CEDILLO RODRIGUEZ                 001001
000000020                991527012698          000000000707969VICTOR HERNANDEZ MORALES                001001
000000021                991510292874          000000000649591CHRISTIAN EDUARDO BOBADILLA MENESES     001001
000000022                992971130927          000000000426351MIGUEL GERARDO REYES RAZO               001001
000000023                992956031714          000000001267285ADRIAN ANTONIO ANGELES MORALES          001001
000000024                992634911377          000000000417697RUBEN GARDUNO GARCIA                    001001
000000025                992963232557          000000000930339MAYRA ANDREA RAMOS SANABRIA             001001
000000026                992707919255          000000000657223JAVIER OLVERA SANCHEZ                   001001
000000027                991527012728          000000000282863OCTAVIO VILLAVICENCIO ORTEGA            001001
000000028                991527013024          000000001518737JUAN JOSE LOPEZ RUBIO                   001001
000000029                991527012738          000000001879032CRISANTA ZARCO MENDOZA                  001001
000000030                992876328989          000000000957726SANDRA LUZ LOPEZ RODRIGUEZ              001001
000000031                991527012745          000000000925416ALEJANDRO MIGUEL CRUZ LOPEZ             001001
000000032                991527013032          000000000866342GUSTAVO ARMANDO CALVA ALCALDE           001001
000000033                992923974146          000000000881038RICARDO IVAN FLORES PEREZ               001001
000000034                992940288128          000000000760075SERGIO BACA BAUTISTA                    001001
000000035                992918836957          000000000446750JONATHAN ZENDEJAS ROMERO                001001
000000036                991527012702          000000000869736YONATHAN JOSSUE VILLALOBOS CEDENO       001001
000000037                991527012753          000000000257350CESAR JOSE LASSES ALARCON               001001
000000038                991525783077          000000000773794JAVIER SANCHEZ NAVA                     001001
000000039                990473158713          000000000521604ARTURO ISRAEL BOTELLO MENDEZ            001001
000000040                992890262684          000000000389375JOSE ALEJANDRO LOPEZ LINARES            001001
000000041                992933919935          000000000580981CARLOS ALFREDO RIVERA OLMOS             001001
000000042                991527012761          000000000583258HUGO ALFREDO SANTIAGO PEREZ             001001
000000043                991527012779          000000001344959JOSE IGNACIO CHAVARRIA MENDEZ           001001
000000044                991527013068          000000000595894JUAN MANUEL PEREZ FERNANDEZ             001001
000000045                992888897913          000000000646969OMAR ALEJANDRO CASTILLO IBANEZ          001001
000000046                991426842070          000000001425759DAVID CORTES CASTANEDA                  001001
000000047                992893648281          000000001177129LUIS ARMANDO RAMIREZ RODRIGUEZ          001001
000000048                991527013075          000000001190109IVAN ADOLFO BETANCOURT NAVARRO          001001
000000049                992901913719          000000000501891CESAR DARIO MARTINEZ RUIZ               001001
000000050                991527012787          000000000603561ALFONSO ALTAMIRANO JEREZ                001001
000000051                992797070659          000000000824016EDGARDO GABRIEL BECERRA CARDONA         001001
000000052                991527012664          000000000252346CLAUDEL FERMOSO TRUJANO                 001001
000000053                991527013083          000000000628404BRANDON RIVERA SOSA                     001001
000000054                992981276638          000000000266841HARRY BRAYAN LOPEZ ROSAS                001001
000000055                991527012796          000000000366926CESAR FERNANDO GAMA RESENDIZ            001001
000000056                991527012809          000000000721353ANIBAL MAURICIO RUIZ SANTIAGO           001001
000000057                991527012957          000000000345148SALVADOR GONZALEZ ROBLES                001001
000000058                992837174489          000000000826129JORGE HERNANDEZ GARCIA                  001001
000000059                991519272677          000000000512927ARTURO ADRIAN HERNANDEZ SOLIS           001001
000000060                991527013121          000000000206721JOSE JUAN VAZQUEZ SANTIAGO              001001
000000061                991527013139          000000000820576CHRISTIAN ARZATE PRIMITIVO              001001
000000062                991527013147          000000000303851LUIS ANTONIO VEGA CORTES                001001
000000063                991139223363          000000000496223ESTHER PAREDES MARTINEZ                 001001
000000064                991582880400          000000001417753ANNA KAREN SANTOS MEDRANO               001001
000000065                992926766722          000000000274807OMAR RODRIGO AVILA GARDUNO              001001
000000066                992926690157          000000000540055JONATHAN DAVID GUIJON CRUZ              001001
000000067                991527012817          000000000584585SILVIA PAOLA GONZALEZ GARCIA            001001
000000068                991527012826          000000000529755MAYTE ACEVEDO TRINIDAD                  001001
000000069                991156721907          000000000955704JUAN CARLOS LOPEZ BERNABE               001001
000000070                991527013156          000000000978839BLANCA DIANA HERNANDEZ MORENO           001001
000000071                991509766496          000000000505649DANIEL FLORES BUENDIA                   001001
000000072                991527013164          000000000116766JUAN CARLOS PEREZ MENDOZA               001001
000000073                991527012834          000000000879081EDNA JOCELYN ALVAREZ CERVANTES          001001
000000074                991503375056          000000000959675GABRIELA SANCHEZ LOPEZ                  001001
000000075                991527012842          000000000519950CLAUDIA EVELIN MORENO ROMERO            001001
000000076                991527013180          000000000586484SERGIO PINON GUEVARA                    001001
000000077                991589095759          000000000459483OSCAR ARMANDO PEREZ CERNA               001001
000000078                991527012850          000000000253207JUAN MANUEL CORTEZ MARTINEZ             001001
000000079                991527013198          000000001251477ALEJANDRO LUNA CORTES                   001001
000000080                991549225521          000000001388093ANAYELI NEPOMUCENO MARTINEZ             001001
000000081                991527681043          000000000425771BRENDA ISELA AGUILAR MARQUEZ            001001
000000082                991527013210          000000000792513HUGO ENRIQUE GAMBOA CHAVARRIA           001001
000000083                991527012868          000000000773741ULISES EZEQUIEL FRANCO GONZALEZ         001001
000000084                991513082714          000000000847528NALLELY JAVIER SOTO                     001001
000000085                991585840255          000000000805882ARMANDO FLORES OSNAYA                   001001
000000086                991548537537          000000000263764ANA MARIANA SCHLANG VAZQUEZ             001001
000000087                992878586462          000000000423474VICTOR MANUEL HERNANDEZ PANIAGUA        001001
000000088                991572665232          000000000391494JONATHAN IDSSEDER HERNANDEZ ORDONEZ     001001
000000089                991576955622          000000000582987ALEJANDRA LOPEZ SANCHEZ                 001001
000000090                991522553664          000000000630372LESLIE VEGA MEDINA                      001001
000000091                991508624884          000000000440175JULIO CESAR ROJAS LECONA                001001
000000092                991527012878          000000001297230JORGE VICTOR ANZALDO TORRES             001001
000000093                992982420627          000000002646554ERIK JESUS VELATTI VALVERDE             001001
000000094                991527013228          000000000234801MIGUEL ANGEL CERVANTES ZAMORANO         001001
000000095                991502483129          000000000717722DIEGO BERNAL ENCISO                     001001
000000096                990462130157          000000001035804CHRISTIAN ALVAREZ ROLDAN                001001
000000097                992879509763          000000001363809VICTOR ALFONSO TRUJILLO CABALLERO       001001
000000098                991554835980          000000000193585AILYN DIAZ JIMENEZ                      001001
000000099                991170491810          000000000459491VALERIA GUADALUPE LOPEZ ROSAS           001001
000000100                991503563251          000000000604770CECILIA SEBA MORALES                    001001
000000101                990467856016          000000000459933VIRIDIANA MENDEZ MOYAO                  001001
000000102                991527012885          000000000552361JESUS GERARDO OLAYA CAMACHO             001001
000000103                991515864774          000000000660469URIEL PADILLA ESTRADA                   001001
000000104                991583235312          000000000583921JULIO CESAR CISNEROS ANGELES            001001
000000105                991508013176          000000000728383HECTOR DIAZ CRUZ                        001001
000000106                991527012893          000000000984552SANDRA LOPEZ HERNANDEZ                  001001
000000107                991527012908          000000000569960OMAR GARCIA GARCIA                      001001
000000108                991501061995          000000000741750RODRIGO ALEJANDRO ALVAREZ ORTERO        001001
000000109                991527013238          000000000771086ADRIAN BARRON CRUZ                      001001
000000110                991527013245          000000000462333JUAN CARLOS FUENTES ROVIROSA            001001
000000111                991527012915          000000000526827DULCE PAULINA COLIN MARTINEZ            001001
000000112                991587116012          000000001085409MARIO IVAN GONZALEZ RUIZ                001001
000000113                991553357123          000000000181291ORLANDO RIOS JACOBO                     001001
000000114                992949266917          000000000706947AARON JOSUE HERNANDEZ PARRA             001001
000000115                991502973832          000000000800276MIGUEL EDUARDO HURTADO CRUZ             001001
000000116                991564024907          000000000674981MARCELA ELVIRA MONTIEL VALENCIA         001001
000000117                991527013261          000000000348027LUIS ENRIQUE RODRIGUEZ VALENCIA         001001
000000118                991531351349          000000001773165EMMANUEL HERNANDEZ CASTANEDA            001001
000000119                991177101082          000000001728834MARCO ANTONIO LOPEZ LUGO                001001
000000120                991585486249          000000000162804NESTOR ARTURO VELASCO LEON              001001
000000121                991509793727          000000000244377LUIS ALFREDO JIMENEZ NIETO              001001
000000122                991527013287          000000000484046ISRAEL HERNANDEZ MARMOLEJO              001001
000000123                991509968072          000000000238779JUAN CARLOS JIMENEZ HERNANDEZ           001001
000000124                991568237380          000000000472188SUELEM RAQUEL MIRANDA ORTIZ             001001
000000125                991527013253          000000000887169CARLOS JESUS GONZALEZ JIMENEZ           001001
000000126                991502636835          000000000683650DIEGO JAFET ALVAREZ LOPEZ               001001
000000127                991527013296          000000000825114LUIS ENRIQUE  LERA  MORALES             001001
000000128                992980477362          000000002229547OSCAR OSORNIO SANCHEZ                   001001
000000129                991527013309          000000000662156MARIA DE LOURDES SANDOVAL RAMOS         001001
000000130                991583389464          000000000730041LUIS EDUARDO CANCINO MARTINEZ           001001
000000131                991527013317          000000001032974LUIS ENRIQUE MARTINEZ RUIZ              001001
000000132                991512585305          000000000715664JENNIFER GABRIELA ZAVALA CERVANTES      001001
000000133                991527013326          000000000488761JOSE ALBERTO GALINDO GONZALEZ           001001
000000134                991537843380          000000001237703OMAR EDGAR MORA HERNANDEZ               001001
000000135                992981835785          000000000652031ROBERTO SINUHE SANCHEZ REBOLLO          001001
000000136                992944651065          000000001168979LUIS GERARDO SOSA SANTOS                001001
000000137                992945619041          000000000365884GUSTAVO ANGELES GRANADOS                001001
000000138                991527013342          000000000419635ROSALBA CARRANZA NAVARRETE              001001
000000139                991509966518          000000001372605OMAR CORNEJO PAZARAN                    001001
000000140                991582913758          000000001458188LAURA JACQUELINE ENCISO SALVADOR        001001
000000141                991536353408          000000000527064GUSTAVO ALONSO CHAVEZ VIDAL             001001
000000142                992927672268          000000000799848JUAN CARLOS MESTA GONZALEZ              001001
