11068577891902210001COMPANIA INDUSTRIAL BARZEK S.A. DE CNOMINA 19022021     05                                        C00
2100100000000001152863901700900000000000004522860
300010000000000001851800100002053901850243174                              0000040045FRANCISCO JAVIER PEREZ MISS                            NOMINA                                                          0000       00
300010000000000001985300100002914904016078889                              0000040037ROSANA AURORA GOMEZ PACHECO                            NOMINA                                                          0000       00
300010000000000004124190100002914903095720832                              0000040041ISRAEL ALEXANDER CANUL MAGANA                          NOMINA                                                          0000       00
300010000000000002237970100002804902093341269                              0000040052JORGE FOSIL SOSA                                       NOMINA                                                          0000       00
300010000000000001985300100002804902348278621                              0000040055MARIA DEL CARMEN LOPEZ MONTEJO                         NOMINA                                                          0000       00
300010000000000001985300100002053902549731213                              0000040064IRASEMA DE MONSERRAT VEGA MARTINEZ                     NOMINA                                                          0000       00
300010000000000002597320100002050902704500237                              0000040098FELIX GIOVANI DZIB DZIB                                NOMINA                                                          0000       00
300010000000000001521310100002914902791724256                              0000040099EINER GABRIEL EK ALONZO                                NOMINA                                                          0000       00
300010000000000005331470100002053904014326892                              0000040107FATIMA DEL ROSARIO BALAN VELAZQUEZ                     NOMINA                                                          0000       00
300010000000000001014860100002800904350359213                              0000040142LAURA ALMEIDA JIMENEZ                                  NOMINA                                                          0000       00
300010000000000001922230100002053903193103461                              0000040156ERIKA YURIDIA SOLIS PARRA                              NOMINA                                                          0000       00
300010000000000004223850100002053903406770390                              0000040165CAROLINA DE LA CRUZ MAY                                NOMINA                                                          0000       00
300010000000000004475780100002917902197263088                              0000040200LEONARD JOAQUIN GARMA DZUL                             NOMINA                                                          0000       00
300010000000000002123640100002053903726007390                              0000040331ANA GABRIELA YAN PECH                                  NOMINA                                                          0000       00
300010000000000002982280100002914903746212961                              0000040372JESSE JAVIER DZUL GOMEZ                                NOMINA                                                          0000       00
300010000000000001604320100002914903752968364                              0000040373KARLA EVELIN IX CEN                                    NOMINA                                                          0000       00
300010000000000002314910100002180902087994359                              0000040256FELIPE ARCEO CANCHE                                    NOMINA                                                          0000       00
300010000000000002382020100002790903524690165                              0000040523YAVEB NISCIT ALMEIDA VELAZQUEZ                         NOMINA                                                          0000       00
300010000000000001960590100002800903787002477                              0000040524EZEQUIEL DOMINGUEZ SANCHEZ                             NOMINA                                                          0000       00
300010000000000001089160100002050903290524771                              0000040543JOSE DAVID CITALAN HERNANDEZ                           NOMINA                                                          0000       00
300010000000000002297130100002053903921754655                              0000040606CONCEPCION DZUL DIAZ                                   NOMINA                                                          0000       00
300010000000000001720970100002050903485413574                              0000040499GERARDO NEFTALI ALEGRIA FOSIL                          NOMINA                                                          0000       00
300010000000000002362130100002800903942485758                              0000040682PATRICIA GONZALEZ IZQUIERDO                            NOMINA                                                          0000       00
300010000000000006475130100002050701415178036                              0000040819DANIEL EDUARDO RODRIGUEZ ORTIZ                         NOMINA                                                          0000       00
300010000000000002496820100002053904052760290                              0000040839VIRIDIANA GUADALUPE KANTUN TZEEK                       NOMINA                                                          0000       00
300010000000000001175180100002052904275035334                              0000040851CLAUDIA BEATRIZ MENDEZ LOPEZ                           NOMINA                                                          0000       00
300010000000000002664730100002910904060790816                              0000040867ROQUER VARGUEZ SANCHEZ                                 NOMINA                                                          0000       00
300010000000000003131400100002917904229953811                              0000040908LICENY ESMERALDA COBA BAAS                             NOMINA                                                          0000       00
300010000000000001483840100002914701451800802                              0000040934MARCOS ANTONIO CANCHE MENA                             NOMINA                                                          0000       00
300010000000000002764800100002917904136357982                              0000040944JORGE MANUEL DZUL DOMINGUEZ                            NOMINA                                                          0000       00
300010000000000003397430100002050904282804220                              0000041015INGRID SUGELY PEVIA BEBERAJE                           NOMINA                                                          0000       00
300010000000000002496890100002050701624334564                              0000041075FRIDA DEL CARMEN VAZQUEZ ROMELLON                      NOMINA                                                          0000       00
300010000000000003179800100002910904315740977                              0000041077VIRGINIA ALONDRA COLLI NOVELO                          NOMINA                                                          0000       00
300010000000000002562210100002051701424460475                              0000041078CLAUDIA ELIZABETH HUCHIM REYES                         NOMINA                                                          0000       00
300010000000000002562210100002917902936110839                              0000041087LUIS FERNANDO CHAN SIMA                                NOMINA                                                          0000       00
300010000000000003179840100002910903944081228                              0000041093ELSY CRISTINA PAMPLONA PECH                            NOMINA                                                          0000       00
300010000000000002649220100002050701233613401                              0000041110KARINA DE LOS ANGELES GASCA CHE                        NOMINA                                                          0000       00
300010000000000003039800100002051904248575479                              0000041122ALMA ROCIO CANUL NAAL                                  NOMINA                                                          0000       00
300010000000000002136410100002920904387855220                              0000041124BRANDON ULISSES CANAVAL NUNEZ                          NOMINA                                                          0000       00
300010000000000002562210100002053701657420264                              0000041171YARALDY BAUTISTA VERA                                  NOMINA                                                          0000       00
300010000000000002982420100002053904482112227                              0000901568MARCO ENRIQUE COSGALLA CAMPOS                          NOMINA                                                          0000       00
300010000000000002714800100002053904395735539                              0000902891MOISES ABIMAEL MISS LOPEZ                              NOMINA                                                          0000       00
300010000000000002407610100002050701626202995                              0000903855LUIS FERNANDO GOMEZ HIDALGO                            NOMINA                                                          0000       00
300010000000000003129810100002910903453174723                              0000904010ANGEL MAURICIO HEREDIA OSORIO                          NOMINA                                                          0000       00
4001000044000000000011528639000001000000000011528639
