000000001                991597129176          000000000223099LUIS ALBERTO CABRERA LOPEZ              001001
000000002                991502482913          000000000199191NEREYDA ANGUIANO RIVERA                 001001
000000003                991280786624          000000000257524MONICA PATRICIA MILLAN NEQUIZ           001001
000000004                992633475816          000000000583933NANCY HERRERA MIRANDA                   001001
000000005                991413152049          000000002938116NATALIA DOMINGUEZ PALACIOS              001001
000000006                991413152391          000000001489104GABRIELA CORTEZ FLORES                  001001
000000007                991160678708          000000000838924ELIA GARCIA ORTEGA                      001001
000000008                991413152480          000000000731588MARIA DE LOURDES CERDA TORRES           001001
000000009                991413148343          000000002428980LUIS ANGEL ROMERO HERNANDEZ             001001
000000010                991575946266          000000000533183DAVID JESUS VALVERDE HERNANDEZ          001001
000000011                991523117666          000000000414413SANDRA ALICIA NUNEZ CERVANTES           001001
000000012                991494132815          000000000262330AURELIO NICOLAS MALDONADO               001001
000000013                991528112401          000000000784708SARA CASTRO SANTOS                      001001
000000014                992621485016          000000000123640ERNESTO LOPEZ GUTIERREZ                 001001
000000015                991543564584          000000000732166AIDA LUNA ARTEAGA                       001001
000000016                991588780296          000000001151190LLUVIA JATZIRI ALBA ISLAS               001001
000000017                991503385127          000000000533183GEMMA NAYELLY VILLA GUTIERREZ           001001
000000018                992687151055          000000000501206JESICA FRANCISCA JIMENEZ ROMERO         001001
000000019                992688688397          000000001047461FCO MARTIN TERAN DEL VALLE              001001
000000020                991160743046          000000000685623JUAN LUIS LOPEZ SOTO                    001001
000000021                990171395661          000000000323391RUBEN FLORES GONZALEZ                   001001
000000022                991586435106          000000000452849ELISEO GONZAGA SANDOVAL                 001001
000000023                991504059037          000000000533183ALEJANDRA VELAZQUEZ CARMONA             001001
000000024                991534439582          000000000308437DULCE CAROLINA JUAREZ TORIBIO           001001
000000025                991518358242          000000000784708GERSON JOSUE GARCIA FLORES              001001
000000026                991580945857          000000000252095ANTONIO MORALES BETANZOS                001001
000000027                991146623948          000000000257595MARTHA LETICIA HUIZAR CARRILLO          001001
000000028                991510345973          000000000758414IRMA ESTEPHANIE MARTINEZ LAZCANO        001001
000000029                991517503471          000000000004057JHEIMY CUAUTLE PACHECO                  001001
000000030                991569357974          000000000172991MARIA DE LOS ANGELES CARRICHI HERNANDEZ 001001
000000031                991552312891          000000000509756ALEJANDRO CRUZ ZENON                    001001
000000032                991575384187          000000000533183ANTONIO DE JESUS ALCARAZ REYES          001001
000000033                991578060200          000000000268543VIRIDIANA RODRIGUEZ GARCIA              001001
000000034                991582133091          000000000533183NANCY LUCERO VARGAS SANTIAGO            001001
000000035                992975362237          000000000218392GUSTAVO ALEXIS TORRES MARTINEZ          001001
000000036                990472881071          000000000644477FELICIANO RAMOS JARAMILLO               001001
000000037                991541657917          000000000370748SANDRA ARLETH CUEVAS MARIACA            001001
000000038                992959489169          000000000672208CIPACTLI RINCON MEDRANO                 001001
000000039                990188768714          000000001377360FERMIN ALEJANDRO DELGADILLO JUAREZ      001001
000000040                990143022330          000000000425327FERMIN DOMINGUEZ GONZALEZ               001001
000000041                991121179756          000000000633935FRANCISCO PEREZ HERNANDEZ               001001
000000042                992730471682          000000000257517SILVIA BAUTISTA JUAREZ                  001001
000000043                992988593388          000000000637513JESSICA DIANA HIDALGO JIMENEZ           001001
000000044                991169396977          000000000330116OSCAR VICTORIA LOPEZ                    001001
000000045                991469088172          000000000068796RAMON MORALES JUAREZ                    001001
000000046                991501431072          000000000376247ERICK RODRIGUEZ TRUJILLO                001001
000000047                991560697764          000000000257517MARIA TERESA PADILLA MIRANDA            001001
000000048                991549317856          000000000299150MARCELA LOPEZ ORTEGA                    001001
000000049                991500464848          000000000347370PATRICIA NAVIDAD DE LA LUZ MORALES      001001
000000050                991521609777          000000000312415JESUS URIEL DE LA ROSA PINZON           001001
000000051                991168579997          000000000260841SAUL ALDAIR PEREZ GARCIA                001001
000000052                991141025694          000000000257517SUSANA AYDA REYES MARTINEZ              001001
000000053                991589089996          000000000286533CESAR ANASTACIO DEL ANGEL               001001
000000054                992968545715          000000000483660DAVID LOPEZ RAMIREZ                     001001
000000055                991138708398          000000000303253RUTH GABRIELA ABARCA MELENDEZ           001001
000000056                991109912339          000000000257517IVONE TRUJILLO GUIZAR                   001001
000000057                991137274599          000000000362745NESTOR HUGO SOLORZANO BELLO             001001
000000058                992890345326          000000000330116CATALINA SANTIAGO LEYVA                 001001
000000059                991177614209          000000000449978JUAN EDMUNDO LUNA AGUILLON              001001
000000060                991520381004          000000000205575ELEAZAR MANUEL DAMIAN SANTIAGO          001001
000000061                992994304438          000000000257517REYNA OFELIA JACINTO LAGUNA             001001
000000062                992905932300          000000000685623ZURISADAI BURGOS BETANCOURT             001001
000000063                991524915755          000000000330116ELSI YARATSEL TOLEDO CHAVEZ             001001
000000064                991525286344          000000000647898GUADALUPE LIBIEL BUSTAMANTE SERENA      001001
000000065                991164292200          000000000224576ENRIQUE MENDOZA ORTIZ                   001001
000000066                990459796452          000000000583225NICOLAS PADILLA BELTRAN                 001001
000000067                991529936491          000000000330116BLANCA ARGELIA SEVERO VALENCIA          001001
000000068                991529445684          000000000253014IVAN ISMAEL RAMIREZ CRUZ                001001
000000069                991529942971          000000000086161DULCE MARIA PERALTA PACHECO             001001
000000070                991585839674          000000000257517KARLA YARAVITH HERNANDEZ TINOCO         001001
000000071                990461196413          000000000290836CRISTINA MENDIOLA MOSQUEDA              001001
000000072                991536703550          000000000257517LETICIA ARENAS RUEDA                    001001
000000073                991527231809          000000000122616ADRIANA BERENICE AGUILAR ALONSO         001001
000000074                991539654216          000000000330116REBECA ROBLES ARENAS                    001001
000000075                992892744635          000000000277844ANDRES ARTURO MEDINA BERMUDEZ           001001
000000076                991541566105          000000000330116JOSUE MANUEL ZOZAYA HERNANDEZ           001001
000000077                991541797468          000000000257517MARIA GUADALUPE SANCHEZ CAMACHO         001001
000000078                991158406553          000000000235159ANAKAREN VALENCIA GARCIA                001001
000000079                991207509413          000000000557372JUAN CARLOS BAUTISTA VILLA              001001
000000080                991205500397          000000000237700VICTOR HERNANDEZ SANCHEZ                001001
000000081                991548692270          000000000247517NANCY JAZMIN MARQUEZ PALOMARES          001001
000000082                991548756430          000000000150383DIANA GONZALEZ MARTINEZ                 001001
000000083                992986990924          000000000229832CESAR PAZ FERRER                        001001
000000084                992903641899          000000000256211EVA GONZALEZ ALVAREZ                    001001
000000085                991166469523          000000000188237JUAN CARLOS HERNANDEZ HERNANDEZ         001001
000000086                991553880176          000000000271749KEVINN AXEL HERNANDEZ HERNANDEZ         001001
000000087                991554212770          000000000310253JOSE DE JESUS MONZALVO GARCIA           001001
000000088                991502297469          000000000633183IVAN GONZALEZ ESTRADA                   001001
000000089                991575357775          000000000697684FRANCISCO JAVIER MENDEZ CASTANEDA       001001
000000090                990464404092          000000000257517MARIA LUISA HERRERA LUNA                001001
000000091                991558411867          000000000495111CARLOS JESUS PINON TREJO                001001
000000092                991519961992          000000000261707GABRIELA ROSALES RUBIO                  001001
000000093                991145552141          000000000257517SERGIO FERNANDO GARCIA TELLEZ           001001
000000094                991166618073          000000000257517SERGIO LOPEZ MORALES                    001001
000000095                991569709150          000000000068295VERONICA PLATA AMAYA                    001001
000000096                991575884101          000000000255601JORGE MUNOZ VILLASANA                   001001
000000097                991576411924          000000000055240ADOLFO CABRERA GOMEZ                    001001
000000098                992984619927          000000000281307LUIS ANTONIO SANTIAGO MERIDA            001001
000000099                991554240561          000000000330116JUAN JOSE GONZALEZ MARTINEZ             001001
000000100                990459162909          000000000185399BRISA LINDA OLVERA JIMENEZ              001001
000000101                991582610329          000000000241824GABRIEL JIMENEZ SANTOS                  001001
000000102                992674127331          000000000125465FRANCISCO JAVIER GOMEZ MONTES DE OCA    001001
000000103                991583791599          000000000320116NAYELI YAZLIN HERNANDEZ CASTILLO        001001
000000104                991500459154          000000000330116GUADALUPE MEJIA GUTIERREZ               001001
000000105                991553682552          000000000097435FABRICIO SANTIAGO ESTEVEZ HEREDIA       001001
000000106                991558952116          000000000425327GUADALUPE VALLEJO ADAYA                 001001
000000107                991501862360          000000000257517ROBERTO MORALES MARTINEZ                001001
000000108                991568653143          000000000179977DANIELA VANESSA HERNANDEZ DE LOS SANTOS 001001
000000109                992700171980          000000000155445ALBINO BETANCOURT ARIAS                 001001
000000110                991509733143          000000000242458MARIO DOMINGUEZ MIGUEL                  001001
000000111                991420823813          000000000257517JUAN FERNANDO LEON RAMIREZ              001001
000000112                992997184921          000000000204452KAREN JOSELYN SAAVEDRA LOPEZ            001001
000000113                992692364654          000000000163979PATRICIA VENEGAS CAMPOS                 001001
000000114                992966229492          000000000257517ALBERTO INIESTRA CAMPILLO               001001
000000115                991545982642          000000000290836AIDA ANDRES MARTINEZ                    001001
000000116                991564313235          000000000483677RAYMUNDO MARTINEZ REYES                 001001
000000117                991587118794          000000000257524MIGUEL ANGEL CAMARGO SANTIAGO           001001
000000118                991528769390          000000000257524EDITH GOMEZ SANTIAGO                    001001
000000119                992877094825          000000000082555ANA IVONNE GUTIERREZ GALINDO            001001
000000120                992981742469          000000000203905MARIA DE LOS ANGELES LUGO VENCES        001001
000000121                991563446026          000000000290836CRISTINA ZARATE PADILLA                 001001
000000122                991520957359          000000000229839ADRIAN LEON MENDOZA                     001001
000000123                991519850638          000000000209520MIGUEL ANGEL MORENO CASTILLO            001001
000000124                991531710869          000000000229839JESUS DANIEL CHAVEZ GARCIA              001001
000000125                990465318947          000000000246329JOSE RAUL MIRANDA ZAYAS                 001001
000000126                992888189862          000000000255607HECTOR VALADEZ LUGO                     001001
000000127                992982015927          000000000608667JOSE ALFONSO PONCE JUAREZ               001001
000000128                991553448002          000000000196609VICTOR MANUEL AYALA DEL MORAL           001001
000000129                991169129928          000000000480500BRENDA MONSERRAT FLORES RUBI            001001
000000130                991548801684          000000000444808JOSE ARTURO MORENO ZARATE               001001
000000131                992997595182          000000000098212SERGIO SAUL MARTINEZ SALAZAR            001001
000000132                991521462311          000000000036210JENNIFER ROMAN MORENO                   001001
000000133                991530851994          000000000685648JOSE LUIS REYES JUAREZ                  001001
000000134                991588911104          000000000257524PABLO GALICIA QUIROZ                    001001
000000135                991550530631          000000000257524EDWIN ANTONIO VILLALPANDO TORRES        001001
000000136                991542913909          000000000257524ANA KAREN HERNANDEZ CLIMACO             001001
000000137                992852820706          000000000257524GUADALUPE MARTINEZ MARTINEZ             001001
000000138                992861995855          000000000255607VICTOR HUGO GONZALEZ GUTIERREZ          001001
000000139                991124206711          000000000281317ADRIAN GAMBOA REYES                     001001
000000140                992929946373          000000000104100SARAI DIAZ BRAVO                        001001
000000141                991582708534          000000000028786IBETH MARTINEZ LOPEZ                    001001
000000142                992905966558          000000000158572JOSE GREGORIO VILLAR MEZA               001001
000000143                991580955779          000000000257524DIANA ELIZABETH MORALES BAEZ            001001
000000144                991563011399          000000000252524REBECA BAUTISTA RAMIREZ                 001001
000000145                992965921384          000000000533214EDGAR EMMANUEL PENA MENDEZ              001001
000000146                992976629539          000000000257524ALONDRA LIZETTE GUEVARA SANTOYO         001001
000000147                991575307767          000000000019618JOSE OLIMPO SANCHEZ POSADA              001001
000000148                991159648186          000000000005000JAZMIN ARRIETA CASTILLO                 001001
000000149                992949437517          000000000257524MAGDALENA QUINTERO PASTOR               001001
000000150                991530069259          000000000242478JOCELYN DAMALLANTY SANCHEZ RAMIREZ      001001
000000151                991524263980          000000000257536JULIA GUEVARA HIPOLITO                  001001
000000152                991530579017          000000000685648NELLY JAZMIN VILLA ESPINOSA             001001
000000153                991549718128          000000000311888RAFAEL ALEJANDRO TINOCO SOLANO          001001
000000154                991524559074          000000000255610MARCO ANTONIO HERRERA GALICIA           001001
000000155                991518305869          000000000257536MARIA ALEJANDRA VARELA NAVA             001001
000000156                991553606743          000000000249689JOSE YAIR PALMA MALVAEZ                 001001
000000157                991549899820          000000000027931MARIA DEL CARMEN TINAJERO MARTINEZ      001001
000000158                991551911922          000000000444742JOSE ALFREDO BECERRIL MORALES           001001
000000159                991502089800          000000000249689DANIELA ALEJANDRA PEREZ PAULINO         001001
000000160                991546387918          000000000257524EBER MANUEL FLORES MORALES              001001
000000161                991506812409          000000000252524LUZ EDITH VAZQUEZ DEL RIO               001001
000000162                991534391381          000000000245986LUCIA ANTONIA TRUJILLO MENDOZA          001001
000000163                991547905524          000000000161145VICTOR ARMANDO MORALES GOMEZ            001001
000000164                992765445183          000000000242230AURORA MENDOZA ALCANTARA                001001
000000165                991562614751          000000000257524NANCY GABRIELA ZAMORANO ESPINOSA        001001
000000166                992864352009          000000000471203CARMEN JULIA BALAM SOLORZANO            001001
000000167                991563700562          000000000242465JENNIFER VERA LEMUS                     001001
000000168                991523371657          000000000193164CESAR ARMANDO NEGRETE MORENO            001001
000000169                991553576585          000000000420756CLAUDIA NAYELLI LEYVA SOTO              001001
000000170                991519285067          000000000339743LUCERO ALVAREZ GONZALEZ                 001001
000000171                991330844508          000000000257524ALICIA MONSERRAT CRUZ MENDOZA           001001
000000172                991172763958          000000000257524NESTOR JULIAN VAZQUEZ MACIAS            001001
000000173                991551047208          000000000199474MARY KAREN CELIS PEREZ                  001001
000000174                991514739038          000000000242478JULIO CESAR ROMERO DIAZ                 001001
000000175                991530682564          000000000242314JOSE LUIS CERECERO DELGADO              001001
000000176                991571512153          000000000478677MARIO ALBERTO REYES GARCIA              001001
000000177                991503833146          000000000252524ANGEL ARRIETA MARTINEZ                  001001
000000178                991556405871          000000000293242CUAUHTEMOC MARTINEZ SANCHEZ             001001
000000179                990465106745          000000000257536RUTH RODRIGUEZ RAMIREZ                  001001
000000180                991576052358          000000000257536ALFONSO JAVIER LOPEZ PERALTA            001001
000000181                991506657486          000000000257524RICARDO FUENTES MARTINEZ                001001
000000182                991565878527          000000000239022DIANA KARINA GOMEZ HERNANDEZ            001001
000000183                992958999120          000000000685658NESTOR DARIO SANCHEZ MARTINEZ           001001
000000184                991581961899          000000000103617RIGOBERTO MIGUEL RAMOS                  001001
000000185                991568945254          000000000282688MARIANA RODRIGUEZ ARENAS                001001
000000186                991509483621          000000000406231JORGE LUIS ROSALES MARTINEZ             001001
000000187                991582215911          000000000938095JOSE REYNALDO NOVOA OBISPO              001001
000000188                991256163939          000000000282688CINTHYA DOMINGUEZ LOPEZ                 001001
000000189                991141596225          000000000273939TONANTZIN LOPEZ CORTAZAR                001001
000000190                991550585095          000000000081288CRHISTIAN JANDETTE SORIANO              001001
000000191                991582854140          000000000277688VIVIANA MARTINEZ BUSTAMANTE             001001
000000192                991567768284          000000000109906IZAMAR FLORES BEIZA                     001001
000000193                991196017401          000000000282674ARTURO SANCHEZ LOPEZ                    001001
000000194                991553148416          000000000267615LUIS MANUEL DEL ANGEL PEREZ             001001
000000195                991583155334          000000000273939GITZEL CAROLINA VARGAS BOURET           001001
000000196                991581801120          000000000249689ABIGAIL ARROYO MARTINEZ                 001001
000000197                991567916798          000000000257536DIANA AFRODITA BENITEZ GOMEZ            001001
000000198                991584026643          000000000249689MAYRA SUSANA CASTANEDA FLORES           001001
000000199                991484183843          000000000257524HECTOR CONTRERAS FLORES                 001001
000000200                991508180817          000000000255607ALVARO SANCHEZ GALLO                    001001
000000201                991165122597          000000000257524LUIS ALDO RODRIGUEZ FUENTES             001001
000000202                991569384050          000000000257524MARIO ALBERTO CARRERA FERNANDEZ         001001
000000203                991550112518          000000000246159LISETTE GARCIA NUNEZ                    001001
000000204                991586266374          000000000483677VERONICA DANAE MORALES CORONA           001001
000000205                991585185206          000000000483677LUIS BERNARDO MESINAS AGUILAR           001001
000000206                991585415635          000000000257536ARELLY MEJIA SALAS                      001001
000000207                991514581086          000000000242465VIOLETA GONZALEZ GOMEZ                  001001
000000208                991553666649          000000000157462ARMANDO MOJARRO DURAN                   001001
000000209                991586294815          000000000249689ERIKA YOCELIN CRUZ BRITO                001001
000000210                991581605984          000000000483677MIGUEL ANGEL PORTELA CUEVAS             001001
000000211                991586707745          000000000252536JOSE ANGEL SILVA HERNANDEZ              001001
000000212                991554434034          000000000249689ARMANDO NAVA MONTANO                    001001
000000213                991526059044          000000000242465BRAYAN ALEXIS RANGEL VAZQUEZ            001001
000000214                991540420190          000000000242465MARIA LUISA DAVILA ROMAN                001001
000000215                991522565920          000000000293242JUAN MANUEL PENALOZA MARTINEZ           001001
000000216                992944296931          000000000267181ALVARO SANTIAGO SANTIAGO                001001
000000217                991522045080          000000000257524MIGUEL ISAAC MALDONADO SANCHEZ          001001
000000218                991588899145          000000000257524HECTOR IVAN JARDON GALINDO              001001
000000219                991549605986          000000000257524MARIO ALBERTO HERNANDEZ CALZADA         001001
000000220                991542683388          000000000091279DANIEL DORANTES MARTINEZ                001001
000000221                992670744662          000000000242478ARELY AIDE VIANEY ARRIAGA JIMENEZ       001001
000000222                991556423976          000000000528202LADY TANIA CELAYA MENDOZA               001001
000000223                991556401638          000000000244689PATRICIA DE LOURDES RESENDIZ VILLANUEVA 001001
000000224                990455754240          000000000199191EDWIN DARIO MONTANO MEDINA              001001
000000225                991540082724          000000000029658ALAN RAUL ROMERO HERRERA                001001
000000226                991556728033          000000000239689SANDY LIZBETH APARICIO CORDERO          001001
000000227                991500231782          000000000252524DAVID MANUEL MORAN SALAZAR              001001
000000228                991501911208          000000000257536DAVID GONZALEZ LUNA                     001001
000000229                992923928624          000000000483677LUIS GARAY PEREZ                        001001
000000230                991592428754          000000000332846IVONNE MARTINEZ MARTINEZ                001001
000000231                991566597729          000000000483677LAURA SUSANA SANCHEZ HERNANDEZ          001001
000000232                991574976568          000000000258060ANALILIA TORRES SANJUAN                 001001
000000233                991546067258          000000000257524MIGUEL CALZADA CARRASCO                 001001
000000234                991538377383          000000000257524MARIA DEL  CARMEN GALAN HURTADO         001001
000000235                991577081998          000000000072479MARIA GUADALUPE DIAZ QUINTERO           001001
000000236                991550531866          000000000257536BLANCA ELIZABETH RODRIGUEZ VILLEGAS     001001
000000237                991578376509          000000000257536ALEJANDRO VERA RODRIGUEZ                001001
000000238                991579366663          000000000255607FERNANDO JERONIMO MARTINEZ              001001
000000239                991549659679          000000000199203FAUSTA ELIZABETH VERGARA MEDINA         001001
000000240                992968877106          000000000257536ISRAEL HERRERA ESCOBAR                  001001
000000241                991179930558          000000000242478CRISTOFER BENITEZ SANTIAGO              001001
000000242                991555349900          000000000257524KARLA ALEJANDRA VAZQUEZ ESPINOSA        001001
000000243                991547352454          000000000339743FERNANDA ISABEL SOLANO ROJAS            001001
000000244                991518772404          000000000257524SANDRA SANCHEZ BASILIO                  001001
000000245                991508944625          000000000199191DIANA CARBAJAL OLVERA                   001001
000000246                991554655648          000000000257524SUSANA ARLAETH SANCHEZ TORRES           001001
000000247                991514814307          000000000247524MIRIAM CESARIO PEREZ                    001001
000000248                991560109312          000000000184834VIRIDIANA MARBELLA CAMARILLO LOPEZ      001001
000000249                991516621309          000000000257524ANDRES SANVICENTE DIAZ                  001001
000000250                991549351462          000000000252524VIRIDIANA ALEJANDRA CASTILLO AVILA      001001
000000251                991551817752          000000000483677MANUEL ANGEL GARCIA MARTINEZ            001001
000000252                991548664498          000000000339743CINTHIA VERENICE ARTIGAS LOPEZ          001001
000000253                991591724838          000000000483677LILIANA MACEDA PENALOZA                 001001
000000254                991563977034          000000000257536TONATIUH BARTOLOME PENA CASTILLO        001001
000000255                991568682995          000000000257524NESTOR ALEXIS MENDEZ ENRIQUEZ           001001
000000256                991525304175          000000000257524JESUS DANIEL RESENDIZ CAMPOS            001001
000000257                991507803578          000000000257524MIRIAM DAYANAVA ACEVEDO NAVARRO         001001
000000258                991584462877          000000000194191CRISTIAN FERALEXIS SALAZAR MORENO       001001
000000259                991510492802          000000000249689HECTOR MARIO MALDONADO LOPEZ            001001
000000260                991529527257          000000000252524ESTEBAN BOBADILLA NUNEZ                 001001
000000261                991572471507          000000000483677KAREN ANALHY GONZALEZ PEREZ             001001
000000262                992907828195          000000000257536MAURO ALFREDO CAZARES ZEPEDA            001001
000000263                991550306650          000000000257524RODRIGO GONZALEZ SANCHEZ                001001
000000264                992994331044          000000000159776MOISI GONZALEZ VALLE                    001001
000000265                991586702409          000000000334956RANDY EDUARDO MARTINEZ CANUTO           001001
000000266                991525504821          000000000257524DAVID SAN JUAN OLVERA                   001001
000000267                992968874425          000000000257524ERICK JOVANI SANCHEZ ORTIZ              001001
000000268                991522200123          000000000237027ERIC DANIEL DIAZ REYES                  001001
000000269                991524826895          000000000214381JOSE ARMANDO ROBLES PEREZ               001001
000000270                991577420277          000000000211324HECTOR ENRIQUE ROLDAN CRUZ              001001
000000271                991531085624          000000000257524NOE PAREDES BARRAZA                     001001
000000272                991500205989          000000000041153JORGE ALBERTO GUTIERREZ IBARRA          001001
000000273                991529954228          000000000257524MARIA MARGARITA ORTEGA ROSAS            001001
000000274                991553146103          000000000257524ARNOLDO LOPEZ ALBARADO                  001001
000000275                991549331794          000000000242465LORENZO AVILA FUENTES                   001001
000000276                991521569379          000000000257524RICARDO ERICK BARRERA SANTIAGO          001001
000000277                991553682366          000000000416439JOSE ALBERTO SALINAS GUTIERREZ          001001
000000278                992874803302          000000000257536TERESA GONZALEZ ALARCON                 001001
000000279                991524948524          000000000244689PATRICIA SARAY LARA FLORES              001001
000000280                992849165975          000000000252524MARICELA BORBOLLON GRANADOS             001001
000000281                991502500538          000000000092486YURIXHI PAOLA TORRES RAMIREZ            001001
000000282                991502524802          000000000257524HUGO ALEXIS ALVAREZ MALDONADO           001001
000000283                991540349504          000000000257524ULISES ANTONIO POSADAS LOPEZ            001001
000000284                992880794635          000000000214381ADAN CRISTIAN AREVALO GUZMAN            001001
000000285                991587058950          000000000257524KAREN ITZEL LOPEZ JUAREZ                001001
000000286                991501441091          000000000257524PATRICIA VALENTAN CANEDO                001001
000000287                991550529144          000000000199191ALAN EMMANUEL SANCHEZ CIPRIANO          001001
000000288                992994293665          000000000257524CARLOS ARMANDO ESPINOZA GARCIA          001001
000000289                991508135956          000000000249689LESLY JOSELIN HERNANDEZ PEREZ           001001
000000290                991584192656          000000000237465DAYSI FABIOLA SANCHEZ ZAVALA            001001
000000291                991574190963          000000000199203ALEJANDRO FABIAN VILLANUEVA MARTINEZ    001001
000000292                991523344022          000000000247524ULISES ROJAS GUTIERREZ                  001001
000000293                991509121559          000000000257524BEATRIZ ADRIANA MARTINEZ HELGUERAS      001001
000000294                991583596501          000000000108039VICTOR ALEJANDRO VELAZQUEZ MARTINEZ     001001
000000295                991553681866          000000000257524RAFAEL ALEJANDRO ROBLES MARTINEZ        001001
000000296                991556766587          000000000257524EVA DE LA CRUZ GARCIA                   001001
000000297                991547620139          000000000257524CARLOS ALBERTO ARRIAGA ABURTO           001001
000000298                991501869555          000000000252524JONATHAN MEJIA ARELLANO                 001001
000000299                992954906268          000000000257524FIDENCIO JUAREZ MENDOZA                 001001
000000300                992998656614          000000000255607RICARDO ALEJANDRO FLORES MARTINEZ       001001
000000301                991536567150          000000000257524JAIRO ARMANDO RAMIREZ HERNANDEZ         001001
000000302                991569763565          000000000167465DANIEL MANRIQUEZ LOPEZ                  001001
000000303                991511856313          000000000298242LISET TREJO ESCOBEDO                    001001
000000304                991552779733          000000000257524JORGE LEONARDO MENDOZA GALICIA          001001
000000305                992856628818          000000000257524FERNANDO VAZQUEZ LOPEZ                  001001
000000306                991583170121          000000000229839SONIA ESQUIVEL GOMEZ                    001001
000000307                991520940771          000000000257524ANNA LOURDES CRUZ PERALTA               001001
000000308                990456749127          000000000257524RUTH YARETH GARCIA CID                  001001
000000309                992874592344          000000000483677CHRISTIAN JONATHAN LUNA ORTEGA          001001
000000310                991587117399          000000000257524JOSE CARLOS TORIS ALVAREZ               001001
000000311                991568455735          000000000257524RAMON ALBERTO SOTO BARRON               001001
000000312                991553947408          000000000220829JANY KARINA GONZALEZ SANCHEZ            001001
000000313                991550264385          000000000257524CANDELARIA CRUZ VICTORIANO              001001
000000314                991549471637          000000000214381ELIZABETH PEREZ PERALTA                 001001
000000315                991583411306          000000000257524JUAN CARLOS TORALES ZAFRA               001001
000000316                990460850489          000000000257524ROMUALDO HERRERA DOMINGUEZ              001001
000000317                991527450524          000000000290844JUANA ROBERTA LOPEZ JUAREZ              001001
000000318                991506847983          000000000257524ISRAEL GARCIA GODINEZ                   001001
000000319                992970395854          000000000172870JUAN MANUEL MARTINEZ RAMIREZ            001001
000000320                991566163319          000000000257524ERIKA CRUZ VISTORIANO                   001001
000000321                991540748164          000000000257524GIOVANNI SILES ARMENTA                  001001
000000322                991566563786          000000000257524ULISES RIVERA ANGEL                     001001
000000323                991536703553          000000000257524EDMUNDO DE AVILA SURO                   001001
000000324                991579066333          000000000195910EDGAR DANIEL CASTILLO CANO              001001
000000325                991507651531          000000000298242VICTOR MANUEL CONTRERAS RAYON           001001
000000326                991514364569          000000000257525ADELA MARTINEZ VELAZQUEZ                001001
000000327                991537719208          000000000257525MARIA FERNANDA LOPEZ PICHARDO           001001
000000328                991518793363          000000000257525DILLAN TABOADA SANCHEZ                  001001
000000329                991515121976          000000000257525DIANA ROCHA GARCIA                      001001
000000330                991518668563          000000000229842ENRIQUE CHAVEZ GARCIA                   001001
000000331                991566684800          000000000252525LEONARDO DAVID HERNANDEZ PENA           001001
000000332                990462103311          000000000257525ERNESTO ARTURO NAVARRO ESCAMILLA        001001
000000333                991522005304          000000000257525JONATHAN MONROY GONZALEZ                001001
000000334                991538591027          000000000249690EDUARDO ALEJANDRO RAZO DOMINGUEZ        001001
000000335                991572048780          000000000257525DALIA ARELI ROJAS ANSELMO               001001
000000336                991579913028          000000000257525ELIZABETH ACOSTA AGUILAR                001001
000000337                991519883220          000000000257525JUAN BERNARDO CERVANTES GONZALEZ        001001
000000338                991557398107          000000000257525MARTHA ITZEL HERNANDEZ VAZQUEZ          001001
000000339                991523485126          000000000242466MARIA GUADALUPE RANGEL VELAZQUEZ        001001
000000340                990469092994          000000000242466RICARDO EFREN PEREA MARTINEZ            001001
000000341                992930040584          000000000239537LIZBETH MARTINEZ CAMARGO                001001
000000342                991506870004          000000000257525DANIEL GARCIA RIOS                      001001
000000343                991520277964          000000000257525IVONNE BALOIS VELAZQUEZ                 001001
000000344                992983591166          000000000257525BRENDA BERENICE UGALDE CUEVAS           001001
000000345                992889632948          000000000008708THALIA ADILENE REA OLGUIN               001001
000000346                991532049775          000000000257525CARLOS ALDAHIR VIVEROS ANTUNEZ          001001
000000347                991549051974          000000000257525LUIS CARLOS GARDUNO MARQUEZ             001001
000000348                991507284842          000000000242466BRENDA ZUGEHY ALCANTARA ORDAZ           001001
000000349                991534688123          000000000257524MAYRA HERNANDEZ FLORES                  001001
000000350                991546664873          000000000257524YASMIN ARELI ESQUIVEL DUARTE            001001
000000351                991541346970          000000000280704ENRIQUE FRANCISCO SEBASTIAN MARTINEZ    001001
000000352                991584165295          000000000249690LEONARDO DANIEL ISLAS VAZQUEZ           001001
000000353                991545641007          000000000257525EDUARDO GRANADOS HERNANDEZ              001001
000000354                991438080593          000000000255607MOISES UGARTE MONTES                    001001
000000355                991599211988          000000000298242ISAIAS SALOME DOROTEO                   001001
000000356                991514472354          000000000199192ALFREDO SALGADO HERNANDEZ               001001
000000357                991584891198          000000000242466ARIEL RENE MONTERO SEPULVEDA            001001
000000358                991510770597          000000000252525ANDREA FERNANDA MARTINEZ MORENO         001001
000000359                991549982861          000000000257525MARIA GUADALUPE SANTOYO HERNANDEZ       001001
000000360                991577858739          000000000242466DIANA ELIZABETH HERNANDEZ GONZALEZ      001001
000000361                992891559389          000000000252525SELENE DE JESUS TAPIA                   001001
000000362                991586558430          000000000249689XOCHITL JAZMIN CONTRERAS RAMIREZ        001001
000000363                991567357699          000000000229839JONATHAN BAUTISTA ORTUNO                001001
000000364                991507555578          000000000252525MARIA FERNANDA CALDERON GOMEZ           001001
000000365                991523730120          000000000257525ELIAZER ALONSO LUJANO                   001001
000000366                991503525409          000000000257525CARLOS ARMANDO MARTINEZ PAEZ            001001
000000367                991545687454          000000000242466BRENDA LUCERO JUAREZ HERNANDEZ          001001
000000368                991524184995          000000000133962MIGUEL ANGEL MENDOZA CERRITOS           001001
000000369                990457117620          000000000247921MARTHA ALICIA LOPEZ HERNANDEZ           001001
000000370                991585870024          000000000483677YAVE CONTRERAS ALARCON                  001001
000000371                991532115967          000000000224842MARTHA GABRIELA ROSALES MARTINEZ        001001
000000372                991538407838          000000000252525DANIEL ALEJANDRO RODRIGUEZ CALDERON     001001
000000373                991522960532          000000000252525ENRIQUE AMADO GALINDO COACHE            001001
000000374                991573014170          000000000252525KARLA INES MUNOZ RODRIGUEZ              001001
000000375                991593461044          000000000252525LUIS GERARDO CANSECO CHAVEZ             001001
000000376                991121906232          000000000252525EDER BRENIS VAZQUEZ                     001001
000000377                991525351707          000000000252525JAVIER SALINAS CARRILLO                 001001
000000378                991584247933          000000000252525DIANA LAURA CRUZ LOPEZ                  001001
000000379                991557479665          000000000214352KARLA MARIA QUIROZ HERNANDEZ            001001
000000380                991506700568          000000000252525LUIS ANGEL VARGAS ACOSTA                001001
000000381                991541674900          000000000252525ALEJANDRO YANEZ ESQUIVEL                001001
000000382                992611267507          000000000252525VIRIDIANA DIANEY AGUILAR DELGADO        001001
000000383                991445527597          000000000252525CRISTIAN BRUNO ONOFRE LEDESMA           001001
000000384                991564355091          000000000252525AIDE GUADALUPE SALGADO ORTIZ            001001
000000385                991559591756          000000000252525SAMUEL TADEO DOMINGUEZ ZACARIAS         001001
000000386                991509665547          000000000252525ANA LAURA CERON MORENO                  001001
000000387                991586529910          000000000252525ANIBAL ABIZAI AGUILAR GONZALEZ          001001
000000388                991584430454          000000000252525KARLA ADRIANA TORRES ARELLANO           001001
000000389                991508921625          000000000244690ALFREDO VAZQUEZ VALDEZ                  001001
000000390                992937752067          000000000252525RENE GIOVANNI VALENTIN MARTINEZ         001001
000000391                991149261494          000000000252525ANGELICA ANGEL CAZUELA                  001001
000000392                991553926314          000000000360760FABIOLA GUADALUPE HERNANDEZ MENDOZA     001001
000000393                991522539066          000000000257525JOSE ALFREDO RAMIREZ OLIVARES           001001
000000394                991571385677          000000000252525ADAD GONZALEZ RODRIGUEZ                 001001
000000395                991584667657          000000000252525MARIA RAQUEL BELTRAN BUENDIA            001001
000000396                991504259745          000000000252525ALAN VARELA GRANJENO                    001001
000000397                991528961768          000000000247525VANESSA ALVAREZ LOPEZ                   001001
000000398                991556588425          000000000252525LUIS ANTONIO CHAVEZ MEJIA               001001
000000399                991536556191          000000000250607EDGAR ULISES MARTINEZ CRUZ              001001
000000400                990459200649          000000000252525JOSE ADOLFO GARCIA RODRIGUEZ            001001
000000401                991515990685          000000000225491SILVIA TAVERA MOSQUEDA                  001001
000000402                991561951364          000000000225491KATIA VARGAS HERNANDEZ                  001001
000000403                992853130444          000000000528202MARCO ANTONIO MARTINEZ CAMACHO          001001
000000404                991506210279          000000000247525DANIEL MENDOZA VEGA                     001001
000000405                991552601036          000000000252525JAQUELIN NOGUEZ GODOY                   001001
