100001E0225202165507462116     02252021
2000020703588HERNANDEZ                     SANTILLAN           JOSE MANUEL                   60599918791     000000000000229839
2000030903898VALLE                         REYNA               LUIS ERNESTO                  56757046279     000000000000329743
2000040903257CISNEROS                      ALCOPAR             LUIS ANGEL                    60558449078     000000000000242466
2000050903821SILVA                         VASQUEZ             KASANDRA ANAHI                25008985415     000000000000252525
2000060903755HERNANDEZ                     GARCIA              EMMANUEL                      56799059562     000000000000385002
2000070903233BECERRIL                      BENITEZ             MARCOS ADRIAN                 60615905621     000000000000257525
2000080901618NUNEZ                         REYES               MARIO                         56785111442     000000000000252524
2000090903174LEAL                          MONTOYA             HECTOR HERWINY                56713621838     000000000000118052
2000100903179ALANIS                        HERNANDEZ           ROSA MARIA                    56761833876     000000000000257525
2000110903017QUINTERO                      DIAZ                ALICIA                        01322450640     000000000000242466
2000120902502PERALES                       LOPEZ               FILIBERTO DE JESUS            56773042513     000000000000158073
2000130902984GONZALEZ                      VELASCO             YESSICA LISSET                56687837821     000000000000289537
2000140902258MALDONADO                     OCHOA               SARA RAQUEL                   60611767836     000000000000249690
2000150902088RODRIGUEZ                     TINOCO              ERICK ROBERTO                 60611047616     000000000000252524
2000160901596MUNOZ                         SUAREZ              RODRIGO                       56776680638     000000000000159437
2000170901483NUNEZ                         PEDROZA             JOSE ANDRES                   56784126937     000000000000257524
2000180704195BARAJAS                       BOCANEGRA           ANIA GUADALUPE                56774244517     000000000000015776
2000190901427PIZANO                        ALBINO              JOSE JULIO                    56666328235     000000000000233246
2000200901031ARENAS                        HERRERA             SONIA                         60615790064     000000000000193685
2000210704178AGUILAR                       MEJIA               ITZEL DANAE                   56780489117     000000000000257524
2000220704140VALDES                        LOPEZ               GUSTAVO                       60612388071     000000000000257524
2000230703890GERMAN                        CASTANEDA           JACQUELINE                    60582701865     000000000000249689
2000240703876MARTINEZ                      AGUILAR             ARTURO                        56764412185     000000000000298242
2000250703685MORENO                        NAVARRO             VIANEY IRIS                   60609105207     000000000000257524
2000260703561PARRA                         RIVERA              BRYAN                         56782414537     000000000000184145
2000270703161ZAMORA                        ROSALES             ITZEL IRERI                   56728300755     000000000000249689
2000280703152RODRIGUEZ                     CRUZ                DIANA GRACIELA HERMILA        56734761074     000000000000257536
2000290703111VALLEJO                       MARTINEZ            FRANCISCO ULISES              60587285754     000000000000184834
2000300703100DESIDERIO                     GARCIA              CLAUDIA                       25001009720     000000000000242465
2000310703062GUZMAN                        PACHECO             ULISES                        60604510403     000000000000257536
2000320703071TOLENTINO                     TOLENTINO           MARICRUZ                      60612764886     000000000000257524
2000330702533LOZANO                        MARISCAL            SANDRA                        60606405633     000000000000249689
2000340703544MARTINEZ                      JUANICO             AIDE MIRIAM                   56771720684     000000000000141324
2000350703545MEJIA                         TAMAYO              LUZ JAZMIN                    56761834411     000000000000210086
2000360702279ARTEAGA                       SOLIS               GLORIA GIOVANNA               60610573198     000000000000186488
2000370702343SANCHEZ                       VALDIVIA            ALDO JAFET                    60611009872     000000000000252524
2000380701948ALDAMA                        RODRIGUEZ           MARIA DE LOS ANGELES          56698753904     000000000000219398
2000390701799VAZQUEZ                       MARTINEZ            ROBERTO CARLOS                60607787069     000000000000229839
2000400701807MEJIA                         TORRES              GERARDO IVAN                  60605716460     000000000000339743
2000410701429ESPINOSA                      PACHECO             MIGUEL ANGEL                  60568248617     000000000000483677
2000420030644SANCHEZ                       JIMENEZ             ROSA JANETH                   56685739403     000000000000257524
30004300041000000000009901683
