65508015015     002542901166087739  MOISES FLORES ATILANO                   100100000000046150001001DEPOSITO                                                                                                                          0000001
65508015015     002225901212373410  ANA ANGELICA TORRES HERNANDEZ           100100000000017690001001DEPOSITO                                                                                                                          0000002
65508015015     002700901455851463  CESAR REYES GARCIA                      100100000000199232901001DEPOSITO                                                                                                                          0000003
65508015015     002540902346688373  ANICETO HERNANDEZ ROSAS                 100100000000018827701001DEPOSITO                                                                                                                          0000004
65508015015     002542900888243098  MARIA DEL ROSARIO ANZURES SANTOS        100100000000030036001001DEPOSITO                                                                                                                          0000005
65508015015     002180901080057414  JHEYNY ORTEGA IBARRA                    100100000000003748701001DEPOSITO                                                                                                                          0000006
65508015015     002233901153361764  JOSE GUADALUPE GARCIA MORALES           100100000000030340001001DEPOSITO                                                                                                                          0000007
65508015015     002222904058217280  LORENA OLVERA GARCIA                    100100000000029650001001DEPOSITO                                                                                                                          0000008
65508015015     002650901587461062  FRANCISCO VELAZQUEZ CASTILLO            100100000000017829301001DEPOSITO                                                                                                                          0000009
65508015015     002650901706733432  CYNTHIA GUADALUPE AGUILAR GONZALEZ      100100000000066700001001DEPOSITO                                                                                                                          0000010
65508015015     002180901941946596  AYDEE DE DIOS CANO                      100100000000003666001001DEPOSITO                                                                                                                          0000011
65508015015     002180902064700883  MARISOL VIDAL CRUZ                      100100000000018200001001DEPOSITO                                                                                                                          0000012
65508015015     002670902179991961  LAURA PATRICIA CECILIO LEONARDO         100100000000003648501001DEPOSITO                                                                                                                          0000013
65508015015     002545902200378342  FRANCISCA NAVA RODRIGUEZ                100100000000003684001001DEPOSITO                                                                                                                          0000014
65508015015     002540902221879223  MARTIN ONOFRE TEODORO                   100100000000004258001001DEPOSITO                                                                                                                          0000015
65508015015     002225902249644386  GLORIA CRISTINA MORENO GONZALEZ         100100000000003389501001DEPOSITO                                                                                                                          0000016
65508015015     002540902251004961  CLAUDIA NIETO BENITEZ                   100100000000030850001001DEPOSITO                                                                                                                          0000017
65508015015     002650902270085385  LUCERO CLARIBEL HERNANDEZ BAROJAS       100100000000022200001001DEPOSITO                                                                                                                          0000018
65508015015     002650902281647628  ROSALBA LOPEZ PAIS                      100100000000017469701001DEPOSITO                                                                                                                          0000019
65508015015     002222900816875868  ALEJANDRO CANSECO MONJARDIN             100100000000094505101001DEPOSITO                                                                                                                          0000020
65508015015     002320902254515156  ERNESTO ZAMBRANO AGUILAR                100100000000057416001001DEPOSITO                                                                                                                          0000021
65508015015     002225902405682328  MONICA HORTA SALDANA                    100100000000003525001001DEPOSITO                                                                                                                          0000022
65508015015     002210902411137940  YESSICA LEONOR MARTINEZ REGALADO        100100000000019040001001DEPOSITO                                                                                                                          0000023
65508015015     002540902446406552  JOSE VICTOR DIAZ ROMAN                  100100000000023274001001DEPOSITO                                                                                                                          0000024
65508015015     002650902465686094  ALBERTO PEDRO HERNANDEZ VAZQUEZ         100100000000017322601001DEPOSITO                                                                                                                          0000025
65508015015     002650902583024936  VICTOR DAVID VELAZQUEZ GONZALEZ         100100000000020850001001DEPOSITO                                                                                                                          0000026
65508015015     002233901615608033  ALEJANDRO PADILLA OLIVARES              100100000000060873001001DEPOSITO                                                                                                                          0000027
65508015015     002215902588761396  MARIA SUSANA ALVAREZ BUSTAMANTE         100100000000036434001001DEPOSITO                                                                                                                          0000028
65508015015     002540902589601214  LAURA PATRICIA SAAVEDRA MORALES         100100000000005313001001DEPOSITO                                                                                                                          0000029
65508015015     002320902608625362  RAQUEL BERENICE PEREZ GARCIA            100100000000036164001001DEPOSITO                                                                                                                          0000030
65508015015     002537902012032512  ELI MAGALI MEDINA GARCIA                100100000000005816401001DEPOSITO                                                                                                                          0000031
65508015015     002225903940033512  FRANCISCO MARTIN BARAJAS GONZALEZ       100100000000017783101001DEPOSITO                                                                                                                          0000032
65508015015     002040902525404069  GABRIELA CASTILLEJOS ESPONDA            100100000000033040001001DEPOSITO                                                                                                                          0000033
65508015015     002239902814100157  MAGDALENA GARCIA CRUZ                   100100000000003389501001DEPOSITO                                                                                                                          0000034
65508015015     002650902835037891  OSCAR MANUEL ESPINOZA HERNANDEZ         100100000000027955001001DEPOSITO                                                                                                                          0000035
65508015015     002650701019435164  NATHALI RUIZ ESTRADA                    100100000000060850001001DEPOSITO                                                                                                                          0000036
65508015015     002668700686911907  ERICK CORDERO HERNANDEZ                 100100000000039045001001DEPOSITO                                                                                                                          0000037
65508015015     002320902892243424  HECTOR RUBEN GARCIA BEJARANO            100100000000024100001001DEPOSITO                                                                                                                          0000038
65508015015     002470902894823255  CARLOS ANTONIO LOVERA CAZARES           100100000000003389501001DEPOSITO                                                                                                                          0000039
65508015015     002650901826230828  BEATRIZ ELENA VALERO MAGANA             100100000000018323101001DEPOSITO                                                                                                                          0000040
65508015015     002650902892116315  DULCE MARIA ALANIS MORALES              100100000000026250001001DEPOSITO                                                                                                                          0000041
65508015015     002543902917926924  PAULINA ARENAS MARTINEZ                 100100000000003389501001DEPOSITO                                                                                                                          0000042
65508015015     002210902974401197  ARACELI MARTINEZ GUTIERREZ              100100000000024550001001DEPOSITO                                                                                                                          0000043
65508015015     002320903196279355  HUMBERTO ORENDAIN PEREZ                 100100000000014950001001DEPOSITO                                                                                                                          0000044
65508015015     002650903407553825  YARED ALEXANDRA MENDIETA ESTANDIA       100100000000031550001001DEPOSITO                                                                                                                          0000045
65508015015     002650903567970267  MIRIAM ALVAREZ ROJAS                    100100000000028500001001DEPOSITO                                                                                                                          0000046
65508015015     002320903808160231  NANCY JUDIT IBARRA RODRIGUEZ            100100000000026454001001DEPOSITO                                                                                                                          0000047
65508015015     002650903597301275  JESUS JAVIER TORRES GOMEZ               100100000000015165001001DEPOSITO                                                                                                                          0000048
65508015015     002650903624621682  HECTOR RAMIREZ NICANOR                  100100000000003389501001DEPOSITO                                                                                                                          0000049
65508015015     002320903640565586  RUBEN DARIO SANTILLAN SERAFIN           100100000000024650001001DEPOSITO                                                                                                                          0000050
65508015015     002650903647801913  ADRIANA DE JESUS JIMENEZ                100100000000003389501001DEPOSITO                                                                                                                          0000051
65508015015     002244903653808989  PEDRO CUELLAR GALLARDO                  100100000000035150001001DEPOSITO                                                                                                                          0000052
65508015015     002225903578021983  DIANA MILAGROS GARCIA NAVARRO           100100000000003389501001DEPOSITO                                                                                                                          0000053
65508015015     002650903675054347  ERIKA HERNANDEZ BRAVO                   100100000000022915001001DEPOSITO                                                                                                                          0000054
65508015015     002010903723122965  JOSE ADRIAN RAMIREZ ROSALES             100100000000003389501001DEPOSITO                                                                                                                          0000055
65508015015     002244903784616927  GRACIELA ESTEFANIA HERNANDEZ ESPINOZA   100100000000003389501001DEPOSITO                                                                                                                          0000056
65508015015     002667903777824523  SERGIO PEREZ IGLESIAS                   100100000000013215001001DEPOSITO                                                                                                                          0000057
65508015015     002320903831099997  ANA ROSA DE ANDA MORALES                100100000000005200001001DEPOSITO                                                                                                                          0000058
65508015015     002010903840596694  AMADOR ALONSO ARCEO                     100100000000020660001001DEPOSITO                                                                                                                          0000059
65508015015     002260903852719633  MARCO ANTONIO SANCHEZ VAZQUEZ           100100000000005200001001DEPOSITO                                                                                                                          0000060
65508015015     002375903872579337  SARA MONSERRAT JUAREZ LOPEZ             100100000000017440001001DEPOSITO                                                                                                                          0000061
65508015015     002650903878754596  ANGELICA APARICIO ALVAREZ               100100000000003389501001DEPOSITO                                                                                                                          0000062
65508015015     002650903899099544  GUADALUPE PATRICIA MENDOZA GARCIA       100100000000003389501001DEPOSITO                                                                                                                          0000063
65508015015     002543903905798875  PAOLA LETICIA GOMEZ GALICIA             100100000000012700001001DEPOSITO                                                                                                                          0000064
65508015015     002320903767005259  EMMANUEL SANDOVAL SOLTERO               100100000000026500001001DEPOSITO                                                                                                                          0000065
65508015015     002540904417071419  ROSA NAJERA MARTINEZ                    100100000000008850001001DEPOSITO                                                                                                                          0000066
65508015015     002546904236455032  DAVID QUINTANA DIAZ                     100100000000018215001001DEPOSITO                                                                                                                          0000067
65508015015     002180902683756852  JUAN MANUEL RAMOS CALIXTO               100100000000015015001001DEPOSITO                                                                                                                          0000068
65508015015     002537700871930617  VICTOR ANTONIO MORALES ORTUNO           100100000000023971601001DEPOSITO                                                                                                                          0000069
65508015015     002225904075069272  DALIA SARAHI HERNANDEZ REYNOSO          100100000000002515001001DEPOSITO                                                                                                                          0000070
65508015015     002222901729586557  ARTURO JUAN IGNACIO GONZALEZ BARROSO    100100000000053218001001DEPOSITO                                                                                                                          0000071
65508015015     002320902089946026  ESTHER MAGDALENA CEDILLO OLIVARES       100100000000005915901001DEPOSITO                                                                                                                          0000072
65508015015     002222904107801343  ERNESTO GRANA ROJAS                     100100000000064236001001DEPOSITO                                                                                                                          0000073
65508015015     002375903475812310  AURORA REA HERNANDEZ                    100100000000001700001001DEPOSITO                                                                                                                          0000074
65508015015     002233903294558065  SANJUANA ROSILES ZAMORA                 100100000000020800001001DEPOSITO                                                                                                                          0000075
65508015015     002540903883707334  MARITZA VELAZCO LARA                    100100000000008850001001DEPOSITO                                                                                                                          0000076
65508015015     002650903960953344  JUAN FERNANDO TENORIO BALDERRAMA        100100000000023800001001DEPOSITO                                                                                                                          0000077
65508015015     002546904290921829  LUIS FELIPE CERVANTES ESTRELLA          100100000000009200001001DEPOSITO                                                                                                                          0000078
65508015015     002650701555405658  YOLANDA SANCHEZ PRIEGO                  100100000000022000001001DEPOSITO                                                                                                                          0000079
65508015015     002222904013504459  NOE GONZALEZ BALTAZAR                   100100000000039580001001DEPOSITO                                                                                                                          0000080
65508015015     002420902155619080  EDGAR MORALES SOTO                      100100000000058710001001DEPOSITO                                                                                                                          0000081
65508015015     002375904256975514  NORMA ANGELICA GONZALEZ GONZALEZ        100100000000028689001001DEPOSITO                                                                                                                          0000082
65508015015     002320904258642531  SANTIAGO GUERRERO JIMENEZ               100100000000012540001001DEPOSITO                                                                                                                          0000083
65508015015     002180902909367475  JAIR SERRANO TREJO                      100100000000011170001001DEPOSITO                                                                                                                          0000084
65508015015     002480903977432167  ALMA RUBI LAREDO PEREZ                  100100000000018688001001DEPOSITO                                                                                                                          0000085
65508015015     002543904291412482  YULIANA SOTELO CORDOVA                  100100000000017200001001DEPOSITO                                                                                                                          0000086
65508015015     002320701287784951  JORGE ALEJANDRO CORTES ZAMORA           100100000000030260001001DEPOSITO                                                                                                                          0000087
65508015015     002180902928813544  LUIS GERARDO ROJAS DE ANDA              100100000000011516001001DEPOSITO                                                                                                                          0000088
65508015015     002480701634933392  VASTHI CALDERON ROSAS                   100100000000051424001001DEPOSITO                                                                                                                          0000089
65508015015     002650903569953910  ARMANDO TIZO MARTINEZ                   100100000000027666001001DEPOSITO                                                                                                                          0000090
65508015015     002560902676975147  CLAUDIA ELIZABETH RODRIGUEZ ZUNIGA      100100000000009200001001DEPOSITO                                                                                                                          0000091
65508015015     002542904388871982  SANDRA LUZ ROSALES TREJO                100100000000018770001001DEPOSITO                                                                                                                          0000092
65508015015     002320904386408854  BELEN LOPEZ SARACIBAR                   100100000000010840001001DEPOSITO                                                                                                                          0000093
65508015015     002180902070886911  CARLOS SANCHEZ MENDOZA                  100100000000011700001001DEPOSITO                                                                                                                          0000094
65508015015     002073560145091588  SAMUEL GUZMAN FERNANDEZ                 100100000000018148001001DEPOSITO                                                                                                                          0000095
65508015015     002320904307304270  CRISTIAN MICHEL HERNANDEZ CURIEL        100100000000011240001001DEPOSITO                                                                                                                          0000096
65508015015     002674901641327992  JUAN CASTRO ISLAS                       100100000000028672001001DEPOSITO                                                                                                                          0000097
65508015015     002180901259791721  YOLANDA BARRIENTOS ORTEGA               100100000000019548001001DEPOSITO                                                                                                                          0000098
65508015015     002180901165965544  JOSE GUADALUPE DE LA ROSA VILLEGAS      100100000000110182701001DEPOSITO                                                                                                                          0000099
65508015015     002540904074493621  FABIOLA DAVALOS GRANADOS                100100000000024391601001DEPOSITO                                                                                                                          0000100
65508015015     002650701639713703  LIZBETH PORRAS CRUZ                     100100000000015842001001DEPOSITO                                                                                                                          0000101
65508015015     002650701629506988  SARAHI HERNANDEZ SILVA                  100100000000009200001001DEPOSITO                                                                                                                          0000102
65508015015     002659904385709335  ADRIAN VALDEZ GARCIA                    100100000000020805001001DEPOSITO                                                                                                                          0000103
65508015015     002010904405148622  BELKIS APARICIO SOSA                    100100000000012140001001DEPOSITO                                                                                                                          0000104
65508015015     002215901285598672  HUGO CESAR GARCIA REYNA                 100100000000052368601001DEPOSITO                                                                                                                          0000105
65508015015     002650904357605291  JAZMIN LOPEZ FLORES                     100100000000021744001001DEPOSITO                                                                                                                          0000106
65508015015     002674701645351083  EDER MUNOZ OCAMPO                       100100000000062703001001DEPOSITO                                                                                                                          0000107
65508015015     002320901259608548  JUAN PABLO IVAN UNDIANO VAZQUEZ         100100000000024300001001DEPOSITO                                                                                                                          0000108
65508015015     002010904391601273  CLAUDIA ROJAS HERNANDEZ                 100100000000016200001001DEPOSITO                                                                                                                          0000109
65508015015     002180904405629217  PAULA VARGAS CORNELIO                   100100000000015260001001DEPOSITO                                                                                                                          0000110
65508015015     002215701576883490  LUIS ENRIQUE LUNA MENDOZA               100100000000031000001001DEPOSITO                                                                                                                          0000111
65508015015     002659904483449076  NAYELI ALVAREZ ALVARADO                 100100000000009200001001DEPOSITO                                                                                                                          0000112
65508015015     002239904389918665  JUANA KARINA PAULIN CASTILLO            100100000000008940001001DEPOSITO                                                                                                                          0000113
65508015015     002276904008186485  NICTE-HA ALONSO OROPEZA                 100100000000014200001001DEPOSITO                                                                                                                          0000114
65508015015     002225904220450733  YOLANDA ZACARIAS                        100100000000009000001001DEPOSITO                                                                                                                          0000115
65508015015     002272902729708494  FRANCISCO ANTONIO RAMIREZ ESTRADA       100100000000008850001001DEPOSITO                                                                                                                          0000116
65508015015     002215903733235346  MARTHA ALEJANDRA GASPAR GALLEGOS        100100000000018280001001DEPOSITO                                                                                                                          0000117
65508015015     002542904547505772  EDGAR JOVANY ESPITIA VELEZ              100100000000003200001001DEPOSITO                                                                                                                          0000118
65508015015     002544901048182336  LUIS ANGEL SANCHEZ SANTACRUZ            100100000000007200001001DEPOSITO                                                                                                                          0000119
65508015015     002542904530335292  YOSELIN MARGARITA DOMINGUEZ SILVESTRE   100100000000007200001001DEPOSITO                                                                                                                          0000120
65508015015     002542904447880610  JONATHAN ISMAEL RODRIGUEZ VEGA          100100000000003200001001DEPOSITO                                                                                                                          0000121
65508015015     002010904388697180  ALONDRA ALONSO MALPICA                  100100000000003200001001DEPOSITO                                                                                                                          0000122
65508015015     002543701728781119  RENE ARTURO JUAREZ MARMOLEJO            100100000000007200001001DEPOSITO                                                                                                                          0000123
65508015015     002210904445504217  BLANCA SORAYA SANCHEZ CARRILLO          100100000000008875601001DEPOSITO                                                                                                                          0000124
65508015015     002312700151400011  LUIS BADILLO ANGELES                    100100000000025760001001DEPOSITO                                                                                                                          0000125
65508015015     021549065107683070  FAUSTO FUENTES LAUREANO                 100100000000003200001001DEPOSITO                                                                                                                          0000126
65508015015     021480064557832298  ERNESTO GARCIA PEREZ                    100100000000009322001001DEPOSITO                                                                                                                          0000127
65508015015     021320064866465021  MARIA DE LOS ANGELES MARTINEZ CARDONA   100100000000011240001001DEPOSITO                                                                                                                          0000128
65508015015     021540064860918998  LUIS ALBERTO ESCOBAR VENCES             100100000000060850001001DEPOSITO                                                                                                                          0000129
65508015015     021320064965280398  JUAN ALBERTO GUERRA NARRO               100100000000014370001001DEPOSITO                                                                                                                          0000130
65508015015     021320064815894342  JUAN ANTONIO ESPINOZA MORAN             100100000000062160001001DEPOSITO                                                                                                                          0000131
65508015015     021180064865475511  CESAR ARANDA BURGUENO                   100100000000009200001001DEPOSITO                                                                                                                          0000132
65508015015     021222064603308591  OSCAR VELASCO PENA                      100100000000031000001001DEPOSITO                                                                                                                          0000133
65508015015     044650036041518012  RAFAEL ARIZMENDI GARCIA                 100100000000012700001001DEPOSITO                                                                                                                          0000134
65508015015     044180001044351373  MARCOS MUNOZ MOJICA                     100100000000021950001001DEPOSITO                                                                                                                          0000135
65508015015     072650010859067536  ANA DORA ROJAS DIAZ                     100100000000013770001001DEPOSITO                                                                                                                          0000136
65508015015     072667010864759576  LAURA VERENICE CANO CASAS               100100000000011500001001DEPOSITO                                                                                                                          0000137
65508015015     072580010833001882  ALMA DELIA SANTANA GOMEZ                100100000000018770001001DEPOSITO                                                                                                                          0000138
65508015015     072580010958477074  GIOVANNI MENDEZ NAVARRO                 100100000000012882001001DEPOSITO                                                                                                                          0000139
65508015015     072580010976966732  LUIS ARMANDO GONZALEZ BERNAL            100100000000012840001001DEPOSITO                                                                                                                          0000140
65508015015     072650010948827836  JORGE LUIS CANO PEDRAZA                 100100000000008700001001DEPOSITO                                                                                                                          0000141
65508015015     002180700756057127  RENE GONZALEZ CORTES                    100100000000020900001001DEPOSITO                                                                                                                          0000142
65508015015     002832902296988093  FRANCISCO IVAN BERNARDINO REYES         100100000000036358001001DEPOSITO                                                                                                                          0000143
65508015015     002180903908096885  MARIO HERNANDEZ JIMENEZ                 100100000000033700001001DEPOSITO                                                                                                                          0000144
65508015015     002180904388381465  ASUNCION ALEJANDRO ANDRADE GALVAN       100100000000028850001001DEPOSITO                                                                                                                          0000145
65508015015     002180902250367124  JAVIER ROSALES TELLEZ                   100100000000027579001001DEPOSITO                                                                                                                          0000146
65508015015     002180901811159387  JUAN CARLOS SILVA BRAVO                 100100000000013700001001DEPOSITO                                                                                                                          0000147
65508015015     002180701131799517  NANCY RODRIGUEZ CAAMANO                 100100000000017700001001DEPOSITO                                                                                                                          0000148
65508015015     002180903497372395  HERIBERTO GUZMAN MACHUCA                100100000000019675801001DEPOSITO                                                                                                                          0000149
65508015015     002180701659355174  MONTSERRAT GUADALUPE URIBE OCAMPO       100100000000009200001001DEPOSITO                                                                                                                          0000150
65508015015     002215901473398516  ARACELI SANCHEZ ELIZALDE                100100000000048974001001DEPOSITO                                                                                                                          0000151
65508015015     002180902820131256  MA EUGENIA ROMERO RODRIGUEZ             100100000000069601601001DEPOSITO                                                                                                                          0000152
65508015015     002180901361762091  GUADALUPE ANAYANCI CRUZ ALVARADO        100100000000076940001001DEPOSITO                                                                                                                          0000153
65508015015     002180901505712182  ANA LAURA SUAREZ LOPEZ                  100100000000004072501001DEPOSITO                                                                                                                          0000154
65508015015     002180408202449170  LUIS HERNANDEZ PEREZ                    100100000000329742901001DEPOSITO                                                                                                                          0000155
65508015015     002180903748930677  ELIAS ELIM OLIVARES PRADO               100100000000206619401001DEPOSITO                                                                                                                          0000156
65508015015     002830902852964385  ADRIANA LOPEZ BEDOLLA                   100100000000004346001001DEPOSITO                                                                                                                          0000157
65508015015     002180901166119289  CAMELIA REYES EMBA                      100100000000025210601001DEPOSITO                                                                                                                          0000158
65508015015     002180901469266130  LILIANA ROMERO ZARAGOZA                 100100000000008359001001DEPOSITO                                                                                                                          0000159
65508015015     002180902673781413  MARIANA SANCHEZ MARTINEZ                100100000000013730001001DEPOSITO                                                                                                                          0000160
65508015015     002180901302997676  GRISELDA DONAJI VELASCO COQUIS          100100000000013998001001DEPOSITO                                                                                                                          0000161
65508015015     002180904195521939  ADRIAN ROMERO HUERTAS                   100100000000017086001001DEPOSITO                                                                                                                          0000162
65508015015     002180903857119127  ELVIRA ALEJANDRA ARANDA RAMIREZ         100100000000018188001001DEPOSITO                                                                                                                          0000163
65508015015     002180901585545094  JESUS MARTINEZ RODRIGUEZ                100100000000019660001001DEPOSITO                                                                                                                          0000164
65508015015     002308902918924416  EDGAR LEONARDO OSORIO MARTINEZ          100100000000023569001001DEPOSITO                                                                                                                          0000165
65508015015     002830902711271452  FORTINO DE JESUS DEL OLMO HERNANDEZ     100100000000002500001001DEPOSITO                                                                                                                          0000166
65508015015     002180903701898536  LUIS ALFONSO ARROYO GUTIERREZ           100100000000029585001001DEPOSITO                                                                                                                          0000167
65508015015     002180902357652240  ROMAN HERNANDEZ CHAVEZ                  100100000000038625001001DEPOSITO                                                                                                                          0000168
65508015015     002180901256932282  HUGO ALEJANDRO SANCHEZ DIAZ             100100000000195339701001DEPOSITO                                                                                                                          0000169
65508015015     002180903738860168  SANDRA YADIRA PADILLA MORENO            100100000000051176001001DEPOSITO                                                                                                                          0000170
65508015015     002180901165980930  GUILLERMINA HERNANDEZ GARCIA            100100000000072963001001DEPOSITO                                                                                                                          0000171
65508015015     002180903948349466  MARIA ISABEL MUNIZ ROQUEZ               100100000000002800001001DEPOSITO                                                                                                                          0000172
65508015015     002463901702982759  JANETH CRISTAL ESCOBAR MEJIA            100100000000246140501001DEPOSITO                                                                                                                          0000173
65508015015     002290902596274939  WENDY JANNETH MARTINEZ HERNANDEZ        100100000000008850001001DEPOSITO                                                                                                                          0000174
65508015015     002180903608820034  DAVID ALFONSO CHAVEZ GUTIERREZ          100100000000038850001001DEPOSITO                                                                                                                          0000175
65508015015     002180904605233610  ROBERTO HERNANDEZ PEREZ                 100100000000011950001001DEPOSITO                                                                                                                          0000176
65508015015     002180901412588331  VIRIDIANA ROCIO CRUZ VELASCO            100100000000013020001001DEPOSITO                                                                                                                          0000177
65508015015     002180904070149355  JAIR AMADOR RODRIGUEZ                   100100000000028500001001DEPOSITO                                                                                                                          0000178
65508015015     002180904090963786  ARACELI GONZALEZ FLORES                 100100000000013730001001DEPOSITO                                                                                                                          0000179
65508015015     002180701640103319  KARLA DANIELA MARTINEZ HERNANDEZ        100100000000202354501001DEPOSITO                                                                                                                          0000180
65508015015     002180904328559529  LOURDES DIANA MATEOS NOGUERON           100100000000012700001001DEPOSITO                                                                                                                          0000181
65508015015     002180902173414099  EMMA VARGAS FERRER                      100100000000030720001001DEPOSITO                                                                                                                          0000182
65508015015     002910700323807844  GUILLERMO TRINIDAD HERNANDEZ MARTINEZ   100100000000164393601001DEPOSITO                                                                                                                          0000183
65508015015     002180901165973057  ADAN MONTESINOS SANTIAGO                100100000000074258301001DEPOSITO                                                                                                                          0000184
65508015015     002180901484524226  MARIO ENRIQUE BADILLO ROJAS             100100000000011700001001DEPOSITO                                                                                                                          0000185
65508015015     002180901494018133  OSCAR CORNEJO RODRIGUEZ                 100100000000059668001001DEPOSITO                                                                                                                          0000186
65508015015     002180903467026710  JUAN ANTONIO POZOS VALVERDE             100100000000045293801001DEPOSITO                                                                                                                          0000187
65508015015     002180901452343358  ANA LAURA CALIXTO AGUILAR               100100000000034631001001DEPOSITO                                                                                                                          0000188
65508015015     002830901385783128  IRAIS FERNANDEZ ISLAS                   100100000000044156501001DEPOSITO                                                                                                                          0000189
65508015015     002180901186970217  TANIA MARLEN SALOMON MURILLO            100100000000033823001001DEPOSITO                                                                                                                          0000190
65508015015     002312900885747523  CLAUDIA SUAREZ HERNANDEZ                100100000000003737601001DEPOSITO                                                                                                                          0000191
65508015015     002180901012757863  HUGO ALBERTO SORIANO TAPIA              100100000000004543701001DEPOSITO                                                                                                                          0000192
65508015015     002180901134431960  TANIA IRAIS OROZCO HERNANDEZ            100100000000030707501001DEPOSITO                                                                                                                          0000193
65508015015     002180901195769613  KAREN ARELI HERNANDEZ HERNANDEZ         100100000000005960801001DEPOSITO                                                                                                                          0000194
65508015015     002180901211771527  CARLOS ERIK VALDES HERNANDEZ            100100000000052910001001DEPOSITO                                                                                                                          0000195
65508015015     002180901294535667  ALEJANDRO MEDINA SEVERIANO              100100000000020700001001DEPOSITO                                                                                                                          0000196
65508015015     002180901201458931  PATRICIA LORENA VAZQUEZ ZARATE          100100000000044550001001DEPOSITO                                                                                                                          0000197
65508015015     002180901717554248  CAROLINA CALIXTO FLORES                 100100000000020684001001DEPOSITO                                                                                                                          0000198
65508015015     002540901739713885  MA MAGDALENA OLAIS ESPINOZA             100100000000004541601001DEPOSITO                                                                                                                          0000199
65508015015     002180901766331577  SERGIO CRUZ SALAZAR                     100100000000047050001001DEPOSITO                                                                                                                          0000200
65508015015     002832901813062966  TERESA GARCIA GUERRERO                  100100000000003684001001DEPOSITO                                                                                                                          0000201
65508015015     002180901956375628  OLGA LIDIA PEREZ ARISTA                 100100000000032962001001DEPOSITO                                                                                                                          0000202
65508015015     002180901977431224  VERONICA CONCEPCION AYALA ZERMENO       100100000000025701001001DEPOSITO                                                                                                                          0000203
65508015015     002180901981889040  VICTOR MANUEL RIVAS VIDAL               100100000000027329301001DEPOSITO                                                                                                                          0000204
65508015015     002180901981604652  GABRIEL GORDILLO SANCHEZ                100100000000016829301001DEPOSITO                                                                                                                          0000205
65508015015     002180902054746598  PONCIANO GARZON HERNANDEZ               100100000000028200001001DEPOSITO                                                                                                                          0000206
65508015015     002180902069878891  FELIPE ARUQUIPA TICONA                  100100000000054484901001DEPOSITO                                                                                                                          0000207
65508015015     002180902158070872  MONICA MARTINEZ YANEZ                   100100000000037746001001DEPOSITO                                                                                                                          0000208
65508015015     002180902188896880  ROSAURA GOMEZ HERNANDEZ                 100100000000028525001001DEPOSITO                                                                                                                          0000209
65508015015     002180902429336122  MICHAEL IVAN DIAZ HERNANDEZ             100100000000036385001001DEPOSITO                                                                                                                          0000210
65508015015     002180902456610015  ELVIA CRUZ MARTINEZ                     100100000000037868001001DEPOSITO                                                                                                                          0000211
65508015015     002180901935756750  UBALDO HERNANDEZ JIMENEZ                100100000000059820001001DEPOSITO                                                                                                                          0000212
65508015015     002180902487902284  JOCELINE CHANTAL RUEDA ACOSTA           100100000000044635001001DEPOSITO                                                                                                                          0000213
65508015015     002180902526194018  CARLOS MANUEL CASTRO ALONSO             100100000000017250001001DEPOSITO                                                                                                                          0000214
65508015015     002320900740915466  ANA LAURA MURRIETA VAZQUEZ              100100000000032261801001DEPOSITO                                                                                                                          0000215
65508015015     002832901951082170  MARIA ANGELICA LUNA MONTIEL             100100000000003389501001DEPOSITO                                                                                                                          0000216
65508015015     002650902570314536  ROSA ANAHI PEREZ PEREZ                  100100000000004346001001DEPOSITO                                                                                                                          0000217
65508015015     002180902216999112  CYNTHIA MAGALY PEREZ NEGRON             100100000000004346001001DEPOSITO                                                                                                                          0000218
65508015015     002180902607479157  RAUL GARCIA FLORES                      100100000000042187701001DEPOSITO                                                                                                                          0000219
65508015015     002180902610933745  ADRIANA ESPINOZA VILLALOBOS             100100000000004346001001DEPOSITO                                                                                                                          0000220
65508015015     002180902620425447  OSCAR MELENDEZ GONZALEZ                 100100000000098028601001DEPOSITO                                                                                                                          0000221
65508015015     002298902777168196  MAYRA AGUILAR GONZALEZ                  100100000000003389501001DEPOSITO                                                                                                                          0000222
65508015015     002180902787767776  JULIAN CERCA LICONA                     100100000000015273101001DEPOSITO                                                                                                                          0000223
65508015015     002180902808008631  DELFINO TLAYECA REYES                   100100000000028925001001DEPOSITO                                                                                                                          0000224
65508015015     002540902899803252  OSCAR EDUARDO ESCALANTE CAMPOS          100100000000004346001001DEPOSITO                                                                                                                          0000225
65508015015     002180902901067281  KATLIT GUTIERREZ ESTRADA                100100000000004346001001DEPOSITO                                                                                                                          0000226
65508015015     002180903194878820  ELIBETH GONZALEZ LEDEZMA                100100000000032638001001DEPOSITO                                                                                                                          0000227
65508015015     002180903193942485  ADRIAN MEDINA GONZALEZ                  100100000000032334201001DEPOSITO                                                                                                                          0000228
65508015015     002180903409405548  ANA MARIA HERNANDEZ SALCEDO             100100000000014466901001DEPOSITO                                                                                                                          0000229
65508015015     002180903457486357  ERIKA LOPEZ ORDONEZ                     100100000000026225001001DEPOSITO                                                                                                                          0000230
65508015015     002180903489051624  MARY CARMEN LOPEZ MENDOZA               100100000000022121801001DEPOSITO                                                                                                                          0000231
65508015015     002180903492668486  ARACELI DIAS DE JESUS                   100100000000005379801001DEPOSITO                                                                                                                          0000232
65508015015     002180903490223027  CRISTIAN REY RANGEL BELLO               100100000000032334001001DEPOSITO                                                                                                                          0000233
65508015015     002180903574014369  FLORENTINO JAVIER MONTESINOS PENA       100100000000023019001001DEPOSITO                                                                                                                          0000234
65508015015     002180903596661350  IVAN ZAMORA VILLANUEVA                  100100000000020850001001DEPOSITO                                                                                                                          0000235
65508015015     002180903611053539  EDITH ARTEAGA MONTES                    100100000000018215001001DEPOSITO                                                                                                                          0000236
65508015015     002856902016685484  MAGALI ANTONIA HERNANDEZ SANTIAGO       100100000000095187901001DEPOSITO                                                                                                                          0000237
65508015015     002180902902387643  VIRIDIANA XOLALPA CASTANEDA             100100000000075915001001DEPOSITO                                                                                                                          0000238
65508015015     002685904012680212  MARIA ELENA ACEVEDO GUTIERREZ           100100000000036234001001DEPOSITO                                                                                                                          0000239
65508015015     002180903729746479  ITZEL CARINA RAMIREZ SANCHEZ            100100000000007774801001DEPOSITO                                                                                                                          0000240
65508015015     002180903434150512  DAYRON EMIR AMBROSIO RUIZ               100100000000051348001001DEPOSITO                                                                                                                          0000241
65508015015     002180903804167850  CESAR JAIME RAMIREZ VILCHIS             100100000000005084201001DEPOSITO                                                                                                                          0000242
65508015015     002180903842714045  KARLA RUBI DE LA ROSA HERNANDEZ         100100000000001600601001DEPOSITO                                                                                                                          0000243
65508015015     002180903845267476  TLACAELEL OMAR QUINONES MARTINEZ        100100000000008850001001DEPOSITO                                                                                                                          0000244
65508015015     002180903857410567  JUAN EDUARDO ESPINOSA GONZALEZ          100100000000016165001001DEPOSITO                                                                                                                          0000245
65508015015     002680903872385054  MARIA DOLORES MARTINEZ DOMINGUEZ        100100000000044100001001DEPOSITO                                                                                                                          0000246
65508015015     002291903924179578  ESMERALDA AZPEITIA LOZANO               100100000000003389501001DEPOSITO                                                                                                                          0000247
65508015015     002180701255346927  NOEMI MONTERO HERNANDEZ                 100100000000028636001001DEPOSITO                                                                                                                          0000248
65508015015     002180903998433584  FLOR DE MARIA PEREA OLGUIN              100100000000054224201001DEPOSITO                                                                                                                          0000249
65508015015     002180904010263974  JUANA JANETH AYALA AYALA                100100000000003389501001DEPOSITO                                                                                                                          0000250
65508015015     002180902221232071  JUAN CARLOS MORALES CASTILLO            100100000000003445001001DEPOSITO                                                                                                                          0000251
65508015015     002180902122347285  ADRIANA NATALY SOTO AMPUDIA             100100000000003122201001DEPOSITO                                                                                                                          0000252
65508015015     002180902263327737  ESTHER IVONNE LOPEZ ABURTO              100100000000003617301001DEPOSITO                                                                                                                          0000253
65508015015     002180903412689652  LUIS ENRIQUE TORRES ACEVES              100100000000002915001001DEPOSITO                                                                                                                          0000254
65508015015     002180901455295131  NANCY CORENO GARCIA                     100100000000004320601001DEPOSITO                                                                                                                          0000255
65508015015     002180901399588797  ADRIANA MIRAMON VALENCIA                100100000000004151501001DEPOSITO                                                                                                                          0000256
65508015015     002180904097192437  JESSICA SOLANO ZURITA                   100100000000034680001001DEPOSITO                                                                                                                          0000257
65508015015     002180904101983891  LUIS ALBERTO TAPIA MENDEZ               100100000000064769701001DEPOSITO                                                                                                                          0000258
65508015015     002298901033359488  AURELIA MENDOZA MEZA                    100100000000012700001001DEPOSITO                                                                                                                          0000259
65508015015     002180701338512733  MARIO ALBERTO MARTINEZ GALAN            100100000000007700001001DEPOSITO                                                                                                                          0000260
65508015015     002180904575925142  JESSICA NAYELI GUERRA ARRIOLA           100100000000011120001001DEPOSITO                                                                                                                          0000261
65508015015     002180901184839279  NAYELI NORIEGA RODRIGUEZ                100100000000022048401001DEPOSITO                                                                                                                          0000262
65508015015     002180903091104626  DAVID JONATHAN URENA ALCANTARA          100100000000008672101001DEPOSITO                                                                                                                          0000263
65508015015     002832904588314742  JOSE ERNESTO ACA LOPEZ                  100100000000004200001001DEPOSITO                                                                                                                          0000264
65508015015     002180901668027837  MARIBEL TOLEDO RAMIREZ                  100100000000024080001001DEPOSITO                                                                                                                          0000265
65508015015     002700904459098656  ROCIO ELIZABETH MUNOZ MARTINEZ          100100000000004200001001DEPOSITO                                                                                                                          0000266
65508015015     002010904385924652  PATRICIA VALERA LOPEZ                   100100000000004200001001DEPOSITO                                                                                                                          0000267
65508015015     002711903882954645  MARIA GUADALUPE YANEZ GONZALEZ          100100000000032119001001DEPOSITO                                                                                                                          0000268
65508015015     002180904506345212  CLARIVEL REYES ALFONSO                  100100000000015600001001DEPOSITO                                                                                                                          0000269
65508015015     002832701752154070  NESTOR UBALDO SANCHEZ ORTIZ             100100000000009200001001DEPOSITO                                                                                                                          0000270
65508015015     002180903931347899  ARLETTE THALIA LIRA CARDENAS            100100000000007200001001DEPOSITO                                                                                                                          0000271
65508015015     002705904622504862  EDUARDO PEREZ HERRERA                   100100000000003200001001DEPOSITO                                                                                                                          0000272
65508015015     002711903773509439  AZUCENA ELIZABETH GOMEZ GONZALEZ        100100000000036876001001DEPOSITO                                                                                                                          0000273
65508015015     002180904612583861  ISAID JONATHAN SANDOVAL GALICIA         100100000000012200001001DEPOSITO                                                                                                                          0000274
65508015015     002830700966617018  ANDREA SANTACRUZ SALINAS                100100000000008900001001DEPOSITO                                                                                                                          0000275
65508015015     002180901268904855  JONATHAN EDU RAMO FLORES                100100000000038492001001DEPOSITO                                                                                                                          0000276
65508015015     002180902160588352  CLAUDIA ARZATE ROMAN                    100100000000008206701001DEPOSITO                                                                                                                          0000277
65508015015     002180904055011893  HECTOR BRIHAN CRUZ SORIANO              100100000000007200001001DEPOSITO                                                                                                                          0000278
65508015015     002832904550105934  JOSE ANTONIO GONZALEZ SANCHEZ           100100000000012200001001DEPOSITO                                                                                                                          0000279
65508015015     002180904568527094  LUIS EDUARDO GARCIA JASSO               100100000000012066701001DEPOSITO                                                                                                                          0000280
65508015015     002709903734302179  SERGIO MONTANEZ MIRELES                 100100000000004533301001DEPOSITO                                                                                                                          0000281
65508015015     002180904109415293  JUAN URIEL ALVAREZ TOLEDO               100100000000007200001001DEPOSITO                                                                                                                          0000282
65508015015     002711903773327323  JORGE ALBERTO RUIZ RUIZ                 100100000000009200001001DEPOSITO                                                                                                                          0000283
65508015015     002709904536151378  FATIMA JUDIHETL AGUILERA PUENTE         100100000000003200001001DEPOSITO                                                                                                                          0000284
65508015015     021711065122370879  ROBERTO ISARIAS MARTINEZ LOREDO         100100000000008866701001DEPOSITO                                                                                                                          0000285
65508015015     021634065131572350  BULMARO HERNANDEZ LOPEZ                 100100000000009650001001DEPOSITO                                                                                                                          0000286
65508015015     021700065199266338  MARIO ENRIQUE PALAFOX ARELLANO          100100000000021672001001DEPOSITO                                                                                                                          0000287
65508015015     021180065204598553  FRANCISCO ENRIQUE MARTINEZ SEGURA       100100000000029900001001DEPOSITO                                                                                                                          0000288
65508015015     021180064738884970  CHRISTIAN HERNANDEZ RAMOS               100100000000008850001001DEPOSITO                                                                                                                          0000289
65508015015     021700064585821155  JORGE LUIS BANDA CORONADO               100100000000003200001001DEPOSITO                                                                                                                          0000290
65508015015     021180065024744846  EDGAR OROZCO ARZATE                     100100000000013800001001DEPOSITO                                                                                                                          0000291
65508015015     021180064867934377  JORGE ALBERTO ROJAS ANDRADE             100100000000046052901001DEPOSITO                                                                                                                          0000292
65508015015     021180065025575771  DORA MARIA BAUTISTA MARTINEZ            100100000000015200001001DEPOSITO                                                                                                                          0000293
65508015015     021180064894773190  CHRISTIAN DE JESUS ARENAS CABALLERO     100100000000008850001001DEPOSITO                                                                                                                          0000294
65508015015     021180064928384730  ANGEL NERI GOVEA SANCHEZ                100100000000025189401001DEPOSITO                                                                                                                          0000295
65508015015     021180064830737268  DULCE VALERIA ROSAS RIOJAS              100100000000011903701001DEPOSITO                                                                                                                          0000296
65508015015     021180064742407068  ERIVALDO VIGUERAS JURADO                100100000000008850001001DEPOSITO                                                                                                                          0000297
65508015015       JAIME GABRIEL NIETO EGUIARTE            100100000000946700001001DEPOSITO                                                                                                                          0000298
65508015015     044180001043830633  CESAR IVAN REBOLLEDO MORALES            100100000000026250001001DEPOSITO                                                                                                                          0000299
65508015015     044700016049048690  BEATRIZ ESMERALDA GOMEZ MARTINEZ        100100000000007200001001DEPOSITO                                                                                                                          0000300
65508015015     072180011417436308  WILIAN SOLANO PACHECO                   100100000000007200001001DEPOSITO                                                                                                                          0000301
65508015015     072700011030293874  RENE POLVORILLA PACHECO                 100100000000018850001001DEPOSITO                                                                                                                          0000302
65508015015     072700011038639566  DIANA GABRIELA ZANELLA ORTEGA           100100000000013700001001DEPOSITO                                                                                                                          0000303
65508015015     072628011451279203  ADRIANA FLORENCIO MORALES               100100000000004200001001DEPOSITO                                                                                                                          0000304
65508015015     072705011015656855  KAREN FABIOLA SIFUENTES DE LA ROSA      100100000000010740001001DEPOSITO                                                                                                                          0000305
65508015015     072180011352939384  CRUZ JAMAICA TEMIMILPA                  100100000000011200001001DEPOSITO                                                                                                                          0000306
65508015015     072650010700364964  GUILLERMO TENJHAY HERNANDEZ             100100000000022172001001DEPOSITO                                                                                                                          0000307
65508015015     072700011356411644  MARIA DEL CARMEN IZAR SEGURA            100100000000004200001001DEPOSITO                                                                                                                          0000308
65508015015     072180004933883222  JACQUELINE SANCHEZ REYES                100100000000020188001001DEPOSITO                                                                                                                          0000309
65508015015     072650010385430064  GRISELDA ALVARADO ZACARIAS              100100000000028520001001DEPOSITO                                                                                                                          0000310
65508015015     072180011175218062  MARCO ANTONIO CANO CARBAJAL             100100000000010700001001DEPOSITO                                                                                                                          0000311
65508015015     072580005944068512  DAVID SANCHEZ MARTINEZ                  100100000000007200001001DEPOSITO                                                                                                                          0000312
65508015015     002885904164960046  JAIME NOE PEREZ REYES                   100100000000059572001001DEPOSITO                                                                                                                          0000313
65508015015     002272904262481739  SILVIA GONZAGA CHILACA                  100100000000017840001001DEPOSITO                                                                                                                          0000314
65508015015     002854903867100067  SHEILA YESMID AGUILAR BRAVATA           100100000000005700001001DEPOSITO                                                                                                                          0000315
65508015015     002863904538517791  JOSE JUAN VASQUEZ ORTIZ                 100100000000018086001001DEPOSITO                                                                                                                          0000316
65508015015     002180901951131210  FABIAN MARTINEZ HERNANDEZ               100100000000073742101001DEPOSITO                                                                                                                          0000317
65508015015     002855901194936329  CESAR VALENCIA GALICIA                  100100000000003695201001DEPOSITO                                                                                                                          0000318
65508015015     002877901464657057  IRIS VIANEY JAUREGUI PRIETO             100100000000003630501001DEPOSITO                                                                                                                          0000319
65508015015     002272901490275558  ALEXIS JUAREZ SANTANA                   100100000000090418001001DEPOSITO                                                                                                                          0000320
65508015015     002865901962654645  MARIA GEORGINA ORTEGA REYES             100100000000003684001001DEPOSITO                                                                                                                          0000321
65508015015     002690902140219856  MAGALY CONCEPCION PAT CAB               100100000000004173801001DEPOSITO                                                                                                                          0000322
65508015015     002910902262330076  LIBRADA CAROLINA ESPADAS GAMBOA         100100000000003684001001DEPOSITO                                                                                                                          0000323
65508015015     002261902393445097  ANA MARIA LOPEZ DURAN                   100100000000035978001001DEPOSITO                                                                                                                          0000324
65508015015     002276902408343231  ALBERTO HERNANDEZ ESTRADA               100100000000023580401001DEPOSITO                                                                                                                          0000325
65508015015     002885902516472582  MIRIAM CASTRO CASTRO                    100100000000003525001001DEPOSITO                                                                                                                          0000326
65508015015     002050903540541158  MIRIAM SEQUEIDA LORENZANA               100100000000003389501001DEPOSITO                                                                                                                          0000327
65508015015     002877902831561911  SAUL OSMIN VAZQUEZ ESTRADA              100100000000008850001001DEPOSITO                                                                                                                          0000328
65508015015     002260902247620969  ANALI MORENO GARCIA                     100100000000003389501001DEPOSITO                                                                                                                          0000329
65508015015     002905903530471587  SANTOS PERFECTO FISCAL IXTEPAN          100100000000039675001001DEPOSITO                                                                                                                          0000330
65508015015     002888903658142352  IRMA BERENICE GONZALEZ MONCADA          100100000000003389501001DEPOSITO                                                                                                                          0000331
65508015015     002260903659598455  RAFAEL GUILLERMO GOMEZ SANTOS           100100000000024263001001DEPOSITO                                                                                                                          0000332
65508015015     002890903678935155  RIGOBERTO BAXIN CANELA                  100100000000008215001001DEPOSITO                                                                                                                          0000333
65508015015     002888903702857470  JESSICA SANTIAGO OLVERA                 100100000000022967001001DEPOSITO                                                                                                                          0000334
65508015015     002854903882409455  BERENICE MENDEZ RODRIGUEZ               100100000000003389501001DEPOSITO                                                                                                                          0000335
65508015015     002888902896877419  LETICIA DEL ANGEL PEREZ                 100100000000005200001001DEPOSITO                                                                                                                          0000336
65508015015     002282903975736982  EDUARDO FERNANDEZ MOLINA                100100000000003389501001DEPOSITO                                                                                                                          0000337
65508015015     002272904090836912  LUIS EDUARDO MIRARIOS SOLIS             100100000000013000001001DEPOSITO                                                                                                                          0000338
65508015015     002260902756030493  JOAQUIN POLICARPO MARTINEZ              100100000000008850001001DEPOSITO                                                                                                                          0000339
65508015015     002854902711754418  JHOVANY MAURILIO BEATRIZ                100100000000004346001001DEPOSITO                                                                                                                          0000340
65508015015     002691903783945297  ADRIAN MUNOZ USCANGA                    100100000000008850001001DEPOSITO                                                                                                                          0000341
65508015015     002888903668002110  LUIS ARTURO ZAMORA NAVARRO              100100000000096410001001DEPOSITO                                                                                                                          0000342
65508015015     002272903662603817  JESUS DAVID BARRIOS FLORES              100100000000022162001001DEPOSITO                                                                                                                          0000343
65508015015     002320904315129890  GABRIELA BRIYETH JUAREZ RENTERIA        100100000000003200001001DEPOSITO                                                                                                                          0000344
65508015015     002460901204405180  MARIO VELAZQUEZ DELGADO                 100100000000011700001001DEPOSITO                                                                                                                          0000345
65508015015     002272904380802193  BINABEL CERROS MENDOZA                  100100000000012060001001DEPOSITO                                                                                                                          0000346
65508015015     002855904280781278  PABLO EDUARDO NAZARIO VAZQUEZ           100100000000013960001001DEPOSITO                                                                                                                          0000347
65508015015     002506902466496418  NANCY KARINA MORA LARA                  100100000000017622001001DEPOSITO                                                                                                                          0000348
65508015015     002264903850204052  YAMILETH ROSAS FARIAS                   100100000000017700001001DEPOSITO                                                                                                                          0000349
65508015015     002260903934053246  MA DEL ROSARIO RAMIREZ LOPEZ            100100000000019606001001DEPOSITO                                                                                                                          0000350
65508015015     002261904309738181  OTONIEL PORTILLO SOLIS                  100100000000008740001001DEPOSITO                                                                                                                          0000351
65508015015     002636904052431988  JOSE BARTOLO REGALADO                   100100000000063734001001DEPOSITO                                                                                                                          0000352
65508015015     002840904186959261  JESSICA ITZEL JIMENEZ RENDON            100100000000015770001001DEPOSITO                                                                                                                          0000353
65508015015     002691903958217161  ANDREA CAROLINA COLLI DOMINGUEZ         100100000000003200001001DEPOSITO                                                                                                                          0000354
65508015015     002261701612251914  ROCIO ZULEMA BAILON RODRIGUEZ           100100000000008700001001DEPOSITO                                                                                                                          0000355
65508015015     002260903763471167  HECTOR MENDEZ TORRES                    100100000000021486001001DEPOSITO                                                                                                                          0000356
65508015015     002890904500007192  ERICK GUSTAVO OCAMPO GARCIA             100100000000006200001001DEPOSITO                                                                                                                          0000357
65508015015     002905904559988076  JESUS ALEJANDRO URUCHURTU BECERRA       100100000000023500001001DEPOSITO                                                                                                                          0000358
65508015015     002872902656330047  ALEJANDRO SALAS GARCIA                  100100000000100730001001DEPOSITO                                                                                                                          0000359
65508015015     002506904520072491  JANETH FARIAS MOLINA                    100100000000003200001001DEPOSITO                                                                                                                          0000360
65508015015     002888904132201640  GERARDO DANIEL MURRIETA GUZMAN          100100000000008700001001DEPOSITO                                                                                                                          0000361
65508015015     002100701550670886  OFELIA GOMEZ SANTIZ                     100100000000003200001001DEPOSITO                                                                                                                          0000362
65508015015     002281902478258189  LUIS ALBERTO GORDILLO AGUILAR           100100000000003200001001DEPOSITO                                                                                                                          0000363
65508015015     002100904261728866  DANY CAROLINA PEREZ HERNANDEZ           100100000000003200001001DEPOSITO                                                                                                                          0000364
65508015015     002135904486457291  EZEQUIEL CASTELLANOS DE LOS SANTOS      100100000000004200001001DEPOSITO                                                                                                                          0000365
65508015015     002100904482550923  MARIO ESTEBAN SANCHEZ GOMEZ             100100000000003200001001DEPOSITO                                                                                                                          0000366
65508015015     002690904496566785  PRISCILA DAMERI DOMINGUEZ CABALLERO     100100000000003200001001DEPOSITO                                                                                                                          0000367
65508015015     002028904319579052  VICTOR IVAN DELGADO CALLEJA             100100000000003200001001DEPOSITO                                                                                                                          0000368
65508015015     002109701708021932  MARIA FERNANDA VAZQUEZ MEZA             100100000000004200001001DEPOSITO                                                                                                                          0000369
65508015015     002109904565201530  DIANA LAURA DIAZ LOPEZ                  100100000000003189301001DEPOSITO                                                                                                                          0000370
65508015015     002123904148137890  LUCIA GUADALUPE GARCIA DE AQUINO        100100000000004200001001DEPOSITO                                                                                                                          0000371
65508015015     002266902939846615  CENOBIO MARTINEZ RENTERIA               100100000000003200001001DEPOSITO                                                                                                                          0000372
65508015015     002272904599632264  ELIZABETH HERNANDEZ BERNABE             100100000000021880901001DEPOSITO                                                                                                                          0000373
65508015015     002114904186276379  MANUEL CONCEPCION SANCHEZ CRUZ          100100000000004200001001DEPOSITO                                                                                                                          0000374
65508015015     002133904474479665  JOSE ANTONIO LOPEZ MARTINEZ             100100000000003200001001DEPOSITO                                                                                                                          0000375
65508015015     002282904591211958  LESLIE AZANETH BARRIOS RODRIGUEZ        100100000000002933301001DEPOSITO                                                                                                                          0000376
65508015015     002272904613141039  KEVIN ZEQUEIDA SUAREZ                   100100000000003200001001DEPOSITO                                                                                                                          0000377
65508015015     002260903692682276  KAREN BERENICE CASTRO LOPEZ             100100000000007200001001DEPOSITO                                                                                                                          0000378
65508015015     002125904391027470  LUIS ANGEL HERNANDEZ GALLEGOS           100100000000004200001001DEPOSITO                                                                                                                          0000379
65508015015     002793904166217559  PABLO DIAZ HERNANDEZ                    100100000000004200001001DEPOSITO                                                                                                                          0000380
65508015015     002133903931462996  RONALDO VELAZQUEZ JUAREZ                100100000000003200001001DEPOSITO                                                                                                                          0000381
65508015015     002885904286293950  NUBIA LEYDI MALPICA MORA                100100000000054030001001DEPOSITO                                                                                                                          0000382
65508015015     002905903783664798  ALBERTO MASEGOSA DOMINGUEZ              100100000000083866001001DEPOSITO                                                                                                                          0000383
65508015015     002855903828732884  WENDY MONSERRAT NOVOA MADERO            100100000000077624201001DEPOSITO                                                                                                                          0000384
65508015015     021133065261982340  MARCO AURELIO LOPEZ GARCIA              100100000000005866701001DEPOSITO                                                                                                                          0000385
65508015015     021100065281312091  GUILLERMO VENTURINO UTRILLA MELCHOR     100100000000005866701001DEPOSITO                                                                                                                          0000386
65508015015     021078065029123273  AZUCENA YAZMIN ROBLERO ROBLERO          100100000000003200001001DEPOSITO                                                                                                                          0000387
65508015015     021470064700856918  NOE FLORES GONZALEZ                     100100000000012792301001DEPOSITO                                                                                                                          0000388
65508015015     021272065143470909  EDUARDO FRANCISCO ESTRADA ORTEGA        100100000000009700001001DEPOSITO                                                                                                                          0000389
65508015015     021690065153351852  ADRIAN IDAIR PEREZ FLORES               100100000000003200001001DEPOSITO                                                                                                                          0000390
65508015015     021272064248789774  IVAN NAVA GARCIA                        100100000000021848401001DEPOSITO                                                                                                                          0000391
65508015015     021260064723468289  JOSE IGNACIO DE LA CRUZ CASTRO          100100000000012944001001DEPOSITO                                                                                                                          0000392
65508015015     021261064872686458  DARANI MONTOYA MORALES                  100100000000016910001001DEPOSITO                                                                                                                          0000393
65508015015     021272064859041429  KARINA SALGADO ROCHA                    100100000000010380001001DEPOSITO                                                                                                                          0000394
65508015015     021260064980019691  MA. ROXANA BARRIOS ROMERO               100100000000012056001001DEPOSITO                                                                                                                          0000395
65508015015     072855010956809599  JOSE LUIS TRUJILLO JIMENEZ              100100000000008850001001DEPOSITO                                                                                                                          0000396
65508015015     072180011537155006  HUGO ISAAC RUIZ SANTIZ                  100100000000003200001001DEPOSITO                                                                                                                          0000397
65508015015     072180003647418492  ERIK PEREZ LOPEZ                        100100000000003200001001DEPOSITO                                                                                                                          0000398
65508015015     072580011036441646  RODRIGO RUIZ CASTELLANOS                100100000000004200001001DEPOSITO                                                                                                                          0000399
65508015015     072133010004576962  WILLIAMS VICTORIO CITALAN               100100000000004200001001DEPOSITO                                                                                                                          0000400
65508015015     072650010892265890  CARLOS EDUARDO ZAMBRANO SANCHEZ         100100000000004200001001DEPOSITO                                                                                                                          0000401
65508015015     072133010406221006  JOSE MARIA SANTIZ DE LEON               100100000000003200001001DEPOSITO                                                                                                                          0000402
65508015015     072104006842668994  ISAIAS FERNANDO LUNA DIAZ               100100000000003200001001DEPOSITO                                                                                                                          0000403
65508015015     072133011244640770  MIGUEL ANGEL RAMIREZ ARROYO             100100000000003200001001DEPOSITO                                                                                                                          0000404
65508015015     072261011229571820  SARA IVETT PRUDENTE TORRES              100100000000012200001001DEPOSITO                                                                                                                          0000405
65508015015     072150010995839911  OLIVIA VELAZQUEZ FLORES                 100100000000008200001001DEPOSITO                                                                                                                          0000406
65508015015     002293902990359635  MARCO ANTONIO SANCHEZ SANCHEZ           100100000000003200001001DEPOSITO                                                                                                                          0000407
65508015015     002920903401683476  ADDY ARACELLY KUYOC CAB                 100100000000004200001001DEPOSITO                                                                                                                          0000408
65508015015     002878903678687580  EDGAR IVAN MARTINEZ SANDOVAL            100100000000003200001001DEPOSITO                                                                                                                          0000409
65508015015     002320904577696789  MARIO EDUARDO SALCIDO PADILLA           100100000000010290001001DEPOSITO                                                                                                                          0000410
65508015015     002180904325326221  LUIS IGNACIO SOTELO HERNANDEZ           100100000000007200001001DEPOSITO                                                                                                                          0000411
65508015015     002667904613969596  ARIANA GUADALUPE FLORES CRUZ            100100000000007200001001DEPOSITO                                                                                                                          0000412
65508015015     002320902086770978  ANDRES ALEJANDRO HUERTA NAVARRO         100100000000009200001001DEPOSITO                                                                                                                          0000413
65508015015     002535904611119548  URIEL RODRIGUEZ ANTONIO                 100100000000008200001001DEPOSITO                                                                                                                          0000414
65508015015     002777701313177412  ARIANA CUEVAS ROGRIGUEZ                 100100000000009200001001DEPOSITO                                                                                                                          0000415
65508015015     002650904371596878  MARIBEL ORTEGA URIBE                    100100000000008016001001DEPOSITO                                                                                                                          0000416
65508015015     002210904352827919  BRENDA LORENA MACIAS CHAGOYA            100100000000012500001001DEPOSITO                                                                                                                          0000417
65508015015     002560904532205661  FIDELA NATALIA VELAZQUEZ MEDINA         100100000000007200001001DEPOSITO                                                                                                                          0000418
65508015015     002320904594895754  LUIS EDUARDO MAGANA VEGA                100100000000009200001001DEPOSITO                                                                                                                          0000419
65508015015     002010904402870760  BRENDA CRISTINA JUAREZ ZAVALA           100100000000016700001001DEPOSITO                                                                                                                          0000420
