11069200152302210001APOYOS EMPRESARIALES REJUM S.A. DE NOMINA 23022021     05                                        C00
2100100000000000211601201700900000000000004986611
300010000000000000320000100002320700828572552                              0000010059ANDREA ISABEL HEREDIA CERVANTES                        NOMINA                                                          0000       00
300010000000000003420000100002260900023345842                              0000010192MAURICIO LOPEZ ROSAS                                   NOMINA                                                          0000       00
300010000000000000406940100002261904133678239                              0000010228MARIA DEL ROCIO RADILLA ZAMORA                         NOMINA                                                          0000       00
300010000000000000522340100002248902989950922                              0000010261JUAN CARLOS ARROYO CORONA                              NOMINA                                                          0000       00
300010000000000000353510100002261904143202514                              0000010278PAULINO URBANO RADILLA                                 NOMINA                                                          0000       00
300010000000000000320000100002506903590674529                              0000010467YOLANDA MAYA PAHUA                                     NOMINA                                                          0000       00
300010000000000000500000100002282903610314575                              0000010490MARBELLA MARILEZ GUILLEN                               NOMINA                                                          0000       00
300010000000000000320000100002497901191093953                              0000010795PAOLA ALVAREZ CARDENAS                                 NOMINA                                                          0000       00
300010000000000000420000100002476903824919116                              0000010947ALEXIS ALBERTO TINOCO CALDERON                         NOMINA                                                          0000       00
300010000000000003604000100002476902399640199                              0000011005CECILIA GIOVANNA RUIZ LOZANO                           NOMINA                                                          0000       00
300010000000000000320000100002320904263587267                              0000011032GRISELDA GARCIA SILVA                                  NOMINA                                                          0000       00
300010000000000000500000100002233902618703468                              0000011066JORGE LUIS FLORES RAYA                                 NOMINA                                                          0000       00
300010000000000000320000100002528901011215764                              0000011530VERONICA COLIN GONZALEZ                                NOMINA                                                          0000       00
300010000000000000293330100002282901767365411                              0000011533LIZZET MEZA FIGUEROA                                   NOMINA                                                          0000       00
300010000000000000293330100002282901795569438                              0000011540JAZMIN SARABIA BALTEZAR                                NOMINA                                                          0000       00
300010000000000000420000100002320904165977810                              0000011603CRISTINA DEL CARMEN QUEZADA AGUILA                     NOMINA                                                          0000       00
300010000000000000320000100002261701538565140                              0000011645JOSE ANTONIO VALENTIN LORENZO                          NOMINA                                                          0000       00
300010000000000000320000100002158904165284377                              0000011707JUANA MARIA ELENA DELGADO RAMIREZ                      NOMINA                                                          0000       00
300010000000000000500000100002225701289729925                              0000011730CECILIA MARGARITA FUENTES HERNANDEZ                    NOMINA                                                          0000       00
300010000000000000420000100002261902302124998                              0000011731CYNTHIA YAZMIN ALARCON GALVAN                          NOMINA                                                          0000       00
300010000000000000500000100002261902453964641                              0000011733ROSALBA GENCHI GONZALEZ                                NOMINA                                                          0000       00
300010000000000000420000100002261903623833653                              0000011734BLADIMIR GONZALEZ PALACIOS                             NOMINA                                                          0000       00
300010000000000000386670100002222902946577458                              0000011764FELIPE DE JESUS VILLANUEVA CASTRO                      NOMINA                                                          0000       00
300010000000000000400000100002215904345696712                              0000011771MARTHA LAURA ALONSO LOPEZ                              NOMINA                                                          0000       00
300010000000000000320000100002476700433653532                              0000011808ZEIME SOAD OCHOA MOSRI                                 NOMINA                                                          0000       00
300010000000000000320000100002528904248288574                              0000011836ARACELI ARCIGA PENA                                    NOMINA                                                          0000       00
300010000000000000320000100002320902734805357                              0000011838VICTOR RAMON DAVILA VALDEZ                             NOMINA                                                          0000       00
300010000000000000320000100002320904171335336                              0000011839EDGAR JOSUE GUTIERREZ VAZQUEZ                          NOMINA                                                          0000       00
300010000000000000466670100002320904357204540                              0000011870MILVIA PATRICIA LORETO VALLEJO                         NOMINA                                                          0000       00
300010000000000000386670100002375903787161513                              0000011927MA DE LOURDES DIAZ VELOZ                               NOMINA                                                          0000       00
300010000000000000320000100002225902702126451                              0000011941CLAUDIA ADRIANA MARQUEZ GONZALEZ                       NOMINA                                                          0000       00
300010000000000000500000100002282904424471519                              0000011954PERLA ZUHEY AMARO CARRANZA                             NOMINA                                                          0000       00
300010000000000000320000100002073560114078383                              0000011998DULCE ROSARIO CUELLAR CUELLAR                          NOMINA                                                          0000       00
300010000000000000293330100002506904190847690                              0000012038KAREN LISSET PURECO NUNEZ                              NOMINA                                                          0000       00
300010000000000000320000100002261904445331361                              0000012048DULCE IVETH MACIEL GOMEZ                               NOMINA                                                          0000       00
300010000000000000373330100002272904489517651                              0000037491PALOMA ELIZABETH SALDIERNA MALDONADO                   NOMINA                                                          0000       00
300010000000000000400000100002282904486610237                              0000901700RAMON MOLINA RAMIREZ                                   NOMINA                                                          0000       00
300010000000000000400000100002282904421062578                              0000901852CINTIA YASMIN DIAZ UVILLADA                            NOMINA                                                          0000       00
300010000000000000500000100002535904225675339                              0000903525ISMAEL MEJIA CRUZ                                      NOMINA                                                          0000       00
4001000039000000000002116012000001000000000002116012
