100001E0218202165505232207     02182021
2000020903884SALAZAR                       CASTANEDA           JORGE ARMANDO                 0606183139     000000000000642537
2000030903832MALDONADO                     ZENON               LILIA MARISELA                6792796778     000000000000312981
2000040903419ELIZARRARAZ                   RETANA              ERICK                         0571714636     000000000000312981
2000050010167MARBAN                        JARAMILLO           HILDA                         6687543764     000000000000212111
2000060010116SANCHEZ                       MEJIA               MARIO ALBERTO                 0583624882     000000000000533147
2000070010013RAMIREZ                       MACIAS              LUZ ELENA                     6615669720     000000000000413000
2000080010068BUCIO                         BETANCOURT          JORGE ALFREDO                 0561637253     000000000000352371
2000090010072MEJIA                         GOMEZ               SILVERIO                      0571154183     000000000000052925
2000100010061PEDRAZA                       CARPIO              EDUARDO                       0558281226     000000000000140307
2000110010331LARIOS                        PANTOJA             JENNIFER VANESSA              0588292172     000000000000533580
2000120010791REYNA                         RUIZ                ALMA JANETH                   0584245112     000000000000298228
2000130010545MORFIN                        ANCIRA              MERY ESTEFANIA                0589586912     000000000000317965
2000140011064REYES                         ESPINOZA            EDMUNDO IGNACIO               6697326216     000000000000562387
2000150011381PEREZ                         VALDOVINOS          YANETH                        0604968092     000000000000620836
2000160011445FLORES                        RODRIGUEZ           LILIANA                       6686075222     000000000000233754
2000170011466GONZALEZ                      GARCIA              JENNIFER MINERVA              0606810082     000000000000448787
2000180011520BALLESTEROS                   SANCHEZ             LAURA YANETH                  3000456115     000000000000249689
2000190011676VELAZQUEZ                     OLGUIN              VERONICA MARCELA              6780627970     000000000000009969
2000200011762RINCON                        HERNANDEZ           JOSE LUIS                     0562779744     000000000000206217
2000210011804CASTILLO                      PEREZ               REYNALDO                      6766785642     000000000000298242
2000220011821ARREDONDO                     PEREZ               JOSE ANTONIO                  0598193203     000000000000300991
2000230011925BETANCOURT                    GUTIERREZ           LEONARDO JESUS                0593365641     000000000000339743
2000240011901BAUTISTA                      DIAZ                ANA GUADALUPE                 0605308497     000000000000413046
2000250011997MOLINA                        RODRIGUEZ           JUAN CARLOS                   6770477437     000000000000412434
2000260012024PARDO                         OROZCO              ESTELA                        6721299498     000000000000533202
2000270901319GARCIA                        MARTINEZ            MARIA OLIVIER                 0601880206     000000000000110959
2000280901836PALOMINO                      VAZQUEZ             JESSICA DEL ROCIO             0614950003     000000000000317980
2000290901826OROPEZA                       TEODORO             DIANA                         6677563686     000000000000249689
2000300902097GARCIA                        RUIZ                ROSA GLADYS                   0602911401     000000000000413047
2000310903002GUERRERO                      ZAMBRANO            RUBEN                         0589569751     000000000000413047
30003200010000000000010256152
