EEHA8817801                                                                                                                                                                                                                                                                                                                                                                       
EEHB000000001060151350000000001000                                                                                                                                                                                                                                                                                                                                                
EEDA0400000000001313579202102190110107                            GARCIA ANTONIO FABIAN ENRIQUE           000000000000000100000000000000218090258811231300000                                        9 00000044002001PAGO NOMINA                                                                                                   0000000002180902588112313                      
EEDA0400000000000895900202102190150004                            PEREZ MUNOZ JOSE GUSTAVO                000000000000000200000000000000212390056666256900000                                        9 00000044002001PAGO NOMINA                                                                                                   0000000002123900566662569                      
EEDA0400000000000493906202102190150100                            PACHECO BENITEZ BENJAMIN                000000000000000300000000000000218070082061787500000                                        9 00000044002001PAGO NOMINA                                                                                                   0000000002180700820617875                      
EEDA0400000000001497587202102190150103                            PADILLA HERNANDEZ HUMBERTO              000000000000000400000000000000253770016072581800000                                        9 00000044002001PAGO NOMINA                                                                                                   0000000002537700160725818                      
EEDA0400000000000443748202102190150114                            CHAVEZ MORALES SERGIO OMAR              000000000000000500000000000000254090106454549800000                                        9 00000044002001PAGO NOMINA                                                                                                   0000000002540901064545498                      
EEDA0400000000001139319202102190150055                            VALENZUELA BORBON ROSELA ADRIANA        000000000000000600000000000000276090125360288300000                                        9 00000044002001PAGO NOMINA                                                                                                   0000000002760901253602883                      
EEDA0400000000001424586202102190150060                            DIAZ HERNANDEZ YAZMIN                   000000000000000700000000000000218070108658248400000                                        9 00000044002001PAGO NOMINA                                                                                                   0000000002180701086582484                      
EEDA0400000000000246998202102190150223                            REYES MARTINEZ MISAEL                   000000000000000800000000000000218090295095317100000                                        9 00000044002001PAGO NOMINA                                                                                                   0000000002180902950953171                      
EEDA0400000000002909787202102190150233                            ALVAREZ GALVEZ MARIJOSE                 000000000000000900000000000000254007100994970100000                                        9 00000044002001PAGO NOMINA                                                                                                   0000000002540071009949701                      
EEDA0400000000000637491202102190150258                            MORALES GARCIA MANUEL                   000000000000001000000000000000218090266368258000000                                        9 00000044002001PAGO NOMINA                                                                                                   0000000002180902663682580                      
EEDA0400000000000334624202102190150354                            VICTORIA GUTIERREZ SHARON ROSARIO       000000000000001100000000000000218070165154957700000                                        9 00000044002001PAGO NOMINA                                                                                                   0000000002180701651549577                      
EEDA0400000000000388018202102190150355                            BOLANOS VARGAS CARLOS ARMANDO           000000000000001200000000000000218090368880468500000                                        9 00000044002001PAGO NOMINA                                                                                                   0000000002180903688804685                      
EEDA0400000000000678926202102190150357                            SERRA VILLAGOMEZ ADRIAN RAFAEL          000000000000001300000000000000218090252485081700000                                        9 00000044002001PAGO NOMINA                                                                                                   0000000002180902524850817                      
EEDA0400000000000621606202102190150160                            GONZALEZ GARCIA HECTOR                  000000000000001400000000000000218090281164928100000                                        9 00000044002001PAGO NOMINA                                                                                                   0000000002180902811649281                      
EEDA0400000000000729712202102190150449                            PEREZ CASTILLO JULIETA                  000000000000001500000000000000218090220401013900000                                        9 00000044002001PAGO NOMINA                                                                                                   0000000002180902204010139                      
EEDA0400000000000828063202102190150453                            CASTRO GARCIA ELSA BEATRIZ              000000000000001600000000000000218090001048022700000                                        9 00000044002001PAGO NOMINA                                                                                                   0000000002180900010480227                      
EEDA0400000000000472500202102190150496                            RIVERA MAYA ARIANA                      000000000000001700000000000000218070128592421200000                                        9 00000044002001PAGO NOMINA                                                                                                   0000000002180701285924212                      
EEDA0400000000000407144202102190150588                            MONTIEL VAZQUEZ ZULMA REBECA            000000000000001800000000000000218070133353656500000                                        9 00000044002001PAGO NOMINA                                                                                                   0000000002180701333536565                      
EEDA0400000000000443804202102190150589                            CRUZ GARCIA JOSUE FARID                 000000000000001900000000000000246070142766092800000                                        9 00000044002001PAGO NOMINA                                                                                                   0000000002460701427660928                      
EEDA0400000000000637537202102190150600                            GUADARRAMA NAVA GINA AURORA             000000000000002000000000000000218070135449456300000                                        9 00000044002001PAGO NOMINA                                                                                                   0000000002180701354494563                      
EEDA0400000000000599425202102190150610                            RODRIGUEZ GUTIERREZ CARLOS              000000000000002100000000000000218090384131254500000                                        9 00000044002001PAGO NOMINA                                                                                                   0000000002180903841312545                      
EEDA0400000000000407144202102190150556                            VELASQUEZ GUEVARA BHETSY SAINA          000000000000002200000000000000218070138074119600000                                        9 00000044002001PAGO NOMINA                                                                                                   0000000002180701380741196                      
EEDA0400000000000483635202102190150560                            AGUILAR EUMANA ITZEL DENISSE            000000000000002300000000000000218090353614842200000                                        9 00000044002001PAGO NOMINA                                                                                                   0000000002180903536148422                      
EEDA0400000000000407144202102190150629                            MENDOZA VAZQUEZ AMALINALLI AURORA       000000000000002400000000000000218070125068373700000                                        9 00000044002001PAGO NOMINA                                                                                                   0000000002180701250683737                      
EEDA0400000000000561314202102190150642                            BUREOS GARCIA IVAN RICARDO              000000000000002500000000000000218090419853053200000                                        9 00000044002001PAGO NOMINA                                                                                                   0000000002180904198530532                      
EEDA0400000000000340958202102190150647                            ITURBE REYES ADRIAN                     000000000000002600000000000000265090372868529400000                                        9 00000044002001PAGO NOMINA                                                                                                   0000000002650903728685294                      
EEDA0400000000000407144202102190150653                            MONROY OVANDO ANA MARGARITA             000000000000002700000000000000218090354806044600000                                        9 00000044002001PAGO NOMINA                                                                                                   0000000002180903548060446                      
EEDA0400000000000599425202102190150656                            VILLAR BARCENAS RICARDO ISAID           000000000000002800000000000000218090401750915200000                                        9 00000044002001PAGO NOMINA                                                                                                   0000000002180904017509152                      
EEDA04000000000006756482021021901900993                           ALAYETO PINZON JOSE MANUEL              000000000000002900000000000000218070153502631000000                                        9 00000044002001PAGO NOMINA                                                                                                   0000000002180701535026310                      
EEDA0400000000001818615202102190150688                            OLVERA GONZALEZ GEOVANNY                000000000000003000000000000002118004063264931600000                                        9 00000044021001PAGO NOMINA                                                                                                   0000000021180040632649316                      
EEDA0400000000000443804202102190150660                            OLVERA GARCIA ANDREA PATRICIA           000000000000003100000000000002118006407352586800000                                        9 00000044021001PAGO NOMINA                                                                                                   0000000021180064073525868                      
EEDA0400000000000443804202102190150564                            NOLASCO DIOSDADO DANIEL                 000000000000003200000000000002118006468612175600000                                        9 00000044021001PAGO NOMINA                                                                                                   0000000021180064686121756                      
EEDA0400000000000286544202102190150462                            ARIAS PACHECO CARLOS ALBERTO            000000000000003300000000000002118006447833363900000                                        9 00000044021001PAGO NOMINA                                                                                                   0000000021180064478333639                      
EEDA0400000000001313666202102190150424                            TOVAR SALGADO MARTIN                    000000000000003400000000000002154006353159174200000                                        9 00000044021001PAGO NOMINA                                                                                                   0000000021540063531591742                      
EEDA0400000000000354447202102190150432                            PEREZ DAVILA HUGO EDUARDO               000000000000003500000000000002118006468713338700000                                        9 00000044021001PAGO NOMINA                                                                                                   0000000021180064687133387                      
EEDA0400000000000443787202102190150438                            DE LAZARO MARQUEZ OSCAR                 000000000000003600000000000002118006464481674400000                                        9 00000044021001PAGO NOMINA                                                                                                   0000000021180064644816744                      
EEDA0400000000000216951202102190150263                            PRIETO LALDE BIBIANA IRAIS              000000000000003700000000000002118006432836322500000                                        9 00000044021001PAGO NOMINA                                                                                                   0000000021180064328363225                      
EEDA0400000000001387503202102190150293                            GARCIA CEDILLO FABIOLA                  000000000000003800000000000002118006342906206000000                                        9 00000044021001PAGO NOMINA                                                                                                   0000000021180063429062060                      
EEDA0400000000000427609202102190150168                            HERNANDEZ TORRES FERNANDO EDUARDO       000000000000003900000000000002190506373294530500000                                        9 00000044021001PAGO NOMINA                                                                                                   0000000021905063732945305                      
EEDA0400000000000751759202102190150115                            GARCIA BARCENA DANIEL                   000000000000004000000000000002118006414693675300000                                        9 00000044021001PAGO NOMINA                                                                                                   0000000021180064146936753                      
EEDA0400000000000323587202102190150129                            LOPEZ GONZALEZ CARLOS ANTONIO           000000000000004100000000000003618050039680892800000                                        9 00000044036001PAGO NOMINA                                                                                                   0000000036180500396808928                      
EEDA0400000000000239425202102190150147                            BASILIO HERNANDEZ VICTOR CUAHUTEMOC     000000000000004200000000000003618050045606423300000                                        9 00000044036001PAGO NOMINA                                                                                                   0000000036180500456064233                      
EEDA0400000000000407144202102190150681                            RAMIREZ CORTES OSCAR MARTIN             000000000000004300000000000012718001612962250900000                                        9 00000044127001PAGO NOMINA                                                                                                   0000000127180016129622509                      
EEDA0400000000000011546202102190150614                            SANCHEZ REYES WENDY DE LOS ANGELES      000000000000004400000000000012718000115086317700000                                        9 00000044127001PAGO NOMINA                                                                                                   0000000127180001150863177                      
EEDA0400000000000330033202102190150625                            PEDROZA ZARATE AURIEL                   000000000000004500000000000012718001644271437200000                                        9 00000044127001PAGO NOMINA                                                                                                   0000000127180016442714372                      
EEDA0400000000000329743202102190150628                            MARTINEZ JIMENEZ DULCE SARAI            000000000000004600000000000012718001659085394900000                                        9 00000044127001PAGO NOMINA                                                                                                   0000000127180016590853949                      
EEDA0400000000000637537202102190150672                            BRAMBILA REYES BRAYAN ENRIQUE           000000000000004700000000000012718000139200387600000                                        9 00000044127001PAGO NOMINA                                                                                                   0000000127180001392003876                      
EEDA0400000000000341203202102190150655                            BARRON REYES MANUEL XICOTENCATL         000000000000004800000000000012743701372754410400000                                        9 00000044127001PAGO NOMINA                                                                                                   0000000127437013727544104                      
EEDA0400000000001059500202102190150543                            REAL ANTONIO ROSALVA                    000000000000004900000000000012763201325555147700000                                        9 00000044127001PAGO NOMINA                                                                                                   0000000127632013255551477                      
EEDA0400000000000407132202102190150501                            VENTURA GUTIERREZ IVAN                  000000000000005000000000000012718001376272528000000                                        9 00000044127001PAGO NOMINA                                                                                                   0000000127180013762725280                      
EEDA0400000000000407132202102190150528                            MIRELES RODRIGUEZ ABRIL                 000000000000005100000000000012718001327799292200000                                        9 00000044127001PAGO NOMINA                                                                                                   0000000127180013277992922                      
EEDA0400000000000523183202102190150479                            VAZQUEZ AYALA LAURA VANESA              000000000000005200000000000012718001390840903000000                                        9 00000044127001PAGO NOMINA                                                                                                   0000000127180013908409030                      
EEDA0400000000000509802202102190150492                            CAMPUZANO ROBLES JESSICA                000000000000005300000000000012718001310417698900000                                        9 00000044127001PAGO NOMINA                                                                                                   0000000127180013104176989                      
EEDA0400000000000216239202102190150161                            MENDOZA PEREZ JOSE EDUARDO              000000000000005400000000000012718001340651261000000                                        9 00000044127001PAGO NOMINA                                                                                                   0000000127180013406512610                      
EEDA0400000000000408711202102190150327                            GUTIERREZ MARTINEZ JESUS                000000000000005500000000000012718000102630554900000                                        9 00000044127001PAGO NOMINA                                                                                                   0000000127180001026305549                      
EEDA0400000000000215773202102190150336                            LIRA TAPIA ALEJANDRA                    000000000000005600000000000012718001396687409200000                                        9 00000044127001PAGO NOMINA                                                                                                   0000000127180013966874092                      
EEDA0400000000000445516202102190150205                            ARIAS GONZALEZ CARLOS HUMBERTO          000000000000005700000000000012734601377045651800000                                        9 00000044127001PAGO NOMINA                                                                                                   0000000127346013770456518                      
EEDA0400000000000156631202102190150126                            ESQUIVEL BACA MARIA CONCEPCION          000000000000005800000000000012718000141696230100000                                        9 00000044127001PAGO NOMINA                                                                                                   0000000127180001416962301                      
EEDA0400000000000407144202102190150676                            ESTEVEZ GRIMALDO MARIA FERNANDA         000000000000005900000000000013718010335804657400000                                        9 00000044137001PAGO NOMINA                                                                                                   0000000137180103358046574                      
EEDA0400000000000523202202102190150670                            SANCHEZ RUIZ ANGEL DE JESUS             000000000000006000000000000013786910195902963700000                                        9 00000044137001PAGO NOMINA                                                                                                   0000000137869101959029637                      
EEDA0400000000000352630202102190150641                            AYALA GUILLEN JONATHAN                  000000000000006100000000000013718010288317190200000                                        9 00000044137001PAGO NOMINA                                                                                                   0000000137180102883171902                      
EETB000006100000000037167974000000000000000000000000000000000000000000000000000000000000000000000000000000000000000000000000000000000000000000000000000000000000000000000000000000000000000000000000000000000000000000000000000000000000000000000000000                                                                                                                           
EETA000006100000000037167974000000000000000000000000000000000000000000000000000000000000000000000000000000000000000000000000000000000000000000000000000000000000000000000000000000000000000000000000000000000000000000000000000000000000000000000000000                                                                                                                           
