EEHA4784801                                                                                                                                                                                                                                                                                                                                                                       
EEHB000000091004108100000000001000                                                                                                                                                                                                                                                                                                                                                
EEDA0400000000000250225202106220170164                            ESCOBAR VAZQUEZ LEONOR ENCARNACION      000000000000000100000000000002113306442457788100000                                        9 00000044021001PAGO NOMINA                                                                                                   0000000021133064424577881                      
EEDA0400000000000505926202106220170179                            RUIZ RODAS ROMEO FRANCISCO              000000000000000200000000000002113306374385691200000                                        9 00000044021001PAGO NOMINA                                                                                                   0000000021133063743856912                      
EEDA0400000000000204530202106220170610                            GAMBOA RUBIO LAURA YANETH               000000000000000300000000000002113306461131785400000                                        9 00000044021001PAGO NOMINA                                                                                                   0000000021133064611317854                      
EEDA0400000000000211928202106220170803                            LOPEZ OCEGUERA OSCAR DANIEL             000000000000000400000000000002113306478451754900000                                        9 00000044021001PAGO NOMINA                                                                                                   0000000021133064784517549                      
EEDA0400000000000269416202106220170810                            HERNANDEZ NINO YASURI                   000000000000000500000000000012711101363324953400000                                        9 00000044127001PAGO NOMINA                                                                                                   0000000127111013633249534                      
EEDA0400000000000203193202106220170846                            PALOMEQUE LOPEZ JOSUE EMANUEL           000000000000000600000000000012713300114663750000000                                        9 00000044127001PAGO NOMINA                                                                                                   0000000127133001146637500                      
EEDA0400000000000206841202106220170695                            SALAS PEREZ JOSE LUIS                   000000000000000700000000000012712101338423650100000                                        9 00000044127001PAGO NOMINA                                                                                                   0000000127121013384236501                      
EEDA0400000000000166877202106220170698                            GOMEZ ARIAS MANUEL DE JESUS             000000000000000800000000000012784101701487705300000                                        9 00000044127001PAGO NOMINA                                                                                                   0000000127841017014877053                      
EEDA0400000000000206848202106220170733                            VAZQUEZ OVALLES JOSE LUIS               000000000000000900000000000012711100113871378400000                                        9 00000044127001PAGO NOMINA                                                                                                   0000000127111001138713784                      
EEDA0400000000000200433202106220170924                            ROBLERO VAZQUEZ FRANCY BERENICE         000000000000001000000000000012711101362733210100000                                        9 00000044127001PAGO NOMINA                                                                                                   0000000127111013627332101                      
EEDA0400000000000399964202106220170936                            HERNANDEZ MORALES MABEL INES            000000000000001100000000000012712200135671941000000                                        9 00000044127001PAGO NOMINA                                                                                                   0000000127122001356719410                      
EEDA0400000000000193347202106220170955                            CRUZ PALOMEQUE JORGE ALBERTO            000000000000001200000000000012711100132837352300000                                        9 00000044127001PAGO NOMINA                                                                                                   0000000127111001328373523                      
EEDA0400000000000205002202106220170960                            CISNEROS GALDAMEZ SERGIO                000000000000001300000000000012711400130054269600000                                        9 00000044127001PAGO NOMINA                                                                                                   0000000127114001300542696                      
EEDA0400000000000239416202106220170965                            SANCHEZ ESPINOSA MARGARITA CONCEPCION   000000000000001400000000000012713300133287625600000                                        9 00000044127001PAGO NOMINA                                                                                                   0000000127133001332876256                      
EEDA0400000000000149700202106220170972                            MOLINA OROZCO MANUEL DE JESUS           000000000000001500000000000012713300111009365900000                                        9 00000044127001PAGO NOMINA                                                                                                   0000000127133001110093659                      
EEDA0400000000000317547202106220170987                            VILLALOBOS FLORES JHONNATAN             000000000000001600000000000012710300127923080400000                                        9 00000044127001PAGO NOMINA                                                                                                   0000000127103001279230804                      
EEDA0400000000000534890202106220170549                            COTOC MORADO SULMA BEATRIZ              000000000000001700000000000012711400115994467800000                                        9 00000044127001PAGO NOMINA                                                                                                   0000000127114001159944678                      
EEDA0400000000000132366202106220170555                            SANCHEZ PALACIOS MARIA ISABEL           000000000000001800000000000012710300111909077700000                                        9 00000044127001PAGO NOMINA                                                                                                   0000000127103001119090777                      
EEDA0400000000000534835202106220170042                            MORALES MEDINA LUIS ANTONIO             000000000000001900000000000012718001633283447200000                                        9 00000044127001PAGO NOMINA                                                                                                   0000000127180016332834472                      
EEDA0400000000000170369202106220170068                            CRUZ LAZARO ERICELDA                    000000000000002000000000000012712101312907083800000                                        9 00000044127001PAGO NOMINA                                                                                                   0000000127121013129070838                      
EEDA0400000000000189730202106220170195                            SOTO GUTIERREZ IRMA DANIELA             000000000000002100000000000012713300128243774500000                                        9 00000044127001PAGO NOMINA                                                                                                   0000000127133001282437745                      
EEDA0400000000000534853202106220170244                            REYES REYES RUTH ELIZABETH              000000000000002200000000000012712101305784436900000                                        9 00000044127001PAGO NOMINA                                                                                                   0000000127121013057844369                      
EEDA0400000000000222005202106220170307                            MALDONADO GUZMAN BERNARDO               000000000000002300000000000012711400115172420700000                                        9 00000044127001PAGO NOMINA                                                                                                   0000000127114001151724207                      
EEDA0400000000000534871202106220170311                            MENDEZ ALONSO AZUCENA                   000000000000002400000000000012712101317819795300000                                        9 00000044127001PAGO NOMINA                                                                                                   0000000127121013178197953                      
EEDA0400000000000299194202106220170313                            RIVAS AGUILERA ERVIN OSVALDO            000000000000002500000000000012713301328098530000000                                        9 00000044127001PAGO NOMINA                                                                                                   0000000127133013280985300                      
EEDA0400000000000404293202106220170323                            CRUZ SANCHO LORENA                      000000000000002600000000000012712701302183285100000                                        9 00000044127001PAGO NOMINA                                                                                                   0000000127127013021832851                      
EEDA0400000000000320614202106220170483                            LOPEZ DE LEON SHIRLEY YESENIA           000000000000002700000000000012710501395537953800000                                        9 00000044127001PAGO NOMINA                                                                                                   0000000127105013955379538                      
EEDA0400000000000166684202106220170510                            LOPEZ LUNA OTNIEL                       000000000000002800000000000012713300110330100200000                                        9 00000044127001PAGO NOMINA                                                                                                   0000000127133001103301002                      
EEDA04000000000002203592021062201901424                           AGUILAR GONZALEZ JESUS FRANCISCO        000000000000002900000000000012711400137572157800000                                        9 00000044127001PAGO NOMINA                                                                                                   0000000127114001375721578                      
EEDA04000000000003175392021062201901683                           GUTIERREZ PINEDA SIXTO                  000000000000003000000000000012713500115624484200000                                        9 00000044127001PAGO NOMINA                                                                                                   0000000127135001156244842                      
EEDA04000000000002747842021062201901788                           ESPINOZA RAMIREZ JHOVANI                000000000000003100000000000012712701378735988500000                                        9 00000044127001PAGO NOMINA                                                                                                   0000000127127013787359885                      
EEDA04000000000002215952021062201902069                           MARTINEZ MEZA GUILLERMO                 000000000000003200000000000012713300131895236900000                                        9 00000044127001PAGO NOMINA                                                                                                   0000000127133001318952369                      
EEDA04000000000002747842021062201902095                           ROQUE ROCHA ANGEL ANTONIO               000000000000003300000000000012710300123655483700000                                        9 00000044127001PAGO NOMINA                                                                                                   0000000127103001236554837                      
EEDA04000000000002004432021062201902381                           RAMOS RAMOS ANTONIO                     000000000000003400000000000012718001626556229300000                                        9 00000044127001PAGO NOMINA                                                                                                   0000000127180016265562293                      
EEDA04000000000002747842021062201902706                           CAMPERO OSORIO EVELIO                   000000000000003500000000000012712100132313673900000                                        9 00000044127001PAGO NOMINA                                                                                                   0000000127121001323136739                      
EEDA04000000000002747842021062201902836                           MARTINEZ VAZQUEZ PABLO ANTONIO          000000000000003600000000000012713501379233232600000                                        9 00000044127001PAGO NOMINA                                                                                                   0000000127135013792332326                      
EEDA04000000000002164512021062201902842                           LOPEZ ZAMBRANO ISELA CONCEPCION         000000000000003700000000000012712701367718536300000                                        9 00000044127001PAGO NOMINA                                                                                                   0000000127127013677185363                      
EEDA04000000000002747842021062201901238                           RAMIREZ RAMIREZ ROMEO                   000000000000003800000000000012711401385071698600000                                        9 00000044127001PAGO NOMINA                                                                                                   0000000127114013850716986                      
EEDA04000000000002747842021062201903317                           MENDEZ PONCE HECTOR                     000000000000003900000000000012718001611172730200000                                        9 00000044127001PAGO NOMINA                                                                                                   0000000127180016111727302                      
EEDA04000000000002747842021062201903418                           DE LA ROSA RUIZ LILIANA                 000000000000004000000000000012712101313475940300000                                        9 00000044127001PAGO NOMINA                                                                                                   0000000127121013134759403                      
EEDA04000000000002747842021062201903560                           ORDONEZ VELAZQUEZ JUAN ALEJANDRO        000000000000004100000000000012713300138847708100000                                        9 00000044127001PAGO NOMINA                                                                                                   0000000127133001388477081                      
EEDA04000000000002747842021062201903801                           CITALAN MINA CARLOS MANUEL              000000000000004200000000000012711100111303675800000                                        9 00000044127001PAGO NOMINA                                                                                                   0000000127111001113036758                      
EEDA04000000000002222762021062201904086                           CORONA DE LA ROSA FRANCISCO ALFONSO     000000000000004300000000000012712100156511128200000                                        9 00000044127001PAGO NOMINA                                                                                                   0000000127121001565111282                      
EEDA0400000000000274784202106220170801                            CRUZ LOPEZ SAULO AARON                  000000000000004400000000000012710500113927293900000                                        9 00000044127001PAGO NOMINA                                                                                                   0000000127105001139272939                      
EEDA04000000000002992092021062201904404                           HERNANDEZ ARREOLA EDUIN RAMON           000000000000004500000000000012713500120349377900000                                        9 00000044127001PAGO NOMINA                                                                                                   0000000127135001203493779                      
EEDA04000000000002992092021062201904291                           HERNANDEZ GOMEZ KEYLA ELISA             000000000000004600000000000013713310419333510800000                                        9 00000044137001PAGO NOMINA                                                                                                   0000000137133104193335108                      
EEDA04000000000002392432021062201904053                           GIRON GUERRA JUAN CARLOS                000000000000004700000000000013713310377579734300000                                        9 00000044137001PAGO NOMINA                                                                                                   0000000137133103775797343                      
EEDA04000000000002747842021062201904059                           GONZALEZ PEREZ AMAIRINI MONSERRAT       000000000000004800000000000013713310412268585800000                                        9 00000044137001PAGO NOMINA                                                                                                   0000000137133104122685858                      
EEDA04000000000002747842021062201903435                           LOPEZ DUQUE DE ESTRADA NOE              000000000000004900000000000013710310382551686000000                                        9 00000044137001PAGO NOMINA                                                                                                   0000000137103103825516860                      
EEDA04000000000002747842021062201901240                           GABRIEL HERNANDEZ SANDRI                000000000000005000000000000013711410406102292800000                                        9 00000044137001PAGO NOMINA                                                                                                   0000000137114104061022928                      
EEDA04000000000002747842021062201903032                           ESCOBAR SALAZAR GILBERTO                000000000000005100000000000013710013001234611000000                                        9 00000044137001PAGO NOMINA                                                                                                   0000000137100130012346110                      
EEDA0400000000000197140202106220170528                            PEREZ GODINEZ ESTUARDO RAMON            000000000000005200000000000013711410064108862900000                                        9 00000044137001PAGO NOMINA                                                                                                   0000000137114100641088629                      
EEDA0400000000000202743202106220170069                            MONTES GAMINO MARGARITA                 000000000000005300000000000013712110349438084900000                                        9 00000044137001PAGO NOMINA                                                                                                   0000000137121103494380849                      
EEDA0400000000000129575202106220170059                            DOMINGUEZ REYES GUSTAVO                 000000000000005400000000000013711410385620697600000                                        9 00000044137001PAGO NOMINA                                                                                                   0000000137114103856206976                      
EEDA0400000000000214228202106220170605                            BIZAR CRUZ VICTOR ALFONSO               000000000000005500000000000013712110343156087100000                                        9 00000044137001PAGO NOMINA                                                                                                   0000000137121103431560871                      
EEDA0400000000000256767202106220170690                            ARGUETA MARTINEZ GREYSI NATALY          000000000000005600000000000013713310232461808100000                                        9 00000044137001PAGO NOMINA                                                                                                   0000000137133102324618081                      
EEDA0400000000000399964202106220170993                            PEREZ VAZQUEZ MARIA DEL ROSARIO         000000000000005700000000000013712110404465215900000                                        9 00000044137001PAGO NOMINA                                                                                                   0000000137121104044652159                      
EEDA04000000000002544162021062201901122                           SALVADOR GOMEZ ITZEL BERENICE           000000000000005800000000000013713310156141424300000                                        9 00000044137001PAGO NOMINA                                                                                                   0000000137133101561414243                      
EEDA0400000000000274784202106220170941                            ARREOLA LOPEZ KARLA VIVIANA             000000000000005900000000000013712710393991858900000                                        9 00000044137001PAGO NOMINA                                                                                                   0000000137127103939918589                      
EEDA0400000000000230351202106220170927                            CITALAN ORDONEZ FANNY DEL CARMEN        000000000000006000000000000013713310186843822300000                                        9 00000044137001PAGO NOMINA                                                                                                   0000000137133101868438223                      
EEDA0400000000000094183202106220170742                            MEJIA RUBIO JOSUE IXAEL                 000000000000006100000000000013713310306787506700000                                        9 00000044137001PAGO NOMINA                                                                                                   0000000137133103067875067                      
EEDA0400000000000144354202106220170752                            DE LA CRUZ GOMEZ JOSE IGNACIO           000000000000006200000000000013712110343745244600000                                        9 00000044137001PAGO NOMINA                                                                                                   0000000137121103437452446                      
EEDA0400000000000278075202106220170708                            REYNOZA GARCIA MIRIAM CONSUELO          000000000000006300000000000013713310162913390300000                                        9 00000044137001PAGO NOMINA                                                                                                   0000000137133101629133903                      
EEDA0400000000000317547202106220170853                            PASCACIO LORENZANA MARITZA              000000000000006400000000000013761613001839530300000                                        9 00000044137001PAGO NOMINA                                                                                                   0000000137616130018395303                      
EEDA0400000000000399964202106220170867                            PALMA RAYA FANNY                        000000000000006500000000000013711410296092962900000                                        9 00000044137001PAGO NOMINA                                                                                                   0000000137114102960929629                      
EETB000006500000000017453288000000000000000000000000000000000000000000000000000000000000000000000000000000000000000000000000000000000000000000000000000000000000000000000000000000000000000000000000000000000000000000000000000000000000000000000000000                                                                                                                           
EETA000006500000000017453288000000000000000000000000000000000000000000000000000000000000000000000000000000000000000000000000000000000000000000000000000000000000000000000000000000000000000000000000000000000000000000000000000000000000000000000000000                                                                                                                           
