100001E0617202165508187217     06172021
2000020130049CRUZ                          PECH                SANDRA KARINA                 56643204259     000000000000454225
2000030130053MENDEZ                        VALDEZ              EDWIN ALEJANDRO               60566021342     000000000000258609
2000040130054PAT                           CHAN                NIDIA DEL CARMEN              56662922020     000000000000136910
2000050130057VARGAS                        SANGUINO            LUIS ANGEL                    56650141874     000000000000380891
2000060130058YOGUEZ                        PEREZ               VIRGINIA                      60568192670     000000000000163967
2000070130063KAU                           YAM                 ENEYDA                        56626923101     000000000000495040
2000080130074LAURENCE                      LUNA                JUAN ALFREDO                  56692186509     000000000000817158
2000090130091CHAN                          MARTIN              IRLANDA YAZMIN                20006245722     000000000000765050
2000100130310GODOY                         ALCOCER             MARIA DEL SAGRARIO            56711564438     000000000000200295
2000110130316TEH                           CHABLE              SUEMY ARELY                   60606889879     000000000000299202
2000120130366COB                           DZUL                ANGEL MARTIN                  60573349964     000000000000360167
2000130130577CRESCENCIO                    APODACA             OSCAR                         56748377482     000000000000334418
2000140130689CABALLERO                     CAZAN               ALBERT ANDREI                 56752033611     000000000000174034
2000150130692GORDILLO                      HERNANDEZ           JOSE CRUZ                     56752456640     000000000000155404
2000160130729RAMIREZ                       URIOSTEGUI          JOSE ARMANDO                  56758548624     000000000000334426
2000170130765GASPAR                        ANDRES              JESSICA                       60605365210     000000000000334426
2000180130806OSORIO                        MARTINEZ            EDGAR                         56764548167     000000000000371523
2000190130880LOPEZ                         TORRES              MARCO ANTONIO                 56753718495     000000000000334416
2000200130882ALVAREZ                       CORNELIO            ARACELI                       56760503877     000000000000334426
2000210902911ROCHA                         UICAB               MANUEL JESUS                  56757726459     000000000000334416
30002200020000000000007039003
